:020000040800F2
:1000000000500020F56B00083D6C0008092900082D
:100010003D6C00083D6C00083D6C000800000000CD
:100020000000000000000000000000003D6C00081F
:100030003D6C0008000000003D6C00080529000828
:100040003D6C00083D6C00083D6C00083D6C0008EC
:100050003D6C00083D6C00083D6C00083D6C0008DC
:100060003D6C00083D6C00083D6C00083D6C0008CC
:100070003D6C00083D6C00083D6C00083D6C0008BC
:100080003D6C00083D6C00083D6C00083D6C0008AC
:100090003D6C00083D6C00083D6C00083D6C00089C
:1000A0003D6C00083D6C00083D6C00083D6C00088C
:1000B00031260008592600083D6C00083D6C0008F8
:1000C0003D6C00083D6C00083D6C00083D6C00086C
:1000D0003D6C000881260008E5260008ED27000891
:1000E0003D6C00083D6C00083D6C000800000000FD
:1000F0000000000000000000000000000000000000
:0C01000000000000000000005FF808F1A3
:10010C0010F8012B11F8013B012A28BF9A42F7D0B5
:10011C00D01A7047034613F8012B002AFBD1181A8A
:10012C000138704781F0004102E000BF83F00043CA
:10013C0030B54FEA41044FEA430594EA050F08BF76
:10014C0090EA020F1FBF54EA000C55EA020C7FEA3A
:10015C00645C7FEA655C00F0E2804FEA5454D4EBB7
:10016C005555B8BF6D420CDD2C4480EA020281EA81
:10017C00030382EA000083EA010180EA020281EAB9
:10018C000303362D88BF30BD11F0004F4FEA01310B
:10019C004FF4801C4CEA113102D0404261EB41011A
:1001AC0013F0004F4FEA03334CEA133302D05242A0
:1001BC0063EB430394EA050F00F0A780A4F101045C
:1001CC00D5F1200E0DDB02FA0EFC22FA05F2801896
:1001DC0041F1000103FA0EF2801843FA05F359417C
:1001EC000EE0A5F120050EF1200E012A03FA0EFCFB
:1001FC0028BF4CF0020C43FA05F3C01851EBE37125
:10020C0001F0004507D54FF0000EDCF1000C7EEB41
:10021C0000006EEB0101B1F5801F1BD3B1F5001F7F
:10022C000CD349085FEA30004FEA3C0C04F101049E
:10023C004FEA445212F5800F80F09A80BCF1004FC7
:10024C0008BF5FEA500C50F1000041EB045141EA49
:10025C00050130BD5FEA4C0C404141EB0101013C12
:10026C0028BFB1F5801FE9D291F0000F04BF014601
:10027C000020B1FA81F308BF2033A3F10B03B3F1D3
:10028C0020020CDA0C3208DD02F1140CC2F10C0263
:10029C0001FA0CF021FA02F10CE002F11402D8BFC1
:1002AC00C2F1200C01FA02F120FA0CFCDCBF41EA8D
:1002BC000C019040E41AA2BF01EB0451294330BD5C
:1002CC006FEA04041F3C1CDA0C340EDC04F1140439
:1002DC00C4F1200220FA04F001FA02F340EA030010
:1002EC0021FA04F345EA030130BDC4F10C04C4F156
:1002FC00200220FA02F001FA04F340EA0300294636
:10030C0030BD21FA04F0294630BD94F0000F83F47F
:10031C00801306BF81F480110134013D4EE77FEA62
:10032C00645C18BF7FEA655C29D094EA050F08BFAE
:10033C0090EA020F05D054EA000C04BF194610468F
:10034C0030BD91EA030F1EBF0021002030BD5FEAD3
:10035C00545C05D14000494128BF41F0004130BDFB
:10036C0014F580043CBF01F5801130BD01F000454F
:10037C0045F0FE4141F470014FF0000030BD7FEAC2
:10038C00645C1ABF194610467FEA655C1CBF0B46BD
:10039C00024650EA013406BF52EA033591EA030FD4
:1003AC0041F4002130BD00BF90F0000F04BF0021CC
:1003BC00704730B54FF4806404F132044FF00005FF
:1003CC004FF0000150E700BF90F0000F04BF002178
:1003DC00704730B54FF4806404F1320410F00045DE
:1003EC0048BF40424FF000013EE700BF42004FEAD9
:1003FC00E2014FEA31014FEA02701FBF12F07F4356
:10040C0093F07F4F81F06051704732F07F4208BF0C
:10041C00704793F07F4F04BF41F40021704730B513
:10042C004FF4607401F0004521F000411CE700BF5F
:10043C0050EA010208BF704730B54FF000050AE0E2
:10044C0050EA010208BF704730B511F0004502D5E3
:10045C00404261EB41014FF4806404F132045FEAE5
:10046C00915C3FF4D8AE4FF003025FEADC0C18BF8E
:10047C0003325FEADC0C18BF033202EBDC02C2F180
:10048C00200300FA03FC20FA02F001FA03FE40EA12
:10049C000E0021FA02F11444BDE600BF70B54FF016
:1004AC00FF0C4CF4E06C1CEA11541DBF1CEA1355F4
:1004BC0094EA0C0F95EA0C0F00F0DEF82C4481EA5C
:1004CC00030621EA4C5123EA4C5350EA013518BF7C
:1004DC0052EA033541F4801143F4801338D0A0FB69
:1004EC0002CE4FF00005E1FB02E506F00042E0FB16
:1004FC0003E54FF00006E1FB03569CF0000F18BF1C
:10050C004EF0010EA4F1FF04B6F5007F64F54074C3
:10051C0004D25FEA4E0E6D4146EB060642EAC62156
:10052C0041EA55514FEAC52040EA5E504FEACE2EC3
:10053C00B4F1FD0C88BFBCF5E06F1ED8BEF1004FC6
:10054C0008BF5FEA500E50F1000041EB045170BD42
:10055C0006F0004646EA010140EA020081EA030186
:10056C00B4EB5C04C2BFD4EB0C0541EA045170BD82
:10057C0041F480114FF0000E013C00F3AB8014F1FC
:10058C00360FDEBF002001F0004170BDC4F1000445
:10059C00203C35DA0C341BDC04F11404C4F12005C6
:1005AC0000FA05F320FA04F001FA05F240EA020021
:1005BC0001F0004221F0004110EBD37021FA04F657
:1005CC0042EB06015EEA430E08BF20EAD37070BD11
:1005DC00C4F10C04C4F1200500FA04F320FA05F070
:1005EC0001FA04F240EA020001F0004110EBD37072
:1005FC0041F100015EEA430E08BF20EAD37070BDE2
:10060C00C4F1200500FA05F24EEA020E20FA04F3BA
:10061C0001FA05F243EA020321FA04F001F0004169
:10062C0021FA04F220EA020000EBD3705EEA430EDA
:10063C0008BF20EAD37070BD94F0000F0FD101F009
:10064C000046400041EB010111F4801F08BF013C42
:10065C00F7D041EA060195F0000F18BF704703F080
:10066C000046520043EB030313F4801F08BF013D07
:10067C00F7D043EA0603704794EA0C0F0CEA1355C3
:10068C0018BF95EA0C0F0CD050EA410618BF52EA7D
:10069C004306D1D181EA030101F000414FF0000083
:1006AC0070BD50EA410606BF1046194652EA430691
:1006BC0019D094EA0C0F02D150EA013613D195EA05
:1006CC000C0F05D152EA03361CBF104619460AD14D
:1006DC0081EA030101F0004141F0FE4141F4700157
:1006EC004FF0000070BD41F0FE4141F4780170BD47
:1006FC0070B54FF0FF0C4CF4E06C1CEA11541DBFAC
:10070C001CEA135594EA0C0F95EA0C0F00F0A7F8AD
:10071C00A4EB050481EA030E52EA03354FEA0131DA
:10072C0000F088804FEA03334FF0805545EA1313ED
:10073C0043EA12634FEA022245EA111545EA1065B5
:10074C004FEA00260EF000419D4208BF964244F14C
:10075C00FD0404F5407402D25B084FEA3202B61A6B
:10076C0065EB03055B084FEA32024FF480104FF43F
:10077C00002CB6EB020E75EB030E22BFB61A7546B3
:10078C0040EA0C005B084FEA3202B6EB020E75EB46
:10079C00030E22BFB61A754640EA5C005B084FEAAE
:1007AC003202B6EB020E75EB030E22BFB61A75467B
:1007BC0040EA9C005B084FEA3202B6EB020E75EB86
:1007CC00030E22BFB61A754640EADC0055EA060E47
:1007DC0018D04FEA051545EA16754FEA06164FEA8A
:1007EC00C30343EA52734FEAC2025FEA1C1CC0D136
:1007FC0011F4801F0BD141EA00014FF000004FF0C3
:10080C00004CB6E711F4801F04BF01430020B4F183
:10081C00FD0C88BFBCF5E06F3FF6AFAEB5EB030C3B
:10082C0004BFB6EB020C5FEA500C50F1000041EB38
:10083C00045170BD0EF0004E4EEA113114EB5C0405
:10084C00C2BFD4EB0C0541EA045170BD41F48011D8
:10085C004FF0000E013C90E645EA060E8DE60CEAE0
:10086C00135594EA0C0F08BF95EA0C0F3FF43BAFFD
:10087C0094EA0C0F0AD150EA01347FF434AF95EAB4
:10088C000C0F7FF425AF104619462CE795EA0C0F98
:10089C0006D152EA03353FF4FDAE1046194622E765
:1008AC0050EA410618BF52EA43067FF4C5AE50EA3F
:1008BC0041047FF40DAF52EA43057FF4EBAE12E72F
:1008CC0080F0004002E000BF81F0004142001FBFF9
:1008DC005FEA410392EA030F7FEA226C7FEA236C02
:1008EC006AD04FEA1262D2EB1363C1BFD2184140F7
:1008FC0048404140B8BF5B42192B88BF704710F08D
:10090C00004F40F4000020F07F4018BF404211F02F
:10091C00004F41F4000121F07F4118BF494292EA97
:10092C00030F3FD0A2F1010241FA03FC10EB0C00C3
:10093C00C3F1200301FA03F100F0004302D5494250
:10094C0060EB4000B0F5000F13D3B0F1807F06D3FD
:10095C0040084FEA310102F10102FE2A51D2B1F1F5
:10096C00004F40EBC25008BF20F0010040EA0300EA
:10097C007047490040EB0000013A28BFB0F5000F6A
:10098C00EDD2B0FA80FCACF1080CB2EB0C0200FA20
:10099C000CF0AABF00EBC25052421843BCBFD0406F
:1009AC001843704792F0000F81F4000106BF80F4E9
:1009BC0000000132013BB5E74FEA41037FEA226CAC
:1009CC0018BF7FEA236C21D092EA030F04D092F077
:1009DC00000F08BF0846704790EA010F1CBF0020AB
:1009EC00704712F07F4F04D1400028BF40F0004008
:1009FC00704712F100723CBF00F50000704700F028
:100A0C00004343F0FE4040F4000070477FEA22624E
:100A1C0016BF08467FEA23630146420206BF5FEA1F
:100A2C00412390EA010F40F4800070474FF000031F
:100A3C0004E000BF10F0004348BF40425FEA000CE6
:100A4C0008BF704743F0964301464FF000001CE08E
:100A5C0050EA010208BF70474FF000030AE000BFE4
:100A6C0050EA010208BF704711F0004302D5404222
:100A7C0061EB41015FEA010C02BF84460146002094
:100A8C0043F0B64308BFA3F18053A3F50003BCFAAF
:100A9C008CF2083AA3EBC25310DB01FA02FC63445C
:100AAC0000FA02FCC2F12002BCF1004F20FA02F263
:100ABC0043EB020008BF20F00100704702F1200256
:100ACC0001FA02FCC2F1200250EA4C0021FA02F2B7
:100ADC0043EB020008BF20EADC7070474FF0FF0CBC
:100AEC001CEAD0521EBF1CEAD15392EA0C0F93EAB7
:100AFC000C0F6FD01A4480EA010C400218BF5FEA59
:100B0C0041211ED04FF0006343EA501043EA5111CB
:100B1C00A0FB01310CF00040B1F5000F3EBF4900C5
:100B2C0041EAD3715B0040EA010062F17F02FD2AC9
:100B3C001DD8B3F1004F40EBC25008BF20F00100AC
:100B4C00704790F0000F0CF0004C08BF49024CEAC3
:100B5C00502040EA51207F3AC2BFD2F1FF0340EA55
:100B6C00C250704740F400004FF00003013A5DDCC6
:100B7C0012F1190FDCBF00F000407047C2F1000207
:100B8C00410021FA02F1C2F1200200FA02FC5FEAF4
:100B9C00310040F1000053EA4C0308BF20EADC703E
:100BAC00704792F0000F00F0004C02BF400010F4B0
:100BBC00000F013AF9D040EA0C0093F0000F01F05D
:100BCC00004C02BF490011F4000F013BF9D041EA7F
:100BDC000C018FE70CEAD15392EA0C0F18BF93EA81
:100BEC000C0F0AD030F0004C18BF31F0004CD8D1AB
:100BFC0080EA010000F00040704790F0000F17BF32
:100C0C0090F0004F084691F0000F91F0004F14D077
:100C1C0092EA0C0F01D142020FD193EA0C0F03D1CF
:100C2C004B0218BF084608D180EA010000F00040D2
:100C3C0040F0FE4040F40000704740F0FE4040F4AD
:100C4C00400070474FF0FF0C1CEAD0521EBF1CEA4C
:100C5C00D15392EA0C0F93EA0C0F69D0A2EB03026A
:100C6C0080EA010C49024FEA402037D04FF0805304
:100C7C0043EA111143EA10130CF000408B4238BFC9
:100C8C005B0042F17D024FF4000C8B4224BF5B1AD7
:100C9C0040EA0C00B3EB510F24BFA3EB510340EA25
:100CAC005C00B3EB910F24BFA3EB910340EA9C00D3
:100CBC00B3EBD10F24BFA3EBD10340EADC001B0143
:100CCC0018BF5FEA1C1CE0D1FD2A3FF650AF8B42E7
:100CDC0040EBC25008BF20F0010070470CF0004CF4
:100CEC004CEA50207F32C2BFD2F1FF0340EAC2501F
:100CFC00704740F400004FF00003013A37E792F0E0
:100D0C00000F00F0004C02BF400010F4000F013A3D
:100D1C00F9D040EA0C0093F0000F01F0004C02BF38
:100D2C00490011F4000F013BF9D041EA0C0195E7A1
:100D3C000CEAD15392EA0C0F08D142027FF47DAF3A
:100D4C0093EA0C0F7FF470AF084676E793EA0C0F2A
:100D5C0004D14B023FF44CAF08466EE730F0004C28
:100D6C0018BF31F0004CCAD130F000427FF45CAFB8
:100D7C0031F000437FF43CAF5FE700BF4FF0FF3C26
:100D8C0006E000BF4FF0010C02E000BF4FF0010C79
:100D9C004DF804CD4FEA40024FEA41037FEA226C42
:100DAC0018BF7FEA236C11D001B052EA530C18BF64
:100DBC0090EA010F58BFB2EB030088BFC81738BFC9
:100DCC006FEAE17018BF40F0010070477FEA226CB7
:100DDC0002D15FEA402C05D17FEA236CE4D15FEAB3
:100DEC00412CE1D05DF8040B704700BF84460846E7
:100DFC006146FFE70FB5FFF7C9FF002848BF10F1A8
:100E0C00000F0FBD4DF808EDFFF7F4FF0CBF0120EC
:100E1C0000205DF808FB00BF4DF808EDFFF7EAFF76
:100E2C0034BF012000205DF808FB00BF4DF808ED31
:100E3C00FFF7E0FF94BF012000205DF808FB00BF26
:100E4C004DF808EDFFF7D2FF94BF012000205DF8AC
:100E5C0008FB00BF4DF808EDFFF7C8FF34BF0120B9
:100E6C0000205DF808FB00BF4FEA4002B2F1FE4FD4
:100E7C000FD34FF09E03B3EB12620DD94FEA002350
:100E8C0043F0004310F0004F23FA02F018BF404229
:100E9C0070474FF00000704712F1610F01D1420210
:100EAC0005D110F0004008BF6FF0004070474FF0C4
:100EBC000000704742000ED2B2F1FE4F0BD34FF040
:100ECC009E03B3EB126209D44FEA002343F00043B4
:100EDC0023FA02F070474FF00000704712F1610FD7
:100EEC0001D1420202D14FF0FF3070474FF00000A9
:100EFC00704700BF0348044B834202D0034B03B13D
:100F0C0018477047A8000020A8000020000000002F
:100F1C000548064B1B1AD90F01EBA301491002D04F
:100F2C00034B03B118477047A8000020A80000200D
:100F3C000000000010B5064C237843B9FFF7DAFF28
:100F4C00044B13B10448AFF300800123237010BD90
:100F5C00A800002000000000406C000808B5054BFC
:100F6C001BB105490548AFF30080BDE80840FFF709
:100F7C00CFBF00BF00000000AC000020406C000898
:100F8C007047000038B50E4B05461A784FF47A734B
:100F9C00B3FBF2F30B4A1068B0FBF3F000F09CF8D3
:100FAC00044658B90F2D09D8024629464FF0FF3098
:100FBC0000F054F82046044B1D6038BD0120FCE7BE
:100FCC0000000020A400002004000020074A08B5FF
:100FDC001368032043F01003136000F02DF80F206A
:100FEC00FFF7D0FFFFF7CCFF002008BD0020024028
:100FFC00034A044B11681B780B441360704700BF05
:10100C00C400002000000020014B1868704700BF8E
:10101C00C400002038B50446FFF7F6FF0546631CF4
:10102C001EBF044B1B78E418FFF7EEFF431BA342D3
:10103C00FAD338BD0000002007490302CA6803F444
:10104C00E06322F4E0621204120C134343F0BF631A
:10105C0043F40033CB60704700ED00E0154B30B526
:10106C00DC68C4F30224C4F10703251D042B28BF3C
:10107C000423062D4FF0FF3594BF0024033C05FAE2
:10108C0003F321EA0303A54022EA0502A34000284A
:10109C0043EA0203ACBF00F16040074A4FEA031376
:1010AC00DBB2ABBF00F5614000F00F0080F80033FD
:1010BC00135430BD00ED00E014ED00E0002807DB18
:1010CC0001234109034A00F01F00834042F82130FC
:1010DC00704700BF00E100E00138B0F1807F0BD217
:1010EC004FF0E023F021054A586182F823100020CC
:1010FC00072298611A6170470120704700ED00E0EB
:10110C002DE9F74F00244FF00F0E2646DFF884C16F
:10111C00614B00F104080A6832FA06F502D103B0FB
:10112C00BDE8F08F012505FA06F702EA070537EA54
:10113C00020276D14A68032A07D8013A022A00F241
:10114C008380DFE802F091969C00122A00F09480D4
:10115C0069D8112A00F08A80FF2D94BF8146C146C0
:10116C004FEA8602D9F8007088BF203A0EFA02FACC
:10117C0027EA0A0704FA02F21743C9F80070D1F8FB
:10118C00049019F0805F4CD0DCF8182026F003078F
:10119C0042F00102CCF81820DCF8182007F1804747
:1011AC0002F00102019207F5803706F0030A019A5A
:1011BC004FEA8A0ABA680EFA0AFB22EA0B0B374A84
:1011CC00904260D002F5806290425ED002F580625F
:1011DC0090425CD002F58062904214BF042203223C
:1011EC0002FA0AF242EA0B02BA609A6819F4801FFA
:1011FC0014BF2A43AA439A60DA6819F4001F14BF7B
:10120C002A43AA43DA605A6819F4003F14BF2A43F0
:10121C00AA435A601A6819F4803F14BF2A43AA43A0
:10122C001A60013677E7DFF878904A450CD014D86D
:10123C00A9F580194A4507D009F570294A4503D00C
:10124C00A9F580194A4587D18A68D2B1012A4FF095
:10125C0008040CBF076147617EE7DFF848904A45F8
:10126C00F2D009F58039EDE7CC6875E7CC68043429
:10127C0072E7CC6808346FE7CC680C346CE7002458
:10128C006AE7042468E70022AAE70122A8E7022201
:10129C00A6E700BF00100240000401400008014016
:1012AC00000022100000311080680840003818BF80
:1012BC00012070470AB1016170470904FBE7C3685C
:1012CC0001EA030221EA030141EA0241016170478C
:1012DC002DE9F341054638B30368DB0710D42B68BE
:1012EC009F075ED42B68190700F195802B685A076D
:1012FC0000F1C180EB69002B40F02C81002029E02B
:10130C00904C636803F00C03042B07D0636803F064
:10131C000C03082B0AD16368DE0307D523689C03F2
:10132C00DDD56B68002BDAD1012013E06B68B3F5C7
:10133C00803F12D1236843F480332360FFF764FEAF
:10134C00064623689803CAD4FFF75EFE801B642808
:10135C00F7D9032002B0BDE8F0819BB9236823F4D0
:10136C0080332360236823F480232360FFF74CFE33
:10137C00064623689903B2D5FFF746FE801B642806
:10138C00F7D9E6E7B3F5A02F236803D143F4802304
:10139C002360CFE723F480332360236823F4802376
:1013AC00CBE7684C636813F00C0F07D0636803F04D
:1013BC000C03082B10D16368DA030DD423689B0748
:1013CC0002D52B69012BAFD123686A6923F0F8038E
:1013DC0043EAC203236085E72A695B4B6AB10122A9
:1013EC001A60FFF711FE064623689F07ECD4FFF73F
:1013FC000BFE801B0228F7D9ABE71A60FFF704FE3F
:10140C000646236898077FF56DAFFFF7FDFD801B3F
:10141C000228F6D99DE7AA694A4E4B4BE2B101224C
:10142C00C3F88024FFF7F0FD0446736A9B070DD5C3
:10143C004FF4FA52454B1B68B3FBF2F3019300BF18
:10144C00019B5A1E0192002BF9D14FE7FFF7DCFDEF
:10145C00001B0228E9D97CE7C3F88024FFF7D4FDF0
:10146C000446736A9F077FF541AFFFF7CDFD001B64
:10147C000228F6D96DE7334CE369D80024D4012750
:10148C00E36943F08053E361E36903F08053009315
:10149C00009B2F4E3368D90518D5EB68012B26D14C
:1014AC00236A43F001032362FFF7AEFD41F2883853
:1014BC000646236A9B073FD5002F3FF41BAFE36919
:1014CC0023F08053E36115E70027E2E7336843F428
:1014DC0080733360FFF798FD80463368DA05DCD4FF
:1014EC00FFF792FDA0EB08006428F6D931E7ABB901
:1014FC00236A41F2883823F001032362236A23F024
:10150C0004032362FFF780FD0646236A9807D3D5B0
:10151C00FFF77AFD801B4045F7D91AE7052B236AA4
:10152C0003D143F004032362BAE723F001032362DF
:10153C00236A23F00403B6E7FFF766FD801B4045E2
:10154C00B7D906E70010024000004242A400002078
:10155C00007000402A4C626802F00C02082A3ED04F
:10156C000022022B274B1A662CD1FFF74DFD0646A5
:10157C002368990120D42B6AB3F5803F05D16268AA
:10158C00A96822F400320A436260696A62680B43FC
:10159C0022F474121343012263601A4B1A66FFF78C
:1015AC0033FD054623689A013FF5A8AEFFF72CFDE5
:1015BC00401B0228F6D9CCE6FFF726FD801B02283B
:1015CC00D6D9C6E6FFF720FD054623689B017FF5BB
:1015DC0095AEFFF719FD401B0228F6D9B9E6012B91
:1015EC003FF4A2AE60682B6A00F480329A427FF41A
:1015FC009BAE6B6A00F47010C01A18BF0120A9E6EC
:10160C0000100240000042420D4A536803F00C01E6
:10161C00082912D10B48C3F38341DB03405C09D585
:10162C005368094AC3F340435043084AD35CB0FBA8
:10163C00F3F07047064B584370470348704700BFA0
:10164C0000100240926C000800127A00906C0008A6
:10165C0000093D002DE9F0410D46044610B901206A
:10166C00BDE8F081444A136803F007038B4228D38A
:10167C0021688E0730D4CA0743D43F4A136803F05D
:10168C000703AB4265D822683C4D12F0040F6CD1B5
:10169C00130706D56B68226923F4605343EAC2032F
:1016AC006B60FFF7B1FF6B68354AC3F30313D35C70
:1016BC00D840344B1860344B1868FFF763FC00209B
:1016CC00CEE7136823F007030B431360136803F092
:1016DC0007038B42C3D1CBE7284B11F0040F1EBF7D
:1016EC005A6842F4E0625A60080742BF5A6842F4F2
:1016FC0060525A605A68A06822F0F00202435A60A5
:10170C00B9E762681D4E012A33681AD113F4003F01
:10171C00A5D0736841F2883823F003031343736038
:10172C00FFF772FC07467368626803F00C03B3EBB7
:10173C00820FA2D0FFF768FCC01B4045F3D90320F1
:10174C008EE7022A02D113F0007FE1E713F0020FBB
:10175C00DEE7136823F007032B431360136803F0D1
:10176C000703AB427FF47BAF8DE76B68E16823F432
:10177C00E0630B436B608BE70020024000100240DB
:10178C0024820008A400002004000020044B054A19
:10179C005B68C3F30223D35C034A1068D8407047DC
:1017AC00001002401C820008A4000020044B054AD3
:1017BC005B68C3F3C223D35C034A1068D8407047FC
:1017CC00001002401C820008A4000020704700009A
:1017DC0090F83D30012B1CD102230F4A80F83D308C
:1017EC00036893420AD0B3F1804F07D0A2F594322C
:1017FC00934203D002F58062934204D19A6802F0BE
:10180C000702062A03D01A6842F001021A6000206F
:10181C0070470120704700BF002C0140174A036835
:10182C0090420AD0B0F1804F07D0A2F5943290428A
:10183C0003D002F58062904207D14A6823F070030E
:10184C001343CA6823F4407313434A6923F080039B
:10185C00134303608B68C3620B688362074B984227
:10186C0004BF0B690363012343610369DB0742BFB8
:10187C00036923F001030361704700BF002C014092
:10188C0010B5044630B390F83D3003F0FF021BB99D
:10189C0080F83C20FFF79AFF0223206884F83D3043
:1018AC00211DFFF7BBFF0123002084F8463084F88C
:1018BC003E3084F83F3084F8403084F8413084F86E
:1018CC00423084F8433084F8443084F8453084F84E
:1018DC003D3010BD0120FCE7026802F10C0353E817
:1018EC00003F23F490730C3242E800310268002967
:1018FC00F2D102F1140353E8003F23F0010302F18B
:10190C00140C4CE800310029F3D1036B012B0BD1E3
:10191C0002F10C0353E8003F23F0100302F10C0C0E
:10192C004CE800310029F3D1202380F84230002309
:10193C000363704710B504460368C1681A6922F442
:10194C0040520A431A6182680069D968024360698F
:10195C0021F4B05121F00C0102430A43DA605A69B8
:10196C00A16922F440720A435A610E4A934215D17E
:10197C00FFF71CFF19234343626820689200B3FBF6
:10198C00F2F36422B3FBF2F102FB11331B0132338D
:10199C00B3FBF2F303EB0113836010BDFFF7F6FE0C
:1019AC00E8E700BF00380140F7B505460C4617467E
:1019BC001E462A68136834EA030301D1002021E093
:1019CC00701CF7D0FFF720FBC01B86421CD3DEB186
:1019DC002B68DA685107ECD5802CEAD0402CE8D083
:1019EC001A681207E5D5002401941A68284601925A
:1019FC005B680193019BFFF76FFF082301206B6469
:101A0C0085F8404003B0F0BD0320FBE7704710B5EC
:101A1C00044648B390F8413003F0FF021BB980F83C
:101A2C004020FFF7F3FF2423226884F84130D36869
:101A3C00204623F40053D360FFF77CFF236800207B
:101A4C001A6922F490421A615A6922F02A025A61E8
:101A5C00DA6842F40052DA602023606484F8413082
:101A6C0084F84230606310BD0120FCE72DE9F84397
:101A7C00984690F841300446202B0E4617463FD12D
:101A8C0000293FD0002A3DD021230025456480F851
:101A9C004130FFF7B9FAA3688146B3F5805FA7849C
:101AAC00E78403D123690BB935461E46E38C9BB200
:101ABC0053B943464A4640212046FFF775FF202381
:101ACC0050B984F841300AE043464A46802120460A
:101ADC00FFF76AFF28B12023032084F84130BDE8CA
:101AEC00F88322684EB935F8023BC3F30803536000
:101AFC00E18C013989B2E184D8E716F8013BF6E7AD
:101B0C000220ECE70120EAE7002310B503638364AD
:101B1C00C36403640446FFF777FA012384F8543056
:101B2C00206510BD2DE9F04F91B01F469DF868302F
:101B3C0082460A931B9B89460C931C9BBDF97480AF
:101B4C0009931E9B0B920D931F9B0E9382EAE273DB
:101B5C00A3EBE2739BB2B3F5C87F00F2B3814345AC
:101B6C0040F3B0811046FEF765FF3A7C05464FF016
:101B7C007E5B002A40F0F48001233860C7F804B083
:101B8C003B74FFF741FA0646D9F85000301AFEF7BD
:101B9C004DFF8E49FFF756F88D490446FFF73CF987
:101BAC00002840F002814FF07E512046FFF752F999
:101BBC0008B14FF07E54D9F80010C9F8506028468F
:101BCC00FEF78CFF0646D9F848102846FEF77CFE37
:101BDC002146FFF737F8D9F80810C9F84850FEF736
:101BEC007DFF3146FEF772FED9F86060044631463F
:101BFC00FFF730F900B13446D9F85C602046314625
:101C0C00FFF70AF900B134464FF07E512046FFF73A
:101C1C0021F9002840F0CB8020466E49FFF7FCF8F4
:101C2C0000B16C4C0A9B0BB104F10044002120461E
:101C3C00FFF706F9B0FA80F300215B0920460A93FE
:101C4C00FFF7FEF8002840F0B58004F1004B404649
:101C5C00FEF7F0FED9F8046080463146FFF7F0F845
:101C6C0028B14FF07E514046FEF730FE064600216B
:101C7C002846FFF7EFF8002840F09E8005F1004061
:101C8C004146FEF721FE41460F903046FEF71CFE02
:101C9C0001460F98FEF7D6FF00218046FFF7BCF8EF
:101CAC00002840F08B804FF07E514046FFF7D2F871
:101CBC0008B14FF07E5859464046FFF7ADF8002862
:101CCC007FD040460E99FEF709FF00210646FFF72C
:101CDC00A3F800B1002640493046FEF7FFFEFFF79F
:101CEC00E9F844F62063A3EB000B9B4528BF9B4609
:101CFC0041F288339B4538BF9B460D9B002B71D01E
:101D0C00504603F042F800210D902046FFF798F85A
:101D1C000D9B002857D0581C00F5C870B0F5487FB3
:101D2C0060D9504603F02FF810B1504602F084FFF2
:101D3C004846FFF7E9FE002300223B74099B1A601A
:101D4C00264B1A78002A40F0988001221A704FF422
:101D5C00C8720C99224811B0BDE8F04F03F0CEB90F
:101D6C00B9687868FEF7B2FDF9680446FEF7AEFD77
:101D7C0001462046FEF766FF06463A68284611469D
:101D8C000F92FEF7A1FD3146FEF7A8FE0F9A114601
:101D9C00FEF79CFD3146386005465846FEF794FD2B
:101DAC002146FEF79BFE7860EBE6094C03E74FF00B
:101DBC007E5437E7A3464AE7284661E74FF0000810
:101DCC0079E758467EE7581EA6E700BF00007A4424
:101DDC006F12833A000080BF00606A46CA00002080
:101DEC00A26C0008099B58461C68FEF71FFE0021D8
:101DFC0007462046FFF706F878B94FF07C5120468D
:101E0C00FEF76CFE4FF07C5104463846FEF766FE3A
:101E1C0001462046FEF75AFD0746099B4FF07C51C0
:101E2C001F603846FEF752FDFFF744F844F6206376
:101E3C00984228BF184641F28833834698420A9943
:101E4C00504638BF9B4602F09BFD504602F09BFF6C
:101E5C00012802D0504602F0EFFD5946504602F0E0
:101E6C00C3FD204A2049BAEB020218BF01228B5C49
:101E7C000133DBB2042B03D88B5411B0BDE8F08FC7
:101E8C00002328468B54FEF7B1FA044630460D4623
:101E9C00FEF7ACFA064640460F46FEF7A7FA804618
:101EAC005046894602F071FFDDE90B21CDE906B001
:101EBC00CDE90489CDE90267CDE900450B4803F073
:101ECC001DF9DAE7504602F05EFF10B1504602F001
:101EDC00B3FE4846FFF718FE002300223B74099B13
:101EEC001A60CAE774040020C8000020D06C0008F7
:101EFC00F0B51D4E3368DB689B0433D572B61B4DB1
:101F0C001B4B1C4F01442A881C880132A4B2D2B24C
:101F1C00A24208BF1C8810F801CB02BF0134E4B206
:101F2C001C802C888842A4B207F804C02A80EAD10D
:101F3C0062B611480278AAB929881A8889B292B275
:101F4C0091420FD0012202701A8892B2B95C1A88A1
:101F5C00C9B20132D2B21A8033685960DA6842F0E1
:101F6C008002DA60F0BD00BF14050020780100206B
:101F7C00760100207A010020750100200FB407B50E
:101F8C0004AB53F8042B80210648019303F0FCF9B1
:101F9C00011E02DD0348FFF7ABFF03B05DF804EB55
:101FAC0004B07047D00000202DE9F74F1E46836C1B
:101FBC008846A2EB030A8AEAEA73A3EBEA73B3F549
:101FCC00FA6F054614464FF0000B0C9F0D99DFF885
:101FDC00609240F3FF80D9F80030002B40F0E18094
:101FEC00FFF712F8C9F80000284602F0CCFE0028D2
:101FFC0040F00D812146284602F03EFDFFF704F823
:10200C000446D8F81C00201AFEF710FD8949FEF78B
:10201C0065FD88498146FEF7FFFE002840F0F980F7
:10202C004FF07E514846FEF715FF08B14FF07E5930
:10203C005046FEF7FFFC4946C8F81C408246FEF7A6
:10204C004DFDD8F81010FEF741FC7B490446FEF715
:10205C0001FF00B1784C20467849FEF7DDFE00B157
:10206C00764CD8F80C105046C8F81040FEF72CFCF3
:10207C004946FEF7E7FDD8F800108146C8F80CA0D9
:10208C005046FEF72BFDD8F8041082462046FEF78A
:10209C0025FD01465046FEF719FCD8F808100446F9
:1020AC004846FEF71BFD01462046FEF70FFCD8F80C
:1020BC00189004464946FEF7CDFE00B14C46D8F8C0
:1020CC00148020464146FEF7A7FE00B144464FF06F
:1020DC007E512046FEF7BEFE002840F0A18020462F
:1020EC005749FEF799FE002840F0968000212046C3
:1020FC00FEF7B0FE002800F0908039462046FEF72F
:10210C00EDFC00210446FEF787FE002840F08D8090
:10211C004FF07E512046FEF79DFE002800F0838094
:10212C004FF07E504749FEF7D9FCFEF7C3FE44F64C
:10213C002063181A984228BF184641F288339842F7
:10214C0038BF1846FEF772FC376804460021384643
:10215C00FEF758FE68B938463B49FEF7BFFC3B49D1
:10216C0007462046FEF7BAFC01463846FEF7AEFBA2
:10217C0004464FF07C5120463460FEF7A7FBFEF777
:10218C0099FE44F62063984228BF184641F28831E4
:10219C00814238BF0146284603B0BDE8F04F02F03B
:1021AC0023BC0191FEF730FFD9F80030C01A40F67D
:1021BC00B83398427FF618AF254B01991A78002A4C
:1021CC007FF412AF012223481A700323524602F007
:1021DC0095FF09E700231E4AC9F8003013700AF175
:1021EC000203042B3FF600AF02F0CDFD10B12846E0
:1021FC0002F022FDC8F80CB0C8F810B0FEF704FFCE
:10220C00C8F81C00C6F800B003B0BDE8F08FEC6451
:10221C00F4E6DFF820900BE7094C04F100446CE77E
:10222C004FF07E5469E720467CE700207AE700BF38
:10223C00A40200206F12833A00409C4500409CC5CC
:10224C00000080BF00606A463333333F9A99993E51
:10225C00A3020020116D00082DE9F041002588B083
:10226C00454B06959A69012442F004029A619A69D9
:10227C000326022702F0040200924FF0F008009AA5
:10228C009A6904A942F008029A619A693B4802F0E3
:10229C0008020192019A9A6942F010029A619A69B5
:1022AC0002F010020292029A9A6942F001029A61BB
:1022BC009B69334A03F001030393039B536823F098
:1022CC00E06343F000735360CDE904640797FEF7B5
:1022DC0017FF2A4631462948FEF7ECFF04A9274888
:1022EC00CDE904840796FEF70BFF2A4641462348A6
:1022FC00FEF7E0FF4FF0780804A92248CDE904640A
:10230C000797FEF7FDFE2A4631461E48FEF7D2FF20
:10231C000796802604A91B48CDE90484FEF7F0FE3D
:10232C002A4641461748FEF7C5FF04A91548CDE9D2
:10233C0004640797FEF7E4FE2A4631461148FEF77F
:10234C00B9FF4FF47043CDE904354FF4005504A99F
:10235C000C480694FEF7D4FE04A90B48CDE90454AE
:10236C000797FEF7CDFE224629460748FEF7A2FF47
:10237C0008B0BDE8F08100BF001002400008014029
:10238C0000000140000C01400010014030B5002558
:10239C0087B01B4B04959A6902A942F480429A615A
:1023AC009B694FF4007203F480430193019B022359
:1023BC00CDE90223032313480593FEF7A1FE4FF446
:1023CC00806302A90F48CDE902350495FEF798FE0B
:1023DC004FF4E1330C4C0D492046C4E900130C2397
:1023EC00C4E90255C4E905352561E561FFF70FFB2A
:1023FC002268D36843F02003D36007B030BD00BF20
:10240C0000100240000801405C050020003801402B
:10241C0030B5002587B01A4B0495DA6902A942F44D
:10242C000032DA61DB69042203F400330193019B6F
:10243C000223CDE90223032312480593FEF760FE25
:10244C00082310480DEB0301CDE902350495FEF786
:10245C0057FE4FF416530C4C0C492046C4E900139C
:10246C000C23C4E90255C4E905352561E561FFF784
:10247C00CEFA2268D36843F02003D36007B030BD96
:10248C0000100240000801401405002000440040E8
:10249C0030B5002587B01F4B0495DA6902A942F4C8
:1024AC008022DA61DA691C4802F480220092009AD8
:1024BC009A691A4C42F008029A619B694FF4806247
:1024CC0003F008030193019B0223CDE902230323AC
:1024DC000593FEF715FE4FF4006302A90E48CDE9F3
:1024EC0002350495FEF70CFE4FF4E1330C492046FF
:1024FC00C4E900130C23C4E90255C4E90535256170
:10250C00E561FFF784FA2268D36843F02003D360B7
:10251C0007B030BD00100240000C0140CC0400207C
:10252C0000480040174B37B5DA69174C42F00102EE
:10253C00DA61DB694FF0804203F001030193019BE8
:10254C0047230025C4E9002341F63F73C4E9025335
:10255C0080232046A3612561FFF792F9226820466B
:10256C00D36843F00103D360FFF732F92A46012107
:10257C001C20FEF773FD1C2003B0BDE83040FEF7B5
:10258C009DBD00BF00100240EC050020164B37B576
:10259C00DA69164C42F00202DA61DB69144A03F084
:1025AC0002030193019B47230025C4E9002341F654
:1025BC003F73C4E9025380232046A3612561FFF7D2
:1025CC005FF922682046D36843F00103D360FFF71C
:1025DC00FFF82A4601211D20FEF740FD1D2003B007
:1025EC00BDE83040FEF76ABD00100240A405002093
:1025FC000004004010B514464FF0FF3392B202486D
:10260C00FFF734FA204610BD5C050020002070470F
:10261C00002070474FF0FF3070474FF0FF3070478D
:10262C0001207047074B1B681A69D10708D5DA6877
:10263C00D20705D56FF0010203481A6102F008BBFE
:10264C00704700BFEC05002074040020074B1B688A
:10265C001A69D10708D5DA68D20705D56FF00102DF
:10266C0003481A6102F0F4BA704700BFA4050020B9
:10267C001C040020144B13B51B681A68910616D560
:10268C0012495A680878D2B21E2805D80C78601CFA
:10269C00C0B208700E4802550A2A01D00D2A03D187
:1026AC0001210C4A117002E00A781E2AF8D81A6827
:1026BC00120706D5002201921A6801925B680193F9
:1026CC00019B02B010BD00BF5C050020ED03002093
:1026DC00EE030020EC03002030B5374D85B02B689D
:1026EC001A68100614D5DA68110611D5334A344924
:1026FC0010880A8880B292B2904227D00A8831485A
:10270C0092B2805C0A88C0B20132D2B20A805860A0
:10271C001A68920625D501225C682B4BE4B21A701C
:10272C00FEF772FC294B1860294B1A781E2A05D823
:10273C0019784A1CD2B21A70264A54540A2C01D069
:10274C000D2C0BD10122244B1A700AE00021234AD4
:10275C001170DA6822F08002DA60D9E71B781E2B40
:10276C00F0D82B681A68140706D5002200921A6854
:10277C0000925A680092009A1A68500706D50022F7
:10278C0001921A6801925A680192019A1A6891078B
:10279C0006D5002202921A6802925A680292029A94
:1027AC001A68D20706D5002203921A6803925B6856
:1027BC000393039B05B030BD140500207801002065
:1027CC00760100207A0100207401002070010020A5
:1027DC00ED030020EE030020EC0300207501002027
:1027EC003C4BF7B51C6823689A0618D53A4B6268BF
:1027FC001978D2B204290ED8DFE801F003081D2D98
:10280C0031003C2A0BD101221A7008E03B2A04D17A
:10281C0002221A70314B0022F6E73C2AFBD12368C6
:10282C001B0706D50023019323680193636801936A
:10283C00019B03B0F0BD29480178052906D8017821
:10284C00CDB20131C9B2017025494A550278052A29
:10285C00E5D90322D8E7012ADDD10422D4E7012AE5
:10286C00D9D11F4F052500223946082617F8010B30
:10287C00424050B20028BDBF400080F00700C2B2F9
:10288C00520006F1FF30A8BFD2B210F0FF06F0D113
:10289C00681E10F0FF05E8D14879904215D10878F0
:1028AC004A7842EA00220F4812B202808878CA782D
:1028BC0042EA00220C4812B202800A790B49D2B2C9
:1028CC000A7001210A4A1170A5E70A490A68013207
:1028DC000A60A0E7CC040020E5030020DE03002002
:1028EC00DF030020DC030020DA030020D9030020E2
:1028FC00D8030020CC030020FEF77ABB07B5074CA9
:10290C004FF400510648FEF7DAFC00230193019BBB
:10291C00A342F5D8019B0133F8E700BF1FA10700C4
:10292C000010014007B572B6064C4FF40051064832
:10293C00FEF7C5FC00230193019BA342F5D8019B34
:10294C000133F8E73F420F000010014010B590B082
:10295C001422002108A802F0C7FD1422002101A8AE
:10296C0002F0C2FD02244FF480330122CDE90D4365
:10297C00CDE906234FF4E01306A80F93FEF7A8FC4D
:10298C0008B1FFF7CFFF0F23CDE901344FF480637B
:10299C000390CDE90430214601A8FEF75BFE002828
:1029AC00EFD110B010BD00002DE9F04FB7B0FEF71D
:1029BC000DFBFFF7CBFFFFF74FFCFFF7E7FCFFF733
:1029CC0027FDFFF765FD002225201146FEF746FB8B
:1029DC002520FEF773FB002226201146FEF73EFB56
:1029EC002620FEF76BFB002227201146FEF736FB54
:1029FC00A94D2720FEF762FB00220F214FF0FF307C
:102A0C00FEF72CFB6C6AA548214602F077FB002CE4
:102A1C0002DAA34802F072FB660002D5A14802F06C
:102A2C006DFBA00002D5A04802F068FBE10002D5C6
:102A3C009E4802F063FB220102D59D4802F05EFB2A
:102A4C00630102D59B4802F059FBA70102D59A48B5
:102A5C0002F054FB994802F0B9FB6B6A43F08073A7
:102A6C006B6201F0E5FB002800F09281944802F0C3
:102A7C00ADFB944B944A9549954801F02BFF954B2F
:102A8C00954A9649964801F025FFFFF74BFDFFF755
:102A9C007DFD4FF07E510C46924A934B00255360BE
:102AAC004FF08043A246914E10461160116693651B
:102ABC009560D665FFF728F88D4A8E4B14605360ED
:102ACC0014668D4B8D4CDFF83892DFF83882104647
:102ADC0093659560D6650127FFF716F8C4F800904A
:102AEC006560C4F80880E56025616661C4F818A0CB
:102AFC00FEF78AFA84F82070E061834CC4F80090E9
:102B0C006560C4F80880E56025616661C4F818A0AA
:102B1C00FEF77AFA4FF40062E0617C496C4884F865
:102B2C00207001F0D9FF7A494FF4C8726C4801F05B
:102B3C00D3FF0023774A78481360784A784C1360A7
:102B4C0002F044FB774802F041FB774802F03EFB71
:102B5C00764802F03BFB764802F038FB754802F0F1
:102B6C0035FB754802F032FB744802F02FFB7448B9
:102B7C0002F02CFB734802F029FB734802F026FB91
:102B8C00724802F023FB724802F020FB714802F0FD
:102B9C001DFB714802F01AFB704B1A78002A00F0EA
:102BAC000E810021DFF8B881197098F800306D4A59
:102BBC00DBB26D48D15416781746A6F10A03DBB286
:102BCC00162B114602F1010200F2F38020FA03F3F6
:102BDC00DE07F0D4654A781E133110F8013F13B1AB
:102BEC00884240F01981002361496248137002F059
:102BFC001CFD3E78782E00F03D8100F21681592E96
:102C0C0000F062815A2E00F01581582E00F03281AE
:102C1C0003223846584902F06FFC38B1032238467B
:102C2C00564902F069FC002840F08B8100238DF896
:102C3C004F30149315AB0093514914AB0DF14F0267
:102C4C00F81C159502F000FB032840F075819DF8E7
:102C5C004F304C4943F02003742B14A807BF2A4E65
:102C6C001C4F264E174FFDF74BFA002840F05281AF
:102C7C00159B336006232370FEF7C6F9424B963042
:102C8C0018601598FDF7B2FBCDE9000139463F48B5
:102C9C0014AAFFF773F98FE000100240986D00083A
:102CAC00B96D0008C66D0008D36D0008E56D00080D
:102CBC00F66D0008FC6D0008076E000894700008A3
:102CCC00186E00085C6D0008EC050020107F0008F1
:102CDC0074040020576D0008A4050020F07E000845
:102CEC001C0400206803002000000C42000080BF80
:102CFC00040300200000C84100004040DC0200201A
:102D0C0052491D3A17B75138B802002000F8FFFF9E
:102D1C0070FEFFFFB4020020716F0008B0020020AB
:102D2C00440000209D6F0008C56F0008DE6F00088E
:102D3C00047000083D7000086A7000089670000866
:102D4C00D0700008007100082E710008597100083D
:102D5C0084710008AD710008CA710008EC030020F2
:102D6C00ED030020EE030020090040008E0200203D
:102D7C00017200087A020020CE720008D27200089C
:102D8C00D6720008E1720008E803002013730008F3
:102D9C00994802F01BFA994802F018FA984802F088
:102DAC0015FA984802F012FA974802F00FFA974871
:102DBC005DE6002E7FF40EAF002388F80030FEF79E
:102DCC0023F9934A1368C31A312B40F269831060BC
:102DDC004FF400418F48FEF767FA002840F0A783B4
:102DEC008D4801F029FF8D4801F026FF072223783A
:102DFC000133B3FBF2F2C2EBC2029B1ADBB22370BB
:102E0C00013B052B00F22F83DFE813F03A033F035D
:102E1C00640371037E038303A3F16106192E9CBF27
:102E2C00203BDBB202F8013BD7E6792E4CD07A2E50
:102E3C007FF4EEAE784801F05DFE784801F05AFE62
:102E4C000023774A774E1360774AF560136035613B
:102E5C00FEF7DAF8F061754EF5603561FEF7D4F8DF
:102E6C000623F0612370FEF7CFF8714B9630186093
:102E7C00704826E0704915AA781C159502F0E4F903
:102E8C0001281DD14FF08B411598FDF727FE6B499A
:102E9C00FDF7D8FEFDF7E8FF0623614E2370306086
:102EAC00FEF7B2F8624B963018601598FDF79EFA53
:102EBC000B463168024662480091FFF75FF87BE7EA
:102ECC006048FFF75BF877E75B4915AA781C159506
:102EDC0002F0BAF901281BD14FF08B411598FDF780
:102EEC00FDFD5649FDF7AEFEFDF7BEFF06234E4E27
:102EFC0023703060FEF788F84D4B963018601598AB
:102F0C00FDF774FA0B463168024600914E48D4E73F
:102F1C004E48D6E74E4914A8FDF7F2F810B9159BA8
:102F2C007360A7E64B4914A8FDF7EAF8002840F0B7
:102F3C00F281159BB3609DE64748FFF71FF84748A1
:102F4C00BFE706F0DF064B2E08D105232370FEF7F2
:102F5C005BF8374B963018604148B2E74D2E08D1DC
:102F6C0006232370FEF750F8314B963018603D481D
:102F7C00A7E7082238463C4902F0BEFA38B10822CD
:102F8C0038463A4902F0B8FA002840F08180002314
:102F9C0037498DF85030159314AA15AB07F108007A
:102FAC0002F052F9022821D19DF8503043F0200351
:102FBC00702B15D12F4B159A1A60FEF725F81C4B68
:102FCC00963018609DF850302B482C4943F0200364
:102FDC00702B18BF0146159A2948FEF7CFFFEBE678
:102FEC00742B01D1274BE6E727486AE7254B274886
:102FFC001A68204B1968F0E7406E00088F6E0008C5
:10300C00A16E0008E06E0008F56E0008156F000850
:10301C00CC000020000C0140740400201C04002093
:10302C00B4020020DC020020B0020020B802002014
:10303C00E8030020A3720008DE7200080000B4430D
:10304C000472000827720008537200087772000897
:10305C00E4720008E7720008367300086173000818
:10306C0079730008A2730008C5730008CE730008BA
:10307C00D773000810000020576D00085C6D000825
:10308C00F97300080C000020DE73000816740008A9
:10309C0003232370FDF7B8FFA14B96301860002274
:1030AC004FF400519F48FEF705F99F499F48FEF7E2
:1030BC0065FF97F8009049F02003742B04D8602B1F
:1030CC0021D83F2B00F0A180781C01F0C9FEB9F18A
:1030DC00560F064600F0B58100F27481B9F12D0F40
:1030EC0000F09581B9F1520F00F07681B9F12B0FF8
:1030FC0000F07F8139788E48FEF740FF8D498E486D
:10310C0002F093FA58E6613B132BDDD801A252F87A
:10311C0023F000BFBD310008D5300008A1310008F4
:10312C00E5310008D530000885310008333200083D
:10313C0093310008FF310008D5300008D530000865
:10314C00D5300008D5300008D5300008D53000083F
:10315C0071310008D5300008D5300008D531000891
:10316C007B310008754B764A76481A60A9E6734B9A
:10317C00754A76481A60A4E6704B0021186801F075
:10318C00D9FB73489DE66D4B0121186801F0D2FB09
:10319C00704896E6694E0021306801F0F1FB30680A
:1031AC0001F04AFC31686C483831FEF7E7FE03E663
:1031BC00624E0121306801F0E3FB306801F03CFC09
:1031CC00316866483831F0E75C4E306801F034FD08
:1031DC00316863483831E8E7594801F02DFC5A480A
:1031EC0001F02AFC0423002223705E4B5E481A6017
:1031FC0067E65E4A5E48137883F0010111705D4901
:10320C005D4A012B08BF1146CFE74D4801F0C0FDC8
:10321C004D4801F0BDFD494B584819683831FEF74F
:10322C00ADFE57484DE600238DF84F30149315AB87
:10323C000093544914AB0DF14F02781C159502F014
:10324C0003F803286AD19DF84F704F4E4F4B47F04F
:10325C0020074F4914A8742F08BF1E46FCF750FFD7
:10326C0010BBDDF85490DFF82CA148465146FDF711
:10327C00D3FD80B1CDF854A015983060464B474E25
:10328C00742F08BF1E46FDF7B1F814AACDE9000152
:10329C0031464348FDE448464249FDF7DBFD002832
:1032AC00EAD0404B1593E7E73F4914A8FCF728FFF9
:1032BC00B0B9DDF854A0DFF8F49050464946FDF75C
:1032CC00ABFD10B1CDF8549007E0DFF8E490504618
:1032DC004946FDF7BFFD0028F4D115987060CDE785
:1032EC00344914A8FCF70CFFA8B9DDF854A0002150
:1032FC005046FDF791FD18B115951598B060BDE7D6
:10330C00DFF8B49050464946FDF7A4FD0028F4D0F0
:10331C00CDF85490F1E7294814A946E72848D0E5A0
:10332C00E803002000100140EE0300203474000874
:10333C0082760008B67600087A0200203C00002055
:10334C00740400203D7400081C0400206374000801
:10335C008A740008AA740008C7740008E374000893
:10336C0000750008180400201175000808000020E2
:10337C0030750008606D00086F6D00084B75000813
:10338C0064750008D772000868030020040300204D
:10339C00E1720008CDCCCC3D576D00085C6D000887
:1033AC009A75000800004040E472000800002041BB
:1033BC000000F042E77200080AD7A33CEA7200084A
:1033CC00CE750008B9F1760F3BD0B9F1770F2CD040
:1033DC00B9F1720F7FF48EAE3046FDF72BFB8D4F9B
:1033EC000146386801F0A0FB396832468A4838310A
:1033FC00F3E5884F0021386801F0C2FA314638688D
:10340C0001F084FB3968324684483831E5E5814F58
:10341C000121386801F0B4FA3146386801F076FBC6
:10342C00396832467E483831D7E57A4F01463868DC
:10343C0001F0CCFB396806EBD6767A48721038313D
:10344C00CBE544F620639E4228BF1E4641F28833EA
:10345C009E4238BF1E466F4B3146186801F0A2FAE7
:10346C0031467148A1E6714E714B72481E6001F0F5
:10347C00ADFE714801F0AAFE304601F0DDFA0FE016
:10348C006E4E6B4B6E481E60F1E76E4801F09EFE6F
:10349C00B421664801F09AFBB421684801F096FB10
:1034AC002378042B40F00F81FDF7AEFDDFF89881F7
:1034BC000646D8F80070DFF89491002F40F09B80FE
:1034CC00634BC8F80000634889F800701F6001F076
:1034DC007DFEF8E0604801F079FE604801F076FE70
:1034EC005F4801F073FE5F4801F070FED8E75E485C
:1034FC0001F06CFE4D4801F09FFA504801F09CFA27
:10350C000022514B1A60CBE7584801F05FFE584837
:10351C00EAE7584801F05AFE574801F057FE574861
:10352C0001F054FE564801F051FE5648DCE7237872
:10353C00022B23D14FF480515348FDF7B5FE38B917
:10354C0041F28833394886689E42A9D9C83E0DE0BD
:10355C004FF400514C48FDF7A7FE0028A0D144F6CB
:10356C001F63324886689E429AD8C836314601F0AD
:10357C0019FA3146314801F015FA91E7042BD9D0EC
:10358C00032B00F05E814FF480513F48FDF78CFE19
:10359C0088B941F28833264E30688168994202D945
:1035AC00C83901F0FFF9306801F0EDFB00287FF419
:1035BC0077AF306861E74FF400513348FDF774FE84
:1035CC0040B944F61F631A4E306881689942EAD8B4
:1035DC00C831E6E74FF480412B48FDF765FE002823
:1035EC007FF45EAF124E30684178B1FA81F149092F
:1035FC0001F0C6F9D7E799F80030C71B052B00F28C
:10360C00EE84DFE813F04300F80324044F0477043E
:10361C00C40400BF3C00002029760008F7750008A0
:10362C0010760008407600085976000874040020D3
:10363C0040000020BA760008F07600081C04002038
:10364C00167700084D770008180400201404002099
:10365C00100400205B79000870770008937700084D
:10366C00BF770008E77700081C7800085678000838
:10367C007E7800089D780008C0780008E47800087F
:10368C000979000833790008000C01404FF47A6185
:10369C00B24801F087F94FF47A61B14801F082F930
:1036AC000021AE4801F06CF90021AD4801F068F939
:1036BC00B7F5FA6F07D90123002289F80030A94B1E
:1036CC00C8F800601A602378062B40F0BA80A64B2D
:1036DC00DFF888921A68A54B1E68D9F84830D31ABF
:1036EC00042B00F3838404330BDA0123A0490878FC
:1036FC00984205D09F480068002B40F07A84024421
:10370C000B70974FBB6CF31A042B00F375840433C6
:10371C000BDA012398490878984205D0974800683D
:10372C00002B40F06C8406440B70954BC9F84C2070
:10373C00FE6401934FF07E53DFF84882924987482C
:10374C0000934346FEF730FC904BDFF844B20193F4
:10375C00904B32469049824800935B46FEF724FC1E
:10376C00FDF752FC8D4E3368C01A632869D9FDF7FA
:10377C004BFC7D4B3060D9F84860D7F848901F68F7
:10378C007A4BDBF80000D3F800A0FCF72FFECDE954
:10379C000E01AAEB0900FDF74DF9FCF727FECDE968
:1037AC000C015046FDF746F97D49FDF797F94FF0AE
:1037BC006651FDF793F9FCF719FECDE90A0148466D
:1037CC00FDF738F97649FDF789F94FF06651FDF7A9
:1037DC0085F9FCF70BFECDE90801D8F80000FCF7E1
:1037EC0005FECDE90601B81BFDF724F9FCF7FEFD3B
:1037FC00CDE904013846FDF71DF96949FDF76EF96D
:10380C004FF06651FDF76AF9FCF7F0FDCDE90201C6
:10381C003046FDF70FF96249FDF760F94FF066513C
:10382C00FDF75CF9FCF7E2FD5E4ACDE90001782179
:10383C0015A801F0D3FC0A2382B215A95A48FEF749
:10384C0015F9FDF7E1FB594E3368C01AC72840F251
:10385C000181FDF7D9FB306000F0ECFC002800F092
:10386C00F9808022002116A801F03EFE2378504AF0
:10387C00504952F8232031A815925A1F53425341F4
:10388C008DF8D4304C4B1A784C4B002A08BF0B46A1
:10389C0010214B4A01F0A2FC9DF8D430002B00F013
:1038AC00F183484B1F88484B3FB287EAE770A0EB87
:1038BC00E77080B21E88FDF7BDF836B2814686EA05
:1038CC00E670A0EBE67080B2FDF7B4F83F49804695
:1038DC004846FDF7BFFA002840F0948348463B4920
:1038EC00FDF7B0F92F9039494046FDF7B3FA00289F
:1038FC0040F08B8340463549FDF7A4F93B46102137
:10390C00334A309016A801F069FC324A3346102134
:10391C001AA801F063FC2B4B188800B2FDF78AF84B
:10392C002D4B1968FDF7DAF8274B0646188800B2BC
:10393C00FDF780F8294B1968FDF7D0F8074B084ABA
:10394C001B791279134340F0638325491EA801F0BB
:10395C006CFE244B1B7803F0FF0245E0740400203E
:10396C001C04002010040020B4020020B00200202F
:10397C000103002010000020000300200C00002098
:10398C005C6D0008AC020020DC020020576D0008C2
:10399C00A80200203333333FB80200206C01002012
:1039AC000000B443E97900085C05002060010020A8
:1039BC00D87E0008806D0008740100207C6D000822
:1039CC00177A0008DC030020DA03002000002043F3
:1039DC001D7A0008257A00086803002004030020E3
:1039EC002D7A0008D9030020002B00F02083AF496A
:1039FC0012F0040FAE4B18BF0B4612F0020F0CBFA7
:103A0C002D224822182100920DF18E00A94A01F0B6
:103A1C00E5FBFDF7F9FAFCF7C7FC0022A64BFCF717
:103A2C0067FEA64BA64A1B781278002B0CBF70239E
:103A3C005023002A0CBF74225422CDE90001CDE999
:103A4C00023216219F4A0DF1A60001F0C7FB15A802
:103A5C0000F0F2FB9C4B1A78002A68D04FF000095A
:103A6C0083F80090994BB3F80080994B0FFA88F8C3
:103A7C001F88984B3FB21E78FDF7C6FA964BF6B2EC
:103A8C001860F30753D5FDF7BFFA944B1860FDF798
:103A9C00BBFA40F6B833984249D92378052B10D09D
:103AAC0005238F482370FEF72FF88E48FEF72CF86D
:103ABC008D4B8E4883F810908D4B83F8109001F04D
:103ACC0085FB4FF07E534FF0000905930223CDE99F
:103ADC000339884B42460293874B81490193774BBC
:103AEC0086481B780093804BFEF71CF8844B4FF4F0
:103AFC00C87005930423CDE90330824B3A460293F8
:103B0C00814B784901936E4B80481B780093784B1E
:103B1C00FEF708F8B6070AD5FDF776FA7C4BC830E5
:103B2C0018604A464FF400517A48FDF7C3FB2378DE
:103B3C00052B1FD1684F3B68E3B1FDF765FA3B6875
:103B4C00664EC31AB3F5FA6F40F2E582724801F083
:103B5C003DFB6A4801F070F86C4801F06DF8604864
:103B6C00FDF7D2FF5F48FDF7CFFF0323237000233F
:103B7C003B603360FDF748FA684E3368C01AB0F505
:103B8C00FA7F42D3FDF740FA3060654E3368DB684C
:103B9C0099043AD543F63C535848ADF854308379E0
:103BAC005A4A5B018DF85630937912795B018DF886
:103BBC005730037913445B108DF8583001F0DEF860
:103BCC0023789DF855105A1F53425341021E18BFBB
:103BDC00012242EA430200238DF85A309DF85430FA
:103BEC008DF859200B449DF8561030460B449DF827
:103BFC0057100B449DF858100B441A448DF85B2059
:103C0C000A23082215A9FDF731FFFDF7FDF9454EF2
:103C1C003368C01A952840F2C280FDF7F5F9424B83
:103C2C0030601B68DB689B0440F1B980DFF89C9026
:103C3C00DFF89C80B9F8000000B2FCF7FBFE284BC3
:103C4C001968FCF74BFF0746B8F8000000B2FCF708
:103C5C00F1FE244B1968FCF741FF4FF07E510646EC
:103C6C003846FDF7F7F8002840F0618238462F49B6
:103C7C00FDF7D2F800B12D4F4FF07E513046FDF7D5
:103C8C00E9F8002840F0568230462849FDF7C4F880
:103C9C0000B1264E3846FCF7A9FBCDE910013046A1
:103CAC00FCF7A4FB0E4B824642E000BF856D00087A
:103CBC008A6D0008497A000800408F4008000020F7
:103CCC00A2020020537A0008D8030020DC03002055
:103CDC00DA030020D9030020D4030020D0030020F5
:103CEC00680300200403002028000020887A0008C4
:103CFC0014000020680100205C6D00087404002092
:103D0C009A99193F64010020576D00081C0400208B
:103D1C00E803002000100140AF7A00085C0100208D
:103D2C00CC0400205801002014050020000080BFA6
:103D3C0058688B46FCF75AFB0F46BE490646486846
:103D4C00FCF754FB94F800E0BB4BBEF1050F14BF1D
:103D5C004D224122B9F80090B8F8008093F800C0C9
:103D6C000FFA89F9CCF340030FFA88F8CDE9080172
:103D7C00CDE90A32DDE910236021CDE90223CDE93A
:103D8C0006674B46CDE904ABAC4ACDF8008015A8CC
:103D9C0001F024FA011E02DD15A8FEF7A9F8FDF7C3
:103DAC0033F9A74E3368C01AB0F5FA7F14D3FDF778
:103DBC002BF93060A34E337873B1FDF725F9A24B84
:103DCC001B68C01AB0F5FA5F06D900234FF4FA51FC
:103DDC009E48337001F092F9FDF716F99C4B1B6865
:103DEC00984280F0AA8100224FF400519948FDF7C7
:103DFC0061FAFEF7D1BEDFF860B2DFF860A24FF4D3
:103E0C009661584600F0CEFD40F2DC51504600F071
:103E1C00C9FD934A1368F31AB3F5AF7F10D99BF819
:103E2C0001105846B1FA81F14909166000F0A8FD5D
:103E3C009AF801105046B1FA81F1490900F0A0FD41
:103E4C0040F6B8339F427FF63EAC022334E44FF485
:103E5C007A718148DFF804A200F0A4FD00217E48AD
:103E6C0000F08EFD504600F08EFF012803D19AF829
:103E7C000530012B0BD0794800F0DEFEA0217748ED
:103E8C0000F0A4FE40F6C411744800F08BFD40F61F
:103E9C00B8339F427FF617AC032389F80030C8F87B
:103EAC00006010E44FF47A716B48DFF8B0A100F0B9
:103EBC0079FD0121684800F063FD504600F063FF76
:103ECC00012803D19AF80530012B0BD0634800F080
:103EDC00B3FEA021614800F079FE40F6C4115F48A2
:103EEC0000F060FD40F6B8339F427FF6ECAB042344
:103EFC00FFF7E2BB3846FCF799FD5A49FCF7A2FEE6
:103F0C005949FCF7EBFDFCF7D5FFC0F51C6B0BF129
:103F1C00040BBBF57A7F38BF4FF47A7BDFF83CA1FA
:103F2C0059464D4800F03EFD9AF80530012B05D15D
:103F3C00504600F081FE504600F07EFD5946DFF8F9
:103F4C0020B1464800F02EFDDBF80030F31AB3F533
:103F5C00FA7F16D94048CBF800604178B1FA81F16C
:103F6C00490900F00DFDDBF80030F31AB3F57A7F48
:103F7C0007D99AF801103948B1FA81F1490900F0D2
:103F8C00FFFCB7F57A6F7FF69EAB052385E7324EC3
:103F9C0041F28831304600F005FD41F288312F485E
:103FAC0000F000FD0021304600F0EAFC01212B4816
:103FBC0000F0E6FCB7F5FA6F7FF685AB2B4801F005
:103FCC0005F900232A4A2B4823701660C8F80030E4
:103FDC0089F8003001F0FAF82748FFF778BA002387
:103FEC0089F80030C8F80030FFF76DBB0023FFF7ED
:103FFC007DBB121AFFF784BB0023FFF78BBB361A6D
:10400C00FFF792BB4FF07E506CE44FF07E5075E49E
:10401C00FCF7ECF9CDE902013046FCF7E7F9174A59
:10402C00CDE9000116211EA801F0D8F891E42D224B
:10403C00134BE7E404030020D9030020037B0008A2
:10404C00540100207401002070010020407B000806
:10405C00E803002000100140740400201C04002020
:10406C001004002000007A450080BB4479790008D8
:10407C004000002097790008B67900083B7A0008C8
:10408C00806D00083E493F4B09793F4F3F4E002958
:10409C0008BF1F4632793C4916A8002A18BF0B46A8
:1040AC0010213B4A01F09AF83B461021394A1AA8D4
:1040BC0001F094F8337943BB00232F93304B1B79D9
:1040CC0033BB00233093344B16211B68334A3833EF
:1040DC001EA801F083F8324A1821324B0DF18E00E4
:1040EC0001F07CF8FCF790FF159B0293FCF75CF950
:1040FC0000222D4BFCF7FCFA2C4ACDE900011621CD
:10410C000DF1A60001F06AF8A1E44FF07C53D4E75E
:10411C004FF07C53D6E73368002B3FF42BAD33685C
:10412C00C01AB0F5FA6F7FF625AD21480FE54FF0B8
:10413C007E57A1E54FF07E56ACE5FCF765FF1D4EB2
:10414C003368C01AB0F5FA7F7EF626ADFCF75CFF3B
:10415C0030600E4800F017FE00287EF41DAD0848B4
:10416C0000F011FE00287EF417AD00F180404FF4F2
:10417C00005100F58830FDF7A2F8FEF70DBD00BF29
:10418C001C0400208F6D0008946D0008740400203E
:10419C00617A0008687A00083C0000206F7A0008F9
:1041AC00767A00088E02002000408F407C7A00084E
:1041BC00D17A00085001002073B50C460546002149
:1041CC002046FCF729FE70BB4FF07E512046FCF7D1
:1041DC0041FE08B14FF07E5420461449FCF77EFC9A
:1041EC004FF07C51FCF772FBFCF764FE012629466C
:1041FC0007233E22C4B20096402000F0EEFA0023C2
:10420C003544EDB200933C2205232946412000F0B1
:10421C00E4FA34B10523224629464120009600F0E9
:10422C00DCFA02B070BD0020D7E700BF000070427E
:10423C0000F010BA00F000BA10B5044600F0FCF91A
:10424C00002844D0002C42D000F0FCF900210123BE
:10425C0008461F4A00F098FA012307227F2100200C
:10426C0000F0A4FA221D01230821002000F08CFA92
:10427C00A16E0820FFF7A0FF04F114020123102106
:10428C00002000F081FAE16E1020FFF795FF04F199
:10429C00240201231821002000F076FA04F13A02DE
:1042AC0001232021002000F06FFA04F152020123B7
:1042BC002821002000F068FA04F17002012330215B
:1042CC00002000F061FABDE8104000F0A7BA10BD64
:1042DC00AA7B0008002382B00193019B132B01D908
:1042EC0002B07047019B0133F6E7000001224FF446
:1042FC0080710148FCF7DEBF000C014001224FF435
:10430C0000710148FCF7D6BF000C014000224FF4AD
:10431C0000710148FCF7CEBF000C014008B5FFF757
:10432C00F5FFFFF7D7FFFFF7E1FFFFF7D3FFFFF72D
:10433C00E5FFBDE80840FFF7CDBF000000224FF4B9
:10434C0080710148FCF7B6BF000C014008B5FFF7BF
:10435C00D5FFFFF7BFFFFFF7C9FFFFF7BBFFFFF765
:10436C00D5FFFFF7B7FFFFF7E9FFBDE80840FFF700
:10437C00B1BF000038B504460825230625D5FFF744
:10438C00BDFFFFF7A7FF6400FFF7B0FFFFF7A2FF29
:10439C00FFF7D4FFFFF79EFF013DE4B2EDD1FFF72D
:1043AC00ADFFFFF797FFFFF7A1FF4FF4007108482F
:1043BC00FFF790FFFCF778FF0446FFF7BFFFFFF70E
:1043CC0089FF201E18BF012038BDFFF79FFFD8E7DB
:1043DC00000C014038B50C4B05461B789BB10B4BC0
:1043EC001C8884B16400FFF7B1FF04F0FE00FFF7F6
:1043FC00C1FF0020FFF7BEFF2846FFF7BBFFBDE85B
:10440C003840FFF78BBF38BD36060020340600203D
:10441C0008B5AE20FFF7DEFF0220FCF7FBFD2020E5
:10442C00FFF7D8FF0220FCF7F5FD0020FFF7D2FFC5
:10443C000220FCF7EFFD2120FFF7CCFF0220FCF758
:10444C00E9FD0020FFF7C6FF0220FCF7E3FD7F200B
:10445C00FFF7C0FF0220FCF7DDFD2220FFF7BAFFBB
:10446C000220FCF7D7FD0020FFF7B4FF0220FCF779
:10447C00D1FD0720FFF7AEFF0220FCF7CBFDB020EB
:10448C00FFF7A8FF0220FCF7C5FDC820FFF7A2FF2D
:10449C000220FCF7BFFD0020FFF79CFF0220FCF779
:1044AC00B9FD1020FFF796FF0220FCF7B3FD40206A
:1044BC00FFF790FF0220FCF7ADFD8120FFF78AFF8C
:1044CC000220FCF7A7FDCF20FFF784FF0220FCF7AA
:1044DC00A1FDA120FFF77EFF0220FCF79BFDA6208B
:1044EC00FFF778FF0220FCF795FDA820FFF772FF7D
:1044FC000220FCF78FFD3F20FFF76CFF0220FCF73A
:10450C0089FDD320FFF766FF0220FCF783FD002016
:10451C00FFF760FF0220FCF77DFDD520FFF75AFF67
:10452C000220FCF777FD8020FFF754FF0220FCF7F8
:10453C0071FDD920FFF74EFF0220FCF76BFDF12037
:10454C00FFF748FF0220FCF765FDDA20FFF742FF7A
:10455C000220FCF75FFD1220FFF73CFF0220FCF766
:10456C0059FDDB20FFF736FF0220FCF753FD4020FE
:10457C00FFF730FF0220FCF74DFD8D20FFF72AFFDF
:10458C000220FCF747FD1420FFF724FF0A20FCF75C
:10459C0041FDAF20FFF71EFFBDE808400A20FCF7E5
:1045AC0039BD00002DE9F047B0241F4D1F4EDFF838
:1045BC008080DFF8809080223146284600F084FF0E
:1045CC0040B32046FFF706FF0020FFF703FF102043
:1045DC00FFF700FF98F80030BBB1B9F80070A7B135
:1045EC00FFF7B4FE780000F0FE00FFF7C3FE40209A
:1045FC00FFF7C0FE6F1E05F17F0A17F8010FFFF7DA
:10460C00B9FE5745F9D1FFF789FE8022294630467D
:10461C0001F013F80134E4B2B82C05F1800506F171
:10462C008006C8D1BDE8F087370A00203706002085
:10463C003606002034060020014B1878704700BF66
:10464C00360600204FF480620021014800F04CBF78
:10465C00370A00207FB50023234D244C4FF44072C1
:10466C002B70238011230121CDE900230323204843
:10467C00CDE902136946FCF743FDFFF737FEFFF760
:10468C003DFE3220FCF7C6FCFFF760FE7820FFF7FA
:10469C0071FE0646FFF742FE012E1ED1FFF756FEB5
:1046AC007A20FFF767FE0646FFF738FE012E16D07C
:1046BC003D23238001240A202C70FCF7ABFCFFF770
:1046CC00A7FE4FF48062FF210A4800F00DFFFFF7B0
:1046DC00B9FFFFF767FF204604E03C23E9E7208899
:1046EC000028E7D104B070BD360600203406002047
:1046FC00000C014037060020030630B50ED43F29CC
:10470C000CD80124CB08074D00EBC31001F00701B6
:10471C002B5C04FA01F112B10B432B5430BD23EA8C
:10472C000103FAE7370A00202DE9F04714461A4630
:10473C00A4F120035E2B88BF3F2406460F460025BC
:10474C00104B203C04EB84041C444FF0000806EB97
:10475C00050914F805A05FFA89F94AFA08F3DB0792
:10476C0005D507EB08014846C9B2FFF7C5FF08F1AC
:10477C000108B8F1070FF0D10135052DE5D1BDE8E1
:10478C00F08700BF307F0008F8B505460E461F467F
:10479C001AB1541E14F8012F02B9F8BD28463B4635
:1047AC0031460635FFF7C0FFEDB2F3E7814270B535
:1047BC00164605460C461A4601D304460D46A5423C
:1047CC0000D270BD230605D43F2E03D831462046B7
:1047DC00FFF792FF0134E4B2F1E72DE9F84380468C
:1047EC000C465E1817189DF82090F6B2FFB2B44232
:1047FC0011D045460AE02B0606D43F2C04D84A4675
:10480C0021462846FFF778FF0135EDB2BD42F2D1C3
:10481C000134E4B2EBE7BDE8F883000038B51A4B7D
:10482C001B7883B34FF08053184DC5F88030BFF31D
:10483C004F8FBFF36F8F4FF00053C5F88030BFF32D
:10484C004F8FBFF36F8F124B1C88FFF77FFD6400F7
:10485C00E4B22046FFF78EFD0446FFF75FFD012C06
:10486C0009D1FFF7D5FD4FF48062FF21094800F014
:10487C003BFEFFF7E7FEFFF795FE4FF080532B60F2
:10488C004FF000532B6038BD3606002000E100E0ED
:10489C00340600203706002038B504460D4601F0DA
:1048AC000102018B4069FCF705FD218CE069C5F321
:1048BC004002FCF7FFFC218D606AC5F38002FCF717
:1048CC00F9FC218EE06AC5F3C002BDE83840FCF764
:1048DC00F1BC0000F8B5054616460C4657220021DF
:1048EC0001301F4600F000FE01232B704FF4FA53E9
:1048FC00AB604FF480636E632B613CB10FCC05F160
:10490C0014060FC694E80F0086E80F0005F1380472
:10491C0027B107223946204600F000FE2846002128
:10492C00FFF7BAFF2146BDE8F840014800F0E6BBAE
:10493C00BB7B000838B500230D46044683714B1E23
:10494C00012B01708CBF03210121FFF7A5FF012D65
:10495C0004F1380109D0064A064B022D08BF1A464D
:10496C00BDE83840044800F0C9BB044AF8E700BF72
:10497C00D87B0008F27B0008047C0008E57B00086B
:10498C00054A064B4170002918BF1A4600F1380140
:10499C00034800F0B3BB00BF0E7C00081D7C000870
:1049AC00047C000844F6206399420A4628BF1A4644
:1049BC0041F288339A4238BF1A4610B4446B826075
:1049CC002368D96821F00101D960511ED962E160D8
:1049DC00D96810BC41F00101D96000F138010148DF
:1049EC0000F08CBB2D7C000830B544F62065A94244
:1049FC0028BF294641F288348368A1422CBFC3EBFF
:104A0C000102C3EB04020B498A42B8BF0A4640F6C6
:104A1C00B8318A42D4BF9B185B18AB4228BF2B46D7
:104A2C00A34238BF2346426B83601168013BCB62C3
:104A3C00D36030BD48F4FFFF72B6037983B9082305
:104A4C0044F6206280F84030836803EB43039342C2
:104A5C0028BF1346426B43641168013BCB62D360A1
:104A6C000023C3600123838062B600F13801014842
:104A7C0000F044BB3F7C00080A4610B472B640F20A
:104A8C000133C16400218380836CC160D31A8B42D3
:104A9C001CDD417090F8403083B9082344F6206146
:104AAC0080F84030836803EB43038B4228BF0B46EE
:104ABC00416B43640C68013BE362CB6062B6836C70
:104ACC0000F1380110BC034800F018BB1CBF0123D7
:104ADC004370DFE7537C0008134672B6C0E914122A
:104AEC0062B60A4600F13801014800F007BB00BF6E
:104AFC007C7C000872B60023C0E9123362B600F168
:104B0C003801014800F0FABA9F7C00080A4672B6D8
:104B1C000223C160838062B600F13801014800F0C5
:104B2C00EDBA00BFB37C0008F7B50D460378044618
:104B3C00012B4FF00001284614BF4FF400674FF4CF
:104B4C008057FCF769F9002835D005F100401B4966
:104B5C00FCF778F806463846FBF768FF0146304606
:104B6C00FBF7BCFFFCF7A6F9064672B6637800218A
:104B7C00A3702846FCF750F90123003818BF012018
:104B8C00E37003236070E660A38062B62846FBF7EF
:104B9C002DFC04F138070A4A64780A4B002C08BF34
:104BAC0013460246CDE9006307480B46394600F030
:104BBC00A5FA03B0F0BD2846C9E700BF0000B44316
:104BCC00C37C0008C27C0008C67C0008B1F5B47F29
:104BDC002DE9F04105460C4627D8002908BF5A2478
:104BEC002B782046012B14BF4FF400674FF48057ED
:104BFC00FBF71CFF0E49FCF725F806463846FBF779
:104C0C0015FF01463046FBF769FFFCF753F940F2FC
:104C1C000112AA80C5E903000346620805F13801B8
:104C2C000448BDE8F04100F069BA4FF4B474D7E71A
:104C3C000000B443EC7C000872B60023C360838090
:104C4C0062B600F13801014800F058BA157D000831
:104C5C0010B5037904462BB34379012B1BD1C368E0
:104C6C00002B06DC4378B3FA83F35B0943700369CA
:104C7C00C3602378012B34D0022B4FF0040233D1C4
:104C8C003A496078A37988BB0133B3FBF2F002FB9D
:104C9C001033DBB22EE0032BEBD1D0E912239B1A9D
:104CAC0001D1037110BD016D09B9406D98B1002B94
:104CBC00D4BF4FF0FF3001200244914202DC616D01
:104CCC00914208DA0023237104F138012848BDE829
:104CDC00104000F013BA002BCCBF002301236370EB
:104CEC00C7E708222349CCE72349CAE7002B38D170
:104CFC00013AD3B2A371C95C2046FFF7CDFD6278AF
:104D0C00A36C002A2FD10133A364E368002B0BDDC5
:104D1C00013BE36043B96279012A05D0E278237143
:104D2C0012B1A278E370627094F84030002BB9D0C5
:104D3C00013BDBB2D3F1080284F84030B2D0636C93
:104D4C00A16899422FBF0B46581A4243A3EBD203DA
:104D5C008B4238BF0B46626B013B1068C362D36059
:104D6C00A0E7013B95E7013BCEE700BF0B810008B4
:104D7C00327D0008138100080F810008007900388B
:104D8C0018BF0120704700797047806C7047000095
:104D9C0070B504468EB0264D03AB95E8070083E84A
:104DAC000700244B06AE0193234B029305F10C0331
:104DBC001C350FCB86E80F0095E80F000EAD05E90A
:104DCC000F0004F138011D4800F098F923781C48B5
:104DDC0005EB830353F82C1C00F090F96378194809
:104DEC0005EB830353F8341C00F088F9237916483B
:104DFC0005EB830353F8201C00F080F9637913480A
:104E0C0005EB830353F8101C00F078F9A1681048E7
:104E1C0000F074F9A1790F4800F070F9E1680E48C0
:104E2C0000F06CF90D480EB0BDE8704000F0CEB942
:104E3C00586C00085A7D0008687D0008777D0008D2
:104E4C00A17D0008B67D0008CB7D0008E07D000840
:104E5C00F57D0008127E0008277E0008737000089C
:104E6C000A22002100F07CB8242B2DE9F04786465D
:104E7C00904601D8012B06D100F0AAFB1623036043
:104E8C000020BDE8F0870D4633482A4615F8014B43
:104E9C00065D16F00806F8D12D2C10D101262C78C1
:104EAC00951C33F0100215D1302C0DD12A7802F05C
:104EBC00DF02582A08D16C78023510230AE02B2C1B
:104ECC0004BF2C78951CECE7002BF6D1302C14BFCA
:104EDC000A230823002206F1004C0CF1FF3CBCFB1A
:104EEC00F3F9104603FB19CAA4F13007092F0FD8A8
:104EFC003C46A3421BDD571C07D0814514D301D17E
:104F0C00A24511DB012200FB034015F8014BEBE736
:104F1C00A4F14107192F01D8373CEAE7A4F1610746
:104F2C00192F04D8573CE4E74FF0FF32EDE7531C40
:104F3C0008D122236046CEF80030B8F1000FA0D083
:104F4C00691E06E006B14042B8F1000F99D0002A64
:104F5C00F6D1C8F8001094E71C810008FFF784BF55
:104F6C0013460A46014602480068FFF77DBF00BFA2
:104F7C0054000020002310B50446C0E90033C0E9FA
:104F8C000433836081814366C281836119460822A0
:104F9C005C3000F0A9FA0D4B246263620C4BA362E7
:104FAC000C4BE3620C4B23630C4B9C4206D003F17D
:104FBC006802944202D0D0339C4205D104F15800CF
:104FCC00BDE8104000F02EBB10BD00BFAD52000874
:104FDC00D35200080B53000831530008380E002040
:104FEC00024A0349034800F06BB800BF4800002098
:104FFC00ED6700085800002041680C4B10B5994231
:10500C00044601D001F0ECFBA168094B994202D097
:10501C00204601F0E5FBE168064B994204D020469E
:10502C00BDE8104001F0DCBB10BD00BF380E002005
:10503C00A00E0020080F00200C4B0D4A10B50421C7
:10504C001A600C480022FFF795FF0A4B01221C4600
:10505C00092103F16800FFF78DFF04F1D000022253
:10506C00BDE810401221FFF785BF00BF700F002074
:10507C00ED4F0008380E0020014800F0D4BA00BFF4
:10508C00790F0020014800F0CFBA00BF790F002043
:10509C0010B50446FFF7F0FF236A1BB1BDE81040C2
:1050AC00FFF7F0BF044B2362044B1B68002BF5D1B8
:1050BC00FFF7C2FFF2E700BF05500008700F002099
:1050CC002DE9F8430746884614460026D4E9019595
:1050DC00B9F1010905D52468002CF7D13046BDE89B
:1050EC00F883AB89012B07D9B5F90E30013303D006
:1050FC0029463846C04706436835E9E70FB407B57B
:10510C00064904AB086853F8042B8168019300F03E
:10511C00F5FE03B05DF804EB04B0704754000020BA
:10512C00036A70B505460E4684680BB9FFF7B0FFED
:10513C00636EDB0705D4A389980502D4A06D00F03B
:10514C0072FAA389190702D52369002B35D12146A0
:10515C00284600F065F980B34FF0FF35636EDA072F
:10516C0005D4A3899B0502D4A06D00F05DFA2846F6
:10517C0070BD002B04DAA269934217DB0A2915D003
:10518C0023685A1C22601970A36816F8011F013B92
:10519C00A3600029EDD1002B11DA22460A21284602
:1051AC0000F000F90130D7D00A25D7E7224628466F
:1051BC0000F0F8F80130E7D1CEE7013EE4E72368D0
:1051CC005A1C22600A221A70EEE70000024B0146BC
:1051DC001868FFF7A5BF00BF540000200CB430B511
:1051EC00184B0C1E1D689DB008DA8B234FF0FF3056
:1051FC002B601DB0BDE8304002B070474FF4027315
:10520C00ADF814304FF000031B930CBF234604F190
:10521C00FF33049307934FF6FF7302900690ADF89B
:10522C001630284621AB209A02A9019300F06AFBA4
:10523C00431CBCBF8B232B60002CDAD00022029BBA
:10524C001A70D6E7540000200EB44FF4017270B5FA
:10525C0000259DB021AC54F8046BADF814201B95BF
:10526C0002900690FAF756FF0B4B03900B934FF6F8
:10527C00FF7307900948ADF816303246234602A951
:10528C0000680F951495019400F092FC1DB0BDE8D8
:10529C00704003B0704700BFCF520008540000208C
:1052AC0010B50C46B1F90E1000F06EF90028ABBF2A
:1052BC00636DA3891B1823F48053ACBF6365A38172
:1052CC0010BD002070472DE9F0411F468B89054623
:1052DC00DB050C46164605D502230022B1F90E104B
:1052EC0000F040F9A389324623F48053A381284669
:1052FC003B46B4F90E10BDE8F04100F057B910B5BB
:10530C000C46B1F90E1000F02DF9B4F90C30421C1A
:10531C000BBF23F4805343F48053A381A38118BFA4
:10532C00606510BDB1F90E1000F00CB930B5144623
:10533C00002C05461A469BB005DA8B2303604FF010
:10534C00FF301BB030BD4FF40273ADF80C304FF092
:10535C00000319930CBF234604F1FF33029305930A
:10536C004FF6FF7300910491ADF80E3069461E9B09
:10537C0000F0C8FA431CBCBF8B232B60002CE0D080
:10538C000022009B1A70DCE707B5009313460A460F
:10539C00014603480068FFF7C9FF03B05DF804FB42
:1053AC0054000020F8B50E461446054618B1036AA1
:1053BC000BB9FFF76DFEA369A360A3891A0701D58A
:1053CC00236943B92146284600F02AF818B14FF05A
:1053DC00FF373846F8BD23682269F6B2981A63691C
:1053EC003746834205DC2146284601F0F9F90028AE
:1053FC00EDD1A368013BA36023685A1C22601E7088
:10540C006269431C9A4204D0A389DB07E1D50A2EBA
:10541C00DFD12146284601F0E3F90028D9D0D6E7A0
:10542C0038B5284B054618680C4618B1036A0BB9F9
:10543C00FFF72EFEB4F90C301A0721D4D80607D486
:10544C0009222A6043F040034FF0FF30A38130E083
:10545C00590712D5616B41B104F14403994202D052
:10546C00284600F0F9F8002363630022B4F90C30ED
:10547C006260226923F02403226043F00803A381B5
:10548C0022693AB99A0501D5180603D52146284652
:10549C0001F0F2F9B4F90C3013F001020AD0002239
:1054AC00A26062695242A261226942B913F0800083
:1054BC00C8D138BD990758BF6269A260F4E70020D3
:1054CC00F7E700BF5400002010B5013902449042A8
:1054DC0001D1002005E0037811F8014FA34201D05F
:1054EC00181B10BD0130F2E703460244934200D171
:1054FC00704703F8011BF9E710B56AB1013984183C
:10550C0010F8012B11F8013F9A4203D1A04201D0AF
:10551C00002AF5D1D01A10BD1046FCE7034610B591
:10552C00013932B111F8014F013A03F8014B002C4B
:10553C00F7D100211A44934200D110BD03F8011B8E
:10554C00F9E7000038B50023054D044608462B60EA
:10555C00FDF760F8431C02D12B6803B1236038BD02
:10556C00740F002038B50446084611460022054D3C
:10557C002A601A46FDF74CF8431C02D12B6803B184
:10558C00236038BD740F002038B504460846114618
:10559C000022054D2A601A46FDF738F8431C02D14B
:1055AC002B6803B1236038BD740F002038B5044656
:1055BC00084611460022054D2A601A46FDF71AF8D6
:1055CC00431C02D12B6803B1236038BD740F00203B
:1055DC00014B1868704700BF5400002070B50026BE
:1055EC000C4D0D4B5B1B9C10A64209D1002601F003
:1055FC0021FB0A4D0A4B5B1B9C10A64205D170BDCA
:10560C0055F8043B98470136EEE755F8043B9847AC
:10561C000136F2E73C8200083C8200083C8200081C
:10562C0040820008704770477047034611F8012B01
:10563C0003F8012B002AF9D170470A44914200F17A
:10564C00FF3300D1704710B511F8014B914203F8AC
:10565C00014FF9D110BD000038B50546002940D0E6
:10566C0051F8043C0C1F002BB8BFE41800F0DEF816
:10567C001C4A136833B9636014602846BDE838408F
:10568C0000F0DAB8A34208D9206821188B4201BF78
:10569C0019685B6809182160EDE71A465B680BB165
:1056AC00A342FAD911685018A0420BD120680144CA
:1056BC00501883421160E0D118685B680844106090
:1056CC005360DAE702D90C232B60D6E72068211847
:1056DC008B4201BF19685B680918216063605460D4
:1056EC00CBE738BD800F002070B50F4E0C463168EB
:1056FC00054611B901F0A6F930602146284601F0A3
:10570C00A1F9431C03D14FF0FF34204670BDC41CDB
:10571C0024F00304A042F8D0211A284601F092F993
:10572C000130F2D1EFE700BF7C0F00202DE9F843E8
:10573C00CD1C25F0030508350C2D38BF0C25002D8C
:10574C00064601DBA94204D90C2333600020BDE8D6
:10575C00F883DFF8D48000F069F8D8F800301C46E4
:10576C0044BB29463046FFF7BFFF431C044658D1C3
:10577C00D8F800402746002F43D1002C4BD023688B
:10578C003946304604EB030901F05CF9814542D1FE
:10579C00216830466D1A2946FFF7A6FF01303AD032
:1057AC0023682B442360D8F800305A6862BBC8F8D1
:1057BC0000700FE02268521B20D40B2A17D96119F4
:1057CC00A342256018BF5960636808BFC8F8001071
:1057DC0062514B60304600F02FF804F10B00231D92
:1057EC0020F00700C21A1CBF1B1AA350AFE7626857
:1057FC00A3420CBFC8F800205A60EBE7234664684C
:10580C00AEE73C467F68B6E71A465B68A342FBD11D
:10581C0000235360DEE70C233046336000F00CF8B5
:10582C0094E70560D6E700BF800F00200148FFF722
:10583C00FABE00BF780F00200148FFF7F5BE00BF8D
:10584C00780F00202DE9F0471F468E688246BE4235
:10585C000C469046334653D8B1F90C0010F4906FB7
:10586C002BD065692368096905EB4505A3EB010994
:10587C0005EBD5757B1C6D104B44AB422A4684BF9F
:10588C001D462A46430527D511465046FFF74EFFC5
:10589C00064658B34A462169FFF7CFFEA38923F485
:1058AC00906343F08003A38126614E4426603B46FF
:1058BC003E466561A5EB0905A5601F463A46414683
:1058CC00206801F083F80020A3689B1BA360236869
:1058DC003B442360BDE8F087504601F0D1F8064602
:1058EC000028E1D150462169FFF7B6FE0C23CAF817
:1058FC000030A3894FF0FF3043F04003A381E9E768
:10590C003E46DBE72DE9F04F98468B8907461B0690
:10591C000D4614469DB010D50B6973B94021FFF7A5
:10592C0005FF2860286130B90C233B604FF0FF3035
:10593C001DB0BDE8F08F40236B6100230993202339
:10594C008DF8293030234FF00109CDF80C80DFF8A9
:10595C0098818DF82A3023469A4613F8012B0AB108
:10596C00252AF9D1BAEB040B0BD05B46224629460B
:10597C003846FFF767FF013000F0A780099A5A44B8
:10598C0009929AF80030002B00F09F8000234FF012
:10599C00FF32CDE905230AF1010A049307938DF830
:1059AC0053301A935446052214F8011B4E4801F04B
:1059BC0059F8049AD8B9D00644BF20238DF8533037
:1059CC00110744BF2B238DF853309AF800302A2B43
:1059DC0015D0544600204FF00A0C079A214611F8B6
:1059EC00013B303B092B4BD9B0B1079214E0A0EB33
:1059FC00080309FA03F31343A2460493D2E7039B6B
:105A0C00191D1B680391002BBBBF5B4242F00202C5
:105A1C0007930793B8BF049223782E2B0AD163788F
:105A2C002A2B32D1039B02341A1D1B68039243EAC2
:105A3C00E3730593DFF8B4A003225046217801F0FC
:105A4C0011F838B14022049BA0EB0A0082401343AA
:105A5C000134049314F8011B062225488DF82810F4
:105A6C0001F000F8002836D0224B1BBB039B0733F8
:105A7C0023F0070308330393099B334409936AE724
:105A8C000C4601200CFB0232A8E700234FF00A0C55
:105A9C00194601340593204610F8012B303A092A97
:105AAC0003D9002BC6D00591C4E7044601230CFB97
:105ABC000121F0E703AB00932A4638460E4B04A9AC
:105ACC00AFF30080421C0646D6D1AB895B063FF58E
