:020000040800F2
:10000000005000203DA5000885A50008552D0008DA
:1000100085A5000885A5000885A50008000000004A
:1000200000000000000000000000000085A500089E
:1000300085A500080000000085A50008512D0008D6
:1000400085A5000885A5000885A5000885A50008E8
:1000500085A5000885A5000885A5000885A50008D8
:1000600085A5000885A5000885A5000885A50008C8
:1000700085A5000885A5000885A5000885A50008B8
:1000800085A5000885A5000885A5000885A50008A8
:1000900085A5000885A5000885A5000885A5000898
:1000A00085A5000885A5000885A5000885A5000888
:1000B0007D2A0008A52A000885A5000885A5000856
:1000C00085A5000885A5000885A5000885A5000868
:1000D00085A50008CD2A0008312B0008392C00081E
:1000E00085A5000885A5000885A50008000000007A
:1000F0000000000000000000000000000000000000
:0C01000000000000000000005FF808F1A3
:1001100010F8012B11F8013B012A28BF9A42F7D0B1
:10012000D01A7047034613F8012B002AFBD1181A86
:100130000138704781F0004102E000BF83F00043C6
:1001400030B54FEA41044FEA430594EA050F08BF72
:1001500090EA020F1FBF54EA000C55EA020C7FEA36
:10016000645C7FEA655C00F0E2804FEA5454D4EBB3
:100170005555B8BF6D420CDD2C4480EA020281EA7D
:10018000030382EA000083EA010180EA020281EAB5
:100190000303362D88BF30BD11F0004F4FEA013107
:1001A0004FF4801C4CEA113102D0404261EB410116
:1001B00013F0004F4FEA03334CEA133302D052429C
:1001C00063EB430394EA050F00F0A780A4F1010458
:1001D000D5F1200E0DDB02FA0EFC22FA05F2801892
:1001E00041F1000103FA0EF2801843FA05F3594178
:1001F0000EE0A5F120050EF1200E012A03FA0EFCF7
:1002000028BF4CF0020C43FA05F3C01851EBE37120
:1002100001F0004507D54FF0000EDCF1000C7EEB3D
:1002200000006EEB0101B1F5801F1BD3B1F5001F7B
:100230000CD349085FEA30004FEA3C0C04F101049A
:100240004FEA445212F5800F80F09A80BCF1004FC3
:1002500008BF5FEA500C50F1000041EB045141EA45
:10026000050130BD5FEA4C0C404141EB0101013C0E
:1002700028BFB1F5801FE9D291F0000F04BF0146FD
:100280000020B1FA81F308BF2033A3F10B03B3F1CF
:1002900020020CDA0C3208DD02F1140CC2F10C025F
:1002A00001FA0CF021FA02F10CE002F11402D8BFBD
:1002B000C2F1200C01FA02F120FA0CFCDCBF41EA89
:1002C0000C019040E41AA2BF01EB0451294330BD58
:1002D0006FEA04041F3C1CDA0C340EDC04F1140435
:1002E000C4F1200220FA04F001FA02F340EA03000C
:1002F00021FA04F345EA030130BDC4F10C04C4F152
:10030000200220FA02F001FA04F340EA0300294631
:1003100030BD21FA04F0294630BD94F0000F83F47B
:10032000801306BF81F480110134013D4EE77FEA5E
:10033000645C18BF7FEA655C29D094EA050F08BFAA
:1003400090EA020F05D054EA000C04BF194610468B
:1003500030BD91EA030F1EBF0021002030BD5FEACF
:10036000545C05D14000494128BF41F0004130BDF7
:1003700014F580043CBF01F5801130BD01F000454B
:1003800045F0FE4141F470014FF0000030BD7FEABE
:10039000645C1ABF194610467FEA655C1CBF0B46B9
:1003A000024650EA013406BF52EA033591EA030FD0
:1003B00041F4002130BD00BF90F0000F04BF0021C8
:1003C000704730B54FF4806404F132044FF00005FB
:1003D0004FF0000150E700BF90F0000F04BF002174
:1003E000704730B54FF4806404F1320410F00045DA
:1003F00048BF40424FF000013EE700BF42004FEAD5
:10040000E2014FEA31014FEA02701FBF12F07F4351
:1004100093F07F4F81F06051704732F07F4208BF08
:10042000704793F07F4F04BF41F40021704730B50F
:100430004FF4607401F0004521F000411CE700BF5B
:1004400050EA010208BF704730B54FF000050AE0DE
:1004500050EA010208BF704730B511F0004502D5DF
:10046000404261EB41014FF4806404F132045FEAE1
:10047000915C3FF4D8AE4FF003025FEADC0C18BF8A
:1004800003325FEADC0C18BF033202EBDC02C2F17C
:10049000200300FA03FC20FA02F001FA03FE40EA0E
:1004A0000E0021FA02F11444BDE600BF70B54FF012
:1004B000FF0C4CF4E06C1CEA11541DBF1CEA1355F0
:1004C00094EA0C0F95EA0C0F00F0DEF82C4481EA58
:1004D000030621EA4C5123EA4C5350EA013518BF78
:1004E00052EA033541F4801143F4801338D0A0FB65
:1004F00002CE4FF00005E1FB02E506F00042E0FB12
:1005000003E54FF00006E1FB03569CF0000F18BF17
:100510004EF0010EA4F1FF04B6F5007F64F54074BF
:1005200004D25FEA4E0E6D4146EB060642EAC62152
:1005300041EA55514FEAC52040EA5E504FEACE2EBF
:10054000B4F1FD0C88BFBCF5E06F1ED8BEF1004FC2
:1005500008BF5FEA500E50F1000041EB045170BD3E
:1005600006F0004646EA010140EA020081EA030182
:10057000B4EB5C04C2BFD4EB0C0541EA045170BD7E
:1005800041F480114FF0000E013C00F3AB8014F1F8
:10059000360FDEBF002001F0004170BDC4F1000441
:1005A000203C35DA0C341BDC04F11404C4F12005C2
:1005B00000FA05F320FA04F001FA05F240EA02001D
:1005C00001F0004221F0004110EBD37021FA04F653
:1005D00042EB06015EEA430E08BF20EAD37070BD0D
:1005E000C4F10C04C4F1200500FA04F320FA05F06C
:1005F00001FA04F240EA020001F0004110EBD3706E
:1006000041F100015EEA430E08BF20EAD37070BDDD
:10061000C4F1200500FA05F24EEA020E20FA04F3B6
:1006200001FA05F243EA020321FA04F001F0004165
:1006300021FA04F220EA020000EBD3705EEA430ED6
:1006400008BF20EAD37070BD94F0000F0FD101F005
:100650000046400041EB010111F4801F08BF013C3E
:10066000F7D041EA060195F0000F18BF704703F07C
:100670000046520043EB030313F4801F08BF013D03
:10068000F7D043EA0603704794EA0C0F0CEA1355BF
:1006900018BF95EA0C0F0CD050EA410618BF52EA79
:1006A0004306D1D181EA030101F000414FF000007F
:1006B00070BD50EA410606BF1046194652EA43068D
:1006C00019D094EA0C0F02D150EA013613D195EA01
:1006D0000C0F05D152EA03361CBF104619460AD149
:1006E00081EA030101F0004141F0FE4141F4700153
:1006F0004FF0000070BD41F0FE4141F4780170BD43
:1007000070B54FF0FF0C4CF4E06C1CEA11541DBFA7
:100710001CEA135594EA0C0F95EA0C0F00F0A7F8A9
:10072000A4EB050481EA030E52EA03354FEA0131D6
:1007300000F088804FEA03334FF0805545EA1313E9
:1007400043EA12634FEA022245EA111545EA1065B1
:100750004FEA00260EF000419D4208BF964244F148
:10076000FD0404F5407402D25B084FEA3202B61A67
:1007700065EB03055B084FEA32024FF480104FF43B
:10078000002CB6EB020E75EB030E22BFB61A7546AF
:1007900040EA0C005B084FEA3202B6EB020E75EB42
:1007A000030E22BFB61A754640EA5C005B084FEAAA
:1007B0003202B6EB020E75EB030E22BFB61A754677
:1007C00040EA9C005B084FEA3202B6EB020E75EB82
:1007D000030E22BFB61A754640EADC0055EA060E43
:1007E00018D04FEA051545EA16754FEA06164FEA86
:1007F000C30343EA52734FEAC2025FEA1C1CC0D132
:1008000011F4801F0BD141EA00014FF000004FF0BE
:10081000004CB6E711F4801F04BF01430020B4F17F
:10082000FD0C88BFBCF5E06F3FF6AFAEB5EB030C37
:1008300004BFB6EB020C5FEA500C50F1000041EB34
:10084000045170BD0EF0004E4EEA113114EB5C0401
:10085000C2BFD4EB0C0541EA045170BD41F48011D4
:100860004FF0000E013C90E645EA060E8DE60CEADC
:10087000135594EA0C0F08BF95EA0C0F3FF43BAFF9
:1008800094EA0C0F0AD150EA01347FF434AF95EAB0
:100890000C0F7FF425AF104619462CE795EA0C0F94
:1008A00006D152EA03353FF4FDAE1046194622E761
:1008B00050EA410618BF52EA43067FF4C5AE50EA3B
:1008C00041047FF40DAF52EA43057FF4EBAE12E72B
:1008D0004FF0FF3C06E000BF4FF0010C02E000BF0C
:1008E0004FF0010C4DF804CD4FEA410C7FEA6C5CEF
:1008F0004FEA430C18BF7FEA6C5C1BD001B050EA92
:10090000410C0CBF52EA430C91EA030F02BF90EA7C
:10091000020F0020704710F1000F91EA030F58BF3B
:10092000994208BF90422CBFD8176FEAE37040F09D
:10093000010070474FEA410C7FEA6C5C02D150EA3B
:10094000013C07D14FEA430C7FEA6C5CD6D152EAF6
:10095000033CD3D05DF8040B704700BF84461046BB
:1009600062468C461946634600E000BF01B5FFF7BA
:10097000B7FF002848BF10F1000F01BD4DF808ED8A
:10098000FFF7F4FF0CBF012000205DF808FB00BF5B
:100990004DF808EDFFF7EAFF34BF012000205DF8B5
:1009A00008FB00BF4DF808EDFFF7E0FF94BF012002
:1009B00000205DF808FB00BF4DF808EDFFF7CEFF03
:1009C00094BF012000205DF808FB00BF4DF808ED42
:1009D000FFF7C4FF34BF012000205DF808FB00BF13
:1009E0004FEA410C7FEA6C5C02D150EA013C0AD12B
:1009F0004FEA430C7FEA6C5C02D152EA033C02D11D
:100A00004FF0000070474FF0010070474FEA41027D
:100A100012F5001215D211D56FF47873B3EB625250
:100A200012D94FEAC12343F0004343EA505311F077
:100A3000004F23FA02F018BF404270474FF0000009
:100A4000704750EA013005D111F0004008BF6FF047
:100A5000004070474FF00000704700BF4A0011D2BD
:100A600012F5001211D20DD56FF47873B3EB625208
:100A70000ED44FEAC12343F0004343EA505323FA14
:100A800002F070474FF00000704750EA013002D189
:100A90004FF0FF3070474FF0000070474FEA4102BF
:100AA000B2F1E04324BFB3F5001CDCF1FE5C0DD9CC
:100AB00001F0004C4FEAC0024CEA5070B2F1004F16
:100AC00040EB830008BF20F00100704711F0804F19
:100AD00021D113F13872BCBF01F00040704741F4DE
:100AE00080114FEA5252C2F11802C2F1200C10FAE2
:100AF0000CF320FA02F018BF40F001004FEAC123C6
:100B00004FEAD32303FA0CFC40EA0C0023FA02F369
:100B10004FEA4303CCE77FEA625307D150EA01333F
:100B20001EBF4FF0FE4040F44000704701F000400F
:100B300040F0FE4040F40000704700BF80F00040ED
:100B400002E000BF81F0004142001FBF5FEA4103A5
:100B500092EA030F7FEA226C7FEA236C6AD04FEAA5
:100B60001262D2EB1363C1BFD218414048404140EA
:100B7000B8BF5B42192B88BF704710F0004F40F49C
:100B8000000020F07F4018BF404211F0004F41F4B8
:100B9000000121F07F4118BF494292EA030F3FD084
:100BA000A2F1010241FA03FC10EB0C00C3F1200397
:100BB00001FA03F100F0004302D5494260EB400026
:100BC000B0F5000F13D3B0F1807F06D340084FEA91
:100BD000310102F10102FE2A51D2B1F1004F40EB86
:100BE000C25008BF20F0010040EA030070474900EE
:100BF00040EB0000013A28BFB0F5000FEDD2B0FA8B
:100C000080FCACF1080CB2EB0C0200FA0CF0AABFAD
:100C100000EBC25052421843BCBFD040184370474B
:100C200092F0000F81F4000106BF80F40000013251
:100C3000013BB5E74FEA41037FEA226C18BF7FEA28
:100C4000236C21D092EA030F04D092F0000F08BF6A
:100C50000846704790EA010F1CBF0020704712F051
:100C60007F4F04D1400028BF40F00040704712F190
:100C700000723CBF00F50000704700F0004343F0F5
:100C8000FE4040F4000070477FEA226216BF08462B
:100C90007FEA23630146420206BF5FEA412390EAEE
:100CA000010F40F4800070474FF0000304E000BFE4
:100CB00010F0004348BF40425FEA000C08BF704795
:100CC00043F0964301464FF000001CE050EA010259
:100CD00008BF70474FF000030AE000BF50EA01026E
:100CE00008BF704711F0004302D5404261EB41015B
:100CF0005FEA010C02BF84460146002043F0B64380
:100D000008BFA3F18053A3F50003BCFA8CF2083AA4
:100D1000A3EBC25310DB01FA02FC634400FA02FCAD
:100D2000C2F12002BCF1004F20FA02F243EB0200B4
:100D300008BF20F00100704702F1200201FA02FC16
:100D4000C2F1200250EA4C0021FA02F243EB020009
:100D500008BF20EADC7070474FF0FF0C1CEAD0524D
:100D60001EBF1CEAD15392EA0C0F93EA0C0F6FD00E
:100D70001A4480EA010C400218BF5FEA41211ED0EC
:100D80004FF0006343EA501043EA5111A0FB0131D8
:100D90000CF00040B1F5000F3EBF490041EAD371AD
:100DA0005B0040EA010062F17F02FD2A1DD8B3F129
:100DB000004F40EBC25008BF20F00100704790F098
:100DC000000F0CF0004C08BF49024CEA502040EAEA
:100DD00051207F3AC2BFD2F1FF0340EAC2507047B0
:100DE00040F400004FF00003013A5DDC12F1190FEE
:100DF000DCBF00F000407047C2F10002410021FA60
:100E000002F1C2F1200200FA02FC5FEA310040F177
:100E1000000053EA4C0308BF20EADC70704792F0F0
:100E2000000F00F0004C02BF400010F4000F013A28
:100E3000F9D040EA0C0093F0000F01F0004C02BF23
:100E4000490011F4000F013BF9D041EA0C018FE792
:100E50000CEAD15392EA0C0F18BF93EA0C0F0AD098
:100E600030F0004C18BF31F0004CD8D180EA0100BE
:100E700000F00040704790F0000F17BF90F0004F57
:100E8000084691F0000F91F0004F14D092EA0C0F39
:100E900001D142020FD193EA0C0F03D14B0218BFCC
:100EA000084608D180EA010000F0004040F0FE4012
:100EB00040F40000704740F0FE4040F440007047AE
:100EC0004FF0FF0C1CEAD0521EBF1CEAD15392EA2D
:100ED0000C0F93EA0C0F69D0A2EB030280EA010C1D
:100EE00049024FEA402037D04FF0805343EA1111B6
:100EF00043EA10130CF000408B4238BF5B0042F114
:100F00007D024FF4000C8B4224BF5B1A40EA0C00B8
:100F1000B3EB510F24BFA3EB510340EA5C00B3EBEA
:100F2000910F24BFA3EB910340EA9C00B3EBD10FD8
:100F300024BFA3EBD10340EADC001B0118BF5FEA2A
:100F40001C1CE0D1FD2A3FF650AF8B4240EBC25053
:100F500008BF20F0010070470CF0004C4CEA502014
:100F60007F32C2BFD2F1FF0340EAC250704740F463
:100F700000004FF00003013A37E792F0000F00F055
:100F8000004C02BF400010F4000F013AF9D040EAD3
:100F90000C0093F0000F01F0004C02BF490011F467
:100FA000000F013BF9D041EA0C0195E70CEAD1535F
:100FB00092EA0C0F08D142027FF47DAF93EA0C0F46
:100FC0007FF470AF084676E793EA0C0F04D14B022A
:100FD0003FF44CAF08466EE730F0004C18BF31F0DC
:100FE000004CCAD130F000427FF45CAF31F00043D6
:100FF0007FF43CAF5FE700BF4FF0FF3C06E000BF6F
:101000004FF0010C02E000BF4FF0010C4DF804CD91
:101010004FEA40024FEA41037FEA226C18BF7FEAA1
:10102000236C11D001B052EA530C18BF90EA010FA3
:1010300058BFB2EB030088BFC81738BF6FEAE17032
:1010400018BF40F0010070477FEA226C02D15FEACE
:10105000402C05D17FEA236CE4D15FEA412CE1D03A
:101060005DF8040B704700BF844608466146FFE701
:101070000FB5FFF7C9FF002848BF10F1000F0FBDE3
:101080004DF808EDFFF7F4FF0CBF012000205DF8DC
:1010900008FB00BF4DF808EDFFF7EAFF34BF012061
:1010A00000205DF808FB00BF4DF808EDFFF7E0FFFA
:1010B00094BF012000205DF808FB00BF4DF808ED4B
:1010C000FFF7D2FF94BF012000205DF808FB00BFAE
:1010D0004DF808EDFFF7C8FF34BF012000205DF890
:1010E00008FB00BF4FEA4002B2F1FE4F0FD34FF0B2
:1010F0009E03B3EB12620DD94FEA002343F0004385
:1011000010F0004F23FA02F018BF404270474FF032
:101110000000704712F1610F01D1420205D110F0B9
:10112000004008BF6FF0004070474FF0000070476C
:1011300042000ED2B2F1FE4F0BD34FF09E03B3EB41
:10114000126209D44FEA002343F0004323FA02F06D
:1011500070474FF00000704712F1610F01D1420259
:1011600002D14FF0FF3070474FF00000704700BFD2
:101170000348044B834202D0034B03B11847704726
:101180001402002014020020000000000548064B55
:101190001B1AD90F01EBA301491002D0034B03B175
:1011A00018477047140200201402002000000000BD
:1011B00010B5064C237843B9FFF7DAFF044B13B19F
:1011C0000448AFF300800123237010BD14020020F7
:1011D0000000000088A5000808B5054B1BB10549B3
:1011E0000548AFF30080BDE80840FFF7CFBF00BF60
:1011F000000000001802002088A5000870470000C9
:1012000038B50E4B05461A784FF47A73B3FBF2F3F8
:101210000B4A1068B0FBF3F000F09CF8044658B994
:101220000F2D09D8024629464FF0FF3000F054F840
:101230002046044B1D6038BD0120FCE70000002063
:101240001002002004000020074A08B5136803209C
:1012500043F01003136000F02DF80F20FFF7D0FFCC
:10126000FFF7CCFF002008BD00200240034A044BDA
:1012700011681B780B441360704700BF30020020D8
:1012800000000020014B1868704700BF30020020AA
:1012900038B50446FFF7F6FF0546631C1EBF044B36
:1012A0001B78E418FFF7EEFF431BA342FAD338BDC7
:1012B0000000002007490302CA6803F4E06322F437
:1012C000E0621204120C134343F0BF6343F4003393
:1012D000CB60704700ED00E0154B30B5DC68C4F31F
:1012E0000224C4F10703251D042B28BF0423062D67
:1012F0004FF0FF3594BF0024033C05FA03F321EAC5
:101300000303A54022EA0502A340002843EA0203A2
:10131000ACBF00F16040074A4FEA0313DBB2ABBF3A
:1013200000F5614000F00F0080F80033135430BD29
:1013300000ED00E014ED00E0002807DB0123410987
:10134000034A00F01F00834042F82130704700BF7D
:1013500000E100E00138B0F1807F0BD24FF0E023D4
:10136000F021054A586182F8231000200722986175
:101370001A6170470120704700ED00E02DE9F74F3A
:1013800000244FF00F0E2646DFF884C1614B00F1B8
:1013900004080A6832FA06F502D103B0BDE8F08FFE
:1013A000012505FA06F702EA070537EA020276D1B7
:1013B0004A68032A07D8013A022A00F28380DFE84C
:1013C00002F091969C00122A00F0948069D8112AAC
:1013D00000F08A80FF2D94BF8146C1464FEA860205
:1013E000D9F8007088BF203A0EFA02FA27EA0A07F5
:1013F00004FA02F21743C9F80070D1F8049019F00A
:10140000805F4CD0DCF8182026F0030742F0010280
:10141000CCF81820DCF8182007F1804702F0010210
:10142000019207F5803706F0030A019A4FEA8A0A0B
:10143000BA680EFA0AFB22EA0B0B374A904260D0D8
:1014400002F5806290425ED002F5806290425CD0EC
:1014500002F58062904214BF0422032202FA0AF2CB
:1014600042EA0B02BA609A6819F4801F14BF2A433B
:10147000AA439A60DA6819F4001F14BF2A43AA43EA
:10148000DA605A6819F4003F14BF2A43AA435A602D
:101490001A6819F4803F14BF2A43AA431A60013620
:1014A00077E7DFF878904A450CD014D8A9F5801971
:1014B0004A4507D009F570294A4503D0A9F5801996
:1014C0004A4587D18A68D2B1012A4FF008040CBF7F
:1014D000076147617EE7DFF848904A45F2D009F599
:1014E0008039EDE7CC6875E7CC68043472E7CC68E6
:1014F00008346FE7CC680C346CE700246AE70424F6
:1015000068E70022AAE70122A8E70222A6E700BFB7
:1015100000100240000401400008014000002210B9
:101520000000311080680840003818BF0120704763
:101530000AB1016170470904FBE7C36801EA0302CD
:1015400021EA030141EA0241016170472DE9F341BB
:10155000054638B30368DB0710D42B689F075ED4B9
:101560002B68190700F195802B685A0700F1C1809C
:10157000EB69002B40F02C81002029E0904C63683F
:1015800003F00C03042B07D0636803F00C03082B53
:101590000AD16368DE0307D523689C03DDD56B6839
:1015A000002BDAD1012013E06B68B3F5803F12D134
:1015B000236843F480332360FFF764FE0646236804
:1015C0009803CAD4FFF75EFE801B6428F7D9032076
:1015D00002B0BDE8F0819BB9236823F48033236017
:1015E000236823F480232360FFF74CFE064623681C
:1015F0009903B2D5FFF746FE801B6428F7D9E6E7CA
:10160000B3F5A02F236803D143F480232360CFE7F1
:1016100023F480332360236823F48023CBE7684CD2
:10162000636813F00C0F07D0636803F00C03082BFA
:1016300010D16368DA030DD423689B0702D52B69A8
:10164000012BAFD123686A6923F0F80343EAC20390
:10165000236085E72A695B4B6AB101221A60FFF7B4
:1016600011FE064623689F07ECD4FFF70BFE801B94
:101670000228F7D9ABE71A60FFF704FE0646236895
:1016800098077FF56DAFFFF7FDFD801B0228F6D9A7
:101690009DE7AA694A4E4B4BE2B10122C3F8802470
:1016A000FFF7F0FD0446736A9B070DD54FF4FA521D
:1016B000454B1B68B3FBF2F3019300BF019B5A1E1D
:1016C0000192002BF9D14FE7FFF7DCFD001B022848
:1016D000E9D97CE7C3F88024FFF7D4FD0446736A98
:1016E0009F077FF541AFFFF7CDFD001B0228F6D91C
:1016F0006DE7334CE369D80024D40127E36943F054
:101700008053E361E36903F080530093009B2F4E05
:101710003368D90518D5EB68012B26D1236A43F02D
:1017200001032362FFF7AEFD41F288380646236AC3
:101730009B073FD5002F3FF41BAFE36923F0805395
:10174000E36115E70027E2E7336843F48073336011
:10175000FFF798FD80463368DA05DCD4FFF792FD89
:10176000A0EB08006428F6D931E7ABB9236A41F24F
:10177000883823F001032362236A23F004032362E1
:10178000FFF780FD0646236A9807D3D5FFF77AFD59
:10179000801B4045F7D91AE7052B236A03D143F094
:1017A00004032362BAE723F001032362236A23F0D0
:1017B0000403B6E7FFF766FD801B4045B7D906E78F
:1017C0000010024000004242100200200070004061
:1017D0002A4C626802F00C02082A3ED00022022B3A
:1017E000274B1A662CD1FFF74DFD06462368990159
:1017F00020D42B6AB3F5803F05D16268A96822F432
:1018000000320A436260696A62680B4322F4741210
:101810001343012263601A4B1A66FFF733FD054636
:1018200023689A013FF5A8AEFFF72CFD401B022864
:10183000F6D9CCE6FFF726FD801B0228D6D9C6E6EE
:10184000FFF720FD054623689B017FF595AEFFF766
:1018500019FD401B0228F6D9B9E6012B3FF4A2AED0
:1018600060682B6A00F480329A427FF49BAE6B6A08
:1018700000F47010C01A18BF0120A9E60010024041
:10188000000042420D4A536803F00C01082912D1AE
:101890000B48C3F38341DB03405C09D55368094A15
:1018A000C3F340435043084AD35CB0FBF3F07047A6
:1018B000064B584370470348704700BF0010024072
:1018C000DAA5000800127A00D8A5000800093D003A
:1018D0002DE9F0410D46044610B90120BDE8F08124
:1018E000444A136803F007038B4228D321688E070C
:1018F00030D4CA0743D43F4A136803F00703AB420E
:1019000065D822683C4D12F0040F6CD1130706D540
:101910006B68226923F4605343EAC2036B60FFF7EC
:10192000B1FF6B68354AC3F30313D35CD840344B23
:101930001860344B1868FFF763FC0020CEE713688B
:1019400023F007030B431360136803F007038B4274
:10195000C3D1CBE7284B11F0040F1EBF5A6842F4E5
:10196000E0625A60080742BF5A6842F460525A6007
:101970005A68A06822F0F00202435A60B9E7626830
:101980001D4E012A33681AD113F4003FA5D07368A5
:1019900041F2883823F0030313437360FFF772FCAE
:1019A00007467368626803F00C03B3EB820FA2D0A2
:1019B000FFF768FCC01B4045F3D903208EE7022ADD
:1019C00002D113F0007FE1E713F0020FDEE71368A6
:1019D00023F007032B431360136803F00703AB42A4
:1019E0007FF47BAF8DE76B68E16823F4E0630B4322
:1019F0006B608BE70020024000100240E0BF00084F
:101A00001002002004000020044B054A5B68C3F369
:101A10000223D35C034A1068D8407047001002408C
:101A2000D8BF000810020020044B054A5B68C3F3CE
:101A3000C223D35C034A1068D840704700100240AC
:101A4000D8BF0008100200207047000090F83D3019
:101A5000012B1CD102230F4A80F83D3003689342CA
:101A60000AD0B3F1804F07D0A2F59432934203D04D
:101A700002F58062934204D19A6802F00702062AB6
:101A800003D01A6842F001021A600020704701205A
:101A9000704700BF002C0140174A036890420AD0EB
:101AA000B0F1804F07D0A2F59432904203D002F5F6
:101AB0008062904207D14A6823F070031343CA68DA
:101AC00023F4407313434A6923F0800313430360F4
:101AD0008B68C3620B688362074B984204BF0B6933
:101AE0000363012343610369DB0742BF036923F0FA
:101AF00001030361704700BF002C014010B504468C
:101B000030B390F83D3003F0FF021BB980F83C2061
:101B1000FFF79AFF0223206884F83D30211DFFF76C
:101B2000BBFF0123002084F8463084F83E3084F85F
:101B30003F3084F8403084F8413084F8423084F8F3
:101B4000433084F8443084F8453084F83D3010BD8B
:101B50000120FCE7026802F10C0353E8003F23F484
:101B600090730C3242E8003102680029F2D102F190
:101B7000140353E8003F23F0010302F1140C4CE876
:101B800000310029F3D1036B012B0BD102F10C03BF
:101B900053E8003F23F0100302F10C0C4CE8003135
:101BA0000029F3D1202380F84230002303637047DB
:101BB00010B504460368C1681A6922F440520A430A
:101BC0001A6182680069D9680243606921F4B051E2
:101BD00021F00C0102430A43DA605A69A16922F438
:101BE00040720A435A610E4A934215D1FFF71CFF17
:101BF00019234343626820689200B3FBF2F3642226
:101C0000B3FBF2F102FB11331B013233B3FBF2F3EE
:101C100003EB0113836010BDFFF7F6FEE8E700BF9A
:101C200000380140F7B505460C4617461E462A689F
:101C3000136834EA030301D1002021E0701CF7D0BF
:101C4000FFF720FBC01B86421CD3DEB12B68DA688D
:101C50005107ECD5802CEAD0402CE8D01A68120746
:101C6000E5D5002401941A68284601925B68019327
:101C7000019BFFF76FFF082301206B6485F840404C
:101C800003B0F0BD0320FBE7704710B5044648B32E
:101C900090F8413003F0FF021BB980F84020FFF7B5
:101CA000F3FF2423226884F84130D368204623F4CC
:101CB0000053D360FFF77CFF236800201A6922F4E9
:101CC00090421A615A6922F02A025A61DA6842F493
:101CD0000052DA602023606484F8413084F8423096
:101CE000606310BD0120FCE72DE9F843984690F8A9
:101CF00041300446202B0E4617463FD100293FD0E5
:101D0000002A3DD021230025456480F84130FFF7AB
:101D1000B9FAA3688146B3F5805FA784E78403D14D
:101D200023690BB935461E46E38C9BB253B9434633
:101D30004A4640212046FFF775FF202350B984F81A
:101D400041300AE043464A4680212046FFF76AFFB9
:101D500028B12023032084F84130BDE8F8832268AD
:101D60004EB935F8023BC3F308035360E18C0139E7
:101D700089B2E184D8E716F8013BF6E70220ECE7E8
:101D80000120EAE7002310B503638364C36403649E
:101D90000446FFF777FA012384F85430206510BD1C
:101DA000002310B5C36003610446FFF76BFAE061DE
:101DB00010BD00002DE9F04F91B01F469DF868302E
:101DC00082460A931B9B89460C931C9BBDF9748029
:101DD00009931E9B0B920D931F9B0E9382EAE27355
:101DE000A3EBE2739BB2B3F5C87F00F2B381434526
:101DF00040F3B0811046FEF75BFF3A7C05464FF09A
:101E00007E5B002A40F0F48001233860C7F804B0FC
:101E10003B74FFF737FA0646D9F85000301AFEF740
:101E200043FF8E49FFF74CF88D490446FFF732F91E
:101E3000002840F002814FF07E512046FFF748F91C
:101E400008B14FF07E54D9F80010C9F85060284608
:101E5000FEF782FF0646D9F848102846FEF772FEC4
:101E60002146FFF72DF8D9F80810C9F84850FEF7B9
:101E700073FF3146FEF768FED9F8606004463146CC
:101E8000FFF726F900B13446D9F85C6020463146A8
:101E9000FFF700F900B134464FF07E512046FFF7BE
:101EA00017F9002840F0CB8020466E49FFF7F2F882
:101EB00000B16C4C0A9B0BB104F100440021204698
:101EC000FFF7FCF8B0FA80F300215B0920460A9383
:101ED000FFF7F4F8002840F0B58004F1004B4046CD
:101EE000FEF7E6FED9F8046080463146FFF7E6F8D3
:101EF00028B14FF07E514046FEF726FE06460021EF
:101F00002846FFF7E5F8002840F09E8005F10040E4
:101F10004146FEF717FE41460F903046FEF712FE8F
:101F200001460F98FEF7CCFF00218046FFF7B2F87C
:101F3000002840F08B804FF07E514046FFF7C8F8F4
:101F400008B14FF07E5859464046FFF7A3F80028E5
:101F50007FD040460E99FEF7FFFE00210646FFF7B0
:101F600099F800B1002640493046FEF7F5FEFFF72C
:101F7000DFF844F62063A3EB000B9B4528BF9B468C
:101F800041F288339B4538BF9B460D9B002B71D097
:101F9000504603F050F900210D902046FFF78EF8CF
:101FA0000D9B002857D0581C00F5C870B0F5487F2D
:101FB00060D9504603F03DF910B1504603F092F855
:101FC0004846FFF7DFFE002300223B74099B1A609E
:101FD000264B1A78002A40F0988001221A704FF49C
:101FE000C8720C99224811B0BDE8F04F04F042B914
:101FF000B9687868FEF7A8FDF9680446FEF7A4FD05
:1020000001462046FEF75CFF06463A682846114620
:102010000F92FEF797FD3146FEF79EFE0F9A11468E
:10202000FEF792FD3146386005465846FEF78AFDB8
:102030002146FEF791FE7860EBE6094C03E74FF08E
:102040007E5437E7A3464AE7284661E74FF0000889
:1020500079E758467EE7581EA6E700BF00007A449D
:102060006F12833A000080BF00606A46360200208B
:10207000EAA50008099B58461C68FEF715FE0021DA
:1020800007462046FEF7FCFF78B94FF07C5120460A
:10209000FEF762FE4FF07C5104463846FEF75CFEC8
:1020A00001462046FEF750FD0746099B4FF07C5144
:1020B0001F603846FEF748FDFFF73AF844F6206304
:1020C000984228BF184641F28833834698420A99BD
:1020D000504638BF9B4602F0A9FE504603F0A9F8CF
:1020E000012802D0504602F0FDFE5946504602F04B
:1020F000D1FE204A2049BAEB020218BF01228B5CB4
:102100000133DBB2042B03D88B5411B0BDE8F08F40
:10211000002328468B54FEF771F9044630460D46DD
:10212000FEF76CF9064640460F46FEF767F9804613
:102130005046894603F07FF8DDE90B21CDE906B072
:10214000CDE90489CDE90267CDE900450B4804F0EB
:1021500091F8DAE7504603F06CF810B1504602F0FF
:10216000C1FF4846FFF70EFE002300223B74099B87
:102170001A60CAE7080600203402002018A60008EA
:10218000F0B51D4E3368DB689B0433D572B61B4D2A
:102190001B4B1C4F01442A881C880132A4B2D2B2C6
:1021A000A24208BF1C8810F801CB02BF0134E4B280
:1021B0001C802C888842A4B207F804C02A80EAD187
:1021C00062B611480278AAB929881A8889B292B2EF
:1021D00091420FD0012202701A8892B2B95C1A881B
:1021E000C9B20132D2B21A8033685960DA6842F05B
:1021F0008002DA60F0BD00BFA8060020E4020020E3
:10220000E2020020E6020020E10200200FB407B540
:1022100004AB53F8042B80210648019304F092F993
:10222000011E02DD0348FFF7ABFF03B05DF804EBCE
:1022300004B070473C020020F0B5AFB0FFF722F8C1
:10224000374C2368C01A632867D9FFF71BF8354B52
:1022500020609C6C344B9E6C344B1D68344B1F6863
:10226000344B1868FEF7CAF8CDE90E01B81BFEF72B
:102270001FFDFEF7C3F8CDE90C013846FEF718FD47
:102280002D49FEF769FD4FF06651FEF765FDFEF73B
:10229000B5F8CDE90A013046FEF70AFD2649FEF7FA
:1022A0005BFD4FF06651FEF757FDFEF7A7F8CDE94D
:1022B0000801224B1868FEF7A1F8CDE90601281B9A
:1022C000FEF7F6FCFEF79AF8CDE904012846FEF782
:1022D000EFFC1949FEF740FD4FF06651FEF73CFD5B
:1022E000FEF78CF8CDE902012046FEF7E1FC124929
:1022F000FEF732FD4FF06651FEF72EFDFEF77EF839
:102300000F4ACDE90001782110A804F023F80A2330
:1023100082B210A90B48FFF7E7FC2FB0F0BD00BF59
:10232000D802002008060020B00500204804002044
:10233000440400203C0400200000B443400400207A
:1023400059A60008F00600202DE9F84F1E46836CC0
:102350000546A2EB030A8AEAEA73A3EBEA73B3F534
:10236000FA6F884614460A9FDDF82CB0DFF84C92CD
:1023700040F3FC80D9F80030002B40F0DF80FEF7FE
:1023800081FFC9F80000284602F053FF002840F002
:1023900004812146284602F0C5FDFEF773FF04467E
:1023A000D8F81C00201AFEF77FFC8549FEF7D4FC04
:1023B00083498146FEF76EFE002840F0F0804FF022
:1023C0007E514846FEF784FE08B14FF07E595046D4
:1023D000FEF76EFC4946C8F81C408246FEF7BCFC7E
:1023E000D8F81010FEF7B0FB76490446FEF770FEF1
:1023F00000B1744C20467449FEF74CFE00B1724C9B
:10240000D8F80C105046C8F81040FEF79BFB494620
:10241000FEF756FDD8F800108146C8F80CA05046CB
:10242000FEF79AFCD8F8041082462046FEF794FC8A
:1024300001465046FEF788FBD8F808100446484687
:10244000FEF78AFC01462046FEF77EFBD8F818907E
:1024500004464946FEF73CFE00B14C46D8F81480CD
:1024600020464146FEF716FE00B144464FF07E512D
:102470002046FEF72DFE002840F098802046534964
:10248000FEF708FE002840F08D8000212046FEF770
:102490001FFE002800F0878039462046FEF75CFCCE
:1024A00000210446FEF7F6FD002840F084804FF03E
:1024B0007E512046FEF70CFE00287AD04FF07E5069
:1024C0004349FEF749FCFEF733FE44F62063181A31
:1024D000984228BF184641F28833984238BF1846C0
:1024E000FEF7E2FB3768044600213846FEF7C8FDD8
:1024F00068B938463749FEF72FFC3749074620466A
:10250000FEF72AFC01463846FEF71EFB04464FF054
:102510007C5120463460FEF717FBFEF709FE44F6B7
:102520002063984228BF184641F28831814238BF63
:1025300001462846BDE8F84F02F0ACBCFEF7A2FE0B
:10254000D9F80030C01A40F6B83398427FF61BAF76
:10255000224B1A78002A7FF416AF012259461A70CE
:102560001F480323524603F085FE0CE700231B4A55
:10257000C9F8003013700AF10203042B3FF603AFD1
:1025800002F057FE10B1284602F0ACFD4046FFF7BE
:1025900007FC00233360BDE8F88FEC64FDE6DFF84C
:1025A000209014E7094C04F1004475E74FF07E5485
:1025B00072E7204684E7002082E700BF1004002075
:1025C0006F12833A00409C4500409CC5000080BFCC
:1025D00000606A463333333F9A99993E0F040020D6
:1025E00087A60008234B73B51A682348234B1C6841
:1025F000836CD31A042B35DC04330ADA0123204917
:102600000D789D4204D01F4D2D68002B2CD12A44FB
:102610000B701D498B6CE31A042B27DC043309DA99
:1026200001231A4D2E789E4203D0194E3668FBB90D
:1026300034442B70174BC264CC6401934FF07E532B
:10264000154900930C48154BFFF77EFE144B2246AC
:102650000193144B144900930B48144BFFF774FE7D
:1026600002B070BD0023CAE7521BD1E70023D8E7B0
:10267000A41BDEE7480400200806002044040020D4
:102680009504002010000020B005002094040020D4
:102690000C000020CDA6000870040020400400209B
:1026A000D1A600083333333F4C0400203C04002003
:1026B0002DE9F041002588B0454B06959A69012423
:1026C00042F004029A619A690326022702F004028A
:1026D00000924FF0F008009A9A6904A942F00802AB
:1026E0009A619A693B4802F008020192019A9A693C
:1026F00042F010029A619A6902F010020292029A64
:102700009A6942F001029A619B69334A03F001031E
:102710000393039B536823F0E06343F0007353601B
:10272000CDE904640797FEF729FE2A463146294879
:10273000FEF7FEFE04A92748CDE904840796FEF7BC
:102740001DFE2A4641462348FEF7F2FE4FF0780868
:1027500004A92248CDE904640797FEF70FFE2A4634
:1027600031461E48FEF7E4FE0796802604A91B4862
:10277000CDE90484FEF702FE2A4641461748FEF7DB
:10278000D7FE04A91548CDE904640797FEF7F6FDC6
:102790002A4631461148FEF7CBFE4FF47043CDE98F
:1027A00004354FF4005504A90C480694FEF7E6FDE5
:1027B00004A90B48CDE904540797FEF7DFFD224634
:1027C00029460748FEF7B4FE08B0BDE8F08100BF17
:1027D000001002400008014000000140000C0140D0
:1027E0000010014030B5002587B01B4B04959A6955
:1027F00002A942F480429A619B694FF4007203F48B
:1028000080430193019B0223CDE902230323134854
:102810000593FEF7B3FD4FF4806302A90F48CDE99D
:1028200002350495FEF7AAFD4FF4E1330C4C0D4937
:102830002046C4E900130C23C4E90255C4E9053558
:102840002561E561FFF721FA2268D36843F0200390
:10285000D36007B030BD00BF001002400008014047
:10286000F00600200038014030B5002587B01A4B33
:102870000495DA6902A942F40032DA61DB690422C4
:1028800003F400330193019B0223CDE902230323C8
:1028900012480593FEF772FD082310480DEB030163
:1028A000CDE902350495FEF769FD4FF416530C4C43
:1028B0000C492046C4E900130C23C4E90255C4E9BD
:1028C00005352561E561FFF7E0F92268D36843F03B
:1028D0002003D36007B030BD001002400008014063
:1028E000A80600200044004030B5002587B01F4BEB
:1028F0000495DA6902A942F48022DA61DA691C4897
:1029000002F480220092009A9A691A4C42F008025E
:102910009A619B694FF4806203F008030193019B65
:102920000223CDE9022303230593FEF727FD4FF48D
:10293000006302A90E48CDE902350495FEF71EFD9D
:102940004FF4E1330C492046C4E900130C23C4E9D9
:102950000255C4E905352561E561FFF796F922685E
:10296000D36843F02003D36007B030BD00100240AD
:10297000000C01406006002000480040174B37B5AE
:10298000DA69174C42F00102DA61DB694FF08042EC
:1029900003F001030193019B47230025C4E90023B1
:1029A00041F63F73C4E9025380232046A3612561A9
:1029B000FFF7A4F822682046D36843F00103D360F0
:1029C000FFF744F82A4601211C20FEF785FC1C2055
:1029D00003B0BDE83040FEF7AFBC00BF00100240BE
:1029E00080070020164B37B5DA69164C42F0020218
:1029F000DA61DB69144A03F002030193019B472368
:102A00000025C4E9002341F63F73C4E90253802343
:102A10002046A3612561FFF771F822682046D3683C
:102A200043F00103D360FFF711F82A4601211D206E
:102A3000FEF752FC1D2003B0BDE83040FEF77CBC21
:102A400000100240380700200004004010B5144672
:102A50000A2392B20248FFF747F9204610BD00BF93
:102A6000F006002000207047002070474FF0FF3034
:102A700070474FF0FF30704701207047074B1B68CD
:102A80001A69D10708D5DA68D20705D56FF00102B7
:102A900003481A6102F032BB704700BF8007002074
:102AA00008060020074B1B681A69D10708D5DA68A9
:102AB000D20705D56FF0010203481A6102F01EBB70
:102AC000704700BF38070020B0050020144B13B535
:102AD0001B681A68910616D512495A680878D2B24E
:102AE0001E2805D80C78601CC0B208700E4802552C
:102AF0000A2A01D00D2A03D101210C4A117002E0EB
:102B00000A781E2AF8D81A68120706D50022019200
:102B10001A6801925B680193019B02B010BD00BF6F
:102B2000F00600208105002082050020800500209D
:102B300030B5374D85B02B681A68100614D5DA68A1
:102B4000110611D5334A344910880A8880B292B2EE
:102B5000904227D00A88314892B2805C0A88C0B27D
:102B60000132D2B20A8058601A68920625D5012235
:102B70005C682B4BE4B21A70FEF784FB294B18609B
:102B8000294B1A781E2A05D819784A1CD2B21A7015
:102B9000264A54540A2C01D00D2C0BD10122244B6F
:102BA0001A700AE00021234A1170DA6822F08002CC
:102BB000DA60D9E71B781E2BF0D82B681A68140747
:102BC00006D5002200921A6800925A680092009A74
:102BD0001A68500706D5002201921A6801925A68B5
:102BE0000192019A1A68910706D5002202921A688A
:102BF00002925A680292029A1A68D20706D50022F7
:102C000003921A6803925B680393039B05B030BD7F
:102C1000A8060020E4020020E2020020E6020020D4
:102C2000E0020020DC020020810500208205002057
:102C300080050020E10200203C4BF7B51C682368AA
:102C40009A0618D53A4B62681978D2B204290ED880
:102C5000DFE801F003081D2D31003C2A0BD10122D1
:102C60001A7008E03B2A04D102221A70314B00226C
:102C7000F6E73C2AFBD123681B0706D50023019306
:102C80002368019363680193019B03B0F0BD294859
:102C90000178052906D80178CDB20131C9B2017099
:102CA00025494A550278052AE5D90322D8E7012AA1
:102CB000DDD10422D4E7012AD9D11F4F05250022F6
:102CC0003946082617F8010B424050B20028BDBF14
:102CD000400080F00700C2B2520006F1FF30A8BFEA
:102CE000D2B210F0FF06F0D1681E10F0FF05E8D157
:102CF0004879904215D108784A7842EA00220F4874
:102D000012B202808878CA7842EA00220C4812B2D5
:102D100002800A790B49D2B20A7001210A4A117065
:102D2000A5E70A490A6801320A60A0E760060020A8
:102D30007905002072050020730500207005002031
:102D40006E0500206D0500206C0500206005002048
:102D5000FEF78CBA07B5074C4FF400510648FEF752
:102D6000ECFB00230193019BA342F5D8019B0133A7
:102D7000F8E700BF1FA107000010014007B572B6B9
:102D8000064C4FF400510648FEF7D7FB0023019391
:102D9000019BA342F5D8019B0133F8E73F420F00A6
:102DA0000010014010B590B01422002108A803F0D3
:102DB00079FC1422002101A803F074FC02244FF4D2
:102DC00080330122CDE90D43CDE906234FF4E01312
:102DD00006A80F93FEF7BAFB08B1FFF7CFFF0F234A
:102DE000CDE901344FF480630390CDE904302146EE
:102DF00001A8FEF76DFD0028EFD110B010BD000056
:102E00002DE9F04FB7B0FEF71FFAFFF7CBFFFFF742
:102E10004FFCFFF7E7FCFFF727FDFFF765FD0022FA
:102E200025201146FEF758FA2520FEF785FA0022E4
:102E300026201146FEF750FA2620FEF77DFA0022E2
:102E400027201146FEF748FAAA4D2720FEF774FA0C
:102E500000220F214FF0FF30FEF73EFA6C6AA648C1
:102E6000214603F007FA002C02DAA44803F002FA24
:102E7000670002D5A24803F0FDF9A60002D5A148DB
:102E800003F0F8F9E00002D59F4803F0F3F92101BF
:102E900002D59E4803F0EEF9620102D59C4803F08A
:102EA000E9F9A30102D59B4803F0E4F99A4803F03D
:102EB00049FA6B6A43F080736B6201F00FFC0028E3
:102EC00000F09481954803F03DFA954B954A964958
:102ED000964801F055FF964B964A9749974801F05E
:102EE0004FFFFFF74BFDFFF77DFD4FF07E510C4686
:102EF000934A944B002653604FF08043A246924D74
:102F000010461160116693659660D565FEF73AFF2D
:102F10008E4A8F4B1460536014668E4B8E4CDFF8D4
:102F20003C82DFF83C92104693659660D565012798
:102F3000FEF728FFC4F80880C4F800906660E660D9
:102F400026616561C4F818A0FEF79CF984F820702A
:102F5000E061844CC4F80880C4F800906660E660C4
:102F600026616561C4F818A0FEF78CF94FF4006281
:102F7000E0617D496D4884F8207002F003F87B49D8
:102F80004FF4C8726D4801F0FDFF0023784A79487C
:102F90001360794A794C136003F0D4F9784803F050
:102FA000D1F9784803F0CEF9774803F0CBF97748A8
:102FB00003F0C8F9764803F0C5F9764803F0C2F982
:102FC000754803F0BFF9754803F0BCF9744803F085
:102FD000B9F9744803F0B6F9734803F0B3F97348CC
:102FE00003F0B0F9724803F0ADF9724803F0AAF9A2
:102FF000DFF8C481714B1A78002A00F00E8100219D
:10300000DFF8BC91197099F800306E4ADBB2D154E8
:103010006D4917781546A7F10A03DBB2162B104647
:1030200002F1010200F2F38021FA03F3DF07F0D48A
:10303000664A691E133011F8013F13B1884240F00F
:103040001581002362496348137003F0D0FB2F7889
:10305000782F00F0338100F21281592F00F058814F
:103060005A2F00F01181582F00F0288103222846A2
:10307000594903F01FFB38B103222846574903F092
:1030800019FB002840F0818100238DF84F30149304
:1030900015AB0093524914AB0DF14F02E81C159685
:1030A00003F0B0F9032840F06B819DF84F304D4993
:1030B00043F02003742B14A807BF2A4D1C4F264D44
:1030C000174FFDF725F8002840F04881159B2B602D
:1030D00006232370FEF7D6F89630C8F8000015983E
:1030E000FDF78CF9CDE9000139463F4814AAFFF7F6
:1030F0008DF88FE00010024022A7000843A70008C7
:1031000050A700085DA700086FA7000880A7000867
:1031100086A7000891A700081EAA0008A2A7000819
:10312000CDA60008800700207CBB00080806002010
:10313000D1A60008380700205CBB0008B0050020BD
:10314000FC04002000000C42000080BF9804002016
:103150000000C841000040407004002017B75138FB
:1031600052491D3A4C04002000F8FFFF70FEFFFF9B
:1031700048040020FBA8000844040020440000206C
:1031800027A900084FA9000868A900088EA900080F
:10319000C7A90008F4A9000820AA00085AAA000834
:1031A0008AAA0008B8AA0008E3AA00080EAB000823
:1031B00037AB000854AB00087C05002080050020D8
:1031C000810500208205002009004000FA0300204C
:1031D0008BAB0008E603002058AC00085CAC00088C
:1031E00060AC00086BAC00089DAC0008944803F08C
:1031F000A9F8944803F0A6F8934803F0A3F893487D
:1032000003F0A0F8924803F09DF892485BE6002F87
:103210007FF40EAF002389F80030FEF733F88E4AB2
:103220001368C31A312B40F2CE8310604FF4004173
:103230008A48FEF777F9002840F08884884801F032
:1032400051FF884801F04EFF2378013303F0070354
:103250002370013B062B00F29983DFE813F0A403EF
:10326000A903CE03DB03E803ED03FE03A3F161072B
:10327000192F9CBF203BDBB202F8013BDBE6792F24
:1032800046D07A2F7FF4F2AE754801F089FE75487A
:1032900001F086FE0023744A74481360744A136078
:1032A000FEF77EFD7348FEF77BFD06232370FDF7D6
:1032B000E9FF9630C8F800006F4826E06F4915AA6C
:1032C000681C159603F09EF801281DD14FF08B4124
:1032D0001598FDF741FD6A49FDF7F2FDFDF702FF84
:1032E0000623614D23702860FDF7CCFF9630C8F8A7
:1032F00000001598FDF782F80B46296802466148E0
:103300000091FEF783FF85E75F48FEF77FFF81E7C7
:103310005A4915AA681C159603F074F801281BD1A8
:103320004FF08B411598FDF717FD5549FDF7C8FD86
:10333000FDF7D8FE06234E4D23702860FDF7A2FF4F
:103340009630C8F800001598FDF758F80B46296824
:10335000024600914D48D4E74D48D6E74D4914A8A0
:10336000FCF7D6FE10B9159B6B60B1E64A4914A86C
:10337000FCF7CEFE002840F0B382159BAB60A7E6B9
:103380004648FEF743FF4648BFE707F0DF074B2FED
:1033900008D105232370FDF775FF9630C8F80000AB
:1033A0004048B2E74D2F08D106232370FDF76AFF8E
:1033B0009630C8F800003C48A7E7082228463B4959
:1033C00003F078F930B108222846394903F072F940
:1033D00000287FD1002337498DF85030159314AA67
:1033E00015AB05F1080003F00DF8022821D19DF876
:1033F000503043F02003702B15D12F4B159A1A60D3
:10340000FDF740FF9DF8503096302C49C8F8000079
:103410002B4843F02003702B18BF0146159A29480A
:10342000FEF7F4FEF6E6742B01D1274BE6E72748BA
:103430006BE7254B26481A681F4B1968F0E700BF59
:10344000CAA7000819A800082BA800086AA8000845
:103450007FA800089FA8000838020020000C014047
:1034600008060020B0050020480400207004002059
:10347000440400204C0400202DAC000868AC000877
:103480000000B4438EAB0008B1AB0008DDAB000810
:1034900001AC00086EAC000871AC0008C0AC0008BC
:1034A000EBAC000803AD00082CAD00084FAD0008E0
:1034B00058AD000861AD000810000020CDA600083E
:1034C000D1A6000883AD00080C00002068AD0008FC
:1034D000A0AD0008052228469C4903F0EBF830B166
:1034E000052228469A4903F0E5F8002846D14FF412
:1034F0009673984915AA681D159302F083FF159FCE
:10350000954BB7F5006FA8BF4FF40067322FB8BFD7
:1035100032279A6C914B924D9B6CD11BD81B3B442C
:10352000C5E90531EB6100233A44C5E902202A616F
:103530000122DFF830A229608AF800308A4B6860E7
:103540001A70FDF79FFE894B2A68186007232370C5
:10355000874B88481A606A68874B1A60FEF720FC20
:103560008648FEF71DFC39469AF80020844802F090
:1035700081FE15998348FEF749FE4BE60422284652
:10358000814903F097F828B1042228467F4903F0C7
:1035900091F860B90022744B6F481A7001F0A2FDD7
:1035A0006E4801F09FFD062379482370ADE623782D
:1035B000052B02D177497848DDE703232370FDF717
:1035C00061FE963000224FF40051C8F800007348A5
:1035D000FDF7AEFF6F497248FEF718FE95F800A0A0
:1035E0004AF02003742B04D8602B21D83F2B00F025
:1035F0009E80681C01F08AFEBAF1560F074600F063
:10360000B38100F27281BAF12D0F00F09381BAF10B
:10361000520F00F07481BAF12B0F00F07D812978F0
:103620006048FEF7F3FD6049604803F0E0F8F1E51B
:10363000613B132BDDD801A252F823F0D5360008E8
:10364000F3350008BD360008FD360008F3350008E4
:10365000A1360008F1370008AF3600081737000818
:10366000F3350008F3350008F3350008F33500089A
:10367000F3350008F33500088D360008F3350008EF
:10368000F3350008ED36000897360008484B324AFB
:1036900048481A6039E6464B304A47481A6034E6D3
:1036A000434B0021186801F09BFB44482DE6404B3A
:1036B0000121186801F094FB414826E63C4D0021A9
:1036C000286801F0B3FB286801F00CFC29683D482C
:1036D000383150E7364D0121286801F0A7FB2868F2
:1036E00001F000FC29683848383144E7304D28683B
:1036F00001F0F8FC2968354838313CE7164801F0FC
:10370000F1FB164801F0EEFB042300222370304B3E
:1037100030481A60F9E5304A3048137883F00101E7
:1037200011702F492F4A012B08BF114623E70A4881
:1037300001F084FD094801F081FD1D4B2A481968FC
:103740003831FEF763FD2948DFE500BFBEAD000854
:10375000C4AD000865AD000808060020B0050020D3
:10376000180400203804002039040020140400202C
:103770004804002070040020440400204C04002071
:10378000CAAD0008FEAD000821AE000826AE000854
:103790002BAE00088205002039AE00080010014061
:1037A0004DAE00089BB00008CFB00008E603002033
:1037B0003C00002056AE00087CAE0008A3AE000816
:1037C000C3AE0008E0AE0008FCAE000819AF000868
:1037D000AC0500202AAF00080800002049AF00080F
:1037E000D6A60008E5A6000864AF00087DAF000873
:1037F00000238DF84F30149315AB00939F4914AB01
:103800000DF14F02681C159602F0FCFD03286AD1E9
:103810009DF84F709A4D9B4B47F020079A4914A88A
:10382000742F08BF1D46FCF773FC10BBDDF854A0D5
:10383000DFF858B250465946FDF72CFC80B1CDF860
:1038400054B015982860924B924D742F08BF1D46B6
:10385000FCF7D4FD14AACDE9000129468E4846E4C0
:1038600050468E49FDF734FC0028EAD08B4B159367
:10387000E7E78B4914A8FCF74BFCB0B9DDF854B06E
:10388000DFF820A258465146FDF704FC10B1CDF8F0
:1038900054A007E0DFF810A258465146FDF718FC87
:1038A0000028F4D115986860CDE7804914A8FCF78A
:1038B0002FFCA8B9DDF854B000215846FDF7EAFB0B
:1038C00018B115961598A860BDE7DFF8E4A1584631
:1038D0005146FDF7FDFB0028F4D0CDF854A0F1E7E8
:1038E000744814A947E674480FE5BAF1760F3BD047
:1038F000BAF1770F2CD0BAF1720F7FF490AE384640
:10390000FDF7D6F96D4D0146286801F063FB296883
:103910003A466B48383183E5684D0021286801F04C
:1039200085FA3946286801F047FB29683A46654818
:10393000383175E5614D0121286801F077FA394683
:10394000286801F039FB29683A465F48383167E555
:103950005A4D0146286801F08FFB296807EBD7779D
:103960005A487A1038315BE544F620639F4228BFFD
:103970001F4641F288339F4238BF1F464F4B39469E
:10398000186801F065FA39465148F4E5514D524B3B
:1039900052481D6002F0D6FC514802F0D3FC284684
:1039A00001F0A0FA0FE04F4D4B4B4F481D60F1E77F
:1039B0004E4802F0C7FCB421464801F05DFBB4213B
:1039C000484801F059FB2378042B40F08B81FDF728
:1039D00059FCDFF81C910546D9F80070DFF814A1F6
:1039E000002F40F01A81444BC9F8000043488AF880
:1039F00000701F6002F0A6FC74E1414802F0A2FCD6
:103A0000404802F09FFC404802F09CFC3F4802F016
:103A100099FCD8E73E4802F095FC2E4801F062FA86
:103A2000304801F05FFA0022314B1A60CBE7394889
:103A300002F088FC3848EAE7384802F083FC38484E
:103A400002F080FC374802F07DFC374802F07AFC37
:103A5000364802F077FC3648D9E7364802F072FC67
:103A6000354B364A1978364B3648002918BF1A4666
:103A7000114602F0FFFB3448C9E700BF61AC000803
:103A8000FC040020980400206BAC0008CDCCCC3D99
:103A9000D1A60008CDA60008B3AF00080000404042
:103AA0006EAC0008000020410000F04271AC00083C
:103AB0000AD7A33C74AC0008E7AF00083C00002024
:103AC00042B0000810B0000829B0000859B0000842
:103AD00072B000080806002040000020D3B00008A3
:103AE00009B10008B00500202FB1000866B1000838
:103AF000AC050020A8050020A40500202BB4000878
:103B000089B10008ACB10008D8B1000800B20008C3
:103B100035B200086FB2000897B20008B6B20008CC
:103B2000D9B20008FDB2000822B300084CB3000867
:103B300089B30008BEB3000839040020FCA60008C1
:103B4000F2A60008E1B3000808B400082378022BAD
:103B500026D14FF480514648FDF7E4FC40B941F2CC
:103B60008833444885689D427FF62DAFC83D0FE0FD
:103B70004FF400513E48FDF7D5FC00287FF423AFF9
:103B800044F61F633B4885689D423FF61CAFC8352D
:103B9000294601F05DF92946374801F059F912E745
:103BA000042BD6D0032B00F0A4804FF48051304872
:103BB000FDF7B8FC88B941F28833304D2868816838
:103BC000994202D9C83901F043F9286801F031FB64
:103BD00000287FF4F8AE2868E2E64FF4005124484C
:103BE000FDF7A0FC40B944F61F63244D28688168A6
:103BF0009942EAD8C831E6E74FF480411C48FDF706
:103C000091FC00287FF4DFAE1C4D28684178B1FAA2
:103C100081F1490901F00AF9D7E79AF80030C71B8A
:103C2000052B00F25084DFE813F006002D008A0314
:103C3000B503DC0326044FF47A610E4801F008F95D
:103C40004FF47A610C4801F003F90021094801F0B2
:103C5000EDF80021084801F0E9F8B7F5FA6F41D90D
:103C600001238AF80030C9F80050054B38E000BF46
:103C7000000C014008060020B00500204000002094
:103C8000A4050020B54ADFF8D8B210464FF496617B
:103C900001F0DEF840F2DC51584601F0D9F8B14BA2
:103CA000AE4A1968691AB1F5AF7F10D9517810463C
:103CB000B1FA81F149091D6001F0B8F89BF80110D3
:103CC0005846B1FA81F1490901F0B0F8A54B40F628
:103CD000B832974206D90222C9F800508AF800206B
:103CE00000221A602378062B03D1FEF77BFCFEF737
:103CF000A3FA2378072B42D19B4B1B78002B3CD097
:103D0000DFF868A29A4D9AF80030944955F83320AC
:103D1000896C05EBC3035F68A2EB0109904B09F1C5
:103D20000509D3F848B0FDF7ADFAB9F10A0FDFF88D
:103D300044C200F2CE83A7EB0B0705370A2F00F22F
:103D4000C883DCF80030C31AC72B14D99AF80010C6
:103D5000894B013101F0030155F8312005EBC10514
:103D60001A606B68854DCCF8000085488AF8001011
:103D70002B6002F07FFAFEF735FCFEF75DFAFDF7E7
:103D800081FA804D2B68C01AC72840F2BC80FDF72D
:103D900079FA286000F0A4FC002800F0B4808022AA
:103DA000002116A802F07EFC2378774A774952F862
:103DB000232031A815925A1F534253418DF8D43015
:103DC000734BDFF898B11A78724B002A08BF0B4684
:103DD0001021714A02F0BEFA9DF8D430002B00F099
:103DE00093836E4B1F886E4B3FB287EAE770A0EB60
:103DF000E77080B21D88FCF75BFF2DB2824685EA32
:103E0000E570A0EBE57080B2FCF752FF6549814692
:103E10005046FDF75DF9002840F05E835046614949
:103E2000FDF74EF82F905F494846FDF751F90028FD
:103E300040F0558348465B49FDF742F83B46102168
:103E4000594A309016A802F085FA584A2B4610219C
:103E50001AA802F07FFA514B188800B2FCF728FF2D
:103E6000534B1968FCF778FF4D4B0546188800B294
:103E7000FCF71EFF4F4B1968FCF76EFF384A9BF8A2
:103E800004301279134340F02D834B491EA802F0F1
:103E9000AEFC4A4B1B7803F0FF02002B00F031838D
:103EA000474912F0040F474B18BF0B4612F0020FA0
:103EB0000CBF2D224822182100920DF18E00424A9B
:103EC00002F048FAFDF7DEF9FCF776FA00223F4BE4
:103ED000FCF716FC3E4B3F4A1B781278002B0CBFB8
:103EE00070235023002A0CBF74225422CDE9000114
:103EF000CDE902321621384A0DF1A60002F02AFA65
:103F000015A800F0EFFB354B1A78002A00F0B680B8
:103F10004FF0000A83F800A0204BB3F80090204B2C
:103F20000FFA89F91F88254B3FB21D78FDF7AAF9D2
:103F30002B4BEDB21860EB0740F1A0802378072BE4
:103F400000F0BF80FDF79EF9264B1860FDF79AF947
:103F500040F6B833984240F2918045E008060020D0
:103F6000B0050020A40500203904002038040020FA
:103F700018040020140400204804002044040020F9
:103F8000B9B40008CC02002044BB00080AA700080E
:103F9000E002002006A70008D9B400087005002040
:103FA0006E05002000002043DFB40008E7B40008DD
:103FB000FC04002098040020EFB400086D050020E8
:103FC0000FA7000814A700080BB5000800408F4099
:103FD000080000200E04002015B500086C05002024
:103FE00068050020640500202378052B10D00523E8
:103FF000AC482370FDF7C6FEAB48FDF7C3FEAB4BE4
:10400000AB4883F810A0AB4B83F810A002F09AF9EC
:104010004FF07E534FF0000A05930223CDE9033A97
:10402000A54B4A460293A54B9E490193A44BA54834
:104030001B7800939D4BFDF7BDFEA34B4FF4C8705A
:1040400005930423CDE90330A04B3A460293A04BDD
:10405000954901939F4BA0481B780093954BFDF722
:10406000A9FEAD070AD5FDF70DF9C830C8F8000064
:1040700052464FF400519948FDF75AFA2378052B20
:104080001FD1974F3B68E3B1FDF7FCF83B68954DB6
:10409000C31AB3F5FA6F40F28182934802F052F9E5
:1040A000884801F01FF88C4801F01CF87D48FDF7A6
:1040B00069FE7D48FDF766FE0323237000233B6005
:1040C0002B60FDF7DFF8894D2B68C01AB0F5FA7F39
:1040D00042D3FDF7D7F82860854D2B68DB6899043B
:1040E0003AD543F63C537748ADF8543083797A4A51
:1040F0005B018DF85630937912795B018DF857305A
:10410000037913445B108DF8583001F08DF8237853
:104110009DF855105A1F53425341021E18BF0122E9
:1041200042EA430200238DF85A309DF854308DF84E
:1041300059200B449DF8561028460B449DF8571003
:104140000B449DF858100B441A448DF85B200A2349
:10415000082215A9FDF7C8FDFDF794F8654D2B68F9
:10416000C01A95287ED9FDF78DF8634B28601B682F
:10417000DB689B0476D5DFF884A1DFF88491BAF878
:10418000000000B2FCF794FD464B1968FCF7E4FD13
:104190000746B9F8000000B2FCF78AFD424B1968E7
:1041A000FCF7DAFD4FF07E5105463846FCF790FFEC
:1041B000002840F0FF8138465249FCF76BFF00B100
:1041C000504F4FF07E512846FCF782FF002840F008
:1041D000F48128464B49FCF75DFF00B1494DBAF820
:1041E00000A038460FFA8AF30D93FCF707F98246D0
:1041F00028468B46FCF702F92A4BCDE90E01586898
:10420000FCF7FCF802460B462749CDE91023486825
:10421000FCF7F4F8DDE9102327783B4D052F14BF98
:104220004D274127B9F800902D780FFA89F9C5F389
:104230004005CDE90801CDE90623DDE90E23602123
:10424000CDE90423CDE90A57CDE902AB0D9B2F4AF6
:10425000CDF8009015A802F07DF8011E02DD15A82A
:10426000FDF78EFFFDF70EF8294D2B68C01AB0F54B
:10427000FA7F55D3FDF706F82860264D2B78002BE2
:104280004ED0FCF7FFFF244B1B68C01AB0F5FA5F55
:1042900046D900234FF4FA5120482B7001F0EAFF71
:1042A0003EE000BFFC04002098040020280000200D
:1042B0004AB5000814000020D4020020CDA6000852
:1042C00008000020080600209A99193FD00200201B
:1042D000D1A600080E040020B00500200010014007
:1042E000680500206405002071B50008C8020020A0
:1042F00060060020C4020020A806002070050020EF
:104300006E050020000080BF6D050020C5B50008C7
:10431000C0020020E0020020DC02002002B60008FB
:10432000FCF7B0FFD8F80030984280F049810022B5
:104330004FF40051B348FDF7FBF8FEF75BBE4FF4B6
:104340007A71B148DFF8C4B200F082FD0021AE48B6
:1043500000F06CFD584600F06CFF012803D19BF87B
:104360000530012B0BD0A94800F0BCFEA021A748C6
:1043700000F082FE40F6C411A44800F069FD40F64A
:10438000B8339F427FF6AEAC03238AF80030C9F8F9
:104390000050A7E44FF47A719B48DFF870B200F048
:1043A00057FD0121984800F041FD584600F041FFBB
:1043B000012803D19BF80530012B0BD0934800F066
:1043C00091FEA021914800F057FE40F6C4118F489D
:1043D00000F03EFD40F6B8339F427FF683AC0423E5
:1043E0003FE43846FCF760FC8949FCF769FD8949E0
:1043F000FCF7B2FCFCF79CFEC0F51C610431B1F582
:104400007A7F38BF4FF47A71DFF800B27E480D91A1
:1044100000F01EFD9BF805300D99012B06D1584682
:1044200000F060FE584600F05DFD0D99774800F001
:104430000FFD794B1A68AA1AB2F5FA7F15D972489E
:104440001D604178B1FA81F1490900F0EFFC724B2F
:104450001B68EB1AB3F57A7F07D99BF801106B48FC
:10446000B1FA81F1490900F0E1FCB7F57A6F7FF606
:1044700039AC052389E7644D41F28831284600F0C4
:10448000E7FC41F28831614800F0E2FC0021284657
:1044900000F0CCFC01215D4800F0C8FCB7F5FA6FD4
:1044A0007FF620AC5D4801F04DFF00235C4A5D487B
:1044B00023701560C9F800308AF8003001F042FF1F
:1044C0005948FFF797BA00238AF80030C9F800303E
:1044D00008E4CCF800004EE44FF07E50A2E44FF028
:1044E0007E50ABE4FBF78AFFCDE902012846FBF7DB
:1044F00085FF4E4ACDE9000116211EA801F02AFFD2
:10450000C7E42D224A4BD6E440494A4B09794A4D2B
:104510009BF80420002908BF1D46474916A8002A19
:1045200018BF0B461021454A01F014FF2B461021FD
:10453000434A1AA801F00EFF9BF8043043BB002346
:104540002F93324B1B7933BB002330933D4B162105
:104550001B683D4A38331EA801F0FCFE3B4A182177
:104560003B4B0DF18E0001F0F5FEFCF78BFE159B29
:104570000293FBF721FF0022364BFCF7C1F8364AC5
:10458000CDE9000116210DF1A60001F0E3FEB7E42C
:104590004FF07C53D4E74FF07C53D6E72B68002BC9
:1045A0003FF48FAD2B68C01AB0F5FA6F7FF689AD76
:1045B0002A4873E54FF07E5703E64FF07E550EE62E
:1045C000FCF760FE264D2B68C01AB0F5FA7F7EF628
:1045D00011ADFCF757FE28600B4800F02AFE0028BA
:1045E0007EF408AD094800F024FE00287EF402ADF8
:1045F00000F180404FF4005100F58830FCF79DFF3A
:10460000FEF7F8BC0010014008060020B0050020AD
:1046100000007A450080BB44A405002049B400088E
:104620004000002067B4000886B40008FDB400080C
:104630000AA7000819A700081EA7000823B500084C
:104640002AB500083C00002031B5000838B5000844
:10465000FA03002000408F403EB5000893B50008E3
:10466000BC02002073B50C46054600212046FCF72D
:1046700011FD70BB4FF07E512046FCF729FD08B1BB
:104680004FF07E5420461449FCF766FB4FF07C51F6
:10469000FCF75AFAFCF74CFD0126294607233E2277
:1046A000C4B20096402000F0EEFA00233544EDB28B
:1046B00000933C2205232946412000F0E4FA34B15E
:1046C0000523224629464120009600F0DCFA02B07C
:1046D00070BD0020D7E700BF0000704200F010BAA4
:1046E00000F000BA10B5044600F0FCF9002844D0F0
:1046F000002C42D000F0FCF90021012308461F4A9B
:1047000000F098FA012307227F21002000F0A4FA8C
:10471000221D01230821002000F08CFAA16E082040
:10472000FFF7A0FF04F1140201231021002000F084
:1047300081FAE16E1020FFF795FF04F124020123B6
:104740001821002000F076FA04F13A02012320211A
:10475000002000F06FFA04F152020123282100200A
:1047600000F068FA04F1700201233021002000F00B
:1047700061FABDE8104000F0A7BA10BD6CB60008A1
:10478000002382B00193019B132B01D902B0704723
:10479000019B0133F6E7000001224FF480710148CC
:1047A000FCF7C6BE000C014001224FF40071014825
:1047B000FCF7BEBE000C014000224FF4007101481E
:1047C000FCF7B6BE000C014008B5FFF7F5FFFFF798
:1047D000D7FFFFF7E1FFFFF7D3FFFFF7E5FFBDE8E6
:1047E0000840FFF7CDBF000000224FF48071014860
:1047F000FCF79EBE000C014008B5FFF7D5FFFFF7A0
:10480000BFFFFFF7C9FFFFF7BBFFFFF7D5FFFFF7BC
:10481000B7FFFFF7E9FFBDE80840FFF7B1BF0000B1
:1048200038B504460825230625D5FFF7BDFFFFF759
:10483000A7FF6400FFF7B0FFFFF7A2FFFFF7D4FF69
:10484000FFF79EFF013DE4B2EDD1FFF7ADFFFFF7AB
:1048500097FFFFF7A1FF4FF400710848FFF790FFA3
:10486000FCF760FE0446FFF7BFFFFFF789FF201E3D
:1048700018BF012038BDFFF79FFFD8E7000C0140AB
:1048800038B50C4B05461B789BB10B4B1C8884B18B
:104890006400FFF7B1FF04F0FE00FFF7C1FF002046
:1048A000FFF7BEFF2846FFF7BBFFBDE83840FFF724
:1048B0008BBF38BDCA070020C807002008B5AE204E
:1048C000FFF7DEFF0220FCF7E3FC2020FFF7D8FF14
:1048D0000220FCF7DDFC0020FFF7D2FF0220FCF7EE
:1048E000D7FC2120FFF7CCFF0220FCF7D1FC0020F1
:1048F000FFF7C6FF0220FCF7CBFC7F20FFF7C0FFCD
:104900000220FCF7C5FC2220FFF7BAFF0220FCF7CB
:10491000BFFC0020FFF7B4FF0220FCF7B9FC072022
:10492000FFF7AEFF0220FCF7B3FCB020FFF7A8FFB3
:104930000220FCF7ADFCC820FFF7A2FF0220FCF725
:10494000A7FC0020FFF79CFF0220FCF7A1FC102031
:10495000FFF796FF0220FCF79BFC4020FFF790FF3B
:104960000220FCF795FC8120FFF78AFF0220FCF76C
:104970008FFCCF20FFF784FF0220FCF789FCA120E9
:10498000FFF77EFF0220FCF783FCA620FFF778FFED
:104990000220FCF77DFCA820FFF772FF0220FCF745
:1049A00077FC3F20FFF76CFF0220FCF771FCD3205F
:1049B000FFF766FF0220FCF76BFC0020FFF760FFAB
:1049C0000220FCF765FCD520FFF75AFF0220FCF718
:1049D0005FFC8020FFF754FF0220FCF759FCD92030
:1049E000FFF74EFF0220FCF753FCF120FFF748FFD2
:1049F0000220FCF74DFCDA20FFF742FF0220FCF713
:104A000047FC1220FFF73CFF0220FCF741FCDB20B3
:104A1000FFF736FF0220FCF73BFC4020FFF730FF9A
:104A20000220FCF735FC8D20FFF72AFF0220FCF75F
:104A30002FFC1420FFF724FF0A20FCF729FCAF20ED
:104A4000FFF71EFFBDE808400A20FCF721BC00006C
:104A50002DE9F047B0241F4D1F4EDFF88080DFF8AE
:104A6000809080223146284601F00CFE40B320465B
:104A7000FFF706FF0020FFF703FF1020FFF700FFFE
:104A800098F80030BBB1B9F80070A7B1FFF7B4FED9
:104A9000780000F0FE00FFF7C3FE4020FFF7C0FEE5
:104AA0006F1E05F17F0A17F8010FFFF7B9FE574592
:104AB000F9D1FFF789FE80222946304601F0ADFE8C
:104AC0000134E4B2B82C05F1800506F18006C8D1A6
:104AD000BDE8F087CB0B0020CB070020CA070020E1
:104AE000C8070020014B1878704700BFCA07002094
:104AF0004FF480620021014801F0D4BDCB0B0020AF
:104B00007FB50023234D244C4FF440722B7023803B
:104B100011230121CDE9002303232048CDE902130D
:104B20006946FCF72BFCFFF737FEFFF73DFE32200E
:104B3000FCF7AEFBFFF760FE7820FFF771FE06463C
:104B4000FFF742FE012E1ED1FFF756FE7A20FFF737
:104B500067FE0646FFF738FE012E16D03D23238060
:104B600001240A202C70FCF793FBFFF7A7FE4FF4FB
:104B70008062FF210A4801F095FDFFF7B9FFFFF7BA
:104B800067FF204604E03C23E9E720880028E7D1BE
:104B900004B070BDCA070020C8070020000C014007
:104BA000CB070020030630B50ED43F290CD80124D2
:104BB000CB08074D00EBC31001F007012B5C04FA92
:104BC00001F112B10B432B5430BD23EA0103FAE784
:104BD000CB0B00202DE9F04714461A46A4F1200320
:104BE0005E2B88BF3F2406460F460025104B203C15
:104BF00004EB84041C444FF0000806EB050914F88C
:104C000005A05FFA89F94AFA08F3DB0705D507EB37
:104C100008014846C9B2FFF7C5FF08F10108B8F11D
:104C2000070FF0D10135052DE5D1BDE8F08700BFB4
:104C30009CBB0008F8B505460E461F461AB1541E27
:104C400014F8012F02B9F8BD28463B463146063517
:104C5000FFF7C0FFEDB2F3E7814270B51646054697
:104C60000C461A4601D304460D46A54200D270BD3B
:104C7000230605D43F2E03D831462046FFF792FF86
:104C80000134E4B2F1E72DE9F84380460C465E18A2
:104C900017189DF82090F6B2FFB2B44211D04546E5
:104CA0000AE02B0606D43F2C04D84A462146284663
:104CB000FFF778FF0135EDB2BD42F2D10134E4B225
:104CC000EBE7BDE8F883000038B51A4B1B7883B3D7
:104CD0004FF08053184DC5F88030BFF34F8FBFF3AE
:104CE0006F8F4FF00053C5F88030BFF34F8FBFF385
:104CF0006F8F124B1C88FFF77FFD6400E4B22046E3
:104D0000FFF78EFD0446FFF75FFD012C09D1FFF789
:104D1000D5FD4FF48062FF21094801F0C3FCFFF785
:104D2000E7FEFFF795FE4FF080532B604FF00053E6
:104D30002B6038BDCA07002000E100E0C807002052
:104D4000CB07002038B504460D4601F00102018B67
:104D50004069FCF7EDFB218CE069C5F34002FCF7EC
:104D6000E7FB218D606AC5F38002FCF7E1FB218E31
:104D7000E06AC5F3C002BDE83840FCF7D9BB0000CB
:104D8000F8B5054616460C465722002101301F464D
:104D900001F088FC01232B704FF4FA53AB604FF401
:104DA00080636E632B613CB10FCC05F114060FC616
:104DB00094E80F0086E80F0005F1380427B10722B8
:104DC0003946204601F088FC28460021FFF7BAFF4B
:104DD0002146BDE8F840014801F04CBA7DB6000814
:104DE00038B500230D46044683714B1E012B01701C
:104DF0008CBF03210121FFF7A5FF012D04F138012C
:104E000009D0064A064B022D08BF1A46BDE83840B5
:104E1000044801F02FBA044AF8E700BF9AB6000828
:104E2000B4B60008C6B60008A7B60008054A064B87
:104E30004170002918BF1A4600F13801034801F0FB
:104E400019BA00BFD0B60008DFB60008C6B6000821
:104E500044F6206399420A4628BF1A4641F2883335
:104E60009A4238BF1A4610B4446B82602368D968EE
:104E700021F00101D960511ED962E160D96810BCEE
:104E800041F00101D96000F13801014801F0F2B9A7
:104E9000EFB6000830B544F62065A94228BF294680
:104EA00041F288348368A1422CBFC3EB0102C3EBFB
:104EB00004020B498A42B8BF0A4640F6B8318A421A
:104EC000D4BF9B185B18AB4228BF2B46A34238BF08
:104ED0002346426B83601168013BCB62D36030BDD7
:104EE00048F4FFFF72B6037983B9082344F62062C1
:104EF00080F84030836803EB4303934228BF134696
:104F0000426B43641168013BCB62D3600023C360F2
:104F10000123838062B600F13801014801F0AAB98B
:104F200001B700080A4610B472B640F20133C164FA
:104F300000218380836CC160D31A8B421CDD4170D9
:104F400090F8403083B9082344F6206180F840305F
:104F5000836803EB43038B4228BF0B46416B4364DA
:104F60000C68013BE362CB6062B6836C00F13801F0
:104F700010BC034801F07EB91CBF01234370DFE77A
:104F800015B70008134672B6C0E9141262B60A4695
:104F900000F13801014801F06DB900BF3EB70008CB
:104FA00072B60023C0E9123362B600F1380101483D
:104FB00001F060B961B700080A4672B60223C16009
:104FC000838062B600F13801014801F053B900BF97
:104FD00075B70008F7B50D4603780446012B4FF06E
:104FE0000001284614BF4FF400674FF48057FCF7C8
:104FF00051F8002835D005F100401B49FBF760FF50
:1050000006463846FBF750FE01463046FBF7A4FE45
:10501000FCF78EF8064672B663780021A370284626
:10502000FCF738F80123003818BF0120E370032390
:105030006070E660A38062B62846FBF7DFF904F1F2
:1050400038070A4A64780A4B002C08BF1346024608
:10505000CDE9006307480B46394601F00BF903B070
:10506000F0BD2846C9E700BF0000B44385B700087B
:1050700084B7000888B70008B1F5B47F2DE9F04186
:1050800005460C4627D8002908BF5A242B7820460D
:10509000012B14BF4FF400674FF48057FBF704FE59
:1050A0000E49FBF70DFF06463846FBF7FDFD0146AE
:1050B0003046FBF751FEFCF73BF840F20112AA80A4
:1050C000C5E903000346620805F138010448BDE85C
:1050D000F04101F0CFB84FF4B474D7E70000B44307
:1050E000AEB7000872B60023C360838062B600F1D9
:1050F0003801014801F0BEB8D7B7000810B50379F0
:1051000004462BB34379012B1BD1C368002B06DC6B
:105110004378B3FA83F35B0943700369C360237870
:10512000012B34D0022B4FF0040233D13A4960787E
:10513000A37988BB0133B3FBF2F002FB1033DBB27F
:105140002EE0032BEBD1D0E912239B1A01D103717E
:1051500010BD016D09B9406D98B1002BD4BF4FF05F
:10516000FF3001200244914202DC616D914208DA75
:105170000023237104F138012848BDE8104001F0F4
:1051800079B8002BCCBF002301236370C7E7082246
:105190002349CCE72349CAE7002B38D1013AD3B2DF
:1051A000A371C95C2046FFF7CDFD6278A36C002A8D
:1051B0002FD10133A364E368002B0BDD013BE360D7
:1051C00043B96279012A05D0E278237112B1A2783D
:1051D000E370627094F84030002BB9D0013BDBB231
:1051E000D3F1080284F84030B2D0636CA1689942D0
:1051F0002FBF0B46581A4243A3EBD2038B4238BF52
:105200000B46626B013B1068C362D360A0E7013BB1
:1052100095E7013BCEE700BF77BD0008F4B7000873
:105220007FBD00087BBD00080079003818BF012051
:10523000704700797047806C7047000070B5044675
:105240008EB0264D03AB95E8070083E80700244B9A
:1052500006AE0193234B029305F10C031C350FCBD3
:1052600086E80F0095E80F000EAD05E90F0004F188
:1052700038011D4800F0FEFF23781C4805EB83032E
:1052800053F82C1C00F0F6FF6378194805EB8303F4
:1052900053F8341C00F0EEFF2379164805EB830326
:1052A00053F8201C00F0E6FF6379134805EB8303F5
:1052B00053F8101C00F0DEFFA168104800F0DAFF80
:1052C000A1790F4800F0D6FFE1680E4800F0D2FF48
:1052D0000D480EB0BDE8704001F034B8A0A500083C
:1052E0001CB800082AB8000839B8000863B80008DC
:1052F00078B800088DB80008A2B80008B7B8000850
:10530000D4B80008E9B80008FDA900080A22002165
:1053100000F07CB8242B2DE9F0478646904601D852
:10532000012B06D101F036FA162303600020BDE8F8
:10533000F0870D4633482A4615F8014B065D16F0F6
:105340000806F8D12D2C10D101262C78951C33F0AD
:10535000100215D1302C0DD12A7802F0DF02582A24
:1053600008D16C78023510230AE02B2C04BF2C786E
:10537000951CECE7002BF6D1302C14BF0A23082330
:10538000002206F1004C0CF1FF3CBCFBF3F9104687
:1053900003FB19CAA4F13007092F0FD83C46A342DA
:1053A0001BDD571C07D0814514D301D1A24511DB69
:1053B000012200FB034015F8014BEBE7A4F1410784
:1053C000192F01D8373CEAE7A4F16107192F04D857
:1053D000573CE4E74FF0FF32EDE7531C08D122239E
:1053E0006046CEF80030B8F1000FA0D0691E06E08C
:1053F00006B14042B8F1000F99D0002AF6D1C8F8A2
:10540000001094E788BD0008FFF784BF13460A46E2
:10541000014602480068FFF77DBF00BF540000202E
:10542000002B2DE9F0471D46BBBF03F100431D468D
:1054300000232D2388B01446B8BF1446129A109E3C
:105440001370149BDDF84CA023F02008B8F1460F30
:1054500005D0B8F1450F00D10136022300E0032347
:1054600007AA049206AACDE902A2CDE90036224697
:105470002B4601F06DFAB8F1470F074619D1119B81
:10548000DB070ED500EB0609002200232046294643
:10549000FBF774FA08B1CDF81C903022079B4B45FE
:1054A0001ED33846079B159ADB1B136008B0BDE876
:1054B000F087B8F1460F00EB0609E5D10378302BF1
:1054C0000AD10022002320462946FBF757FA18B9D3
:1054D000C6F10106CAF80060DAF800309944D3E753
:1054E000591C07911A70D9E7F7B50029B6BF2D23CB
:1054F0002B23494209290270437029DD0DF107046D
:1055000025460A27B1FBF7F6224607FB1613303370
:1055100002F8013C0B46632B314604F1FF34F1DC09
:105520003031931E04F8011C1C46411CAB420AD3C7
:105530000DF109039B1AA54238BF0023821C1344B6
:10554000181A03B0F0BD13F8016B01F8016FEDE715
:10555000302330318370C170031DF1E72DE9F04F26
:1055600091B00C46DDF8688016461F46054601F0EE
:10557000C7F8036818460A93FAF7D4FD00230E9380
:10558000D8F8003094F818A0073323F00703F3E8A5
:105590000212D4F800B0CDE90812C8F80030134662
:1055A0000A46C4E91223DDE9088323F000490B9081
:1055B0004FF0FF32404649469B4BFBF711FA70BB58
:1055C0004FF0FF3240464946974BFBF7EBF930BBB3
:1055D000DDE9080100220023FBF7DAF910B12D23E1
:1055E00084F84330914A924BBAF1470F8CBF9046F2
:1055F000984603234FF0000923612BF00403236036
:1056000033462146284600970FAA00F0D3F901300F
:1056100040F08F804FF0FF3011B0BDE8F08FDDE932
:10562000082310461946FBF7DBF940B1099B814A74
:10563000002BBCBF2D2384F843307F4BD4E7636835
:105640000AF0DF095A1C3ED10623636000224BF4A6
:105650008063236006920EAACDE904A20DAA0392EC
:105660000DF13302CDE90132636828460093DDE98C
:105670000823FFF7D5FEB9F1470F80460D9929D1D0
:10568000C81C02DB63688B4241DAAAF1020A5FFAA6
:105690008AFA5246013904F150000D91FFF724FFB8
:1056A0000E9A81461318012A236102DC2268D20770
:1056B00001D5013323619DF83330002BA0D02D2379
:1056C00084F843309CE7B9F1470FBFD1002BBDD11F
:1056D0000123BAE7BAF1650FDBD9BAF1660F18D129
:1056E000002963680BDD216113B92268D00702D558
:1056F00001330B4423614FF00009A165DBE713B9C7
:105700002268D20701D50233F4E70123F2E74FF014
:10571000670A0E9B8B4205DC23682161D807EAD516
:105720004B1CE7E70029CCBF0122C1F10202134460
:10573000E0E723685A0507D42369424631462846E4
:10574000B84701302BD165E7BAF1650F40F2DC8034
:10575000D4E9120100220023FBF710F9002833D00E
:10576000012331462846354AB84701303FF452AF4D
:10577000DDE90D38434502DB2368D8070FD5DDE9A5
:105780000A2331462846B84701303FF443AF4FF073
:10579000000908F1FF3804F11A0AC84509DC23683A
:1057A0009B0700F10281E0680F9B9842B8BF184642
:1057B00032E70123524631462846B84701303FF4CC
:1057C00029AF09F10109E8E70D9B002B38DC012323
:1057D00031462846194AB84701303FF41BAFDDE98E
:1057E0000D3959EA030302D12368D907D7D5DDE97A
:1057F0000A2331462846B84701303FF40BAF4FF03B
:10580000000A04F11A0B0D9B5B42534501DC4B4629
:1058100093E701235A4631462846B84701303FF402
:10582000F9AE0AF1010AEEE7FFFFEF7F53B9000876
:105830004FB900085BB9000857B90008FBB400086D
:10584000A36DDDF838A05345A8BF5346002B9946F9
:1058500036DC4FF0000B29EAE97904F11A02A36D56
:105860000893A3EB09035B4531DC0D9B9A453ADCB9
:105870002368DA0737D40D9BAAEB0309089BAAEB30
:1058800003039945A8BF9946B9F1000F33DC4FF0E7
:10589000000829EAE97904F11A0B0D9BAAEB03032E
:1058A000A3EB090343457FF77AAF01235A463146FC
:1058B0002846B84701303FF4ADAE08F10108ECE7E7
:1058C000424631462846B8470130C2D1A2E60123FC
:1058D000314628460892B84701303FF49BAE089AFB
:1058E0000BF1010BBBE73146DDE90A232846B84737
:1058F0000130C0D18EE6089A4B46314628464244D4
:10590000B8470130C3D185E6DDF838A0BAF1010F00
:1059100001DCDB0736D50123424631462846B8472D
:1059200001303FF477AEDDE90A2331462846B84717
:1059300001303FF46FAED4E91201002200230AF1D6
:10594000FF3AFBF71BF8C0B9534608F10102314694
:105950002846B84701300CD15CE601235A4631464F
:105960002846B84701303FF455AE08F10108D0454C
:10597000F3DB4B4604F15002E0E64FF0000804F17F
:105980001A0BF4E701234246E1E701234A46314678
:105990002846B84701303FF43DAE08F10108E368FE
:1059A0000F995B1A4345F0DCFDE64FF0000804F167
:1059B0001909F4E72DE9F047164698468A680B69FD
:1059C00007469342B8BF1346336091F843200C4614
:1059D000DDF820900AB1013333602368990642BF95
:1059E000336802333360256815F0060506D104F1EB
:1059F000190AE36832689B1AAB422BDC94F84330F7
:105A00002268003B18BF0123920630D44146384635
:105A100004F14302C847013023D02368226903F010
:105A20000603042B14BF002533684FF0000608BF9F
:105A3000E56804F11A0408BFED1A54F8123C08BFD7
:105A400025EAE5759342C4BF9B1AED18B5421AD1F9
:105A5000002008E00123524641463846C84701303D
:105A600003D14FF0FF30BDE8F0870135C1E73020AA
:105A7000E11881F843005A1C94F84510224402337F
:105A800082F84310C2E70123224641463846C84700
:105A90000130E6D00136D9E72DE9FF470F7E914668
:105AA000782F80460C469A460C9E01F1430207D897
:105AB000622F0AD8002F00F0D280582F00F0B78054
:105AC00004F1420684F842703AE0A7F16303152B13
:105AD000F6D801A151F823F0315B0008455B0008BE
