:020000040800F2
:100000000050002075A50008BDA50008ED350008CA
:10001000BDA50008BDA50008BDA5000800000000A2
:10002000000000000000000000000000BDA5000866
:10003000BDA5000800000000BDA50008E9350008C6
:10004000BDA50008BDA50008BDA50008BDA5000808
:10005000BDA50008BDA50008BDA50008BDA50008F8
:10006000BDA50008BDA50008BDA50008BDA50008E8
:10007000BDA50008BDA50008BDA50008BDA50008D8
:10008000BDA50008BDA50008BDA50008BDA50008C8
:10009000BDA50008BDA50008BDA50008BDA50008B8
:1000A000BDA50008BDA50008BDA50008BDA50008A8
:1000B000153300083D330008BDA50008BDA50008A4
:1000C000BDA50008BDA50008BDA50008BDA5000888
:1000D000BDA5000865330008C9330008D134000805
:1000E000BDA50008BDA50008BDA5000800000000D2
:1000F0000000000000000000000000000000000000
:0C01000000000000000000005FF808F1A3
:1001100010F8012B11F8013B012A28BF9A42F7D0B1
:10012000D01A7047034613F8012B002AFBD1181A86
:100130000138704781F0004102E000BF83F00043C6
:1001400030B54FEA41044FEA430594EA050F08BF72
:1001500090EA020F1FBF54EA000C55EA020C7FEA36
:10016000645C7FEA655C00F0E2804FEA5454D4EBB3
:100170005555B8BF6D420CDD2C4480EA020281EA7D
:10018000030382EA000083EA010180EA020281EAB5
:100190000303362D88BF30BD11F0004F4FEA013107
:1001A0004FF4801C4CEA113102D0404261EB410116
:1001B00013F0004F4FEA03334CEA133302D052429C
:1001C00063EB430394EA050F00F0A780A4F1010458
:1001D000D5F1200E0DDB02FA0EFC22FA05F2801892
:1001E00041F1000103FA0EF2801843FA05F3594178
:1001F0000EE0A5F120050EF1200E012A03FA0EFCF7
:1002000028BF4CF0020C43FA05F3C01851EBE37120
:1002100001F0004507D54FF0000EDCF1000C7EEB3D
:1002200000006EEB0101B1F5801F1BD3B1F5001F7B
:100230000CD349085FEA30004FEA3C0C04F101049A
:100240004FEA445212F5800F80F09A80BCF1004FC3
:1002500008BF5FEA500C50F1000041EB045141EA45
:10026000050130BD5FEA4C0C404141EB0101013C0E
:1002700028BFB1F5801FE9D291F0000F04BF0146FD
:100280000020B1FA81F308BF2033A3F10B03B3F1CF
:1002900020020CDA0C3208DD02F1140CC2F10C025F
:1002A00001FA0CF021FA02F10CE002F11402D8BFBD
:1002B000C2F1200C01FA02F120FA0CFCDCBF41EA89
:1002C0000C019040E41AA2BF01EB0451294330BD58
:1002D0006FEA04041F3C1CDA0C340EDC04F1140435
:1002E000C4F1200220FA04F001FA02F340EA03000C
:1002F00021FA04F345EA030130BDC4F10C04C4F152
:10030000200220FA02F001FA04F340EA0300294631
:1003100030BD21FA04F0294630BD94F0000F83F47B
:10032000801306BF81F480110134013D4EE77FEA5E
:10033000645C18BF7FEA655C29D094EA050F08BFAA
:1003400090EA020F05D054EA000C04BF194610468B
:1003500030BD91EA030F1EBF0021002030BD5FEACF
:10036000545C05D14000494128BF41F0004130BDF7
:1003700014F580043CBF01F5801130BD01F000454B
:1003800045F0FE4141F470014FF0000030BD7FEABE
:10039000645C1ABF194610467FEA655C1CBF0B46B9
:1003A000024650EA013406BF52EA033591EA030FD0
:1003B00041F4002130BD00BF90F0000F04BF0021C8
:1003C000704730B54FF4806404F132044FF00005FB
:1003D0004FF0000150E700BF90F0000F04BF002174
:1003E000704730B54FF4806404F1320410F00045DA
:1003F00048BF40424FF000013EE700BF42004FEAD5
:10040000E2014FEA31014FEA02701FBF12F07F4351
:1004100093F07F4F81F06051704732F07F4208BF08
:10042000704793F07F4F04BF41F40021704730B50F
:100430004FF4607401F0004521F000411CE700BF5B
:1004400050EA010208BF704730B54FF000050AE0DE
:1004500050EA010208BF704730B511F0004502D5DF
:10046000404261EB41014FF4806404F132045FEAE1
:10047000915C3FF4D8AE4FF003025FEADC0C18BF8A
:1004800003325FEADC0C18BF033202EBDC02C2F17C
:10049000200300FA03FC20FA02F001FA03FE40EA0E
:1004A0000E0021FA02F11444BDE600BF70B54FF012
:1004B000FF0C4CF4E06C1CEA11541DBF1CEA1355F0
:1004C00094EA0C0F95EA0C0F00F0DEF82C4481EA58
:1004D000030621EA4C5123EA4C5350EA013518BF78
:1004E00052EA033541F4801143F4801338D0A0FB65
:1004F00002CE4FF00005E1FB02E506F00042E0FB12
:1005000003E54FF00006E1FB03569CF0000F18BF17
:100510004EF0010EA4F1FF04B6F5007F64F54074BF
:1005200004D25FEA4E0E6D4146EB060642EAC62152
:1005300041EA55514FEAC52040EA5E504FEACE2EBF
:10054000B4F1FD0C88BFBCF5E06F1ED8BEF1004FC2
:1005500008BF5FEA500E50F1000041EB045170BD3E
:1005600006F0004646EA010140EA020081EA030182
:10057000B4EB5C04C2BFD4EB0C0541EA045170BD7E
:1005800041F480114FF0000E013C00F3AB8014F1F8
:10059000360FDEBF002001F0004170BDC4F1000441
:1005A000203C35DA0C341BDC04F11404C4F12005C2
:1005B00000FA05F320FA04F001FA05F240EA02001D
:1005C00001F0004221F0004110EBD37021FA04F653
:1005D00042EB06015EEA430E08BF20EAD37070BD0D
:1005E000C4F10C04C4F1200500FA04F320FA05F06C
:1005F00001FA04F240EA020001F0004110EBD3706E
:1006000041F100015EEA430E08BF20EAD37070BDDD
:10061000C4F1200500FA05F24EEA020E20FA04F3B6
:1006200001FA05F243EA020321FA04F001F0004165
:1006300021FA04F220EA020000EBD3705EEA430ED6
:1006400008BF20EAD37070BD94F0000F0FD101F005
:100650000046400041EB010111F4801F08BF013C3E
:10066000F7D041EA060195F0000F18BF704703F07C
:100670000046520043EB030313F4801F08BF013D03
:10068000F7D043EA0603704794EA0C0F0CEA1355BF
:1006900018BF95EA0C0F0CD050EA410618BF52EA79
:1006A0004306D1D181EA030101F000414FF000007F
:1006B00070BD50EA410606BF1046194652EA43068D
:1006C00019D094EA0C0F02D150EA013613D195EA01
:1006D0000C0F05D152EA03361CBF104619460AD149
:1006E00081EA030101F0004141F0FE4141F4700153
:1006F0004FF0000070BD41F0FE4141F4780170BD43
:1007000070B54FF0FF0C4CF4E06C1CEA11541DBFA7
:100710001CEA135594EA0C0F95EA0C0F00F0A7F8A9
:10072000A4EB050481EA030E52EA03354FEA0131D6
:1007300000F088804FEA03334FF0805545EA1313E9
:1007400043EA12634FEA022245EA111545EA1065B1
:100750004FEA00260EF000419D4208BF964244F148
:10076000FD0404F5407402D25B084FEA3202B61A67
:1007700065EB03055B084FEA32024FF480104FF43B
:10078000002CB6EB020E75EB030E22BFB61A7546AF
:1007900040EA0C005B084FEA3202B6EB020E75EB42
:1007A000030E22BFB61A754640EA5C005B084FEAAA
:1007B0003202B6EB020E75EB030E22BFB61A754677
:1007C00040EA9C005B084FEA3202B6EB020E75EB82
:1007D000030E22BFB61A754640EADC0055EA060E43
:1007E00018D04FEA051545EA16754FEA06164FEA86
:1007F000C30343EA52734FEAC2025FEA1C1CC0D132
:1008000011F4801F0BD141EA00014FF000004FF0BE
:10081000004CB6E711F4801F04BF01430020B4F17F
:10082000FD0C88BFBCF5E06F3FF6AFAEB5EB030C37
:1008300004BFB6EB020C5FEA500C50F1000041EB34
:10084000045170BD0EF0004E4EEA113114EB5C0401
:10085000C2BFD4EB0C0541EA045170BD41F48011D4
:100860004FF0000E013C90E645EA060E8DE60CEADC
:10087000135594EA0C0F08BF95EA0C0F3FF43BAFF9
:1008800094EA0C0F0AD150EA01347FF434AF95EAB0
:100890000C0F7FF425AF104619462CE795EA0C0F94
:1008A00006D152EA03353FF4FDAE1046194622E761
:1008B00050EA410618BF52EA43067FF4C5AE50EA3B
:1008C00041047FF40DAF52EA43057FF4EBAE12E72B
:1008D0004FF0FF3C06E000BF4FF0010C02E000BF0C
:1008E0004FF0010C4DF804CD4FEA410C7FEA6C5CEF
:1008F0004FEA430C18BF7FEA6C5C1BD001B050EA92
:10090000410C0CBF52EA430C91EA030F02BF90EA7C
:10091000020F0020704710F1000F91EA030F58BF3B
:10092000994208BF90422CBFD8176FEAE37040F09D
:10093000010070474FEA410C7FEA6C5C02D150EA3B
:10094000013C07D14FEA430C7FEA6C5CD6D152EAF6
:10095000033CD3D05DF8040B704700BF84461046BB
:1009600062468C461946634600E000BF01B5FFF7BA
:10097000B7FF002848BF10F1000F01BD4DF808ED8A
:10098000FFF7F4FF0CBF012000205DF808FB00BF5B
:100990004DF808EDFFF7EAFF34BF012000205DF8B5
:1009A00008FB00BF4DF808EDFFF7E0FF94BF012002
:1009B00000205DF808FB00BF4DF808EDFFF7CEFF03
:1009C00094BF012000205DF808FB00BF4DF808ED42
:1009D000FFF7C4FF34BF012000205DF808FB00BF13
:1009E0004FEA410C7FEA6C5C02D150EA013C0AD12B
:1009F0004FEA430C7FEA6C5C02D152EA033C02D11D
:100A00004FF0000070474FF0010070474FEA41027D
:100A100012F5001215D211D56FF47873B3EB625250
:100A200012D94FEAC12343F0004343EA505311F077
:100A3000004F23FA02F018BF404270474FF0000009
:100A4000704750EA013005D111F0004008BF6FF047
:100A5000004070474FF00000704700BF4A0011D2BD
:100A600012F5001211D20DD56FF47873B3EB625208
:100A70000ED44FEAC12343F0004343EA505323FA14
:100A800002F070474FF00000704750EA013002D189
:100A90004FF0FF3070474FF0000070474FEA4102BF
:100AA000B2F1E04324BFB3F5001CDCF1FE5C0DD9CC
:100AB00001F0004C4FEAC0024CEA5070B2F1004F16
:100AC00040EB830008BF20F00100704711F0804F19
:100AD00021D113F13872BCBF01F00040704741F4DE
:100AE00080114FEA5252C2F11802C2F1200C10FAE2
:100AF0000CF320FA02F018BF40F001004FEAC123C6
:100B00004FEAD32303FA0CFC40EA0C0023FA02F369
:100B10004FEA4303CCE77FEA625307D150EA01333F
:100B20001EBF4FF0FE4040F44000704701F000400F
:100B300040F0FE4040F40000704700BF80F00040ED
:100B400002E000BF81F0004142001FBF5FEA4103A5
:100B500092EA030F7FEA226C7FEA236C6AD04FEAA5
:100B60001262D2EB1363C1BFD218414048404140EA
:100B7000B8BF5B42192B88BF704710F0004F40F49C
:100B8000000020F07F4018BF404211F0004F41F4B8
:100B9000000121F07F4118BF494292EA030F3FD084
:100BA000A2F1010241FA03FC10EB0C00C3F1200397
:100BB00001FA03F100F0004302D5494260EB400026
:100BC000B0F5000F13D3B0F1807F06D340084FEA91
:100BD000310102F10102FE2A51D2B1F1004F40EB86
:100BE000C25008BF20F0010040EA030070474900EE
:100BF00040EB0000013A28BFB0F5000FEDD2B0FA8B
:100C000080FCACF1080CB2EB0C0200FA0CF0AABFAD
:100C100000EBC25052421843BCBFD040184370474B
:100C200092F0000F81F4000106BF80F40000013251
:100C3000013BB5E74FEA41037FEA226C18BF7FEA28
:100C4000236C21D092EA030F04D092F0000F08BF6A
:100C50000846704790EA010F1CBF0020704712F051
:100C60007F4F04D1400028BF40F00040704712F190
:100C700000723CBF00F50000704700F0004343F0F5
:100C8000FE4040F4000070477FEA226216BF08462B
:100C90007FEA23630146420206BF5FEA412390EAEE
:100CA000010F40F4800070474FF0000304E000BFE4
:100CB00010F0004348BF40425FEA000C08BF704795
:100CC00043F0964301464FF000001CE050EA010259
:100CD00008BF70474FF000030AE000BF50EA01026E
:100CE00008BF704711F0004302D5404261EB41015B
:100CF0005FEA010C02BF84460146002043F0B64380
:100D000008BFA3F18053A3F50003BCFA8CF2083AA4
:100D1000A3EBC25310DB01FA02FC634400FA02FCAD
:100D2000C2F12002BCF1004F20FA02F243EB0200B4
:100D300008BF20F00100704702F1200201FA02FC16
:100D4000C2F1200250EA4C0021FA02F243EB020009
:100D500008BF20EADC7070474FF0FF0C1CEAD0524D
:100D60001EBF1CEAD15392EA0C0F93EA0C0F6FD00E
:100D70001A4480EA010C400218BF5FEA41211ED0EC
:100D80004FF0006343EA501043EA5111A0FB0131D8
:100D90000CF00040B1F5000F3EBF490041EAD371AD
:100DA0005B0040EA010062F17F02FD2A1DD8B3F129
:100DB000004F40EBC25008BF20F00100704790F098
:100DC000000F0CF0004C08BF49024CEA502040EAEA
:100DD00051207F3AC2BFD2F1FF0340EAC2507047B0
:100DE00040F400004FF00003013A5DDC12F1190FEE
:100DF000DCBF00F000407047C2F10002410021FA60
:100E000002F1C2F1200200FA02FC5FEA310040F177
:100E1000000053EA4C0308BF20EADC70704792F0F0
:100E2000000F00F0004C02BF400010F4000F013A28
:100E3000F9D040EA0C0093F0000F01F0004C02BF23
:100E4000490011F4000F013BF9D041EA0C018FE792
:100E50000CEAD15392EA0C0F18BF93EA0C0F0AD098
:100E600030F0004C18BF31F0004CD8D180EA0100BE
:100E700000F00040704790F0000F17BF90F0004F57
:100E8000084691F0000F91F0004F14D092EA0C0F39
:100E900001D142020FD193EA0C0F03D14B0218BFCC
:100EA000084608D180EA010000F0004040F0FE4012
:100EB00040F40000704740F0FE4040F440007047AE
:100EC0004FF0FF0C1CEAD0521EBF1CEAD15392EA2D
:100ED0000C0F93EA0C0F69D0A2EB030280EA010C1D
:100EE00049024FEA402037D04FF0805343EA1111B6
:100EF00043EA10130CF000408B4238BF5B0042F114
:100F00007D024FF4000C8B4224BF5B1A40EA0C00B8
:100F1000B3EB510F24BFA3EB510340EA5C00B3EBEA
:100F2000910F24BFA3EB910340EA9C00B3EBD10FD8
:100F300024BFA3EBD10340EADC001B0118BF5FEA2A
:100F40001C1CE0D1FD2A3FF650AF8B4240EBC25053
:100F500008BF20F0010070470CF0004C4CEA502014
:100F60007F32C2BFD2F1FF0340EAC250704740F463
:100F700000004FF00003013A37E792F0000F00F055
:100F8000004C02BF400010F4000F013AF9D040EAD3
:100F90000C0093F0000F01F0004C02BF490011F467
:100FA000000F013BF9D041EA0C0195E70CEAD1535F
:100FB00092EA0C0F08D142027FF47DAF93EA0C0F46
:100FC0007FF470AF084676E793EA0C0F04D14B022A
:100FD0003FF44CAF08466EE730F0004C18BF31F0DC
:100FE000004CCAD130F000427FF45CAF31F00043D6
:100FF0007FF43CAF5FE700BF4FF0FF3C06E000BF6F
:101000004FF0010C02E000BF4FF0010C4DF804CD91
:101010004FEA40024FEA41037FEA226C18BF7FEAA1
:10102000236C11D001B052EA530C18BF90EA010FA3
:1010300058BFB2EB030088BFC81738BF6FEAE17032
:1010400018BF40F0010070477FEA226C02D15FEACE
:10105000402C05D17FEA236CE4D15FEA412CE1D03A
:101060005DF8040B704700BF844608466146FFE701
:101070000FB5FFF7C9FF002848BF10F1000F0FBDE3
:101080004DF808EDFFF7F4FF0CBF012000205DF8DC
:1010900008FB00BF4DF808EDFFF7EAFF34BF012061
:1010A00000205DF808FB00BF4DF808EDFFF7E0FFFA
:1010B00094BF012000205DF808FB00BF4DF808ED4B
:1010C000FFF7D2FF94BF012000205DF808FB00BFAE
:1010D0004DF808EDFFF7C8FF34BF012000205DF890
:1010E00008FB00BF4FEA4002B2F1FE4F0FD34FF0B2
:1010F0009E03B3EB12620DD94FEA002343F0004385
:1011000010F0004F23FA02F018BF404270474FF032
:101110000000704712F1610F01D1420205D110F0B9
:10112000004008BF6FF0004070474FF0000070476C
:1011300042000ED2B2F1FE4F0BD34FF09E03B3EB41
:10114000126209D44FEA002343F0004323FA02F06D
:1011500070474FF00000704712F1610F01D1420259
:1011600002D14FF0FF3070474FF00000704700BFD2
:101170000348044B834202D0034B03B11847704726
:101180001402002014020020000000000548064B55
:101190001B1AD90F01EBA301491002D0034B03B175
:1011A00018477047140200201402002000000000BD
:1011B00010B5064C237843B9FFF7DAFF044B13B19F
:1011C0000448AFF300800123237010BD14020020F7
:1011D00000000000C0A5000808B5054B1BB105497B
:1011E0000548AFF30080BDE80840FFF7CFBF00BF60
:1011F0000000000018020020C0A500087047000091
:1012000038B50E4B05461A784FF47A73B3FBF2F3F8
:101210000B4A1068B0FBF3F000F09CF8044658B994
:101220000F2D09D8024629464FF0FF3000F054F840
:101230002046044B1D6038BD0120FCE70000002063
:101240001002002004000020074A08B5136803209C
:1012500043F01003136000F02DF80F20FFF7D0FFCC
:10126000FFF7CCFF002008BD00200240034A044BDA
:1012700011681B780B441360704700BF30020020D8
:1012800000000020014B1868704700BF30020020AA
:1012900038B50446FFF7F6FF0546631C1EBF044B36
:1012A0001B78E418FFF7EEFF431BA342FAD338BDC7
:1012B0000000002007490302CA6803F4E06322F437
:1012C000E0621204120C134343F0BF6343F4003393
:1012D000CB60704700ED00E0154B30B5DC68C4F31F
:1012E0000224C4F10703251D042B28BF0423062D67
:1012F0004FF0FF3594BF0024033C05FA03F321EAC5
:101300000303A54022EA0502A340002843EA0203A2
:10131000ACBF00F16040074A4FEA0313DBB2ABBF3A
:1013200000F5614000F00F0080F80033135430BD29
:1013300000ED00E014ED00E0002807DB0123410987
:10134000034A00F01F00834042F82130704700BF7D
:1013500000E100E00138B0F1807F0BD24FF0E023D4
:10136000F021054A586182F8231000200722986175
:101370001A6170470120704700ED00E02DE9F74F3A
:1013800000244FF00F0E2646DFF884C1614B00F1B8
:1013900004080A6832FA06F502D103B0BDE8F08FFE
:1013A000012505FA06F702EA070537EA020276D1B7
:1013B0004A68032A07D8013A022A00F28380DFE84C
:1013C00002F091969C00122A00F0948069D8112AAC
:1013D00000F08A80FF2D94BF8146C1464FEA860205
:1013E000D9F8007088BF203A0EFA02FA27EA0A07F5
:1013F00004FA02F21743C9F80070D1F8049019F00A
:10140000805F4CD0DCF8182026F0030742F0010280
:10141000CCF81820DCF8182007F1804702F0010210
:10142000019207F5803706F0030A019A4FEA8A0A0B
:10143000BA680EFA0AFB22EA0B0B374A904260D0D8
:1014400002F5806290425ED002F5806290425CD0EC
:1014500002F58062904214BF0422032202FA0AF2CB
:1014600042EA0B02BA609A6819F4801F14BF2A433B
:10147000AA439A60DA6819F4001F14BF2A43AA43EA
:10148000DA605A6819F4003F14BF2A43AA435A602D
:101490001A6819F4803F14BF2A43AA431A60013620
:1014A00077E7DFF878904A450CD014D8A9F5801971
:1014B0004A4507D009F570294A4503D0A9F5801996
:1014C0004A4587D18A68D2B1012A4FF008040CBF7F
:1014D000076147617EE7DFF848904A45F2D009F599
:1014E0008039EDE7CC6875E7CC68043472E7CC68E6
:1014F00008346FE7CC680C346CE700246AE70424F6
:1015000068E70022AAE70122A8E70222A6E700BFB7
:1015100000100240000401400008014000002210B9
:101520000000311080680840003818BF0120704763
:101530000AB1016170470904FBE7C36801EA0302CD
:1015400021EA030141EA0241016170472DE9F341BB
:10155000054638B30368DB0710D42B689F075ED4B9
:101560002B68190700F195802B685A0700F1C1809C
:10157000EB69002B40F02C81002029E0904C63683F
:1015800003F00C03042B07D0636803F00C03082B53
:101590000AD16368DE0307D523689C03DDD56B6839
:1015A000002BDAD1012013E06B68B3F5803F12D134
:1015B000236843F480332360FFF764FE0646236804
:1015C0009803CAD4FFF75EFE801B6428F7D9032076
:1015D00002B0BDE8F0819BB9236823F48033236017
:1015E000236823F480232360FFF74CFE064623681C
:1015F0009903B2D5FFF746FE801B6428F7D9E6E7CA
:10160000B3F5A02F236803D143F480232360CFE7F1
:1016100023F480332360236823F48023CBE7684CD2
:10162000636813F00C0F07D0636803F00C03082BFA
:1016300010D16368DA030DD423689B0702D52B69A8
:10164000012BAFD123686A6923F0F80343EAC20390
:10165000236085E72A695B4B6AB101221A60FFF7B4
:1016600011FE064623689F07ECD4FFF70BFE801B94
:101670000228F7D9ABE71A60FFF704FE0646236895
:1016800098077FF56DAFFFF7FDFD801B0228F6D9A7
:101690009DE7AA694A4E4B4BE2B10122C3F8802470
:1016A000FFF7F0FD0446736A9B070DD54FF4FA521D
:1016B000454B1B68B3FBF2F3019300BF019B5A1E1D
:1016C0000192002BF9D14FE7FFF7DCFD001B022848
:1016D000E9D97CE7C3F88024FFF7D4FD0446736A98
:1016E0009F077FF541AFFFF7CDFD001B0228F6D91C
:1016F0006DE7334CE369D80024D40127E36943F054
:101700008053E361E36903F080530093009B2F4E05
:101710003368D90518D5EB68012B26D1236A43F02D
:1017200001032362FFF7AEFD41F288380646236AC3
:101730009B073FD5002F3FF41BAFE36923F0805395
:10174000E36115E70027E2E7336843F48073336011
:10175000FFF798FD80463368DA05DCD4FFF792FD89
:10176000A0EB08006428F6D931E7ABB9236A41F24F
:10177000883823F001032362236A23F004032362E1
:10178000FFF780FD0646236A9807D3D5FFF77AFD59
:10179000801B4045F7D91AE7052B236A03D143F094
:1017A00004032362BAE723F001032362236A23F0D0
:1017B0000403B6E7FFF766FD801B4045B7D906E78F
:1017C0000010024000004242100200200070004061
:1017D0002A4C626802F00C02082A3ED00022022B3A
:1017E000274B1A662CD1FFF74DFD06462368990159
:1017F00020D42B6AB3F5803F05D16268A96822F432
:1018000000320A436260696A62680B4322F4741210
:101810001343012263601A4B1A66FFF733FD054636
:1018200023689A013FF5A8AEFFF72CFD401B022864
:10183000F6D9CCE6FFF726FD801B0228D6D9C6E6EE
:10184000FFF720FD054623689B017FF595AEFFF766
:1018500019FD401B0228F6D9B9E6012B3FF4A2AED0
:1018600060682B6A00F480329A427FF49BAE6B6A08
:1018700000F47010C01A18BF0120A9E60010024041
:10188000000042420D4A536803F00C01082912D1AE
:101890000B48C3F38341DB03405C09D55368094A15
:1018A000C3F340435043084AD35CB0FBF3F07047A6
:1018B000064B584370470348704700BF0010024072
:1018C00012A6000800127A0010A6000800093D00C8
:1018D0002DE9F0410D46044610B90120BDE8F08124
:1018E000444A136803F007038B4228D321688E070C
:1018F00030D4CA0743D43F4A136803F00703AB420E
:1019000065D822683C4D12F0040F6CD1130706D540
:101910006B68226923F4605343EAC2036B60FFF7EC
:10192000B1FF6B68354AC3F30313D35CD840344B23
:101930001860344B1868FFF763FC0020CEE713688B
:1019400023F007030B431360136803F007038B4274
:10195000C3D1CBE7284B11F0040F1EBF5A6842F4E5
:10196000E0625A60080742BF5A6842F460525A6007
:101970005A68A06822F0F00202435A60B9E7626830
:101980001D4E012A33681AD113F4003FA5D07368A5
:1019900041F2883823F0030313437360FFF772FCAE
:1019A00007467368626803F00C03B3EB820FA2D0A2
:1019B000FFF768FCC01B4045F3D903208EE7022ADD
:1019C00002D113F0007FE1E713F0020FDEE71368A6
:1019D00023F007032B431360136803F00703AB42A4
:1019E0007FF47BAF8DE76B68E16823F4E0630B4322
:1019F0006B608BE7002002400010024018C0000816
:101A00001002002004000020044B054A5B68C3F369
:101A10000223D35C034A1068D8407047001002408C
:101A200010C0000810020020044B054A5B68C3F395
:101A3000C223D35C034A1068D840704700100240AC
:101A400010C00008100200207047000090F83D30E0
:101A5000012B1CD102230F4A80F83D3003689342CA
:101A60000AD0B3F1804F07D0A2F59432934203D04D
:101A700002F58062934204D19A6802F00702062AB6
:101A800003D01A6842F001021A600020704701205A
:101A9000704700BF002C0140174A036890420AD0EB
:101AA000B0F1804F07D0A2F59432904203D002F5F6
:101AB0008062904207D14A6823F070031343CA68DA
:101AC00023F4407313434A6923F0800313430360F4
:101AD0008B68C3620B688362074B984204BF0B6933
:101AE0000363012343610369DB0742BF036923F0FA
:101AF00001030361704700BF002C014010B504468C
:101B000030B390F83D3003F0FF021BB980F83C2061
:101B1000FFF79AFF0223206884F83D30211DFFF76C
:101B2000BBFF0123002084F8463084F83E3084F85F
:101B30003F3084F8403084F8413084F8423084F8F3
:101B4000433084F8443084F8453084F83D3010BD8B
:101B50000120FCE7026802F10C0353E8003F23F484
:101B600090730C3242E8003102680029F2D102F190
:101B7000140353E8003F23F0010302F1140C4CE876
:101B800000310029F3D1036B012B0BD102F10C03BF
:101B900053E8003F23F0100302F10C0C4CE8003135
:101BA0000029F3D1202380F84230002303637047DB
:101BB00010B504460368C1681A6922F440520A430A
:101BC0001A6182680069D9680243606921F4B051E2
:101BD00021F00C0102430A43DA605A69A16922F438
:101BE00040720A435A610E4A934215D1FFF71CFF17
:101BF00019234343626820689200B3FBF2F3642226
:101C0000B3FBF2F102FB11331B013233B3FBF2F3EE
:101C100003EB0113836010BDFFF7F6FEE8E700BF9A
:101C200000380140F7B505460C4617461E462A689F
:101C3000136834EA030301D1002021E0701CF7D0BF
:101C4000FFF720FBC01B86421CD3DEB12B68DA688D
:101C50005107ECD5802CEAD0402CE8D01A68120746
:101C6000E5D5002401941A68284601925B68019327
:101C7000019BFFF76FFF082301206B6485F840404C
:101C800003B0F0BD0320FBE7704710B5044648B32E
:101C900090F8413003F0FF021BB980F84020FFF7B5
:101CA000F3FF2423226884F84130D368204623F4CC
:101CB0000053D360FFF77CFF236800201A6922F4E9
:101CC00090421A615A6922F02A025A61DA6842F493
:101CD0000052DA602023606484F8413084F8423096
:101CE000606310BD0120FCE72DE9F843984690F8A9
:101CF00041300446202B0E4617463FD100293FD0E5
:101D0000002A3DD021230025456480F84130FFF7AB
:101D1000B9FAA3688146B3F5805FA784E78403D14D
:101D200023690BB935461E46E38C9BB253B9434633
:101D30004A4640212046FFF775FF202350B984F81A
:101D400041300AE043464A4680212046FFF76AFFB9
:101D500028B12023032084F84130BDE8F8832268AD
:101D60004EB935F8023BC3F308035360E18C0139E7
:101D700089B2E184D8E716F8013BF6E70220ECE7E8
:101D80000120EAE7002310B503638364C36403649E
:101D90000446FFF777FA012384F85430206510BD1C
:101DA000002310B5C36003610446FFF76BFAE061DE
:101DB00010BD00002DE9F04F91B01F469DF868302E
:101DC00082460A931B9B89460C931C9BBDF9748029
:101DD00009931E9B0B920D931F9B0E9382EAE27355
:101DE000A3EBE2739BB2B3F5C87F00F2B381434526
:101DF00040F3B0811046FEF75BFF3A7C05464FF09A
:101E00007E5B002A40F0F48001233860C7F804B0FC
:101E10003B74FFF737FA0646D9F85000301AFEF740
:101E200043FF8E49FFF74CF88D490446FFF732F91E
:101E3000002840F002814FF07E512046FFF748F91C
:101E400008B14FF07E54D9F80010C9F85060284608
:101E5000FEF782FF0646D9F848102846FEF772FEC4
:101E60002146FFF72DF8D9F80810C9F84850FEF7B9
:101E700073FF3146FEF768FED9F8606004463146CC
:101E8000FFF726F900B13446D9F85C6020463146A8
:101E9000FFF700F900B134464FF07E512046FFF7BE
:101EA00017F9002840F0CB8020466E49FFF7F2F882
:101EB00000B16C4C0A9B0BB104F100440021204698
:101EC000FFF7FCF8B0FA80F300215B0920460A9383
:101ED000FFF7F4F8002840F0B58004F1004B4046CD
:101EE000FEF7E6FED9F8046080463146FFF7E6F8D3
:101EF00028B14FF07E514046FEF726FE06460021EF
:101F00002846FFF7E5F8002840F09E8005F10040E4
:101F10004146FEF717FE41460F903046FEF712FE8F
:101F200001460F98FEF7CCFF00218046FFF7B2F87C
:101F3000002840F08B804FF07E514046FFF7C8F8F4
:101F400008B14FF07E5859464046FFF7A3F80028E5
:101F50007FD040460E99FEF7FFFE00210646FFF7B0
:101F600099F800B1002640493046FEF7F5FEFFF72C
:101F7000DFF844F62063A3EB000B9B4528BF9B468C
:101F800041F288339B4538BF9B460D9B002B71D097
:101F9000504603F06CF900210D902046FFF78EF8B3
:101FA0000D9B002857D0581C00F5C870B0F5487F2D
:101FB00060D9504603F059F910B1504603F0AEF81D
:101FC0004846FFF7DFFE002300223B74099B1A609E
:101FD000264B1A78002A40F0988001221A704FF49C
:101FE000C8720C99224811B0BDE8F04F04F05EB9F8
:101FF000B9687868FEF7A8FDF9680446FEF7A4FD05
:1020000001462046FEF75CFF06463A682846114620
:102010000F92FEF797FD3146FEF79EFE0F9A11468E
:10202000FEF792FD3146386005465846FEF78AFDB8
:102030002146FEF791FE7860EBE6094C03E74FF08E
:102040007E5437E7A3464AE7284661E74FF0000889
:1020500079E758467EE7581EA6E700BF00007A449D
:102060006F12833A000080BF00606A46360200208B
:1020700022A60008099B58461C68FEF715FE0021A1
:1020800007462046FEF7FCFF78B94FF07C5120460A
:10209000FEF762FE4FF07C5104463846FEF75CFEC8
:1020A00001462046FEF750FD0746099B4FF07C5144
:1020B0001F603846FEF748FDFFF73AF844F6206304
:1020C000984228BF184641F28833834698420A99BD
:1020D000504638BF9B4602F0C5FE504603F0C5F897
:1020E000012802D0504602F019FF5946504602F02E
:1020F000EDFE204A2049BAEB020218BF01228B5C98
:102100000133DBB2042B03D88B5411B0BDE8F08F40
:10211000002328468B54FEF771F9044630460D46DD
:10212000FEF76CF9064640460F46FEF767F9804613
:102130005046894603F09BF8DDE90B21CDE906B056
:10214000CDE90489CDE90267CDE900450B4804F0EB
:10215000ADF8DAE7504603F088F810B1504602F0C7
:10216000DDFF4846FFF70EFE002300223B74099B6B
:102170001A60CAE7280600203402002050A6000892
:10218000F0B51D4E3368DB689B0433D572B61B4D2A
:102190001B4B1C4F01442A881C880132A4B2D2B2C6
:1021A000A24208BF1C8810F801CB02BF0134E4B280
:1021B0001C802C888842A4B207F804C02A80EAD187
:1021C00062B611480278AAB929881A8889B292B2EF
:1021D00091420FD0012202701A8892B2B95C1A881B
:1021E000C9B20132D2B21A8033685960DA6842F05B
:1021F0008002DA60F0BD00BFC8060020E4020020C3
:10220000E2020020E6020020E10200200FB407B540
:1022100004AB53F8042B80210648019304F0AEF977
:10222000011E02DD0348FFF7ABFF03B05DF804EBCE
:1022300004B070473C0200200021F0B5944B954D4E
:102240001A78954BD2B287B0995418781C46A0F1F1
:102250000A02D2B2162A194603F1010362D825FAFE
:1022600002F2D207F1D48D4A601E133110F8013FFB
:102270000BB188425AD1002389498A48137004F06F
:10228000D2FA2578782D7DD059D8592D00F0A68026
:102290005A2D58D0582D75D003222046824904F07B
:1022A00025FA38B103222046804904F01FFA00289D
:1022B00040F0D38000238DF80F3004930023059362
:1022C00005AB00937A4904AB0DF10F02E01C04F05A
:1022D000B5F8032840F0BC809DF80F30754943F0F5
:1022E0002003742B04A807BF734C744D744C754DB8
:1022F000FDF70EFF002840F09980059B2360062221
:10230000714B1A70FEF7BEFF704B9630186005983F
:10231000FEF774F8CDE9000129466D4804AAFFF7DD
:1023200075FF01E000289ED107B0F0BDA3F1610563
:10233000192D9CBF203BDBB202F8013B96E7792DBB
:102340004CD07A2DA8D1634802F046FE624802F0D4
:1023500043FE0023614A5A481360614A1360FFF745
:102360001FFD5548FFF71CFD0622574B1A70FEF75C
:1023700089FF564B963018605A4807B0BDE8F040C8
:10238000FFF744BF0023584905AA601C059304F0D9
:1023900055F801281ED14FF08B410598FEF7DCFC63
:1023A0005249FEF78DFDFEF79DFE0622464B4B4C33
:1023B0001A702060FEF766FF444B9630186005984F
:1023C000FEF71CF80B462168024649480091FFF7CA
:1023D0001DFFA9E74748FFF719FFA5E7002342497A
:1023E00005AA601C059304F029F801281CD14FF0C0
:1023F0008B410598FEF7B0FC3C49FEF761FDFEF706
:1024000071FE0622304B364C1A702060FEF73AFF00
:102410002E4B963018600598FDF7F0FF0B462168AB
:10242000024600913448D2E73448D4E7344904A83E
:10243000FDF76EFE10B9059B636060E7314904A8A3
:10244000FDF766FE002840F0AB82059BA36056E7CF
:102450002D48FFF7DBFE2D48BDE705F0DF054B2DCE
:1024600009D10522184B1A70FEF70CFF174B963056
:102470001860274881E74D2D4ED10622124B1A7065
:10248000FEF700FF114B96301860224875E700BF39
:10249000A305002009004000A4050020FA03002045
:1024A000B6A60008E603002083A7000887A7000857
:1024B0008BA7000896A700084C04002091A60008EE
:1024C0007004002096A60008440000207C0500202F
:1024D000C8A7000828060020D005002048040020D6
:1024E0004404002058A7000893A700080000B44344
:1024F000B9A60008DCA6000808A700082CA7000859
:1025000099A700089CA70008EBA7000816A80008D8
:102510002EA8000857A8000808222046A94904F060
:10252000E5F830B108222046A74904F0DFF800287A
:1025300034D10023A5498DF81030059304AA05ABCA
:1025400004F1080003F07AFF022821D19DF8103031
:1025500043F02003702B15D19D4B059A1A60FEF7AE
:1025600091FE9C4B963018609DF810309A489B491C
:1025700043F02003702B18BF0146059A9848FFF7D7
:1025800045FED1E6742B01D1964BE6E7964822E74B
:10259000944B96481A688E4B1968F0E7052220463E
:1025A000934904F0A3F8934F30B105222046924995
:1025B00004F09CF8002843D14FF496738F4905AA84
:1025C000601D059303F03AFF059D8D4BB5F5006F37
:1025D000A8BF4FF40065322DB8BF32259A6C894BE5
:1025E000894C9B6C511B581B2B44C4E90531E3619A
:1025F00000232A44C4E9022022610122834E216083
:102600003370834B60601A70FEF73CFE814B22688A
:10261000186007233B70804B80481A606268804BCB
:102620001A60FFF7BDFB7F48FFF7BAFB29463278F7
:102630007D4803F03BFE05997C48FFF7E7FD73E614
:10264000042220467A4904F051F828B10422204699
:10265000784904F04BF860B900226D4B68481A7055
:1026600002F05CFD674802F059FD062372483B709A
:1026700083E63B78052B06D17049714807B0BDE869
:10268000F040FFF7C3BD03233B70FEF7FBFD514B4A
:102690009630186000224FF400516A48FEF748FF58
:1026A00066496948FFF7B2FD267846F02003742B8F
:1026B00004D8602B1FD83F2B00F0F780601C02F07D
:1026C00041FE562E054600F0B08100F26E812D2E9F
:1026D00000F09181522E00F06F812B2E00F0798155
:1026E00021785A48FFF792FD59495A4807B0BDE88A
:1026F000F04004F098B8613B132BDFD801A252F8E8
:1027000023F000BF9D270008BD260008852700088C
:1027100079280008BD26000869270008C728000896
:102720007727000893280008BD260008BD2600086A
:10273000BD260008BD260008BD260008BD260008ED
:1027400055270008BD260008BD260008B52700084B
:102750005F270008404B2A4A40481A600DE63E4B6E
:10276000284A3F481A6008E63B4B0021186802F0EF
:1027700053FB3C4801E6384B0121186802F04CFB42
:102780003948FAE5344C0021206802F06BFB2068E0
:1027900002F0C4FB2168354838316FE72E4C012127
:1027A000206802F05FFB206802F0B8FB2168304827
:1027B000383163E7284C206802F0B0FC21682D48CE
:1027C00038315BE77AA8000883A800088CA80008C5
:1027D000100000207C05002091A6000896A60008A5
:1027E000AEA800080C00002093A80008CBA80008A1
:1027F000E9A8000844000020EFA8000890A80008FD
:1028000028060020D00500201804002038040020ED
:102810003904002014040020480400207004002023
:10282000440400204C040020F5A8000829A9000851
:102830004CA9000851A9000856A90008A4050020C9
:1028400064A900080010014078A90008C6AB000880
:10285000FAAB0008E60300203C00002081A9000834
:10286000A7A90008CEA90008EEA900080BAA000835
:1028700027AA000844AA0008754802F04FFB7548D3
:1028800002F04CFB042300223B70734B73481A6028
:1028900073E5734A7348137883F00101117072492C
:1028A000724A012B08BF1146E8E6694802F0E2FCD3
:1028B000684802F0DFFC6E4B6E4819683831FFF74C
:1028C000A5FC6D4859E5002300268DF80F300493D0
:1028D00005AB0093694904AB0DF10F02601C05962E
:1028E00003F0ACFD03285ED19DF80F50644C654B9E
:1028F00045F02005644904A8742D08BF1C46FDF767
:1029000007FCF0B9059F614E38463146FEF7C2FB21
:1029100008B1059606E05E4E38463146FEF7D8FB14
:102920000028F6D1059820605A4B5B4C742D08BFE7
:102930001C46FDF763FD04AACDE900012146574876
:10294000EDE4574904A8FDF7E3FB90B9059F554E08
:1029500038463146FEF79EFB08B1059606E0524E1A
:1029600038463146FEF7B4FB0028F6D10598606082
:10297000DAE74E4904A8FDF7CBFB88B9059F31463D
:102980003846FEF787FB08B1059606E0484E384604
:102990003146FEF79DFB0028F6D10598A060C3E7FD
:1029A000444804A949E6444815E5762E3DD0772EE3
:1029B0002FD0722E7FF494AE2846FEF779F92C4C76
:1029C0000146206802F022FB21682A463B48383144
:1029D0000CE0274C0021206802F044FA29462068C8
:1029E00002F006FB2A4621683548383107B0BDE8B9
:1029F000F040FFF70BBC1E4C0121206802F032FAB8
:102A00002946206802F0F4FA21682A462D48383118
:102A1000ECE7174C0146206802F04AFB216805EB01
:102A2000D57529486A103831E0E744F620639D42A5
:102A300028BF1D4641F288339D4238BF1D460C4BCE
:102A40002946186802F020FA2946204816E600BFF9
:102A500028060020D0050020CC05002055AA00083B
:102A60000800002074AA00089AA60008A9A6000879
:102A70003C0000208FAA0008A8AA00088CA7000824
:102A8000FC0400209804002096A70008CDCCCC3D83
:102A90000000404091A6000896A60008DEAA0008A3
:102AA00099A70008000020410000F0429CA7000800
:102AB0000AD7A33C9FA7000812AB00086DAB000823
:102AC0003BAB000854AB000884AB00089DAB00088A
:102AD000F0B5AFB0FEF7D6FB374C2368C01A6328B9
:102AE00067D9FEF7CFFB354B20609C6C344B9E6C56
:102AF000344B1D68344B1F68344B1868FDF77EFC5F
:102B0000CDE90E01B81BFEF7D3F8FDF777FCCDE950
:102B10000C013846FEF7CCF82D49FEF71DF94FF0B1
:102B20006651FEF719F9FDF769FCCDE90A01304657
:102B3000FEF7BEF82649FEF70FF94FF06651FEF793
:102B40000BF9FDF75BFCCDE90801224B1868FDF796
:102B500055FCCDE90601281BFEF7AAF8FDF74EFC4F
:102B6000CDE904012846FEF7A3F81949FEF7F4F869
:102B70004FF06651FEF7F0F8FDF740FCCDE9020199
:102B80002046FEF795F81249FEF7E6F84FF0665139
:102B9000FEF7E2F8FDF732FC0F4ACDE9000178219B
:102BA00010A803F0F3FB0A2382B210A90B48FFF729
:102BB0009BF82FB0F0BD00BFD802002028060020EF
:102BC000D005002048040020440400203C040020DC
:102BD0000000B44340040020FEAB000810070020B2
:102BE0002DE9F84F1E46836C0546A2EB030A8AEADC
:102BF000EA73A3EBEA73B3F5FA6F884614460A9FAB
:102C0000DDF82CB0DFF84C9240F3FC80D9F80030AE
:102C1000002B40F0DF80FEF735FBC9F800002846A6
:102C200002F023FB002840F004812146284602F0F0
:102C300095F9FEF727FB0446D8F81C00201AFEF78A
:102C400033F88549FEF788F883498146FEF722FA72
:102C5000002840F0F0804FF07E514846FEF738FAE9
:102C600008B14FF07E595046FEF722F84946C8F8A1
:102C70001C408246FEF770F8D8F81010FDF764FF8C
:102C800076490446FEF724FA00B1744C2046744994
:102C9000FEF700FA00B1724CD8F80C105046C8F894
:102CA0001040FDF74FFF4946FEF70AF9D8F800102B
:102CB0008146C8F80CA05046FEF74EF8D8F804102C
:102CC00082462046FEF748F801465046FDF73CFF95
:102CD000D8F8081004464846FEF73EF8014620465C
:102CE000FDF732FFD8F8189004464946FEF7F0F990
:102CF00000B14C46D8F8148020464146FEF7CAF988
:102D000000B144464FF07E512046FEF7E1F900281D
:102D100040F0988020465349FEF7BCF9002840F067
:102D20008D8000212046FEF7D3F9002800F087802F
:102D300039462046FEF710F800210446FEF7AAF9AE
:102D4000002840F084804FF07E512046FEF7C0F905
:102D500000287AD04FF07E504349FDF7FDFFFEF783
:102D6000E7F944F62063181A984228BF184641F242
:102D70008833984238BF1846FDF796FF37680446F7
:102D800000213846FEF77CF968B938463749FDF727
:102D9000E3FF374907462046FDF7DEFF0146384688
:102DA000FDF7D2FE04464FF07C5120463460FDF71B
:102DB000CBFEFEF7BDF944F62063984228BF1846C3
:102DC00041F28831814238BF01462846BDE8F84FBC
:102DD00002F07CB8FEF756FAD9F80030C01A40F677
:102DE000B83398427FF61BAF224B1A78002A7FF443
:102DF00016AF012259461A701F480323524603F0AA
:102E000055FA0CE700231B4AC9F8003013700AF189
:102E10000203042B3FF603AF02F027FA10B1284655
:102E200002F07CF94046FEF7BBFF00233360BDE8AB
:102E3000F88FEC64FDE6DFF8209014E7094C04F10C
:102E4000004475E74FF07E5472E7204684E7002087
:102E500082E700BF100400206F12833A00409C45B7
:102E600000409CC5000080BF00606A463333333F9A
:102E70009A99993E0F0400202CAC0008234B73B59F
:102E80001A682348234B1C68836CD31A042B35DC47
:102E900004330ADA012320490D789D4204D01F4DE6
:102EA0002D68002B2CD12A440B701D498B6CE31A22
:102EB000042B27DC043309DA01231A4D2E789E42B5
:102EC00003D0194E3668FBB934442B70174BC264DB
:102ED000CC6401934FF07E53154900930C48154B79
:102EE000FFF77EFE144B22460193144B14490093C6
:102EF0000B48144BFFF774FE02B070BD0023CAE705
:102F0000521BD1E70023D8E7A41BDEE748040020CA
:102F10002806002044040020950400201000002012
:102F2000D0050020940400200C00002096A6000884
:102F3000700400204004002091A600083333333F82
:102F40004C0400203C0400202DE9F041002588B00D
:102F5000454B06959A69012442F004029A619A69E8
:102F60000326022702F0040200924FF0F008009AB4
:102F70009A6904A942F008029A619A693B4802F0F2
:102F800008020192019A9A6942F010029A619A69C4
:102F900002F010020292029A9A6942F001029A61CA
:102FA0009B69334A03F001030393039B536823F0A7
:102FB000E06343F000735360CDE904640797FEF7C4
:102FC000DDF92A4631462948FEF7B2FA04A9274816
:102FD000CDE904840796FEF7D1F92A4641462348F5
:102FE000FEF7A6FA4FF0780804A92248CDE9046458
:102FF0000797FEF7C3F92A4631461E48FEF798FAAE
:103000000796802604A91B48CDE90484FEF7B6F98B
:103010002A4641461748FEF78BFA04A91548CDE920
:1030200004640797FEF7AAF92A4631461148FEF7CD
:103030007FFA4FF47043CDE904354FF4005504A9ED
:103040000C480694FEF79AF904A90B48CDE90454FC
:103050000797FEF793F9224629460748FEF768FAD4
:1030600008B0BDE8F08100BF001002400008014038
:1030700000000140000C01400010014030B5002567
:1030800087B01B4B04959A6902A942F480429A6169
:103090009B694FF4007203F480430193019B022368
:1030A000CDE90223032313480593FEF767F94FF494
:1030B000806302A90F48CDE902350495FEF75EF959
:1030C0004FF4E1330C4C0D492046C4E900130C23A6
:1030D000C4E90255C4E905352561E561FEF7D5FD72
:1030E0002268D36843F02003D36007B030BD00BF2F
:1030F0000010024000080140100700200038014085
:1031000030B5002587B01A4B0495DA6902A942F45C
:103110000032DA61DB69042203F400330193019B7E
:103120000223CDE90223032312480593FEF726F973
:10313000082310480DEB0301CDE902350495FEF795
:103140001DF94FF416530C4C0C492046C4E90013EA
:103150000C23C4E90255C4E905352561E561FEF794
:1031600094FD2268D36843F02003D36007B030BDDC
:103170000010024000080140C80600200044004042
:1031800030B5002587B01F4B0495DA6902A942F4D7
:103190008022DA61DA691C4802F480220092009AE7
:1031A0009A691A4C42F008029A619B694FF4806256
:1031B00003F008030193019B0223CDE902230323BB
:1031C0000593FEF7DBF84FF4006302A90E48CDE942
:1031D00002350495FEF7D2F84FF4E1330C4920464E
:1031E000C4E900130C23C4E90255C4E9053525617F
:1031F000E561FEF74AFD2268D36843F02003D360FF
:1032000007B030BD00100240000C014080060020D5
:1032100000480040174B37B5DA69174C42F00102FD
:10322000DA61DB694FF0804203F001030193019BF7
:1032300047230025C4E9002341F63F73C4E9025344
:1032400080232046A3612561FEF758FC22682046B2
:10325000D36843F00103D360FEF7F8FB2A4601214F
:103260001C20FEF739F81C2003B0BDE83040FEF703
:1032700063B800BF00100240A0070020164B37B50E
:10328000DA69164C42F00202DA61DB69144A03F093
:1032900002030193019B47230025C4E9002341F663
:1032A0003F73C4E9025380232046A3612561FEF7E2
:1032B00025FC22682046D36843F00103D360FEF763
:1032C000C5FB2A4601211D20FEF706F81D2003B08C
:1032D000BDE83040FEF730B800100240580700202B
:1032E0000004004010B514460A2392B20248FEF7CB
:1032F000FBFC204610BD00BF1007002000207047D7
:10330000002070474FF0FF3070474FF0FF3070479C
:1033100001207047074B1B681A69D10708D5DA6886
:10332000D20705D56FF0010203481A6101F002BF10
:10333000704700BFA007002028060020074B1B682D
:103340001A69D10708D5DA68D20705D56FF00102EE
:1033500003481A6101F0EEBE704700BF5807002015
:10336000D0050020144B13B51B681A68910616D5BA
:1033700012495A680878D2B21E2805D80C78601C09
:10338000C0B208700E4802550A2A01D00D2A03D196
:1033900001210C4A117002E00A781E2AF8D81A6836
:1033A000120706D5002201921A6801925B68019308
:1033B000019B02B010BD00BF10070020A305002034
:1033C000A4050020A205002030B5374D85B02B683C
:1033D0001A68100614D5DA68110611D5334A344933
:1033E00010880A8880B292B2904227D00A88314869
:1033F00092B2805C0A88C0B20132D2B20A805860B0
:103400001A68920625D501225C682B4BE4B21A702B
:10341000FDF738FF294B1860294B1A781E2A05D86A
:1034200019784A1CD2B21A70264A54540A2C01D078
:103430000D2C0BD10122244B1A700AE00021234AE3
:103440001170DA6822F08002DA60D9E71B781E2B4F
:10345000F0D82B681A68140706D5002200921A6863
:1034600000925A680092009A1A68500706D5002206
:1034700001921A6801925A680192019A1A6891079A
:1034800006D5002202921A6802925A680292029AA3
:103490001A68D20706D5002203921A6803925B6865
:1034A0000393039B05B030BDC8060020E402002052
:1034B000E2020020E6020020E0020020DC02002000
:1034C000810500208205002080050020E102002007
:1034D0003C4BF7B51C6823689A0618D53A4B6268CE
:1034E0001978D2B204290ED8DFE801F003081D2DA7
:1034F00031003C2A0BD101221A7008E03B2A04D18A
:1035000002221A70314B0022F6E73C2AFBD12368D5
:103510001B0706D500230193236801936368019379
:10352000019B03B0F0BD29480178052906D8017830
:10353000CDB20131C9B2017025494A550278052A38
:10354000E5D90322D8E7012ADDD10422D4E7012AF4
:10355000D9D11F4F052500223946082617F8010B3F
:10356000424050B20028BDBF400080F00700C2B208
:10357000520006F1FF30A8BFD2B210F0FF06F0D122
:10358000681E10F0FF05E8D14879904215D10878FF
:103590004A7842EA00220F4812B202808878CA783C
:1035A00042EA00220C4812B202800A790B49D2B2D8
:1035B0000A7001210A4A1170A5E70A490A68013216
:1035C0000A60A0E78006002079050020720500202F
:1035D00073050020700500206E0500206D05002099
:1035E0006C05002060050020FDF740BE07B5074CC4
:1035F0004FF400510648FDF7A0FF00230193019B03
:10360000A342F5D8019B0133F8E700BF1FA10700D3
:103610000010014007B572B6064C4FF40051064841
:10362000FDF78BFF00230193019BA342F5D8019B7B
:103630000133F8E73F420F000010014010B590B091
:103640001422002108A803F049F81422002101A83F
:1036500003F044F802244FF480330122CDE90D43F6
:10366000CDE906234FF4E01306A80F93FDF76EFF94
:1036700008B1FFF7CFFF0F23CDE901344FF480638A
:103680000390CDE90430214601A8FEF721F9002876
:10369000EFD110B010BD00002DE9F04FB1B0FDF733
:1036A000D3FDFFF7CBFFFFF74FFCFFF7E7FCFFF77A
:1036B00027FDFFF765FD002225201146FDF70CFED2
:1036C0002520FDF739FE002226201146FDF704FED5
:1036D0002620FDF731FE002227201146FDF7FCFDD4
:1036E0009D4D2720FDF728FE00220F214FF0FF30CF
:1036F000FDF7F2FD6C6A9948214602F0D7FD002CD7
:1037000002DA974802F0D2FD620002D5954802F035
:10371000CDFDA30002D5944802F0C8FDE70002D514
:10372000924802F0C3FD260102D5914802F0BEFD89
:10373000600102D58F4802F0B9FDA10102D58E4883
:1037400002F0B4FD8D4802F019FE6B6A43F08073FD
:103750006B6200F0DFFF002800F0DB80884802F099
:103760000DFE884B884A8949894801F025FB894923
:10377000894B8A4A8A4801F01FFBFFF74BFDFFF790
:103780007DFD4FF07E521446864D874B00266B60C0
:103790004FF08043A346854F28462A602A66AB65D2
:1037A000AE60EF65FEF7EEFA8149824B0C604B602C
:1037B0000C66814B814CDFF808A2DFF808920846BE
:1037C0008B658E60CF654FF00108FEF7DBFAC4F819
:1037D00000A06660C4F80890E66026616761C4F8DE
:1037E00018B0FDF74FFD84F82080E061764CC4F8F6
:1037F00000A06660C4F80890E66026616761C4F8BE
:1038000018B0FDF73FFD4FF400627049E061604879
:1038100084F8208001F0D2FB6D494FF4C8726048F3
:1038200001F0CCFB00236B4A6B4813606B4A1360BA
:1038300002F0A4FD6A4802F0A1FD6A4802F09EFD74
:10384000694802F09BFD694802F098FD684802F063
:1038500095FD684802F092FD674802F08FFD6748C9
:1038600002F08CFD664802F089FD664802F086FD94
:10387000654802F083FD654802F080FD644802F06F
:103880007DFD644802F07AFD634B1A782AB100246A
:103890001C70FEF7D1FC614B1C70614B1A787AB139
:1038A0000026604C1E7022785F49604802F0D1FF0C
:1038B00023785A4FDBB23B70FEF7BEFC3E70267099
:1038C000FDF7E0FC5A4A5B4C1368C31A312B40F2F7
:1038D000D48010604FF400415748FDF723FE0028C4
:1038E00040F025812A4801F019FC2D4801F016FC12
:1038F0002378013303F007032370013B062B19D80B
:10390000DFE813F02500B000D500E200EF00F4007E
:1039100005014A4802F032FD494802F02FFD4948AE
:1039200002F02CFD484802F029FD484802F026FD2F
:10393000474814E7164E474B47481E6002F01EFDED
:10394000464802F01BFD304601F0E8FA95E0144EBF
:10395000404B43481E60F1E700100240A2AC000853
:10396000C3AC0008D0AC0008DDAC0008EFAC000828
:1039700000AD000806AD000811AD00089EAF0008BC
:1039800022AD000896A60008A0070020B4BB0008DE
:103990002806002094BB000891A6000858070020C4
:1039A000D0050020FC04002000000C42000080BF75
:1039B000980400200000C84100004040700400202E
:1039C00052491D3A17B751384C04002000F8FFFF48
:1039D00070FEFFFF480400207BAE00084404002076
:1039E000A7AE0008CFAE0008E8AE00080EAF000892
:1039F00047AF000874AF0008A0AF0008DAAF0008B6
:103A00000AB0000838B0000863B000088EB00008A3
:103A1000B7B00008D4B00008A2050020A30500201C
:103A2000800500208105002082050020A4050020DB
:103A30003802002044000020000C01404AAD00087C
:103A400099AD0008ABAD0008EAAD0008FFAD000875
:103A50001FAE0008400000200BB1000841B1000873
:103A600067B100087A4802F089FCB421794801F076
:103A70001FFBB421784801F01BFB2378042B40F096
:103A80005281FDF7FFFBDFF8D4810646D8F80070BD
:103A9000DFF8CC91002F40F0AE80724BC8F80000E8
:103AA000714889F800701F6002F068FC3BE16F48C4
:103AB00002F064FC6E4802F061FC6E4802F05EFCAD
:103AC0006D4802F05BFCD8E76C4802F057FC614897
:103AD00001F024FA604801F021FA00225F4B1A60DD
:103AE000CBE7674802F04AFC6648EAE7664802F01E
:103AF00045FC664802F042FC654802F03FFC654820
:103B000002F03CFC644802F039FC6448D9E76448A0
:103B100002F034FC634B644A1978644B6448002912
:103B200018BF1A46114602F0C1FB6248C9E7237864
:103B3000022B23D14FF480515F48FDF7F3FC38B9D5
:103B400041F28833434886689E4296D9C83E0DE0CC
:103B50004FF400515848FDF7E5FC00288DD144F69C
:103B60001F633C4886689E4287D8C836314601F0BC
:103B70008BF93146384801F087F97EE7042BD9D01C
:103B8000032B00F0D7804FF480514B48FDF7CAFC5F
:103B900088B941F28833494E30688168994202D928
:103BA000C83901F071F9306801F05FFB00287FF43B
:103BB00064AF3068C8E64FF400513F48FDF7B2FCEF
:103BC00040B944F61F633D4E306881689942EAD897
:103BD000C831E6E74FF480413748FDF7A3FC0028E1
:103BE0007FF44BAF354E30684178B1FA81F1490925
:103BF00001F038F9D7E799F80030C71B052B00F220
:103C00008084DFE813F006005D00B703E2030904D7
:103C100056044FF47A610F4801F036F94FF47A6197
:103C20000D4801F031F900210A4801F01BF900218B
:103C3000094801F017F9B7F5FA6F74D9012300228A
:103C400089F80030074BC8F800601A606BE000BFCD
:103C50009EB1000828060020D0050020CC050020D9
:103C6000C8050020C405002063B40008C1B10008E5
:103C7000E4B1000810B2000838B200086DB20008C4
:103C8000A7B20008CFB20008EEB2000811B30008D6
:103C900035B300085AB3000884B30008C1B3000864
:103CA000F6B30008390400207CAC000872AC0008B0
:103CB00019B4000840B40008000C01404000002086
:103CC000B94BDFF8E8A218464FF49661DFF8E0B28E
:103CD00001F0DAF840F2DC51504601F0D5F8DBF89B
:103CE0000020B14BB21AB2F5AF7F10D959781846FF
:103CF000B1FA81F14909CBF8006001F0B3F89AF804
:103D000001105046B1FA81F1490901F0ABF840F6D3
:103D1000B8339F4207D9022389F800300023C8F83E
:103D20000060CBF800302378062B03D1FFF7A6F80C
:103D3000FEF7CEFE2378072B42D19E4B1B78002B3B
:103D40003CD0DFF874929D4E99F80030964956F8B1
:103D50003320896C06EBC3035F68A2EB0108934B29
:103D600008F10508D3F848A0FDF78CFAB8F10A0F5E
:103D7000DFF84CC200F2CB83A7EB0A0705370A2F06
:103D800000F2C583DCF80030C31AC72B14D999F8A8
:103D900000108C4B013101F0030156F8312006EB85
:103DA000C1061A607368884ECCF80000874889F80D
:103DB0000010336002F07AFAFFF760F8FEF788FE31
:103DC000FDF760FA824E3368C01AC72840F2BD8002
:103DD000FDF758FA306000F09FFC002800F0B58035
:103DE0008022002110A802F079FC2378794A7A49D0
:103DF00052F823202BA80F925A1F534253418DF89B
:103E0000BC30764BDFF8A0B11A78754BDFF89CA177
:103E1000002A08BF0B461021724A02F0B7FA9DF83B
:103E2000BC30002B00F08E836F4B1F886F4B3FB26E
:103E300087EAE770A0EBE77080B21E88FCF738FFD6
:103E400036B2814686EAE670A0EBE67080B2FCF7F7
:103E50002FFF674980464846FDF73AF9002840F0B1
:103E6000598348466249FDF72BF82990604940463E
:103E7000FDF72EF9002840F0508340465C49FDF7DD
:103E80001FF83B4610215B4A2A9010A802F07EFAE8
:103E9000594A3346102114A802F078FA524B188878
:103EA00000B2FCF705FF2968FCF756FF4F4B0646AA
:103EB000188800B2FCF7FCFE504B1968FCF74CFF69
:103EC0009BF804309AF80420134340F029834C49AE
:103ED00018A802F0A8FC4B4B1B7803F0FF02002B44
:103EE00000F02D83484912F0040F484B18BF0B46D1
:103EF00012F0020F0CBF2D224822182100920DF162
:103F00007600434A02F042FAFDF7BCF9FCF754FA96
:103F10000022404BFCF7F4FB3F4B404A1B781278E1
:103F2000002B0CBF70235023002A0CBF7422542294
:103F3000CDE90001CDE902321621394A0DF18E009A
:103F400002F024FA0FA800F0E9FB364B1A78002A99
:103F500000F0B5804FF0000983F80090224BB3F8D1
:103F60000080224B0FFA88F81F88264B3FB21E783C
:103F7000FDF788F92C4BF6B21860F30740F19F80EB
:103F80002378072B00F0BE80FDF77CF9274B1860E3
:103F9000FDF778F940F6B833984240F290802378E4
:103FA000052B56D044E000BF28060020D005002095
:103FB000C405002039040020380400201804002023
:103FC000140400204804002044040020F1B4000838
:103FD000CC0200207CBB00088AAC0008E002002074
:103FE00086AC000811B50008700500206E050020A1
:103FF0000000204317B500081FB5000898040020F2
:1040000027B500086D0500208FAC000894AC0008AF
:1040100043B5000800408F40080000200E04002037
:104020004DB500086C0500206805002064050020DF
:104030000523AF482370FDF7A5FEAE48FDF7A2FEAD
:10404000AD4BAE4883F81090AD4B83F8109002F062
:1040500095F94FF07E534FF0000905930223CDE907
:104060000339A84B42460293A74BA1490193A74BA2
:10407000A7481B780093A04BFDF79CFEA54B4FF47F
:10408000C87005930423CDE90330A34B3A4602934D
:10409000A24B98490193A24BA2481B780093984BDE
:1040A000FDF788FEB6070AD5FDF7ECF89E4BC83041
:1040B00018604A464FF400519C48FDF739FA2378BE
:1040C000052B1FD19A4F3B68E3B1FDF7DBF83B6846
:1040D000984EC31AB3F5FA6F40F27E82964802F00A
:1040E0004DF98B4801F01AF88E4801F017F8804816
:1040F000FDF748FE7F48FDF745FE032323700023AC
:104100003B603360FDF7BEF88C4E3368C01AB0F5E3
:10411000FA7F42D3FDF7B6F83060894E3368DB682A
:1041200099043AD543F63C537948ADF83C3083794D
:104130007C4A5B018DF83E30937912795B018DF8F2
:104140003F30037913445B108DF8403001F088F85C
:1041500023789DF83D105A1F53425341021E18BF49
:10416000012242EA430200238DF842309DF83C30A0
:104170008DF841200B449DF83E1030460B449DF8CD
:104180003F100B449DF840100B441A448DF8432017
:104190000A2308220FA9FDF7A7FDFDF773F8694C64
:1041A0002368C01A952876D9FDF76CF8664B206015
:1041B0001B68DB689B046ED5644CDFF89481208813
:1041C00000B2FCF775FD2968FCF7C6FD0746B8F894
:1041D000000000B2FCF76CFD464B1968FCF7BCFD13
:1041E0004FF07E5106463846FCF772FF002840F03B
:1041F000FF8138465749FCF74DFF00B1554F4FF04E
:104200007E513046FCF764FF002840F0F4813046D0
:104210005049FCF73FFF00B14E4E2488B8F800A08B
:1042200038460FFA8AF30D93FCF7E8F882463046D9
:104230008B46FCF7E3F8804668688946FCF7DEF8B1
:104240000F462C4906464868FCF7D8F8424A434BCB
:1042500092F800E093F800C0BEF1050F14BF4D22A4
:104260004122CCF34003CDE90A320D9B24B2CDE9C3
:104270000801009360212346CDE90667CDE9048952
:10428000CDE902AB364A0FA802F080F8011E02DD2C
:104290000FA8FDF775FFFCF7F5FF324C2368C01A35
:1042A000B0F5FA7F14D3FCF7EDFF20602E4C237895
:1042B00073B1FCF7E7FF2D4B1B68C01AB0F5FA5F2E
:1042C00006D900234FF4FA512948237001F0EEFF7C
:1042D000FCF7D8FF144B1B68984280F08F810022B6
:1042E0004FF400511148FDF723F9FFF7CDBA00BF95
:1042F000FC040020980400202800002082B500085B
:1043000014000020D402002096A600080800002017
:10431000280600209A99193FD002002091A6000893
:104320000E040020D00500207C0500200010014074
:104330006805002064050020A9B50008C802002017
:1043400080060020C4020020C8060020700500205E
:104350006E050020000080BF440000206D05002095
:10436000FDB50008C0020020E0020020DC020020B1
:104370003AB600084FF47A71B148DFF8C8A200F0ED
:1043800083FD0021AE4800F06DFD504600F06DFF4A
:10439000012803D19AF80530012B0BD0A94800F071
:1043A000BDFEA021A74800F083FE40F6C411A54839
:1043B00000F06AFD40F6B8339F427FF6B4AC0323A9
:1043C00089F80030C8F80060ADE44FF47A719C4879
:1043D000DFF870A200F058FD0121994800F042FD7D
:1043E000504600F042FF012803D19AF80530012B16
:1043F0000BD0944800F092FEA021924800F058FEA5
:1044000040F6C4118F4800F03FFD40F6B8339F429C
:104410007FF689AC042312E43846FCF745FC8A4950
:10442000FCF74EFD8949FCF797FCFCF781FEC0F5CF
:104430001C6B0BF1040BBBF57A7F38BF4FF47A7B12
:10444000DFF800A259467E4800F01EFD9AF80530BC
:10445000012B05D1504600F061FE504600F05EFD94
:104460005946DFF8ECB1774800F00EFDDBF800307C
:10447000F31AB3F5FA7F16D97148CBF8006041788A
:10448000B1FA81F1490900F0EDFCDBF80030F31AD4
:10449000B3F57A7F07D99AF801106A48B1FA81F129
:1044A000490900F0DFFCB7F57A6F7FF63CAC0523D5
:1044B00086E7634E41F28831304600F0E5FC41F278
:1044C0008831604800F0E0FC0021304600F0CAFC72
:1044D00001215C4800F0C6FCB7F5FA6F7FF623AC0B
:1044E0005C4801F04BFF00235B4A5C482370166078
:1044F000C8F8003089F8003001F040FF5848FFF755
:10450000D3BA002389F80030C8F800300BE4CCF8A7
:10451000000051E44FF07E50A7E44FF07E50B0E42D
:10452000FBF76CFFCDE902013046FBF767FF4D4A10
:10453000CDE90001162118A801F028FFCBE42D22B7
:10454000494BDAE49AF80410484B494E9BF8042092
:10455000002908BF1E46464910A8002A18BF0B466E
:104560001021444A01F012FF33461021424A14A898
:1045700001F00CFF9BF8043043BB002329939AF809
:10458000043033BB00232A933C4B16211B683C4A62
:10459000383318A801F0FAFE3A4A18213A4B0DF1C7
:1045A000760001F0F3FEFCF76DFE0F9B0293FBF724
:1045B00003FF0022354BFCF7A3F8354ACDE9000193
:1045C00016210DF18E0001F0E1FEBBE44FF07C53AB
:1045D000D4E74FF07C53D6E73368002B3FF492AD1D
:1045E0003368C01AB0F5FA6F7FF68CAD294876E5CE
:1045F0004FF07E5703E64FF07E560EE6FCF742FE84
:10460000254C2368C01AB0F5FA7F7FF63DA9FCF768
:1046100039FE20600A4800F028FE00287FF434A903
:10462000084800F022FE00287FF42EA900F1804007
:104630004FF4005100F58830FCF77FFFFFF724B9F5
:1046400028060020D005002000007A450080BB44E9
:10465000C405002081B40008400000209FB4000879
:10466000BEB4000835B500088AAC000899AC000853
:104670009EAC00085BB5000862B500083C00002055
:1046800069B5000870B50008FA03002000408F40AB
:1046900076B50008CBB50008BC02002073B50C4607
:1046A000054600212046FCF7F5FC70BB4FF07E511B
:1046B0002046FCF70DFD08B14FF07E54204614490A
:1046C000FCF74AFB4FF07C51FCF73EFAFCF730FD5B
:1046D0000126294607233E22C4B20096402000F05E
:1046E000EEFA00233544EDB200933C22052329461F
:1046F000412000F0E4FA34B1052322462946412046
:10470000009600F0DCFA02B070BD0020D7E700BFD1
:104710000000704200F010BA00F000BA10B5044674
:1047200000F0FCF9002844D0002C42D000F0FCF945
:104730000021012308461F4A00F098FA01230722AE
:104740007F21002000F0A4FA221D0123082100206F
:1047500000F08CFAA16E0820FFF7A0FF04F114020C
:1047600001231021002000F081FAE16E1020FFF7F4
:1047700095FF04F1240201231821002000F076FAAD
:1047800004F13A0201232021002000F06FFA04F125
:10479000520201232821002000F068FA04F170027F
:1047A00001233021002000F061FABDE8104000F044
:1047B000A7BA10BDA4B60008002382B00193019BE4
:1047C000132B01D902B07047019B0133F6E70000BB
:1047D00001224FF480710148FCF7AABE000C014091
:1047E00001224FF400710148FCF7A2BE000C014009
:1047F00000224FF400710148FCF79ABE000C014002
:1048000008B5FFF7F5FFFFF7D7FFFFF7E1FFFFF769
:10481000D3FFFFF7E5FFBDE80840FFF7CDBF00007D
:1048200000224FF480710148FCF782BE000C014069
:1048300008B5FFF7D5FFFFF7BFFFFFF7C9FFFFF789
:10484000BBFFFFF7D5FFFFF7B7FFFFF7E9FFBDE8B5
:104850000840FFF7B1BF000038B50446082523061D
:1048600025D5FFF7BDFFFFF7A7FF6400FFF7B0FFF7
:10487000FFF7A2FFFFF7D4FFFFF79EFF013DE4B271
:10488000EDD1FFF7ADFFFFF797FFFFF7A1FF4FF463
:1048900000710848FFF790FFFCF744FE0446FFF75D
:1048A000BFFFFFF789FF201E18BF012038BDFFF7AB
:1048B0009FFFD8E7000C014038B50C4B05461B782C
:1048C0009BB10B4B1C8884B16400FFF7B1FF04F06F
:1048D000FE00FFF7C1FF0020FFF7BEFF2846FFF7ED
:1048E000BBFFBDE83840FFF78BBF38BDEA070020AB
:1048F000E807002008B5AE20FFF7DEFF0220FCF736
:10490000C7FC2020FFF7D8FF0220FCF7C1FC0020E5
:10491000FFF7D2FF0220FCF7BBFC2120FFF7CCFF02
:104920000220FCF7B5FC0020FFF7C6FF0220FCF7D1
:10493000AFFC7F20FFF7C0FF0220FCF7A9FC22207C
:10494000FFF7BAFF0220FCF7A3FC0020FFF7B4FF3B
:104950000220FCF79DFC0720FFF7AEFF0220FCF7CA
:1049600097FCB020FFF7A8FF0220FCF791FCC820BD
:10497000FFF7A2FF0220FCF78BFC0020FFF79CFF53
:104980000220FCF785FC1020FFF796FF0220FCF7C1
:104990007FFC4020FFF790FF0220FCF779FC81208C
:1049A000FFF78AFF0220FCF773FCCF20FFF784FF9C
:1049B0000220FCF76DFCA120FFF77EFF0220FCF730
:1049C00067FCA620FFF778FF0220FCF761FCA82017
:1049D000FFF772FF0220FCF75BFC3F20FFF76CFF44
:1049E0000220FCF755FCD320FFF766FF0220FCF7FE
:1049F0004FFC0020FFF760FF0220FCF749FCD520A8
:104A0000FFF75AFF0220FCF743FC8020FFF754FF1A
:104A10000220FCF73DFCD920FFF74EFF0220FCF7F7
:104A200037FCF120FFF748FF0220FCF731FCDA20C9
:104A3000FFF742FF0220FCF72BFC1220FFF73CFFA0
:104A40000220FCF725FCDB20FFF736FF0220FCF7F5
:104A50001FFC4020FFF730FF0220FCF719FC8D20DF
:104A6000FFF72AFF0220FCF713FC1420FFF724FFB6
:104A70000A20FCF70DFCAF20FFF71EFFBDE8084041
:104A80000A20FCF705BC00002DE9F047B0241F4DBB
:104A90001F4EDFF88080DFF8809080223146284664
:104AA00001F00CFE40B32046FFF706FF0020FFF7A1
:104AB00003FF1020FFF700FF98F80030BBB1B9F8F2
:104AC0000070A7B1FFF7B4FE780000F0FE00FFF71A
:104AD000C3FE4020FFF7C0FE6F1E05F17F0A17F8E6
:104AE000010FFFF7B9FE5745F9D1FFF789FE802284
:104AF0002946304601F0ADFE0134E4B2B82C05F190
:104B0000800506F18006C8D1BDE8F087EB0B0020D8
:104B1000EB070020EA070020E8070020014B187887
:104B2000704700BFEA0700204FF48062002101486F
:104B300001F0D4BDEB0B00207FB50023234D244CA6
:104B40004FF440722B70238011230121CDE9002303
:104B500003232048CDE902136946FCF70FFCFFF759
:104B600037FEFFF73DFE3220FCF792FBFFF760FEB9
:104B70007820FFF771FE0646FFF742FE012E1ED198
:104B8000FFF756FE7A20FFF767FE0646FFF738FE6E
:104B9000012E16D03D23238001240A202C70FCF71F
:104BA00077FBFFF7A7FE4FF48062FF210A4801F070
:104BB00095FDFFF7B9FFFFF767FF204604E03C23B0
:104BC000E9E720880028E7D104B070BDEA0700209B
:104BD000E8070020000C0140EB070020030630B579
:104BE0000ED43F290CD80124CB08074D00EBC3108D
:104BF00001F007012B5C04FA01F112B10B432B54B5
:104C000030BD23EA0103FAE7EB0B00202DE9F04762
:104C100014461A46A4F120035E2B88BF3F240646A3
:104C20000F460025104B203C04EB84041C444FF03D
:104C3000000806EB050914F805A05FFA89F94AFA9D
:104C400008F3DB0705D507EB08014846C9B2FFF7B3
:104C5000C5FF08F10108B8F1070FF0D10135052DA6
:104C6000E5D1BDE8F08700BFD4BB0008F8B5054624
:104C70000E461F461AB1541E14F8012F02B9F8BD92
:104C800028463B4631460635FFF7C0FFEDB2F3E755
:104C9000814270B5164605460C461A4601D30446B5
:104CA0000D46A54200D270BD230605D43F2E03D881
:104CB00031462046FFF792FF0134E4B2F1E72DE9D7
:104CC000F84380460C465E1817189DF82090F6B2FF
:104CD000FFB2B44211D045460AE02B0606D43F2C61
:104CE00004D84A4621462846FFF778FF0135EDB241
:104CF000BD42F2D10134E4B2EBE7BDE8F883000035
:104D000038B51A4B1B7883B34FF08053184DC5F854
:104D10008030BFF34F8FBFF36F8F4FF00053C5F854
:104D20008030BFF34F8FBFF36F8F124B1C88FFF79C
:104D30007FFD6400E4B22046FFF78EFD0446FFF7D6
:104D40005FFD012C09D1FFF7D5FD4FF48062FF21F3
:104D5000094801F0C3FCFFF7E7FEFFF795FE4FF0AF
:104D600080532B604FF000532B6038BDEA070020C2
:104D700000E100E0E8070020EB07002038B504461A
:104D80000D4601F00102018B4069FCF7D1FB218C3B
:104D9000E069C5F34002FCF7CBFB218D606AC5F3E7
:104DA0008002FCF7C5FB218EE06AC5F3C002BDE8B6
:104DB0003840FCF7BDBB0000F8B5054616460C466A
:104DC0005722002101301F4601F088FC01232B707F
:104DD0004FF4FA53AB604FF480636E632B613CB1C8
:104DE0000FCC05F114060FC694E80F0086E80F00FB
:104DF00005F1380427B107223946204601F088FC26
:104E000028460021FFF7BAFF2146BDE8F8400148D7
:104E100001F04CBAB5B6000838B500230D4604467B
:104E200083714B1E012B01708CBF03210121FFF701
:104E3000A5FF012D04F1380109D0064A064B022DC9
:104E400008BF1A46BDE83840044801F02FBA044AAA
:104E5000F8E700BFD2B60008ECB60008FEB60008BE
:104E6000DFB60008054A064B4170002918BF1A46F4
:104E700000F13801034801F019BA00BF08B7000873
:104E800017B70008FEB6000844F6206399420A46A8
:104E900028BF1A4641F288339A4238BF1A4610B4E6
:104EA000446B82602368D96821F00101D960511EEA
:104EB000D962E160D96810BC41F00101D96000F10C
:104EC0003801014801F0F2B927B7000830B544F6BF
:104ED0002065A94228BF294641F288348368A1424F
:104EE0002CBFC3EB0102C3EB04020B498A42B8BFDB
:104EF0000A4640F6B8318A42D4BF9B185B18AB42D1
:104F000028BF2B46A34238BF2346426B83601168FB
:104F1000013BCB62D36030BD48F4FFFF72B603792A
:104F200083B9082344F6206280F84030836803EB9D
:104F30004303934228BF1346426B43641168013B0D
:104F4000CB62D3600023C3600123838062B600F18B
:104F50003801014801F0AAB939B700080A4610B46F
:104F600072B640F20133C16400218380836CC1605A
:104F7000D31A8B421CDD417090F8403083B908236E
:104F800044F6206180F84030836803EB43038B4292
:104F900028BF0B46416B43640C68013BE362CB6066
:104FA00062B6836C00F1380110BC034801F07EB991
:104FB0001CBF01234370DFE74DB70008134672B6EC
:104FC000C0E9141262B60A4600F13801014801F046
:104FD0006DB900BF76B7000872B60023C0E912337E
:104FE00062B600F13801014801F060B999B70008D4
:104FF0000A4672B60223C160838062B600F13801AE
:10500000014801F053B900BFADB70008F7B50D4630
:1050100003780446012B4FF00001284614BF4FF4DB
:1050200000674FF48057FCF735F8002835D005F1BC
:1050300000401B49FBF744FF06463846FBF734FEA9
:1050400001463046FBF788FEFCF772F8064672B65A
:1050500063780021A3702846FCF71CF80123003870
:1050600018BF0120E37003236070E660A38062B67E
:105070002846FBF7C3F904F138070A4A64780A4B5B
:10508000002C08BF13460246CDE9006307480B46D3
:10509000394601F00BF903B0F0BD2846C9E700BF5F
:1050A0000000B443BDB70008BCB70008C0B7000893
:1050B000B1F5B47F2DE9F04105460C4627D800290B
:1050C00008BF5A242B782046012B14BF4FF40067E9
:1050D0004FF48057FBF7E8FD0E49FBF7F1FE06465B
:1050E0003846FBF7E1FD01463046FBF735FEFCF79D
:1050F0001FF840F20112AA80C5E9030003466208C6
:1051000005F138010448BDE8F04101F0CFB84FF493
:10511000B474D7E70000B443E6B7000872B60023C2
:10512000C360838062B600F13801014801F0BEB867
:105130000FB8000810B5037904462BB34379012B4F
:105140001BD1C368002B06DC4378B3FA83F35B09F9
:1051500043700369C3602378012B34D0022B4FF0D6
:10516000040233D13A496078A37988BB0133B3FB99
:10517000F2F002FB1033DBB22EE0032BEBD1D0E9CF
:1051800012239B1A01D1037110BD016D09B9406D45
:1051900098B1002BD4BF4FF0FF3001200244914260
:1051A00002DC616D914208DA0023237104F13801B9
:1051B0002848BDE8104001F079B8002BCCBF00238F
:1051C00001236370C7E708222349CCE72349CAE7D4
:1051D000002B38D1013AD3B2A371C95C2046FFF746
:1051E000CDFD6278A36C002A2FD10133A364E3685C
:1051F000002B0BDD013BE36043B96279012A05D046
:10520000E278237112B1A278E370627094F84030B2
:10521000002BB9D0013BDBB2D3F1080284F8403057
:10522000B2D0636CA16899422FBF0B46581A424313
:10523000A3EBD2038B4238BF0B46626B013B106875
:10524000C362D360A0E7013B95E7013BCEE700BF17
:10525000AFBD00082CB80008B7BD0008B3BD0008FA
:105260000079003818BF0120704700797047806CC2
:105270007047000070B504468EB0264D03AB95E82C
:10528000070083E80700244B06AE0193234B0293EB
:1052900005F10C031C350FCB86E80F0095E80F00D5
:1052A0000EAD05E90F0004F138011D4800F0FEFFC6
:1052B00023781C4805EB830353F82C1C00F0F6FF01
:1052C0006378194805EB830353F8341C00F0EEFFB4
:1052D0002379164805EB830353F8201C00F0E6FF02
:1052E0006379134805EB830353F8101C00F0DEFFCD
:1052F000A168104800F0DAFFA1790F4800F0D6FF4E
:10530000E1680E4800F0D2FF0D480EB0BDE87040D5
:1053100001F034B8D8A5000854B8000862B80008F5
:1053200071B800089BB80008B0B80008C5B80008FC
:10533000DAB80008EFB800080CB9000821B9000875
:105340007DAF00080A22002100F07CB8242B2DE953
:10535000F0478646904601D8012B06D101F036FA77
:10536000162303600020BDE8F0870D4633482A4627
:1053700015F8014B065D16F00806F8D12D2C10D15A
:1053800001262C78951C33F0100215D1302C0DD14C
:105390002A7802F0DF02582A08D16C7802351023EF
:1053A0000AE02B2C04BF2C78951CECE7002BF6D1DF
:1053B000302C14BF0A230823002206F1004C0CF104
:1053C000FF3CBCFBF3F9104603FB19CAA4F13007FC
:1053D000092F0FD83C46A3421BDD571C07D081453F
:1053E00014D301D1A24511DB012200FB034015F8C3
:1053F000014BEBE7A4F14107192F01D8373CEAE74D
:10540000A4F16107192F04D8573CE4E74FF0FF32AD
:10541000EDE7531C08D122236046CEF80030B8F1E6
:10542000000FA0D0691E06E006B14042B8F1000F9F
:1054300099D0002AF6D1C8F8001094E7C0BD000842
:10544000FFF784BF13460A46014602480068FFF78B
:105450007DBF00BF54000020002B2DE9F0471D4602
:10546000BBBF03F100431D4600232D2388B0144623
:10547000B8BF1446129A109E1370149BDDF84CA00E
:1054800023F02008B8F1460F05D0B8F1450F00D140
:105490000136022300E0032307AA049206AACDE9FD
:1054A00002A2CDE9003622462B4601F06DFAB8F192
:1054B000470F074619D1119BDB070ED500EB0609F4
:1054C0000022002320462946FBF758FA08B1CDF800
:1054D0001C903022079B4B451ED33846079B159ADC
:1054E000DB1B136008B0BDE8F087B8F1460F00EB96
:1054F0000609E5D10378302B0AD10022002320468B
:105500002946FBF73BFA18B9C6F10106CAF8006054
:10551000DAF800309944D3E7591C07911A70D9E79B
:10552000F7B50029B6BF2D232B2349420929027064
:10553000437029DD0DF1070425460A27B1FBF7F674
:10554000224607FB1613303302F8013C0B46632B4F
:10555000314604F1FF34F1DC3031931E04F8011CB4
:105560001C46411CAB420AD30DF109039B1AA5420C
:1055700038BF0023821C1344181A03B0F0BD13F87F
:10558000016B01F8016FEDE7302330318370C1709A
:10559000031DF1E72DE9F04F91B00C46DDF868806E
:1055A00016461F46054601F0C7F8036818460A93D9
:1055B000FAF7B8FD00230E93D8F8003094F818A03D
:1055C000073323F00703F3E80212D4F800B0CDE963
:1055D0000812C8F8003013460A46C4E91223DDE970
:1055E000088323F000490B904FF0FF3240464946B4
:1055F0009B4BFBF7F5F970BB4FF0FF324046494635
:10560000974BFBF7CFF930BBDDE9080100220023FF
:10561000FBF7BEF910B12D2384F84330914A924B29
:10562000BAF1470F8CBF9046984603234FF000090C
:1056300023612BF00403236033462146284600975C
:105640000FAA00F0D3F9013040F08F804FF0FF3007
:1056500011B0BDE8F08FDDE9082310461946FBF7CD
:10566000BFF940B1099B814A002BBCBF2D2384F8B0
:1056700043307F4BD4E763680AF0DF095A1C3ED100
:105680000623636000224BF48063236006920EAA17
:10569000CDE904A20DAA03920DF13302CDE9013246
:1056A000636828460093DDE90823FFF7D5FEB9F1CA
:1056B000470F80460D9929D1C81C02DB63688B42D5
:1056C00041DAAAF1020A5FFA8AFA5246013904F174
:1056D00050000D91FFF724FF0E9A81461318012AFE
:1056E000236102DC2268D20701D5013323619DF8D2
:1056F0003330002BA0D02D2384F843309CE7B9F140
:10570000470FBFD1002BBDD10123BAE7BAF1650F16
:10571000DBD9BAF1660F18D1002963680BDD21616E
:1057200013B92268D00702D501330B4423614FF02F
:105730000009A165DBE713B92268D20701D502335E
:10574000F4E70123F2E74FF0670A0E9B8B4205DC7A
:1057500023682161D807EAD54B1CE7E70029CCBFB5
:105760000122C1F102021344E0E723685A0507D47D
:105770002369424631462846B84701302BD165E7B8
:10578000BAF1650F40F2DC80D4E912010022002357
:10579000FBF7F4F8002833D0012331462846354A78
:1057A000B84701303FF452AFDDE90D38434502DB25
:1057B0002368D8070FD5DDE90A2331462846B847C4
:1057C00001303FF443AF4FF0000908F1FF3804F116
:1057D0001A0AC84509DC23689B0700F10281E068CA
:1057E0000F9B9842B8BF184632E701235246314614
:1057F0002846B84701303FF429AF09F10109E8E72D
:105800000D9B002B38DC012331462846194AB84746
:1058100001303FF41BAFDDE90D3959EA030302D132
:105820002368D907D7D5DDE90A2331462846B8478A
:1058300001303FF40BAF4FF0000A04F11A0B0D9B3F
:105840005B42534501DC4B4693E701235A46314600
:105850002846B84701303FF4F9AE0AF1010AEEE7F5
:10586000FFFFEF7F8BB9000887B9000893B90008E4
:105870008FB9000833B50008A36DDDF838A0534593
:10588000A8BF5346002B994636DC4FF0000B29EA9F
:10589000E97904F11A02A36D0893A3EB09035B45B0
:1058A00031DC0D9B9A453ADC2368DA0737D40D9B2F
:1058B000AAEB0309089BAAEB03039945A8BF9946E5
:1058C000B9F1000F33DC4FF0000829EAE97904F15F
:1058D0001A0B0D9BAAEB0303A3EB090343457FF7C8
:1058E0007AAF01235A4631462846B84701303FF483
:1058F000ADAE08F10108ECE7424631462846B8470C
:105900000130C2D1A2E60123314628460892B847A9
:1059100001303FF49BAE089A0BF1010BBBE7314617
:10592000DDE90A232846B8470130C0D18EE6089A3F
:105930004B46314628464244B8470130C3D185E63C
:10594000DDF838A0BAF1010F01DCDB0736D5012301
:10595000424631462846B84701303FF477AEDDE98C
:105960000A2331462846B84701303FF46FAED4E9E8
:105970001201002200230AF1FF3AFAF7FFFFC0B933
:10598000534608F1010231462846B84701300CD190
:105990005CE601235A4631462846B84701303FF4B9
:1059A00055AE08F10108D045F3DB4B4604F1500237
:1059B000E0E64FF0000804F11A0BF4E70123424639
:1059C000E1E701234A4631462846B84701303FF413
:1059D0003DAE08F10108E3680F995B1A4345F0DC1E
:1059E000FDE64FF0000804F11909F4E72DE9F0474E
:1059F000164698468A680B6907469342B8BF134615
:105A0000336091F843200C46DDF820900AB1013351
:105A100033602368990642BF3368023333602568D8
:105A200015F0060506D104F1190AE36832689B1ADD
:105A3000AB422BDC94F843302268003B18BF0123B3
:105A4000920630D44146384604F14302C84701303B
:105A500023D02368226903F00603042B14BF00251A
:105A600033684FF0000608BFE56804F11A0408BF68
:105A7000ED1A54F8123C08BF25EAE5759342C4BFFD
:105A80009B1AED18B5421AD1002008E001235246B6
:105A900041463846C847013003D14FF0FF30BDE8DA
:105AA000F0870135C1E73020E11881F843005A1C26
:105AB00094F845102244023382F84310C2E70123D0
:105AC000224641463846C8470130E6D00136D9E77C
:105AD0002DE9FF470F7E9146782F80460C469A4667
