:020000040800F2
:100000000050002055A600089DA600087D36000877
:100010009DA600089DA600089DA6000800000000FF
:100020000000000000000000000000009DA6000885
:100030009DA60008000000009DA600087936000873
:100040009DA600089DA600089DA600089DA6000884
:100050009DA600089DA600089DA600089DA6000874
:100060009DA600089DA600089DA600089DA6000864
:100070009DA600089DA600089DA600089DA6000854
:100080009DA600089DA600089DA600089DA6000844
:100090009DA600089DA600089DA600089DA6000834
:1000A0009DA600089DA600089DA600089DA6000824
:1000B000B9330008E13300089DA600089DA600089A
:1000C0009DA600089DA600089DA600089DA6000804
:1000D0009DA60008093400086D3400086135000849
:1000E0009DA600089DA600089DA60008000000002F
:1000F0000000000000000000000000000000000000
:0C01000000000000000000005FF808F1A3
:1001100010F8012B11F8013B012A28BF9A42F7D0B1
:10012000D01A7047034613F8012B002AFBD1181A86
:100130000138704781F0004102E000BF83F00043C6
:1001400030B54FEA41044FEA430594EA050F08BF72
:1001500090EA020F1FBF54EA000C55EA020C7FEA36
:10016000645C7FEA655C00F0E2804FEA5454D4EBB3
:100170005555B8BF6D420CDD2C4480EA020281EA7D
:10018000030382EA000083EA010180EA020281EAB5
:100190000303362D88BF30BD11F0004F4FEA013107
:1001A0004FF4801C4CEA113102D0404261EB410116
:1001B00013F0004F4FEA03334CEA133302D052429C
:1001C00063EB430394EA050F00F0A780A4F1010458
:1001D000D5F1200E0DDB02FA0EFC22FA05F2801892
:1001E00041F1000103FA0EF2801843FA05F3594178
:1001F0000EE0A5F120050EF1200E012A03FA0EFCF7
:1002000028BF4CF0020C43FA05F3C01851EBE37120
:1002100001F0004507D54FF0000EDCF1000C7EEB3D
:1002200000006EEB0101B1F5801F1BD3B1F5001F7B
:100230000CD349085FEA30004FEA3C0C04F101049A
:100240004FEA445212F5800F80F09A80BCF1004FC3
:1002500008BF5FEA500C50F1000041EB045141EA45
:10026000050130BD5FEA4C0C404141EB0101013C0E
:1002700028BFB1F5801FE9D291F0000F04BF0146FD
:100280000020B1FA81F308BF2033A3F10B03B3F1CF
:1002900020020CDA0C3208DD02F1140CC2F10C025F
:1002A00001FA0CF021FA02F10CE002F11402D8BFBD
:1002B000C2F1200C01FA02F120FA0CFCDCBF41EA89
:1002C0000C019040E41AA2BF01EB0451294330BD58
:1002D0006FEA04041F3C1CDA0C340EDC04F1140435
:1002E000C4F1200220FA04F001FA02F340EA03000C
:1002F00021FA04F345EA030130BDC4F10C04C4F152
:10030000200220FA02F001FA04F340EA0300294631
:1003100030BD21FA04F0294630BD94F0000F83F47B
:10032000801306BF81F480110134013D4EE77FEA5E
:10033000645C18BF7FEA655C29D094EA050F08BFAA
:1003400090EA020F05D054EA000C04BF194610468B
:1003500030BD91EA030F1EBF0021002030BD5FEACF
:10036000545C05D14000494128BF41F0004130BDF7
:1003700014F580043CBF01F5801130BD01F000454B
:1003800045F0FE4141F470014FF0000030BD7FEABE
:10039000645C1ABF194610467FEA655C1CBF0B46B9
:1003A000024650EA013406BF52EA033591EA030FD0
:1003B00041F4002130BD00BF90F0000F04BF0021C8
:1003C000704730B54FF4806404F132044FF00005FB
:1003D0004FF0000150E700BF90F0000F04BF002174
:1003E000704730B54FF4806404F1320410F00045DA
:1003F00048BF40424FF000013EE700BF42004FEAD5
:10040000E2014FEA31014FEA02701FBF12F07F4351
:1004100093F07F4F81F06051704732F07F4208BF08
:10042000704793F07F4F04BF41F40021704730B50F
:100430004FF4607401F0004521F000411CE700BF5B
:1004400050EA010208BF704730B54FF000050AE0DE
:1004500050EA010208BF704730B511F0004502D5DF
:10046000404261EB41014FF4806404F132045FEAE1
:10047000915C3FF4D8AE4FF003025FEADC0C18BF8A
:1004800003325FEADC0C18BF033202EBDC02C2F17C
:10049000200300FA03FC20FA02F001FA03FE40EA0E
:1004A0000E0021FA02F11444BDE600BF70B54FF012
:1004B000FF0C4CF4E06C1CEA11541DBF1CEA1355F0
:1004C00094EA0C0F95EA0C0F00F0DEF82C4481EA58
:1004D000030621EA4C5123EA4C5350EA013518BF78
:1004E00052EA033541F4801143F4801338D0A0FB65
:1004F00002CE4FF00005E1FB02E506F00042E0FB12
:1005000003E54FF00006E1FB03569CF0000F18BF17
:100510004EF0010EA4F1FF04B6F5007F64F54074BF
:1005200004D25FEA4E0E6D4146EB060642EAC62152
:1005300041EA55514FEAC52040EA5E504FEACE2EBF
:10054000B4F1FD0C88BFBCF5E06F1ED8BEF1004FC2
:1005500008BF5FEA500E50F1000041EB045170BD3E
:1005600006F0004646EA010140EA020081EA030182
:10057000B4EB5C04C2BFD4EB0C0541EA045170BD7E
:1005800041F480114FF0000E013C00F3AB8014F1F8
:10059000360FDEBF002001F0004170BDC4F1000441
:1005A000203C35DA0C341BDC04F11404C4F12005C2
:1005B00000FA05F320FA04F001FA05F240EA02001D
:1005C00001F0004221F0004110EBD37021FA04F653
:1005D00042EB06015EEA430E08BF20EAD37070BD0D
:1005E000C4F10C04C4F1200500FA04F320FA05F06C
:1005F00001FA04F240EA020001F0004110EBD3706E
:1006000041F100015EEA430E08BF20EAD37070BDDD
:10061000C4F1200500FA05F24EEA020E20FA04F3B6
:1006200001FA05F243EA020321FA04F001F0004165
:1006300021FA04F220EA020000EBD3705EEA430ED6
:1006400008BF20EAD37070BD94F0000F0FD101F005
:100650000046400041EB010111F4801F08BF013C3E
:10066000F7D041EA060195F0000F18BF704703F07C
:100670000046520043EB030313F4801F08BF013D03
:10068000F7D043EA0603704794EA0C0F0CEA1355BF
:1006900018BF95EA0C0F0CD050EA410618BF52EA79
:1006A0004306D1D181EA030101F000414FF000007F
:1006B00070BD50EA410606BF1046194652EA43068D
:1006C00019D094EA0C0F02D150EA013613D195EA01
:1006D0000C0F05D152EA03361CBF104619460AD149
:1006E00081EA030101F0004141F0FE4141F4700153
:1006F0004FF0000070BD41F0FE4141F4780170BD43
:1007000070B54FF0FF0C4CF4E06C1CEA11541DBFA7
:100710001CEA135594EA0C0F95EA0C0F00F0A7F8A9
:10072000A4EB050481EA030E52EA03354FEA0131D6
:1007300000F088804FEA03334FF0805545EA1313E9
:1007400043EA12634FEA022245EA111545EA1065B1
:100750004FEA00260EF000419D4208BF964244F148
:10076000FD0404F5407402D25B084FEA3202B61A67
:1007700065EB03055B084FEA32024FF480104FF43B
:10078000002CB6EB020E75EB030E22BFB61A7546AF
:1007900040EA0C005B084FEA3202B6EB020E75EB42
:1007A000030E22BFB61A754640EA5C005B084FEAAA
:1007B0003202B6EB020E75EB030E22BFB61A754677
:1007C00040EA9C005B084FEA3202B6EB020E75EB82
:1007D000030E22BFB61A754640EADC0055EA060E43
:1007E00018D04FEA051545EA16754FEA06164FEA86
:1007F000C30343EA52734FEAC2025FEA1C1CC0D132
:1008000011F4801F0BD141EA00014FF000004FF0BE
:10081000004CB6E711F4801F04BF01430020B4F17F
:10082000FD0C88BFBCF5E06F3FF6AFAEB5EB030C37
:1008300004BFB6EB020C5FEA500C50F1000041EB34
:10084000045170BD0EF0004E4EEA113114EB5C0401
:10085000C2BFD4EB0C0541EA045170BD41F48011D4
:100860004FF0000E013C90E645EA060E8DE60CEADC
:10087000135594EA0C0F08BF95EA0C0F3FF43BAFF9
:1008800094EA0C0F0AD150EA01347FF434AF95EAB0
:100890000C0F7FF425AF104619462CE795EA0C0F94
:1008A00006D152EA03353FF4FDAE1046194622E761
:1008B00050EA410618BF52EA43067FF4C5AE50EA3B
:1008C00041047FF40DAF52EA43057FF4EBAE12E72B
:1008D0004FF0FF3C06E000BF4FF0010C02E000BF0C
:1008E0004FF0010C4DF804CD4FEA410C7FEA6C5CEF
:1008F0004FEA430C18BF7FEA6C5C1BD001B050EA92
:10090000410C0CBF52EA430C91EA030F02BF90EA7C
:10091000020F0020704710F1000F91EA030F58BF3B
:10092000994208BF90422CBFD8176FEAE37040F09D
:10093000010070474FEA410C7FEA6C5C02D150EA3B
:10094000013C07D14FEA430C7FEA6C5CD6D152EAF6
:10095000033CD3D05DF8040B704700BF84461046BB
:1009600062468C461946634600E000BF01B5FFF7BA
:10097000B7FF002848BF10F1000F01BD4DF808ED8A
:10098000FFF7F4FF0CBF012000205DF808FB00BF5B
:100990004DF808EDFFF7EAFF34BF012000205DF8B5
:1009A00008FB00BF4DF808EDFFF7E0FF94BF012002
:1009B00000205DF808FB00BF4DF808EDFFF7CEFF03
:1009C00094BF012000205DF808FB00BF4DF808ED42
:1009D000FFF7C4FF34BF012000205DF808FB00BF13
:1009E0004FEA410C7FEA6C5C02D150EA013C0AD12B
:1009F0004FEA430C7FEA6C5C02D152EA033C02D11D
:100A00004FF0000070474FF0010070474FEA41027D
:100A100012F5001215D211D56FF47873B3EB625250
:100A200012D94FEAC12343F0004343EA505311F077
:100A3000004F23FA02F018BF404270474FF0000009
:100A4000704750EA013005D111F0004008BF6FF047
:100A5000004070474FF00000704700BF4A0011D2BD
:100A600012F5001211D20DD56FF47873B3EB625208
:100A70000ED44FEAC12343F0004343EA505323FA14
:100A800002F070474FF00000704750EA013002D189
:100A90004FF0FF3070474FF0000070474FEA4102BF
:100AA000B2F1E04324BFB3F5001CDCF1FE5C0DD9CC
:100AB00001F0004C4FEAC0024CEA5070B2F1004F16
:100AC00040EB830008BF20F00100704711F0804F19
:100AD00021D113F13872BCBF01F00040704741F4DE
:100AE00080114FEA5252C2F11802C2F1200C10FAE2
:100AF0000CF320FA02F018BF40F001004FEAC123C6
:100B00004FEAD32303FA0CFC40EA0C0023FA02F369
:100B10004FEA4303CCE77FEA625307D150EA01333F
:100B20001EBF4FF0FE4040F44000704701F000400F
:100B300040F0FE4040F40000704700BF80F00040ED
:100B400002E000BF81F0004142001FBF5FEA4103A5
:100B500092EA030F7FEA226C7FEA236C6AD04FEAA5
:100B60001262D2EB1363C1BFD218414048404140EA
:100B7000B8BF5B42192B88BF704710F0004F40F49C
:100B8000000020F07F4018BF404211F0004F41F4B8
:100B9000000121F07F4118BF494292EA030F3FD084
:100BA000A2F1010241FA03FC10EB0C00C3F1200397
:100BB00001FA03F100F0004302D5494260EB400026
:100BC000B0F5000F13D3B0F1807F06D340084FEA91
:100BD000310102F10102FE2A51D2B1F1004F40EB86
:100BE000C25008BF20F0010040EA030070474900EE
:100BF00040EB0000013A28BFB0F5000FEDD2B0FA8B
:100C000080FCACF1080CB2EB0C0200FA0CF0AABFAD
:100C100000EBC25052421843BCBFD040184370474B
:100C200092F0000F81F4000106BF80F40000013251
:100C3000013BB5E74FEA41037FEA226C18BF7FEA28
:100C4000236C21D092EA030F04D092F0000F08BF6A
:100C50000846704790EA010F1CBF0020704712F051
:100C60007F4F04D1400028BF40F00040704712F190
:100C700000723CBF00F50000704700F0004343F0F5
:100C8000FE4040F4000070477FEA226216BF08462B
:100C90007FEA23630146420206BF5FEA412390EAEE
:100CA000010F40F4800070474FF0000304E000BFE4
:100CB00010F0004348BF40425FEA000C08BF704795
:100CC00043F0964301464FF000001CE050EA010259
:100CD00008BF70474FF000030AE000BF50EA01026E
:100CE00008BF704711F0004302D5404261EB41015B
:100CF0005FEA010C02BF84460146002043F0B64380
:100D000008BFA3F18053A3F50003BCFA8CF2083AA4
:100D1000A3EBC25310DB01FA02FC634400FA02FCAD
:100D2000C2F12002BCF1004F20FA02F243EB0200B4
:100D300008BF20F00100704702F1200201FA02FC16
:100D4000C2F1200250EA4C0021FA02F243EB020009
:100D500008BF20EADC7070474FF0FF0C1CEAD0524D
:100D60001EBF1CEAD15392EA0C0F93EA0C0F6FD00E
:100D70001A4480EA010C400218BF5FEA41211ED0EC
:100D80004FF0006343EA501043EA5111A0FB0131D8
:100D90000CF00040B1F5000F3EBF490041EAD371AD
:100DA0005B0040EA010062F17F02FD2A1DD8B3F129
:100DB000004F40EBC25008BF20F00100704790F098
:100DC000000F0CF0004C08BF49024CEA502040EAEA
:100DD00051207F3AC2BFD2F1FF0340EAC2507047B0
:100DE00040F400004FF00003013A5DDC12F1190FEE
:100DF000DCBF00F000407047C2F10002410021FA60
:100E000002F1C2F1200200FA02FC5FEA310040F177
:100E1000000053EA4C0308BF20EADC70704792F0F0
:100E2000000F00F0004C02BF400010F4000F013A28
:100E3000F9D040EA0C0093F0000F01F0004C02BF23
:100E4000490011F4000F013BF9D041EA0C018FE792
:100E50000CEAD15392EA0C0F18BF93EA0C0F0AD098
:100E600030F0004C18BF31F0004CD8D180EA0100BE
:100E700000F00040704790F0000F17BF90F0004F57
:100E8000084691F0000F91F0004F14D092EA0C0F39
:100E900001D142020FD193EA0C0F03D14B0218BFCC
:100EA000084608D180EA010000F0004040F0FE4012
:100EB00040F40000704740F0FE4040F440007047AE
:100EC0004FF0FF0C1CEAD0521EBF1CEAD15392EA2D
:100ED0000C0F93EA0C0F69D0A2EB030280EA010C1D
:100EE00049024FEA402037D04FF0805343EA1111B6
:100EF00043EA10130CF000408B4238BF5B0042F114
:100F00007D024FF4000C8B4224BF5B1A40EA0C00B8
:100F1000B3EB510F24BFA3EB510340EA5C00B3EBEA
:100F2000910F24BFA3EB910340EA9C00B3EBD10FD8
:100F300024BFA3EBD10340EADC001B0118BF5FEA2A
:100F40001C1CE0D1FD2A3FF650AF8B4240EBC25053
:100F500008BF20F0010070470CF0004C4CEA502014
:100F60007F32C2BFD2F1FF0340EAC250704740F463
:100F700000004FF00003013A37E792F0000F00F055
:100F8000004C02BF400010F4000F013AF9D040EAD3
:100F90000C0093F0000F01F0004C02BF490011F467
:100FA000000F013BF9D041EA0C0195E70CEAD1535F
:100FB00092EA0C0F08D142027FF47DAF93EA0C0F46
:100FC0007FF470AF084676E793EA0C0F04D14B022A
:100FD0003FF44CAF08466EE730F0004C18BF31F0DC
:100FE000004CCAD130F000427FF45CAF31F00043D6
:100FF0007FF43CAF5FE700BF4FF0FF3C06E000BF6F
:101000004FF0010C02E000BF4FF0010C4DF804CD91
:101010004FEA40024FEA41037FEA226C18BF7FEAA1
:10102000236C11D001B052EA530C18BF90EA010FA3
:1010300058BFB2EB030088BFC81738BF6FEAE17032
:1010400018BF40F0010070477FEA226C02D15FEACE
:10105000402C05D17FEA236CE4D15FEA412CE1D03A
:101060005DF8040B704700BF844608466146FFE701
:101070000FB5FFF7C9FF002848BF10F1000F0FBDE3
:101080004DF808EDFFF7F4FF0CBF012000205DF8DC
:1010900008FB00BF4DF808EDFFF7EAFF34BF012061
:1010A00000205DF808FB00BF4DF808EDFFF7E0FFFA
:1010B00094BF012000205DF808FB00BF4DF808ED4B
:1010C000FFF7D2FF94BF012000205DF808FB00BFAE
:1010D0004DF808EDFFF7C8FF34BF012000205DF890
:1010E00008FB00BF4FEA4002B2F1FE4F0FD34FF0B2
:1010F0009E03B3EB12620DD94FEA002343F0004385
:1011000010F0004F23FA02F018BF404270474FF032
:101110000000704712F1610F01D1420205D110F0B9
:10112000004008BF6FF0004070474FF0000070476C
:1011300042000ED2B2F1FE4F0BD34FF09E03B3EB41
:10114000126209D44FEA002343F0004323FA02F06D
:1011500070474FF00000704712F1610F01D1420259
:1011600002D14FF0FF3070474FF00000704700BFD2
:101170000348044B834202D0034B03B11847704726
:101180001402002014020020000000000548064B55
:101190001B1AD90F01EBA301491002D0034B03B175
:1011A00018477047140200201402002000000000BD
:1011B00010B5064C237843B9FFF7DAFF044B13B19F
:1011C0000448AFF300800123237010BD14020020F7
:1011D00000000000A0A6000808B5054B1BB105499A
:1011E0000548AFF30080BDE80840FFF7CFBF00BF60
:1011F0000000000018020020A0A6000870470000B0
:1012000038B50E4B05461A784FF47A73B3FBF2F3F8
:101210000B4A1068B0FBF3F000F09CF8044658B994
:101220000F2D09D8024629464FF0FF3000F054F840
:101230002046044B1D6038BD0120FCE70000002063
:101240001002002004000020074A08B5136803209C
:1012500043F01003136000F02DF80F20FFF7D0FFCC
:10126000FFF7CCFF002008BD00200240034A044BDA
:1012700011681B780B441360704700BF30020020D8
:1012800000000020014B1868704700BF30020020AA
:1012900038B50446FFF7F6FF0546631C1EBF044B36
:1012A0001B78E418FFF7EEFF431BA342FAD338BDC7
:1012B0000000002007490302CA6803F4E06322F437
:1012C000E0621204120C134343F0BF6343F4003393
:1012D000CB60704700ED00E0154B30B5DC68C4F31F
:1012E0000224C4F10703251D042B28BF0423062D67
:1012F0004FF0FF3594BF0024033C05FA03F321EAC5
:101300000303A54022EA0502A340002843EA0203A2
:10131000ACBF00F16040074A4FEA0313DBB2ABBF3A
:1013200000F5614000F00F0080F80033135430BD29
:1013300000ED00E014ED00E0002807DB0123410987
:10134000034A00F01F00834042F82130704700BF7D
:1013500000E100E00138B0F1807F0BD24FF0E023D4
:10136000F021054A586182F8231000200722986175
:101370001A6170470120704700ED00E02DE9F74F3A
:1013800000244FF00F0E2646DFF884C1614B00F1B8
:1013900004080A6832FA06F502D103B0BDE8F08FFE
:1013A000012505FA06F702EA070537EA020276D1B7
:1013B0004A68032A07D8013A022A00F28380DFE84C
:1013C00002F091969C00122A00F0948069D8112AAC
:1013D00000F08A80FF2D94BF8146C1464FEA860205
:1013E000D9F8007088BF203A0EFA02FA27EA0A07F5
:1013F00004FA02F21743C9F80070D1F8049019F00A
:10140000805F4CD0DCF8182026F0030742F0010280
:10141000CCF81820DCF8182007F1804702F0010210
:10142000019207F5803706F0030A019A4FEA8A0A0B
:10143000BA680EFA0AFB22EA0B0B374A904260D0D8
:1014400002F5806290425ED002F5806290425CD0EC
:1014500002F58062904214BF0422032202FA0AF2CB
:1014600042EA0B02BA609A6819F4801F14BF2A433B
:10147000AA439A60DA6819F4001F14BF2A43AA43EA
:10148000DA605A6819F4003F14BF2A43AA435A602D
:101490001A6819F4803F14BF2A43AA431A60013620
:1014A00077E7DFF878904A450CD014D8A9F5801971
:1014B0004A4507D009F570294A4503D0A9F5801996
:1014C0004A4587D18A68D2B1012A4FF008040CBF7F
:1014D000076147617EE7DFF848904A45F2D009F599
:1014E0008039EDE7CC6875E7CC68043472E7CC68E6
:1014F00008346FE7CC680C346CE700246AE70424F6
:1015000068E70022AAE70122A8E70222A6E700BFB7
:1015100000100240000401400008014000002210B9
:101520000000311080680840003818BF0120704763
:101530000AB1016170470904FBE7C36801EA0302CD
:1015400021EA030141EA0241016170472DE9F341BB
:10155000054638B30368DB0710D42B689F075ED4B9
:101560002B68190700F195802B685A0700F1C1809C
:10157000EB69002B40F02C81002029E0904C63683F
:1015800003F00C03042B07D0636803F00C03082B53
:101590000AD16368DE0307D523689C03DDD56B6839
:1015A000002BDAD1012013E06B68B3F5803F12D134
:1015B000236843F480332360FFF764FE0646236804
:1015C0009803CAD4FFF75EFE801B6428F7D9032076
:1015D00002B0BDE8F0819BB9236823F48033236017
:1015E000236823F480232360FFF74CFE064623681C
:1015F0009903B2D5FFF746FE801B6428F7D9E6E7CA
:10160000B3F5A02F236803D143F480232360CFE7F1
:1016100023F480332360236823F48023CBE7684CD2
:10162000636813F00C0F07D0636803F00C03082BFA
:1016300010D16368DA030DD423689B0702D52B69A8
:10164000012BAFD123686A6923F0F80343EAC20390
:10165000236085E72A695B4B6AB101221A60FFF7B4
:1016600011FE064623689F07ECD4FFF70BFE801B94
:101670000228F7D9ABE71A60FFF704FE0646236895
:1016800098077FF56DAFFFF7FDFD801B0228F6D9A7
:101690009DE7AA694A4E4B4BE2B10122C3F8802470
:1016A000FFF7F0FD0446736A9B070DD54FF4FA521D
:1016B000454B1B68B3FBF2F3019300BF019B5A1E1D
:1016C0000192002BF9D14FE7FFF7DCFD001B022848
:1016D000E9D97CE7C3F88024FFF7D4FD0446736A98
:1016E0009F077FF541AFFFF7CDFD001B0228F6D91C
:1016F0006DE7334CE369D80024D40127E36943F054
:101700008053E361E36903F080530093009B2F4E05
:101710003368D90518D5EB68012B26D1236A43F02D
:1017200001032362FFF7AEFD41F288380646236AC3
:101730009B073FD5002F3FF41BAFE36923F0805395
:10174000E36115E70027E2E7336843F48073336011
:10175000FFF798FD80463368DA05DCD4FFF792FD89
:10176000A0EB08006428F6D931E7ABB9236A41F24F
:10177000883823F001032362236A23F004032362E1
:10178000FFF780FD0646236A9807D3D5FFF77AFD59
:10179000801B4045F7D91AE7052B236A03D143F094
:1017A00004032362BAE723F001032362236A23F0D0
:1017B0000403B6E7FFF766FD801B4045B7D906E78F
:1017C0000010024000004242100200200070004061
:1017D0002A4C626802F00C02082A3ED00022022B3A
:1017E000274B1A662CD1FFF74DFD06462368990159
:1017F00020D42B6AB3F5803F05D16268A96822F432
:1018000000320A436260696A62680B4322F4741210
:101810001343012263601A4B1A66FFF733FD054636
:1018200023689A013FF5A8AEFFF72CFD401B022864
:10183000F6D9CCE6FFF726FD801B0228D6D9C6E6EE
:10184000FFF720FD054623689B017FF595AEFFF766
:1018500019FD401B0228F6D9B9E6012B3FF4A2AED0
:1018600060682B6A00F480329A427FF49BAE6B6A08
:1018700000F47010C01A18BF0120A9E60010024041
:10188000000042420D4A536803F00C01082912D1AE
:101890000B48C3F38341DB03405C09D55368094A15
:1018A000C3F340435043084AD35CB0FBF3F07047A6
:1018B000064B584370470348704700BF0010024072
:1018C000F2A6000800127A00F0A6000800093D0008
:1018D0002DE9F0410D46044610B90120BDE8F08124
:1018E000444A136803F007038B4228D321688E070C
:1018F00030D4CA0743D43F4A136803F00703AB420E
:1019000065D822683C4D12F0040F6CD1130706D540
:101910006B68226923F4605343EAC2036B60FFF7EC
:10192000B1FF6B68354AC3F30313D35CD840344B23
:101930001860344B1868FFF763FC0020CEE713688B
:1019400023F007030B431360136803F007038B4274
:10195000C3D1CBE7284B11F0040F1EBF5A6842F4E5
:10196000E0625A60080742BF5A6842F460525A6007
:101970005A68A06822F0F00202435A60B9E7626830
:101980001D4E012A33681AD113F4003FA5D07368A5
:1019900041F2883823F0030313437360FFF772FCAE
:1019A00007467368626803F00C03B3EB820FA2D0A2
:1019B000FFF768FCC01B4045F3D903208EE7022ADD
:1019C00002D113F0007FE1E713F0020FDEE71368A6
:1019D00023F007032B431360136803F00703AB42A4
:1019E0007FF47BAF8DE76B68E16823F4E0630B4322
:1019F0006B608BE7002002400010024088C10008A5
:101A00001002002004000020044B054A5B68C3F369
:101A10000223D35C034A1068D8407047001002408C
:101A200080C1000810020020044B054A5B68C3F324
:101A3000C223D35C034A1068D840704700100240AC
:101A400080C10008100200207047000090F83D306F
:101A5000012B1CD102230F4A80F83D3003689342CA
:101A60000AD0B3F1804F07D0A2F59432934203D04D
:101A700002F58062934204D19A6802F00702062AB6
:101A800003D01A6842F001021A600020704701205A
:101A9000704700BF002C0140174A036890420AD0EB
:101AA000B0F1804F07D0A2F59432904203D002F5F6
:101AB0008062904207D14A6823F070031343CA68DA
:101AC00023F4407313434A6923F0800313430360F4
:101AD0008B68C3620B688362074B984204BF0B6933
:101AE0000363012343610369DB0742BF036923F0FA
:101AF00001030361704700BF002C014010B504468C
:101B000030B390F83D3003F0FF021BB980F83C2061
:101B1000FFF79AFF0223206884F83D30211DFFF76C
:101B2000BBFF0123002084F8463084F83E3084F85F
:101B30003F3084F8403084F8413084F8423084F8F3
:101B4000433084F8443084F8453084F83D3010BD8B
:101B50000120FCE7026802F10C0353E8003F23F484
:101B600090730C3242E8003102680029F2D102F190
:101B7000140353E8003F23F0010302F1140C4CE876
:101B800000310029F3D1036B012B0BD102F10C03BF
:101B900053E8003F23F0100302F10C0C4CE8003135
:101BA0000029F3D1202380F84230002303637047DB
:101BB00010B504460368C1681A6922F440520A430A
:101BC0001A6182680069D9680243606921F4B051E2
:101BD00021F00C0102430A43DA605A69A16922F438
:101BE00040720A435A610E4A934215D1FFF71CFF17
:101BF00019234343626820689200B3FBF2F3642226
:101C0000B3FBF2F102FB11331B013233B3FBF2F3EE
:101C100003EB0113836010BDFFF7F6FEE8E700BF9A
:101C200000380140F7B505460C4617461E462A689F
:101C3000136834EA030301D1002021E0701CF7D0BF
:101C4000FFF720FBC01B86421CD3DEB12B68DA688D
:101C50005107ECD5802CEAD0402CE8D01A68120746
:101C6000E5D5002401941A68284601925B68019327
:101C7000019BFFF76FFF082301206B6485F840404C
:101C800003B0F0BD0320FBE7704710B5044648B32E
:101C900090F8413003F0FF021BB980F84020FFF7B5
:101CA000F3FF2423226884F84130D368204623F4CC
:101CB0000053D360FFF77CFF236800201A6922F4E9
:101CC00090421A615A6922F02A025A61DA6842F493
:101CD0000052DA602023606484F8413084F8423096
:101CE000606310BD0120FCE72DE9F843984690F8A9
:101CF00041300446202B0E4617463FD100293FD0E5
:101D0000002A3DD021230025456480F84130FFF7AB
:101D1000B9FAA3688146B3F5805FA784E78403D14D
:101D200023690BB935461E46E38C9BB253B9434633
:101D30004A4640212046FFF775FF202350B984F81A
:101D400041300AE043464A4680212046FFF76AFFB9
:101D500028B12023032084F84130BDE8F8832268AD
:101D60004EB935F8023BC3F308035360E18C0139E7
:101D700089B2E184D8E716F8013BF6E70220ECE7E8
:101D80000120EAE7002310B503638364C36403649E
:101D90000446FFF777FA012384F85430206510BD1C
:101DA000002310B5C36003610446FFF76BFAE061DE
:101DB00010BD00002DE9F04F91B01F469DF868302E
:101DC00082460A931B9B89460C931C9BBDF9748029
:101DD00009931E9B0B920D931F9B0E9382EAE27355
:101DE000A3EBE2739BB2B3F5C87F00F2B381434526
:101DF00040F3B0811046FEF75BFF3A7C05464FF09A
:101E00007E5B002A40F0F48001233860C7F804B0FC
:101E10003B74FFF737FA0646D9F85000301AFEF740
:101E200043FF8E49FFF74CF88D490446FFF732F91E
:101E3000002840F002814FF07E512046FFF748F91C
:101E400008B14FF07E54D9F80010C9F85060284608
:101E5000FEF782FF0646D9F848102846FEF772FEC4
:101E60002146FFF72DF8D9F80810C9F84850FEF7B9
:101E700073FF3146FEF768FED9F8606004463146CC
:101E8000FFF726F900B13446D9F85C6020463146A8
:101E9000FFF700F900B134464FF07E512046FFF7BE
:101EA00017F9002840F0CB8020466E49FFF7F2F882
:101EB00000B16C4C0A9B0BB104F100440021204698
:101EC000FFF7FCF8B0FA80F300215B0920460A9383
:101ED000FFF7F4F8002840F0B58004F1004B4046CD
:101EE000FEF7E6FED9F8046080463146FFF7E6F8D3
:101EF00028B14FF07E514046FEF726FE06460021EF
:101F00002846FFF7E5F8002840F09E8005F10040E4
:101F10004146FEF717FE41460F903046FEF712FE8F
:101F200001460F98FEF7CCFF00218046FFF7B2F87C
:101F3000002840F08B804FF07E514046FFF7C8F8F4
:101F400008B14FF07E5859464046FFF7A3F80028E5
:101F50007FD040460E99FEF7FFFE00210646FFF7B0
:101F600099F800B1002640493046FEF7F5FEFFF72C
:101F7000DFF844F62063A3EB000B9B4528BF9B468C
:101F800041F288339B4538BF9B460D9B002B71D097
:101F9000504603F0DCF900210D902046FFF78EF843
:101FA0000D9B002857D0581C00F5C870B0F5487F2D
:101FB00060D9504603F0C9F910B1504603F01EF93C
:101FC0004846FFF7DFFE002300223B74099B1A609E
:101FD000264B1A78002A40F0988001221A704FF49C
:101FE000C8720C99224811B0BDE8F04F04F0CEB988
:101FF000B9687868FEF7A8FDF9680446FEF7A4FD05
:1020000001462046FEF75CFF06463A682846114620
:102010000F92FEF797FD3146FEF79EFE0F9A11468E
:10202000FEF792FD3146386005465846FEF78AFDB8
:102030002146FEF791FE7860EBE6094C03E74FF08E
:102040007E5437E7A3464AE7284661E74FF0000889
:1020500079E758467EE7581EA6E700BF00007A449D
:102060006F12833A000080BF00606A46360200208B
:1020700002A70008099B58461C68FEF715FE0021C0
:1020800007462046FEF7FCFF78B94FF07C5120460A
:10209000FEF762FE4FF07C5104463846FEF75CFEC8
:1020A00001462046FEF750FD0746099B4FF07C5144
:1020B0001F603846FEF748FDFFF73AF844F6206304
:1020C000984228BF184641F28833834698420A99BD
:1020D000504638BF9B4602F035FF504603F035F9B5
:1020E000012802D0504602F089FF5946504602F0BE
:1020F0005DFF204A2049BAEB020218BF01228B5C27
:102100000133DBB2042B03D88B5411B0BDE8F08F40
:10211000002328468B54FEF771F9044630460D46DD
:10212000FEF76CF9064640460F46FEF767F9804613
:102130005046894603F00BF9DDE90B21CDE906B0E5
:10214000CDE90489CDE90267CDE900450B4804F0EB
:102150001DF9DAE7504603F0F8F810B1504603F0E5
:102160004DF84846FFF70EFE002300223B74099B02
:102170001A60CAE7280700203402002030A70008B0
:10218000F0B51E4E3368DB689B0436D572B61C4D25
:102190001C4B1D4F01442A881C880132A4B2C2F393
:1021A0000802A24208BF1C8810F801CB02BF01340C
:1021B000C4F308041C802C888842A4B207F804C029
:1021C0002A80E8D162B611480278B2B929881A8803
:1021D00089B292B2914210D0012202701A8892B252
:1021E000B95C1A88C9B20132C2F308021A80336896
:1021F0005960DA6842F08002DA60F0BDC80700205A
:10220000E4020020E2020020E6020020E1020020B9
:102210000FB407B504AB53F8042B80210648019393
:1022200004F01CFA011E02DD0348FFF7A9FF03B00A
:102230005DF804EB04B070473C0200200021F0B5CB
:10224000944B954D1A78954BD2B289B09954187821
:102250001C46A0F10A02D2B2162A194603F1010364
:1022600062D825FA02F2D207F1D48D4A601E1331EA
:1022700010F8013F0BB188425AD1002389498A489E
:10228000137004F040FB2578782D7DD059D8592D56
:1022900000F0A6805A2D58D0582D75D00322204624
:1022A000824904F093FA38B103222046804904F0B1
:1022B0008DFA002840F0D38000238DF81730069364
:1022C0000023079307AB00937A4906AB0DF1170281
:1022D000E01C04F023F9032840F0BC809DF817307F
:1022E000754943F02003742B06A807BF734C744D47
:1022F000744C754DFDF70CFF002840F09980079B4A
:1023000023600622714B1A70FEF7BCFF704B9630AB
:1023100018600798FEF772F8CDE9000129466D486C
:1023200006AAFFF775FF01E000289ED109B0F0BDB5
:10233000A3F16105192D9CBF203BDBB202F8013BE4
:1023400096E7792D4CD07A2DA8D1634802F0B4FEDF
:10235000624802F0B1FE0023614A5A481360614AA4
:102360001360FFF71DFD5548FFF71AFD0622574B76
:102370001A70FEF787FF564B963018605A4809B01E
:10238000BDE8F040FFF744BF0023584907AA601C8E
:10239000079304F0C3F801281ED14FF08B41079832
:1023A000FEF7DAFC5249FEF78BFDFEF79BFE062294
:1023B000464B4B4C1A702060FEF764FF444B96303E
:1023C00018600798FEF71AF80B462168024649483C
:1023D0000091FFF71DFFA9E74748FFF719FFA5E7A1
:1023E0000023424907AA601C079304F097F80128CC
:1023F0001CD14FF08B410798FEF7AEFC3C49FEF72D
:102400005FFDFEF76FFE0622304B364C1A702060DF
:10241000FEF738FF2E4B963018600798FDF7EEFF59
:102420000B462168024600913448D2E73448D4E78D
:10243000344906A8FDF76CFE10B9079B636060E79E
:10244000314906A8FDF764FE002840F0C782079BCB
:10245000A36056E72D48FFF7DBFE2D48BDE705F0EA
:10246000DF054B2D09D10522184B1A70FEF70AFF24
:10247000174B96301860274881E74D2D4ED1062224
:10248000124B1A70FEF7FEFE114B96301860224870
:1024900075E700BFA306002009004000A406002045
:1024A000FA04002096A70008E604002063A80008AC
:1024B00067A800086BA8000876A800084C05002053
:1024C00071A700087005002076A7000844000020CE
:1024D0007C060020A8A8000828070020D0060020BD
:1024E000480500204405002038A8000873A800080B
:1024F0000000B44399A70008BCA70008E8A700089B
:102500000CA8000879A800087CA80008CBA800083F
:10251000F6A800080EA9000837A9000808222046DE
:10252000844904F053F930B108222046824904F06E
:102530004DF9002834D1002380498DF818300793D5
:1025400006AA07AB04F1080003F0E8FF022821D136
:102550009DF8183043F02003702B15D1784B079A63
:102560001A60FEF78FFE774B963018609DF8183092
:102570007548764943F02003702B18BF0146079A2F
:102580007348FFF745FED1E6742B01D1714BE6E7A6
:10259000714822E76F4B71481A68694B1968F0E778
:1025A000052220466E4904F011F96E4F30B1052224
:1025B00020466D4904F00AF9002843D14FF4967380
:1025C0006A4907AA601D079303F0A8FF079D684B9F
:1025D000B5F5006FA8BF4FF40065322DB8BF3225A6
:1025E0009A6C644B644C9B6C511B581B2B44C4E984
:1025F0000531E36100232A44C4E90220226101225B
:102600005E4E216033705E4B60601A70FEF73AFEDA
:102610005C4B2268186007233B705B4B5B481A6079
:1026200062685B4B1A60FFF7BBFB5A48FFF7B8FBC9
:1026300029463278584803F0A9FE07995748FFF712
:10264000E7FD73E604222046554904F0BFF828B19F
:1026500004222046534904F0B9F860B90022484BDF
:1026600043481A7002F0CAFD424802F0C7FD062333
:102670004D483B7083E63B78052B06D14B494C48CF
:1026800009B0BDE8F040FFF7C3BD03233B70FEF780
:10269000F9FD2C4B9630186000224FF4005145484C
:1026A000FEF746FF41494448FFF7B2FD2678A6F100
:1026B0003F03352B00F29781DFE813F015019501F8
:1026C000DC009501D000F0009501C2002301C90093
:1026D00009019501950195019501950195018400E8
:1026E00095019501E800BD009501950195019501C1
:1026F000950195019501950195019501950195012A
:10270000DC009501D000F0009501C2002301C90052
:10271000FD00950195019501950195019501360002
:1027200095019501E800BD00244B114A24481A6028
:1027300025E600BF5AA9000863A900086CA9000893
:10274000100000207C06002071A7000876A7000872
:102750008EA900080C00002073A90008ABA900088E
:10276000C9A9000844000020CFA9000870A90008EA
:1027700028070020D006002018050020380500207A
:1027800039050020140500204805002070050020B0
:10279000440500204C050020D5A9000809AA00081E
:1027A0002CAA000831AA000836AA0008A4060020B6
:1027B00044AA00080010014058AA00083C0000206C
:1027C00061AA0008954E3068FDF718FE0446B0680F
:1027D0000D46FDF713FECDE902017068FDF70EFE10
:1027E00022462B46CDE900018D48FFF711FD8D4BA8
:1027F0008D4E1A7802218D48FFF70AFD3068FDF7EB
:10280000FDFD0446B0680D46FDF7F8FDCDE9020177
:102810007068FDF7F3FD2246CDE900012B468448A0
:10282000FFF7F6FC0321834B80481A7809B0BDE816
:10283000F040FFF7EDBC804B804A81481A609EE56E
:102840007D4B0021186802F057FB7E4897E57A4BD4
:102850000121186802F050FB7B4890E5764C00217E
:10286000206802F06FFB206802F0C8FB21687748FF
:10287000383105E7704C0121206802F063FB2068C5
:1028800002F0BCFB216872483831F9E66A4C2068D6
:1028900002F0B4FC21686F483831F1E66E4802F06E
:1028A000ADFB664802F0AAFB042300223B706B4B91
:1028B0006B481A6063E55B4A6A48137883F001014C
:1028C00011706949694A012B08BF1146D8E6594A77
:1028D0006748137883F0010111706349634A012B43
:1028E00008BF1146CCE65C4802F034FD534802F0C4
:1028F00031FD514B5F4819683831FFF789FC5E485C
:102900003DE5002300268DF81730069307AB0093B2
:102910005A4906AB0DF11702601C079603F0FEFD45
:1029200003285ED19DF817503C4C3F4B45F02005E5
:10293000534906A8742D08BF1C46FDF7E9FBF0B902
:10294000079F504E38463146FEF7A4FB08B1079664
:1029500006E04D4E38463146FEF7BAFB0028F6D168
:1029600007982060494B4A4C742D08BF1C46FDF760
:1029700045FD06AACDE9000121464648D1E4464975
:1029800006A8FDF7C5FB90B9079F444E384631466F
:10299000FEF780FB08B1079606E0414E3846314607
:1029A000FEF796FB0028F6D107986060DAE73D490C
:1029B00006A8FDF7ADFB88B9079F31463846FEF7FC
:1029C00069FB08B1079606E0374E38463146FEF7F8
:1029D0007FFB0028F6D10798A060C3E7334806A91B
:1029E0002DE63348F9E4601C02F01CFD562E054626
:1029F00000F0A18064D82D2E00F08380522E65D087
:102A00002B2E70D021782B48FFF702FC2A492B4847
:102A100009B0BDE8F04003F076BF00BFFC05002020
:102A200087AA00080900002098050020ACAA000829
:102A3000C5AA0008080000203C000020D0060020A5
:102A4000EAAA000811AB000831AB00084EAB000841
:102A50006AAB000887AB000828070020CC060020DE
:102A600098AB0008B7AB00087AA7000889A7000850
:102A7000D2AB0008EEAB000807AC00086CA8000859
:102A800076A800086F12833ACDCC4C3D71A70008A0
:102A900076A700083DAC000879A800080000204196
:102AA000000016437CA800080AD7233C7FA8000832
:102AB00071AC000825AD000859AD0008E6040020FF
:102AC000762E38D0772E2AD0722E9BD12846FEF74C
:102AD000EFF8224C0146206802F008FB21682A46E4
:102AE0001F483831A2E61D4C0021206802F02AFA66
:102AF0002946206802F0ECFA21682A461948383144
:102B000094E6164C0121206802F01CFA2946206840
:102B100002F0DEFA21682A461348383186E60F4C67
:102B20000146206802F034FB216805EBD5750F489B
:102B30006A1038317AE644F620639D4228BF1D466C
:102B400041F288339D4238BF1D46044B2946186820
:102B500002F00AFA2946064892E500BF3C00002030
:102B6000CCAC00089AAC0008B3AC0008E3AC000899
:102B7000FCAC0008F0B5AFB0FEF784FB374C23681F
:102B8000C01A632867D9FEF77DFB354B20609C6C2B
:102B9000344B9E6C344B1D68344B1F68344B1868A3
:102BA000FDF72CFCCDE90E01B81BFEF781F8FDF70F
:102BB00025FCCDE90C013846FEF77AF82D49FEF7E1
:102BC000CBF84FF06651FEF7C7F8FDF717FCCDE9DB
:102BD0000A013046FEF76CF82649FEF7BDF84FF0C3
:102BE0006651FEF7B9F8FDF709FCCDE90801224B63
:102BF0001868FDF703FCCDE90601281BFEF758F81D
:102C0000FDF7FCFBCDE904012846FEF751F8194910
:102C1000FEF7A2F84FF06651FEF79EF8FDF7EEFBC7
:102C2000CDE902012046FEF743F81249FEF794F879
:102C30004FF06651FEF790F8FDF7E0FB0F4ACDE943
:102C40000001782110A803F011FC0A2382B210A918
:102C50000B48FFF749F82FB0F0BD00BFD8020020A5
:102C600028070020D0060020480500204405002049
:102C70003C0500200000B443400500205DAD000885
:102C8000100800202DE9F84F1E46836C0546A2EB84
:102C9000030A8AEAEA73A3EBEA73B3F5FA6F88468C
:102CA00014460A9FDDF82CB0DFF84C9240F3FC800C
:102CB000D9F80030002B40F0DF80FEF7E3FAC9F8C6
:102CC0000000284602F041FB002840F00481214624
:102CD000284602F0B3F9FEF7D5FA0446D8F81C00EE
:102CE000201AFDF7E1FF8549FEF736F88349814652
:102CF000FEF7D0F9002840F0F0804FF07E514846B2
:102D0000FEF7E6F908B14FF07E595046FDF7D0FFC7
:102D10004946C8F81C408246FEF71EF8D8F8101045
:102D2000FDF712FF76490446FEF7D2F900B1744C64
:102D300020467449FEF7AEF900B1724CD8F80C1079
:102D40005046C8F81040FDF7FDFE4946FEF7B8F8BA
:102D5000D8F800108146C8F80CA05046FDF7FCFFDB
:102D6000D8F8041082462046FDF7F6FF014650468B
:102D7000FDF7EAFED8F8081004464846FDF7ECFFD8
:102D800001462046FDF7E0FED8F818900446494673
:102D9000FEF79EF900B14C46D8F814802046414613
:102DA000FEF778F900B144464FF07E512046FEF719
:102DB0008FF9002840F0988020465349FEF76AF9C1
:102DC000002840F08D8000212046FEF781F9002880
:102DD00000F0878039462046FDF7BEFF00210446FB
:102DE000FEF758F9002840F084804FF07E512046CD
:102DF000FEF76EF900287AD04FF07E504349FDF778
:102E0000ABFFFEF795F944F62063181A984228BFE5
:102E1000184641F28833984238BF1846FDF744FF00
:102E20003768044600213846FEF72AF968B9384663
:102E30003749FDF791FF374907462046FDF78CFFDC
:102E400001463846FDF780FE04464FF07C5120468F
:102E50003460FDF779FEFEF76BF944F62063984283
:102E600028BF184641F28831814238BF01462846C2
:102E7000BDE8F84F02F09AB8FEF704FAD9F800302E
:102E8000C01A40F6B83398427FF61BAF224B1A782F
:102E9000002A7FF416AF012259461A701F480323F7
:102EA000524603F073FA0CE700231B4AC9F80030BE
:102EB00013700AF10203042B3FF603AF02F045FA48
:102EC00010B1284602F09AF94046FEF769FF002348
:102ED0003360BDE8F88FEC64FDE6DFF8209014E77E
:102EE000094C04F1004475E74FF07E5472E7204628
:102EF00084E7002082E700BF100500206F12833AAC
:102F000000409C4500409CC5000080BF00606A46B0
:102F10003333333F9A99993E0E0500208BAD00085C
:102F2000234B73B51A682348234B1C68836CD31A50
:102F3000042B35DC04330ADA012320490D789D4245
:102F400004D01F4D2D68002B2CD12A440B701D4935
:102F50008B6CE31A042B27DC043309DA01231A4DA6
:102F60002E789E4203D0194E3668FBB934442B703C
:102F7000174BC264CC6401934FF07E531549009304
:102F80000C48154BFFF77EFE144B22460193144B61
:102F9000144900930B48144BFFF774FE02B070BD48
:102FA0000023CAE7521BD1E70023D8E7A41BDEE7C2
:102FB0004805002028070020440500209505002032
:102FC00010000020D0060020940500200C000020F6
:102FD00076A70008700500204005002071A70008B2
:102FE0003333333F4C0500203C0500202DE9F041F0
:102FF000002588B0454B06959A69012442F00402E9
:103000009A619A690326022702F0040200924FF0A7
:10301000F008009A9A6904A942F008029A619A6934
:103020003B4802F008020192019A9A6942F01002AC
:103030009A619A6902F010020292029A9A6942F029
:1030400001029A619B69334A03F001030393039BD6
:10305000536823F0E06343F000735360CDE90464E8
:103060000797FEF78BF92A4631462948FEF760FAA2
:1030700004A92748CDE904840796FEF77FF92A467C
:1030800041462348FEF754FA4FF0780804A9224835
:10309000CDE904640797FEF771F92A4631461E48C8
:1030A000FEF746FA0796802604A91B48CDE904845A
:1030B000FEF764F92A4641461748FEF739FA04A993
:1030C0001548CDE904640797FEF758F92A463146BA
:1030D0001148FEF72DFA4FF47043CDE904354FF453
:1030E000005504A90C480694FEF748F904A90B48BA
:1030F000CDE904540797FEF741F9224629460748CF
:10310000FEF716FA08B0BDE8F08100BF00100240DB
:103110000008014000000140000C01400010014087
:1031200030B5002587B01B4B04959A6902A942F47B
:1031300080429A619B694FF4007203F480430193CB
:10314000019B0223CDE90223032313480593FEF7D5
:1031500015F94FF4806302A90F48CDE902350495B3
:10316000FEF70CF94FF4E1330C4C0D492046C4E94D
:1031700000130C23C4E90255C4E905352561E56156
:10318000FEF783FD2268D36843F02003D36007B0C5
:1031900030BD00BF001002400008014010080020B0
:1031A0000038014030B5002587B01A4B0495DA6924
:1031B00002A942F40032DA61DB69042203F400332D
:1031C0000193019B0223CDE90223032312480593B7
:1031D000FEF7D4F8082310480DEB0301CDE90235C2
:1031E0000495FEF7CBF84FF416530C4C0C492046CF
:1031F000C4E900130C23C4E90255C4E9053525616F
:10320000E561FEF742FD2268D36843F02003D360F6
:1032100007B030BD0010024000080140C807002080
:103220000044004030B5002587B01F4B0495DA6993
:1032300002A942F48022DA61DA691C4802F4802291
:103240000092009A9A691A4C42F008029A619B69AE
:103250004FF4806203F008030193019B0223CDE940
:10326000022303230593FEF789F84FF4006302A9B4
:103270000E48CDE902350495FEF780F84FF4E133AE
:103280000C492046C4E900130C23C4E90255C4E9E3
:1032900005352561E561FEF7F8FC2268D36843F047
:1032A0002003D36007B030BD00100240000C014085
:1032B0008007002000480040174B37B5DA69174CEB
:1032C00042F00102DA61DB694FF0804203F0010352
:1032D0000193019B47230025C4E9002341F63F7376
:1032E000C4E9025380232046A3612561FEF706FC52
:1032F00022682046D36843F00103D360FEF7A6FBA3
:103300002A4601211C20FDF7E7FF1C2003B0BDE881
:103310003040FEF711B800BF00100240A0080020A6
:10332000164B37B5DA69164C42F00202DA61DB69F6
:10333000144A03F002030193019B47230025C4E9CB
:10334000002341F63F73C4E9025380232046A36162
:103350002561FEF7D3FB22682046D36843F00103C2
:10336000D360FEF773FB2A4601211D20FDF7B4FF51
:103370001D2003B0BDE83040FDF7DEBF0010024065
:10338000580800200004004010B514460A2392B2E9
:103390000248FEF7A9FC204610BD00BF100800201F
:1033A00000207047002070474FF0FF3070474FF00B
:1033B000FF30704701207047074B1B681A69D1071F
:1033C00008D5DA68D20705D56FF0010203481A6103
:1033D00001F020BF704700BFA00800202807002090
:1033E000074B1B681A69D10708D5DA68D20705D5DB
:1033F0006FF0010203481A6101F00CBF704700BF73
:1034000058080020D0060020144B82B01B681A68B0
:10341000110706D5002201921A6801925A6801929A
:10342000019A1A68920616D50D4A5B681178DBB2CC
:103430001E2905D81078411CC9B2117009490B54D6
:103440000A2B01D00D2B03D10122074B1A7002E089
:1034500013781E2BF8D802B0704700BF1008002068
:10346000A3060020A4060020A2060020324B13B5BC
:103470001B681A68100706D5002201921A6801928B
:103480005A680192019A1A68510742BF5A68D2B22B
:103490008DF801201A68920742BF5A68D2B28DF89F
:1034A00002201A68D40742BF5A68D2B28DF80320AE
:1034B0001A68100615D5DA68110612D51F4A204978
:1034C00010880A8880B292B2904228D00A881D489B
:1034D00092B2805C0A88C0B20132C2F308020A804C
:1034E00058601A68920625D501225C68164BE4B232
:1034F0001A70FDF7C7FE154B1860154B1A781E2A77
:1035000005D819784A1CD2B21A70124A54540A2C9F
:1035100001D00D2C0BD101220F4B1A700AE00021B3
:103520000E4A1170DA6822F08002DA60D9E71B785F
:103530001E2BF0D802B010BDC8070020E402002006
:10354000E2020020E6020020E0020020DC0200206F
:10355000810600208206002080060020E102002073
:103560003C4BF7B51C6823689A0618D53A4B62683D
:103570001978D2B204290ED8DFE801F003081D2D16
:1035800031003C2A0BD101221A7008E03B2A04D1F9
:1035900002221A70314B0022F6E73C2AFBD1236845
:1035A0001B0706D5002301932368019363680193E9
:1035B000019B03B0F0BD29480178052906D80178A0
:1035C000CDB20131C9B2017025494A550278052AA8
:1035D000E5D90322D8E7012ADDD10422D4E7012A64
:1035E000D9D11F4F052500223946082617F8010BAF
:1035F000424050B20028BDBF400080F00700C2B278
:10360000520006F1FF30A8BFD2B210F0FF06F0D191
:10361000681E10F0FF05E8D14879904215D108786E
:103620004A7842EA00220F4812B202808878CA78AB
:1036300042EA00220C4812B202800A790B49D2B247
:103640000A7001210A4A1170A5E70A490A68013285
:103650000A60A0E78007002079060020720600209B
:1036600073060020700600206E0600206D06002004
:103670006C06002060060020FDF7F8BD07B5074C7A
:103680004FF400510648FDF758FF00230193019BBA
:10369000A342F5D8019B0133F8E700BF1FA1070043
:1036A0000010014007B572B6064C4FF400510648B1
:1036B000FDF743FF00230193019BA342F5D8019B33
:1036C0000133F8E73F420F000010014010B590B001
:1036D0001422002108A803F071F81422002101A887
:1036E00003F06CF802244FF480330122CDE90D433E
:1036F000CDE906234FF4E01306A80F93FDF726FF4C
:1037000008B1FFF7CFFF0F23CDE901344FF48063F9
:103710000390CDE90430214601A8FEF7D9F800282E
:10372000EFD110B010BD00002DE9F04FB1B0FDF7A2
:103730008BFDFFF7CBFFFFF759FCFFF7F1FCFFF71D
:1037400031FDFFF76FFD002225201146FDF7C4FD76
:103750002520FDF7F1FD002226201146FDF7BCFDD6
:103760002620FDF7E9FD002227201146FDF7B4FDD4
:103770009E4D2720FDF7E0FD00220F214FF0FF3086
:10378000FDF7AAFD6C6A9A48214602F0FFFD002C65
:1037900002DA984802F0FAFD620002D5964802F07B
:1037A000F5FDA30002D5954802F0F0FDE70002D533
:1037B000934802F0EBFD260102D5924802F0E6FDA7
:1037C000600102D5904802F0E1FDA10102D58F48C9
:1037D00002F0DCFD8E4802F041FE6B6A43F080731C
:1037E0006B6201F007F8002800F0DD80894802F0E4
:1037F00035FE894B894A8A498A4801F04DFB8A493E
:103800008A4A8B4B8B4801F047FB8B4DFFF754FDE9
:10381000FFF786FD894B4FF07E562B60884B894F12
:103820006B604FF08043884C2846AC60AB652E66D9
:10383000EF65FEF7A7FA854AB34616660026844B65
:1038400094601360834B844C5360DFF810A2844B68
:10385000DFF8109210469365D7654FF00108FEF728
:1038600091FAC4F800A06660C4F80890E66026618A
:103870006761C4F818B0FDF705FD84F82080E061A9
:10388000794CC4F800A06660C4F80890E660266130
:103890006761C4F818B0FDF7F5FC4FF40062734996
:1038A000E061604884F8208001F0F8FB70494FF433
:1038B000C872604801F0F2FB00236E4A6E48136044
:1038C0006E4A136002F0CAFD6D4802F0C7FD6D48F4
:1038D00002F0C4FD6C4802F0C1FD6C4802F0BEFD70
:1038E0006B4802F0BBFD6B4802F0B8FD6A4802F07D
:1038F000B5FD6A4802F0B2FD694802F0AFFD6948C3
:1039000002F0ACFD684802F0A9FD684802F0A6FD8F
:10391000674802F0A3FD674802F0A0FD664B1A78E5
:103920002AB100241C70FEF789FC644B1C70644BA8
:103930001A787AB10026634C1E7022786249634877
:1039400002F0F7FF23785D4FDBB23B70FEF776FCA9
:103950003E702670FDF796FC5D4A5E4C1368C31AF4
:10396000312B40F2DA8010604FF400415A48FDF7E5
:10397000D9FD002840F02B812A4801F03FFC2D485A
:1039800001F03CFC2378013303F007032370013B73
:10399000062B19D8DFE813F02500B600DB00E8009D
:1039A000F500FA000B014D4802F058FD4C4802F0BA
:1039B00055FD4C4802F052FD4B4802F04FFD4B487C
:1039C00002F04CFD4A4812E7164E4A4B4A481E6028
:1039D00002F044FD494802F041FD304601F00EFB83
:1039E0009BE0144E434B46481E60F1E70010024036
:1039F00005AE000826AE000833AE000840AE000851
:103A000052AE000863AE000869AE000874AE00084C
:103A100001B1000885AE000876A70008A0080020C4
:103A200024BD00082807002004BD00085808002015
:103A300071A70008D0060020FC0500200AD7A33B90
:103A400000007042000080BF6F12033A980500200A
:103A50006F12833B000048427005002052491D3A16
:103A60000000404017B751384C05002000F8FFFF18
:103A700070FEFFFF48050020DEAF0008440500206F
:103A80000AB0000832B000084BB0000871B000085E
:103A9000AAB00008D7B0000803B100083DB1000883
:103AA0006DB100089BB10008C6B10008F1B1000873
:103AB0001AB2000837B20008A2060020A3060020B0
:103AC000800600208106002082060020A406002037
:103AD0003802002044000020000C0140ADAE000878
:103AE000FCAE00080EAF00084DAF000862AF000842
:103AF00082AF0008400000206EB20008A4B20008A7
:103B0000CAB200087A4802F0A9FCB421794801F051
:103B10003FFBB421784801F03BFB2378042B40F0B5
:103B20005281FDF7AFFBDFF8D4810646D8F800706C
:103B3000DFF8CC91002F40F0AE80724BC8F8000047
:103B4000714889F800701F6002F088FC3BE16F4803
:103B500002F084FC6E4802F081FC6E4802F07EFCAC
:103B60006D4802F07BFCD8E76C4802F077FC6148B6
:103B700001F044FA604801F041FA00225F4B1A60FC
:103B8000CBE7674802F06AFC6648EAE7664802F05D
:103B900065FC664802F062FC654802F05FFC65481F
:103BA00002F05CFC644802F059FC6448D9E76448C0
:103BB00002F054FC634B644A1978644B6448002952
:103BC00018BF1A46114602F0E1FB6248C9E72378A4
:103BD000022B23D14FF480515F48FDF7A3FC38B985
:103BE00041F28833434886689E4296D9C83E0DE02C
:103BF0004FF400515848FDF795FC00288DD144F64C
:103C00001F633C4886689E4287D8C836314601F01B
:103C1000ABF93146384801F0A7F97EE7042BD9D03B
:103C2000032B00F0D7804FF480514B48FDF77AFC0E
:103C300088B941F28833494E30688168994202D987
:103C4000C83901F091F9306801F07FFB00287FF45A
:103C500064AF3068C2E64FF400513F48FDF762FCA4
:103C600040B944F61F633D4E306881689942EAD8F6
:103C7000C831E6E74FF480413748FDF753FC002890
:103C80007FF44BAF354E30684178B1FA81F1490984
:103C900001F058F9D7E799F80030C71B052B00F25F
:103CA0009984DFE813F006005D00CF03FA032204D5
:103CB0006F044FF47A610F4801F056F94FF47A61BE
:103CC0000D4801F051F900210A4801F03BF90021AB
:103CD000094801F037F9B7F5FA6F74D901230022CA
:103CE00089F80030074BC8F800601A606BE000BF2D
:103CF00001B3000828070020D0060020CC060020D1
:103D0000C8060020C4060020C6B5000824B3000879
:103D100047B3000873B300089BB30008D0B3000892
:103D20000AB4000832B4000851B4000874B40008A2
:103D300098B40008BDB40008E7B4000824B5000832
:103D400059B5000839050020DBAD0008D1AD0008E9
:103D50007CB50008A3B50008000C0140400000201D
:103D6000B94BDFF8E8A218464FF49661DFF8E0B2ED
:103D700001F0FAF840F2DC51504601F0F5F8DBF8BA
:103D80000020B14BB21AB2F5AF7F10D9597818465E
:103D9000B1FA81F14909CBF8006001F0D3F89AF843
:103DA00001105046B1FA81F1490901F0CBF840F613
:103DB000B8339F4207D9022389F800300023C8F89E
:103DC0000060CBF800302378062B03D1FFF7A8F86A
:103DD000FEF7D0FE2378072B42D19E4B1B78002B99
:103DE0003CD0DFF874929D4E99F80030964956F811
:103DF0003320896C06EBC3035F68A2EB0108934B89
:103E000008F10508D3F848A0FDF73CFAB8F10A0F0D
:103E1000DFF84CC200F2E583A7EB0A0705370A2F4B
:103E200000F2DF83DCF80030C31AC72B14D999F8ED
:103E300000108C4B013101F0030156F8312006EBE4
:103E4000C1061A607368884ECCF80000874889F86C
:103E50000010336002F09AFAFFF762F8FEF78AFE6C
:103E6000FDF710FA824E3368C01AC72840F2C080AE
:103E7000FDF708FA306000F0BFFC002800F0B880C1
:103E80008022002110A802F099FC23787949072BA1
:103E900096BF794A794A52F823202BA80F925A1FCD
:103EA000534253418DF8BC30754BDFF89CB11A7802
:103EB000744BDFF898A1002A08BF0B461021724A04
:103EC00002F0D4FA9DF8BC30002B00F0A5836F4BB4
:103ED0001F886F4B3FB287EAE770A0EBE77080B2B4
:103EE0001E88FCF7E5FE36B2814686EAE670A0EB56
:103EF000E67080B2FCF7DCFE664980464846FDF776
:103F0000E7F8002840F0708348466249FCF7D8FF84
:103F1000299060494046FDF7DBF8002840F06783B0
:103F200040465C49FCF7CCFF3B4610215A4A2A9098
:103F300010A802F09BFA594A3346102114A802F047
:103F400095FA524B188800B2FCF7B2FE2968FCF7CC
:103F500003FF4F4B0646188800B2FCF7A9FE504BF2
:103F60001968FCF7F9FE9BF804309AF80420134313
:103F700040F040834B4918A802F0C5FC4A4B1B781F
:103F800003F0FF02002B00F04483484912F0040FB5
:103F9000474B18BF0B4612F0020F0CBF2D224822D0
:103FA000182100920DF17600424A02F05FFAFDF707
:103FB00069F9FCF701FA00223F4BFCF7A1FB3F4BEC
:103FC0003F4A1B781278002B0CBF70235023002A25
:103FD0000CBF74225422CDE90001CDE90232162132
:103FE000384A0DF18E0002F041FA0FA800F006FCED
:103FF000354B1A78002A00F0B7804FF0000983F89B
:104000000090224BB3F80080214B0FFA88F81F88EC
:10401000254B3FB21E78FDF735F92C4BF6B21860F0
:10402000F30740F1A1802378072B00F0C080FDF753
:1040300029F9274B1860FDF725F940F6B833984267
:1040400040F2928046E000BF28070020D006002002
:10405000C40600203905002038050020180500207E
:1040600014050020480500204405002054B600082F
:10407000CC020020EDAD0008E4BC0008E5AD00086E
:10408000E0020020E9AD000874B6000870060020C8
:104090006E060020000020437AB6000882B60008B1
:1040A000980500208AB600086D060020F2AD0008D1
:1040B000F7AD0008A6B6000800408F4009000020B8
:1040C00008000020B0B600086C060020680600203A
:1040D000640600202378052B10D00523AC482370FC
:1040E000FDF750FEAB48FDF74DFEAB4BAB4883F8F8
:1040F0001090AB4B83F8109002F0B0F94FF07E5364
:104100004FF0000905930223CDE90339A54B424640
:104110000293A54B9E490193A44BA5481B7800939D
:104120009D4BFDF747FEA34B4FF4C8700593042346
:10413000CDE90330A04B3A460293A04B9549019339
:104140009F4BA0481B780093954BFDF733FEB607B5
:104150000AD5FDF797F89C4BC83018604A464FF4D3
:1041600000519A48FDF7E4F92378052B1FD1984FA9
:104170003B68E3B1FDF786F83B68964EC31AB3F58A
:10418000FA6F40F29382944802F068F9884801F08F
:1041900035F88C4801F032F87D48FDF7F3FD7D4895
:1041A000FDF7F0FD0323237000233B603360FDF730
:1041B00069F88A4E3368C01AB0F5FA7F42D3FDF72A
:1041C00061F83060864E3368DB6899043AD543F66F
:1041D0003C537748ADF83C3083797A4A5B018DF8DF
:1041E0003E30937912795B018DF83F3003791344A7
:1041F0005B108DF8403001F0A3F823789DF83D1056
:104200005A1F53425341021E18BF012242EA430281
:1042100000238DF842309DF83C308DF841200B444E
:104220009DF83E1030460B449DF83F100B449DF81E
:1042300040100B441A448DF843200A2308220FA98A
:10424000FDF752FDFDF71EF8664C2368C01A95284D
:1042500040F28680FDF716F8634B20601B68DB6830
:104260009B047DD5614B624A1B8812889BB292B237
:10427000934238BF03F500739B1A9BB2B3F59A7F44
:104280006ED25C4CDFF87081208800B2FCF710FD24
:104290002968FCF761FD0746B8F8000000B2FCF79A
:1042A00007FD3C4B1968FCF757FD4FF07E51064661
:1042B0003846FCF70DFF002840F0048238464F498D
:1042C000FCF7E8FE00B14D4F4FF07E513046FCF751
:1042D000FFFE002840F0F98130464849FCF7DAFE3D
:1042E00000B1464E2488B8F800A038460FFA8AF389
:1042F0000D93FCF783F8824630468B46FCF77EF838
:10430000804668688946FCF779F80F4621490646D9
:104310004868FCF773F83A4A3A4B92F800E093F891
:1043200000C0BEF1050F14BF4D224122CCF3400363
:10433000CDE90A320D9B24B2CDE90801009360213A
:104340002346CDE90667CDE90489CDE902AB2E4AC3
:104350000FA802F08BF8011E02DD0FA8FDF710FF79
:10436000FCF790FF294C2368C01AB0F5FA7F5AD3A6
:10437000FCF788FF2060264C2378002B53D0FCF7F5
:1043800081FF244B1B68C01AB0F5FA5F4BD943E09C
:10439000FC0500209805002028000020E5B6000854
:1043A00014000020D402002076A700080900002095
:1043B000280700209A99193FD002002071A7000811
:1043C00008000020D00600207C06002000100140DC
:1043D00068060020640600200CB70008C802002010
:1043E00080070020C4020020C8070020E40200204B
:1043F000E2020020700600206E060020000080BF50
:10440000440000206D06002060B70008C0020020B4
:10441000E0020020DC02002000234FF4FA51BD48E6
:10442000237001F0B3FFFCF72DFFBB4B1B689842D4
:1044300080F04E8100224FF40051B848FDF778F823
:10444000FFF76CBA4FF47A71B548DFF8D8A200F0E4
:104450008BFD0021B24800F075FD504600F075FF5D
:10446000012803D19AF80530012B0BD0AD4800F09C
:10447000C5FEA021AB4800F08BFE40F6C411A94850
:1044800000F072FD40F6B8339F427FF69CAC0323E8
:1044900089F80030C8F8006095E44FF47A71A048BC
:1044A000DFF880A200F060FD01219D4800F04AFD88
:1044B000504600F04AFF012803D19AF80530012B3D
:1044C0000BD0984800F09AFEA021964800F060FEBC
:1044D00040F6C411934800F047FD40F6B8339F42C0
:1044E0007FF671AC0423FFF7FABB3846FCF7DCFB20
:1044F0008D49FCF7E5FC8D49FCF72EFCFCF718FE16
:10450000C0F51C6B0BF1040BBBF57A7F38BF4FF481
:104510007A7BDFF810A25946814800F025FD9AF811
:104520000530012B05D1504600F068FE504600F0E2
:1045300065FD5946DFF8F8B17A4800F015FDDBF863
:104540000030F31AB3F5FA7F16D97548CBF800603E
:104550004178B1FA81F1490900F0F4FCDBF8003050
:10456000F31AB3F57A7F07D99AF801106D48B1FABA
:1045700081F1490900F0E6FCB7F57A6F7FF623ACCC
:10458000052385E7664E41F28831304600F0ECFCA9
:1045900041F28831634800F0E7FC0021304600F02A
:1045A000D1FC01215F4800F0CDFCB7F5FA6F7FF632
:1045B0000AAC604801F052FF00235F4A5F48237055
:1045C0001660C8F8003089F8003001F047FF5C48F9
:1045D000FFF7BABA002389F80030C8F80030FFF7B7
:1045E000F2BBCCF8000037E44FF07E5090E44FF07F
:1045F0007E5099E4FBF702FFCDE902013046FBF75C
:10460000FDFE504ACDE90001162118A801F02EFF49
:10461000B4E42D224C4BC3E49AF804104B4B4C4E9F
:104620009BF80420002908BF1E46494910A8002A0B
:1046300018BF0B461021474A01F018FF33461021DE
:10464000454A14A801F012FF9BF8043043BB002335
:1046500029939AF8043033BB00232A933F4B162149
:104660001B683F4A383318A801F000FF3D4A182163
:104670003D4B0DF1760001F0F9FEFCF703FE0F9BB8
:104680000293FBF799FE0022384BFCF739F8384AC1
:10469000CDE9000116210DF18E0001F0E7FEA4E442
:1046A0004FF07C53D4E74FF07C53D6E73368002BB0
:1046B0003FF47DAD3368C01AB0F5FA6F7FF677AD81
:1046C0002C4861E54FF07E57FEE54FF07E5609E637
:1046D000FCF7D8FD284C2368C01AB0F5FA7F7FF6A6
:1046E0001DA9FCF7CFFD20600D4800F02EFE00282C
:1046F0007FF414A90B4800F028FE00287FF40EA9CF
:1047000000F180404FF4005100F58830FCF715FFB0
:10471000FFF704B99DB700087C0600200010014097
:1047200028070020D006002000007A450080BB4406
:10473000C4060020E4B500084000002002B60008CE
:1047400021B6000898B60008EDAD0008FCAD0008E1
:1047500001AE0008BEB60008C5B600083C00002047
:10476000CCB60008D3B60008FA04002000408F4001
:10477000D9B600082EB70008BC02002073B50C465D
:10478000054600212046FCF785FC70BB4FF07E51AA
:104790002046FCF79DFC08B14FF07E54204614499A
:1047A000FCF7DAFA4FF07C51FCF7CEF9FCF7C0FCCD
:1047B0000126294607233E22C4B20096402000F07D
:1047C000EEFA00233544EDB200933C22052329463E
:1047D000412000F0E4FA34B1052322462946412065
:1047E000009600F0DCFA02B070BD0020D7E700BFF1
:1047F0000000704200F010BA00F000BA10B5044694
:1048000000F0FCF9002844D0002C42D000F0FCF964
:104810000021012308461F4A00F098FA01230722CD
:104820007F21002000F0A4FA221D0123082100208E
:1048300000F08CFAA16E0820FFF7A0FF04F114022B
:1048400001231021002000F081FAE16E1020FFF713
:1048500095FF04F1240201231821002000F076FACC
:1048600004F13A0201232021002000F06FFA04F144
:10487000520201232821002000F068FA04F170029E
:1048800001233021002000F061FABDE8104000F063
:10489000A7BA10BD0BB80008002382B00193019B9A
:1048A000132B01D902B07047019B0133F6E70000DA
:1048B00001224FF480710148FCF73ABE000C014020
:1048C00001224FF400710148FCF732BE000C014098
:1048D00000224FF400710148FCF72ABE000C014091
:1048E00008B5FFF7F5FFFFF7D7FFFFF7E1FFFFF789
:1048F000D3FFFFF7E5FFBDE80840FFF7CDBF00009D
:1049000000224FF480710148FCF712BE000C0140F8
:1049100008B5FFF7D5FFFFF7BFFFFFF7C9FFFFF7A8
:10492000BBFFFFF7D5FFFFF7B7FFFFF7E9FFBDE8D4
:104930000840FFF7B1BF000038B50446082523063C
:1049400025D5FFF7BDFFFFF7A7FF6400FFF7B0FF16
:10495000FFF7A2FFFFF7D4FFFFF79EFF013DE4B290
:10496000EDD1FFF7ADFFFFF797FFFFF7A1FF4FF482
:1049700000710848FFF790FFFCF7D4FD0446FFF7ED
:10498000BFFFFFF789FF201E18BF012038BDFFF7CA
:104990009FFFD8E7000C014038B50C4B05461B784B
:1049A0009BB10B4B1C8884B16400FFF7B1FF04F08E
:1049B000FE00FFF7C1FF0020FFF7BEFF2846FFF70C
:1049C000BBFFBDE83840FFF78BBF38BDEA080020C9
:1049D000E808002008B5AE20FFF7DEFF0220FCF754
:1049E00057FC2020FFF7D8FF0220FCF751FC0020E5
:1049F000FFF7D2FF0220FCF74BFC2120FFF7CCFF92
:104A00000220FCF745FC0020FFF7C6FF0220FCF760
:104A10003FFC7F20FFF7C0FF0220FCF739FC22207B
:104A2000FFF7BAFF0220FCF733FC0020FFF7B4FFCA
:104A30000220FCF72DFC0720FFF7AEFF0220FCF759
:104A400027FCB020FFF7A8FF0220FCF721FCC820BC
:104A5000FFF7A2FF0220FCF71BFC0020FFF79CFFE2
:104A60000220FCF715FC1020FFF796FF0220FCF750
:104A70000FFC4020FFF790FF0220FCF709FC81208B
:104A8000FFF78AFF0220FCF703FCCF20FFF784FF2B
:104A90000220FCF7FDFBA120FFF77EFF0220FCF7C0
:104AA000F7FBA620FFF778FF0220FCF7F1FBA82018
:104AB000FFF772FF0220FCF7EBFB3F20FFF76CFFD4
:104AC0000220FCF7E5FBD320FFF766FF0220FCF78E
:104AD000DFFB0020FFF760FF0220FCF7D9FBD520A9
:104AE000FFF75AFF0220FCF7D3FB8020FFF754FFAB
:104AF0000220FCF7CDFBD920FFF74EFF0220FCF788
:104B0000C7FBF120FFF748FF0220FCF7C1FBDA20CA
:104B1000FFF742FF0220FCF7BBFB1220FFF73CFF30
:104B20000220FCF7B5FBDB20FFF736FF0220FCF785
:104B3000AFFB4020FFF730FF0220FCF7A9FB8D20E0
:104B4000FFF72AFF0220FCF7A3FB1420FFF724FF46
:104B50000A20FCF79DFBAF20FFF71EFFBDE80840D1
:104B60000A20FCF795BB00002DE9F047B0241F4D4B
:104B70001F4EDFF88080DFF8809080223146284683
:104B800001F00CFE40B32046FFF706FF0020FFF7C0
:104B900003FF1020FFF700FF98F80030BBB1B9F811
:104BA0000070A7B1FFF7B4FE780000F0FE00FFF739
:104BB000C3FE4020FFF7C0FE6F1E05F17F0A17F805
:104BC000010FFFF7B9FE5745F9D1FFF789FE8022A3
:104BD0002946304601F0ADFE0134E4B2B82C05F1AF
:104BE000800506F18006C8D1BDE8F087EB0C0020F7
:104BF000EB080020EA080020E8080020014B1878A4
:104C0000704700BFEA0800204FF48062002101488D
:104C100001F0D4BDEB0C00207FB50023234D244CC4
:104C20004FF440722B70238011230121CDE9002322
:104C300003232048CDE902136946FCF79FFBFFF7E9
:104C400037FEFFF73DFE3220FCF722FBFFF760FE48
:104C50007820FFF771FE0646FFF742FE012E1ED1B7
:104C6000FFF756FE7A20FFF767FE0646FFF738FE8D
:104C7000012E16D03D23238001240A202C70FCF73E
:104C800007FBFFF7A7FE4FF48062FF210A4801F0FF
:104C900095FDFFF7B9FFFFF767FF204604E03C23CF
:104CA000E9E720880028E7D104B070BDEA080020B9
:104CB000E8080020000C0140EB080020030630B596
:104CC0000ED43F290CD80124CB08074D00EBC310AC
:104CD00001F007012B5C04FA01F112B10B432B54D4
:104CE00030BD23EA0103FAE7EB0C00202DE9F04781
:104CF00014461A46A4F120035E2B88BF3F240646C3
:104D00000F460025104B203C04EB84041C444FF05C
:104D1000000806EB050914F805A05FFA89F94AFABC
:104D200008F3DB0705D507EB08014846C9B2FFF7D2
:104D3000C5FF08F10108B8F1070FF0D10135052DC5
:104D4000E5D1BDE8F08700BF44BD0008F8B50546D1
:104D50000E461F461AB1541E14F8012F02B9F8BDB1
:104D600028463B4631460635FFF7C0FFEDB2F3E774
:104D7000814270B5164605460C461A4601D30446D4
:104D80000D46A54200D270BD230605D43F2E03D8A0
:104D900031462046FFF792FF0134E4B2F1E72DE9F6
:104DA000F84380460C465E1817189DF82090F6B21E
:104DB000FFB2B44211D045460AE02B0606D43F2C80
:104DC00004D84A4621462846FFF778FF0135EDB260
:104DD000BD42F2D10134E4B2EBE7BDE8F883000054
:104DE00038B51A4B1B7883B34FF08053184DC5F874
:104DF0008030BFF34F8FBFF36F8F4FF00053C5F874
:104E00008030BFF34F8FBFF36F8F124B1C88FFF7BB
:104E10007FFD6400E4B22046FFF78EFD0446FFF7F5
:104E20005FFD012C09D1FFF7D5FD4FF48062FF2112
:104E3000094801F0C3FCFFF7E7FEFFF795FE4FF0CE
:104E400080532B604FF000532B6038BDEA080020E0
:104E500000E100E0E8080020EB08002038B5044637
:104E60000D4601F00102018B4069FCF761FB218CCA
:104E7000E069C5F34002FCF75BFB218D606AC5F376
:104E80008002FCF755FB218EE06AC5F3C002BDE845
:104E90003840FCF74DBB0000F8B5054616460C46F9
:104EA0005722002101301F4601F088FC01232B709E
:104EB0004FF4FA53AB604FF480636E632B613CB1E7
:104EC0000FCC05F114060FC694E80F0086E80F001A
:104ED00005F1380427B107223946204601F088FC45
:104EE00028460021FFF7BAFF2146BDE8F8400148F7
:104EF00001F04CBA1CB8000838B500230D46044632
:104F000083714B1E012B01708CBF03210121FFF720
:104F1000A5FF012D04F1380109D0064A064B022DE8
:104F200008BF1A46BDE83840044801F02FBA044AC9
:104F3000F8E700BF39B8000853B8000865B80008A2
:104F400046B80008054A064B4170002918BF1A46AA
:104F500000F13801034801F019BA00BF6FB800082A
:104F60007EB8000865B8000844F6206399420A46F6
:104F700028BF1A4641F288339A4238BF1A4610B405
:104F8000446B82602368D96821F00101D960511E09
:104F9000D962E160D96810BC41F00101D96000F12B
:104FA0003801014801F0F2B98EB8000830B544F676
:104FB0002065A94228BF294641F288348368A1426E
:104FC0002CBFC3EB0102C3EB04020B498A42B8BFFA
:104FD0000A4640F6B8318A42D4BF9B185B18AB42F0
:104FE00028BF2B46A34238BF2346426B836011681B
:104FF000013BCB62D36030BD48F4FFFF72B603794A
:1050000083B9082344F6206280F84030836803EBBC
:105010004303934228BF1346426B43641168013B2C
:10502000CB62D3600023C3600123838062B600F1AA
:105030003801014801F0AAB9A0B800080A4610B426
:1050400072B640F20133C16400218380836CC16079
:10505000D31A8B421CDD417090F8403083B908238D
:1050600044F6206180F84030836803EB43038B42B1
:1050700028BF0B46416B43640C68013BE362CB6085
:1050800062B6836C00F1380110BC034801F07EB9B0
:105090001CBF01234370DFE7B4B80008134672B6A3
:1050A000C0E9141262B60A4600F13801014801F065
:1050B0006DB900BFDDB8000872B60023C0E9123335
:1050C00062B600F13801014801F060B900B900088A
:1050D0000A4672B60223C160838062B600F13801CD
:1050E000014801F053B900BF14B90008F7B50D46E7
:1050F00003780446012B4FF00001284614BF4FF4FB
:1051000000674FF48057FBF7C5FF002835D005F145
:1051100000401B49FBF7D4FE06463846FBF7C4FDAA
:1051200001463046FBF718FEFCF702F8064672B659
:1051300063780021A3702846FBF7ACFF01230038F9
:1051400018BF0120E37003236070E660A38062B69D
:105150002846FBF753F904F138070A4A64780A4BEA
:10516000002C08BF13460246CDE9006307480B46F2
:10517000394601F00BF903B0F0BD2846C9E700BF7E
:105180000000B44324B9000823B9000827B9000877
:10519000B1F5B47F2DE9F04105460C4627D800292A
:1051A00008BF5A242B782046012B14BF4FF4006708
:1051B0004FF48057FBF778FD0E49FBF781FE06465A
:1051C0003846FBF771FD01463046FBF7C5FDFBF79E
:1051D000AFFF40F20112AA80C5E90300034662084E
:1051E00005F138010448BDE8F04101F0CFB84FF4B3
:1051F000B474D7E70000B4434DB9000872B6002379
:10520000C360838062B600F13801014801F0BEB886
:1052100076B9000810B5037904462BB34379012B06
:105220001BD1C368002B06DC4378B3FA83F35B0918
:1052300043700369C3602378012B34D0022B4FF0F5
:10524000040233D13A496078A37988BB0133B3FBB8
:10525000F2F002FB1033DBB22EE0032BEBD1D0E9EE
:1052600012239B1A01D1037110BD016D09B9406D64
:1052700098B1002BD4BF4FF0FF300120024491427F
:1052800002DC616D914208DA0023237104F13801D8
:105290002848BDE8104001F079B8002BCCBF0023AE
:1052A00001236370C7E708222349CCE72349CAE7F3
:1052B000002B38D1013AD3B2A371C95C2046FFF765
:1052C000CDFD6278A36C002A2FD10133A364E3687B
:1052D000002B0BDD013BE36043B96279012A05D065
:1052E000E278237112B1A278E370627094F84030D2
:1052F000002BB9D0013BDBB2D3F1080284F8403077
:10530000B2D0636CA16899422FBF0B46581A424332
:10531000A3EBD2038B4238BF0B46626B013B106894
:10532000C362D360A0E7013B95E7013BCEE700BF36
:105330001FBF000893B9000827BF000823BF00085B
:105340000079003818BF0120704700797047806CE1
:105350007047000070B504468EB0264D03AB95E84B
:10536000070083E80700244B06AE0193234B02930A
:1053700005F10C031C350FCB86E80F0095E80F00F4
:105380000EAD05E90F0004F138011D4800F0FEFFE5
:1053900023781C4805EB830353F82C1C00F0F6FF20
:1053A0006378194805EB830353F8341C00F0EEFFD3
:1053B0002379164805EB830353F8201C00F0E6FF21
:1053C0006379134805EB830353F8101C00F0DEFFEC
:1053D000A168104800F0DAFFA1790F4800F0D6FF6D
:1053E000E1680E4800F0D2FF0D480EB0BDE87040F5
:1053F00001F034B8B8A60008BBB90008C9B9000864
:10540000D8B9000802BA000817BA00082CBA000878
:1054100041BA000856BA000873BA000888BA0008F2
:10542000E0B000080A22002100F07CB8242B2DE90E
:10543000F0478646904601D8012B06D101F036FA96
:10544000162303600020BDE8F0870D4633482A4646
:1054500015F8014B065D16F00806F8D12D2C10D179
:1054600001262C78951C33F0100215D1302C0DD16B
:105470002A7802F0DF02582A08D16C78023510230E
:105480000AE02B2C04BF2C78951CECE7002BF6D1FE
:10549000302C14BF0A230823002206F1004C0CF123
:1054A000FF3CBCFBF3F9104603FB19CAA4F130071B
:1054B000092F0FD83C46A3421BDD571C07D081455E
:1054C00014D301D1A24511DB012200FB034015F8E2
:1054D000014BEBE7A4F14107192F01D8373CEAE76C
:1054E000A4F16107192F04D8573CE4E74FF0FF32CD
:1054F000EDE7531C08D122236046CEF80030B8F106
:10550000000FA0D0691E06E006B14042B8F1000FBE
:1055100099D0002AF6D1C8F8001094E730BF0008EF
:10552000FFF784BF13460A46014602480068FFF7AA
:105530007DBF00BF54000020002B2DE9F0471D4621
:10554000BBBF03F100431D4600232D2388B0144642
:10555000B8BF1446129A109E1370149BDDF84CA02D
:1055600023F02008B8F1460F05D0B8F1450F00D15F
:105570000136022300E0032307AA049206AACDE91C
:1055800002A2CDE9003622462B4601F06DFAB8F1B1
:10559000470F074619D1119BDB070ED500EB060913
:1055A0000022002320462946FBF7E8F908B1CDF890
:1055B0001C903022079B4B451ED33846079B159AFB
:1055C000DB1B136008B0BDE8F087B8F1460F00EBB5
:1055D0000609E5D10378302B0AD1002200232046AA
:1055E0002946FBF7CBF918B9C6F10106CAF80060E5
:1055F000DAF800309944D3E7591C07911A70D9E7BB
:10560000F7B50029B6BF2D232B2349420929027083
:10561000437029DD0DF1070425460A27B1FBF7F693
:10562000224607FB1613303302F8013C0B46632B6E
:10563000314604F1FF34F1DC3031931E04F8011CD3
:105640001C46411CAB420AD30DF109039B1AA5422B
:1056500038BF0023821C1344181A03B0F0BD13F89E
:10566000016B01F8016FEDE7302330318370C170B9
:10567000031DF1E72DE9F04F91B00C46DDF868808D
:1056800016461F46054601F0C7F8036818460A93F8
:10569000FAF748FD00230E93D8F8003094F818A0CC
:1056A000073323F00703F3E80212D4F800B0CDE982
:1056B0000812C8F8003013460A46C4E91223DDE98F
:1056C000088323F000490B904FF0FF3240464946D3
:1056D0009B4BFBF785F970BB4FF0FF3240464946C4
:1056E000974BFBF75FF930BBDDE90801002200238F
:1056F000FBF74EF910B12D2384F84330914A924BB9
:10570000BAF1470F8CBF9046984603234FF000092B
:1057100023612BF00403236033462146284600977B
:105720000FAA00F0D3F9013040F08F804FF0FF3026
:1057300011B0BDE8F08FDDE9082310461946FBF7EC
:105740004FF940B1099B814A002BBCBF2D2384F83F
:1057500043307F4BD4E763680AF0DF095A1C3ED11F
:105760000623636000224BF48063236006920EAA36
:10577000CDE904A20DAA03920DF13302CDE9013265
:10578000636828460093DDE90823FFF7D5FEB9F1E9
:10579000470F80460D9929D1C81C02DB63688B42F4
:1057A00041DAAAF1020A5FFA8AFA5246013904F193
:1057B00050000D91FFF724FF0E9A81461318012A1D
:1057C000236102DC2268D20701D5013323619DF8F1
:1057D0003330002BA0D02D2384F843309CE7B9F15F
:1057E000470FBFD1002BBDD10123BAE7BAF1650F36
:1057F000DBD9BAF1660F18D1002963680BDD21618E
:1058000013B92268D00702D501330B4423614FF04E
:105810000009A165DBE713B92268D20701D502337D
:10582000F4E70123F2E74FF0670A0E9B8B4205DC99
:1058300023682161D807EAD54B1CE7E70029CCBFD4
:105840000122C1F102021344E0E723685A0507D49C
:105850002369424631462846B84701302BD165E7D7
:10586000BAF1650F40F2DC80D4E912010022002376
:10587000FBF784F8002833D0012331462846354A07
:10588000B84701303FF452AFDDE90D38434502DB44
:105890002368D8070FD5DDE90A2331462846B847E3
:1058A00001303FF443AF4FF0000908F1FF3804F135
:1058B0001A0AC84509DC23689B0700F10281E068E9
:1058C0000F9B9842B8BF184632E701235246314633
:1058D0002846B84701303FF429AF09F10109E8E74C
:1058E0000D9B002B38DC012331462846194AB84766
:1058F00001303FF41BAFDDE90D3959EA030302D152
:105900002368D907D7D5DDE90A2331462846B847A9
:1059100001303FF40BAF4FF0000A04F11A0B0D9B5E
:105920005B42534501DC4B4693E701235A4631461F
:105930002846B84701303FF4F9AE0AF1010AEEE714
:10594000FFFFEF7FF2BA0008EEBA0008FABA0008CB
:10595000F6BA000896B60008A36DDDF838A05345E6
:10596000A8BF5346002B994636DC4FF0000B29EABE
:10597000E97904F11A02A36D0893A3EB09035B45CF
:1059800031DC0D9B9A453ADC2368DA0737D40D9B4E
:10599000AAEB0309089BAAEB03039945A8BF994604
:1059A000B9F1000F33DC4FF0000829EAE97904F17E
:1059B0001A0B0D9BAAEB0303A3EB090343457FF7E7
:1059C0007AAF01235A4631462846B84701303FF4A2
:1059D000ADAE08F10108ECE7424631462846B8472B
:1059E0000130C2D1A2E60123314628460892B847C9
:1059F00001303FF49BAE089A0BF1010BBBE7314637
:105A0000DDE90A232846B8470130C0D18EE6089A5E
:105A10004B46314628464244B8470130C3D185E65B
:105A2000DDF838A0BAF1010F01DCDB0736D5012320
:105A3000424631462846B84701303FF477AEDDE9AB
:105A40000A2331462846B84701303FF46FAED4E907
:105A50001201002200230AF1FF3AFAF78FFFC0B9C2
:105A6000534608F1010231462846B84701300CD1AF
:105A70005CE601235A4631462846B84701303FF4D8
:105A800055AE08F10108D045F3DB4B4604F1500256
:105A9000E0E64FF0000804F11A0BF4E70123424658
:105AA000E1E701234A4631462846B84701303FF432
:105AB0003DAE08F10108E3680F995B1A4345F0DC3D
:105AC000FDE64FF0000804F11909F4E72DE9F0476D
:105AD000164698468A680B6907469342B8BF134634
