:020000040800F2
:10000000005000202DAF000875AF0008393E0008F1
:1000100075AF000875AF000875AF0008000000005C
:1000200000000000000000000000000075AF0008A4
:1000300075AF00080000000075AF0008353E0008ED
:1000400075AF000875AF000875AF000875AF000800
:1000500075AF000875AF000875AF000875AF0008F0
:1000600075AF000875AF000875AF000875AF0008E0
:1000700075AF000875AF000875AF000875AF0008D0
:1000800075AF000875AF000875AF000875AF0008C0
:1000900075AF000875AF000875AF000875AF0008B0
:1000A00075AF000875AF000875AF000875AF0008A0
:1000B000753B000875AF00089D3B000875AF000850
:1000C00075AF000875AF000875AF000875AF000880
:1000D00075AF0008C53B0008293C00081D3D00081D
:1000E00075AF000875AF000875AF0008000000008C
:1000F0000000000000000000000000000000000000
:0C01000000000000000000005FF808F1A3
:1001100010F8012B11F8013B012A28BF9A42F7D0B1
:10012000D01A7047034613F8012B002AFBD1181A86
:100130000138704781F0004102E000BF83F00043C6
:1001400030B54FEA41044FEA430594EA050F08BF72
:1001500090EA020F1FBF54EA000C55EA020C7FEA36
:10016000645C7FEA655C00F0E2804FEA5454D4EBB3
:100170005555B8BF6D420CDD2C4480EA020281EA7D
:10018000030382EA000083EA010180EA020281EAB5
:100190000303362D88BF30BD11F0004F4FEA013107
:1001A0004FF4801C4CEA113102D0404261EB410116
:1001B00013F0004F4FEA03334CEA133302D052429C
:1001C00063EB430394EA050F00F0A780A4F1010458
:1001D000D5F1200E0DDB02FA0EFC22FA05F2801892
:1001E00041F1000103FA0EF2801843FA05F3594178
:1001F0000EE0A5F120050EF1200E012A03FA0EFCF7
:1002000028BF4CF0020C43FA05F3C01851EBE37120
:1002100001F0004507D54FF0000EDCF1000C7EEB3D
:1002200000006EEB0101B1F5801F1BD3B1F5001F7B
:100230000CD349085FEA30004FEA3C0C04F101049A
:100240004FEA445212F5800F80F09A80BCF1004FC3
:1002500008BF5FEA500C50F1000041EB045141EA45
:10026000050130BD5FEA4C0C404141EB0101013C0E
:1002700028BFB1F5801FE9D291F0000F04BF0146FD
:100280000020B1FA81F308BF2033A3F10B03B3F1CF
:1002900020020CDA0C3208DD02F1140CC2F10C025F
:1002A00001FA0CF021FA02F10CE002F11402D8BFBD
:1002B000C2F1200C01FA02F120FA0CFCDCBF41EA89
:1002C0000C019040E41AA2BF01EB0451294330BD58
:1002D0006FEA04041F3C1CDA0C340EDC04F1140435
:1002E000C4F1200220FA04F001FA02F340EA03000C
:1002F00021FA04F345EA030130BDC4F10C04C4F152
:10030000200220FA02F001FA04F340EA0300294631
:1003100030BD21FA04F0294630BD94F0000F83F47B
:10032000801306BF81F480110134013D4EE77FEA5E
:10033000645C18BF7FEA655C29D094EA050F08BFAA
:1003400090EA020F05D054EA000C04BF194610468B
:1003500030BD91EA030F1EBF0021002030BD5FEACF
:10036000545C05D14000494128BF41F0004130BDF7
:1003700014F580043CBF01F5801130BD01F000454B
:1003800045F0FE4141F470014FF0000030BD7FEABE
:10039000645C1ABF194610467FEA655C1CBF0B46B9
:1003A000024650EA013406BF52EA033591EA030FD0
:1003B00041F4002130BD00BF90F0000F04BF0021C8
:1003C000704730B54FF4806404F132044FF00005FB
:1003D0004FF0000150E700BF90F0000F04BF002174
:1003E000704730B54FF4806404F1320410F00045DA
:1003F00048BF40424FF000013EE700BF42004FEAD5
:10040000E2014FEA31014FEA02701FBF12F07F4351
:1004100093F07F4F81F06051704732F07F4208BF08
:10042000704793F07F4F04BF41F40021704730B50F
:100430004FF4607401F0004521F000411CE700BF5B
:1004400050EA010208BF704730B54FF000050AE0DE
:1004500050EA010208BF704730B511F0004502D5DF
:10046000404261EB41014FF4806404F132045FEAE1
:10047000915C3FF4D8AE4FF003025FEADC0C18BF8A
:1004800003325FEADC0C18BF033202EBDC02C2F17C
:10049000200300FA03FC20FA02F001FA03FE40EA0E
:1004A0000E0021FA02F11444BDE600BF70B54FF012
:1004B000FF0C4CF4E06C1CEA11541DBF1CEA1355F0
:1004C00094EA0C0F95EA0C0F00F0DEF82C4481EA58
:1004D000030621EA4C5123EA4C5350EA013518BF78
:1004E00052EA033541F4801143F4801338D0A0FB65
:1004F00002CE4FF00005E1FB02E506F00042E0FB12
:1005000003E54FF00006E1FB03569CF0000F18BF17
:100510004EF0010EA4F1FF04B6F5007F64F54074BF
:1005200004D25FEA4E0E6D4146EB060642EAC62152
:1005300041EA55514FEAC52040EA5E504FEACE2EBF
:10054000B4F1FD0C88BFBCF5E06F1ED8BEF1004FC2
:1005500008BF5FEA500E50F1000041EB045170BD3E
:1005600006F0004646EA010140EA020081EA030182
:10057000B4EB5C04C2BFD4EB0C0541EA045170BD7E
:1005800041F480114FF0000E013C00F3AB8014F1F8
:10059000360FDEBF002001F0004170BDC4F1000441
:1005A000203C35DA0C341BDC04F11404C4F12005C2
:1005B00000FA05F320FA04F001FA05F240EA02001D
:1005C00001F0004221F0004110EBD37021FA04F653
:1005D00042EB06015EEA430E08BF20EAD37070BD0D
:1005E000C4F10C04C4F1200500FA04F320FA05F06C
:1005F00001FA04F240EA020001F0004110EBD3706E
:1006000041F100015EEA430E08BF20EAD37070BDDD
:10061000C4F1200500FA05F24EEA020E20FA04F3B6
:1006200001FA05F243EA020321FA04F001F0004165
:1006300021FA04F220EA020000EBD3705EEA430ED6
:1006400008BF20EAD37070BD94F0000F0FD101F005
:100650000046400041EB010111F4801F08BF013C3E
:10066000F7D041EA060195F0000F18BF704703F07C
:100670000046520043EB030313F4801F08BF013D03
:10068000F7D043EA0603704794EA0C0F0CEA1355BF
:1006900018BF95EA0C0F0CD050EA410618BF52EA79
:1006A0004306D1D181EA030101F000414FF000007F
:1006B00070BD50EA410606BF1046194652EA43068D
:1006C00019D094EA0C0F02D150EA013613D195EA01
:1006D0000C0F05D152EA03361CBF104619460AD149
:1006E00081EA030101F0004141F0FE4141F4700153
:1006F0004FF0000070BD41F0FE4141F4780170BD43
:1007000070B54FF0FF0C4CF4E06C1CEA11541DBFA7
:100710001CEA135594EA0C0F95EA0C0F00F0A7F8A9
:10072000A4EB050481EA030E52EA03354FEA0131D6
:1007300000F088804FEA03334FF0805545EA1313E9
:1007400043EA12634FEA022245EA111545EA1065B1
:100750004FEA00260EF000419D4208BF964244F148
:10076000FD0404F5407402D25B084FEA3202B61A67
:1007700065EB03055B084FEA32024FF480104FF43B
:10078000002CB6EB020E75EB030E22BFB61A7546AF
:1007900040EA0C005B084FEA3202B6EB020E75EB42
:1007A000030E22BFB61A754640EA5C005B084FEAAA
:1007B0003202B6EB020E75EB030E22BFB61A754677
:1007C00040EA9C005B084FEA3202B6EB020E75EB82
:1007D000030E22BFB61A754640EADC0055EA060E43
:1007E00018D04FEA051545EA16754FEA06164FEA86
:1007F000C30343EA52734FEAC2025FEA1C1CC0D132
:1008000011F4801F0BD141EA00014FF000004FF0BE
:10081000004CB6E711F4801F04BF01430020B4F17F
:10082000FD0C88BFBCF5E06F3FF6AFAEB5EB030C37
:1008300004BFB6EB020C5FEA500C50F1000041EB34
:10084000045170BD0EF0004E4EEA113114EB5C0401
:10085000C2BFD4EB0C0541EA045170BD41F48011D4
:100860004FF0000E013C90E645EA060E8DE60CEADC
:10087000135594EA0C0F08BF95EA0C0F3FF43BAFF9
:1008800094EA0C0F0AD150EA01347FF434AF95EAB0
:100890000C0F7FF425AF104619462CE795EA0C0F94
:1008A00006D152EA03353FF4FDAE1046194622E761
:1008B00050EA410618BF52EA43067FF4C5AE50EA3B
:1008C00041047FF40DAF52EA43057FF4EBAE12E72B
:1008D0004FF0FF3C06E000BF4FF0010C02E000BF0C
:1008E0004FF0010C4DF804CD4FEA410C7FEA6C5CEF
:1008F0004FEA430C18BF7FEA6C5C1BD001B050EA92
:10090000410C0CBF52EA430C91EA030F02BF90EA7C
:10091000020F0020704710F1000F91EA030F58BF3B
:10092000994208BF90422CBFD8176FEAE37040F09D
:10093000010070474FEA410C7FEA6C5C02D150EA3B
:10094000013C07D14FEA430C7FEA6C5CD6D152EAF6
:10095000033CD3D05DF8040B704700BF84461046BB
:1009600062468C461946634600E000BF01B5FFF7BA
:10097000B7FF002848BF10F1000F01BD4DF808ED8A
:10098000FFF7F4FF0CBF012000205DF808FB00BF5B
:100990004DF808EDFFF7EAFF34BF012000205DF8B5
:1009A00008FB00BF4DF808EDFFF7E0FF94BF012002
:1009B00000205DF808FB00BF4DF808EDFFF7CEFF03
:1009C00094BF012000205DF808FB00BF4DF808ED42
:1009D000FFF7C4FF34BF012000205DF808FB00BF13
:1009E0004FEA410C7FEA6C5C02D150EA013C0AD12B
:1009F0004FEA430C7FEA6C5C02D152EA033C02D11D
:100A00004FF0000070474FF0010070474FEA41027D
:100A100012F5001215D211D56FF47873B3EB625250
:100A200012D94FEAC12343F0004343EA505311F077
:100A3000004F23FA02F018BF404270474FF0000009
:100A4000704750EA013005D111F0004008BF6FF047
:100A5000004070474FF00000704700BF4A0011D2BD
:100A600012F5001211D20DD56FF47873B3EB625208
:100A70000ED44FEAC12343F0004343EA505323FA14
:100A800002F070474FF00000704750EA013002D189
:100A90004FF0FF3070474FF0000070474FEA4102BF
:100AA000B2F1E04324BFB3F5001CDCF1FE5C0DD9CC
:100AB00001F0004C4FEAC0024CEA5070B2F1004F16
:100AC00040EB830008BF20F00100704711F0804F19
:100AD00021D113F13872BCBF01F00040704741F4DE
:100AE00080114FEA5252C2F11802C2F1200C10FAE2
:100AF0000CF320FA02F018BF40F001004FEAC123C6
:100B00004FEAD32303FA0CFC40EA0C0023FA02F369
:100B10004FEA4303CCE77FEA625307D150EA01333F
:100B20001EBF4FF0FE4040F44000704701F000400F
:100B300040F0FE4040F40000704700BF80F00040ED
:100B400002E000BF81F0004142001FBF5FEA4103A5
:100B500092EA030F7FEA226C7FEA236C6AD04FEAA5
:100B60001262D2EB1363C1BFD218414048404140EA
:100B7000B8BF5B42192B88BF704710F0004F40F49C
:100B8000000020F07F4018BF404211F0004F41F4B8
:100B9000000121F07F4118BF494292EA030F3FD084
:100BA000A2F1010241FA03FC10EB0C00C3F1200397
:100BB00001FA03F100F0004302D5494260EB400026
:100BC000B0F5000F13D3B0F1807F06D340084FEA91
:100BD000310102F10102FE2A51D2B1F1004F40EB86
:100BE000C25008BF20F0010040EA030070474900EE
:100BF00040EB0000013A28BFB0F5000FEDD2B0FA8B
:100C000080FCACF1080CB2EB0C0200FA0CF0AABFAD
:100C100000EBC25052421843BCBFD040184370474B
:100C200092F0000F81F4000106BF80F40000013251
:100C3000013BB5E74FEA41037FEA226C18BF7FEA28
:100C4000236C21D092EA030F04D092F0000F08BF6A
:100C50000846704790EA010F1CBF0020704712F051
:100C60007F4F04D1400028BF40F00040704712F190
:100C700000723CBF00F50000704700F0004343F0F5
:100C8000FE4040F4000070477FEA226216BF08462B
:100C90007FEA23630146420206BF5FEA412390EAEE
:100CA000010F40F4800070474FF0000304E000BFE4
:100CB00010F0004348BF40425FEA000C08BF704795
:100CC00043F0964301464FF000001CE050EA010259
:100CD00008BF70474FF000030AE000BF50EA01026E
:100CE00008BF704711F0004302D5404261EB41015B
:100CF0005FEA010C02BF84460146002043F0B64380
:100D000008BFA3F18053A3F50003BCFA8CF2083AA4
:100D1000A3EBC25310DB01FA02FC634400FA02FCAD
:100D2000C2F12002BCF1004F20FA02F243EB0200B4
:100D300008BF20F00100704702F1200201FA02FC16
:100D4000C2F1200250EA4C0021FA02F243EB020009
:100D500008BF20EADC7070474FF0FF0C1CEAD0524D
:100D60001EBF1CEAD15392EA0C0F93EA0C0F6FD00E
:100D70001A4480EA010C400218BF5FEA41211ED0EC
:100D80004FF0006343EA501043EA5111A0FB0131D8
:100D90000CF00040B1F5000F3EBF490041EAD371AD
:100DA0005B0040EA010062F17F02FD2A1DD8B3F129
:100DB000004F40EBC25008BF20F00100704790F098
:100DC000000F0CF0004C08BF49024CEA502040EAEA
:100DD00051207F3AC2BFD2F1FF0340EAC2507047B0
:100DE00040F400004FF00003013A5DDC12F1190FEE
:100DF000DCBF00F000407047C2F10002410021FA60
:100E000002F1C2F1200200FA02FC5FEA310040F177
:100E1000000053EA4C0308BF20EADC70704792F0F0
:100E2000000F00F0004C02BF400010F4000F013A28
:100E3000F9D040EA0C0093F0000F01F0004C02BF23
:100E4000490011F4000F013BF9D041EA0C018FE792
:100E50000CEAD15392EA0C0F18BF93EA0C0F0AD098
:100E600030F0004C18BF31F0004CD8D180EA0100BE
:100E700000F00040704790F0000F17BF90F0004F57
:100E8000084691F0000F91F0004F14D092EA0C0F39
:100E900001D142020FD193EA0C0F03D14B0218BFCC
:100EA000084608D180EA010000F0004040F0FE4012
:100EB00040F40000704740F0FE4040F440007047AE
:100EC0004FF0FF0C1CEAD0521EBF1CEAD15392EA2D
:100ED0000C0F93EA0C0F69D0A2EB030280EA010C1D
:100EE00049024FEA402037D04FF0805343EA1111B6
:100EF00043EA10130CF000408B4238BF5B0042F114
:100F00007D024FF4000C8B4224BF5B1A40EA0C00B8
:100F1000B3EB510F24BFA3EB510340EA5C00B3EBEA
:100F2000910F24BFA3EB910340EA9C00B3EBD10FD8
:100F300024BFA3EBD10340EADC001B0118BF5FEA2A
:100F40001C1CE0D1FD2A3FF650AF8B4240EBC25053
:100F500008BF20F0010070470CF0004C4CEA502014
:100F60007F32C2BFD2F1FF0340EAC250704740F463
:100F700000004FF00003013A37E792F0000F00F055
:100F8000004C02BF400010F4000F013AF9D040EAD3
:100F90000C0093F0000F01F0004C02BF490011F467
:100FA000000F013BF9D041EA0C0195E70CEAD1535F
:100FB00092EA0C0F08D142027FF47DAF93EA0C0F46
:100FC0007FF470AF084676E793EA0C0F04D14B022A
:100FD0003FF44CAF08466EE730F0004C18BF31F0DC
:100FE000004CCAD130F000427FF45CAF31F00043D6
:100FF0007FF43CAF5FE700BF4FF0FF3C06E000BF6F
:101000004FF0010C02E000BF4FF0010C4DF804CD91
:101010004FEA40024FEA41037FEA226C18BF7FEAA1
:10102000236C11D001B052EA530C18BF90EA010FA3
:1010300058BFB2EB030088BFC81738BF6FEAE17032
:1010400018BF40F0010070477FEA226C02D15FEACE
:10105000402C05D17FEA236CE4D15FEA412CE1D03A
:101060005DF8040B704700BF844608466146FFE701
:101070000FB5FFF7C9FF002848BF10F1000F0FBDE3
:101080004DF808EDFFF7F4FF0CBF012000205DF8DC
:1010900008FB00BF4DF808EDFFF7EAFF34BF012061
:1010A00000205DF808FB00BF4DF808EDFFF7E0FFFA
:1010B00094BF012000205DF808FB00BF4DF808ED4B
:1010C000FFF7D2FF94BF012000205DF808FB00BFAE
:1010D0004DF808EDFFF7C8FF34BF012000205DF890
:1010E00008FB00BF4FEA4002B2F1FE4F0FD34FF0B2
:1010F0009E03B3EB12620DD94FEA002343F0004385
:1011000010F0004F23FA02F018BF404270474FF032
:101110000000704712F1610F01D1420205D110F0B9
:10112000004008BF6FF0004070474FF0000070476C
:1011300042000ED2B2F1FE4F0BD34FF09E03B3EB41
:10114000126209D44FEA002343F0004323FA02F06D
:1011500070474FF00000704712F1610F01D1420259
:1011600002D14FF0FF3070474FF00000704700BFD2
:101170000348044B834202D0034B03B11847704726
:101180000C0200200C020020000000000548064B65
:101190001B1AD90F01EBA301491002D0034B03B175
:1011A000184770470C0200200C02002000000000CD
:1011B00010B5064C237843B9FFF7DAFF044B13B19F
:1011C0000448AFF300800123237010BD0C020020FF
:1011D0000000000078AF000808B5054B1BB10549B9
:1011E0000548AFF30080BDE80840FFF7CFBF00BF60
:1011F000000000001002002078AF000870470000D7
:1012000038B50E4B05461A784FF47A73B3FBF2F3F8
:101210000B4A1068B0FBF3F000F09CF8044658B994
:101220000F2D09D8024629464FF0FF3000F054F840
:101230002046044B1D6038BD0120FCE70000002063
:101240000802002004000020074A08B513680320A4
:1012500043F01003136000F02DF80F20FFF7D0FFCC
:10126000FFF7CCFF002008BD00200240034A044BDA
:1012700011681B780B441360704700BF28020020E0
:1012800000000020014B1868704700BF28020020B2
:1012900038B50446FFF7F6FF0546631C1EBF044B36
:1012A0001B78E418FFF7EEFF431BA342FAD338BDC7
:1012B0000000002007490302CA6803F4E06322F437
:1012C000E0621204120C134343F0BF6343F4003393
:1012D000CB60704700ED00E0154B30B5DC68C4F31F
:1012E0000224C4F10703251D042B28BF0423062D67
:1012F0004FF0FF3594BF0024033C05FA03F321EAC5
:101300000303A54022EA0502A340002843EA0203A2
:10131000ACBF00F16040074A4FEA0313DBB2ABBF3A
:1013200000F5614000F00F0080F80033135430BD29
:1013300000ED00E014ED00E0002807DB0123410987
:10134000034A00F01F00834042F82130704700BF7D
:1013500000E100E00138B0F1807F0BD24FF0E023D4
:10136000F021054A586182F8231000200722986175
:101370001A6170470120704700ED00E02DE9F74F3A
:1013800000244FF00F0E2646DFF884C1614B00F1B8
:1013900004080A6832FA06F502D103B0BDE8F08FFE
:1013A000012505FA06F702EA070537EA020276D1B7
:1013B0004A68032A07D8013A022A00F28380DFE84C
:1013C00002F091969C00122A00F0948069D8112AAC
:1013D00000F08A80FF2D94BF8146C1464FEA860205
:1013E000D9F8007088BF203A0EFA02FA27EA0A07F5
:1013F00004FA02F21743C9F80070D1F8049019F00A
:10140000805F4CD0DCF8182026F0030742F0010280
:10141000CCF81820DCF8182007F1804702F0010210
:10142000019207F5803706F0030A019A4FEA8A0A0B
:10143000BA680EFA0AFB22EA0B0B374A904260D0D8
:1014400002F5806290425ED002F5806290425CD0EC
:1014500002F58062904214BF0422032202FA0AF2CB
:1014600042EA0B02BA609A6819F4801F14BF2A433B
:10147000AA439A60DA6819F4001F14BF2A43AA43EA
:10148000DA605A6819F4003F14BF2A43AA435A602D
:101490001A6819F4803F14BF2A43AA431A60013620
:1014A00077E7DFF878904A450CD014D8A9F5801971
:1014B0004A4507D009F570294A4503D0A9F5801996
:1014C0004A4587D18A68D2B1012A4FF008040CBF7F
:1014D000076147617EE7DFF848904A45F2D009F599
:1014E0008039EDE7CC6875E7CC68043472E7CC68E6
:1014F00008346FE7CC680C346CE700246AE70424F6
:1015000068E70022AAE70122A8E70222A6E700BFB7
:1015100000100240000401400008014000002210B9
:101520000000311080680840003818BF0120704763
:101530000AB1016170470904FBE7C36801EA0302CD
:1015400021EA030141EA0241016170472DE9F341BB
:10155000054638B30368DB0710D42B689F075ED4B9
:101560002B68190700F195802B685A0700F1C1809C
:10157000EB69002B40F02C81002029E0904C63683F
:1015800003F00C03042B07D0636803F00C03082B53
:101590000AD16368DE0307D523689C03DDD56B6839
:1015A000002BDAD1012013E06B68B3F5803F12D134
:1015B000236843F480332360FFF764FE0646236804
:1015C0009803CAD4FFF75EFE801B6428F7D9032076
:1015D00002B0BDE8F0819BB9236823F48033236017
:1015E000236823F480232360FFF74CFE064623681C
:1015F0009903B2D5FFF746FE801B6428F7D9E6E7CA
:10160000B3F5A02F236803D143F480232360CFE7F1
:1016100023F480332360236823F48023CBE7684CD2
:10162000636813F00C0F07D0636803F00C03082BFA
:1016300010D16368DA030DD423689B0702D52B69A8
:10164000012BAFD123686A6923F0F80343EAC20390
:10165000236085E72A695B4B6AB101221A60FFF7B4
:1016600011FE064623689F07ECD4FFF70BFE801B94
:101670000228F7D9ABE71A60FFF704FE0646236895
:1016800098077FF56DAFFFF7FDFD801B0228F6D9A7
:101690009DE7AA694A4E4B4BE2B10122C3F8802470
:1016A000FFF7F0FD0446736A9B070DD54FF4FA521D
:1016B000454B1B68B3FBF2F3019300BF019B5A1E1D
:1016C0000192002BF9D14FE7FFF7DCFD001B022848
:1016D000E9D97CE7C3F88024FFF7D4FD0446736A98
:1016E0009F077FF541AFFFF7CDFD001B0228F6D91C
:1016F0006DE7334CE369D80024D40127E36943F054
:101700008053E361E36903F080530093009B2F4E05
:101710003368D90518D5EB68012B26D1236A43F02D
:1017200001032362FFF7AEFD41F288380646236AC3
:101730009B073FD5002F3FF41BAFE36923F0805395
:10174000E36115E70027E2E7336843F48073336011
:10175000FFF798FD80463368DA05DCD4FFF792FD89
:10176000A0EB08006428F6D931E7ABB9236A41F24F
:10177000883823F001032362236A23F004032362E1
:10178000FFF780FD0646236A9807D3D5FFF77AFD59
:10179000801B4045F7D91AE7052B236A03D143F094
:1017A00004032362BAE723F001032362236A23F0D0
:1017B0000403B6E7FFF766FD801B4045B7D906E78F
:1017C0000010024000004242080200200070004069
:1017D0002A4C626802F00C02082A3ED00022022B3A
:1017E000274B1A662CD1FFF74DFD06462368990159
:1017F00020D42B6AB3F5803F05D16268A96822F432
:1018000000320A436260696A62680B4322F4741210
:101810001343012263601A4B1A66FFF733FD054636
:1018200023689A013FF5A8AEFFF72CFD401B022864
:10183000F6D9CCE6FFF726FD801B0228D6D9C6E6EE
:10184000FFF720FD054623689B017FF595AEFFF766
:1018500019FD401B0228F6D9B9E6012B3FF4A2AED0
:1018600060682B6A00F480329A427FF49BAE6B6A08
:1018700000F47010C01A18BF0120A9E60010024041
:10188000000042420D4A536803F00C01082912D1AE
:101890000B48C3F38341DB03405C09D55368094A15
:1018A000C3F340435043084AD35CB0FBF3F07047A6
:1018B000064B584370470348704700BF0010024072
:1018C0009EAF000800127A009CAF000800093D009E
:1018D0002DE9F0410D46044610B90120BDE8F08124
:1018E000444A136803F007038B4228D321688E070C
:1018F00030D4CA0743D43F4A136803F00703AB420E
:1019000065D822683C4D12F0040F6CD1130706D540
:101910006B68226923F4605343EAC2036B60FFF7EC
:10192000B1FF6B68354AC3F30313D35CD840344B23
:101930001860344B1868FFF763FC0020CEE713688B
:1019400023F007030B431360136803F007038B4274
:10195000C3D1CBE7284B11F0040F1EBF5A6842F4E5
:10196000E0625A60080742BF5A6842F460525A6007
:101970005A68A06822F0F00202435A60B9E7626830
:101980001D4E012A33681AD113F4003FA5D07368A5
:1019900041F2883823F0030313437360FFF772FCAE
:1019A00007467368626803F00C03B3EB820FA2D0A2
:1019B000FFF768FCC01B4045F3D903208EE7022ADD
:1019C00002D113F0007FE1E713F0020FDEE71368A6
:1019D00023F007032B431360136803F00703AB42A4
:1019E0007FF47BAF8DE76B68E16823F4E0630B4322
:1019F0006B608BE70020024000100240F8D1000825
:101A00000802002004000020044B054A5B68C3F371
:101A10000223D35C034A1068D8407047001002408C
:101A2000F0D1000808020020044B054A5B68C3F3AC
:101A3000C223D35C034A1068D840704700100240AC
:101A4000F0D1000808020020036A026A70B522F093
:101A500001020262446882690D6822F073022A431F
:101A60008D6823F002032B430A4DA8420BD1CD68A9
:101A700023F008032B4324F44074D1E90556354381
:101A800023F004032C43446082614A68426303628A
:101A900070BD00BF002C0140036A026A70B522F4D9
:101AA000807202624468C2690D6822F073022A43A0
:101AB0008D6823F4007343EA05230B4DA8420DD132
:101AC000CD6823F4006343EA052324F44054D1E9AC
:101AD0000556354323F4806344EA05144460C2612B
:101AE0004A68C263036270BD002C0140036A026A47
:101AF00030B522F4805202624468C2690D6822F453
:101B0000E64242EA05228D6823F4005343EA053396
:101B1000064DA84202BF4D6924F4804444EA85146E
:101B20004460C2614A680264036230BD002C014017
:101B30007047000090F83D30012B1CD102230F4A62
:101B400080F83D30036893420AD0B3F1804F07D04C
:101B5000A2F59432934203D002F58062934204D1FD
:101B60009A6802F00702062A03D01A6842F00102BE
:101B70001A60002070470120704700BF002C014010
:101B800070470000174A036890420AD0B0F1804FB6
:101B900007D0A2F59432904203D002F580629042C1
:101BA00007D14A6823F070031343CA6823F44073D3
:101BB00013434A6923F08003134303608B68C362B5
:101BC0000B688362074B984204BF0B6903630123D0
:101BD00043610369DB0742BF036923F0010303612B
:101BE000704700BF002C014010B5044630B390F898
:101BF0003D3003F0FF021BB980F83C20FFF798FF4F
:101C00000223206884F83D30211DFFF7BBFF01232C
:101C1000002084F8463084F83E3084F83F3084F861
:101C2000403084F8413084F8423084F8433084F8FE
:101C3000443084F8453084F83D3010BD0120FCE785
:101C400010B5044630B390F83D3003F0FF021BB9E5
:101C500080F83C20FFF794FF0223206884F83D3091
:101C6000211DFFF78FFF0123002084F8463084F800
:101C70003E3084F83F3084F8403084F8413084F8B6
:101C8000423084F8433084F8443084F8453084F896
:101C90003D3010BD0120FCE7036A026A70B522F0F6
:101CA00010020262446882690D6822F4E64242EA48
:101CB00005228D6823F0200343EA05130B4DA8424B
:101CC0000DD1CD6823F0800343EA051324F440646A
:101CD000D1E90556354323F0400344EA85044460C6
:101CE00082614A688263036270BD00BF002C0140BC
:101CF00038B590F83C300446012B4FD00120082A1B
:101D000084F83C003AD006D8BAB1042A26D0002381
:101D100084F83C3038BD0C2AF9D12068FFF7E6FE84
:101D2000C3690A6943F40063C361C36923F4806330
:101D3000C361C36943EA02232EE02068FFF784FEF3
:101D400083690A6943F008038361836923F004030C
:101D500083618369134383610020D8E72068FFF71C
:101D60009BFF83690A6943F400638361836923F4F9
:101D700080638361836943EA0223ECE72068FFF70D
:101D80008BFEC3690A6943F00803C361C36923F08A
:101D90000403C361C3691343C361DDE70220B9E7EC
:101DA00010B50124036A01F01F018C4023EA0403EB
:101DB0000362036A8A401A43026210BD08B529B95A
:101DC00090F83E30012B1DD001202EE0042907D1D0
:101DD00090F83F30012BF7D1022380F83F3014E018
:101DE000082907D190F84030012BEDD1022380F86B
:101DF00040300AE090F84130012BE5D1022380F811
:101E0000413002E0022380F83E3000680122FFF7F3
:101E1000C7FF0F4B984209D0B0F1804F0BD18368B8
:101E200003F00703062B0DD1002008BD436C43F4DB
:101E300000434364F3E7074B9842F0D003F5806317
:101E40009842ECD0036843F001030360ECE700BF65
:101E5000002C014000040040FFF7B0BF026802F10F
:101E60000C0353E8003F23F490730C3242E8003136
:101E700002680029F2D102F1140353E8003F23F075
:101E8000010302F1140C4CE800310029F3D1036B7B
:101E9000012B0BD102F10C0353E8003F23F0100398
:101EA00002F10C0C4CE800310029F3D1202380F81A
:101EB000423000230363704710B504460368C168CD
:101EC0001A6922F440520A431A6182680069D9688B
:101ED0000243606921F4B05121F00C0102430A432E
:101EE000DA605A69A16922F440720A435A610E4AC3
:101EF000934215D1FFF798FD192343436268206888
:101F00009200B3FBF2F36422B3FBF2F102FB113354
:101F10001B013233B3FBF2F303EB0113836010BDFB
:101F2000FFF772FDE8E700BF00380140F7B505464E
:101F30000C4617461E462A68136834EA030301D18B
:101F4000002021E0701CF7D0FFF79CF9C01B8642EF
:101F50001CD3DEB12B68DA685107ECD5802CEAD0AF
:101F6000402CE8D01A681207E5D5002401941A68BD
:101F7000284601925B680193019BFFF76FFF0823DE
:101F800001206B6485F8404003B0F0BD0320FBE7FF
:101F9000704710B5044648B390F8413003F0FF0293
:101FA0001BB980F84020FFF7F3FF2423226884F850
:101FB0004130D368204623F40053D360FFF77CFF01
:101FC000236800201A6922F490421A615A6922F0AB
:101FD0002A025A61DA6842F40052DA60202360640F
:101FE00084F8413084F84230606310BD0120FCE782
:101FF0002DE9F843984690F841300446202B0E46D0
:1020000017463FD100293FD0002A3DD0212300258B
:10201000456480F84130FFF735F9A3688146B3F590
:10202000805FA784E78403D123690BB935461E4638
:10203000E38C9BB253B943464A4640212046FFF702
:1020400075FF202350B984F841300AE043464A46E0
:1020500080212046FFF76AFF28B12023032084F85F
:102060004130BDE8F88322684EB935F8023BC3F32E
:1020700008035360E18C013989B2E184D8E716F88E
:10208000013BF6E70220ECE70120EAE708B52B4820
:1020900004F04EFE2A4804F04BFE2A4804F048FEA5
:1020A000294804F045FE294804F042FE284804F07F
:1020B0003FFE284804F03CFE274804F039FE27483C
:1020C00004F036FE204804F033FE254804F030FECC
:1020D000244804F02DFE244804F02AFE234804F08E
:1020E00027FE194804F024FE214804F021FE21486F
:1020F00004F01EFE204804F01BFE204804F018FEE9
:10210000114804F015FE1E4804F012FE1D4804F0AC
:102110000FFE1D4804F00CFE1C4804F009FE1C488C
:1021200004F006FE1B4804F003FE1B4804F000FE0A
:10213000BDE80840014804F0FBBD00BF6BC30008C8
:10214000AEAF000836B0000872B00008FAB0000860
:1021500030B100086BB10008A7B10008E2B1000877
:102160001EB2000854B2000890B20008CFB20008B6
:1021700009B3000840B300087BB30008B5B30008FA
:10218000E8B300081EB4000859B4000895B400086C
:10219000D2B400080EB500084AB500082DE9F04396
:1021A0004D4B85B0986CFEF783FD4C49FEF7D4FD8E
:1021B0004B49FEF785FE4B4B8046986CFEF778FD49
:1021C0004649FEF7C9FD4649FEF77AFE464B0446EE
:1021D0001868FEF76DFD4149FEF7BEFD4049FEF768
:1021E0006FFE424B05461868FEF762FD3B49FEF75D
:1021F000B3FD3B49FEF764FE3D4B06461B783D4868
:10220000033BDBB2042B96BF3B4A3C4F52F8237092
:1022100004F08EFD3A4804F08BFD3A4804F088FD46
:10222000394804F085FD4046FEF7E8F88046284628
:102230008946FEF7E3F842464B46CDE900013348B4
:1022400004F00EFD2046FEF7D9F8044630460D4650
:10225000FEF7D4F822462B46CDE900012C4804F0C5
:10226000FFFC2C4E2C4804F063FD39462B4804F04B
:10227000F7FC3068FEF7C2F80446B0680D46FEF77A
:10228000BDF8CDE902017068FEF7B8F8244E224689
:102290002B46CDE90001234804F0E2FC3068FEF74C
:1022A000ADF80446B0680D46FEF7A8F8CDE9020186
:1022B0007068FEF7A3F82246CDE900012B461A48C4
:1022C00004F0CEFC194804F033FD0A4805B0BDE81F
:1022D000F04304F02DBD00BF340700200000B443DC
:1022E00000006145DC0600204C0500204805002068
:1022F0003C0000206BC3000890CD0008D2B5000858
:10230000D6B5000834B6000868B60008C6B600089E
:10231000F5B600087405002024B7000882B700084D
:1023200050050020A0B70008CEB70008FCB7000891
:10233000002310B503638364C36403640446FEF79B
:10234000A1FF0123A4F85430206510BD002310B56F
:10235000C36003610446FEF795FFE06110BD000015
:102360002DE9F04F82EAE274A4EBE274A4B2B4F572
:10237000C87F88BF002491B09B461B9B09920C9399
:102380001C9B82460A931E9B0D460B931F9B9DF838
:1023900068800D9391F85530BDF9749088BF099409
:1023A000ABB109F104031BB2A3420ADB03F09FFCAB
:1023B000002800F09581504611B0BDE8F04F03F0C1
:1023C000FFBB0023084681F85530FFF7B1FFA14558
:1023D00080F2AD810998FEF76BFC9BF81030064641
:1023E0004FF07E52002B40F0C3800123CBF8000059
:1023F000CBF804208BF81030FEF744FF0746286D19
:10240000381AFEF751FC7849FEF75AFD7749044621
:10241000FEF740FE002840F0D8804FF07E51204665
:10242000FEF756FE08B14FF07E5429682F653046FE
:10243000FEF792FC0746A96C3046FEF783FB214667
:10244000FEF73EFDA968AE64FEF786FC3946FEF74E
:102450007BFB2F6E04463946FEF73AFE00B13C4640
:10246000EF6D20463946FEF715FE00B13C464FF0B1
:102470007E512046FEF72CFE002840F06C8120465D
:102480005B49FEF707FE00B1594CB8F1000F01D0CF
:1024900004F1004400212046FEF710FE002840F021
:1024A000988004F1004327461C464846FEF700FC8E
:1024B000D5F8048081464146FEF700FE28B14FF072
:1024C0007E514846FEF740FB804600213046FEF72D
:1024D000FFFD00287FD106F100404946FEF732FBA0
:1024E00049460E904046FEF72DFB01460E98FEF73A
:1024F000E7FC00218046FEF7CDFD00286DD14FF0AE
:102500007E514046FEF7E4FD08B14FF07E5850463C
:1025100003F0EFFB002181463846FEF7CFFD00288F
:102520005ED009F101000B9B984202DC5B428342C2
:1025300064DD504603F0DBFB10B1504603F040FB76
:102540002846FFF7F5FE002300228BF810300A9B87
:102550001A60284B1A78002A40F0C28001222648CF
:102560001A70DDE90B2111B0BDE8F04F04F078BB23
:10257000DBF80810DBF804000F92FEF7E5FADBF851
:102580000C100446FEF7E0FA01462046FEF798FCE0
:102590000746DBF80030304619460E93FEF7D2FAB4
:1025A0003946FEF7D9FB0E9B1946FEF7CDFA0F9A76
:1025B0003946CBF8000006461046FEF7C3FA21461E
:1025C000FEF7CAFBCBF8040016E7084C2DE7084CD1
:1025D00067E7274669E730467FE74FF0000896E750
:1025E00009F1FF309FE700BF00007A446F12833A81
:1025F000000080BF2E0200205DB800082146404642
:10260000FEF748FD00286ED040460D99FEF7A4FB6A
:1026100000218146FEF73EFD08B14FF000090A9BFC
:10262000514948461C68FEF797FBFEF781FD44F6CA
:102630002063181A984228BF1846B0F5487F38BF63
:102640004FF44870FEF730FB002105462046FEF7A8
:1026500017FD78B94FF07C512046FEF77DFB4FF017
:102660007C5104462846FEF777FB01462046FEF7DC
:102670006BFA05460A9B4FF07C511D602846FEF719
:1026800063FAFEF755FD44F62063984228BF1846CA
:102690000021B0F5487F8346384638BF4FF4487B69
:1026A000FEF70CFDB0FA80F15046490903F042F9FB
:1026B000504603F01CFB012802D0504603F098F965
:1026C0005946504603F06AF9284A2949BAEB0202F2
:1026D00018BF01228B5C0133DBB2042B05D88B546D
:1026E00011B0BDE8F08F20468FE7002330468B54B1
:1026F000FDF784FE044648460D46FDF77FFE06467C
:1027000040460F46FDF77AFE80465046894603F064
:10271000F0FACDE90489CDE906B0CDE90267CDE94B
:102720000045099A0C99134804F09AFAD8E75046E4
:1027300003F0DDFA10B1504603F042FA2846FFF7E5
:10274000F7FD002300228BF810300A9B1A6001234A
:1027500085F85530C4E7B8F1000F7FF438AF4FF07B
:102760007E573C46A1E600BF000096463407002095
:102770002C0200208BB80008F0B51E4E3368DB68D1
:102780009B0436D572B61C4D1C4B1D4F01442A8844
:102790001C880132A4B2C2F30802A24208BF1C88FE
:1027A00010F801CB02BF0134C4F308041C802C884C
:1027B0008842A4B207F804C02A80E8D162B6114862
:1027C0000278B2B929881A8889B292B2914210D09F
:1027D000012202701A8892B2B95C1A88C9B2013219
:1027E000C2F308021A8033685960DA6842F0800246
:1027F000DA60F0BDD4070020E8020020E6020020E5
:10280000EA020020E50200200FB407B504AB53F83C
:10281000042B80210648019304F08AFB011E02DD8F
:102820000348FFF7A9FF03B05DF804EB04B070475D
:10283000380200200021F0B5934B944D1A78944B48
:10284000D2B289B0995418781C46A0F10A02D2B2CB
:10285000162A194603F1010362D825FA02F2D207BB
:10286000F1D48C4A601E133110F8013F0BB188423D
:102870005AD1002388498948137004F0AEFC2578AA
:10288000782D7DD059D8592D00F0A5805A2D58D0DB
:10289000582D75D003222046814904F001FC38B13F
:1028A000032220467F4904F0FBFB002840F0D18042
:1028B00000238DF8173006930023079307AB00938E
:1028C000794906AB0DF11702E01C04F091FA0328D8
:1028D00040F0BA809DF81730744943F02003742B00
:1028E00006A807BF724C734D734C744DFDF710FC76
:1028F000002840F09780079B23600622704B1A70D7
:10290000FEF7C0FC6F4B963018600798FDF776FD18
:10291000CDE9000129466C4806AAFFF775FF01E0E2
:1029200000289ED109B0F0BDA3F16105192D9CBF0F
:10293000203BDBB202F8013B96E7792D4BD07A2D94
:10294000A8D1624803F0B2F8614803F0AFF8002361
:10295000604A59481360604A1360FFF7F7FC544817
:10296000FFF7F4FC0622564B1A70FEF78BFC554B12
:1029700096301860594809B0BDE8F040FFF744BFF1
:102980000023574907AA601C079304F031FA012875
:102990001DD154490798FEF7DFF95349FEF790FA25
:1029A000FEF7A0FB0622464B4A4C1A702060FEF749
:1029B00069FC444B963018600798FDF71FFD0B46E5
:1029C0002168024649480091FFF71EFFAAE74848E0
:1029D000FFF71AFFA6E70023414907AA601C0793E7
:1029E00004F006FA01281BD13E490798FEF7B4F916
:1029F0003D49FEF765FAFEF775FB0622304B364C73
:102A00001A702060FEF73EFC2E4B96301860079837
:102A1000FDF7F4FC0B462168024600913548D3E7E8
:102A20003548D5E7354906A8FDF772FB10B9079B75
:102A3000636062E7324906A8FDF76AFB002840F0B0
:102A40009883079BA36058E72E48FFF7DDFE2E48CA
:102A5000BEE705F0DF054B2D09D10522184B1A7092
:102A6000FEF710FC174B96301860284883E74D2D71
:102A700050D10622124B1A70FEF704FC114B96300F
:102A80001860234877E700BFAF0600200900400028
:102A9000B0060020FE040020F1B80008EA0400207F
:102AA000BEB90008C2B90008C6B90008D1B900080B
:102AB00050050020CCB8000874050020D1B80008EB
:102AC0003C0000208806002003BA000834070020DC
:102AD000DC0600204C0500204805002093B90008C2
:102AE000CEB90008000061450000B443F4B8000806
:102AF00017B9000843B9000867B90008D4B900083D
:102B0000D7B9000826BA000851BA000869BA000807
:102B100092BA000808222046944904F0C1FA30B164
:102B200008222046924904F0BBFA002834D1002341
:102B300090498DF81830079306AA07AB04F10800F6
:102B400004F056F9022821D19DF8183043F02003F3
:102B5000702B15D1884B079A1A60FEF793FB874BB1
:102B6000963018609DF818308548864943F0200358
:102B7000702B18BF0146079A8348FFF745FED1E640
:102B8000742B01D1814BE6E7814821E77F4B8148D7
:102B90001A68794B1968F0E7052220467E4904F04F
:102BA0007FFA30B1052220467C4904F079FA0028EA
:102BB00044D14FF496737A4907AA601D079304F035
:102BC00017F9079D774BB5F5006FA8BF4FF4006567
:102BD000322DB8BF32259A6C734B744C9B6C511BD1
:102BE000581B2B44C4E90531E36100232A44C4E99E
:102BF0000220226101226E4E216033706D4B6060B5
:102C00001A70FEF73FFB07226B4B18606B4B6C484A
:102C10001A7022686B4B1A6062686B4B1A60FFF780
:102C200095FB6A48FFF792FB29463278684804F022
:102C300017F807996748FFF7E7FD73E60422204677
:102C4000654904F02DFA28B104222046634904F0B6
:102C500027FA68B90022574B52481A7002F0B0FFA9
:102C6000514802F0ADFF0622544B5D481A7082E6CF
:102C7000042220465B4904F013FA28B104222046BE
:102C8000594904F00DFA20B909B0BDE8F040FFF74A
:102C9000FDB906222046554904F002FA28B1062261
:102CA0002046534904F0FCF920B909B0BDE8F040D2
:102CB000FFF774BA042220464E4904F0F1F928B116
:102CC000042220464C4904F0EBF970B900233D4A38
:102CD00013603D4A13600622384B1A70FEF7D2FA91
:102CE000264B96301860454845E604222046444964
:102CF00004F0D6F928B104222046424904F0D0F964
:102D000048BB043425462B780134202BFAD002220C
:102D100028463D4904F0C4F928B1022228463B491F
:102D200004F0BEF920B90122394B3A481A7022E664
:102D300003222846384904F0B3F928B10322284673
:102D4000364904F0ADF920B90022314B34481A70ED
:102D500011E634480FE6194D2B78052B68D132491E
:102D6000324809B0BDE8F040FFF74EBDB5BA0008E3
:102D7000BEBA0008C7BA0008A005002088060020D7
:102D8000CCB80008D1B80008E9BA00089C050020BA
:102D9000CEBA000806BB000824BB00082ABB000806
:102DA000CBBA000834070020DC0600201C050020F8
:102DB0003C0500203D050020180500203C000020B7
:102DC000740500204C050020480500205005002017
:102DD00030BB000864BB000887BB00088CBB000840
:102DE00091BB00089FBB0008A4BB0008A9BB00085A
:102DF000B0BB0008B7BB0008BCBB0008C1BB0008E3
:102E0000E0BB0008E5BB0008EABB0008EDBB00081A
:102E1000DC020020F0BB000813BC000817BC00084F
:102E20001BBC000832BC0008B006002054BC0008DF
:102E300003232B70FEF726FA994B96301860002278
:102E40004FF400519748FEF773FB97499748FFF7F7
:102E5000DBFC2678A6F13F03352B00F28F81DFE8FB
:102E600013F0CC008D0193008D018700A7008D0128
:102E70007900CF008000C0008D018D018D018D0192
:102E80008D018D013B008D018D019F0074008D012E
:102E90008D018D018D018D018D018D018D018D01C2
:102EA0008D018D018D0193008D018700A7008D019B
:102EB0007900CF008000B4008D018D018D018D015E
:102EC0008D018D0136008D018D019F007400784BBE
:102ED000784A79481A604EE5784E3068FDF78EFAE8
:102EE0000446B0680D46FDF789FACDE90201706825
:102EF000FDF784FA22462B46CDE900017048FFF722
:102F000083FC704B704E1A7803217048FFF77CFCED
:102F10003068FDF773FA0446B0680D46FDF76EFAA7
:102F2000CDE902017068FDF769FA2246CDE900019A
:102F30002B466748FFF768FC0421664B63481A7804
:102F400009B0BDE8F040FFF75FBC594B624A6348E7
:102F50001A6010E5564B0021186802F0E3FC604847
:102F600009E5534B0121186802F0DCFC5D4802E5DD
:102F70004F4C0021206802F0DDFC206802F038FD93
:102F8000216859482031ECE6494C0121206802F0C3
:102F9000D1FC206802F02CFD216854482031E0E685
:102FA000434C206802F00CFE216851482031D8E6DD
:102FB000404802F01DFD484802F01AFD042300229B
:102FC0002B704C4B4C481A60D5E43E4A4B48137862
:102FD00083F0010111704A494A4A012B08BF11468A
:102FE000BFE63C4A4848137883F001011170444918
:102FF000444A012B08BF1146B3E6FFF747F854E6F1
:10300000002300268DF81730069307AB00933F4945
:1030100006AB0DF11702601C079603F0E9FE0328CA
:1030200040F0AA809DF81750244C274B45F020050E
:10303000374906A8742D08BF1C46FDF769F8F0B99A
:10304000079F344E38463146FEF724F808B10796FC
:1030500006E0314E38463146FEF73AF80028F6D100
:10306000079820602D4B2E4C742D08BF1C46FDF791
:10307000C5F906AACDE9000121462A484DE42A49AE
:1030800006A8FDF745F800285CD1079F274E384673
:103090003146FDF7FFFF00284AD007964FE000BFFA
:1030A0008806002000100140B006002068BC00081F
:1030B000340000203407002071BC000808060020FE
:1030C00097BC000808000020A4050020BCBC000834
:1030D000D5BC000812050020DC060020FABC000860
:1030E00021BD000841BD00085EBD00087ABD000892
:1030F00097BD0008D8060020A8BD0008C7BD00087D
:10310000D5B80008E4B80008E2BD0008C7B9000857
:10311000D1B900086F12833ACDCC4C3DCCB8000831
:10312000D1B80008FEBD0008D4B900080000204155
:10313000454E38463146FDF7CBFF0028ADD1079804
:1031400060608FE7414906A8FCF7E2FF88B9079F56
:1031500031463846FDF79EFF08B1079606E03C4E23
:1031600038463146FDF7B4FF0028F6D10798A06035
:1031700078E7384806A95EE5374829E4601C02F084
:10318000BAFD562E05464CD010D82D2E2FD0522EDB
:1031900012D02B2E1DD021783048FFF735FB304957
:1031A000304809B0BDE8F04004F017B8762E38D0AA
:1031B000772E2AD0722EEED12846FDF779FD2A4CC3
:1031C0000146206802F092FC21682A4627482031F7
:1031D000B6E6254C0021206802F0ACFB29462068A9
:1031E00002F076FC21682A4621482031A8E61E4CD0
:1031F0000121206802F09EFB2946206802F068FC4D
:1032000021682A461B4820319AE6174C014620685F
:1032100002F0AAFC216805EBD57517486A10203129
:103220008EE644F620639D4228BF1D46B5F5487FD3
:1032300038BF4FF448750C4B2946186802F08CFBD8
:1032400029460E488DE500BF00001643D7B9000897
:103250000AD7233CDAB9000832BE0008E6BE0008EF
:103260001ABF0008EA040020340000208DBE0008C8
:103270005BBE000874BE0008A4BE0008BDBE000806
:10328000F0B5394BAFB01B78002B6AD0FDF7FAFFD1
:10329000364C2368C01A632863D9FDF7F3FF344B1B
:1032A00020609C6C334B9E6C334B1D68334B1F6806
:1032B000334B1868FDF7A2F8CDE90E01B81BFDF7F6
:1032C000F7FCFDF79BF8CDE90C013846FDF7F0FC63
:1032D0002C49FDF741FD2C49FDF7F2FDFDF78EF875
:1032E000CDE90A013046FDF7E3FC2649FDF734FD40
:1032F0002549FDF7E5FDFDF781F8CDE90801234BF0
:103300001868FDF77BF8CDE90601281BFDF7D0FC16
:10331000FDF774F8CDE904012846FDF7C9FC194909
:10332000FDF71AFD1849FDF7CBFDFDF767F8CDE96C
:1033300002012046FDF7BCFC1249FDF70DFD1249C4
:10334000FDF7BEFDFDF75AF8114ACDE900017821DD
:1033500010A803F0F5FC0A2382B210A90D48FEF76D
:1033600047FE2FB0F0BD00BFDC020020D8020020D5
:1033700034070020DC0600204C0500204805002012
:10338000400500200000B4430000614544050020D2
:103390001EBF00081C0800202DE9F74F40F6B83B7F
:1033A0001E46836C1446A2EB030A8AEAEA72A2EB79
:1033B000EA725A45884605460C9F0D99DFF85092EF
:1033C00040F3FD80D9F80020002A40F0E180FDF7AD
:1033D00059FFC9F80000284602F089FC002840F097
:1033E00006812146284602F023FBFDF74BFF0446E9
:1033F000D8F81C00201AFDF757FC8649FDF7ACFCF5
:1034000084498146FDF746FE002840F0F2804FF0E7
:103410007E514846FDF75CFE08B14FF07E5950469C
:10342000FDF746FC4946C8F81C408246FDF794FC6F
:10343000D8F81010FDF788FB77490446FDF748FEE1
:1034400000B1754C20467549FDF724FE00B1734C60
:10345000D8F80C105046C8F81040FDF773FB4946E9
:10346000FDF72EFDD8F800108146C8F80CA0504694
:10347000FDF772FCD8F8041082462046FDF76CFC7C
:1034800001465046FDF760FBD8F808100446484650
:10349000FDF762FC01462046FDF756FBD8F8189070
:1034A00004464946FDF714FE00B14C46D8F8148096
:1034B00020464146FDF7EEFD00B144464FF07E51F7
:1034C0002046FDF705FE002840F09A80204654492A
:1034D000FDF7E0FD002840F08F8000212046FDF739
:1034E000F7FD002800F0898039462046FDF734FCBE
:1034F00000210446FDF7CEFD002840F086804FF005
:103500007E512046FDF7E4FD00287CD04FF07E5030
:103510004449FDF721FCFDF70BFE44F62063181A21
:10352000984228BF1846B0F5487F38BF4FF448701E
:10353000FDF7BAFB3768044600213846FDF7A0FDC9
:1035400068B938463849FDF707FC38490746204630
:10355000FDF702FC01463846FDF7F6FA04464FF047
:103560007C5120463460FDF7EFFAFDF7E1FD44F6AB
:1035700020639842014628BF1946B1F5487F38BFFD
:103580004FF44871284603B0BDE8F04F02F006BA88
:103590000191FDF777FED9F80020801A58457FF693
:1035A0001AAF234B01991A78002A7FF414AF012235
:1035B00020481A700323524603F052FB0BE7002306
:1035C0001B4AC9F8003013700AF10203042B3FF6BE
:1035D00002AF02F08CFB10B1284602F0F1FA40462F
:1035E000FEF7B4FE0023336003B0BDE8F08FEC6457
:1035F000FBE6DFF8209012E7094C04F1004473E782
:103600004FF07E5470E7204682E7002080E700BF3D
:10361000140500206F12833A00409C4500409CC571
:10362000000080BF000096463333333F9A99993E9D
:10363000130500204CBF0008234B73B51A682348BC
:10364000234B1C68836CD31A042B35DC04330ADA51
:10365000012320490D789D4204D01F4D2D68002B79
:103660002CD12A440B701D498B6CE31A042B27DCE8
:10367000043309DA01231A4D2E789E4203D0194EE5
:103680003668FBB934442B70174BC264CC64019389
:103690004FF07E53154900930C48154BFFF77CFE05
:1036A000144B22460193144B144900930B48144BBE
:1036B000FFF772FE02B070BD0023CAE7521BD1E7CC
:1036C0000023D8E7A41BDEE74C05002034070020C8
:1036D0004805002099050020A0050020DC060020F8
:1036E000980500209C050020D1B800087405002032
:1036F00044050020CCB800083333333F5005002088
:1037000040050020F0B5002589B02A4B06959A693E
:10371000012442F004029A619A690327022602F00A
:1037200004020092009A9A6904A942F008029A6180
:103730009A69214802F008020192019A9A6942F0BE
:1037400010029A619A6902F010020292029A9A6932
:1037500042F001029A619B69184A03F00103039346
:10376000039B536823F0E06343F000735360CDE99B
:1037700004740796FDF702FE2A4639460E48FDF707
:10378000D7FE4FF47043CDE904354FF4005504A93A
:103790000B480694FDF7F2FD04A90A48CDE904544C
:1037A0000796FDF7EBFD224629460648FDF7C0FEC9
:1037B00009B0F0BD001002400008014000000140C7
:1037C000000C01400010014030B5002587B01B4BB4
:1037D00004959A6902A942F480429A619B694FF468
:1037E000007203F480430193019B0223CDE902237D
:1037F000032313480593FDF7C1FD4FF4806302A92D
:103800000F48CDE902350495FDF7B8FD4FF4E133DB
:103810000C4C0D492046C4E900130C23C4E90255A1
:10382000C4E905352561E561FEF7B3FB2268D3687D
:1038300043F02003D36007B030BD00BF001002404A
:10384000000801401C0800200038014030B5002568
:1038500087B01A4B0495DA6902A942F40032DA61A2
:10386000DB69042203F400330193019B0223CDE9B9
:103870000223032312480593FDF780FD0823104817
:103880000DEB0301CDE902350495FDF777FD4FF40B
:1038900016530C4C0C492046C4E900130C23C4E910
:1038A0000255C4E905352561E561FEF772FB226822
:1038B000D36843F02003D36007B030BD001002404E
:1038C00000080140D40700200044004030B5002526
:1038D00087B01F4B0495DA6902A942F48022DA61AD
:1038E000DA691C4802F480220092009A9A691A4C04
:1038F00042F008029A619B694FF4806203F008036A
:103900000193019B0223CDE9022303230593FDF7D5
:1039100035FD4FF4006302A90E48CDE90235049548
:10392000FDF72CFD4FF4E1330C492046C4E90013A8
:103930000C23C4E90255C4E905352561E561FEF7AC
:1039400028FB2268D36843F02003D36007B030BD62
:1039500000100240000C01408C070020004800408D
:10396000174B37B5DA69174C42F00102DA61DB69AF
:103970004FF0804203F001030193019B4723002590
:10398000C4E9002341F63F73C4E902538023204673
:10399000A3612561FEF728F922682046D36843F029
:1039A0000103D360FEF7C6F82A4601211C20FDF76B
:1039B00093FC1C2003B0BDE83040FDF7BDBC00BF48
:1039C000001002403C09002010B51E4B8CB09A69D3
:1039D000002442F400629A619B694FF4006203F490
:1039E00000630093009B0223CDE90123032301A977
:1039F000154804930394FDF7C1FC144A144B104678
:103A000013604723C2E9013444F61F63C2E903345B
:103A100080239361FEF714F92146142207A803F0CE
:103A200037FB40F2DC5360210C22CDE90513074837
:103A300005A9FEF75DF90C210448FEF70DFA0CB05C
:103A400010BD00BF0010024000080140F408002033
:103A5000002C014010B51D4B8CB0DA69002442F0F7
:103A60000202DA61DB6901A903F002030093009B03
:103A70000223CDE901330323154804930394FDF792
:103A80007DFC144A144B104613604723C2E90134ED
:103A900044F61F63C2E9033480239361FEF7D0F834
:103AA0002146142207A803F0F3FA40F2DC53602207
:103AB00005A9CDE9052307480C22FEF719F90C21C9
:103AC0000448FEF7C9F90CB010BD00BF0010024059
:103AD000000C0140AC08002000040040164B37B534
:103AE000DA69164C42F00402DA61DB69144A03F029
:103AF00004030193019B47230025C4E9002341F6F9
:103B00003F73C4E9025380232046A3612561FEF779
:103B10006BF822682046D36843F00103D360FEF7B8
:103B200009F82A4601211E20FDF7D6FB1E2003B00E
:103B3000BDE83040FDF700BC0010024064080020E2
:103B40000008004010B514460A2392B20248FEF75E
:103B50004FFA204610BD00BF1C080020002070470F
:103B6000002070474FF0FF3070474FF0FF30704734
:103B700001207047074B1B681A69D10708D5DA681E
:103B8000D20705D56FF0010203481A6102F024B88C
:103B9000704700BF3C09002034070020074B1B681A
:103BA0001A69D10708D5DA68D20705D56FF0010286
:103BB00003481A6102F010B8704700BF6408002083
:103BC000DC060020144B82B01B681A68110706D56A
:103BD000002201921A6801925A680192019A1A68A9
:103BE000920616D50D4A5B681178DBB21E2905D8FE
:103BF0001078411CC9B2117009490B540A2B01D02D
:103C00000D2B03D10122074B1A7002E013781E2BF3
:103C1000F8D802B0704700BF1C080020AF06002093
:103C2000B0060020AE060020324B13B51B681A68A0
:103C3000100706D5002201921A6801925A68019273
:103C4000019A1A68510742BF5A68D2B28DF8012012
:103C50001A68920742BF5A68D2B28DF802201A68D9
:103C6000D40742BF5A68D2B28DF803201A681006F2
:103C700015D5DA68110612D51F4A204910880A881E
:103C800080B292B2904228D00A881D4892B2805CDD
:103C90000A88C0B20132C2F308020A8058601A686A
:103CA000920625D501225C68164BE4B21A70FDF726
:103CB000E9FA154B1860154B1A781E2A05D81978A1
:103CC0004A1CD2B21A70124A54540A2C01D00D2C3C
:103CD0000BD101220F4B1A700AE000210E4A11701D
:103CE000DA6822F08002DA60D9E71B781E2BF0D860
:103CF00002B010BDD4070020E8020020E602002038
:103D0000EA020020E4020020E00200208D060020EC
:103D10008E0600208C060020E50200203C4BF7B503
:103D20001C6823689A0618D53A4B62681978D2B293
:103D300004290ED8DFE801F003081D2D31003C2ACC
:103D40000BD101221A7008E03B2A04D102221A701A
:103D5000314B0022F6E73C2AFBD123681B0706D52E
:103D6000002301932368019363680193019B03B0CF
:103D7000F0BD29480178052906D80178CDB2013176
:103D8000C9B2017025494A550278052AE5D90322AE
:103D9000D8E7012ADDD10422D4E7012AD9D11F4F67
:103DA000052500223946082617F8010B424050B27B
:103DB0000028BDBF400080F00700C2B2520006F1EB
:103DC000FF30A8BFD2B210F0FF06F0D1681E10F08D
:103DD000FF05E8D14879904215D108784A7842EA3F
:103DE00000220F4812B202808878CA7842EA002284
:103DF0000C4812B202800A790B49D2B20A70012132
:103E00000A4A1170A5E70A490A6801320A60A0E768
:103E10008C070020850600207E0600207F060020FB
:103E20007C0600207A060020790600207806002013
:103E30006C060020FDF71ABA07B5074C4FF4005185
:103E40000648FDF77AFB00230193019BA342F5D8B6
:103E5000019B0133F8E700BF1FA1070000100140DC
:103E600007B572B6064C4FF400510648FDF765FBE6
:103E700000230193019BA342F5D8019B0133F8E78E
:103E80003F420F000010014010B590B014220021F5
:103E900008A803F0FDF81422002101A803F0F8F8A7
:103EA00002244FF480330122CDE90D43CDE90623EE
:103EB0004FF4E01306A80F93FDF748FB08B1FFF796
:103EC000CFFF0F23CDE901344FF480630390CDE998
:103ED0000430214601A8FDF7FBFC0028EFD110B00B
:103EE00010BD00002DE9F04FB5B0FDF7ADF9FFF7BB
:103EF000CBFF4AF6AA22B74BB74D1A6000231193A5
:103F0000AB694FF4005443F01003AB61AB69B348A5
:103F100003F010030E930E9B0123CDE90F43022300
:103F20000FA912930324FDF729FA00224FF4005140
:103F3000AA48FDF7FDFA6420FDF7AAF901224FF423
:103F40000051A648FDF7F4FA6420FDF7A1F9013C01
:103F5000EBD1FFF7D7FBFFF737FCFFF777FCFFF755
:103F6000B5FC224621462520FDF7B6F92520FDF7B0
:103F7000E3F9224621462620FDF7AEF92620FDF77B
:103F8000DBF9224621462720FDF7A6F92720FDF779
:103F9000D3F922460F214FF0FF30FDF79DF96C6AEF
:103FA0008F48214602F05CFE002C02DA8D4802F0B8
:103FB00057FE600002D58C4802F052FEA10002D5E7
:103FC0008A4802F04DFEE20002D5894802F048FE20
:103FD000230102D5874802F043FE670102D58648D7
:103FE00002F03EFEA60102D5844802F039FE844864
:103FF00002F09EFE6B6A43F080736B6201F0DCF8A6
:10400000002800F08A817F484AF6AA24714D02F008
:104010008FFE2C60FFF7D8FC2C60FFF71BFD2C6097
:10402000FFF79EFC2C60FFF759FD774B2C60069341
:1040300040F246534FF4FA7640F6C41740F2DC588B
:104040000593A3F68C230493704B714A714972480F
:10405000039300960C23CDE9017801F017FC6F4B18
:104060002C6006934FF448730593A3F5C86304933B
:104070006B4B6C4A6C496D48039300960C23CDE959
:10408000017801F003FC2C60694802F051FE032521
:104090005F4E644C40F6C41332684FF4C87013642A
:1040A00022681364FDF7F4F84FF4FA7332684FF4A2
:1040B000C870136422681364FDF7EAF8013DE9D182
:1040C00040F2DC5332685B48136422684FF07E5B39
:1040D000136402F02DFEC820FDF7DAF84AF6AA2292
:1040E0003C4B554E1A60554A554B564C1360564B37
:1040F00010465360554B94609365D665C2F860B026
:10410000FEF716F9524A534B4FF0000A1360524B18
:10411000946053604FF08143504CDFF84491DFF8D6
:10412000448110469365D665C2F860B00127FEF75A
:10413000FFF8C4F80090C4F804A0C4F80880C4F8DC
:104140000CA0C4F810A06661C4F818B0FDF79AF886
:1041500084F82070E061444CC4F80090C4F804A0D6
:10416000C4F80880C4F80CA0C4F810A06661C4F8B4
:1041700018B0FDF787F840F246523C49E061264806
:1041800084F8207001F084FC4FF4487238492748C5
:1041900001F07EFC374B1A481D60374B1D6002F062
:1041A000C7FD364802F0C4FD354802F0C1FD354870
:1041B00002F0BEFD344802F0BBFD344802F0B8FD09
:1041C000334802F0B5FD334802F0B2FD324B1A78A5
:1041D00064E000BF003000400010024000100140C9
:1041E000C2BF0008E3BF0008F0BF0008FDBF000821
:1041F0000FC0000820C0000826C0000831C0000819
:104200006BC3000842C00008D1B800087B09ED402C
:10421000AC0800203C09002034070020CCB800087E
:104220001CC73141F408002064080020DC0600208F
:104230009BC10008CAC10008000080BF080600201A
:10424000A69BC43BA69BC43A0000F042000040403D
:10425000A40500206F12833B0000B44274050020C7
:1042600052491D3A17B7513850050020BAFAFFFFDE
:10427000E0FCFFFF4C05002048050020F5C10008C8
:1042800050C200087EC20008A2C20008C6C20008D0
:1042900021C3000843C30008AE0600202AB1002451
:1042A0001C70FEF7C7FAA54B1C70A54B1A787AB1A3
:1042B0000025A44C1D702278A349A44802F0A3FF56
:1042C00023789E4EDBB23370FEF7B4FA357025705A
:1042D000FCF7D8FF9E4A9F4C1368C31A312B4AD96A
:1042E00010604FF400419C48FDF71CF9002840F095
:1042F00099809A4801F064FC994801F061FC2378A8
:10430000013303F007032370013B062B16D8DFE8C7
:1043100003F02227495663687900924802F008FDAD
:10432000914802F005FD914802F002FD904802F02C
:10433000FFFC904802F0FCFC8F4865E6874D8F4BF0
:104340008F481D6002F0F4FC8E4802F0F1FC284614
:1043500001F04EFB0FE0824D884B8B481D60F1E76A
:104360008A4802F0E5FCB4217C4801F0FDFBB42151
:104370007B4801F0F9FB2378042B40F06681FCF7C1
:1043800081FF834F05463E68DFF80882002E40F02B
:10439000AB80814B3860814888F800601E6002F075
:1043A000C7FC52E17E4802F0C3FC7E4802F0C0FC2C
:1043B0007D4802F0BDFC7D4802F0BAFCDBE77C489A
:1043C00002F0B6FC654801F013FB654801F010FBF4
:1043D00000226F4B1A60CEE7764802F0A9FC7648BF
:1043E000EAE7764802F0A4FC754802F0A1FC7548A3
:1043F00002F09EFC744802F09BFC744802F098FCAA
:104400007348D9E7734802F093FC734B734A1978E9
:10441000734B7448002918BF1A46114602F020FC5D
:104420007148C9E72378022B22D14FF480514A48C2
:10443000FDF778F830B949488568B5F5487F9AD9CD
:10444000C83D0DE04FF400514348FDF76BF80028DC
:1044500091D144F61F63414885689D428BD8C83589
:10446000294601F079FA29463D4801F075FA82E7BC
:10447000042BDAD0032B00F0EF804FF48051364844
:10448000FDF750F880B93D4D28688168B1F5487F47
:1044900002D9C83901F060FA286801F028FC002828
:1044A0007FF469AF286853E74FF400512A48FDF7BD
:1044B00039F840B944F61F63304D28688168994245
:1044C000EAD8C831E6E74FF480412348FDF72AF8DF
:1044D00000287FF450AF294D28684178B1FA81F166
:1044E000490901F027FAD7E798F80030861B052B19
:1044F00000F2A484DFE813F006007A00DF03090469
:1045000031047B044FF47A61144801F025FA4FF42A
:104510007A61134801F020FA0021104801F00AFAEC
:1045200000210F4801F006FAB6F5FA6F40F28D80CF
:10453000012388F800303D60174B84E0AF0600206F
:104540008C0600208D0600208E060020B00600207C
:10455000340200203C000020000C01403407002001
:10456000DC0600206AC00008B9C00008CBC0000803
:104570000AC100081FC100083FC100083800002020
:104580006DC30008A3C30008C9C3000800C4000825
:10459000D8060020D4060020D0060020C5C600089A
:1045A00023C4000846C4000872C400089AC4000866
:1045B000CFC4000809C5000831C5000850C500086F
:1045C00073C5000897C50008BCC50008E6C500080B
:1045D00023C6000858C600083D0500209CBF0008FF
:1045E00092BF00087BC60008A2C60008B14ADFF8E7
:1045F000C89210464FF4966101F0AEF940F2DC51DA
:10460000484601F0A9F9AD4BAA4A1968691AB1F5F3
:10461000AF7F10D951781046B1FA81F149091D6078
:1046200001F088F999F801104846B1FA81F1490979
:1046300001F080F9A14B40F6B832964205D902222A
:104640003D6088F8002000221A602378062B03D1F1
:10465000FEF7F2FFFEF714FE2378072B3CD1984BB0
:104660001B78002B36D0DFF85C82974D98F800302D
:10467000904A55F83370926C05EBC3035E68BF1A1D
:104680008D4B0537D3F84890FCF7FCFD0A2F8F4F70
:1046900000F2D983A6EB090605360A2E00F2D38371
:1046A0003B68C31AC72B13D998F80010884B013107
:1046B00001F0030155F8312005EBC1051A606B6864
:1046C000844D3860844888F800102B6002F0C8FAE6
:1046D000FEF7B2FFFEF7D4FDFCF7D4FD7F4D2B684B
:1046E000C01AC72840F2C180FCF7CCFD286000F05A
:1046F00065FD002800F0B9808022002114A802F096
:10470000C7FC23787649072B98BF764AA3F10505A5
:1047100094BF52F82320744A6B426B418DF8CC3021
:10472000724B13921A78724B2FA8002A08BF0B46BF
:104730001021704A02F004FB9DF8CC30DFF8749130
:10474000002B00F09A836C4B1E886C4B36B286EAC5
:10475000E670A0EBE67080B21D88FCF7A9FA2DB2D6
:10476000804685EAE570A0EBE57080B2FCF7A0FA20
:10477000634907464046FCF7ABFC002840F06583E0
:1047800040465F49FCF79CFB2D905D493846FCF79D
:104790009FFC002840F05C8338465949FCF790FBA9
:1047A00033461021574A2E9014A802F0C9FA564AEF
:1047B0002B46102118A802F0C3FA4F4B188800B2FC
:1047C000FCF776FA514B1968FCF7C6FA4B4B0546D5
:1047D000188800B2FCF76CFA4D4B1968FCF7BCFA6C
:1047E000354A99F804301279134340F0348349492B
:1047F0001CA802F0F2FC484B1B7803F0FF02002BD0
:1048000000F03883454912F0040F454B18BF0B46A2
:1048100012F0020F0CBF2D224822182100920DF138
:104820008600404A02F08CFAFCF72CFDFBF7C4FD31
:1048300000223D4BFBF764FF3C4B3D4A1B7812784E
:10484000002B0CBF70235023002A0CBF742254226B
:10485000CDE90001CDE902321621364A0DF19E0064
:1048600002F06EFA13A800F0ABFC334B1A78002A62
:1048700000F0928000221A701F4BDFF8C0801F8862
:104880001E4B3FB21E88244B36B21D78FCF7FAFC53
:10489000EDB22B4B15F0010F186040F0698305480D
:1048A00001F025FA10B1034801F08AF9024801F03D
:1048B0001EFA47E034070020DC060020D006002066
:1048C0003D0500203C0500201C05002018050020A7
:1048D0004C0500204805002053C70008C8020020EE
:1048E000AABF0008A4CD0008D2B50008E402002049
:1048F000A6BF000873C700087C0600207A060020C7
:104900000000204379C7000881C70008080600207E
:10491000A405002089C7000879060020AFBF000861
:10492000B4BF0008A5C7000800408F400800002061
:1049300012050020AFC7000878060020CC02002036
:104940007406002010B1B14801F03AF9B048FDF703
:10495000EFFCB048FDF7ECFC0023AD4A88F80030CE
:1049600082F85530AB4A82F85530AB4AC2F800A005
:10497000AA4AC2F800A0AA4A1374AA4A1374FCF700
:1049800081FCA94A1368C31AB3F57A7F04D9106071
:10499000A649A74802F064F92378052B1FD1A54E3C
:1049A0003368E3B1FCF76EFC3368A34DC31AB3F56B
:1049B000FA6F40F26683A14802F0BAF9A04801F00C
:1049C000FFF8924801F0FCF89148FDF7B1FC9148DE
:1049D000FDF7AEFC03232370002333602B60FCF74C
:1049E00051FC984D2B68C01AB0F5FA7F64D3FCF7E0
:1049F00049FC2860944D2B68DB6899045CD543F62C
:104A00003C538F48ADF84C30826B836C9342B8BFF7
:104A100013461946C36B9942D4BFC2EB0103C2EBE4
:104A20000303C16BC3EB03238A1A93FBF2F3774AA8
:104A30008DF84E30916B936C8B42B8BF0B461E467F
:104A4000D36B9E42D4BFC1EB0603C1EB0303D66B0D
:104A5000C3EB0323711A93FBF1F312798DF84F30F6
:104A6000037913445B108DF8503001F03BF9237843
:104A70009DF84D105A1F53425341021E18BF012288
:104A800042EA430200238DF852309DF84C308DF8F5
:104A900051200B449DF84E1028460B449DF84F10B2
:104AA0000B449DF850100B441A448DF853200A23F0
:104AB000082213A9FDF79CFAFCF7E4FB634C23687A
:104AC000C01A952840F28880FCF7DCFB604B206020
:104AD0001B68DB689B047FD55E4B5F4A1B8812888E
:104AE0009BB292B2934238BF03F500739B1A9BB2FC
:104AF000B3F59A7F70D2594F594D388800B2FCF700
:104B0000D7F8434B1968FCF727F90446288800B208
:104B1000FCF7CEF83F4B1968FCF71EF94FF07E51B9
:104B200006462046FCF7D4FA002840F0B68220461C
:104B30004C49FCF7AFFA00B14A4C4FF07E51304679
:104B4000FCF7C6FA002840F0AB8230464549FCF736
:104B5000A1FA00B1434E3B882A881BB220460D9330
:104B600013B20C93FBF74AFC044630460D46FBF7A4
:104B700045FC0F46264906464868FBF73FFC894638
:104B8000244980464868FBF739FCDFF8DCE0374A07
:104B90009EF800E092F800C0BEF1050F14BF4FF080
:104BA0004D0E4FF0410E0C9BCCF34002CDE90801B5
:104BB000CDE90A2E60210093CDE90689CDE904678D
:104BC000CDE902450D9B2A4A13A802F0B9F8011E4F
:104BD00002DD13A8FDF7D0FD4AF6AA22254B264C8C
:104BE0001A60FCF74FFB2368C01AB0F5FA7F53D365
:104BF000FCF748FB2060214C2378002B4CD0FCF7BD
:104C000041FB1F4B1B68C01A3CE000BFDC060020C4
:104C100008060020A4050020D4020020D0020020B5
:104C2000200000200C00002030020020E4C7000813
:104C300001C80008740600207006002069C800083A
:104C400034070020C40200208C070020C00200208E
:104C5000D4070020E8020020E60200207C060020A5
:104C60007A060020000080BF3C000020790600206A
:104C7000BDC8000800300040BC020020E402002053
:104C8000E0020020B0F5FA5F06D900234FF4FA5194
:104C90009F48237001F0E4FFFCF7F4FA9D4B1B687A
:104CA000984280F0008200224FF400519A48FCF7AD
:104CB0003FFCFFF78BBA4FF47A719848DFF86092A7
:104CC00000F04AFE0021954800F034FE484601F00D
:104CD0000EF8012803D199F80530012B0BD090482C
:104CE00000F06EFFA0218E4800F03EFF40F6C41198
:104CF0008B4800F031FE40F6B8339E427FF6A5ACFB
:104D0000032388F800303D609FE44FF47A718348B4
:104D1000DFF80C9200F020FE0121804800F00AFE2E
:104D2000484600F0E4FF012803D199F80530012B33
:104D30000BD07B4800F044FFA021794800F014FF1D
:104D400040F6C411764800F007FE40F6B8339E42A4
:104D50007FF67BAC0423FFF7ECBB3046FBF7A4FFE8
:104D60007049FCF7ADF87049FBF7F6FFFCF7E0F986
:104D7000C0F51C610431B1F57A7F38BF4FF47A7108
:104D8000DFF89C9165480C9100F0E6FD99F805303C
:104D90000C99012B06D1484600F012FF484600F05E
:104DA00027FE0C995E4800F0D7FD604B1A68AA1ADE
:104DB000B2F5FA7F15D959481D604178B1FA81F1F1
:104DC000490900F0B7FD594B1B68EB1AB3F57A7F20
:104DD00007D999F801105248B1FA81F1490900F058
:104DE000A9FDB6F57A6F7FF630AC052389E74B4D08
:104DF00041F28831284600F0AFFD41F28831484841
:104E000000F0AAFD0021284600F094FD012144484D
:104E100000F090FDB6F5FA6F7FF617AC444801F04C
:104E200087FF0023434A4448237015603B6088F89D
:104E3000003001F07DFF4148FFF7B1BA002388F848
:104E400000303B6001E4386042E44FF07E509BE468
:104E50004FF07E50A4E4FBF7D1FACDE902012846D9
:104E6000FBF7CCFA364ACDE9000116211CA801F067
:104E700067FFC0E42D22334BCFE42949324B097937
:104E8000324D99F80420002908BF1D462F4914A867
:104E9000002A18BF0B4610212D4A01F051FF2B4666
:104EA00010212C4A18A801F04BFF99F8043043BB9D
:104EB00000232D931A4B1B7933BB00232E93264BD3
:104EC00016211B68254A20331CA801F039FF244A0B
:104ED0001821244B0DF1860001F032FFFCF7D2F9C6
:104EE000139B0293FBF768FA00221F4BFBF708FCA9
:104EF0001E4ACDE9000116210DF19E0001F020FFB0
:104F0000B0E44FF07C53D4E74FF07C53D6E700BFBA
:104F1000FAC800088806002000100140340700206D
:104F2000DC06002000007A450080BB44D00600204B
:104F3000E3C600083800002001C7000820C70008A9
:104F400097C70008AABF0008B9BF0008BEBF000885
:104F5000BDC70008C4C7000834000020CBC7000844
:104F6000D2C70008FE04002000408F40D8C70008C8
:104F700098F800300133DBB2012B88F800307FF65F
:104F80000BAD2378072B3FF42AADFCF77BF9574B89
:104F90001860680747BF4FF003094FF004084FF04F
:104FA00009094FF00A08FCF76DF940F6B83398424A
:104FB0007FF6F2AC2378052B0FD005234C482370E5
:104FC000FDF7B6F94B48FDF7B3F900234A4A4B48C1
:104FD00013744B4A137401F0ABFE4FF4C873CDE960
:104FE0000393484BCDF814B00293474B3A460193D4
:104FF000464B3F491B78464800933F4BFDF7B0F9BD
:10500000444B05F0060505934FF49673CDE90383F1
:10501000414B32460293414B36490193404B414844
:105020001B780093364BFDF79BF9062D3E4D25D19D
:10503000FCF728F93D4BC830186000224FF40051AE
:105040003B48FCF775FA2B7823B9012339482B70BC
:1050500001F06EFE2E4800F0B3FD324800F0B0FDC6
:105060002348FDF765F92348FDF762F90123204A3B
:1050700082F855301F4A82F855308DE400232B709A
:105080008AE42B68002B3FF4AAAC2B68C01AB0F559
:10509000FA6F7FF6A4AC28488EE44FF07E544CE5BE
:1050A0004FF07E5657E5FCF7EDF8244C2368C01A04
:1050B000B0F5FA7F7FF68AA8FCF7E4F82060144880
:1050C00000F015FE00287FF481A8164800F00FFEBE
:1050D00000287FF47BA800F180404FF4005100F5D8
:1050E0008830FCF72AFAFFF771B800BF700600207D
:1050F00008060020A4050020200000201DC800088C
:105100000C000020D4020020D1B8000808000020C4
:10511000340700209A99193FD0020020CCB800082B
:1051200012050020DC0600208606002088060020EC
:105130000010014044C800088BC80008B8020020D5
:1051400073B50C46054600212046FBF7A3FF70BB54
:105150004FF07E512046FBF7BBFF08B14FF07E5465
:1051600020461449FBF7F8FD4FF07C51FBF7ECFCAF
:10517000FBF7DEFF0126294607233E22C4B2009634
:10518000402000F0EEFA00233544EDB200933C22BB
:1051900005232946412000F0E4FA34B105232246D4
:1051A00029464120009600F0DCFA02B070BD0020D4
:1051B000D7E700BF0000704200F010BA00F000BA5C
:1051C00010B5044600F0FCF9002844D0002C42D071
:1051D00000F0FCF90021012308461F4A00F098FA6C
:1051E000012307227F21002000F0A4FA221D0123C1
:1051F0000821002000F08CFAA16E0820FFF7A0FF24
:1052000004F1140201231021002000F081FAE16E64
:105210001020FFF795FF04F124020123182100203C
:1052200000F076FA04F13A0201232021002000F078
:105230006FFA04F1520201232821002000F068FADD
:1052400004F1700201233021002000F061FABDE872
:10525000104000F0A7BA10BD96C90008002382B024
:105260000193019B132B01D902B07047019B0133BD
:10527000F6E7000001224FF480710148FCF758B9AD
:10528000000C014001224FF400710148FCF750B9B5
:10529000000C014000224FF400710148FCF748B9AE
:1052A000000C014008B5FFF7F5FFFFF7D7FFFFF748
:1052B000E1FFFFF7D3FFFFF7E5FFBDE80840FFF789
:1052C000CDBF000000224FF480710148FCF730B9D7
:1052D000000C014008B5FFF7D5FFFFF7BFFFFFF750
:1052E000C9FFFFF7BBFFFFF7D5FFFFF7B7FFFFF7DA
:1052F000E9FFBDE80840FFF7B1BF000038B504463C
:105300000825230625D5FFF7BDFFFFF7A7FF64009B
:10531000FFF7B0FFFFF7A2FFFFF7D4FFFFF79EFFF5
:10532000013DE4B2EDD1FFF7ADFFFFF797FFFFF7C7
:10533000A1FF4FF400710848FFF790FFFCF7F2F867
:105340000446FFF7BFFFFFF789FF201E18BF0120AB
:1053500038BDFFF79FFFD8E7000C014038B50C4B74
:1053600005461B789BB10B4B1C8884B16400FFF78A
:10537000B1FF04F0FE00FFF7C1FF0020FFF7BEFF02
:105380002846FFF7BBFFBDE83840FFF78BBF38BDAD
:10539000860900208409002008B5AE20FFF7DEFF53
:1053A0000220FBF775FF2020FFF7D8FF0220FBF754
:1053B0006FFF0020FFF7D2FF0220FBF769FF2120DB
:1053C000FFF7CCFF0220FBF763FF0020FFF7C6FFCB
:1053D0000220FBF75DFF7F20FFF7C0FF0220FBF7F5
:1053E00057FF2220FFF7BAFF0220FBF751FF0020F2
:1053F000FFF7B4FF0220FBF74BFF0720FFF7AEFFDC
:105400000220FBF745FFB020FFF7A8FF0220FBF7C3
:105410003FFFC820FFF7A2FF0220FBF739FF002063
:10542000FFF79CFF0220FBF733FF1020FFF796FFEA
:105430000220FBF72DFF4020FFF790FF0220FBF733
:1054400027FF8120FFF78AFF0220FBF721FFCF20F3
:10545000FFF784FF0220FBF71BFFA120FFF77EFF71
:105460000220FBF715FFA620FFF778FF0220FBF7CD
:105470000FFFA820FFF772FF0220FBF709FF3F2074
:10548000FFF76CFF0220FBF703FFD320FFF766FF57
:105490000220FBF7FDFE0020FFF760FF0220FBF774
:1054A000F7FED520FFF75AFF0220FBF7F1FE802020
:1054B000FFF754FF0220FBF7EBFED920FFF74EFF6A
:1054C0000220FBF7E5FEF120FFF748FF0220FBF783
:1054D000DFFEDA20FFF742FF0220FBF7D9FE1220A1
:1054E000FFF73CFF0220FBF7D3FEDB20FFF736FF80
:1054F0000220FBF7CDFE4020FFF730FF0220FBF734
:10550000C7FE8D20FFF72AFF0220FBF7C1FE142003
:10551000FFF724FF0A20FBF7BBFEAF20FFF71EFFBB
:10552000BDE808400A20FBF7B3BE00002DE9F047B4
:10553000B0241F4D1F4EDFF88080DFF8809080225E
:105540003146284601F094FD40B32046FFF706FFA0
:105550000020FFF703FF1020FFF700FF98F800304E
:10556000BBB1B9F80070A7B1FFF7B4FE780000F046
:10557000FE00FFF7C3FE4020FFF7C0FE6F1E05F1DF
:105580007F0A17F8010FFFF7B9FE5745F9D1FFF76A
:1055900089FE80222946304601F035FE0134E4B20E
:1055A000B82C05F1800506F18006C8D1BDE8F0876A
:1055B000870D00208709002086090020840900202B
:1055C000014B1878704700BF860900204FF48062B5
:1055D0000021014801F05CBD870D00207FB500234C
:1055E000234D244C4FF440722B7023801123012152
:1055F000CDE9002303232048CDE902136946FBF7D8
:10560000BDFEFFF737FEFFF73DFE3220FBF740FE01
:10561000FFF760FE7820FFF771FE0646FFF742FEB7
:10562000012E1ED1FFF756FE7A20FFF767FE0646D1
:10563000FFF738FE012E16D03D23238001240A20D7
:105640002C70FBF725FEFFF7A7FE4FF48062FF21C9
:105650000A4801F01DFDFFF7B9FFFFF767FF20467D
:1056600004E03C23E9E720880028E7D104B070BDBE
:105670008609002084090020000C014087090020D1
:10568000030630B50ED43F290CD80124CB08074DB2
:1056900000EBC31001F007012B5C04FA01F112B119
:1056A0000B432B5430BD23EA0103FAE7870D00209A
:1056B0002DE9F04714461A46A4F120035E2B88BF5B
:1056C0003F2406460F460025104B203C04EB840483
:1056D0001C444FF0000806EB050914F805A05FFA1A
:1056E00089F94AFA08F3DB0705D507EB08014846B4
:1056F000C9B2FFF7C5FF08F10108B8F1070FF0D1F3
:105700000135052DE5D1BDE8F08700BFC4CD000807
:10571000F8B505460E461F461AB1541E14F8012F5F
:1057200002B9F8BD28463B4631460635FFF7C0FFB3
:10573000EDB2F3E7814270B5164605460C461A46AF
:1057400001D304460D46A54200D270BD230605D400
:105750003F2E03D831462046FFF792FF0134E4B2D2
:10576000F1E72DE9F84380460C465E1817189DF8BE
:105770002090F6B2FFB2B44211D045460AE02B06A3
:1057800006D43F2C04D84A4621462846FFF778FF26
:105790000135EDB2BD42F2D10134E4B2EBE7BDE830
:1057A000F883000038B51A4B1B7883B34FF0805351
:1057B000184DC5F88030BFF34F8FBFF36F8F4FF098
:1057C0000053C5F88030BFF34F8FBFF36F8F124B7C
:1057D0001C88FFF77FFD6400E4B22046FFF78EFDD2
:1057E0000446FFF75FFD012C09D1FFF7D5FD4FF40B
:1057F0008062FF21094801F04BFCFFF7E7FEFFF74D
:1058000095FE4FF080532B604FF000532B6038BD56
:105810008609002000E100E08409002087090020BB
:10582000F8B5D0E9063604461D68806BA36C984233
:10583000B8BF1846E36B9842A8BF1846FBF738FA82
:105840001149FBF73DFB616BFBF786FA0746206BBE
:10585000FBF72EFA01463846FBF776F9FBF742FCD8
:10586000A36A9842B8BF1846E36A9842A8BF184690
:105870000EB96863F8BD042E01D1A863FAE7082EBB
:105880000CBFE8632864F5E7000020412DE9F04FE4
:1058900085B01D46DDE90E89119B04460193129BDC
:1058A0000F461646002157220130DDF840A0029332
:1058B000DDE913B3039301F0EBFB012222704FF4F7
:1058C000FA52A2604FF46172019BC4E906656363FA
:1058D000029BC4E90427C4E90E3B039BC4E90A897F
:1058E000C4F830A004F1200523B107221946284648
:1058F00001F0E8FB2046FFF793FF0A209BFBF0F046
:10590000FAF76AFD4B46CDE91001424629460448A4
:10591000CDF838A005B0BDE8F04F01F0A1B900BF47
:10592000A7C9000800F8201B0146014801F098B9FA
:10593000F0C90008054A064B4170002918BF1A46F5
:1059400000F12001034801F08BB900BF2BCA000809
:105950003ACA00084ACA000844F6206399420A4637
:1059600028BF1A46B2F5487F38BF4FF4487210B4CA
:10597000446982602368D96821F00101D960511E11
:10598000D962E160D96810BC41F00101D96000F131
:105990002001014801F064B954CA000810B544F66A
:1059A0002064A14228BF21468368B1F5487F2CBFFF
:1059B000C3EB0102C3F548720C498A42B8BF0A46DC
:1059C00040F6B8318A42D4BF9B185B18A34228BF67
:1059D0002346B3F5487F38BF4FF44873426983606C
:1059E0001168013BCB62D36010BD00BF48F4FFFFDC
:1059F00072B6037983B9082344F6206280F84030F8
:105A0000836803EB4303934228BF13464269436410
:105A10001168013BCB62D3600023C3600123838004
:105A200062B600F12001014801F01AB966CA000807
:105A30000A4610B472B640F20133C164002183807B
:105A4000836CC160D31A8B421CDD417090F84030EA
:105A500083B9082344F6206180F84030836803EB63
:105A600043038B4228BF0B46416943640C68013BEA
:105A7000E362CB6062B6836C00F1200110BC034886
:105A800001F0EEB81CBF01234370DFE77ACA0008BB
:105A9000134672B6C0E9141262B60A4600F120013C
:105AA000014801F0DDB800BFA3CA000810B50446E4
:105AB00072B60023C0E9123362B6FFF7B1FE04F1FB
:105AC00020010248BDE8104001F0CAB8C6CA00086B
:105AD0000A4672B60223C160838062B600F12001DB
