:020000040800F2
:1000000000500020DDBA000825BB0008E9440008C4
:1000100025BB000825BB000825BB00080000000028
:1000200000000000000000000000000025BB0008E8
:1000300025BB00080000000025BB0008E5440008BF
:1000400025BB000825BB000825BB000825BB000810
:1000500025BB000825BB000825BB000825BB000800
:1000600025BB000825BB000825BB000825BB0008F0
:1000700025BB000825BB000825BB000825BB0008E0
:1000800025BB000825BB000825BB000825BB0008D0
:1000900025BB000825BB000825BB000825BB0008C0
:1000A00025BB000825BB000825BB000825BB0008B0
:1000B0001941000825BB00084141000825BB000884
:1000C00025BB000825BB000825BB000825BB000890
:1000D00025BB000869410008CD410008C142000865
:1000E00025BB000825BB000825BB00080000000058
:1000F0000000000000000000000000000000000000
:0C01000000000000000000005FF808F1A3
:1001100010F8012B11F8013B012A28BF9A42F7D0B1
:10012000D01A7047034613F8012B002AFBD1181A86
:100130000138704781F0004102E000BF83F00043C6
:1001400030B54FEA41044FEA430594EA050F08BF72
:1001500090EA020F1FBF54EA000C55EA020C7FEA36
:10016000645C7FEA655C00F0E2804FEA5454D4EBB3
:100170005555B8BF6D420CDD2C4480EA020281EA7D
:10018000030382EA000083EA010180EA020281EAB5
:100190000303362D88BF30BD11F0004F4FEA013107
:1001A0004FF4801C4CEA113102D0404261EB410116
:1001B00013F0004F4FEA03334CEA133302D052429C
:1001C00063EB430394EA050F00F0A780A4F1010458
:1001D000D5F1200E0DDB02FA0EFC22FA05F2801892
:1001E00041F1000103FA0EF2801843FA05F3594178
:1001F0000EE0A5F120050EF1200E012A03FA0EFCF7
:1002000028BF4CF0020C43FA05F3C01851EBE37120
:1002100001F0004507D54FF0000EDCF1000C7EEB3D
:1002200000006EEB0101B1F5801F1BD3B1F5001F7B
:100230000CD349085FEA30004FEA3C0C04F101049A
:100240004FEA445212F5800F80F09A80BCF1004FC3
:1002500008BF5FEA500C50F1000041EB045141EA45
:10026000050130BD5FEA4C0C404141EB0101013C0E
:1002700028BFB1F5801FE9D291F0000F04BF0146FD
:100280000020B1FA81F308BF2033A3F10B03B3F1CF
:1002900020020CDA0C3208DD02F1140CC2F10C025F
:1002A00001FA0CF021FA02F10CE002F11402D8BFBD
:1002B000C2F1200C01FA02F120FA0CFCDCBF41EA89
:1002C0000C019040E41AA2BF01EB0451294330BD58
:1002D0006FEA04041F3C1CDA0C340EDC04F1140435
:1002E000C4F1200220FA04F001FA02F340EA03000C
:1002F00021FA04F345EA030130BDC4F10C04C4F152
:10030000200220FA02F001FA04F340EA0300294631
:1003100030BD21FA04F0294630BD94F0000F83F47B
:10032000801306BF81F480110134013D4EE77FEA5E
:10033000645C18BF7FEA655C29D094EA050F08BFAA
:1003400090EA020F05D054EA000C04BF194610468B
:1003500030BD91EA030F1EBF0021002030BD5FEACF
:10036000545C05D14000494128BF41F0004130BDF7
:1003700014F580043CBF01F5801130BD01F000454B
:1003800045F0FE4141F470014FF0000030BD7FEABE
:10039000645C1ABF194610467FEA655C1CBF0B46B9
:1003A000024650EA013406BF52EA033591EA030FD0
:1003B00041F4002130BD00BF90F0000F04BF0021C8
:1003C000704730B54FF4806404F132044FF00005FB
:1003D0004FF0000150E700BF90F0000F04BF002174
:1003E000704730B54FF4806404F1320410F00045DA
:1003F00048BF40424FF000013EE700BF42004FEAD5
:10040000E2014FEA31014FEA02701FBF12F07F4351
:1004100093F07F4F81F06051704732F07F4208BF08
:10042000704793F07F4F04BF41F40021704730B50F
:100430004FF4607401F0004521F000411CE700BF5B
:1004400050EA010208BF704730B54FF000050AE0DE
:1004500050EA010208BF704730B511F0004502D5DF
:10046000404261EB41014FF4806404F132045FEAE1
:10047000915C3FF4D8AE4FF003025FEADC0C18BF8A
:1004800003325FEADC0C18BF033202EBDC02C2F17C
:10049000200300FA03FC20FA02F001FA03FE40EA0E
:1004A0000E0021FA02F11444BDE600BF70B54FF012
:1004B000FF0C4CF4E06C1CEA11541DBF1CEA1355F0
:1004C00094EA0C0F95EA0C0F00F0DEF82C4481EA58
:1004D000030621EA4C5123EA4C5350EA013518BF78
:1004E00052EA033541F4801143F4801338D0A0FB65
:1004F00002CE4FF00005E1FB02E506F00042E0FB12
:1005000003E54FF00006E1FB03569CF0000F18BF17
:100510004EF0010EA4F1FF04B6F5007F64F54074BF
:1005200004D25FEA4E0E6D4146EB060642EAC62152
:1005300041EA55514FEAC52040EA5E504FEACE2EBF
:10054000B4F1FD0C88BFBCF5E06F1ED8BEF1004FC2
:1005500008BF5FEA500E50F1000041EB045170BD3E
:1005600006F0004646EA010140EA020081EA030182
:10057000B4EB5C04C2BFD4EB0C0541EA045170BD7E
:1005800041F480114FF0000E013C00F3AB8014F1F8
:10059000360FDEBF002001F0004170BDC4F1000441
:1005A000203C35DA0C341BDC04F11404C4F12005C2
:1005B00000FA05F320FA04F001FA05F240EA02001D
:1005C00001F0004221F0004110EBD37021FA04F653
:1005D00042EB06015EEA430E08BF20EAD37070BD0D
:1005E000C4F10C04C4F1200500FA04F320FA05F06C
:1005F00001FA04F240EA020001F0004110EBD3706E
:1006000041F100015EEA430E08BF20EAD37070BDDD
:10061000C4F1200500FA05F24EEA020E20FA04F3B6
:1006200001FA05F243EA020321FA04F001F0004165
:1006300021FA04F220EA020000EBD3705EEA430ED6
:1006400008BF20EAD37070BD94F0000F0FD101F005
:100650000046400041EB010111F4801F08BF013C3E
:10066000F7D041EA060195F0000F18BF704703F07C
:100670000046520043EB030313F4801F08BF013D03
:10068000F7D043EA0603704794EA0C0F0CEA1355BF
:1006900018BF95EA0C0F0CD050EA410618BF52EA79
:1006A0004306D1D181EA030101F000414FF000007F
:1006B00070BD50EA410606BF1046194652EA43068D
:1006C00019D094EA0C0F02D150EA013613D195EA01
:1006D0000C0F05D152EA03361CBF104619460AD149
:1006E00081EA030101F0004141F0FE4141F4700153
:1006F0004FF0000070BD41F0FE4141F4780170BD43
:1007000070B54FF0FF0C4CF4E06C1CEA11541DBFA7
:100710001CEA135594EA0C0F95EA0C0F00F0A7F8A9
:10072000A4EB050481EA030E52EA03354FEA0131D6
:1007300000F088804FEA03334FF0805545EA1313E9
:1007400043EA12634FEA022245EA111545EA1065B1
:100750004FEA00260EF000419D4208BF964244F148
:10076000FD0404F5407402D25B084FEA3202B61A67
:1007700065EB03055B084FEA32024FF480104FF43B
:10078000002CB6EB020E75EB030E22BFB61A7546AF
:1007900040EA0C005B084FEA3202B6EB020E75EB42
:1007A000030E22BFB61A754640EA5C005B084FEAAA
:1007B0003202B6EB020E75EB030E22BFB61A754677
:1007C00040EA9C005B084FEA3202B6EB020E75EB82
:1007D000030E22BFB61A754640EADC0055EA060E43
:1007E00018D04FEA051545EA16754FEA06164FEA86
:1007F000C30343EA52734FEAC2025FEA1C1CC0D132
:1008000011F4801F0BD141EA00014FF000004FF0BE
:10081000004CB6E711F4801F04BF01430020B4F17F
:10082000FD0C88BFBCF5E06F3FF6AFAEB5EB030C37
:1008300004BFB6EB020C5FEA500C50F1000041EB34
:10084000045170BD0EF0004E4EEA113114EB5C0401
:10085000C2BFD4EB0C0541EA045170BD41F48011D4
:100860004FF0000E013C90E645EA060E8DE60CEADC
:10087000135594EA0C0F08BF95EA0C0F3FF43BAFF9
:1008800094EA0C0F0AD150EA01347FF434AF95EAB0
:100890000C0F7FF425AF104619462CE795EA0C0F94
:1008A00006D152EA03353FF4FDAE1046194622E761
:1008B00050EA410618BF52EA43067FF4C5AE50EA3B
:1008C00041047FF40DAF52EA43057FF4EBAE12E72B
:1008D0004FF0FF3C06E000BF4FF0010C02E000BF0C
:1008E0004FF0010C4DF804CD4FEA410C7FEA6C5CEF
:1008F0004FEA430C18BF7FEA6C5C1BD001B050EA92
:10090000410C0CBF52EA430C91EA030F02BF90EA7C
:10091000020F0020704710F1000F91EA030F58BF3B
:10092000994208BF90422CBFD8176FEAE37040F09D
:10093000010070474FEA410C7FEA6C5C02D150EA3B
:10094000013C07D14FEA430C7FEA6C5CD6D152EAF6
:10095000033CD3D05DF8040B704700BF84461046BB
:1009600062468C461946634600E000BF01B5FFF7BA
:10097000B7FF002848BF10F1000F01BD4DF808ED8A
:10098000FFF7F4FF0CBF012000205DF808FB00BF5B
:100990004DF808EDFFF7EAFF34BF012000205DF8B5
:1009A00008FB00BF4DF808EDFFF7E0FF94BF012002
:1009B00000205DF808FB00BF4DF808EDFFF7CEFF03
:1009C00094BF012000205DF808FB00BF4DF808ED42
:1009D000FFF7C4FF34BF012000205DF808FB00BF13
:1009E0004FEA410C7FEA6C5C02D150EA013C0AD12B
:1009F0004FEA430C7FEA6C5C02D152EA033C02D11D
:100A00004FF0000070474FF0010070474FEA41027D
:100A100012F5001215D211D56FF47873B3EB625250
:100A200012D94FEAC12343F0004343EA505311F077
:100A3000004F23FA02F018BF404270474FF0000009
:100A4000704750EA013005D111F0004008BF6FF047
:100A5000004070474FF00000704700BF4A0011D2BD
:100A600012F5001211D20DD56FF47873B3EB625208
:100A70000ED44FEAC12343F0004343EA505323FA14
:100A800002F070474FF00000704750EA013002D189
:100A90004FF0FF3070474FF0000070474FEA4102BF
:100AA000B2F1E04324BFB3F5001CDCF1FE5C0DD9CC
:100AB00001F0004C4FEAC0024CEA5070B2F1004F16
:100AC00040EB830008BF20F00100704711F0804F19
:100AD00021D113F13872BCBF01F00040704741F4DE
:100AE00080114FEA5252C2F11802C2F1200C10FAE2
:100AF0000CF320FA02F018BF40F001004FEAC123C6
:100B00004FEAD32303FA0CFC40EA0C0023FA02F369
:100B10004FEA4303CCE77FEA625307D150EA01333F
:100B20001EBF4FF0FE4040F44000704701F000400F
:100B300040F0FE4040F40000704700BF80F00040ED
:100B400002E000BF81F0004142001FBF5FEA4103A5
:100B500092EA030F7FEA226C7FEA236C6AD04FEAA5
:100B60001262D2EB1363C1BFD218414048404140EA
:100B7000B8BF5B42192B88BF704710F0004F40F49C
:100B8000000020F07F4018BF404211F0004F41F4B8
:100B9000000121F07F4118BF494292EA030F3FD084
:100BA000A2F1010241FA03FC10EB0C00C3F1200397
:100BB00001FA03F100F0004302D5494260EB400026
:100BC000B0F5000F13D3B0F1807F06D340084FEA91
:100BD000310102F10102FE2A51D2B1F1004F40EB86
:100BE000C25008BF20F0010040EA030070474900EE
:100BF00040EB0000013A28BFB0F5000FEDD2B0FA8B
:100C000080FCACF1080CB2EB0C0200FA0CF0AABFAD
:100C100000EBC25052421843BCBFD040184370474B
:100C200092F0000F81F4000106BF80F40000013251
:100C3000013BB5E74FEA41037FEA226C18BF7FEA28
:100C4000236C21D092EA030F04D092F0000F08BF6A
:100C50000846704790EA010F1CBF0020704712F051
:100C60007F4F04D1400028BF40F00040704712F190
:100C700000723CBF00F50000704700F0004343F0F5
:100C8000FE4040F4000070477FEA226216BF08462B
:100C90007FEA23630146420206BF5FEA412390EAEE
:100CA000010F40F4800070474FF0000304E000BFE4
:100CB00010F0004348BF40425FEA000C08BF704795
:100CC00043F0964301464FF000001CE050EA010259
:100CD00008BF70474FF000030AE000BF50EA01026E
:100CE00008BF704711F0004302D5404261EB41015B
:100CF0005FEA010C02BF84460146002043F0B64380
:100D000008BFA3F18053A3F50003BCFA8CF2083AA4
:100D1000A3EBC25310DB01FA02FC634400FA02FCAD
:100D2000C2F12002BCF1004F20FA02F243EB0200B4
:100D300008BF20F00100704702F1200201FA02FC16
:100D4000C2F1200250EA4C0021FA02F243EB020009
:100D500008BF20EADC7070474FF0FF0C1CEAD0524D
:100D60001EBF1CEAD15392EA0C0F93EA0C0F6FD00E
:100D70001A4480EA010C400218BF5FEA41211ED0EC
:100D80004FF0006343EA501043EA5111A0FB0131D8
:100D90000CF00040B1F5000F3EBF490041EAD371AD
:100DA0005B0040EA010062F17F02FD2A1DD8B3F129
:100DB000004F40EBC25008BF20F00100704790F098
:100DC000000F0CF0004C08BF49024CEA502040EAEA
:100DD00051207F3AC2BFD2F1FF0340EAC2507047B0
:100DE00040F400004FF00003013A5DDC12F1190FEE
:100DF000DCBF00F000407047C2F10002410021FA60
:100E000002F1C2F1200200FA02FC5FEA310040F177
:100E1000000053EA4C0308BF20EADC70704792F0F0
:100E2000000F00F0004C02BF400010F4000F013A28
:100E3000F9D040EA0C0093F0000F01F0004C02BF23
:100E4000490011F4000F013BF9D041EA0C018FE792
:100E50000CEAD15392EA0C0F18BF93EA0C0F0AD098
:100E600030F0004C18BF31F0004CD8D180EA0100BE
:100E700000F00040704790F0000F17BF90F0004F57
:100E8000084691F0000F91F0004F14D092EA0C0F39
:100E900001D142020FD193EA0C0F03D14B0218BFCC
:100EA000084608D180EA010000F0004040F0FE4012
:100EB00040F40000704740F0FE4040F440007047AE
:100EC0004FF0FF0C1CEAD0521EBF1CEAD15392EA2D
:100ED0000C0F93EA0C0F69D0A2EB030280EA010C1D
:100EE00049024FEA402037D04FF0805343EA1111B6
:100EF00043EA10130CF000408B4238BF5B0042F114
:100F00007D024FF4000C8B4224BF5B1A40EA0C00B8
:100F1000B3EB510F24BFA3EB510340EA5C00B3EBEA
:100F2000910F24BFA3EB910340EA9C00B3EBD10FD8
:100F300024BFA3EBD10340EADC001B0118BF5FEA2A
:100F40001C1CE0D1FD2A3FF650AF8B4240EBC25053
:100F500008BF20F0010070470CF0004C4CEA502014
:100F60007F32C2BFD2F1FF0340EAC250704740F463
:100F700000004FF00003013A37E792F0000F00F055
:100F8000004C02BF400010F4000F013AF9D040EAD3
:100F90000C0093F0000F01F0004C02BF490011F467
:100FA000000F013BF9D041EA0C0195E70CEAD1535F
:100FB00092EA0C0F08D142027FF47DAF93EA0C0F46
:100FC0007FF470AF084676E793EA0C0F04D14B022A
:100FD0003FF44CAF08466EE730F0004C18BF31F0DC
:100FE000004CCAD130F000427FF45CAF31F00043D6
:100FF0007FF43CAF5FE700BF4FF0FF3C06E000BF6F
:101000004FF0010C02E000BF4FF0010C4DF804CD91
:101010004FEA40024FEA41037FEA226C18BF7FEAA1
:10102000236C11D001B052EA530C18BF90EA010FA3
:1010300058BFB2EB030088BFC81738BF6FEAE17032
:1010400018BF40F0010070477FEA226C02D15FEACE
:10105000402C05D17FEA236CE4D15FEA412CE1D03A
:101060005DF8040B704700BF844608466146FFE701
:101070000FB5FFF7C9FF002848BF10F1000F0FBDE3
:101080004DF808EDFFF7F4FF0CBF012000205DF8DC
:1010900008FB00BF4DF808EDFFF7EAFF34BF012061
:1010A00000205DF808FB00BF4DF808EDFFF7E0FFFA
:1010B00094BF012000205DF808FB00BF4DF808ED4B
:1010C000FFF7D2FF94BF012000205DF808FB00BFAE
:1010D0004DF808EDFFF7C8FF34BF012000205DF890
:1010E00008FB00BF4FEA4002B2F1FE4F0FD34FF0B2
:1010F0009E03B3EB12620DD94FEA002343F0004385
:1011000010F0004F23FA02F018BF404270474FF032
:101110000000704712F1610F01D1420205D110F0B9
:10112000004008BF6FF0004070474FF0000070476C
:1011300042000ED2B2F1FE4F0BD34FF09E03B3EB41
:10114000126209D44FEA002343F0004323FA02F06D
:1011500070474FF00000704712F1610F01D1420259
:1011600002D14FF0FF3070474FF00000704700BFD2
:101170000348044B834202D0034B03B11847704726
:101180001002002010020020000000000548064B5D
:101190001B1AD90F01EBA301491002D0034B03B175
:1011A00018477047100200201002002000000000C5
:1011B00010B5064C237843B9FFF7DAFF044B13B19F
:1011C0000448AFF300800123237010BD10020020FB
:1011D0000000000028BB000808B5054B1BB10549FD
:1011E0000548AFF30080BDE80840FFF7CFBF00BF60
:1011F000000000001402002028BB00087047000017
:1012000038B50E4B05461A784FF47A73B3FBF2F3F8
:101210000B4A1068B0FBF3F000F09CF8044658B994
:101220000F2D09D8024629464FF0FF3000F054F840
:101230002046044B1D6038BD0120FCE70000002063
:101240000C02002004000020074A08B513680320A0
:1012500043F01003136000F02DF80F20FFF7D0FFCC
:10126000FFF7CCFF002008BD00200240034A044BDA
:1012700011681B780B441360704700BF2C020020DC
:1012800000000020014B1868704700BF2C020020AE
:1012900038B50446FFF7F6FF0546631C1EBF044B36
:1012A0001B78E418FFF7EEFF431BA342FAD338BDC7
:1012B0000000002007490302CA6803F4E06322F437
:1012C000E0621204120C134343F0BF6343F4003393
:1012D000CB60704700ED00E0154B30B5DC68C4F31F
:1012E0000224C4F10703251D042B28BF0423062D67
:1012F0004FF0FF3594BF0024033C05FA03F321EAC5
:101300000303A54022EA0502A340002843EA0203A2
:10131000ACBF00F16040074A4FEA0313DBB2ABBF3A
:1013200000F5614000F00F0080F80033135430BD29
:1013300000ED00E014ED00E0002807DB0123410987
:10134000034A00F01F00834042F82130704700BF7D
:1013500000E100E00138B0F1807F0BD24FF0E023D4
:10136000F021054A586182F8231000200722986175
:101370001A6170470120704700ED00E02DE9F74F3A
:1013800000244FF00F0E2646DFF884C1614B00F1B8
:1013900004080A6832FA06F502D103B0BDE8F08FFE
:1013A000012505FA06F702EA070537EA020276D1B7
:1013B0004A68032A07D8013A022A00F28380DFE84C
:1013C00002F091969C00122A00F0948069D8112AAC
:1013D00000F08A80FF2D94BF8146C1464FEA860205
:1013E000D9F8007088BF203A0EFA02FA27EA0A07F5
:1013F00004FA02F21743C9F80070D1F8049019F00A
:10140000805F4CD0DCF8182026F0030742F0010280
:10141000CCF81820DCF8182007F1804702F0010210
:10142000019207F5803706F0030A019A4FEA8A0A0B
:10143000BA680EFA0AFB22EA0B0B374A904260D0D8
:1014400002F5806290425ED002F5806290425CD0EC
:1014500002F58062904214BF0422032202FA0AF2CB
:1014600042EA0B02BA609A6819F4801F14BF2A433B
:10147000AA439A60DA6819F4001F14BF2A43AA43EA
:10148000DA605A6819F4003F14BF2A43AA435A602D
:101490001A6819F4803F14BF2A43AA431A60013620
:1014A00077E7DFF878904A450CD014D8A9F5801971
:1014B0004A4507D009F570294A4503D0A9F5801996
:1014C0004A4587D18A68D2B1012A4FF008040CBF7F
:1014D000076147617EE7DFF848904A45F2D009F599
:1014E0008039EDE7CC6875E7CC68043472E7CC68E6
:1014F00008346FE7CC680C346CE700246AE70424F6
:1015000068E70022AAE70122A8E70222A6E700BFB7
:1015100000100240000401400008014000002210B9
:101520000000311080680840003818BF0120704763
:101530000AB1016170470904FBE7C36801EA0302CD
:1015400021EA030141EA0241016170472DE9F341BB
:10155000054638B30368DB0710D42B689F075ED4B9
:101560002B68190700F195802B685A0700F1C1809C
:10157000EB69002B40F02C81002029E0904C63683F
:1015800003F00C03042B07D0636803F00C03082B53
:101590000AD16368DE0307D523689C03DDD56B6839
:1015A000002BDAD1012013E06B68B3F5803F12D134
:1015B000236843F480332360FFF764FE0646236804
:1015C0009803CAD4FFF75EFE801B6428F7D9032076
:1015D00002B0BDE8F0819BB9236823F48033236017
:1015E000236823F480232360FFF74CFE064623681C
:1015F0009903B2D5FFF746FE801B6428F7D9E6E7CA
:10160000B3F5A02F236803D143F480232360CFE7F1
:1016100023F480332360236823F48023CBE7684CD2
:10162000636813F00C0F07D0636803F00C03082BFA
:1016300010D16368DA030DD423689B0702D52B69A8
:10164000012BAFD123686A6923F0F80343EAC20390
:10165000236085E72A695B4B6AB101221A60FFF7B4
:1016600011FE064623689F07ECD4FFF70BFE801B94
:101670000228F7D9ABE71A60FFF704FE0646236895
:1016800098077FF56DAFFFF7FDFD801B0228F6D9A7
:101690009DE7AA694A4E4B4BE2B10122C3F8802470
:1016A000FFF7F0FD0446736A9B070DD54FF4FA521D
:1016B000454B1B68B3FBF2F3019300BF019B5A1E1D
:1016C0000192002BF9D14FE7FFF7DCFD001B022848
:1016D000E9D97CE7C3F88024FFF7D4FD0446736A98
:1016E0009F077FF541AFFFF7CDFD001B0228F6D91C
:1016F0006DE7334CE369D80024D40127E36943F054
:101700008053E361E36903F080530093009B2F4E05
:101710003368D90518D5EB68012B26D1236A43F02D
:1017200001032362FFF7AEFD41F288380646236AC3
:101730009B073FD5002F3FF41BAFE36923F0805395
:10174000E36115E70027E2E7336843F48073336011
:10175000FFF798FD80463368DA05DCD4FFF792FD89
:10176000A0EB08006428F6D931E7ABB9236A41F24F
:10177000883823F001032362236A23F004032362E1
:10178000FFF780FD0646236A9807D3D5FFF77AFD59
:10179000801B4045F7D91AE7052B236A03D143F094
:1017A00004032362BAE723F001032362236A23F0D0
:1017B0000403B6E7FFF766FD801B4045B7D906E78F
:1017C00000100240000042420C0200200070004065
:1017D0002A4C626802F00C02082A3ED00022022B3A
:1017E000274B1A662CD1FFF74DFD06462368990159
:1017F00020D42B6AB3F5803F05D16268A96822F432
:1018000000320A436260696A62680B4322F4741210
:101810001343012263601A4B1A66FFF733FD054636
:1018200023689A013FF5A8AEFFF72CFD401B022864
:10183000F6D9CCE6FFF726FD801B0228D6D9C6E6EE
:10184000FFF720FD054623689B017FF595AEFFF766
:1018500019FD401B0228F6D9B9E6012B3FF4A2AED0
:1018600060682B6A00F480329A427FF49BAE6B6A08
:1018700000F47010C01A18BF0120A9E60010024041
:10188000000042420D4A536803F00C01082912D1AE
:101890000B48C3F38341DB03405C09D55368094A15
:1018A000C3F340435043084AD35CB0FBF3F07047A6
:1018B000064B584370470348704700BF0010024072
:1018C0004EBB000800127A004CBB000800093D0026
:1018D0002DE9F0410D46044610B90120BDE8F08124
:1018E000444A136803F007038B4228D321688E070C
:1018F00030D4CA0743D43F4A136803F00703AB420E
:1019000065D822683C4D12F0040F6CD1130706D540
:101910006B68226923F4605343EAC2036B60FFF7EC
:10192000B1FF6B68354AC3F30313D35CD840344B23
:101930001860344B1868FFF763FC0020CEE713688B
:1019400023F007030B431360136803F007038B4274
:10195000C3D1CBE7284B11F0040F1EBF5A6842F4E5
:10196000E0625A60080742BF5A6842F460525A6007
:101970005A68A06822F0F00202435A60B9E7626830
:101980001D4E012A33681AD113F4003FA5D07368A5
:1019900041F2883823F0030313437360FFF772FCAE
:1019A00007467368626803F00C03B3EB820FA2D0A2
:1019B000FFF768FCC01B4045F3D903208EE7022ADD
:1019C00002D113F0007FE1E713F0020FDEE71368A6
:1019D00023F007032B431360136803F00703AB42A4
:1019E0007FF47BAF8DE76B68E16823F4E0630B4322
:1019F0006B608BE70020024000100240A0E300086B
:101A00000C02002004000020044B054A5B68C3F36D
:101A10000223D35C034A1068D8407047001002408C
:101A200098E300080C020020044B054A5B68C3F3EE
:101A3000C223D35C034A1068D840704700100240AC
:101A400098E300080C020020036A026A70B522F0D5
:101A500001020262446882690D6822F073022A431F
:101A60008D6823F002032B430A4DA8420BD1CD68A9
:101A700023F008032B4324F44074D1E90556354381
:101A800023F004032C43446082614A68426303628A
:101A900070BD00BF002C0140036A026A70B522F4D9
:101AA000807202624468C2690D6822F073022A43A0
:101AB0008D6823F4007343EA05230B4DA8420DD132
:101AC000CD6823F4006343EA052324F44054D1E9AC
:101AD0000556354323F4806344EA05144460C2612B
:101AE0004A68C263036270BD002C0140036A026A47
:101AF00030B522F4805202624468C2690D6822F453
:101B0000E64242EA05228D6823F4005343EA053396
:101B1000064DA84202BF4D6924F4804444EA85146E
:101B20004460C2614A680264036230BD002C014017
:101B30007047000090F83D30012B1CD102230F4A62
:101B400080F83D30036893420AD0B3F1804F07D04C
:101B5000A2F59432934203D002F58062934204D1FD
:101B60009A6802F00702062A03D01A6842F00102BE
:101B70001A60002070470120704700BF002C014010
:101B800070470000174A036890420AD0B0F1804FB6
:101B900007D0A2F59432904203D002F580629042C1
:101BA00007D14A6823F070031343CA6823F44073D3
:101BB00013434A6923F08003134303608B68C362B5
:101BC0000B688362074B984204BF0B6903630123D0
:101BD00043610369DB0742BF036923F0010303612B
:101BE000704700BF002C014010B5044630B390F898
:101BF0003D3003F0FF021BB980F83C20FFF798FF4F
:101C00000223206884F83D30211DFFF7BBFF01232C
:101C1000002084F8463084F83E3084F83F3084F861
:101C2000403084F8413084F8423084F8433084F8FE
:101C3000443084F8453084F83D3010BD0120FCE785
:101C400010B5044630B390F83D3003F0FF021BB9E5
:101C500080F83C20FFF794FF0223206884F83D3091
:101C6000211DFFF78FFF0123002084F8463084F800
:101C70003E3084F83F3084F8403084F8413084F8B6
:101C8000423084F8433084F8443084F8453084F896
:101C90003D3010BD0120FCE7036A026A70B522F0F6
:101CA00010020262446882690D6822F4E64242EA48
:101CB00005228D6823F0200343EA05130B4DA8424B
:101CC0000DD1CD6823F0800343EA051324F440646A
:101CD000D1E90556354323F0400344EA85044460C6
:101CE00082614A688263036270BD00BF002C0140BC
:101CF00038B590F83C300446012B4FD00120082A1B
:101D000084F83C003AD006D8BAB1042A26D0002381
:101D100084F83C3038BD0C2AF9D12068FFF7E6FE84
:101D2000C3690A6943F40063C361C36923F4806330
:101D3000C361C36943EA02232EE02068FFF784FEF3
:101D400083690A6943F008038361836923F004030C
:101D500083618369134383610020D8E72068FFF71C
:101D60009BFF83690A6943F400638361836923F4F9
:101D700080638361836943EA0223ECE72068FFF70D
:101D80008BFEC3690A6943F00803C361C36923F08A
:101D90000403C361C3691343C361DDE70220B9E7EC
:101DA00010B50124036A01F01F018C4023EA0403EB
:101DB0000362036A8A401A43026210BD08B529B95A
:101DC00090F83E30012B1DD001202EE0042907D1D0
:101DD00090F83F30012BF7D1022380F83F3014E018
:101DE000082907D190F84030012BEDD1022380F86B
:101DF00040300AE090F84130012BE5D1022380F811
:101E0000413002E0022380F83E3000680122FFF7F3
:101E1000C7FF0F4B984209D0B0F1804F0BD18368B8
:101E200003F00703062B0DD1002008BD436C43F4DB
:101E300000434364F3E7074B9842F0D003F5806317
:101E40009842ECD0036843F001030360ECE700BF65
:101E5000002C014000040040FFF7B0BF026802F10F
:101E60000C0353E8003F23F490730C3242E8003136
:101E700002680029F2D102F1140353E8003F23F075
:101E8000010302F1140C4CE800310029F3D1036B7B
:101E9000012B0BD102F10C0353E8003F23F0100398
:101EA00002F10C0C4CE800310029F3D1202380F81A
:101EB000423000230363704710B504460368C168CD
:101EC0001A6922F440520A431A6182680069D9688B
:101ED0000243606921F4B05121F00C0102430A432E
:101EE000DA605A69A16922F440720A435A610E4AC3
:101EF000934215D1FFF798FD192343436268206888
:101F00009200B3FBF2F36422B3FBF2F102FB113354
:101F10001B013233B3FBF2F303EB0113836010BDFB
:101F2000FFF772FDE8E700BF00380140F7B505464E
:101F30000C4617461E462A68136834EA030301D18B
:101F4000002021E0701CF7D0FFF79CF9C01B8642EF
:101F50001CD3DEB12B68DA685107ECD5802CEAD0AF
:101F6000402CE8D01A681207E5D5002401941A68BD
:101F7000284601925B680193019BFFF76FFF0823DE
:101F800001206B6485F8404003B0F0BD0320FBE7FF
:101F9000704710B5044648B390F8413003F0FF0293
:101FA0001BB980F84020FFF7F3FF2423226884F850
:101FB0004130D368204623F40053D360FFF77CFF01
:101FC000236800201A6922F490421A615A6922F0AB
:101FD0002A025A61DA6842F40052DA60202360640F
:101FE00084F8413084F84230606310BD0120FCE782
:101FF0002DE9F843984690F841300446202B0E46D0
:1020000017463FD100293FD0002A3DD0212300258B
:10201000456480F84130FFF735F9A3688146B3F590
:10202000805FA784E78403D123690BB935461E4638
:10203000E38C9BB253B943464A4640212046FFF702
:1020400075FF202350B984F841300AE043464A46E0
:1020500080212046FFF76AFF28B12023032084F85F
:102060004130BDE8F88322684EB935F8023BC3F32E
:1020700008035360E18C013989B2E184D8E716F88E
:10208000013BF6E70220ECE70120EAE7064B18885F
:10209000064B80B21B889BB2984238BF00F5007097
:1020A000C01A80B2704700BF100300200E0300204A
:1020B00008B5344805F016FC334805F013FC3348E6
:1020C00005F010FC324805F00DFC324805F00AFC22
:1020D000314805F007FC314805F004FC304805F0B4
:1020E00001FC304805F0FEFB294805F0FBFB2E48BB
:1020F00005F0F8FB2D4805F0F5FB2D4805F0F2FB47
:102100002C4805F0EFFB224805F0ECFB2A4805F0CF
:10211000E9FB2A4805F0E6FB294805F0E3FB2948DE
:1021200005F0E0FB284805F0DDFB194805F0DAFB77
:10213000264805F0D7FB264805F0D4FB254805F0D6
:10214000D1FB254805F0CEFB114805F0CBFB234819
:1021500005F0C8FB224805F0C5FB224805F0C2FB8C
:10216000214805F0BFFB214805F0BCFB204805F0E5
:10217000B9FB204805F0B6FBBDE80840014805F072
:10218000B1BB00BF59D200085EBB0008E6BB000827
:1021900022BC0008AABC0008E0BC00081BBD000867
:1021A00057BD000892BD0008CEBD000804BE00085F
:1021B00040BE00087FBE0008BFBE0008F5BE000894
:1021C00033BF000870BF0008B1BF0008F5BF0008AA
:1021D0002CC0000867C00008A1C00008D4C00008D7
:1021E0000AC1000845C1000881C10008BEC100083D
:1021F000FAC1000836C200082DE9F0434D4B85B006
:10220000986CFEF755FD4C49FEF7A6FD4B49FEF7CD
:1022100057FE4B4B8046986CFEF74AFD4649FEF749
:102220009BFD4649FEF74CFE464B04461868FEF7F8
:102230003FFD4149FEF790FD4049FEF741FE424B0C
:1022400005461868FEF734FD3B49FEF785FD3B491E
:10225000FEF736FE3D4B06461B783D48033BDBB29E
:10226000042B96BF3B4A3C4F52F8237005F03AFBD3
:102270003A4805F037FB3A4805F034FB394805F099
:1022800031FB4046FEF7BAF8804628468946FEF7FD
:10229000B5F842464B46CDE90001334805F0BAFA9D
:1022A0002046FEF7ABF8044630460D46FEF7A6F88A
:1022B00022462B46CDE900012C4805F0ABFA2C4E06
:1022C0002C4805F00FFB39462B4805F0A3FA30687F
:1022D000FEF794F80446B0680D46FEF78FF8CDE996
:1022E00002017068FEF78AF8244E22462B46CDE99B
:1022F0000001234805F08EFA3068FEF77FF80446A7
:10230000B0680D46FEF77AF8CDE902017068FEF775
:1023100075F82246CDE900012B461A4805F07AFAF5
:10232000194805F0DFFA0A4805B0BDE8F04305F0AA
:10233000D9BA00BF880700200000B44300006145FF
:1023400030070020740500207005002040000020A8
:1023500059D200083CDF0008BEC20008C2C2000813
:1023600020C3000854C30008B2C30008E1C300083A
:102370009C05002010C400086EC4000878050020E9
:102380008CC40008BAC40008E8C40008002310B5D3
:1023900003638364C36403640446FEF773FF01238D
:1023A000A4F85430206510BD002310B5C36003614C
:1023B0000446FEF767FFE06110BD000030B504463B
:1023C00085B0264804F06DFA10B1244804F0D2F923
:1023D000234804F066FA10B1214804F0CBF92148F3
:1023E000FFF7D4FF2048FFF7D1FF00231D4A1F4904
:1023F00082F855301C4A82F8553000220A601C4988
:102400000A601C4A13741C4A13741C4A13701C4A39
:1024100013701C4A13601C4A13601C4A1370FEF7A9
:1024200031FF1B4A1368C31AB3F57A7F13D9194BCE
:10243000106019491A681948194B1A4D1B68098808
:1024400000882D7809B200B2CDE901050091164847
:10245000214605F0DFF905B030BD00BF8807002038
:102460003007002030060020CC050020FC020020B0
:10247000F8020020200000200C000020EC020020C8
:10248000D8060020B4060020B0060020B9060020BF
:10249000D4020020A4060020C6060020C4060020A6
:1024A000A8060020C206002049C500080138C0B2B5
:1024B0000428F8B532D8244B53F82070234B1E5C07
:1024C000234B1D5C0024234B23481E70234B1C70A0
:1024D000234B1C60234B1C70234B1C70FFF756FFD3
:1024E0002248FFF753FF1C4B214A83F855401F4BEE
:1024F00083F85540002313601E4A13601E4A1F4B89
:1025000085B11F48FFF75AFF1B4A1C4B1470062267
:102510001A701C48BDE8F84005F0E4B900251A4FD0
:102520002E46CFE70121117005221A70174B1D604E
:10253000FEF7A8FE164B324618603946BDE8F84053
:10254000144805F067B900BF28DF000821DF000844
:102550001CDF0008BA06002030060020B906002063
:10256000B0060020D8060020D9060020CC050020A7
:10257000F4020020F002002034000020400000207F
:10258000A0C50008B3C500089CC50008AC06002023
:10259000BC06002000C600082DE9F04F93B09B4612
:1025A0009DF870300C920E931D9B82460D931E9BDE
:1025B0000D460993209BBDF97C800A93219B0F93C4
:1025C00082EAE273A3EBE2731FFA83F9B9F5C87FDD
:1025D00088BF4FF00009A54B88BFCDF830901A781E
:1025E000022A03D01B78032B40F07D81002385F85D
:1025F000553001239E499F4A0B939F4B8A4508BF44
:102600001A46C845089203DB0B9B002B00F0918211
:102610000C98FEF74DFB9BF8102007464FF07E53B9
:10262000002A40F07C81CBF804300123CBF8000075
:102630008BF81030FEF726FE0646286D301AFEF79E
:1026400033FB8E49FEF73CFC8D490446FEF722FD24
:10265000002840F091814FF07E512046FEF738FD72
:1026600008B14FF07E5429682E653846FEF774FB9A
:102670000646A96C3846FEF765FA2146FEF720FCAF
:10268000A968AF64FEF768FB3146FEF75DFA2C6E71
:1026900006462146FEF71CFD00B12646EC6D30468D
:1026A0002146FEF7F7FC00B126464FF07E5130463A
:1026B000FEF70EFD002840F0618130467149FEF7BB
:1026C000E9FC00B16F4E0E9B0BB106F100460021F4
:1026D0003846FEF7FDFC002840F0538107F1004426
:1026E0004046FEF7E5FA01462046FEF72BFA0021A8
:1026F0008046FEF7CFFC08B14FF000080B9B002B83
:1027000000F0418160480F99FEF726FB5F490446BF
:102710004046FEF7BFFC002800F03A8140465B4986
:10272000FEF7CEFB00218046FEF7BEFC002840F0FD
:102730002D814FF07C514046FEF70EFB04230146ED
:102740004046CDE90E13FEF7BBFB0E99FEF7FCF9F0
:102750004FF07C51FEF700FB0F9B0146013BEFD190
:102760002046FEF7F9FA804621464046FEF7B0FCC7
:1027700000B1A04600213046FEF7A0FC002840F042
:10278000098106F1004441462046FEF7A1FC00B154
:10279000444600213046FEF791FC08B904F100449C
:1027A0000B9B002B00F01581394B1B78002B00F0A0
:1027B000F380384EB9F1180F98BF374E4146304676
:1027C000FEF786FC00B1464600212046FEF776FC67
:1027D000002840F0E380304604F10041FEF778FC29
:1027E000002840F0ED80089B00211E683046FEF76F
:1027F00047FC68B930462949FEF7AEFA2849064633
:102800002046FEF7A9FA01463046FEF79DF9044638
:10281000089B002120461C60FEF750FC002840F079
:10282000FB8004F1004600212046FEF747FCB0FA89
:1028300080F9504604F037F800210B902046FEF74F
:102840003DFCDDE90A324FEA5919002800F0E68024
:10285000934227DD531C0A9949429142C0F2E2801B
:10286000B9F1000F00F0E5801CE000BFBA060020BF
:1028700088070020F0020020F402002000007A44C3
:102880006F12833A000080BF3333333F0000204390
:10289000C1060020AE47213E8FC2F53C9A99193FF0
:1028A000CDCCCC3E504603F0FCFF10B1504603F0B7
:1028B00061FF2846FFF76AFD00238BF810300023E4
:1028C000099A1360089A1360A34B1A78002A40F003
:1028D0000B8101220D991A70A0480A9A13B0BDE825
:1028E000F04F04F097BF91F855300BB9002381E603
:1028F00008F10C031BB24B450ADB03F0D2FF0028A2
:1029000000F0F280504613B0BDE8F04F03F032BF44
:102910000023084681F85530FFF738FDE6E7DBF87D
:102920000810DBF804001193FEF70EF9DBF80C1029
:102930000446FEF709F901462046FEF7C1FA0646AD
:10294000DBF80020384611461092FEF7FBF83146BE
:10295000FEF702FA109A1146FEF7F6F8119B31467F
:10296000CBF8000007461846FEF7ECF82146FEF7C4
:10297000F3F9CBF804005DE6794C74E64FF07E562F
:10298000A1E63C46ACE64FF07C50BCE60021E7E611
:10299000A046E9E63446F6E6724E0BE7314620469D
:1029A000FEF778FB00283FF41EAF00212046FEF71B
:1029B0008FFB58B9089B00211868FEF77FFB28B9E8
:1029C00069483146FEF7C8F904460CE74FF07E50DF
:1029D000F7E700212046FEF771FBD8B904F100406B
:1029E0006249FEF757FB00283FF4FDAE504603F066
:1029F00058FF10B1504603F0BDFE2846FFF7C6FC55
:102A000000238BF810300023099A1360012385F806
:102A1000553069E02046E3E7264604E7934208DDA7
:102A2000531E18E70A9A93423FF73CAF99423FF78B
:102A300039AF099B4E4930461C68FEF78DF9FEF709
:102A400077FB44F62063181A984228BF1846B0F561
:102A5000487F38BF4FF44870FEF726F9002105463D
:102A60002046FEF70DFB78B94FF07C512046FEF76B
:102A700073F94FF07C5104462846FEF76DF9014684
:102A80002046FEF761F80546099B4FF07C511D601A
:102A90002846FEF759F8FEF74BFB44F620639842B0
:102AA00028BF18464946B0F5487F8346504638BF90
:102AB0004FF4487B03F018FD504603F0F2FE012866
:102AC00002D0504603F06EFD5946504603F040FDDB
:102AD000284A2949BAEB020218BF01228B5C013354
:102AE000DBB2042B03D88B5413B0BDE8F08F002366
:102AF00038468B54FDF782FC044630460D46FDF700
:102B00007DFC064640460F46FDF778FC8046504661
:102B1000894603F0C8FEDDE90C21CDE906B0CDE918
:102B20000489CDE90267CDE90045144804F072FE3E
:102B3000DAE7504603F0B5FE10B1504603F01AFE36
:102B40002846FFF723FC00238BF810300023099A56
:102B50001360089A59E700BF320200203DC6000802
:102B60006F12833A6666E63E000080BF8FC2753CF6
:102B70000000964688070020300200206BC600083F
:102B8000F0B51E4E3368DB689B0436D572B61C4D1B
:102B90001C4B1D4F01442A881C880132A4B2C2F389
:102BA0000802A24208BF1C8810F801CB02BF013402
:102BB000C4F308041C802C888842A4B207F804C01F
:102BC0002A80E8D162B611480278B2B929881A88F9
:102BD00089B292B2914210D0012202701A8892B248
:102BE000B95C1A88C9B20132C2F308021A8033688C
:102BF0005960DA6842F08002DA60F0BD28080020EF
:102C0000100300200E030020120300200D030020FB
:102C10000FB407B504AB53F8042B80210648019389
:102C200004F060FF011E02DD0348FFF7A9FF03B0B7
:102C30005DF804EB04B07047540200201FB5034652
:102C40000D480268D268920413D58DF8063000232F
:102C50008DF807304FF0807343F63C420293012316
:102C6000ADF804208DF80C300922142301A9FFF7D8
:102C7000BFF905B05DF804FBE007002010B504467D
:102C8000FFF7DCFF2046BDE81040FFF70FBC000057
:102C90000021F0B5934B944D1A78944BD2B289B081
:102CA000995418781C46A0F10A02D2B2162A194685
:102CB00003F1010362D825FA02F2D207F1D48C4A5B
:102CC000601E133110F8013F0BB188425AD1002326
:102CD00088498948137005F05AF82578782D7DD0F9
:102CE00059D8592D00F0A5805A2D58D0582D75D09F
:102CF00003222046814904F0ADFF38B1032220466B
:102D00007F4904F0A7FF002840F0D18000238DF810
:102D1000173006930023079307AB0093794906AB5E
:102D20000DF11702E01C04F03DFE032840F0BA80CC
:102D30009DF81730744943F02003742B06A807BF91
:102D4000724C734D734C744DFDF7E2F9002840F05E
:102D50009780079B23600622704B1A70FEF792FA49
:102D60006F4B963018600798FDF748FBCDE90001DE
:102D700029466C4806AAFFF74BFF01E000289ED1C8
:102D800009B0F0BDA3F16105192D9CBF203BDBB25A
:102D900002F8013B96E7792D4BD07A2DA8D16248F5
:102DA00003F05EFC614803F05BFC0023604A594875
:102DB0001360604A1360FFF7F7FA5448FFF7F4FA1C
:102DC0000622564B1A70FEF75DFA554B9630186086
:102DD000594809B0BDE8F040FFF71ABF0023574932
:102DE00007AA601C079304F0DDFD01281DD154499A
:102DF0000798FDF7B1FF5349FEF762F8FEF772F945
:102E00000622464B4A4C1A702060FEF73BFA444BB0
:102E1000963018600798FDF7F1FA0B4621680246D4
:102E200049480091FFF7F4FEAAE74848FFF7F0FE93
:102E3000A6E70023414907AA601C079304F0B2FDEE
:102E400001281BD13E490798FDF786FF3D49FEF753
:102E500037F8FEF747F90622304B364C1A702060DF
:102E6000FEF710FA2E4B963018600798FDF7C6FA59
:102E70000B462168024600913548D3E73548D5E72F
:102E8000354906A8FDF744F910B9079B636062E76E
:102E9000324906A8FDF73CF9002840F0FB83079B68
:102EA000A36058E72E48FFF7B3FE2E48BEE705F0B3
:102EB000DF034B2B09D10522184B1A70FEF7E2F9FC
:102EC000174B96301860284883E74D2B50D10622C7
:102ED000124B1A70FEF7D6F9114B96301860234842
:102EE00077E700BF03070020090040000407002027
:102EF00026050020D2C60008120500209FC7000842
:102F0000A3C70008A7C70008B2C7000878050020BB
:102F1000ADC600089C050020B2C600084000002095
:102F2000DC060020E4C700088807002030070020E6
:102F3000740500207005002074C70008AFC70008A2
:102F4000000061450000B443D5C60008F8C600087B
:102F500024C7000848C70008B5C70008B8C700085C
:102F600007C8000832C800084AC8000873C800082B
:102F700008222046A14904F06DFE30B10822204607
:102F80009F4904F067FE002834D100239D498DF845
:102F90001830079306AA07AB04F1080004F002FDFD
:102FA000022821D19DF8183043F02003702B15D151
:102FB000954B079A1A60FEF765F9944B96301860A6
:102FC0009DF818309248934943F02003702B18BFA6
:102FD0000146079A9048FFF71BFED1E6742B01D1FA
:102FE0008E4BE6E78E4821E78C4B8E481A68864B5D
:102FF0001968F0E7052220468B4904F02BFE30B11A
:1030000005222046894904F025FE002844D14FF4CA
:103010009673874907AA601D079304F0C3FC079DB8
:10302000844BB5F5006FA8BF4FF40065322DB8BFD3
:1030300032259A6C804B814C9B6C511B581B2B4446
:10304000C4E90531E36100232A44C4E90220226176
:1030500001227B4E216033707A4B60601A70FEF75C
:1030600011F90722784B1860784B79481A7022685A
:10307000784B1A606268784B1A60FFF795F97748C9
:10308000FFF792F929463278754804F0C3FB079997
:103090007448FFF7BDFD73E604222046724904F030
:1030A000D9FD28B104222046704904F0D3FD80B92F
:1030B0000022644B5F481A7003F05CFB5E4803F02B
:1030C00059FB0622614B05201A70FFF7B7FD6848CF
:1030D0007FE604222046674904F0BCFD28B10422A3
:1030E0002046654904F0B6FD20B909B0BDE8F040BE
:1030F000FEF7DEBF06222046604904F0ABFD28B192
:10310000062220465E4904F0A5FD20B909B0BDE8BD
:10311000F040FFF771B8042220465A4904F09AFDA6
:1031200028B104222046584904F094FD70B90023C8
:10313000484A1360484A13600622444B1A70FEF74F
:10314000A1F8324B96301860504842E604222046DF
:103150004F4904F07FFD28B1042220464D4904F078
:1031600079FD48BB043425462B780134202BFAD056
:1031700002222846484904F06DFD28B10222284663
:10318000464904F067FD20B90122454B45481A70B5
:103190001FE603222846444904F05CFD28B10322BF
:1031A0002846424904F056FD20B900223C4B4048D5
:1031B0001A700EE63F480CE6032220463E4904F012
:1031C00049FD20B90120FFF759FD3C4801E60822DE
:1031D00020463B4904F03EFD20B90220FFF74EFD9A
:1031E0003848F6E506222046374904F033FD00282A
:1031F0006ED10320FFF742FD3448EAE596C8000887
:103200009FC80008A8C80008C8050020DC060020E8
:10321000ADC60008B2C60008CAC80008C405002030
:10322000AFC80008E7C8000805C900080BC90008B6
:10323000ACC80008880700203007002044050020A3
:1032400064050020650500204005002040000020A6
:103250009C050020740500207005002078050020E2
:1032600011C9000845C9000868C900086DC90008EF
:1032700072C9000880C9000885C900088AC9000809
:1032800091C9000898C900089DC90008A2C9000892
:10329000C1C90008C6C90008CBC90008CEC90008CA
:1032A00004030020D1C90008F4C90008F8C90008C7
:1032B000FCC9000813CA000835CA000839CA00084A
:1032C00063CA00086CCA00089ACA0008A1CA0008AC
:1032D00005222046934904F0BDFC20B90420FFF7E5
:1032E000CDFC914875E5914E3378052B1AD1542DBC
:1032F00010D8402D0AD82B2D01D02D2D12D18C495C
:103300008C4809B0BDE8F040FFF782BC413D8A4BD4
:10331000EDB204E0613DEDB2162D03D8874BEB40D2
:10332000DB07ECD403233370FDF7ACFF844B9630FE
:10333000186000224FF400518248FEF7F9F87C49EA
:103340008148FFF765FC2578A5F13F03362B00F295
:10335000A781DFE813F0E400A5019400A50188002F
:10336000A800A5017A0031018100C100A501A501D5
:10337000A501A501A501A5013C00A501A501A0008D
:103380007500CD00A501A501A501A501A501A50117
:10339000A501A501A501A501A5019400A50188002D
:1033A000A800A5017A0031018100B500A501A501A1
:1033B000A501A501A501A5013700A501A501A00052
:1033C0007500CD00614B624A62481A6001E5624CAB
:1033D0002068FDF713F80646A0680F46FDF70EF8C3
:1033E000CDE902016068FDF709F832463B46CDE9B8
:1033F00000015A48FFF70CFC594B5A4C1A7803212C
:103400005948FFF705FC2068FCF7F8FF0646A0685E
:103410000F46FCF7F3FFCDE902016068FCF7EEFF11
:103420003246CDE900013B465048FFF7F1FB04214D
:103430004F4B4D481A7809B0BDE8F040FFF7E8BBA4
:10344000424B4C4A4C481A60C3E4404B0021186878
:1034500003F042F84948BCE43C4B0121186803F0F2
:103460003BF84748B5E4394C0021206803F03CF8AC
:10347000206803F097F821684248203141E7334C37
:103480000121206803F030F8206803F08BF82168F0
:103490003D48203135E72D4C206803F06BF9216859
:1034A0003A4820312DE72A4803F07CF8314803F0F0
:1034B00079F8042300223370354B36481A6088E4CB
:1034C000274A3548137883F0010111703349344A93
:1034D000012B08BF114614E7254A3248137883F0C0
:1034E000010111702D492E4A012B08BF114608E732
:1034F0002D4B1A788AB100241C702C4B16481C7076
:10350000FEF744FF1748FEF741FF134B284883F8A6
:103510005540144B83F855405BE4264859E4FEF7C8
:10352000C7FDF3E5D5CA0008DBCA0008400000204B
:103530000407002013CB0008AD800C00AD804E00C6
:10354000DC0600200010014039CB000838000020C4
:103550008807002042CB00083006002068CB000816
:1035600008000020CC0500208DCB0008A6CB000869
:103570003A05002030070020CBCB0008F2CB000832
:1035800012CC00082FCC00084BCC000868CC0008F7
:103590002C07002079CC000898CC0008B6C600089B
:1035A000C5C60008B3CC0008D8060020D906002004
:1035B000CFCC0008F7CC0008002300268DF8173088
:1035C000069307AB0093694906AB0DF11702601C27
:1035D000079604F0E7F903285FD19DF81750644C73
:1035E000644B45F02005644906A8742D08BF1C46AD
:1035F000FCF78EFDF8B9079F604E38463146FDF75F
:1036000049FD08B1079606E05D4E38463146FDF7A4
:103610005FFD0028F6D1079820605A4B5A4C742D54
:1036200008BF1C46FCF7EAFE06AACDE900012146C8
:103630005648FFF7A0BB564906A8FCF769FD90B9AC
:10364000079F544E38463146FDF724FD08B10796D2
:1036500006E0514E38463146FDF73AFD0028F6D1D6
:1036600007986060D9E74D4906A8FCF751FD88B975
:10367000079F31463846FDF70DFD08B1079606E075
:10368000474E38463146FDF723FD0028F6D107980E
:10369000A060C2E7434806A9FBE44348FFF7C6BB66
:1036A000601C03F002F9562D06464CD010D82D2D83
:1036B0002FD0522D12D02B2D1DD021783B48FFF753
:1036C000A7FA3B493B4809B0BDE8F04004F05FBBB6
:1036D000762D38D0772D2AD0722DEED13046FDF7D9
:1036E000E7FA354C0146206802F0DAFF21683246DD
:1036F000324820319FE6304D0021286802F0F4FE68
:103700003146286802F0BEFF296832462C48203135
:1037100091E6294D0121286802F0E6FE314628682D
:1037200002F0B0FF296832462648203183E6224D58
:103730000146286802F0F2FF296806EBD676224897
:103740007210203177E644F620639E4228BF1E4661
:10375000B6F5487F38BF4FF44876174B31461868A6
:1037600002F0D4FE31461948CBE500BFA8C70008D7
:1037700030060020CC050020B2C700086F12833A43
:10378000CDCC4C3DADC60008B2C6000811CD000836
:10379000B5C700080000204100001643B8C7000864
:1037A0000AD7233CBBC7000845CD0008F9CD000867
:1037B0002DCE00081205002038000020A0CD000802
:1037C0006ECD000887CD0008B7CD0008D0CD000829
:1037D00010B4044606480368DB689B0405D58AB22A
:1037E0000A23214610BCFEF703BC10BC704700BF83
:1037F00070080020F0B5394BAFB01B78002B6AD0B1
:10380000FDF740FD364C2368C01A632863D9FDF7E5
:1038100039FD344B20609C6C334B9E6C334B1D68E0
:10382000334B1F68334B1868FCF7E8FDCDE90E01F8
:10383000B81BFDF73DFAFCF7E1FDCDE90C01384678
:10384000FDF736FA2C49FDF787FA2C49FDF738FBCE
:10385000FCF7D4FDCDE90A013046FDF729FA2649E7
:10386000FDF77AFA2549FDF72BFBFCF7C7FDCDE9FB
:103870000801234B1868FCF7C1FDCDE90601281BA0
:10388000FDF716FAFCF7BAFDCDE904012846FDF76D
:103890000FFA1949FDF760FA1849FDF711FBFCF71B
:1038A000ADFDCDE902012046FDF702FA1249FDF710
:1038B00053FA1249FDF704FBFCF7A0FD114ACDE9CC
:1038C0000001782110A804F015F80A2382B210A98B
:1038D0000D48FEF78DFB2FB0F0BD00BF04030020A4
:1038E0000003002088070020300700207405002016
:1038F00070050020680500200000B4430000614509
:103900006C05002031CE00087008002030B5044658
:10391000002002460A4D082115F8013B584043B2E9
:10392000002BBABF5B0083F007034300D8B24B1EE5
:1039300013F0FF01F3D10132D2B2A242EBD130BD7C
:10394000CB0600202DE9F74F40F6B83B1E46836CAE
:103950001446A2EB030A8AEAEA72A2EBEA725A451B
:10396000884605460C9F0D99DFF8509240F3FD8084
:10397000D9F80020002A40F0E180FDF783FCC9F867
:103980000000284602F08DFF002840F00681214605
:10399000284602F027FEFDF775FC0446D8F81C0007
:1039A000201AFDF781F98649FDF7D6F98449814649
:1039B000FDF770FB002840F0F2804FF07E51484642
:1039C000FDF786FB08B14FF07E595046FDF770F9C0
:1039D0004946C8F81C408246FDF7BEF9D8F81010D9
:1039E000FDF7B2F877490446FDF772FB00B1754C5C
:1039F00020467549FDF74EFB00B1734CD8F80C100A
:103A00005046C8F81040FDF79DF84946FDF758FAB2
:103A1000D8F800108146C8F80CA05046FDF79CF974
:103A2000D8F8041082462046FDF796F90146504624
:103A3000FDF78AF8D8F8081004464846FDF78CF9D7
:103A400001462046FDF780F8D8F81890044649460C
:103A5000FDF73EFB00B14C46D8F8148020464146A5
:103A6000FDF718FB00B144464FF07E512046FDF7AC
:103A70002FFB002840F09A8020465449FDF70AFBAE
:103A8000002840F08F8000212046FDF721FB002810
:103A900000F0898039462046FDF75EF90021044692
:103AA000FDF7F8FA002840F086804FF07E5120465E
:103AB000FDF70EFB00287CD04FF07E504449FDF707
:103AC0004BF9FDF735FB44F62063181A984228BFDE
:103AD0001846B0F5487F38BF4FF44870FDF7E4F85A
:103AE0003768044600213846FDF7CAFA68B93846F7
:103AF0003849FDF731F9384907462046FDF72CF9DA
:103B000001463846FDF720F804464FF07C51204628
:103B10003460FDF719F8FDF70BFB44F6206398427B
:103B2000014628BF1946B1F5487F38BF4FF44871A8
:103B3000284603B0BDE8F04F02F00ABD0191FDF741
:103B4000A1FBD9F80020801A58457FF61AAF234B05
:103B500001991A78002A7FF414AF012220481A70C4
:103B60000323524603F056FE0BE700231B4AC9F815
:103B7000003013700AF10203042B3FF602AF02F08B
:103B800090FE10B1284602F0F5FD4046FEF70CFC11
:103B90000023336003B0BDE8F08FEC64FBE6DFF890
:103BA000209012E7094C04F1004473E74FF07E5473
:103BB00070E7204682E7002080E700BF3C05002038
:103BC0006F12833A00409C4500409CC5000080BFB6
:103BD000000096463333333F9A99993E3B050020C7
:103BE0005FCE0008234B73B51A682348234B1C682B
:103BF000836CD31A042B35DC04330ADA0123204901
:103C00000D789D4204D01F4D2D68002B2CD12A44E5
:103C10000B701D498B6CE31A042B27DC043309DA83
:103C200001231A4D2E789E4203D0194E3668FBB9F7
:103C300034442B70174BC264CC6401934FF07E5315
:103C4000154900930C48154BFFF77CFE144B224698
:103C50000193144B144900930B48144BFFF772FE69
:103C600002B070BD0023CAE7521BD1E70023D8E79A
:103C7000A41BDEE7740500208807002070050020E3
:103C8000C1050020C805002030070020C005002025
:103C9000C4050020B2C600089C0500206C05002069
:103CA000ADC600083333333F780500206805002097
:103CB00030B5002589B0284B07959A69012442F058
:103CC00004029A619A6904A902F004020092009A1F
:103CD0009A69224842F008029A619A6902F0080241
:103CE0000192019A9A6942F010029A619A6902F06F
:103CF00010020292029A9A6942F001029A619B694B
:103D0000174A03F001030393039B536823F0E06316
:103D100043F00073536003230694CDE90435FDF7A7
:103D20002DFB4FF4704304A90E48CDE904350694E9
:103D30004FF40055FDF722FB022304A90A4807931C
:103D4000CDE90454FDF71AFB224629460648FDF743
:103D5000EFFB09B030BD00BF001002400008014079
:103D600000000140000C01400010014030B500256A
:103D700087B01B4B04959A6902A942F480429A616C
:103D80009B694FF4007203F480430193019B02236B
:103D9000CDE90223032313480593FDF7EFFA4FF40F
:103DA000806302A90F48CDE902350495FDF7E6FAD4
:103DB0004FF4E1330C4C0D492046C4E900130C23A9
:103DC000C4E90255C4E905352561E561FEF7E1F86E
:103DD0002268D36843F02003D36007B030BD00BF32
:103DE0000010024000080140700800200038014027
:103DF00030B5002587B01A4B0495DA6902A942F460
:103E00000032DA61DB69042203F400330193019B81
:103E10000223CDE90223032312480593FDF7AEFAEE
:103E2000082310480DEB0301CDE902350495FDF799
:103E3000A5FA4FF416530C4C0C492046C4E9001364
:103E40000C23C4E90255C4E905352561E561FEF797
:103E5000A0F82268D36843F02003D36007B030BDD8
:103E600000100240000801402808002000440040E3
:103E700030B5002587B01F4B0495DA6902A942F4DA
:103E80008022DA61DA691C4802F480220092009AEA
:103E90009A691A4C42F008029A619B694FF4806259
:103EA00003F008030193019B0223CDE902230323BE
:103EB0000593FDF763FA4FF4006302A90E48CDE9BC
:103EC00002350495FDF75AFA4FF4E1330C492046C8
:103ED000C4E900130C23C4E90255C4E90535256182
:103EE000E561FEF756F82268D36843F02003D360FB
:103EF00007B030BD00100240000C0140E007002078
:103F000000480040174B37B5DA69174C42F0010200
:103F1000DA61DB694FF0804203F001030193019BFA
:103F200047230025C4E9002341F63F73C4E9025347
:103F300080232046A3612561FDF756FE22682046B6
:103F4000D36843F00103D360FDF7F4FD2A46012155
:103F50001C20FDF7C1F91C2003B0BDE83040FDF77F
:103F6000EBB900BF001002409009002010B51E4BB5
:103F70008CB09A69002442F400629A619B694FF404
:103F8000006203F400630093009B0223CDE9012348
:103F9000032301A9154804930394FDF7EFF9144A8C
:103FA000144B104613604723C2E9013444F61F63E3
:103FB000C2E9033480239361FDF742FE21461422B7
:103FC00007A803F03FFE40F2DC5360210C22CDE94C
:103FD0000513074805A9FDF78BFE0C210448FDF7E2
:103FE0003BFF0CB010BD00BF0010024000080140B4
:103FF00048090020002C014010B51D4B8CB0DA6937
:10400000002442F00202DA61DB6901A903F0020335
:104010000093009B0223CDE9013303231548049349
:104020000394FDF7ABF9144A144B10461360472371
:10403000C2E9013444F61F63C2E90334802393616B
:10404000FDF7FEFD2146142207A803F0FBFD40F218
:10405000DC53602205A9CDE9052307480C22FDF7B2
:1040600047FE0C210448FDF7F7FE0CB010BD00BF61
:1040700000100240000C0140000900200004004034
:10408000164B37B5DA69164C42F00402DA61DB6987
:10409000144A03F004030193019B47230025C4E95C
:1040A000002341F63F73C4E9025380232046A361F5
:1040B0002561FDF799FD22682046D36843F001038E
:1040C000D360FDF737FD2A4601211E20FDF704F9D4
:1040D0001E2003B0BDE83040FDF72EB900100240AD
:1040E000B80800200008004010B514460A2392B218
:1040F0000248FDF77DFF204610BD00BF700800207C
:1041000000207047002070474FF0FF3070474FF09D
:10411000FF30704701207047074B1B681A69D107B1
:1041200008D5DA68D20705D56FF0010203481A6195
:1041300002F02CBB704700BF9009002088070020C8
:10414000074B1B681A69D10708D5DA68D20705D56D
:104150006FF0010203481A6102F018BB704700BFFC
:10416000B808002030070020144B82B01B681A6882
:10417000110706D5002201921A6801925A6801922D
:10418000019A1A68920616D50D4A5B681178DBB25F
:104190001E2905D81078411CC9B2117009490B5469
:1041A0000A2B01D00D2B03D10122074B1A7002E01C
:1041B00013781E2BF8D802B0704700BF700800209B
:1041C000030700200407002002070020324B13B52C
:1041D0001B681A68100706D5002201921A6801921E
:1041E0005A680192019A1A68510742BF5A68D2B2BE
:1041F0008DF801201A68920742BF5A68D2B28DF832
:1042000002201A68D40742BF5A68D2B28DF8032040
:104210001A68100615D5DA68110612D51F4A20490A
:1042200010880A8880B292B2904228D00A881D482D
:1042300092B2805C0A88C0B20132C2F308020A80DE
:1042400058601A68920625D501225C68164BE4B2C4
:104250001A70FDF717F8154B1860154B1A781E2ABF
:1042600005D819784A1CD2B21A70124A54540A2C32
:1042700001D00D2C0BD101220F4B1A700AE0002146
:104280000E4A1170DA6822F08002DA60D9E71B78F2
:104290001E2BF0D802B010BD28080020100300200B
:1042A0000E030020120300200C030020080300204E
:1042B000E1060020E2060020E00600200D030020B9
:1042C000724B73B51E6833689A061AD5704C7568C0
:1042D0002378EDB2062B00F29280DFE803F00409A8
:1042E0003060636752003C2D0BD10123237008E03E
:1042F0003B2D12D10023674A137002222270664AB6
:10430000137033681B0706D50023019333680193AC
:1043100073680193019B02B070BD3A2D08D1012250
:104320005C4B1A700223002223705B4B1A70E8E783
:104330003C2D64D10222574B1A700623F3E7554BEC
:104340001A78554B72B91A78052A06D81A78D1B25C
:104350000132D2B21A70514A55541B78052BD0D96C
:104360000423C3E71A780A2A06D81A78D1B2013290
:10437000D2B21A70494A55541B780A2BC1D903236B
:10438000B4E7454A1378042B06D81378D9B2013321
:10439000DBB21370414B5D541378042BDFE7404BC5
:1043A0001D70DDE7012D2AD105239FE7012D26D1C0
:1043B000384B1A783ABB0520FFF7A8FA374B5A79E1
:1043C00082421ED119785A7842EA0122354912B246
:1043D0000A809978DA7842EA0122334912B20A80D7
:1043E0001B79324ADBB213701378314AC3F340139E
:1043F0001370304B304A1D70136801331360002373
:1044000074E72E4AF8E71A78012A35D10B20FFF716
:104410007DFA234B1B788342F3D1204B19785A78CD
:1044200042EA0122264912B20A809978DA7842EAF1
:104430000122244912B20A8019795A7942EA0122EA
:1044400021490A809979DA7942EA01221F490A80D2
:10445000197A5A7A42EA01221D4912B20A809A7ADE
:104460001C4902F001020A709B7A1B4AC3F3400305
:1044700013701A4B1D70C2E71B78022BBFD1074B7C
:10448000174A1B78DBB21370B9E700BFE0070020C2
:10449000D7060020C9060020CA060020CB0600204F
:1044A000C8060020C6060020C4060020C206002060
:1044B000C1060020C0060020A4060020A806002097
:1044C000A00600209E0600209C0600209A060020E0
:1044D00098060020960600209506002094060020ED
:1044E000B8060020FCF7C2BE07B5074C4FF40051D8
:1044F0000648FDF722F800230193019BA342F5D85B
:10450000019B0133F8E700BF1FA107000010014025
:1045100007B572B6064C4FF400510648FDF70DF88A
:1045200000230193019BA342F5D8019B0133F8E7D7
:104530003F420F000010014010B590B0142200213E
:1045400008A803F07FFB1422002101A803F07AFBE6
:1045500002244FF480330122CDE90D43CDE9062337
:104560004FF4E01306A80F93FCF7F0FF08B1FFF734
:10457000CFFF0F23CDE901344FF480630390CDE9E1
:104580000430214601A8FDF7A3F90028EFD110B0AF
:1045900010BD00002DE9F04FC5B0FCF755FEFFF748
:1045A000CBFF4AF6AA22B34BB34D1A6000231193F6
:1045B000AB694FF4005043F01003AB61AB690FA936
:1045C00003F010030E930E9B0123CDE90F0302238A
:1045D000AA4812930324FCF7D1FE00224FF40051A5
:1045E000A648FCF7A5FF6420FCF752FE01224FF419
:1045F0000051A248FCF79CFF6420FCF749FE013CF7
:10460000EBD1FFF755FBFFF7B1FBFFF7F1FBFFF72E
:104610002FFC224621462520FCF75EFE2520FCF7D4
:104620008BFE224621462620FCF756FE2620FCF76C
:1046300083FE224621462720FCF74EFE2720FCF76A
:104640007BFE22460F214FF0FF30FCF745FE6C6ADF
:104650008B48214603F0DEF8002C02DA894803F08B
:10466000D9F8610002D5884803F0D4F8A20002D539
:10467000864803F0CFF8E30002D5854803F0CAF876
:10468000270102D5834803F0C5F8660102D58248A8
:1046900003F0C0F8A00102D5804803F0BBF88048C1
:1046A00003F020F96B6A43F080736B6201F05EFBEC
:1046B000002800F06F817B484AF6AA256D4C03F074
:1046C00011F92560FFF752FC2560FFF795FC256086
:1046D000FFF718FC2560FFF7D3FC734B25600693AA
:1046E00040F2465340F2DC5640F6C41B4FF4FA7ACF
:1046F0004FF448780593A3F68C23DFF8B091049328
:104700006B4B4A46CDE901B66A496B480393CDF835
:1047100000A00C2301F094FE684B2560684F0693BF
:10472000684B6949CDE901B6684A69480393CDF8F9
:1047300000A00C23CDE9047801F082FE25604FF043
:104740007E55D9F80030614A1E641368614A1E64C0
:10475000614B624E1360624B624C5360624B104679
:10476000946093651566D665FDF710FE5F4A604B51
:10477000156613605F4BA946536000254FF08143D7
:104780009460DFF874B15D4CDFF874A11046936556
:10479000D665FDF7FBFDC4F81890C4F800B04FF0E3
:1047A00001096560C4F808A0E56025616661FCF751
:1047B00069FD4FF07E53E06184F82090514CA36175
:1047C000C4F800B06560C4F808A0E56025616661C2
:1047D000FCF758FD40F246524B49E061364884F8F8
:1047E000209001F02FFF39464246394801F02AFF58
:1047F0000023464A2A481360454A136003F072F8C2
:10480000444803F06FF8444803F06CF8434803F061
:1048100069F8434803F066F8424803F063F84248F9
:1048200003F060F8414803F05DF8414803F05AF89E
:10483000404B1A782AB100241C70FEF729FA3E4B2F
:104840001C703E4B1A787AB100263D4C1E702278BF
:104850003C493D4803F0B1FA2378374FDBB23B7057
:10486000FEF716FA3E702670FCF70CFD374A384CFE
:1048700013686FE00030004000100240001001405B
:10488000D5CE0008F6CE000803CF000810CF0008F0
:1048900022CF000833CF000839CF000844CF0008EA
:1048A00059D2000855CF0008B2C600080009002000
:1048B0007B09ED409009002088070020ADC6000864
:1048C000E0FCFFFF1CC73141B80800204809002068
:1048D00030070020300600200AD7A33B000080BF2D
:1048E00000000C43A69BC43A00004040CC050020C9
:1048F000A69B443B0000DC4252491D3A9C05002027
:1049000017B7513878050020BAFAFFFF7405002068
:1049100070050020AED0000809D1000837D100088A
:104920006CD1000890D10008B4D100080FD2000863
:1049300031D200080207002003070020E006002013
:10494000E1060020E20600200407002050020020BB
:1049500040000020C31A312B4AD910604FF40041A7
:104960009E48FCF7DFFD002840F0D2809C4801F013
:1049700001FF9C4801F0FEFE2378013303F007039A
:104980002370013B062B16D8DFE803F02227828F25
:104990009CA1B200944802F0A5FF944802F0A2FF47
:1049A000934802F09FFF934802F09CFF924802F068
:1049B00099FF924880E68A4E914B92481E6002F021
:1049C00091FF914802F08EFF304601F0EBFD0FE0C1
:1049D000844E8B4B8D481E60F1E78D4802F082FFBC
:1049E000B4217F4801F09AFEB4217E4801F096FE82
:1049F000FCF748FC874A06461368C31A132B2DD9C7
:104A0000106001218448FCF78DFD02218046824818
:104A1000FCF788FDDFF804A207469AF80030B8F1E9
:104A2000000F40F074817E4A002B40F0318101215B
:104A30008AF800107B4913700E60DFF8EC8198F85B
:104A40000020002F40F0CC81784B002A40F0A1815B
:104A5000012288F80020764A1F7016602378042B04
:104A600040F09382FCF70EFCDFF8C8810646D8F8C8
:104A70000070DFF8C491002F40F0EE816F4BC8F852
:104A800000006F4889F800701F6002F02BFF7CE285
:104A90006C4802F027FF6C4802F024FF6B4802F0DC
:104AA00021FF6B4802F01EFFA2E76A4802F01AFFDE
:104AB0004B4801F077FD4B4801F074FD00225D4B3F
:104AC0001A6095E7644802F00DFF6448EAE764481D
:104AD00002F008FF634802F005FF634802F002FF9E
:104AE000624802F0FFFE624802F0FCFE6148D9E72E
:104AF000614802F0F7FE614B614A1978614B6248E8
:104B0000002918BF1A46114602F084FE5F48C9E723
:104B10002378022B25D14FF480513048FCF702FD59
:104B200038B92F488668B6F5487F7FF661AFC83E32
:104B30000FE04FF400512948FCF7F4FC00287FF403
:104B400057AF44F61F63264886689E423FF650AF33
:104B5000C836314601F0DAFC3146224801F0D6FC75
:104B600046E7042BD7D0032B3FF442AF4FF48051DC
:104B70001A48FCF7D7FC80B9214E30688168B1F53E
:104B8000487F02D9C83901F0C1FC306801F089FEC4
:104B900000287FF42DAF306817E74FF400510F481D
:104BA000FCF7C0FC40B944F61F63154E30688168BD
:104BB0009942EAD8C831E6E74FF480410748FCF74C
:104BC000B1FC00287FF414AF0D4E30684178B1FA83
:104BD00081F1490901F088FCD7E700BF000C0140D2
:104BE00088070020300700207DCF0008CCCF0008C8
:104BF000DECF00081DD0000832D0000852D00008D7
:104C00003C0000205BD2000891D20008B7D2000817
:104C1000EED200084C0200200008014048020020AB
:104C200041020020440200204002002038020020FF
:104C30003C0200202C070020280700202407002029
:104C400026D7000811D3000834D3000860D3000829
:104C500088D30008BDD30008F7D300081FD400088C
:104C60003ED4000861D4000885D40008AAD4000806
:104C7000D4D4000811D5000846D5000865050020E9
:104C8000AFCE0008A5CE000869D5000890D5000871
:104C900092F80080B8F1000F7FF4CFAE40F2DB5104
:104CA000834B1B68F31A8B427FF6C7AE0123137048
:104CB000804BDFF804A2C3F80080804BDFF800923D
:104CC000C3F800807F4B504683F800807E4B83F80A
:104CD0000080FDF75BFB4846FDF758FB7B4B05204A
:104CE0001D607B4B8AF855801D607A4B89F8558092
:104CF00083F8008006232370FDF7A0FFFCF7C2FABB
:104D0000754B96301860754802F0ECFD95E6002B67
:104D10003FF493AEDFF8C89199F80080B8F1000F26
:104D200013D12378DFF8ACB1052B14D16D480D9366
:104D3000FDF744FB06220D9B8BF80080184622707D
:104D4000FDF77CFF684802F0CDFD00238AF80030B3
:104D500089F8003071E601238BF8003005232370B9
:104D6000624B83F80080624B83F80080614BC3F88C
:104D70000080FCF787FA604B1860524B022083F8E2
:104D80000080524B1D60524B1D60FDF757FF5B4882
:104D9000D9E71A78002A7FF461AE594A1268B61A28
:104DA00040F2DB5296427FF659AE01221A70454B13
:104DB0001A789AB1DFF800811F70414E424B40468D
:104DC0001F70FDF7E3FA3046FDF7E0FA4D4888F82A
:104DD000557086F8557002F085FD3FE64A48FAE7BF
:104DE000002A3FF43BAE494E3078E8B93F49384F8E
:104DF0000B78384A022BDFF8F8C0344B04D091F816
:104E000000E0BEF1030F14D1002008708CF8000000
:104E10001070062205202270FDF710FF2B4B3C4836
:104E20001D603D6002F05EFD002388F800303370A5
:104E300014E64FF0020E81F800E001218CF800002A
:104E40001170052222701F4A1D60107003203D6002
:104E5000FDF7F4FE2F48E5E799F80030C71B052B56
:104E600000F2B884DFE813F006005E00EE031904D8
:104E700041048E044FF47A61274801F047FB4FF458
:104E80007A61264801F042FB0021234801F02CFB07
:104E90000021224801F028FBB7F5FA6F75D90123EC
:104EA000002289F800301E4BC8F800601A606CE0E0
:104EB0004402002074050020300600207005002008
:104EC000CC050020D8060020D9060020F4020020DE
:104ED000F002002034000020DC060020B3D50008DA
:104EE00041020020F8D500080FD60008BA060020BD
:104EF000B9060020AC060020BC0600203CD6000805
:104F00003C02002069D6000899D60008380200202B
:104F1000BED60008EBD60008880700203007002026
:104F200024070020B44BDFF8D4A218464FF4966152
:104F3000DFF8CCB201F0EAFA40F2DC51504601F061
:104F4000E5FADBF80020AC4BB21AB2F5AF7F10D90E
:104F500059781846B1FA81F14909CBF8006001F09F
:104F6000C3FA9AF801105046B1FA81F1490901F0EB
:104F7000BBFA40F6B8339F4207D9022389F80030C4
:104F80000023C8F80060CBF800302378062B03D14B
:104F9000FEF728FEFEF72EFC2378072B42D1994B13
:104FA0001B78002B3CD0DFF86092984E99F80030C7
:104FB000914956F83320896C06EBC3035F68A2EB76
:104FC00001088E4B08F10508D3F848A0FCF75AF900
:104FD000B8F10A0FDFF838C200F20384A7EB0A0722
:104FE00005370A2F00F2FD83DCF80030C31AC72B07
:104FF00014D999F80010874B013101F0030156F8DC
:10500000312006EBC1061A607368834ECCF80000AD
:10501000824889F80010336002F0FCFBFEF7E2FDE5
:10502000FEF7E8FBFCF72EF97D4E3368C01AC7285F
:1050300040F2C180FCF726F9306000F099FE0028AC
:1050400000F0B9808022002124A802F0FBFD237823
:105050003FA8072B98BF734AA3F1050194BF52F8EC
:105060002320714A4B424B418DF80C316F4B7049F4
:1050700023921A786F4BDFF880A1002A08BF0B46F5
:1050800010216D4A02F036FC9DF80C31002B00F027
:10509000C3836A4B1F886A4B3FB287EAE770A0EB75
:1050A000E77080B21E88FBF703FE36B2814686EABF
:1050B000E670A0EBE67080B2FBF7FAFD614980462E
:1050C0004846FCF705F8002840F08E8348465D49C5
:1050D000FBF7F6FE3D905B494046FBF7F9FF0028E1
:1050E00040F0858340465749FBF7EAFE3B461021D6
:1050F000554A3E9024A802F0FDFB544A3346102145
:1051000028A802F0F7FB4D4B188800B2FBF7D0FD42
:105110004F4B1968FBF720FE494B0646188800B232
:10512000FBF7C6FD4B4B1968FBF716FE334A9AF89E
:1051300004301279134340F05D8347492CA802F0F4
:1051400026FE464B1B7803F0FF02002B00F0618324
:10515000434912F0040F434B18BF0B4612F0020FE5
:105160000CBF2D224822182100920DF1C6003E4AA4
:1051700002F0C0FBFCF786F8FBF71EF900223B4B60
:10518000FBF7BEFA3A4B3B4A1B781278002B0CBF58
:1051900070235023002A0CBF74225422CDE9000151
:1051A000CDE902321621344A0DF1DE0002F0A2FBF5
:1051B00023A800F0DFFD314E337823B13078FDF7BE
:1051C00075F9002333702E4B1A78002A5FD0002225
:1051D0001A701A4B1B881BB20D93194B1F881F4B5B
:1051E0003FB21E78FCF74EF8F6B2264BF207186075
:1051F00000F19A8348E000BF8807002030070020B4
:1052000024070020650500206405002044050020D7
:10521000400500207405002070050020B4D7000868
:10522000E802002050DF0008BEC200080C03002086
:10523000BDCE0008B9CE0008D4D70008C6060020AD
:10524000C406002000002043DAD70008E2D7000897
:1052500030060020CC050020EAD70008C206002056
:10526000C2CE0008C7CE000806D8000800408F4014
:10527000080000203A05002010D80008B8060020D9
:10528000C0060020BC060020AE48FDF797F8DFF806
:10529000B88298F80030052B20D1AC4F3B68EBB1B9
:1052A000FBF7F0FF3B68AA4EC31AB3F5FA6F40F262
:1052B000E184A84802F016FBA74801F05BFAA74872
:1052C00001F058FAA648FDF761F8A648FDF75EF828
:1052D000032388F8003000233B603360FBF7D2FFE4
:1052E000A14E3368C01AB0F5FA7F64D3FBF7CAFF4A
:1052F00030609E4E3368DB689F045CD543F63C53B8
:105300009548ADF88C30826B836C9342B8BF1346DE
:105310001946C36B9942D4BFC2EB0103C2EB03032E
:10532000C16BC3EB03238A1A93FBF2F38B4A8DF80C
:105330008E30916B936C8B42B8BF0B461F46D36B7C
:105340009F42D4BFC1EB0703C1EB0303D76BC3EB91
:105350000323791A93FBF1F312798DF88F300379D7
:1053600013445B108DF8903001F096FA23789DF885
:105370008D105C1F63426341021E18BF012242EA86
:10538000430200238DF892309DF88C308DF89120E7
:105390000B449DF88E1030460B449DF88F100B4443
:1053A0009DF890100B441A448DF893200A2308228C
:1053B00023A9FCF71DFEFBF765FF6D4C2368C01A9F
:1053C000952840F20F81FBF75DFF6A4B20601B6858
:1053D000DB68990440F10681FCF758FEB0F59A7F2E
:1053E00080F00081644CDFF89481208800B2FBF7E4
:1053F0005FFC5B4B1968FBF7AFFC0746B8F8000091
:1054000000B2FBF755FC574B1968FBF7A5FC4FF0B2
:105410007E5106463846FBF75BFE002840F0378495
:1054200038465749FBF736FE00B1554F4FF07E51D5
:105430003046FBF74DFE002840F02D8430465049A1
:10544000FBF728FE00B14E4E2488384623B20D9358
:10545000B8F800301CB2FAF7D1FF824630468B46CE
:10546000FAF7CCFF3E4A064650680F46FAF7C6FFE9
:105470003C4A804650688946FAF7C0FF324B414AA1
:1054800093F800C01278BCF1050F14BF4D234123DF
:10549000C2F34002CDE90A23CDE90801009460215E
:1054A000CDE90689CDE90467CDE902AB0D9B364A0B
:1054B00023A802F01FFA041E07DD214623A8FDF7EA
:1054C0005FFB214623A8FEF783F92A4C2368DB689B
:1054D0009A046BD5FCF7DAFDB0F59A7F66D22B4AB9
:1054E0002B4BDFF8B0C01B8811882B4A09B21088FB
:1054F0002A4A80B216882A4AB6B21788294A3FB289
:1055000012789CF800C01BB2BCF1000C18BF4FF021
:10551000010C003A18BF012242EA4C02CDE90372A5
:10552000CDE90106204A009113A8402102F0E2F9DA
:10553000292113A8FDF724FB292113A8FEF748F918
:1055400034E000BF45D8000840000020BC06002021
:10555000AC060020AFD900088807002030070020E3
:1055600030060020CC050020E4020020E0070020E7
:10557000E002002028080020C6060020C406002003
:10558000000080BFC206002003DA00089E0600204B
:10559000A0060020950600209C0600209A06002008
:1055A000980600209606002040DA00082368DB6891
:1055B0009B0417D5FCF76AFDB0F59A7F12D2BB4B5E
:1055C000BB4A1B7812782021009213A8B94A02F036
:1055D00091F90446014613A8FDF7D2FA214613A813
:1055E000FEF7F6F84AF6AA22B34BB44C1A60FBF762
:1055F00049FE2368C01AB0F5FA7F14D3FBF742FEC8
:105600002060AF4C237873B1FBF73CFEAD4B1B68B9
:10561000C01AB0F5FA5F06D900234FF4FA51AA4830
:10562000237002F0F7F8FBF72DFEA84B1B68984299
:1056300080F0358300224FF40051A548FBF778FF36
:10564000FFF7F6B84FF47A71A248DFF88CA200F0A9
:105650005DFF00219F4800F047FF504601F021F90F
:10566000012803D19AF80530012B0BD09A4801F09C
:1056700081F8A021984801F051F840F6C4119648ED
:1056800000F044FF40F6B8339F427FF67EAC032320
:1056900089F80030C8F8006077E44FF47A718D48DB
:1056A000DFF834A200F032FF01218A4800F01CFF2D
:1056B000504601F0F6F8012803D19AF80530012B85
:1056C0000BD0854801F056F8A021834801F026F858
:1056D00040F6C411804800F019FF40F6B8339F42ED
:1056E0007FF653AC0423FFF7DBBB3846FBF7DCFA4D
:1056F0007A49FBF7E5FB7A49FBF72EFBFBF718FD30
:10570000C0F51C6B0BF1040BBBF57A7F38BF4FF46F
:105710007A7BDFF8C4A159466E4800F0F7FE9AF88C
:105720000530012B05D1504601F024F8504600F019
:1057300039FF5946DFF8ACB1674800F0E7FEDBF807
:105740000030F31AB3F5FA7F16D96248CBF800603F
:105750004178B1FA81F1490900F0C6FEDBF800306A
:10576000F31AB3F57A7F07D99AF801105A48B1FABB
:1057700081F1490900F0B8FEB7F57A6F7FF605AC04
:10578000052385E7534E41F28831304600F0BEFED6
:1057900041F28831504800F0B9FE0021304600F057
:1057A000A3FE01214C4800F09FFEB7F5FA6F7FF68B
:1057B000ECAB4D4802F096F800234C4A4C4823705D
:1057C0001660C8F8003089F8003002F08BF84948BC
:1057D000FFF75BB9002389F80030C8F80030FFF705
:1057E000D4BBCCF8000019E44FF07E5072E44FF0C7
:1057F0007E507BE4FAF702FECDE902013046FAF76B
:10580000FDFD3D4ACDE9000116212CA802F072F8F9
:1058100097E42D22394BA6E42F49394B0979394EAB
:105820009AF80420002908BF1E46364924A8002AF9
:1058300018BF0B461021344A02F05CF833461021A1
:10584000324A28A802F056F89AF8043043BB0023E5
:105850003D93214B1B7933BB00233E932C4B1621E8
:105860001B682C4A20332CA802F044F82A4A18213D
:105870002A4B0DF1C60002F03DF8FBF703FD239B18
:105880000293FAF799FD0022254BFAF739FF254AD2
:10589000CDE9000116210DF1DE0002F02BF887E4BE
:1058A0004FF07C53D4E74FF07C53D6E7BA06002084
:1058B000B906002061DA000800300040DC02002058
:1058C0000C030020080300206EDA0008DC0600202C
:1058D00000100140880700203007002000007A45B2
:1058E0000080BB442407002044D700083C0000206F
:1058F00062D7000881D70008F8D70008BDCE00089D
:10590000CCCE0008D1CE00081ED8000825D800084B
:10591000380000202CD8000833D8000826050020C5
:1059200000408F4039D80008AC4A13780133DBB20D
:10593000012B13707FF6ABAC2378072B3FF4CEAC72
:10594000FBF7A0FCA64B06F0100BDFF8988218605E
:10595000BBF1000F00F08280FBF794FCD8F8003018
:10596000002B73D1C8F80000730747BF4FF0030A3C
:105970004FF004094FF0090A4FF00A09FBF782FCC7
:1059800040F6B83398427FF682AC974B1A78002ADB
:1059900067D02278052A64D0052394482370FCF749
:1059A000F5FC9348FCF7F2FC0023924A92481374EA
:1059B000924A1374924B1D60924B1D6001F092FF4E
:1059C000DFF8448298F80030002B66D0BBF1000F5E
:1059D00063D10D9ADFF834B282EAE273A3EBE2738B
:1059E0009BB2534555DC87EAE773A3EBE7739BB2A1
:1059F0004B454EDCDBF80030002B36D1FBF742FC88
:105A0000CBF80000824A1378002B67D00D9981EA09
:105A1000E173A3EBE1739BB2282B42D887EAE773CB
:105A2000A3EBE7739BB2282B3BD87A4800F039FFF1
:105A300010B1784800F09EFE774800F032FF002851
:105A40003FF425AC744800F095FE20E4D8F800300F
:105A5000C01AB0F5FA7F87D9704816E4C8F800B0CC
:105A600082E71B78002BABD111E4FBF70BFCDBF8D2
:105A70000030C01AB0F5487FC4D3694B1A78002AA9
:105A8000C0D101221A7098F80010664801F0C2FED9
:105A9000B8E70023CBF80030B4E700225B4B1A6074
:105AA000B0E74FF0000B5E4B504883F800B0574B07
:105AB00082F800B0C3F800B05B4B83F800B0FCF78D
:105AC00065FC4B48FCF762FC484B282183F855B035
:105AD000474B564883F855B001F09CFE4FF07E537B
