:020000040800F2
:100000000050002085BA0008CDBA0008AD440008B1
:10001000CDBA0008CDBA0008CDBA00080000000033
:10002000000000000000000000000000CDBA000841
:10003000CDBA000800000000CDBA0008A9440008AD
:10004000CDBA0008CDBA0008CDBA0008CDBA000874
:10005000CDBA0008CDBA0008CDBA0008CDBA000864
:10006000CDBA0008CDBA0008CDBA0008CDBA000854
:10007000CDBA0008CDBA0008CDBA0008CDBA000844
:10008000CDBA0008CDBA0008CDBA0008CDBA000834
:10009000CDBA0008CDBA0008CDBA0008CDBA000824
:1000A000CDBA0008CDBA0008CDBA0008CDBA000814
:1000B000DD400008CDBA000805410008CDBA0008AF
:1000C000CDBA0008CDBA0008CDBA0008CDBA0008F4
:1000D000CDBA00082D410008914100088542000872
:1000E000CDBA0008CDBA0008CDBA00080000000063
:1000F0000000000000000000000000000000000000
:0C01000000000000000000005FF808F1A3
:1001100010F8012B11F8013B012A28BF9A42F7D0B1
:10012000D01A7047034613F8012B002AFBD1181A86
:100130000138704781F0004102E000BF83F00043C6
:1001400030B54FEA41044FEA430594EA050F08BF72
:1001500090EA020F1FBF54EA000C55EA020C7FEA36
:10016000645C7FEA655C00F0E2804FEA5454D4EBB3
:100170005555B8BF6D420CDD2C4480EA020281EA7D
:10018000030382EA000083EA010180EA020281EAB5
:100190000303362D88BF30BD11F0004F4FEA013107
:1001A0004FF4801C4CEA113102D0404261EB410116
:1001B00013F0004F4FEA03334CEA133302D052429C
:1001C00063EB430394EA050F00F0A780A4F1010458
:1001D000D5F1200E0DDB02FA0EFC22FA05F2801892
:1001E00041F1000103FA0EF2801843FA05F3594178
:1001F0000EE0A5F120050EF1200E012A03FA0EFCF7
:1002000028BF4CF0020C43FA05F3C01851EBE37120
:1002100001F0004507D54FF0000EDCF1000C7EEB3D
:1002200000006EEB0101B1F5801F1BD3B1F5001F7B
:100230000CD349085FEA30004FEA3C0C04F101049A
:100240004FEA445212F5800F80F09A80BCF1004FC3
:1002500008BF5FEA500C50F1000041EB045141EA45
:10026000050130BD5FEA4C0C404141EB0101013C0E
:1002700028BFB1F5801FE9D291F0000F04BF0146FD
:100280000020B1FA81F308BF2033A3F10B03B3F1CF
:1002900020020CDA0C3208DD02F1140CC2F10C025F
:1002A00001FA0CF021FA02F10CE002F11402D8BFBD
:1002B000C2F1200C01FA02F120FA0CFCDCBF41EA89
:1002C0000C019040E41AA2BF01EB0451294330BD58
:1002D0006FEA04041F3C1CDA0C340EDC04F1140435
:1002E000C4F1200220FA04F001FA02F340EA03000C
:1002F00021FA04F345EA030130BDC4F10C04C4F152
:10030000200220FA02F001FA04F340EA0300294631
:1003100030BD21FA04F0294630BD94F0000F83F47B
:10032000801306BF81F480110134013D4EE77FEA5E
:10033000645C18BF7FEA655C29D094EA050F08BFAA
:1003400090EA020F05D054EA000C04BF194610468B
:1003500030BD91EA030F1EBF0021002030BD5FEACF
:10036000545C05D14000494128BF41F0004130BDF7
:1003700014F580043CBF01F5801130BD01F000454B
:1003800045F0FE4141F470014FF0000030BD7FEABE
:10039000645C1ABF194610467FEA655C1CBF0B46B9
:1003A000024650EA013406BF52EA033591EA030FD0
:1003B00041F4002130BD00BF90F0000F04BF0021C8
:1003C000704730B54FF4806404F132044FF00005FB
:1003D0004FF0000150E700BF90F0000F04BF002174
:1003E000704730B54FF4806404F1320410F00045DA
:1003F00048BF40424FF000013EE700BF42004FEAD5
:10040000E2014FEA31014FEA02701FBF12F07F4351
:1004100093F07F4F81F06051704732F07F4208BF08
:10042000704793F07F4F04BF41F40021704730B50F
:100430004FF4607401F0004521F000411CE700BF5B
:1004400050EA010208BF704730B54FF000050AE0DE
:1004500050EA010208BF704730B511F0004502D5DF
:10046000404261EB41014FF4806404F132045FEAE1
:10047000915C3FF4D8AE4FF003025FEADC0C18BF8A
:1004800003325FEADC0C18BF033202EBDC02C2F17C
:10049000200300FA03FC20FA02F001FA03FE40EA0E
:1004A0000E0021FA02F11444BDE600BF70B54FF012
:1004B000FF0C4CF4E06C1CEA11541DBF1CEA1355F0
:1004C00094EA0C0F95EA0C0F00F0DEF82C4481EA58
:1004D000030621EA4C5123EA4C5350EA013518BF78
:1004E00052EA033541F4801143F4801338D0A0FB65
:1004F00002CE4FF00005E1FB02E506F00042E0FB12
:1005000003E54FF00006E1FB03569CF0000F18BF17
:100510004EF0010EA4F1FF04B6F5007F64F54074BF
:1005200004D25FEA4E0E6D4146EB060642EAC62152
:1005300041EA55514FEAC52040EA5E504FEACE2EBF
:10054000B4F1FD0C88BFBCF5E06F1ED8BEF1004FC2
:1005500008BF5FEA500E50F1000041EB045170BD3E
:1005600006F0004646EA010140EA020081EA030182
:10057000B4EB5C04C2BFD4EB0C0541EA045170BD7E
:1005800041F480114FF0000E013C00F3AB8014F1F8
:10059000360FDEBF002001F0004170BDC4F1000441
:1005A000203C35DA0C341BDC04F11404C4F12005C2
:1005B00000FA05F320FA04F001FA05F240EA02001D
:1005C00001F0004221F0004110EBD37021FA04F653
:1005D00042EB06015EEA430E08BF20EAD37070BD0D
:1005E000C4F10C04C4F1200500FA04F320FA05F06C
:1005F00001FA04F240EA020001F0004110EBD3706E
:1006000041F100015EEA430E08BF20EAD37070BDDD
:10061000C4F1200500FA05F24EEA020E20FA04F3B6
:1006200001FA05F243EA020321FA04F001F0004165
:1006300021FA04F220EA020000EBD3705EEA430ED6
:1006400008BF20EAD37070BD94F0000F0FD101F005
:100650000046400041EB010111F4801F08BF013C3E
:10066000F7D041EA060195F0000F18BF704703F07C
:100670000046520043EB030313F4801F08BF013D03
:10068000F7D043EA0603704794EA0C0F0CEA1355BF
:1006900018BF95EA0C0F0CD050EA410618BF52EA79
:1006A0004306D1D181EA030101F000414FF000007F
:1006B00070BD50EA410606BF1046194652EA43068D
:1006C00019D094EA0C0F02D150EA013613D195EA01
:1006D0000C0F05D152EA03361CBF104619460AD149
:1006E00081EA030101F0004141F0FE4141F4700153
:1006F0004FF0000070BD41F0FE4141F4780170BD43
:1007000070B54FF0FF0C4CF4E06C1CEA11541DBFA7
:100710001CEA135594EA0C0F95EA0C0F00F0A7F8A9
:10072000A4EB050481EA030E52EA03354FEA0131D6
:1007300000F088804FEA03334FF0805545EA1313E9
:1007400043EA12634FEA022245EA111545EA1065B1
:100750004FEA00260EF000419D4208BF964244F148
:10076000FD0404F5407402D25B084FEA3202B61A67
:1007700065EB03055B084FEA32024FF480104FF43B
:10078000002CB6EB020E75EB030E22BFB61A7546AF
:1007900040EA0C005B084FEA3202B6EB020E75EB42
:1007A000030E22BFB61A754640EA5C005B084FEAAA
:1007B0003202B6EB020E75EB030E22BFB61A754677
:1007C00040EA9C005B084FEA3202B6EB020E75EB82
:1007D000030E22BFB61A754640EADC0055EA060E43
:1007E00018D04FEA051545EA16754FEA06164FEA86
:1007F000C30343EA52734FEAC2025FEA1C1CC0D132
:1008000011F4801F0BD141EA00014FF000004FF0BE
:10081000004CB6E711F4801F04BF01430020B4F17F
:10082000FD0C88BFBCF5E06F3FF6AFAEB5EB030C37
:1008300004BFB6EB020C5FEA500C50F1000041EB34
:10084000045170BD0EF0004E4EEA113114EB5C0401
:10085000C2BFD4EB0C0541EA045170BD41F48011D4
:100860004FF0000E013C90E645EA060E8DE60CEADC
:10087000135594EA0C0F08BF95EA0C0F3FF43BAFF9
:1008800094EA0C0F0AD150EA01347FF434AF95EAB0
:100890000C0F7FF425AF104619462CE795EA0C0F94
:1008A00006D152EA03353FF4FDAE1046194622E761
:1008B00050EA410618BF52EA43067FF4C5AE50EA3B
:1008C00041047FF40DAF52EA43057FF4EBAE12E72B
:1008D0004FF0FF3C06E000BF4FF0010C02E000BF0C
:1008E0004FF0010C4DF804CD4FEA410C7FEA6C5CEF
:1008F0004FEA430C18BF7FEA6C5C1BD001B050EA92
:10090000410C0CBF52EA430C91EA030F02BF90EA7C
:10091000020F0020704710F1000F91EA030F58BF3B
:10092000994208BF90422CBFD8176FEAE37040F09D
:10093000010070474FEA410C7FEA6C5C02D150EA3B
:10094000013C07D14FEA430C7FEA6C5CD6D152EAF6
:10095000033CD3D05DF8040B704700BF84461046BB
:1009600062468C461946634600E000BF01B5FFF7BA
:10097000B7FF002848BF10F1000F01BD4DF808ED8A
:10098000FFF7F4FF0CBF012000205DF808FB00BF5B
:100990004DF808EDFFF7EAFF34BF012000205DF8B5
:1009A00008FB00BF4DF808EDFFF7E0FF94BF012002
:1009B00000205DF808FB00BF4DF808EDFFF7CEFF03
:1009C00094BF012000205DF808FB00BF4DF808ED42
:1009D000FFF7C4FF34BF012000205DF808FB00BF13
:1009E0004FEA410C7FEA6C5C02D150EA013C0AD12B
:1009F0004FEA430C7FEA6C5C02D152EA033C02D11D
:100A00004FF0000070474FF0010070474FEA41027D
:100A100012F5001215D211D56FF47873B3EB625250
:100A200012D94FEAC12343F0004343EA505311F077
:100A3000004F23FA02F018BF404270474FF0000009
:100A4000704750EA013005D111F0004008BF6FF047
:100A5000004070474FF00000704700BF4A0011D2BD
:100A600012F5001211D20DD56FF47873B3EB625208
:100A70000ED44FEAC12343F0004343EA505323FA14
:100A800002F070474FF00000704750EA013002D189
:100A90004FF0FF3070474FF0000070474FEA4102BF
:100AA000B2F1E04324BFB3F5001CDCF1FE5C0DD9CC
:100AB00001F0004C4FEAC0024CEA5070B2F1004F16
:100AC00040EB830008BF20F00100704711F0804F19
:100AD00021D113F13872BCBF01F00040704741F4DE
:100AE00080114FEA5252C2F11802C2F1200C10FAE2
:100AF0000CF320FA02F018BF40F001004FEAC123C6
:100B00004FEAD32303FA0CFC40EA0C0023FA02F369
:100B10004FEA4303CCE77FEA625307D150EA01333F
:100B20001EBF4FF0FE4040F44000704701F000400F
:100B300040F0FE4040F40000704700BF80F00040ED
:100B400002E000BF81F0004142001FBF5FEA4103A5
:100B500092EA030F7FEA226C7FEA236C6AD04FEAA5
:100B60001262D2EB1363C1BFD218414048404140EA
:100B7000B8BF5B42192B88BF704710F0004F40F49C
:100B8000000020F07F4018BF404211F0004F41F4B8
:100B9000000121F07F4118BF494292EA030F3FD084
:100BA000A2F1010241FA03FC10EB0C00C3F1200397
:100BB00001FA03F100F0004302D5494260EB400026
:100BC000B0F5000F13D3B0F1807F06D340084FEA91
:100BD000310102F10102FE2A51D2B1F1004F40EB86
:100BE000C25008BF20F0010040EA030070474900EE
:100BF00040EB0000013A28BFB0F5000FEDD2B0FA8B
:100C000080FCACF1080CB2EB0C0200FA0CF0AABFAD
:100C100000EBC25052421843BCBFD040184370474B
:100C200092F0000F81F4000106BF80F40000013251
:100C3000013BB5E74FEA41037FEA226C18BF7FEA28
:100C4000236C21D092EA030F04D092F0000F08BF6A
:100C50000846704790EA010F1CBF0020704712F051
:100C60007F4F04D1400028BF40F00040704712F190
:100C700000723CBF00F50000704700F0004343F0F5
:100C8000FE4040F4000070477FEA226216BF08462B
:100C90007FEA23630146420206BF5FEA412390EAEE
:100CA000010F40F4800070474FF0000304E000BFE4
:100CB00010F0004348BF40425FEA000C08BF704795
:100CC00043F0964301464FF000001CE050EA010259
:100CD00008BF70474FF000030AE000BF50EA01026E
:100CE00008BF704711F0004302D5404261EB41015B
:100CF0005FEA010C02BF84460146002043F0B64380
:100D000008BFA3F18053A3F50003BCFA8CF2083AA4
:100D1000A3EBC25310DB01FA02FC634400FA02FCAD
:100D2000C2F12002BCF1004F20FA02F243EB0200B4
:100D300008BF20F00100704702F1200201FA02FC16
:100D4000C2F1200250EA4C0021FA02F243EB020009
:100D500008BF20EADC7070474FF0FF0C1CEAD0524D
:100D60001EBF1CEAD15392EA0C0F93EA0C0F6FD00E
:100D70001A4480EA010C400218BF5FEA41211ED0EC
:100D80004FF0006343EA501043EA5111A0FB0131D8
:100D90000CF00040B1F5000F3EBF490041EAD371AD
:100DA0005B0040EA010062F17F02FD2A1DD8B3F129
:100DB000004F40EBC25008BF20F00100704790F098
:100DC000000F0CF0004C08BF49024CEA502040EAEA
:100DD00051207F3AC2BFD2F1FF0340EAC2507047B0
:100DE00040F400004FF00003013A5DDC12F1190FEE
:100DF000DCBF00F000407047C2F10002410021FA60
:100E000002F1C2F1200200FA02FC5FEA310040F177
:100E1000000053EA4C0308BF20EADC70704792F0F0
:100E2000000F00F0004C02BF400010F4000F013A28
:100E3000F9D040EA0C0093F0000F01F0004C02BF23
:100E4000490011F4000F013BF9D041EA0C018FE792
:100E50000CEAD15392EA0C0F18BF93EA0C0F0AD098
:100E600030F0004C18BF31F0004CD8D180EA0100BE
:100E700000F00040704790F0000F17BF90F0004F57
:100E8000084691F0000F91F0004F14D092EA0C0F39
:100E900001D142020FD193EA0C0F03D14B0218BFCC
:100EA000084608D180EA010000F0004040F0FE4012
:100EB00040F40000704740F0FE4040F440007047AE
:100EC0004FF0FF0C1CEAD0521EBF1CEAD15392EA2D
:100ED0000C0F93EA0C0F69D0A2EB030280EA010C1D
:100EE00049024FEA402037D04FF0805343EA1111B6
:100EF00043EA10130CF000408B4238BF5B0042F114
:100F00007D024FF4000C8B4224BF5B1A40EA0C00B8
:100F1000B3EB510F24BFA3EB510340EA5C00B3EBEA
:100F2000910F24BFA3EB910340EA9C00B3EBD10FD8
:100F300024BFA3EBD10340EADC001B0118BF5FEA2A
:100F40001C1CE0D1FD2A3FF650AF8B4240EBC25053
:100F500008BF20F0010070470CF0004C4CEA502014
:100F60007F32C2BFD2F1FF0340EAC250704740F463
:100F700000004FF00003013A37E792F0000F00F055
:100F8000004C02BF400010F4000F013AF9D040EAD3
:100F90000C0093F0000F01F0004C02BF490011F467
:100FA000000F013BF9D041EA0C0195E70CEAD1535F
:100FB00092EA0C0F08D142027FF47DAF93EA0C0F46
:100FC0007FF470AF084676E793EA0C0F04D14B022A
:100FD0003FF44CAF08466EE730F0004C18BF31F0DC
:100FE000004CCAD130F000427FF45CAF31F00043D6
:100FF0007FF43CAF5FE700BF4FF0FF3C06E000BF6F
:101000004FF0010C02E000BF4FF0010C4DF804CD91
:101010004FEA40024FEA41037FEA226C18BF7FEAA1
:10102000236C11D001B052EA530C18BF90EA010FA3
:1010300058BFB2EB030088BFC81738BF6FEAE17032
:1010400018BF40F0010070477FEA226C02D15FEACE
:10105000402C05D17FEA236CE4D15FEA412CE1D03A
:101060005DF8040B704700BF844608466146FFE701
:101070000FB5FFF7C9FF002848BF10F1000F0FBDE3
:101080004DF808EDFFF7F4FF0CBF012000205DF8DC
:1010900008FB00BF4DF808EDFFF7EAFF34BF012061
:1010A00000205DF808FB00BF4DF808EDFFF7E0FFFA
:1010B00094BF012000205DF808FB00BF4DF808ED4B
:1010C000FFF7D2FF94BF012000205DF808FB00BFAE
:1010D0004DF808EDFFF7C8FF34BF012000205DF890
:1010E00008FB00BF4FEA4002B2F1FE4F0FD34FF0B2
:1010F0009E03B3EB12620DD94FEA002343F0004385
:1011000010F0004F23FA02F018BF404270474FF032
:101110000000704712F1610F01D1420205D110F0B9
:10112000004008BF6FF0004070474FF0000070476C
:1011300042000ED2B2F1FE4F0BD34FF09E03B3EB41
:10114000126209D44FEA002343F0004323FA02F06D
:1011500070474FF00000704712F1610F01D1420259
:1011600002D14FF0FF3070474FF00000704700BFD2
:101170000348044B834202D0034B03B11847704726
:101180001002002010020020000000000548064B5D
:101190001B1AD90F01EBA301491002D0034B03B175
:1011A00018477047100200201002002000000000C5
:1011B00010B5064C237843B9FFF7DAFF044B13B19F
:1011C0000448AFF300800123237010BD10020020FB
:1011D00000000000D0BA000808B5054B1BB1054956
:1011E0000548AFF30080BDE80840FFF7CFBF00BF60
:1011F0000000000014020020D0BA00087047000070
:1012000038B50E4B05461A784FF47A73B3FBF2F3F8
:101210000B4A1068B0FBF3F000F09CF8044658B994
:101220000F2D09D8024629464FF0FF3000F054F840
:101230002046044B1D6038BD0120FCE70000002063
:101240000C02002004000020074A08B513680320A0
:1012500043F01003136000F02DF80F20FFF7D0FFCC
:10126000FFF7CCFF002008BD00200240034A044BDA
:1012700011681B780B441360704700BF2C020020DC
:1012800000000020014B1868704700BF2C020020AE
:1012900038B50446FFF7F6FF0546631C1EBF044B36
:1012A0001B78E418FFF7EEFF431BA342FAD338BDC7
:1012B0000000002007490302CA6803F4E06322F437
:1012C000E0621204120C134343F0BF6343F4003393
:1012D000CB60704700ED00E0154B30B5DC68C4F31F
:1012E0000224C4F10703251D042B28BF0423062D67
:1012F0004FF0FF3594BF0024033C05FA03F321EAC5
:101300000303A54022EA0502A340002843EA0203A2
:10131000ACBF00F16040074A4FEA0313DBB2ABBF3A
:1013200000F5614000F00F0080F80033135430BD29
:1013300000ED00E014ED00E0002807DB0123410987
:10134000034A00F01F00834042F82130704700BF7D
:1013500000E100E00138B0F1807F0BD24FF0E023D4
:10136000F021054A586182F8231000200722986175
:101370001A6170470120704700ED00E02DE9F74F3A
:1013800000244FF00F0E2646DFF884C1614B00F1B8
:1013900004080A6832FA06F502D103B0BDE8F08FFE
:1013A000012505FA06F702EA070537EA020276D1B7
:1013B0004A68032A07D8013A022A00F28380DFE84C
:1013C00002F091969C00122A00F0948069D8112AAC
:1013D00000F08A80FF2D94BF8146C1464FEA860205
:1013E000D9F8007088BF203A0EFA02FA27EA0A07F5
:1013F00004FA02F21743C9F80070D1F8049019F00A
:10140000805F4CD0DCF8182026F0030742F0010280
:10141000CCF81820DCF8182007F1804702F0010210
:10142000019207F5803706F0030A019A4FEA8A0A0B
:10143000BA680EFA0AFB22EA0B0B374A904260D0D8
:1014400002F5806290425ED002F5806290425CD0EC
:1014500002F58062904214BF0422032202FA0AF2CB
:1014600042EA0B02BA609A6819F4801F14BF2A433B
:10147000AA439A60DA6819F4001F14BF2A43AA43EA
:10148000DA605A6819F4003F14BF2A43AA435A602D
:101490001A6819F4803F14BF2A43AA431A60013620
:1014A00077E7DFF878904A450CD014D8A9F5801971
:1014B0004A4507D009F570294A4503D0A9F5801996
:1014C0004A4587D18A68D2B1012A4FF008040CBF7F
:1014D000076147617EE7DFF848904A45F2D009F599
:1014E0008039EDE7CC6875E7CC68043472E7CC68E6
:1014F00008346FE7CC680C346CE700246AE70424F6
:1015000068E70022AAE70122A8E70222A6E700BFB7
:1015100000100240000401400008014000002210B9
:101520000000311080680840003818BF0120704763
:101530000AB1016170470904FBE7C36801EA0302CD
:1015400021EA030141EA0241016170472DE9F341BB
:10155000054638B30368DB0710D42B689F075ED4B9
:101560002B68190700F195802B685A0700F1C1809C
:10157000EB69002B40F02C81002029E0904C63683F
:1015800003F00C03042B07D0636803F00C03082B53
:101590000AD16368DE0307D523689C03DDD56B6839
:1015A000002BDAD1012013E06B68B3F5803F12D134
:1015B000236843F480332360FFF764FE0646236804
:1015C0009803CAD4FFF75EFE801B6428F7D9032076
:1015D00002B0BDE8F0819BB9236823F48033236017
:1015E000236823F480232360FFF74CFE064623681C
:1015F0009903B2D5FFF746FE801B6428F7D9E6E7CA
:10160000B3F5A02F236803D143F480232360CFE7F1
:1016100023F480332360236823F48023CBE7684CD2
:10162000636813F00C0F07D0636803F00C03082BFA
:1016300010D16368DA030DD423689B0702D52B69A8
:10164000012BAFD123686A6923F0F80343EAC20390
:10165000236085E72A695B4B6AB101221A60FFF7B4
:1016600011FE064623689F07ECD4FFF70BFE801B94
:101670000228F7D9ABE71A60FFF704FE0646236895
:1016800098077FF56DAFFFF7FDFD801B0228F6D9A7
:101690009DE7AA694A4E4B4BE2B10122C3F8802470
:1016A000FFF7F0FD0446736A9B070DD54FF4FA521D
:1016B000454B1B68B3FBF2F3019300BF019B5A1E1D
:1016C0000192002BF9D14FE7FFF7DCFD001B022848
:1016D000E9D97CE7C3F88024FFF7D4FD0446736A98
:1016E0009F077FF541AFFFF7CDFD001B0228F6D91C
:1016F0006DE7334CE369D80024D40127E36943F054
:101700008053E361E36903F080530093009B2F4E05
:101710003368D90518D5EB68012B26D1236A43F02D
:1017200001032362FFF7AEFD41F288380646236AC3
:101730009B073FD5002F3FF41BAFE36923F0805395
:10174000E36115E70027E2E7336843F48073336011
:10175000FFF798FD80463368DA05DCD4FFF792FD89
:10176000A0EB08006428F6D931E7ABB9236A41F24F
:10177000883823F001032362236A23F004032362E1
:10178000FFF780FD0646236A9807D3D5FFF77AFD59
:10179000801B4045F7D91AE7052B236A03D143F094
:1017A00004032362BAE723F001032362236A23F0D0
:1017B0000403B6E7FFF766FD801B4045B7D906E78F
:1017C00000100240000042420C0200200070004065
:1017D0002A4C626802F00C02082A3ED00022022B3A
:1017E000274B1A662CD1FFF74DFD06462368990159
:1017F00020D42B6AB3F5803F05D16268A96822F432
:1018000000320A436260696A62680B4322F4741210
:101810001343012263601A4B1A66FFF733FD054636
:1018200023689A013FF5A8AEFFF72CFD401B022864
:10183000F6D9CCE6FFF726FD801B0228D6D9C6E6EE
:10184000FFF720FD054623689B017FF595AEFFF766
:1018500019FD401B0228F6D9B9E6012B3FF4A2AED0
:1018600060682B6A00F480329A427FF49BAE6B6A08
:1018700000F47010C01A18BF0120A9E60010024041
:10188000000042420D4A536803F00C01082912D1AE
:101890000B48C3F38341DB03405C09D55368094A15
:1018A000C3F340435043084AD35CB0FBF3F07047A6
:1018B000064B584370470348704700BF0010024072
:1018C000F6BA000800127A00F4BA000800093D00D8
:1018D0002DE9F0410D46044610B90120BDE8F08124
:1018E000444A136803F007038B4228D321688E070C
:1018F00030D4CA0743D43F4A136803F00703AB420E
:1019000065D822683C4D12F0040F6CD1130706D540
:101910006B68226923F4605343EAC2036B60FFF7EC
:10192000B1FF6B68354AC3F30313D35CD840344B23
:101930001860344B1868FFF763FC0020CEE713688B
:1019400023F007030B431360136803F007038B4274
:10195000C3D1CBE7284B11F0040F1EBF5A6842F4E5
:10196000E0625A60080742BF5A6842F460525A6007
:101970005A68A06822F0F00202435A60B9E7626830
:101980001D4E012A33681AD113F4003FA5D07368A5
:1019900041F2883823F0030313437360FFF772FCAE
:1019A00007467368626803F00C03B3EB820FA2D0A2
:1019B000FFF768FCC01B4045F3D903208EE7022ADD
:1019C00002D113F0007FE1E713F0020FDEE71368A6
:1019D00023F007032B431360136803F00703AB42A4
:1019E0007FF47BAF8DE76B68E16823F4E0630B4322
:1019F0006B608BE7002002400010024048E30008C3
:101A00000C02002004000020044B054A5B68C3F36D
:101A10000223D35C034A1068D8407047001002408C
:101A200040E300080C020020044B054A5B68C3F346
:101A3000C223D35C034A1068D840704700100240AC
:101A400040E300080C020020036A026A70B522F02D
:101A500001020262446882690D6822F073022A431F
:101A60008D6823F002032B430A4DA8420BD1CD68A9
:101A700023F008032B4324F44074D1E90556354381
:101A800023F004032C43446082614A68426303628A
:101A900070BD00BF002C0140036A026A70B522F4D9
:101AA000807202624468C2690D6822F073022A43A0
:101AB0008D6823F4007343EA05230B4DA8420DD132
:101AC000CD6823F4006343EA052324F44054D1E9AC
:101AD0000556354323F4806344EA05144460C2612B
:101AE0004A68C263036270BD002C0140036A026A47
:101AF00030B522F4805202624468C2690D6822F453
:101B0000E64242EA05228D6823F4005343EA053396
:101B1000064DA84202BF4D6924F4804444EA85146E
:101B20004460C2614A680264036230BD002C014017
:101B30007047000090F83D30012B1CD102230F4A62
:101B400080F83D30036893420AD0B3F1804F07D04C
:101B5000A2F59432934203D002F58062934204D1FD
:101B60009A6802F00702062A03D01A6842F00102BE
:101B70001A60002070470120704700BF002C014010
:101B800070470000174A036890420AD0B0F1804FB6
:101B900007D0A2F59432904203D002F580629042C1
:101BA00007D14A6823F070031343CA6823F44073D3
:101BB00013434A6923F08003134303608B68C362B5
:101BC0000B688362074B984204BF0B6903630123D0
:101BD00043610369DB0742BF036923F0010303612B
:101BE000704700BF002C014010B5044630B390F898
:101BF0003D3003F0FF021BB980F83C20FFF798FF4F
:101C00000223206884F83D30211DFFF7BBFF01232C
:101C1000002084F8463084F83E3084F83F3084F861
:101C2000403084F8413084F8423084F8433084F8FE
:101C3000443084F8453084F83D3010BD0120FCE785
:101C400010B5044630B390F83D3003F0FF021BB9E5
:101C500080F83C20FFF794FF0223206884F83D3091
:101C6000211DFFF78FFF0123002084F8463084F800
:101C70003E3084F83F3084F8403084F8413084F8B6
:101C8000423084F8433084F8443084F8453084F896
:101C90003D3010BD0120FCE7036A026A70B522F0F6
:101CA00010020262446882690D6822F4E64242EA48
:101CB00005228D6823F0200343EA05130B4DA8424B
:101CC0000DD1CD6823F0800343EA051324F440646A
:101CD000D1E90556354323F0400344EA85044460C6
:101CE00082614A688263036270BD00BF002C0140BC
:101CF00038B590F83C300446012B4FD00120082A1B
:101D000084F83C003AD006D8BAB1042A26D0002381
:101D100084F83C3038BD0C2AF9D12068FFF7E6FE84
:101D2000C3690A6943F40063C361C36923F4806330
:101D3000C361C36943EA02232EE02068FFF784FEF3
:101D400083690A6943F008038361836923F004030C
:101D500083618369134383610020D8E72068FFF71C
:101D60009BFF83690A6943F400638361836923F4F9
:101D700080638361836943EA0223ECE72068FFF70D
:101D80008BFEC3690A6943F00803C361C36923F08A
:101D90000403C361C3691343C361DDE70220B9E7EC
:101DA00010B50124036A01F01F018C4023EA0403EB
:101DB0000362036A8A401A43026210BD08B529B95A
:101DC00090F83E30012B1DD001202EE0042907D1D0
:101DD00090F83F30012BF7D1022380F83F3014E018
:101DE000082907D190F84030012BEDD1022380F86B
:101DF00040300AE090F84130012BE5D1022380F811
:101E0000413002E0022380F83E3000680122FFF7F3
:101E1000C7FF0F4B984209D0B0F1804F0BD18368B8
:101E200003F00703062B0DD1002008BD436C43F4DB
:101E300000434364F3E7074B9842F0D003F5806317
:101E40009842ECD0036843F001030360ECE700BF65
:101E5000002C014000040040FFF7B0BF026802F10F
:101E60000C0353E8003F23F490730C3242E8003136
:101E700002680029F2D102F1140353E8003F23F075
:101E8000010302F1140C4CE800310029F3D1036B7B
:101E9000012B0BD102F10C0353E8003F23F0100398
:101EA00002F10C0C4CE800310029F3D1202380F81A
:101EB000423000230363704710B504460368C168CD
:101EC0001A6922F440520A431A6182680069D9688B
:101ED0000243606921F4B05121F00C0102430A432E
:101EE000DA605A69A16922F440720A435A610E4AC3
:101EF000934215D1FFF798FD192343436268206888
:101F00009200B3FBF2F36422B3FBF2F102FB113354
:101F10001B013233B3FBF2F303EB0113836010BDFB
:101F2000FFF772FDE8E700BF00380140F7B505464E
:101F30000C4617461E462A68136834EA030301D18B
:101F4000002021E0701CF7D0FFF79CF9C01B8642EF
:101F50001CD3DEB12B68DA685107ECD5802CEAD0AF
:101F6000402CE8D01A681207E5D5002401941A68BD
:101F7000284601925B680193019BFFF76FFF0823DE
:101F800001206B6485F8404003B0F0BD0320FBE7FF
:101F9000704710B5044648B390F8413003F0FF0293
:101FA0001BB980F84020FFF7F3FF2423226884F850
:101FB0004130D368204623F40053D360FFF77CFF01
:101FC000236800201A6922F490421A615A6922F0AB
:101FD0002A025A61DA6842F40052DA60202360640F
:101FE00084F8413084F84230606310BD0120FCE782
:101FF0002DE9F843984690F841300446202B0E46D0
:1020000017463FD100293FD0002A3DD0212300258B
:10201000456480F84130FFF735F9A3688146B3F590
:10202000805FA784E78403D123690BB935461E4638
:10203000E38C9BB253B943464A4640212046FFF702
:1020400075FF202350B984F841300AE043464A46E0
:1020500080212046FFF76AFF28B12023032084F85F
:102060004130BDE8F88322684EB935F8023BC3F32E
:1020700008035360E18C013989B2E184D8E716F88E
:10208000013BF6E70220ECE70120EAE7064B18885F
:10209000064B80B21B889BB2984238BF00F5007097
:1020A000C01A80B2704700BF100300200E0300204A
:1020B00008B5344805F0EAFB334805F0E7FB334840
:1020C00005F0E4FB324805F0E1FB324805F0DEFBA9
:1020D000314805F0DBFB314805F0D8FB304805F00E
:1020E000D5FB304805F0D2FB294805F0CFFB2E4840
:1020F00005F0CCFB2D4805F0C9FB2D4805F0C6FBCB
:102100002C4805F0C3FB224805F0C0FB2A4805F027
:10211000BDFB2A4805F0BAFB294805F0B7FB294862
:1021200005F0B4FB284805F0B1FB194805F0AEFBFB
:10213000264805F0ABFB264805F0A8FB254805F02E
:10214000A5FB254805F0A2FB114805F09FFB23489D
:1021500005F09CFB224805F099FB224805F096FB10
:10216000214805F093FB214805F090FB204805F03D
:102170008DFB204805F08AFBBDE80840014805F0CA
:1021800085BB00BF00D2000806BB00088EBB00085C
:10219000CABB000852BC000888BC0008C3BC0008C9
:1021A000FFBC00083ABD000876BD0008ACBD0008C1
:1021B000E8BD000827BE000867BE00089DBE0008F5
:1021C000DBBE000818BF000859BF00089DBF00080B
:1021D000D4BF00080FC0000849C000087CC0000838
:1021E000B2C00008EDC0000829C1000866C100089F
:1021F000A2C10008DEC100082DE9F0434D4B85B0B7
:10220000986CFEF755FD4C49FEF7A6FD4B49FEF7CD
:1022100057FE4B4B8046986CFEF74AFD4649FEF749
:102220009BFD4649FEF74CFE464B04461868FEF7F8
:102230003FFD4149FEF790FD4049FEF741FE424B0C
:1022400005461868FEF734FD3B49FEF785FD3B491E
:10225000FEF736FE3D4B06461B783D48033BDBB29E
:10226000042B96BF3B4A3C4F52F8237005F00EFBFF
:102270003A4805F00BFB3A4805F008FB394805F0F1
:1022800005FB4046FEF7BAF8804628468946FEF729
:10229000B5F842464B46CDE90001334805F08EFAC9
:1022A0002046FEF7ABF8044630460D46FEF7A6F88A
:1022B00022462B46CDE900012C4805F07FFA2C4E32
:1022C0002C4805F0E3FA39462B4805F077FA3068D8
:1022D000FEF794F80446B0680D46FEF78FF8CDE996
:1022E00002017068FEF78AF8244E22462B46CDE99B
:1022F0000001234805F062FA3068FEF77FF80446D3
:10230000B0680D46FEF77AF8CDE902017068FEF775
:1023100075F82246CDE900012B461A4805F04EFA21
:10232000194805F0B3FA0A4805B0BDE8F04305F0D6
:10233000ADBA00BF880700200000B443000061452B
:1023400030070020740500207005002040000020A8
:1023500000D20008E4DE000866C200086AC2000875
:10236000C8C20008FCC200085AC3000889C300089C
:102370009C050020B8C3000816C40008780500209A
:1023800034C4000862C4000890C40008002310B5DB
:1023900003638364C36403640446FEF773FF01238D
:1023A000A4F85430206510BD002310B5C36003614C
:1023B0000446FEF767FFE06110BD000030B504463B
:1023C00085B0264804F041FA10B1244804F0A6F97B
:1023D000234804F03AFA10B1214804F09FF921484B
:1023E000FFF7D4FF2048FFF7D1FF00231D4A1F4904
:1023F00082F855301C4A82F8553000220A601C4988
:102400000A601C4A13741C4A13741C4A13701C4A39
:1024100013701C4A13601C4A13601C4A1370FEF7A9
:1024200031FF1B4A1368C31AB3F57A7F13D9194BCE
:10243000106019491A681948194B1A4D1B68098808
:1024400000882D7809B200B2CDE901050091164847
:10245000214605F0B3F905B030BD00BF8807002064
:102460003007002030060020CC050020FC020020B0
:10247000F8020020200000200C000020EC020020C8
:10248000D8060020B4060020B0060020B9060020BF
:10249000D4020020A4060020C6060020C4060020A6
:1024A000A8060020C2060020F1C400080138C0B20E
:1024B0000428F8B532D8244B53F82070234B1E5C07
:1024C000234B1D5C0024234B23481E70234B1C70A0
:1024D000234B1C60234B1C70234B1C70FFF756FFD3
:1024E0002248FFF753FF1C4B214A83F855401F4BEE
:1024F00083F85540002313601E4A13601E4A1F4B89
:1025000085B11F48FFF75AFF1B4A1C4B1470062267
:102510001A701C48BDE8F84005F0B8B900251A4FFC
:102520002E46CFE70121117005221A70174B1D604E
:10253000FEF7A8FE164B324618603946BDE8F84053
:10254000144805F03BB900BFD0DE0008C8DE000823
:10255000C3DE0008BA06002030060020B9060020BD
:10256000B0060020D8060020D9060020CC050020A7
:10257000F4020020F002002034000020400000207F
:1025800048C500085BC5000844C50008AC0600202B
:10259000BC060020A8C500082DE9F04F93B01F46E7
:1025A0009DF870300D920F931D9B82460E931E9BDB
:1025B0000D460B93209BBDF97C800C93219B1093BF
:1025C00082EAE273A3EBE2739BB2B3F5C87F0A938E
:1025D00082BF00230A930D931F4B1A78022A02D060
:1025E0001B78032B23D1002385F8553001231B4989
:1025F0001B4A09931B4B8A4508BF1A460A9B08923F
:1026000098453EDB099B002B3BD1504604F01DF959
:1026100010B1504604F082F82846FFF7B7FE0023B9
:102620003B7400230B9A1360089A1360E7E191F85A
:102630005530002BDBD00A9A08F10C031BB29342F1
:1026400012DB04F002F9002800F04782504613B074
:10265000BDE8F04F04F062B8BA06002088070020F9
:10266000F0020020F40200200024084681F85540C2
:10267000FFF78CFE9E4B09949A4540F036819D4BA6
:1026800008930D98FEF714FB3B7C81464FF07E5B70
:10269000002B40F0498101233860C7F804B03B7437
:1026A000FEF7F0FD0646286D301AFEF7FDFA924956
:1026B000FEF706FC91490446FEF7ECFC002840F0CA
:1026C00058814FF07E512046FEF702FD08B14FF0D1
:1026D0007E5429682E654846FEF73EFB0646A96CE7
:1026E0004846FEF72FFA2146FEF7EAFBA968C5F82F
:1026F0004890FEF731FB3146FEF726FA2C6E06466F
:102700002146FEF7E5FC00B12646EC6D3046214639
:10271000FEF7C0FC00B126464FF07E513046FEF772
:10272000D7FC002840F0278130467549FEF7B2FCFF
:1027300000B1734E0F9B0BB106F100464046FEF709
:10274000B7FA6C6880462146FEF7B8FC28B14FF016
:102750007E514046FEF7F8F90446099B03B1694CE7
:1027600000214846FEF7B4FC002840F0078109F13B
:1027700000404146FEF7E6F9414683462046FEF713
:10278000E1F901465846FEF79BFB00218046FEF723
:1027900081FC4FF0000B002840F0F2804FF07E519A
:1027A0004046FEF795FC08B14FF07E5800213046B8
:1027B000FEF784FC002840F0E58006F10044214645
:1027C0004046FEF767FC002800F0DE804046109986
:1027D000FEF7C2FA00210446FEF75CFC00B10024BB
:1027E00000213046FEF76AFC08B904F10044099B59
:1027F000002B00F0E880444B1B78002B00F0C680D3
:10280000424E0A9B0021182B204698BF404EFEF7EF
:1028100055FC002840F0BC80304604F10041FEF732
:1028200057FC002840F0C680089B00211E683046F7
:10283000FEF726FC68B930463649FEF78DFA364970
:1028400006462046FEF788FA01463046FEF77CF938
:102850000446089B002120461C60FEF72FFC002840
:1028600040F0D38004F10043099300212046FEF795
:1028700025FCB0FA80F6504603F0E9FF00210A90EB
:102880002046FEF71BFC76090A9A0C9B002800F0F4
:10289000BE80934208DD531C0C9949429142C0F21C
:1028A000BA80002E00F0BE80504603F0CEFF10B17B
:1028B000504603F033FF2846FFF768FD00233B74C2
:1028C0000B9BC3F800B0089BC3F800B0134B1A78F9
:1028D000002A40F0028101220E991A7010480C9AC9
:1028E00013B0BDE8F04F04F069BF0E4BC8E600BF5F
:1028F00088070020F402002000007A446F12833A17
:10290000000080BF00247449C1060020AE47213E6C
:102910008FC2F53C9A99193FCDCCCC3E32020020B3
:10292000E5C50008F0020020B9687868FEF70CF9E8
:10293000F9680446FEF708F901462046FEF7C0FA9A
:1029400006463B68484619461193FEF7FBF83146A8
:10295000FEF702FA119B1946FEF7F6F83146386089
:1029600081465846FEF7EEF82146FEF7F5F9786005
:1029700096E66C4CADE64FF07E56DBE64846F8E650
:10298000D84613E734461AE7204620E7664E38E774
:1029900021463046FEF79CFB00283FF445AF00215E
:1029A0002046FEF795FB58B9089B00211868FEF7F2
:1029B00085FB28B95D493046FEF7CEF9044633E77A
:1029C0004FF07E51F7E700212046FEF777FBD0B9A4
:1029D00004F100405649FEF75DFB00283FF424AFA8
:1029E000504603F032FF10B1504603F097FE2846E0
:1029F000FFF7CCFC00233B740B9BC3F800B0012312
:102A000085F8553069E02046E4E709942DE79342C4
:102A100008DD531E40E70C9A93423FF745AF9942B9
:102A20003FF742AF0B9B434909981C68FEF794F9A6
:102A3000FEF77EFB44F62063181A984228BF18461A
:102A4000B0F5487F38BF4FF44870FEF72DF90021EC
:102A500005462046FEF714FB78B94FF07C5120461E
:102A6000FEF77AF94FF07C5104462846FEF774F9D8
:102A700001462046FEF768F805460B9B4FF07C5157
:102A80001D602846FEF760F8FEF752FB44F620630F
:102A9000984228BF18463146B0F5487F83465046D5
:102AA00038BF4FF4487B03F0F3FC504603F0CDFEF3
:102AB000012802D0504603F049FD5946504603F024
:102AC0001BFD1D4A1D49BAEB020218BF01228B5C97
:102AD0000133DBB2042B03D88B5413B0BDE8F08F65
:102AE000002348468B54FDF789FC044609980D469F
:102AF000FDF784FC064640460F46FDF77FFC804606
:102B00005046894603F0A3FEDDE90D21CDE906B06C
:102B1000CDE90489CDE90267CDE90045084804F014
:102B20004DFEDAE76F12833A6666E63E000080BF2C
:102B30008FC2753C000096468807002030020020B6
:102B400013C60008F0B51E4E3368DB689B0436D50B
:102B500072B61C4D1C4B1D4F01442A881C88013243
:102B6000A4B2C2F30802A24208BF1C8810F801CB2D
:102B700002BF0134C4F308041C802C888842A4B22C
:102B800007F804C02A80E8D162B611480278B2B9C9
:102B900029881A8889B292B2914210D0012202701B
:102BA0001A8892B2B95C1A88C9B20132C2F308021B
:102BB0001A8033685960DA6842F08002DA60F0BD4A
:102BC00028080020100300200E030020120300201C
:102BD0000D0300200FB407B504AB53F8042B80217C
:102BE0000648019304F052FF011E02DD0348FFF77F
:102BF000A9FF03B05DF804EB04B070475402002055
:102C00001FB503460D480268D268920413D58DF8AB
:102C1000063000238DF807304FF0807343F63C42B6
:102C200002930123ADF804208DF80C3009221423FF
:102C300001A9FFF7DDF905B05DF804FBE00700200E
:102C400010B50446FFF7DCFF2046BDE81040FFF753
:102C50002DBC00000021F0B5934B944D1A78944B95
:102C6000D2B289B0995418781C46A0F10A02D2B2A7
:102C7000162A194603F1010362D825FA02F2D20797
:102C8000F1D48C4A601E133110F8013F0BB1884219
:102C90005AD1002388498948137005F04CF82578EB
:102CA000782D7DD059D8592D00F0A5805A2D58D0B7
:102CB000582D75D003222046814904F09FFF38B17A
:102CC000032220467F4904F099FF002840F0D1807C
:102CD00000238DF8173006930023079307AB00936A
:102CE000794906AB0DF11702E01C04F02FFE032812
:102CF00040F0BA809DF81730744943F02003742BDC
:102D000006A807BF724C734D734C744DFDF700FA63
:102D1000002840F09780079B23600622704B1A70B2
:102D2000FEF7B0FA6F4B963018600798FDF766FB18
:102D3000CDE9000129466C4806AAFFF74BFF01E0E8
:102D400000289ED109B0F0BDA3F16105192D9CBFEB
:102D5000203BDBB202F8013B96E7792D4BD07A2D70
:102D6000A8D1624803F050FC614803F04DFC0023F9
:102D7000604A59481360604A1360FFF715FB5448D6
:102D8000FFF712FB0622564B1A70FEF77BFA554BE3
:102D900096301860594809B0BDE8F040FFF71ABFF7
:102DA0000023574907AA601C079304F0CFFD0128B0
:102DB0001DD154490798FDF7CFFF5349FEF780F81E
:102DC000FEF790F90622464B4A4C1A702060FEF737
:102DD00059FA444B963018600798FDF70FFB0B46E5
:102DE0002168024649480091FFF7F4FEAAE74848E7
:102DF000FFF7F0FEA6E70023414907AA601C0793EE
:102E000004F0A4FD01281BD13E490798FDF7A4FF5B
:102E10003D49FEF755F8FEF765F90622304B364C72
:102E20001A702060FEF72EFA2E4B96301860079825
:102E3000FDF7E4FA0B462168024600913548D3E7D6
:102E40003548D5E7354906A8FDF762F910B9079B63
:102E5000636062E7324906A8FDF75AF9002840F09E
:102E6000FB83079BA36058E72E48FFF7B3FE2E486D
:102E7000BEE705F0DF034B2B09D10522184B1A7072
:102E8000FEF700FA174B96301860284883E74D2B61
:102E900050D10622124B1A70FEF7F4F9114B9630FE
:102EA0001860234877E700BF0307002009004000AF
:102EB000040700202605002079C60008120500201E
:102EC00046C700084AC700084EC7000859C700088F
:102ED0007805002054C600089C05002059C600084B
:102EE00040000020DC0600208BC700088807002077
:102EF0003007002074050020700500201BC7000863
:102F000056C70008000061450000B4437CC60008B5
:102F10009FC60008CBC60008EFC600085CC70008C3
:102F20005FC70008AEC70008D9C70008F1C700088E
:102F30001AC8000808222046A14904F05FFE30B1FB
:102F4000082220469F4904F059FE002834D100236E
:102F50009D498DF81830079306AA07AB04F10800C5
:102F600004F0F4FC022821D19DF8183043F020032E
:102F7000702B15D1954B079A1A60FEF783F9944B85
:102F8000963018609DF818309248934943F020031A
:102F9000702B18BF0146079A9048FFF71BFED1E639
:102FA000742B01D18E4BE6E78E4821E78C4B8E487F
:102FB0001A68864B1968F0E7052220468B4904F011
:102FC0001DFE30B105222046894904F017FE002875
:102FD00044D14FF49673874907AA601D079304F004
:102FE000B5FC079D844BB5F5006FA8BF4FF4006595
:102FF000322DB8BF32259A6C804B814C9B6C511B93
:10300000581B2B44C4E90531E36100232A44C4E979
:103010000220226101227B4E216033707A4B606076
:103020001A70FEF72FF90722784B1860784B794811
:103030001A702268784B1A606268784B1A60FFF742
:10304000B3F97748FFF7B0F929463278754804F0AC
:10305000B5FB07997448FFF7BDFD73E604222046CF
:10306000724904F0CBFD28B104222046704904F0D7
:10307000C5FD80B90022644B5F481A7003F04EFB17
:103080005E4803F04BFB0622614B05201A70FFF7E8
:10309000B7FD68487FE604222046674904F0AEFD8C
:1030A00028B104222046654904F0A8FD20B909B0E2
:1030B000BDE8F040FEF7FCBF06222046604904F060
:1030C0009DFD28B1062220465E4904F097FD20B9F7
:1030D00009B0BDE8F040FFF78FB8042220465A49F6
:1030E00004F08CFD28B104222046584904F086FDE6
:1030F00070B90023484A1360484A13600622444BC3
:103100001A70FEF7BFF8324B96301860504842E60E
:10311000042220464F4904F071FD28B104222046C4
:103120004D4904F06BFD48BB043425462B7801342F
:10313000202BFAD002222846484904F05FFD28B12E
:1031400002222846464904F059FD20B90122454B88
:1031500045481A701FE603222846444904F04EFDF4
:1031600028B103222846424904F048FD20B9002234
:103170003C4B40481A700EE63F480CE603222046BE
:103180003E4904F03BFD20B90120FFF759FD3C48C2
:1031900001E6082220463B4904F030FD20B9022018
:1031A000FFF74EFD3848F6E506222046374904F081
:1031B00025FD00286ED10320FFF742FD3448EAE5E3
:1031C0003DC8000846C800084FC80008C8050020D0
:1031D000DC06002054C6000859C6000871C8000863
:1031E000C405002056C800088EC80008ACC80008F6
:1031F000B2C8000853C80008880700203007002024
:1032000044050020640500206505002040050020DD
:10321000400000209C05002074050020700500205F
:1032200078050020B8C80008ECC800080FC90008DD
:1032300014C9000819C9000827C900082CC90008CA
:1032400031C9000838C900083FC9000844C900084E
:1032500049C9000868C900086DC9000872C900089A
:1032600075C900080403002078C900089BC900083C
:103270009FC90008A3C90008BAC90008DCC9000832
:10328000E0C900080ACA000813CA000841CA0008B9
:1032900048CA000805222046934904F0AFFC20B933
:1032A0000420FFF7CDFC914875E5914E3378052B4E
:1032B0001AD1542D10D8402D0AD82B2D01D02D2DE8
:1032C00012D18C498C4809B0BDE8F040FFF782BCB0
:1032D000413D8A4BEDB204E0613DEDB2162D03D8BD
:1032E000874BEB40DB07ECD403233370FDF7CAFFB9
:1032F000844B9630186000224FF400518248FEF74C
:1033000017F97C498148FFF765FC2578A5F13F0353
:10331000362B00F2A781DFE813F0E400A50194004A
:10332000A5018800A800A5017A0031018100C10033
:10333000A501A501A501A501A501A5013C00A501C7
:10334000A501A0007500CD00A501A501A501A5015D
:10335000A501A501A501A501A501A501A50194004F
:10336000A5018800A800A5017A0031018100B500FF
:10337000A501A501A501A501A501A5013700A5018C
:10338000A501A0007500CD00614B624A62481A6039
:1033900001E5624C2068FDF731F80646A0680F464B
:1033A000FDF72CF8CDE902016068FDF727F83246F9
:1033B0003B46CDE900015A48FFF70CFC594B5A4CEB
:1033C0001A7803215948FFF705FC2068FDF716F825
:1033D0000646A0680F46FDF711F8CDE902016068C6
:1033E000FDF70CF83246CDE900013B465048FFF7A7
:1033F000F1FB04214F4B4D481A7809B0BDE8F0406D
:10340000FFF7E8BB424B4C4A4C481A60C3E4404BC0
:103410000021186803F034F84948BCE43C4B012112
:10342000186803F02DF84748B5E4394C00212068AE
:1034300003F02EF8206803F089F821684248203113
:1034400041E7334C0121206803F022F8206803F0A3
:103450007DF821683D48203135E72D4C206803F088
:103460005DF921683A4820312DE72A4803F06EF8CB
:10347000314803F06BF8042300223370354B364893
:103480001A6088E4274A3548137883F001011170E7
:103490003349344A012B08BF114614E7254A324804
:1034A000137883F0010111702D492E4A012B08BFBA
:1034B000114608E72D4B1A788AB100241C702C4B5A
:1034C00016481C70FEF762FF1748FEF75FFF134BAC
:1034D000284883F85540144B83F855405BE4264850
:1034E00059E4FEF7E5FDF3E57CCA000882CA00084E
:1034F0004000002004070020BACA0008AD800C007C
:10350000AD804E00DC06002000100140E0CA00083B
:103510003800002088070020E9CA00083006002093
:103520000FCB000808000020CC05002034CB000899
:103530004DCB00083A0500203007002072CB000870
:1035400099CB0008B9CB0008D6CB0008F2CB000815
:103550000FCC00082C07002020CC00083FCC00082E
:103560005DC600086CC600085ACC0008D8060020CA
:10357000D906002076CC00089ECC00080023002647
:103580008DF81730069307AB0093694906AB0DF130
:103590001702601C079604F0D9F903285FD19DF843
:1035A0001750644C644B45F02005644906A8742DFF
:1035B00008BF1C46FCF7ACFDF8B9079F604E3846C3
:1035C0003146FDF767FD08B1079606E05D4E3846C7
:1035D0003146FDF77DFD0028F6D1079820605A4B53
:1035E0005A4C742D08BF1C46FCF708FF06AACDE90B
:1035F000000121465648FFF7A0BB564906A8FCF734
:1036000087FD90B9079F544E38463146FDF742FD7D
:1036100008B1079606E0514E38463146FDF758FD91
:103620000028F6D107986060D9E74D4906A8FCF755
:103630006FFD88B9079F31463846FDF72BFD08B16D
:10364000079606E0474E38463146FDF741FD002813
:10365000F6D10798A060C2E7434806A9FBE44348B7
:10366000FFF7C6BB601C03F0F4F8562D06464CD09D
:1036700010D82D2D2FD0522D12D02B2D1DD02178CA
:103680003B48FFF7A7FA3B493B4809B0BDE8F0408B
:1036900004F051BB762D38D0772D2AD0722DEED183
:1036A0003046FDF705FB354C0146206802F0CCFFA3
:1036B00021683246324820319FE6304D002128688B
:1036C00002F0E6FE3146286802F0B0FF2968324673
:1036D0002C48203191E6294D0121286802F0D8FEBE
:1036E0003146286802F0A2FF296832462648203178
:1036F00083E6224D0146286802F0E4FF296806EBC4
:10370000D67622487210203177E644F620639E4236
:1037100028BF1E46B6F5487F38BF4FF44876174B92
:103720003146186802F0C6FE31461948CBE500BFA5
:103730004FC7000830060020CC05002059C70008FC
:103740006F12833ACDCC4C3D54C6000859C60008D0
:10375000B8CC00085CC700080000204100001643F8
:103760005FC700080AD7233C62C70008ECCC0008FA
:10377000A0CD0008D4CD000812050020380000209C
:1037800047CD000815CD00082ECD00085ECD0008FD
:1037900077CD000810B4044606480368DB689B0434
:1037A00005D58AB20A23214610BCFEF721BC10BC05
:1037B000704700BF70080020F0B5394BAFB01B78E0
:1037C000002B6AD0FDF75EFD364C2368C01A6328D3
:1037D00063D9FDF757FD344B20609C6C334B9E6CD6
:1037E000334B1D68334B1F68334B1868FCF706FEDC
:1037F000CDE90E01B81BFDF75BFAFCF7FFFDCDE943
:103800000C013846FDF754FA2C49FDF7A5FA2C496E
:10381000FDF756FBFCF7F2FDCDE90A013046FDF756
:1038200047FA2649FDF798FA2549FDF749FBFCF7C9
:10383000E5FDCDE90801234B1868FCF7DFFDCDE974
:103840000601281BFDF734FAFCF7D8FDCDE9040189
:103850002846FDF72DFA1949FDF77EFA1849FDF7BC
:103860002FFBFCF7CBFDCDE902012046FDF720FA46
:103870001249FDF771FA1249FDF722FBFCF7BEFD74
:10388000114ACDE90001782110A804F007F80A23B5
:1038900082B210A90D48FEF7ABFB2FB0F0BD00BF00
:1038A00004030020000300208807002030070020C8
:1038B0007405002070050020680500200000B44356
:1038C000000061456C050020D8CD0008700800207C
:1038D00030B50446002002460A4D082115F8013B88
:1038E000584043B2002BBABF5B0083F0070343008C
:1038F000D8B24B1E13F0FF01F3D10132D2B2A24273
:10390000EBD130BDCB0600202DE9F74F40F6B83B98
:103910001E46836C1446A2EB030A8AEAEA72A2EB03
:10392000EA725A45884605460C9F0D99DFF8509279
:1039300040F3FD80D9F80020002A40F0E180FDF737
:10394000A1FCC9F80000284602F07FFF002840F0E3
:1039500006812146284602F019FEFDF793FC044635
:10396000D8F81C00201AFDF79FF98649FDF7F4F9F5
:1039700084498146FDF78EFB002840F0F2804FF02D
:103980007E514846FDF7A4FB08B14FF07E595046E2
:10399000FDF78EF94946C8F81C408246FDF7DCF970
:1039A000D8F81010FDF7D0F877490446FDF790FBE2
:1039B00000B1754C20467549FDF76CFB00B1734CA6
:1039C000D8F80C105046C8F81040FDF7BBF849462F
:1039D000FDF776FAD8F800108146C8F80CA05046DA
:1039E000FDF7BAF9D8F8041082462046FDF7B4F97D
:1039F00001465046FDF7A8F8D8F808100446484696
:103A0000FDF7AAF901462046FDF79EF8D8F8189070
:103A100004464946FDF75CFB00B14C46D8F81480DB
:103A200020464146FDF736FB00B144464FF07E513B
:103A30002046FDF74DFB002840F09A80204654496F
:103A4000FDF728FB002840F08F8000212046FDF77D
:103A50003FFB002800F0898039462046FDF77CF9BD
:103A600000210446FDF716FB002840F086804FF049
:103A70007E512046FDF72CFB00287CD04FF07E5075
:103A80004449FDF769F9FDF753FB44F62063181A22
:103A9000984228BF1846B0F5487F38BF4FF44870A9
:103AA000FDF702F93768044600213846FDF7E8FAC9
:103AB00068B938463849FDF74FF938490746204676
:103AC000FDF74AF901463846FDF73EF804464FF047
:103AD0007C5120463460FDF737F8FDF729FB44F6AA
:103AE00020639842014628BF1946B1F5487F38BF88
:103AF0004FF44871284603B0BDE8F04F02F0FCBC1B
:103B00000191FDF7BFFBD9F80020801A58457FF6D8
:103B10001AAF234B01991A78002A7FF414AF0122BF
:103B200020481A700323524603F048FE0BE7002397
:103B30001B4AC9F8003013700AF10203042B3FF648
:103B400002AF02F082FE10B1284602F0E7FD4046C7
:103B5000FEF72AFC0023336003B0BDE8F08FEC646D
:103B6000FBE6DFF8209012E7094C04F1004473E70C
:103B70004FF07E5470E7204682E7002080E700BFC8
:103B80003C0500206F12833A00409C4500409CC5D4
:103B9000000080BF000096463333333F9A99993E28
:103BA0003B05002006CE0008234B73B51A68234856
:103BB000234B1C68836CD31A042B35DC04330ADADC
:103BC000012320490D789D4204D01F4D2D68002B04
:103BD0002CD12A440B701D498B6CE31A042B27DC73
:103BE000043309DA01231A4D2E789E4203D0194E70
:103BF0003668FBB934442B70174BC264CC64019314
:103C00004FF07E53154900930C48154BFFF77CFE8F
:103C1000144B22460193144B144900930B48144B48
:103C2000FFF772FE02B070BD0023CAE7521BD1E756
:103C30000023D8E7A41BDEE77405002088070020D6
:103C400070050020C1050020C805002030070020B5
:103C5000C0050020C405002059C600089C050020AE
:103C60006C05002054C600083333333F780500202C
:103C70006805002030B5002589B0284B07959A6962
:103C8000012442F004029A619A6904A902F0040234
:103C90000092009A9A69224842F008029A619A6951
:103CA00002F008020192019A9A6942F010029A61A8
:103CB0009A6902F010020292029A9A6942F0010295
:103CC0009A619B69174A03F001030393039B5368AE
:103CD00023F0E06343F00073536003230694CDE9BF
:103CE0000435FDF74BFB4FF4704304A90E48CDE9B2
:103CF000043506944FF40055FDF740FB022304A958
:103D00000A480793CDE90454FDF738FB22462946BB
:103D10000648FDF70DFC09B030BD00BF00100240A1
:103D20000008014000000140000C0140001001406B
:103D300030B5002587B01B4B04959A6902A942F45F
:103D400080429A619B694FF4007203F480430193AF
:103D5000019B0223CDE90223032313480593FDF7BA
:103D60000DFB4FF4806302A90F48CDE9023504959D
:103D7000FDF704FB4FF4E1330C4C0D492046C4E938
:103D800000130C23C4E90255C4E905352561E5613A
:103D9000FEF7FFF82268D36843F02003D36007B032
:103DA00030BD00BF00100240000801407008002034
:103DB0000038014030B5002587B01A4B0495DA6908
:103DC00002A942F40032DA61DB69042203F4003311
:103DD0000193019B0223CDE902230323124805939B
:103DE000FDF7CCFA082310480DEB0301CDE90235AD
:103DF0000495FDF7C3FA4FF416530C4C0C492046BA
:103E0000C4E900130C23C4E90255C4E90535256152
:103E1000E561FEF7BEF82268D36843F02003D36063
:103E200007B030BD00100240000801402808002003
:103E30000044004030B5002587B01F4B0495DA6977
:103E400002A942F48022DA61DA691C4802F4802275
:103E50000092009A9A691A4C42F008029A619B6992
:103E60004FF4806203F008030193019B0223CDE924
:103E7000022303230593FDF781FA4FF4006302A99F
:103E80000E48CDE902350495FDF778FA4FF4E13399
:103E90000C492046C4E900130C23C4E90255C4E9C7
:103EA00005352561E561FEF774F82268D36843F0B3
:103EB0002003D36007B030BD00100240000C014069
:103EC000E007002000480040174B37B5DA69174C6F
:103ED00042F00102DA61DB694FF0804203F0010336
:103EE0000193019B47230025C4E9002341F63F735A
:103EF000C4E9025380232046A3612561FDF774FEC7
:103F000022682046D36843F00103D360FDF712FE18
:103F10002A4601211C20FDF7DFF91C2003B0BDE873
:103F20003040FDF709BA00BF0010024090090020A0
:103F300010B51E4B8CB09A69002442F400629A615D
:103F40009B694FF4006203F400630093009B02231B
:103F5000CDE90123032301A9154804930394FDF738
:103F60000DFA144A144B104613604723C2E901347A
:103F700044F61F63C2E9033480239361FDF760FEBA
:103F80002146142207A803F031FE40F2DC536021E1
:103F90000C22CDE90513074805A9FDF7A9FE0C2160
:103FA0000448FDF759FF0CB010BD00BF00100240DF
:103FB0000008014048090020002C014010B51D4BAD
:103FC0008CB0DA69002442F00202DA61DB6901A9EF
:103FD00003F002030093009B0223CDE90133032386
:103FE000154804930394FDF7C9F9144A144B10467D
:103FF00013604723C2E9013444F61F63C2E9033466
:1040000080239361FDF71CFE2146142207A803F0CC
:10401000EDFD40F2DC53602205A9CDE905230748F8
:104020000C22FDF765FE0C210448FDF715FF0CB0CE
:1040300010BD00BF00100240000C0140000900202C
:1040400000040040164B37B5DA69164C42F0040202
:10405000DA61DB69144A03F004030193019B4723EF
:104060000025C4E9002341F63F73C4E902538023CD
:104070002046A3612561FDF7B7FD22682046D3687D
:1040800043F00103D360FDF755FD2A4601211E20B0
:10409000FDF722F91E2003B0BDE83040FDF74CB912
:1040A00000100240B80800200008004010B5144677
:1040B0000A2392B20248FDF79BFF204610BD00BFC5
:1040C0007008002000207047002070474FF0FF303C
:1040D00070474FF0FF30704701207047074B1B6857
:1040E0001A69D10708D5DA68D20705D56FF0010241
:1040F00003481A6102F01EBB704700BF9009002000
:1041000088070020074B1B681A69D10708D5DA68B1
:10411000D20705D56FF0010203481A6102F00ABB0D
:10412000704700BFB808002030070020144B82B051
:104130001B681A68110706D5002201921A680192BD
:104140005A680192019A1A68920616D50D4A5B6860
:104150001178DBB21E2905D81078411CC9B2117044
:1041600009490B540A2B01D00D2B03D10122074B17
:104170001A7002E013781E2BF8D802B0704700BF07
:104180007008002003070020040700200207002019
:10419000324B13B51B681A68100706D5002201922E
:1041A0001A6801925A680192019A1A68510742BF2F
:1041B0005A68D2B28DF801201A68920742BF5A6835
:1041C000D2B28DF802201A68D40742BF5A68D2B220
:1041D0008DF803201A68100615D5DA68110612D575
:1041E0001F4A204910880A8880B292B2904228D093
:1041F0000A881D4892B2805C0A88C0B20132C2F3BC
:1042000008020A8058601A68920625D501225C6867
:10421000164BE4B21A70FDF735F8154B1860154BC4
:104220001A781E2A05D819784A1CD2B21A70124A76
:1042300054540A2C01D00D2C0BD101220F4B1A70B3
:104240000AE000210E4A1170DA6822F08002DA607A
:10425000D9E71B781E2BF0D802B010BD280800202B
:10426000100300200E030020120300200C03002086
:1042700008030020E1060020E2060020E0060020FE
:104280000D030020724B73B51E6833689A061AD569
:10429000704C75682378EDB2062B00F29280DFE84F
:1042A00003F004093060636752003C2D0BD10123F9
:1042B000237008E03B2D12D10023674A13700222BD
:1042C0002270664A137033681B0706D500230193DA
:1042D0003368019373680193019B02B070BD3A2D5E
:1042E00008D101225C4B1A700223002223705B4B21
:1042F0001A70E8E73C2D64D10222574B1A7006234E
:10430000F3E7554B1A78554B72B91A78052A06D837
:104310001A78D1B20132D2B21A70514A55541B7870
:10432000052BD0D90423C3E71A780A2A06D81A78AD
:10433000D1B20132D2B21A70494A55541B780A2BB5
:10434000C1D90323B4E7454A1378042B06D8137860
:10435000D9B20133DBB21370414B5D541378042B97
:10436000DFE7404B1D70DDE7012D2AD105239FE7D4
:10437000012D26D1384B1A783ABB0520FFF7A8FA51
:10438000374B5A7982421ED119785A7842EA012273
:10439000354912B20A809978DA7842EA0122334923
:1043A00012B20A801B79324ADBB213701378314A99
:1043B000C3F340131370304B304A1D701368013340
:1043C0001360002374E72E4AF8E71A78012A35D1E2
:1043D0000B20FFF77DFA234B1B788342F3D1204B50
:1043E00019785A7842EA0122264912B20A8099784D
:1043F000DA7842EA0122244912B20A8019795A79FC
:1044000042EA012221490A809979DA7942EA0122B5
:104410001F490A80197A5A7A42EA01221D4912B2CA
:104420000A809A7A1C4902F001020A709B7A1B4AA0
:10443000C3F3400313701A4B1D70C2E71B78022BA5
:10444000BFD1074B174A1B78DBB21370B9E700BF27
:10445000E0070020D7060020C9060020CA06002079
:10446000CB060020C8060020C6060020C406002097
:10447000C2060020C1060020C0060020A4060020BD
:10448000A8060020A00600209E0600209C06002012
:104490009A06002098060020960600209506002027
:1044A00094060020B8060020FCF7E0BE07B5074CD4
:1044B0004FF400510648FDF740F800230193019B9B
:1044C000A342F5D8019B0133F8E700BF1FA1070005
:1044D0000010014007B572B6064C4FF40051064873
:1044E000FDF72BF800230193019BA342F5D8019B14
:1044F0000133F8E73F420F000010014010B590B0C3
:104500001422002108A803F071FB1422002101A845
:1045100003F06CFB02244FF480330122CDE90D43FC
:10452000CDE906234FF4E01306A80F93FDF70EF82C
:1045300008B1FFF7CFFF0F23CDE901344FF48063BB
:104540000390CDE90430214601A8FDF7C1F9002808
:10455000EFD110B010BD00002DE9F04FC5B0FCF751
:1045600073FEFFF7CBFF4AF6AA22B34BB34D1A6096
:1045700000231193AB694FF4005043F01003AB617B
:10458000AB690FA903F010030E930E9B0123CDE935
:104590000F030223AA4812930324FCF7EFFE002224
:1045A0004FF40051A648FCF7C3FF6420FCF770FEEF
:1045B00001224FF40051A248FCF7BAFF6420FCF737
:1045C00067FE013CEBD1FFF755FBFFF7B1FBFFF7AF
:1045D000F1FBFFF72FFC224621462520FCF77CFE4D
:1045E0002520FCF7A9FE224621462620FCF774FE72
:1045F0002620FCF7A1FE224621462720FCF76CFE70
:104600002720FCF799FE22460F214FF0FF30FCF7E0
:1046100063FE6C6A8B48214603F0D0F8002C02DA66
:10462000894803F0CBF8610002D5884803F0C6F84A
:10463000A20002D5864803F0C1F8E30002D5854800
:1046400003F0BCF8270102D5834803F0B7F86601F0
:1046500002D5824803F0B2F8A00102D5804803F0E9
:10466000ADF8804803F012F96B6A43F080736B6217
:1046700001F050FB002800F06F817B484AF6AA2524
:104680006D4C03F003F92560FFF752FC2560FFF73E
:1046900095FC2560FFF718FC2560FFF7D3FC734BF2
:1046A0002560069340F2465340F2DC5640F6C41BA8
:1046B0004FF4FA7A4FF448780593A3F68C23DFF889
:1046C000B09104936B4B4A46CDE901B66A496B48F9
:1046D0000393CDF800A00C2301F086FE684B256003
:1046E000684F0693684B6949CDE901B6684A694845
:1046F0000393CDF800A00C23CDE9047801F074FEFB
:1047000025604FF07E55D9F80030614A1E64136869
:10471000614A1E64614B624E1360624B624C53608F
:10472000624B1046946093651566D665FDF72EFEC4
:104730005F4A604B156613605F4BA94653600025C6
:104740004FF081439460DFF874B15D4CDFF874A1E1
:1047500010469365D665FDF719FEC4F81890C4F8A5
:1047600000B04FF001096560C4F808A0E56025615C
:104770006661FCF787FD4FF07E53E06184F820907E
:10478000514CA361C4F800B06560C4F808A0E560AE
:1047900025616661FCF776FD40F246524B49E061C7
:1047A000364884F8209001F021FF394642463948C6
:1047B00001F01CFF0023464A2A481360454A136053
:1047C00003F064F8444803F061F8444803F05EF8ED
:1047D000434803F05BF8434803F058F8424803F0BD
:1047E00055F8424803F052F8414803F04FF8414869
:1047F00003F04CF8404B1A782AB100241C70FEF7E5
:1048000029FA3E4B1C703E4B1A787AB100263D4C7B
:104810001E7022783C493D4803F0A3FA2378374FB5
:10482000DBB23B70FEF716FA3E702670FCF72AFDED
:10483000374A384C13686FE00030004000100240E7
:10484000001001407CCE00089DCE0008AACE0008D2
:10485000B7CE0008C9CE0008DACE0008E0CE0008C6
:10486000EBCE000800D20008FCCE000859C60008B4
:10487000000900207B09ED409009002088070020F6
:1048800054C60008E0FCFFFF1CC73141B8080020F7
:104890004809002030070020300600200AD7A33B3B
:1048A000000080BF00000C43A69BC43A00004040BB
:1048B000CC050020A69B443B0000DC4252491D3A37
:1048C0009C05002017B7513878050020BAFAFFFF81
:1048D000740500207005002055D00008B0D00008F5
:1048E000DED0000813D1000837D100085BD10008E2
:1048F000B6D10008D8D10008020700200307002025
:10490000E0060020E1060020E20600200407002067
:104910005002002040000020C31A312B4AD91060F9
:104920004FF400419E48FCF7FDFD002840F0D28086
:104930009C4801F0F3FE9C4801F0F0FE237801331F
:1049400003F007032370013B062B16D8DFE803F0C2
:104950002227828F9CA1B200944802F097FF9448CE
:1049600002F094FF934802F091FF934802F08EFF0B
:10497000924802F08BFF924880E68A4E914B924813
:104980001E6002F083FF914802F080FF304601F084
:10499000DDFD0FE0844E8B4B8D481E60F1E78D48A6
:1049A00002F074FFB4217F4801F08CFEB4217E48F0
:1049B00001F088FEFCF766FC874A06461368C31AB6
:1049C000132B2DD9106001218448FCF7ABFD022187
:1049D00080468248FCF7A6FDDFF804A207469AF855
:1049E0000030B8F1000F40F074817E4A002B40F097
:1049F000318101218AF800107B4913700E60DFF8C5
:104A0000EC8198F80020002F40F0CC81784B002AF0
:104A100040F0A181012288F80020764A1F701660BC
:104A20002378042B40F09382FCF72CFCDFF8C8813C
:104A30000646D8F80070DFF8C491002F40F0EE81F0
:104A40006F4BC8F800006F4889F800701F6002F0D3
:104A50001DFF7CE26C4802F019FF6C4802F016FF63
:104A60006B4802F013FF6B4802F010FFA2E76A48A0
:104A700002F00CFF4B4801F069FD4B4801F066FD68
:104A800000225D4B1A6095E7644802F0FFFE64481F
:104A9000EAE7644802F0FAFE634802F0F7FE634872
:104AA00002F0F4FE624802F0F1FE624802F0EEFE0F
:104AB0006148D9E7614802F0E9FE614B614A197823
:104AC000614B6248002918BF1A46114602F076FE73
:104AD0005F48C9E72378022B25D14FF48051304835
:104AE000FCF720FD38B92F488668B6F5487F7FF679
:104AF00061AFC83E0FE04FF400512948FCF712FDAA
:104B000000287FF457AF44F61F63264886689E420C
:104B10003FF650AFC836314601F0CCFC3146224852
:104B200001F0C8FC46E7042BD7D0032B3FF442AF7B
:104B30004FF480511A48FCF7F5FC80B9214E3068DB
:104B40008168B1F5487F02D9C83901F0B3FC3068FB
:104B500001F07BFE00287FF42DAF306817E74FF49B
:104B600000510F48FCF7DEFC40B944F61F63154EB8
:104B7000306881689942EAD8C831E6E74FF480414D
:104B80000748FCF7CFFC00287FF414AF0D4E3068C7
:104B90004178B1FA81F1490901F07AFCD7E700BF09
:104BA000000C0140880700203007002024CF0008B7
:104BB00073CF000885CF0008C4CF0008D9CF000804
:104BC000F9CF00083C00002002D2000838D20008CB
:104BD0005ED2000895D200084C0200200008014077
:104BE0004802002041020020440200204002002030
:104BF000380200203C0200202C070020280700205B
:104C000024070020CDD60008B8D20008DBD2000867
:104C100007D300082FD3000864D300089ED30008F0
:104C2000C6D30008E5D3000808D400082CD4000837
:104C300051D400087BD40008B8D40008EDD4000893
:104C40006505002056CE00084CCE000810D500089F
:104C500037D5000892F80080B8F1000F7FF4CFAE8E
:104C600040F2DB51834B1B68F31A8B427FF6C7AED1
:104C700001231370804BDFF804A2C3F80080804B3F
:104C8000DFF80092C3F800807F4B504683F8008025
:104C90007E4B83F80080FDF779FB4846FDF776FBF5
:104CA0007B4B05201D607B4B8AF855801D607A4B3D
:104CB00089F8558083F8008006232370FDF7A0FF54
:104CC000FCF7E0FA754B96301860754802F0DEFD8F
:104CD00095E6002B3FF493AEDFF8C89199F8008079
:104CE000B8F1000F13D12378DFF8ACB1052B14D144
:104CF0006D480D93FDF762FB06220D9B8BF800803B
:104D000018462270FDF77CFF684802F0BFFD0023C3
:104D10008AF8003089F8003071E601238BF8003002
:104D200005232370624B83F80080624B83F8008078
:104D3000614BC3F80080FCF7A5FA604B1860524B3A
:104D4000022083F80080524B1D60524B1D60FDF71E
:104D500057FF5B48D9E71A78002A7FF461AE594AB9
:104D60001268B61A40F2DB5296427FF659AE012223
:104D70001A70454B1A789AB1DFF800811F70414EC6
:104D8000424B40461F70FDF701FB3046FDF7FEFA2F
:104D90004D4888F8557086F8557002F077FD3FE66B
:104DA0004A48FAE7002A3FF43BAE494E3078E8B96A
:104DB0003F49384F0B78384A022BDFF8F8C0344BA4
:104DC00004D091F800E0BEF1030F14D10020087068
:104DD0008CF800001070062205202270FDF710FFED
:104DE0002B4B3C481D603D6002F050FD002388F8CD
:104DF0000030337014E64FF0020E81F800E001211C
:104E00008CF800001170052222701F4A1D6010707E
:104E100003203D60FDF7F4FE2F48E5E799F80030E8
:104E2000C71B052B00F2B884DFE813F006005E0014
:104E3000EE03190441048E044FF47A61274801F00F
:104E400039FB4FF47A61264801F034FB00212348F6
:104E500001F01EFB0021224801F01AFBB7F5FA6FA2
:104E600075D90123002289F800301E4BC8F8006074
:104E70001A606CE044020020740500203006002017
:104E800070050020CC050020D8060020D90600209F
:104E9000F4020020F002002034000020DC06002094
:104EA0005AD50008410200209FD50008B6D5000859
:104EB000BA060020B9060020AC060020BC0600207F
:104EC000E3D500083C02002010D6000840D60008B8
:104ED0003802002065D6000892D600088807002016
:104EE0003007002024070020B64BDFF8DCA218466C
:104EF0004FF49661DFF8D4B201F0DCFA40F2DC51F5
:104F0000504601F0D7FADBF80020AE4BB21AB2F5EA
:104F1000AF7F10D959781846B1FA81F14909CBF819
:104F2000006001F0B5FA9AF801105046B1FA81F12B
:104F3000490901F0ADFA40F6B8339F4207D9022380
:104F400089F800300023C8F80060CBF800302378DF
:104F5000062B03D1FEF728FEFEF72EFC2378072B45
:104F600042D19B4B1B78002B3CD0DFF868929A4EC5
:104F700099F80030934956F83320896C06EBC30347
:104F80005F68A2EB0108904B08F10508D3F848A030
:104F9000FCF778F9B8F10A0FDFF840C200F2038499
:104FA000A7EB0A0705370A2F00F2FD83DCF8003073
:104FB000C31AC72B14D999F80010894B013101F09D
:104FC000030156F8312006EBC1061A607368854E5E
:104FD000CCF80000844889F80010336002F0EEFB42
:104FE000FEF7E2FDFEF7E8FBFCF74CF97F4E336875
:104FF000C01AC72840F2C180FCF744F9306000F0C5
:105000008BFE002800F0B9808022002124A802F045
:10501000EDFD23783FA8072B98BF754AA3F1050142
:1050200094BF52F82320734A4B424B418DF80C3108
:10503000714B724923921A78714BDFF888A1002ACC
:1050400008BF0B4610216F4A02F028FC9DF80C3176
:10505000002B00F0C3836C4B1F886C4B3FB287EA78
:10506000E770A0EBE77080B21E88FBF721FE36B236
:10507000814686EAE670A0EBE67080B2FBF718FE88
:10508000634980464846FCF723F8002840F08E83A9
:1050900048465F49FBF714FF3D905D494046FCF7E9
:1050A00017F8002840F0858340465949FBF708FF70
:1050B0003B461021574A3E9024A802F0EFFB564A87
:1050C0003346102128A802F0E9FB4F4B188800B2A4
:1050D000FBF7EEFD514B1968FBF73EFE4B4B0646C6
:1050E000188800B2FBF7E4FD4D4B1968FBF734FE5E
:1050F000354A9AF804301279134340F05D834949E8
:105100002CA802F018FE484B1B7803F0FF02002B7E
:1051100000F06183454912F0040F454B18BF0B4660
:1051200012F0020F0CBF2D224822182100920DF11F
:10513000C600404A02F0B2FBFCF7A4F8FBF73CF9CA
:1051400000223D4BFBF7DCFA3C4B3D4A1B781278C2
:10515000002B0CBF70235023002A0CBF7422542252
:10516000CDE90001CDE902321621364A0DF1DE000B
:1051700002F094FB23A800F0D1FD334E337823B125
:105180003078FDF793F900233370304B1A78002AFA
:1051900062D000221A701C4BB3F800801B4B0FFA30
:1051A00088F81F88204B3FB21E78FCF76BF8F6B2E8
:1051B000274BF207186000F199832648FDF7FEF8A7
:1051C0004AE000BF880700203007002024070020A5
:1051D00065050020640500204405002040050020EE
:1051E00074050020700500205BD70008E80200204D
:1051F000F8DE000866C200080C03002064CE000838
:1052000060CE00087BD70008C6060020C406002038
:105210000000204381D7000889D70008300600200D
:10522000CC05002091D70008C206002069CE0008F6
:105230006ECE0008ADD7000800408F400800002067
:105240003A050020B7D70008B8060020C0060020A5
:10525000BC060020ECD70008DFF8B08298F80030D8
:10526000052B20D1AA4F3B68EBB1FCF70BF83B684C
:10527000A84EC31AB3F5FA6F40F28984A64802F02B
:1052800005FBA64801F04AFAA54801F047FAA548EF
:10529000FDF77CF8A448FDF779F8032388F800307F
:1052A00000233B603360FBF7EDFFA04E3368C01A6C
:1052B000B0F5FA7F64D3FBF7E5FF30609C4E3368AE
:1052C000DB689F045CD543F63C539448ADF88C30C2
:1052D000826B836C9342B8BF13461946C36B9942E5
:1052E000D4BFC2EB0103C2EB0303C16BC3EB0323C7
:1052F0008A1A93FBF2F38A4A8DF88E30916B936C85
:105300008B42B8BF0B461F46D36B9F42D4BFC1EB45
:105310000703C1EB0303D76BC3EB0323791A93FB9A
:10532000F1F312798DF88F30037913445B108DF807
:10533000903001F085FA23789DF88D105C1F634250
:105340006341021E18BF012242EA430200238DF886
:1053500092309DF88C308DF891200B449DF88E1082
:1053600030460B449DF88F100B449DF890100B4471
:105370001A448DF893200A23082223A9FCF738FE4B
:10538000FBF780FF6B4C2368C01A952840F20C8114
:10539000FBF778FF684B20601B68DB68990440F1DD
:1053A0000381FCF773FEB0F59A7F80F0FD80634CBB
:1053B000DFF88C81208800B2FBF77AFC594B196822
:1053C000FBF7CAFC0746B8F8000000B2FBF770FC18
:1053D000554B1968FBF7C0FC4FF07E510646384626
:1053E000FBF776FE002840F0298438465549FBF744
:1053F00051FE00B1534F4FF07E513046FBF768FE2F
:10540000002840F01F8430464E49FBF743FE00B1B0
:105410004C4E2488384623B20D93B8F800301CB2A5
:10542000FAF7ECFF824630468B46FAF7E7FF3D4A33
:10543000064650680F46FAF7E1FF3B4A804650683F
:105440008946FAF7DBFF314B3F4A93F800C01278E8
:10545000BCF1050F14BF4D234123C2F34002CDE937
:105460000A23CDE9080100946021CDE90689CDE940
:105470000467CDE902AB0D9B344A23A802F00EFA73
:10548000041E07DD214623A8FDF75CFB214623A867
:10549000FEF780F9284C2368DB689A0468D5FCF78E
:1054A000F5FDB0F59A7F63D2294A2A4BDFF8A8C0F0
:1054B0001B881188294A09B21088294A80B21688A7
:1054C000284AB6B21788284A3FB212789CF800C022
:1054D0001BB2BCF1000C18BF4FF0010C003A18BF12
:1054E000012242EA4C02CDE90372CDE901061F4ACE
:1054F000009113A8402102F0D1F9292113A8FDF74A
:1055000021FB292113A8FEF745F931E040000020D6
:10551000BC060020AC06002056D9000888070020F1
:105520003007002030060020CC050020E4020020D7
:10553000E0070020E002002028080020C606002026
:10554000C4060020000080BFC2060020AAD90008BF
:105550009E060020A0060020950600209C06002044
:105560009A0600209806002096060020E7D9000839
:105570002368DB689B0417D5FCF788FDB0F59A7F9C
:1055800012D2BB4BBB4A1B7812782021009213A881
:10559000B94A02F083F90446014613A8FDF7D2FA8E
:1055A000214613A8FEF7F6F84AF6AA22B34BB44CEC
:1055B0001A60FBF767FE2368C01AB0F5FA7F14D3B0
:1055C000FBF760FE2060AF4C237873B1FBF75AFE07
:1055D000AD4B1B68C01AB0F5FA5F06D900234FF433
:1055E000FA51AA48237002F0E9F8FBF74BFEA84BEA
:1055F0001B68984280F02A8300224FF40051A5488E
:10560000FBF796FFFFF7F6B84FF47A71A248DFF880
:105610008CA200F04FFF00219F4800F039FF504658
:1056200001F013F9012803D19AF80530012B0BD0B2
:105630009A4801F073F8A021984801F043F840F629
:10564000C411964800F036FF40F6B8339F427FF60B
:105650007EAC032389F80030C8F8006077E44FF48B
:105660007A718D48DFF834A200F024FF01218A48C6
:1056700000F00EFF504601F0E8F8012803D19AF837
:105680000530012B0BD0854801F048F8A021834854
:1056900001F018F840F6C411804800F00BFF40F606
:1056A000B8339F427FF653AC0423FFF7DBBB384689
:1056B000FBF7FAFA7A49FBF703FC7A49FBF74CFB54
:1056C000FBF736FDC0F51C6B0BF1040BBBF57A7FC5
:1056D00038BF4FF47A7BDFF8C4A159466E4800F01A
:1056E000E9FE9AF80530012B05D1504601F016F875
:1056F000504600F02BFF5946DFF8ACB1674800F088
:10570000D9FEDBF80030F31AB3F5FA7F16D96248F8
:10571000CBF800604178B1FA81F1490900F0B8FE98
:10572000DBF80030F31AB3F57A7F07D99AF8011045
:105730005A48B1FA81F1490900F0AAFEB7F57A6F2B
:105740007FF605AC052385E7534E41F2883130469C
:1057500000F0B0FE41F28831504800F0ABFE00216D
:10576000304600F095FE01214C4800F091FEB7F55F
:10577000FA6F7FF6ECAB4D4802F088F800234C4AF4
:105780004C4823701660C8F8003089F8003002F0E9
:105790007DF84948FFF75BB9002389F80030C8F865
:1057A0000030FFF7D4BBCCF8000019E44FF07E5076
:1057B00072E44FF07E507BE4FAF720FECDE902015F
:1057C0003046FAF71BFE3D4ACDE9000116212CA810
:1057D00002F064F897E42D22394BA6E42F49394BA7
:1057E0000979394E9AF80420002908BF1E46364927
:1057F00024A8002A18BF0B461021344A02F04EF8A4
:1058000033461021324A28A802F048F89AF80430AA
:1058100043BB00233D93214B1B7933BB00233E93B5
:105820002C4B16211B682C4A20332CA802F036F88A
:105830002A4A18212A4B0DF1C60002F02FF8FBF777
:1058400021FD239B0293FAF7B7FD0022254BFAF7BF
:1058500057FF254ACDE9000116210DF1DE0002F0C7
:105860001DF887E44FF07C53D4E74FF07C53D6E724
:10587000BA060020B906002008DA0008003000400F
:10588000DC0200200C0300200803002015DA0008C9
:10589000DC060020001001408807002030070020AF
:1058A00000007A450080BB4424070020EBD60008A6
:1058B0003C00002009D7000828D700089FD700081F
:1058C00064CE000873CE000878CE0008C5D7000863
:1058D000CCD7000838000020D3D70008DAD700085A
:1058E0002605002000408F40E0D70008AE4A13781C
:1058F0000133DBB2012B13707FF6AEAC2378072B9C
:105900003FF4D1ACFBF7BEFCA84B06F0100BDFF860
:10591000A0921860BBF1000F7AD0FBF7B3FCD9F866
:105920000030002B6BD1C9F80000730747BF4FF060
:10593000030A4FF004094FF0090A4FF00A09FBF778
:10594000A1FC40F6B83398427FF686AC994B1A78A2
:10595000002A60D02278052A5DD00523964823705E
:10596000FCF714FD9548FCF711FD0023944A954877
:105970001374954A137401F089FF944B1A78002A26
:1059800065D0BBF1000F62D188EAE872A2EBE87241
:1059900092B25245DFF838B255DC87EAE772A2EBE3
:1059A000E77292B24A454EDCDBF80020002A36D17D
:1059B000FBF768FCCBF80000864A1378002B67D011
:1059C00088EAE873A3EBE8739BB2282B43D887EAF5
:1059D000E773A3EBE7739BB2282B3CD87E4800F01B
:1059E00034FF10B17C4800F099FE7C4800F02DFF98
:1059F00000283FF431AC794800F090FE2CE4D9F84F
:105A00000030C01AB0F5FA7F8FD97548FFF7D6BBC2
:105A1000C9F800B089E71B78002BAED11CE4FBF776
:105A200031FCDBF80020801AB0F5487FC4D36D4A02
:105A3000664B11780029BFD10121117019786A488D
:105A400001F0BCFEB8E70023CBF80030B4E7002239
:105A50005F4B1A60B0E74FF0000B624B564883F87B
:105A600000B05B4B82F800B0C3F800B05F4B83F826
:105A700000B0FCF78BFC5148FCF788FC4E4B28210A
:105A800083F855B04D4B5A4883F855B001F096FE57
:105A90004FF07E5305934FF4E173CDE903A3554BCB
:105AA00042460293544B44490193544B4A481B7855
:105AB00006F006060093424BFCF76EFD504B3A464B
:105AC00005934FF49673CDE903934E4B3B490293F4
:105AD0004D4B424801934D4B1B7800933A4BFCF7DA
