:020000040800F2
:100000000050002075BA0008BDBA0008F944000885
:10001000BDBA0008BDBA0008BDBA00080000000063
:10002000000000000000000000000000BDBA000851
:10003000BDBA000800000000BDBA0008F544000881
:10004000BDBA0008BDBA0008BDBA0008BDBA0008B4
:10005000BDBA0008BDBA0008BDBA0008BDBA0008A4
:10006000BDBA0008BDBA0008BDBA0008BDBA000894
:10007000BDBA0008BDBA0008BDBA0008BDBA000884
:10008000BDBA0008BDBA0008BDBA0008BDBA000874
:10009000BDBA0008BDBA0008BDBA0008BDBA000864
:1000A000BDBA0008BDBA0008BDBA0008BDBA000854
:1000B00019410008BDBA000841410008BDBA000856
:1000C000BDBA0008BDBA0008BDBA0008BDBA000834
:1000D000BDBA000869410008CD410008C1420008CE
:1000E000BDBA0008BDBA0008BDBA00080000000093
:1000F0000000000000000000000000000000000000
:0C01000000000000000000005FF808F1A3
:1001100010F8012B11F8013B012A28BF9A42F7D0B1
:10012000D01A7047034613F8012B002AFBD1181A86
:100130000138704781F0004102E000BF83F00043C6
:1001400030B54FEA41044FEA430594EA050F08BF72
:1001500090EA020F1FBF54EA000C55EA020C7FEA36
:10016000645C7FEA655C00F0E2804FEA5454D4EBB3
:100170005555B8BF6D420CDD2C4480EA020281EA7D
:10018000030382EA000083EA010180EA020281EAB5
:100190000303362D88BF30BD11F0004F4FEA013107
:1001A0004FF4801C4CEA113102D0404261EB410116
:1001B00013F0004F4FEA03334CEA133302D052429C
:1001C00063EB430394EA050F00F0A780A4F1010458
:1001D000D5F1200E0DDB02FA0EFC22FA05F2801892
:1001E00041F1000103FA0EF2801843FA05F3594178
:1001F0000EE0A5F120050EF1200E012A03FA0EFCF7
:1002000028BF4CF0020C43FA05F3C01851EBE37120
:1002100001F0004507D54FF0000EDCF1000C7EEB3D
:1002200000006EEB0101B1F5801F1BD3B1F5001F7B
:100230000CD349085FEA30004FEA3C0C04F101049A
:100240004FEA445212F5800F80F09A80BCF1004FC3
:1002500008BF5FEA500C50F1000041EB045141EA45
:10026000050130BD5FEA4C0C404141EB0101013C0E
:1002700028BFB1F5801FE9D291F0000F04BF0146FD
:100280000020B1FA81F308BF2033A3F10B03B3F1CF
:1002900020020CDA0C3208DD02F1140CC2F10C025F
:1002A00001FA0CF021FA02F10CE002F11402D8BFBD
:1002B000C2F1200C01FA02F120FA0CFCDCBF41EA89
:1002C0000C019040E41AA2BF01EB0451294330BD58
:1002D0006FEA04041F3C1CDA0C340EDC04F1140435
:1002E000C4F1200220FA04F001FA02F340EA03000C
:1002F00021FA04F345EA030130BDC4F10C04C4F152
:10030000200220FA02F001FA04F340EA0300294631
:1003100030BD21FA04F0294630BD94F0000F83F47B
:10032000801306BF81F480110134013D4EE77FEA5E
:10033000645C18BF7FEA655C29D094EA050F08BFAA
:1003400090EA020F05D054EA000C04BF194610468B
:1003500030BD91EA030F1EBF0021002030BD5FEACF
:10036000545C05D14000494128BF41F0004130BDF7
:1003700014F580043CBF01F5801130BD01F000454B
:1003800045F0FE4141F470014FF0000030BD7FEABE
:10039000645C1ABF194610467FEA655C1CBF0B46B9
:1003A000024650EA013406BF52EA033591EA030FD0
:1003B00041F4002130BD00BF90F0000F04BF0021C8
:1003C000704730B54FF4806404F132044FF00005FB
:1003D0004FF0000150E700BF90F0000F04BF002174
:1003E000704730B54FF4806404F1320410F00045DA
:1003F00048BF40424FF000013EE700BF42004FEAD5
:10040000E2014FEA31014FEA02701FBF12F07F4351
:1004100093F07F4F81F06051704732F07F4208BF08
:10042000704793F07F4F04BF41F40021704730B50F
:100430004FF4607401F0004521F000411CE700BF5B
:1004400050EA010208BF704730B54FF000050AE0DE
:1004500050EA010208BF704730B511F0004502D5DF
:10046000404261EB41014FF4806404F132045FEAE1
:10047000915C3FF4D8AE4FF003025FEADC0C18BF8A
:1004800003325FEADC0C18BF033202EBDC02C2F17C
:10049000200300FA03FC20FA02F001FA03FE40EA0E
:1004A0000E0021FA02F11444BDE600BF70B54FF012
:1004B000FF0C4CF4E06C1CEA11541DBF1CEA1355F0
:1004C00094EA0C0F95EA0C0F00F0DEF82C4481EA58
:1004D000030621EA4C5123EA4C5350EA013518BF78
:1004E00052EA033541F4801143F4801338D0A0FB65
:1004F00002CE4FF00005E1FB02E506F00042E0FB12
:1005000003E54FF00006E1FB03569CF0000F18BF17
:100510004EF0010EA4F1FF04B6F5007F64F54074BF
:1005200004D25FEA4E0E6D4146EB060642EAC62152
:1005300041EA55514FEAC52040EA5E504FEACE2EBF
:10054000B4F1FD0C88BFBCF5E06F1ED8BEF1004FC2
:1005500008BF5FEA500E50F1000041EB045170BD3E
:1005600006F0004646EA010140EA020081EA030182
:10057000B4EB5C04C2BFD4EB0C0541EA045170BD7E
:1005800041F480114FF0000E013C00F3AB8014F1F8
:10059000360FDEBF002001F0004170BDC4F1000441
:1005A000203C35DA0C341BDC04F11404C4F12005C2
:1005B00000FA05F320FA04F001FA05F240EA02001D
:1005C00001F0004221F0004110EBD37021FA04F653
:1005D00042EB06015EEA430E08BF20EAD37070BD0D
:1005E000C4F10C04C4F1200500FA04F320FA05F06C
:1005F00001FA04F240EA020001F0004110EBD3706E
:1006000041F100015EEA430E08BF20EAD37070BDDD
:10061000C4F1200500FA05F24EEA020E20FA04F3B6
:1006200001FA05F243EA020321FA04F001F0004165
:1006300021FA04F220EA020000EBD3705EEA430ED6
:1006400008BF20EAD37070BD94F0000F0FD101F005
:100650000046400041EB010111F4801F08BF013C3E
:10066000F7D041EA060195F0000F18BF704703F07C
:100670000046520043EB030313F4801F08BF013D03
:10068000F7D043EA0603704794EA0C0F0CEA1355BF
:1006900018BF95EA0C0F0CD050EA410618BF52EA79
:1006A0004306D1D181EA030101F000414FF000007F
:1006B00070BD50EA410606BF1046194652EA43068D
:1006C00019D094EA0C0F02D150EA013613D195EA01
:1006D0000C0F05D152EA03361CBF104619460AD149
:1006E00081EA030101F0004141F0FE4141F4700153
:1006F0004FF0000070BD41F0FE4141F4780170BD43
:1007000070B54FF0FF0C4CF4E06C1CEA11541DBFA7
:100710001CEA135594EA0C0F95EA0C0F00F0A7F8A9
:10072000A4EB050481EA030E52EA03354FEA0131D6
:1007300000F088804FEA03334FF0805545EA1313E9
:1007400043EA12634FEA022245EA111545EA1065B1
:100750004FEA00260EF000419D4208BF964244F148
:10076000FD0404F5407402D25B084FEA3202B61A67
:1007700065EB03055B084FEA32024FF480104FF43B
:10078000002CB6EB020E75EB030E22BFB61A7546AF
:1007900040EA0C005B084FEA3202B6EB020E75EB42
:1007A000030E22BFB61A754640EA5C005B084FEAAA
:1007B0003202B6EB020E75EB030E22BFB61A754677
:1007C00040EA9C005B084FEA3202B6EB020E75EB82
:1007D000030E22BFB61A754640EADC0055EA060E43
:1007E00018D04FEA051545EA16754FEA06164FEA86
:1007F000C30343EA52734FEAC2025FEA1C1CC0D132
:1008000011F4801F0BD141EA00014FF000004FF0BE
:10081000004CB6E711F4801F04BF01430020B4F17F
:10082000FD0C88BFBCF5E06F3FF6AFAEB5EB030C37
:1008300004BFB6EB020C5FEA500C50F1000041EB34
:10084000045170BD0EF0004E4EEA113114EB5C0401
:10085000C2BFD4EB0C0541EA045170BD41F48011D4
:100860004FF0000E013C90E645EA060E8DE60CEADC
:10087000135594EA0C0F08BF95EA0C0F3FF43BAFF9
:1008800094EA0C0F0AD150EA01347FF434AF95EAB0
:100890000C0F7FF425AF104619462CE795EA0C0F94
:1008A00006D152EA03353FF4FDAE1046194622E761
:1008B00050EA410618BF52EA43067FF4C5AE50EA3B
:1008C00041047FF40DAF52EA43057FF4EBAE12E72B
:1008D0004FF0FF3C06E000BF4FF0010C02E000BF0C
:1008E0004FF0010C4DF804CD4FEA410C7FEA6C5CEF
:1008F0004FEA430C18BF7FEA6C5C1BD001B050EA92
:10090000410C0CBF52EA430C91EA030F02BF90EA7C
:10091000020F0020704710F1000F91EA030F58BF3B
:10092000994208BF90422CBFD8176FEAE37040F09D
:10093000010070474FEA410C7FEA6C5C02D150EA3B
:10094000013C07D14FEA430C7FEA6C5CD6D152EAF6
:10095000033CD3D05DF8040B704700BF84461046BB
:1009600062468C461946634600E000BF01B5FFF7BA
:10097000B7FF002848BF10F1000F01BD4DF808ED8A
:10098000FFF7F4FF0CBF012000205DF808FB00BF5B
:100990004DF808EDFFF7EAFF34BF012000205DF8B5
:1009A00008FB00BF4DF808EDFFF7E0FF94BF012002
:1009B00000205DF808FB00BF4DF808EDFFF7CEFF03
:1009C00094BF012000205DF808FB00BF4DF808ED42
:1009D000FFF7C4FF34BF012000205DF808FB00BF13
:1009E0004FEA410C7FEA6C5C02D150EA013C0AD12B
:1009F0004FEA430C7FEA6C5C02D152EA033C02D11D
:100A00004FF0000070474FF0010070474FEA41027D
:100A100012F5001215D211D56FF47873B3EB625250
:100A200012D94FEAC12343F0004343EA505311F077
:100A3000004F23FA02F018BF404270474FF0000009
:100A4000704750EA013005D111F0004008BF6FF047
:100A5000004070474FF00000704700BF4A0011D2BD
:100A600012F5001211D20DD56FF47873B3EB625208
:100A70000ED44FEAC12343F0004343EA505323FA14
:100A800002F070474FF00000704750EA013002D189
:100A90004FF0FF3070474FF0000070474FEA4102BF
:100AA000B2F1E04324BFB3F5001CDCF1FE5C0DD9CC
:100AB00001F0004C4FEAC0024CEA5070B2F1004F16
:100AC00040EB830008BF20F00100704711F0804F19
:100AD00021D113F13872BCBF01F00040704741F4DE
:100AE00080114FEA5252C2F11802C2F1200C10FAE2
:100AF0000CF320FA02F018BF40F001004FEAC123C6
:100B00004FEAD32303FA0CFC40EA0C0023FA02F369
:100B10004FEA4303CCE77FEA625307D150EA01333F
:100B20001EBF4FF0FE4040F44000704701F000400F
:100B300040F0FE4040F40000704700BF80F00040ED
:100B400002E000BF81F0004142001FBF5FEA4103A5
:100B500092EA030F7FEA226C7FEA236C6AD04FEAA5
:100B60001262D2EB1363C1BFD218414048404140EA
:100B7000B8BF5B42192B88BF704710F0004F40F49C
:100B8000000020F07F4018BF404211F0004F41F4B8
:100B9000000121F07F4118BF494292EA030F3FD084
:100BA000A2F1010241FA03FC10EB0C00C3F1200397
:100BB00001FA03F100F0004302D5494260EB400026
:100BC000B0F5000F13D3B0F1807F06D340084FEA91
:100BD000310102F10102FE2A51D2B1F1004F40EB86
:100BE000C25008BF20F0010040EA030070474900EE
:100BF00040EB0000013A28BFB0F5000FEDD2B0FA8B
:100C000080FCACF1080CB2EB0C0200FA0CF0AABFAD
:100C100000EBC25052421843BCBFD040184370474B
:100C200092F0000F81F4000106BF80F40000013251
:100C3000013BB5E74FEA41037FEA226C18BF7FEA28
:100C4000236C21D092EA030F04D092F0000F08BF6A
:100C50000846704790EA010F1CBF0020704712F051
:100C60007F4F04D1400028BF40F00040704712F190
:100C700000723CBF00F50000704700F0004343F0F5
:100C8000FE4040F4000070477FEA226216BF08462B
:100C90007FEA23630146420206BF5FEA412390EAEE
:100CA000010F40F4800070474FF0000304E000BFE4
:100CB00010F0004348BF40425FEA000C08BF704795
:100CC00043F0964301464FF000001CE050EA010259
:100CD00008BF70474FF000030AE000BF50EA01026E
:100CE00008BF704711F0004302D5404261EB41015B
:100CF0005FEA010C02BF84460146002043F0B64380
:100D000008BFA3F18053A3F50003BCFA8CF2083AA4
:100D1000A3EBC25310DB01FA02FC634400FA02FCAD
:100D2000C2F12002BCF1004F20FA02F243EB0200B4
:100D300008BF20F00100704702F1200201FA02FC16
:100D4000C2F1200250EA4C0021FA02F243EB020009
:100D500008BF20EADC7070474FF0FF0C1CEAD0524D
:100D60001EBF1CEAD15392EA0C0F93EA0C0F6FD00E
:100D70001A4480EA010C400218BF5FEA41211ED0EC
:100D80004FF0006343EA501043EA5111A0FB0131D8
:100D90000CF00040B1F5000F3EBF490041EAD371AD
:100DA0005B0040EA010062F17F02FD2A1DD8B3F129
:100DB000004F40EBC25008BF20F00100704790F098
:100DC000000F0CF0004C08BF49024CEA502040EAEA
:100DD00051207F3AC2BFD2F1FF0340EAC2507047B0
:100DE00040F400004FF00003013A5DDC12F1190FEE
:100DF000DCBF00F000407047C2F10002410021FA60
:100E000002F1C2F1200200FA02FC5FEA310040F177
:100E1000000053EA4C0308BF20EADC70704792F0F0
:100E2000000F00F0004C02BF400010F4000F013A28
:100E3000F9D040EA0C0093F0000F01F0004C02BF23
:100E4000490011F4000F013BF9D041EA0C018FE792
:100E50000CEAD15392EA0C0F18BF93EA0C0F0AD098
:100E600030F0004C18BF31F0004CD8D180EA0100BE
:100E700000F00040704790F0000F17BF90F0004F57
:100E8000084691F0000F91F0004F14D092EA0C0F39
:100E900001D142020FD193EA0C0F03D14B0218BFCC
:100EA000084608D180EA010000F0004040F0FE4012
:100EB00040F40000704740F0FE4040F440007047AE
:100EC0004FF0FF0C1CEAD0521EBF1CEAD15392EA2D
:100ED0000C0F93EA0C0F69D0A2EB030280EA010C1D
:100EE00049024FEA402037D04FF0805343EA1111B6
:100EF00043EA10130CF000408B4238BF5B0042F114
:100F00007D024FF4000C8B4224BF5B1A40EA0C00B8
:100F1000B3EB510F24BFA3EB510340EA5C00B3EBEA
:100F2000910F24BFA3EB910340EA9C00B3EBD10FD8
:100F300024BFA3EBD10340EADC001B0118BF5FEA2A
:100F40001C1CE0D1FD2A3FF650AF8B4240EBC25053
:100F500008BF20F0010070470CF0004C4CEA502014
:100F60007F32C2BFD2F1FF0340EAC250704740F463
:100F700000004FF00003013A37E792F0000F00F055
:100F8000004C02BF400010F4000F013AF9D040EAD3
:100F90000C0093F0000F01F0004C02BF490011F467
:100FA000000F013BF9D041EA0C0195E70CEAD1535F
:100FB00092EA0C0F08D142027FF47DAF93EA0C0F46
:100FC0007FF470AF084676E793EA0C0F04D14B022A
:100FD0003FF44CAF08466EE730F0004C18BF31F0DC
:100FE000004CCAD130F000427FF45CAF31F00043D6
:100FF0007FF43CAF5FE700BF4FF0FF3C06E000BF6F
:101000004FF0010C02E000BF4FF0010C4DF804CD91
:101010004FEA40024FEA41037FEA226C18BF7FEAA1
:10102000236C11D001B052EA530C18BF90EA010FA3
:1010300058BFB2EB030088BFC81738BF6FEAE17032
:1010400018BF40F0010070477FEA226C02D15FEACE
:10105000402C05D17FEA236CE4D15FEA412CE1D03A
:101060005DF8040B704700BF844608466146FFE701
:101070000FB5FFF7C9FF002848BF10F1000F0FBDE3
:101080004DF808EDFFF7F4FF0CBF012000205DF8DC
:1010900008FB00BF4DF808EDFFF7EAFF34BF012061
:1010A00000205DF808FB00BF4DF808EDFFF7E0FFFA
:1010B00094BF012000205DF808FB00BF4DF808ED4B
:1010C000FFF7D2FF94BF012000205DF808FB00BFAE
:1010D0004DF808EDFFF7C8FF34BF012000205DF890
:1010E00008FB00BF4FEA4002B2F1FE4F0FD34FF0B2
:1010F0009E03B3EB12620DD94FEA002343F0004385
:1011000010F0004F23FA02F018BF404270474FF032
:101110000000704712F1610F01D1420205D110F0B9
:10112000004008BF6FF0004070474FF0000070476C
:1011300042000ED2B2F1FE4F0BD34FF09E03B3EB41
:10114000126209D44FEA002343F0004323FA02F06D
:1011500070474FF00000704712F1610F01D1420259
:1011600002D14FF0FF3070474FF00000704700BFD2
:101170000348044B834202D0034B03B11847704726
:101180001002002010020020000000000548064B5D
:101190001B1AD90F01EBA301491002D0034B03B175
:1011A00018477047100200201002002000000000C5
:1011B00010B5064C237843B9FFF7DAFF044B13B19F
:1011C0000448AFF300800123237010BD10020020FB
:1011D00000000000C0BA000808B5054B1BB1054966
:1011E0000548AFF30080BDE80840FFF7CFBF00BF60
:1011F0000000000014020020C0BA00087047000080
:1012000038B50E4B05461A784FF47A73B3FBF2F3F8
:101210000B4A1068B0FBF3F000F09CF8044658B994
:101220000F2D09D8024629464FF0FF3000F054F840
:101230002046044B1D6038BD0120FCE70000002063
:101240000C02002004000020074A08B513680320A0
:1012500043F01003136000F02DF80F20FFF7D0FFCC
:10126000FFF7CCFF002008BD00200240034A044BDA
:1012700011681B780B441360704700BF2C020020DC
:1012800000000020014B1868704700BF2C020020AE
:1012900038B50446FFF7F6FF0546631C1EBF044B36
:1012A0001B78E418FFF7EEFF431BA342FAD338BDC7
:1012B0000000002007490302CA6803F4E06322F437
:1012C000E0621204120C134343F0BF6343F4003393
:1012D000CB60704700ED00E0154B30B5DC68C4F31F
:1012E0000224C4F10703251D042B28BF0423062D67
:1012F0004FF0FF3594BF0024033C05FA03F321EAC5
:101300000303A54022EA0502A340002843EA0203A2
:10131000ACBF00F16040074A4FEA0313DBB2ABBF3A
:1013200000F5614000F00F0080F80033135430BD29
:1013300000ED00E014ED00E0002807DB0123410987
:10134000034A00F01F00834042F82130704700BF7D
:1013500000E100E00138B0F1807F0BD24FF0E023D4
:10136000F021054A586182F8231000200722986175
:101370001A6170470120704700ED00E02DE9F74F3A
:1013800000244FF00F0E2646DFF884C1614B00F1B8
:1013900004080A6832FA06F502D103B0BDE8F08FFE
:1013A000012505FA06F702EA070537EA020276D1B7
:1013B0004A68032A07D8013A022A00F28380DFE84C
:1013C00002F091969C00122A00F0948069D8112AAC
:1013D00000F08A80FF2D94BF8146C1464FEA860205
:1013E000D9F8007088BF203A0EFA02FA27EA0A07F5
:1013F00004FA02F21743C9F80070D1F8049019F00A
:10140000805F4CD0DCF8182026F0030742F0010280
:10141000CCF81820DCF8182007F1804702F0010210
:10142000019207F5803706F0030A019A4FEA8A0A0B
:10143000BA680EFA0AFB22EA0B0B374A904260D0D8
:1014400002F5806290425ED002F5806290425CD0EC
:1014500002F58062904214BF0422032202FA0AF2CB
:1014600042EA0B02BA609A6819F4801F14BF2A433B
:10147000AA439A60DA6819F4001F14BF2A43AA43EA
:10148000DA605A6819F4003F14BF2A43AA435A602D
:101490001A6819F4803F14BF2A43AA431A60013620
:1014A00077E7DFF878904A450CD014D8A9F5801971
:1014B0004A4507D009F570294A4503D0A9F5801996
:1014C0004A4587D18A68D2B1012A4FF008040CBF7F
:1014D000076147617EE7DFF848904A45F2D009F599
:1014E0008039EDE7CC6875E7CC68043472E7CC68E6
:1014F00008346FE7CC680C346CE700246AE70424F6
:1015000068E70022AAE70122A8E70222A6E700BFB7
:1015100000100240000401400008014000002210B9
:101520000000311080680840003818BF0120704763
:101530000AB1016170470904FBE7C36801EA0302CD
:1015400021EA030141EA0241016170472DE9F341BB
:10155000054638B30368DB0710D42B689F075ED4B9
:101560002B68190700F195802B685A0700F1C1809C
:10157000EB69002B40F02C81002029E0904C63683F
:1015800003F00C03042B07D0636803F00C03082B53
:101590000AD16368DE0307D523689C03DDD56B6839
:1015A000002BDAD1012013E06B68B3F5803F12D134
:1015B000236843F480332360FFF764FE0646236804
:1015C0009803CAD4FFF75EFE801B6428F7D9032076
:1015D00002B0BDE8F0819BB9236823F48033236017
:1015E000236823F480232360FFF74CFE064623681C
:1015F0009903B2D5FFF746FE801B6428F7D9E6E7CA
:10160000B3F5A02F236803D143F480232360CFE7F1
:1016100023F480332360236823F48023CBE7684CD2
:10162000636813F00C0F07D0636803F00C03082BFA
:1016300010D16368DA030DD423689B0702D52B69A8
:10164000012BAFD123686A6923F0F80343EAC20390
:10165000236085E72A695B4B6AB101221A60FFF7B4
:1016600011FE064623689F07ECD4FFF70BFE801B94
:101670000228F7D9ABE71A60FFF704FE0646236895
:1016800098077FF56DAFFFF7FDFD801B0228F6D9A7
:101690009DE7AA694A4E4B4BE2B10122C3F8802470
:1016A000FFF7F0FD0446736A9B070DD54FF4FA521D
:1016B000454B1B68B3FBF2F3019300BF019B5A1E1D
:1016C0000192002BF9D14FE7FFF7DCFD001B022848
:1016D000E9D97CE7C3F88024FFF7D4FD0446736A98
:1016E0009F077FF541AFFFF7CDFD001B0228F6D91C
:1016F0006DE7334CE369D80024D40127E36943F054
:101700008053E361E36903F080530093009B2F4E05
:101710003368D90518D5EB68012B26D1236A43F02D
:1017200001032362FFF7AEFD41F288380646236AC3
:101730009B073FD5002F3FF41BAFE36923F0805395
:10174000E36115E70027E2E7336843F48073336011
:10175000FFF798FD80463368DA05DCD4FFF792FD89
:10176000A0EB08006428F6D931E7ABB9236A41F24F
:10177000883823F001032362236A23F004032362E1
:10178000FFF780FD0646236A9807D3D5FFF77AFD59
:10179000801B4045F7D91AE7052B236A03D143F094
:1017A00004032362BAE723F001032362236A23F0D0
:1017B0000403B6E7FFF766FD801B4045B7D906E78F
:1017C00000100240000042420C0200200070004065
:1017D0002A4C626802F00C02082A3ED00022022B3A
:1017E000274B1A662CD1FFF74DFD06462368990159
:1017F00020D42B6AB3F5803F05D16268A96822F432
:1018000000320A436260696A62680B4322F4741210
:101810001343012263601A4B1A66FFF733FD054636
:1018200023689A013FF5A8AEFFF72CFD401B022864
:10183000F6D9CCE6FFF726FD801B0228D6D9C6E6EE
:10184000FFF720FD054623689B017FF595AEFFF766
:1018500019FD401B0228F6D9B9E6012B3FF4A2AED0
:1018600060682B6A00F480329A427FF49BAE6B6A08
:1018700000F47010C01A18BF0120A9E60010024041
:10188000000042420D4A536803F00C01082912D1AE
:101890000B48C3F38341DB03405C09D55368094A15
:1018A000C3F340435043084AD35CB0FBF3F07047A6
:1018B000064B584370470348704700BF0010024072
:1018C000E6BA000800127A00E4BA000800093D00F8
:1018D0002DE9F0410D46044610B90120BDE8F08124
:1018E000444A136803F007038B4228D321688E070C
:1018F00030D4CA0743D43F4A136803F00703AB420E
:1019000065D822683C4D12F0040F6CD1130706D540
:101910006B68226923F4605343EAC2036B60FFF7EC
:10192000B1FF6B68354AC3F30313D35CD840344B23
:101930001860344B1868FFF763FC0020CEE713688B
:1019400023F007030B431360136803F007038B4274
:10195000C3D1CBE7284B11F0040F1EBF5A6842F4E5
:10196000E0625A60080742BF5A6842F460525A6007
:101970005A68A06822F0F00202435A60B9E7626830
:101980001D4E012A33681AD113F4003FA5D07368A5
:1019900041F2883823F0030313437360FFF772FCAE
:1019A00007467368626803F00C03B3EB820FA2D0A2
:1019B000FFF768FCC01B4045F3D903208EE7022ADD
:1019C00002D113F0007FE1E713F0020FDEE71368A6
:1019D00023F007032B431360136803F00703AB42A4
:1019E0007FF47BAF8DE76B68E16823F4E0630B4322
:1019F0006B608BE7002002400010024038E30008D3
:101A00000C02002004000020044B054A5B68C3F36D
:101A10000223D35C034A1068D8407047001002408C
:101A200030E300080C020020044B054A5B68C3F356
:101A3000C223D35C034A1068D840704700100240AC
:101A400030E300080C020020036A026A70B522F03D
:101A500001020262446882690D6822F073022A431F
:101A60008D6823F002032B430A4DA8420BD1CD68A9
:101A700023F008032B4324F44074D1E90556354381
:101A800023F004032C43446082614A68426303628A
:101A900070BD00BF002C0140036A026A70B522F4D9
:101AA000807202624468C2690D6822F073022A43A0
:101AB0008D6823F4007343EA05230B4DA8420DD132
:101AC000CD6823F4006343EA052324F44054D1E9AC
:101AD0000556354323F4806344EA05144460C2612B
:101AE0004A68C263036270BD002C0140036A026A47
:101AF00030B522F4805202624468C2690D6822F453
:101B0000E64242EA05228D6823F4005343EA053396
:101B1000064DA84202BF4D6924F4804444EA85146E
:101B20004460C2614A680264036230BD002C014017
:101B30007047000090F83D30012B1CD102230F4A62
:101B400080F83D30036893420AD0B3F1804F07D04C
:101B5000A2F59432934203D002F58062934204D1FD
:101B60009A6802F00702062A03D01A6842F00102BE
:101B70001A60002070470120704700BF002C014010
:101B800070470000174A036890420AD0B0F1804FB6
:101B900007D0A2F59432904203D002F580629042C1
:101BA00007D14A6823F070031343CA6823F44073D3
:101BB00013434A6923F08003134303608B68C362B5
:101BC0000B688362074B984204BF0B6903630123D0
:101BD00043610369DB0742BF036923F0010303612B
:101BE000704700BF002C014010B5044630B390F898
:101BF0003D3003F0FF021BB980F83C20FFF798FF4F
:101C00000223206884F83D30211DFFF7BBFF01232C
:101C1000002084F8463084F83E3084F83F3084F861
:101C2000403084F8413084F8423084F8433084F8FE
:101C3000443084F8453084F83D3010BD0120FCE785
:101C400010B5044630B390F83D3003F0FF021BB9E5
:101C500080F83C20FFF794FF0223206884F83D3091
:101C6000211DFFF78FFF0123002084F8463084F800
:101C70003E3084F83F3084F8403084F8413084F8B6
:101C8000423084F8433084F8443084F8453084F896
:101C90003D3010BD0120FCE7036A026A70B522F0F6
:101CA00010020262446882690D6822F4E64242EA48
:101CB00005228D6823F0200343EA05130B4DA8424B
:101CC0000DD1CD6823F0800343EA051324F440646A
:101CD000D1E90556354323F0400344EA85044460C6
:101CE00082614A688263036270BD00BF002C0140BC
:101CF00038B590F83C300446012B4FD00120082A1B
:101D000084F83C003AD006D8BAB1042A26D0002381
:101D100084F83C3038BD0C2AF9D12068FFF7E6FE84
:101D2000C3690A6943F40063C361C36923F4806330
:101D3000C361C36943EA02232EE02068FFF784FEF3
:101D400083690A6943F008038361836923F004030C
:101D500083618369134383610020D8E72068FFF71C
:101D60009BFF83690A6943F400638361836923F4F9
:101D700080638361836943EA0223ECE72068FFF70D
:101D80008BFEC3690A6943F00803C361C36923F08A
:101D90000403C361C3691343C361DDE70220B9E7EC
:101DA00010B50124036A01F01F018C4023EA0403EB
:101DB0000362036A8A401A43026210BD08B529B95A
:101DC00090F83E30012B1DD001202EE0042907D1D0
:101DD00090F83F30012BF7D1022380F83F3014E018
:101DE000082907D190F84030012BEDD1022380F86B
:101DF00040300AE090F84130012BE5D1022380F811
:101E0000413002E0022380F83E3000680122FFF7F3
:101E1000C7FF0F4B984209D0B0F1804F0BD18368B8
:101E200003F00703062B0DD1002008BD436C43F4DB
:101E300000434364F3E7074B9842F0D003F5806317
:101E40009842ECD0036843F001030360ECE700BF65
:101E5000002C014000040040FFF7B0BF026802F10F
:101E60000C0353E8003F23F490730C3242E8003136
:101E700002680029F2D102F1140353E8003F23F075
:101E8000010302F1140C4CE800310029F3D1036B7B
:101E9000012B0BD102F10C0353E8003F23F0100398
:101EA00002F10C0C4CE800310029F3D1202380F81A
:101EB000423000230363704710B504460368C168CD
:101EC0001A6922F440520A431A6182680069D9688B
:101ED0000243606921F4B05121F00C0102430A432E
:101EE000DA605A69A16922F440720A435A610E4AC3
:101EF000934215D1FFF798FD192343436268206888
:101F00009200B3FBF2F36422B3FBF2F102FB113354
:101F10001B013233B3FBF2F303EB0113836010BDFB
:101F2000FFF772FDE8E700BF00380140F7B505464E
:101F30000C4617461E462A68136834EA030301D18B
:101F4000002021E0701CF7D0FFF79CF9C01B8642EF
:101F50001CD3DEB12B68DA685107ECD5802CEAD0AF
:101F6000402CE8D01A681207E5D5002401941A68BD
:101F7000284601925B680193019BFFF76FFF0823DE
:101F800001206B6485F8404003B0F0BD0320FBE7FF
:101F9000704710B5044648B390F8413003F0FF0293
:101FA0001BB980F84020FFF7F3FF2423226884F850
:101FB0004130D368204623F40053D360FFF77CFF01
:101FC000236800201A6922F490421A615A6922F0AB
:101FD0002A025A61DA6842F40052DA60202360640F
:101FE00084F8413084F84230606310BD0120FCE782
:101FF0002DE9F843984690F841300446202B0E46D0
:1020000017463FD100293FD0002A3DD0212300258B
:10201000456480F84130FFF735F9A3688146B3F590
:10202000805FA784E78403D123690BB935461E4638
:10203000E38C9BB253B943464A4640212046FFF702
:1020400075FF202350B984F841300AE043464A46E0
:1020500080212046FFF76AFF28B12023032084F85F
:102060004130BDE8F88322684EB935F8023BC3F32E
:1020700008035360E18C013989B2E184D8E716F88E
:10208000013BF6E70220ECE70120EAE7064B18885F
:10209000064B80B21B889BB2984238BF00F5007097
:1020A000C01A80B2704700BF100300200E0300204A
:1020B00008B5344805F0E2FB334805F0DFFB334850
:1020C00005F0DCFB324805F0D9FB324805F0D6FBC1
:1020D000314805F0D3FB314805F0D0FB304805F01E
:1020E000CDFB304805F0CAFB294805F0C7FB2E4858
:1020F00005F0C4FB2D4805F0C1FB2D4805F0BEFBE3
:102100002C4805F0BBFB224805F0B8FB2A4805F037
:10211000B5FB2A4805F0B2FB294805F0AFFB29487A
:1021200005F0ACFB284805F0A9FB194805F0A6FB13
:10213000264805F0A3FB264805F0A0FB254805F03E
:102140009DFB254805F09AFB114805F097FB2348B5
:1021500005F094FB224805F091FB224805F08EFB28
:10216000214805F08BFB214805F088FB204805F04D
:1021700085FB204805F082FBBDE80840014805F0DA
:102180007DBB00BFF3D10008F6BA00087EBB000893
:10219000BABB000842BC000878BC0008B3BC000809
:1021A000EFBC00082ABD000866BD00089CBD000801
:1021B000D8BD000817BE000857BE00088DBE000835
:1021C000CBBE000808BF000849BF00088DBF00084B
:1021D000C4BF0008FFBF000839C000086CC0000879
:1021E000A2C00008DDC0000819C1000856C10008DF
:1021F00092C10008CEC100082DE9F0434D4B85B0D7
:10220000986CFEF755FD4C49FEF7A6FD4B49FEF7CD
:1022100057FE4B4B8046986CFEF74AFD4649FEF749
:102220009BFD4649FEF74CFE464B04461868FEF7F8
:102230003FFD4149FEF790FD4049FEF741FE424B0C
:1022400005461868FEF734FD3B49FEF785FD3B491E
:10225000FEF736FE3D4B06461B783D48033BDBB29E
:10226000042B96BF3B4A3C4F52F8237005F006FB07
:102270003A4805F003FB3A4805F000FB394805F001
:10228000FDFA4046FEF7BAF8804628468946FEF732
:10229000B5F842464B46CDE90001334805F086FAD1
:1022A0002046FEF7ABF8044630460D46FEF7A6F88A
:1022B00022462B46CDE900012C4805F077FA2C4E3A
:1022C0002C4805F0DBFA39462B4805F06FFA3068E8
:1022D000FEF794F80446B0680D46FEF78FF8CDE996
:1022E00002017068FEF78AF8244E22462B46CDE99B
:1022F0000001234805F05AFA3068FEF77FF80446DB
:10230000B0680D46FEF77AF8CDE902017068FEF775
:1023100075F82246CDE900012B461A4805F046FA29
:10232000194805F0ABFA0A4805B0BDE8F04305F0DE
:10233000A5BA00BF880700200000B4430000614533
:1023400030070020740500207005002040000020A8
:10235000F3D10008D4DE000856C200085AC20008B3
:10236000B8C20008ECC200084AC3000879C30008DC
:102370009C050020A8C3000806C4000878050020BA
:1023800024C4000852C4000880C40008002310B50B
:1023900003638364C36403640446FEF773FF01238D
:1023A000A4F85430206510BD002310B5C36003614C
:1023B0000446FEF767FFE06110BD000030B504463B
:1023C00085B0264804F039FA10B1244804F09EF98B
:1023D000234804F032FA10B1214804F097F921485B
:1023E000FFF7D4FF2048FFF7D1FF00231D4A1F4904
:1023F00082F855301C4A82F8553000220A601C4988
:102400000A601C4A13741C4A13741C4A13701C4A39
:1024100013701C4A13601C4A13601C4A1370FEF7A9
:1024200031FF1B4A1368C31AB3F57A7F13D9194BCE
:10243000106019491A681948194B1A4D1B68098808
:1024400000882D7809B200B2CDE901050091164847
:10245000214605F0ABF905B030BD00BF880700206C
:102460003007002030060020CC050020FC020020B0
:10247000F8020020200000200C000020EC020020C8
:10248000D8060020B4060020B0060020B9060020BF
:10249000D4020020A4060020C6060020C4060020A6
:1024A000A8060020C3060020E1C400080138C0B21D
:1024B0000428F8B532D8244B53F82070234B1E5C07
:1024C000234B1D5C0024234B23481E70234B1C70A0
:1024D000234B1C60234B1C70234B1C70FFF756FFD3
:1024E0002248FFF753FF1C4B214A83F855401F4BEE
:1024F00083F85540002313601E4A13601E4A1F4B89
:1025000085B11F48FFF75AFF1B4A1C4B1470062267
:102510001A701C48BDE8F84005F0B0B900251A4F04
:102520002E46CFE70121117005221A70174B1D604E
:10253000FEF7A8FE164B324618603946BDE8F84053
:10254000144805F033B900BFC0DE0008BBDE000848
:10255000B6DE0008BA06002030060020B9060020CA
:10256000B0060020D8060020D9060020CC050020A7
:10257000F4020020F002002034000020400000207F
:1025800038C500084BC5000834C50008AC0600205B
:10259000BC06002098C500082DE9F04F93B09B467B
:1025A0009DF870300C920E931D9B82460D931E9BDE
:1025B0000D460993209BBDF97C800A93219B0F93C4
:1025C00082EAE273A3EBE2731FFA83F9B9F5C87FDD
:1025D00088BF4FF00009A54B88BFCDF830901A781E
:1025E000022A03D01B78032B40F07D81002385F85D
:1025F000553001239E499F4A0B939F4B8A4508BF44
:102600001A46C845089203DB0B9B002B00F0918211
:102610000C98FEF74DFB9BF8102007464FF07E53B9
:10262000002A40F07C81CBF804300123CBF8000075
:102630008BF81030FEF726FE0646286D301AFEF79E
:1026400033FB8E49FEF73CFC8D490446FEF722FD24
:10265000002840F091814FF07E512046FEF738FD72
:1026600008B14FF07E5429682E653846FEF774FB9A
:102670000646A96C3846FEF765FA2146FEF720FCAF
:10268000A968AF64FEF768FB3146FEF75DFA2C6E71
:1026900006462146FEF71CFD00B12646EC6D30468D
:1026A0002146FEF7F7FC00B126464FF07E5130463A
:1026B000FEF70EFD002840F0618130467149FEF7BB
:1026C000E9FC00B16F4E0E9B0BB106F100460021F4
:1026D0003846FEF7FDFC002840F0538107F1004426
:1026E0004046FEF7E5FA01462046FEF72BFA0021A8
:1026F0008046FEF7CFFC08B14FF000080B9B002B83
:1027000000F0418160480F99FEF726FB5F490446BF
:102710004046FEF7BFFC002800F03A8140465B4986
:10272000FEF7CEFB00218046FEF7BEFC002840F0FD
:102730002D814FF07C514046FEF70EFB04230146ED
:102740004046CDE90E13FEF7BBFB0E99FEF7FCF9F0
:102750004FF07C51FEF700FB0F9B0146013BEFD190
:102760002046FEF7F9FA804621464046FEF7B0FCC7
:1027700000B1A04600213046FEF7A0FC002840F042
:10278000098106F1004441462046FEF7A1FC00B154
:10279000444600213046FEF791FC08B904F100449C
:1027A0000B9B002B00F01581394B1B78002B00F0A0
:1027B000F380384EB9F1180F98BF374E4146304676
:1027C000FEF786FC00B1464600212046FEF776FC67
:1027D000002840F0E380304604F10041FEF778FC29
:1027E000002840F0ED80089B00211E683046FEF76F
:1027F00047FC68B930462949FEF7AEFA2849064633
:102800002046FEF7A9FA01463046FEF79DF9044638
:10281000089B002120461C60FEF750FC002840F079
:10282000FB8004F1004600212046FEF747FCB0FA89
:1028300080F9504604F003F800210B902046FEF783
:102840003DFCDDE90A324FEA5919002800F0E68024
:10285000934227DD531C0A9949429142C0F2E2801B
:10286000B9F1000F00F0E5801CE000BFBA060020BF
:1028700088070020F0020020F402002000007A44C3
:102880006F12833A000080BF3333333F0000204390
:10289000C2060020AE47213E8FC2F53C9A99193FEF
:1028A000CDCCCC3E504603F0C8FF10B1504603F0EB
:1028B0002DFF2846FFF76AFD00238BF81030002318
:1028C000099A1360089A1360A34B1A78002A40F003
:1028D0000B8101220D991A70A0480A9A13B0BDE825
:1028E000F04F04F063BF91F855300BB9002381E637
:1028F00008F10C031BB24B450ADB03F09EFF0028D6
:1029000000F0F280504613B0BDE8F04F03F0FEBE79
:102910000023084681F85530FFF738FDE6E7DBF87D
:102920000810DBF804001193FEF70EF9DBF80C1029
:102930000446FEF709F901462046FEF7C1FA0646AD
:10294000DBF80020384611461092FEF7FBF83146BE
:10295000FEF702FA109A1146FEF7F6F8119B31467F
:10296000CBF8000007461846FEF7ECF82146FEF7C4
:10297000F3F9CBF804005DE6794C74E64FF07E562F
:10298000A1E63C46ACE64FF07C50BCE60021E7E611
:10299000A046E9E63446F6E6724E0BE7314620469D
:1029A000FEF778FB00283FF41EAF00212046FEF71B
:1029B0008FFB58B9089B00211868FEF77FFB28B9E8
:1029C00069483146FEF7C8F904460CE74FF07E50DF
:1029D000F7E700212046FEF771FBD8B904F100406B
:1029E0006249FEF757FB00283FF4FDAE504603F066
:1029F00024FF10B1504603F089FE2846FFF7C6FCBD
:102A000000238BF810300023099A1360012385F806
:102A1000553069E02046E3E7264604E7934208DDA7
:102A2000531E18E70A9A93423FF73CAF99423FF78B
:102A300039AF099B4E4930461C68FEF78DF9FEF709
:102A400077FB44F62063181A984228BF1846B0F561
:102A5000487F38BF4FF44870FEF726F9002105463D
:102A60002046FEF70DFB78B94FF07C512046FEF76B
:102A700073F94FF07C5104462846FEF76DF9014684
:102A80002046FEF761F80546099B4FF07C511D601A
:102A90002846FEF759F8FEF74BFB44F620639842B0
:102AA00028BF18464946B0F5487F8346504638BF90
:102AB0004FF4487B03F0E4FC504603F0BEFE0128CF
:102AC00002D0504603F03AFD5946504603F00CFD43
:102AD000284A2949BAEB020218BF01228B5C013354
:102AE000DBB2042B03D88B5413B0BDE8F08F002366
:102AF00038468B54FDF782FC044630460D46FDF700
:102B00007DFC064640460F46FDF778FC8046504661
:102B1000894603F094FEDDE90C21CDE906B0CDE94C
:102B20000489CDE90267CDE90045144804F03EFE72
:102B3000DAE7504603F081FE10B1504603F0E6FD9F
:102B40002846FFF723FC00238BF810300023099A56
:102B50001360089A59E700BF32020020D5C500086B
:102B60006F12833A6666E63E000080BF8FC2753CF6
:102B700000009646880700203002002003C60008A7
:102B8000F0B51E4E3368DB689B0436D572B61C4D1B
:102B90001C4B1D4F01442A881C880132A4B2C2F389
:102BA0000802A24208BF1C8810F801CB02BF013402
:102BB000C4F308041C802C888842A4B207F804C01F
:102BC0002A80E8D162B611480278B2B929881A88F9
:102BD00089B292B2914210D0012202701A8892B248
:102BE000B95C1A88C9B20132C2F308021A8033688C
:102BF0005960DA6842F08002DA60F0BD28080020EF
:102C0000100300200E030020120300200D030020FB
:102C10000FB407B504AB53F8042B80210648019389
:102C200004F02CFF011E02DD0348FFF7A9FF03B0EB
:102C30005DF804EB04B07047540200201FB5034652
:102C40000D480268D268920413D58DF8063000232F
:102C50008DF807304FF0807343F63C420293012316
:102C6000ADF804208DF80C300922142301A9FFF7D8
:102C7000BFF905B05DF804FBE007002010B504467D
:102C8000FFF7DCFF2046BDE81040FFF70FBC000057
:102C90000021F0B5934B944D1A78944BD2B289B081
:102CA000995418781C46A0F10A02D2B2162A194685
:102CB00003F1010362D825FA02F2D207F1D48C4A5B
:102CC000601E133110F8013F0BB188425AD1002326
:102CD00088498948137005F026F82578782D7DD02D
:102CE00059D8592D00F0A5805A2D58D0582D75D09F
:102CF00003222046814904F079FF38B1032220469F
:102D00007F4904F073FF002840F0D18000238DF844
:102D1000173006930023079307AB0093794906AB5E
:102D20000DF11702E01C04F009FE032840F0BA8000
:102D30009DF81730744943F02003742B06A807BF91
:102D4000724C734D734C744DFDF7E2F9002840F05E
:102D50009780079B23600622704B1A70FEF792FA49
:102D60006F4B963018600798FDF748FBCDE90001DE
:102D700029466C4806AAFFF74BFF01E000289ED1C8
:102D800009B0F0BDA3F16105192D9CBF203BDBB25A
:102D900002F8013B96E7792D4BD07A2DA8D16248F5
:102DA00003F02AFC614803F027FC0023604A5948DD
:102DB0001360604A1360FFF7F7FA5448FFF7F4FA1C
:102DC0000622564B1A70FEF75DFA554B9630186086
:102DD000594809B0BDE8F040FFF71ABF0023574932
:102DE00007AA601C079304F0A9FD01281DD15449CE
:102DF0000798FDF7B1FF5349FEF762F8FEF772F945
:102E00000622464B4A4C1A702060FEF73BFA444BB0
:102E1000963018600798FDF7F1FA0B4621680246D4
:102E200049480091FFF7F4FEAAE74848FFF7F0FE93
:102E3000A6E70023414907AA601C079304F07EFD22
:102E400001281BD13E490798FDF786FF3D49FEF753
:102E500037F8FEF747F90622304B364C1A702060DF
:102E6000FEF710FA2E4B963018600798FDF7C6FA59
:102E70000B462168024600913548D3E73548D5E72F
:102E8000354906A8FDF744F910B9079B636062E76E
:102E9000324906A8FDF73CF9002840F0FB83079B68
:102EA000A36058E72E48FFF7B3FE2E48BEE705F0B3
:102EB000DF034B2B09D10522184B1A70FEF7E2F9FC
:102EC000174B96301860284883E74D2B50D10622C7
:102ED000124B1A70FEF7D6F9114B96301860234842
:102EE00077E700BF03070020090040000407002027
:102EF000260500206AC600081205002037C7000812
:102F00003BC700083FC700084AC7000878050020F3
:102F100045C600089C0500204AC600084000002065
:102F2000DC0600207CC7000888070020300700204E
:102F300074050020700500200CC7000847C7000872
:102F4000000061450000B4436DC6000890C600084B
:102F5000BCC60008E0C600084DC7000850C70008FE
:102F60009FC70008CAC70008E2C700080BC80008CE
:102F700008222046A14904F039FE30B1082220463B
:102F80009F4904F033FE002834D100239D498DF879
:102F90001830079306AA07AB04F1080004F0CEFC32
:102FA000022821D19DF8183043F02003702B15D151
:102FB000954B079A1A60FEF765F9944B96301860A6
:102FC0009DF818309248934943F02003702B18BFA6
:102FD0000146079A9048FFF71BFED1E6742B01D1FA
:102FE0008E4BE6E78E4821E78C4B8E481A68864B5D
:102FF0001968F0E7052220468B4904F0F7FD30B14F
:1030000005222046894904F0F1FD002844D14FF4FF
:103010009673874907AA601D079304F08FFC079DEC
:10302000844BB5F5006FA8BF4FF40065322DB8BFD3
:1030300032259A6C804B814C9B6C511B581B2B4446
:10304000C4E90531E36100232A44C4E90220226176
:1030500001227B4E216033707A4B60601A70FEF75C
:1030600011F90722784B1860784B79481A7022685A
:10307000784B1A606268784B1A60FFF795F97748C9
:10308000FFF792F929463278754804F08FFB0799CB
:103090007448FFF7BDFD73E604222046724904F030
:1030A000A5FD28B104222046704904F09FFD80B997
:1030B0000022644B5F481A7003F028FB5E4803F05F
:1030C00025FB0622614B05201A70FFF7B7FD684803
:1030D0007FE604222046674904F088FD28B10422D7
:1030E0002046654904F082FD20B909B0BDE8F040F2
:1030F000FEF7DEBF06222046604904F077FD28B1C6
:10310000062220465E4904F071FD20B909B0BDE8F1
:10311000F040FFF771B8042220465A4904F066FDDA
:1031200028B104222046584904F060FD70B90023FC
:10313000484A1360484A13600622444B1A70FEF74F
:10314000A1F8324B96301860504842E604222046DF
:103150004F4904F04BFD28B1042220464D4904F0AC
:1031600045FD48BB043425462B780134202BFAD08A
:1031700002222846484904F039FD28B10222284697
:10318000464904F033FD20B90122454B45481A70E9
:103190001FE603222846444904F028FD28B10322F3
:1031A0002846424904F022FD20B900223C4B404809
:1031B0001A700EE63F480CE6032220463E4904F012
:1031C00015FD20B90120FFF759FD3C4801E6082212
:1031D00020463B4904F00AFD20B90220FFF74EFDCE
:1031E0003848F6E506222046374904F0FFFC00285F
:1031F0006ED10320FFF742FD3448EAE52EC80008EF
:1032000037C8000840C80008C8050020DC060020B8
:1032100045C600084AC6000862C80008C405002068
:1032200047C800087FC800089DC80008A3C8000858
:1032300044C800088807002030070020440500200B
:1032400064050020650500204005002040000020A6
:103250009C050020740500207005002078050020E2
:10326000A9C80008DDC8000800C9000805C9000891
:103270000AC9000818C900081DC9000822C90008A9
:1032800029C9000830C9000835C900083AC9000832
:1032900059C900085EC9000863C9000866C900086A
:1032A0000403002069C900088CC9000890C90008FF
:1032B00094C90008ABC90008CDC90008D1C90008ED
:1032C000FBC9000804CA000832CA000839CA00084D
:1032D00005222046934904F089FC20B90420FFF719
:1032E000CDFC914875E5914E3378052B1AD1542DBC
:1032F00010D8402D0AD82B2D01D02D2D12D18C495C
:103300008C4809B0BDE8F040FFF782BC413D8A4BD4
:10331000EDB204E0613DEDB2162D03D8874BEB40D2
:10332000DB07ECD403233370FDF7ACFF844B9630FE
:10333000186000224FF400518248FEF7F9F87C49EA
:103340008148FFF765FC2578A5F13F03362B00F295
:10335000A781DFE813F0E400A5019400A50188002F
:10336000A800A5017A0031018100C100A501A501D5
:10337000A501A501A501A5013C00A501A501A0008D
:103380007500CD00A501A501A501A501A501A50117
:10339000A501A501A501A501A5019400A50188002D
:1033A000A800A5017A0031018100B500A501A501A1
:1033B000A501A501A501A5013700A501A501A00052
:1033C0007500CD00614B624A62481A6001E5624CAB
:1033D0002068FDF713F80646A0680F46FDF70EF8C3
:1033E000CDE902016068FDF709F832463B46CDE9B8
:1033F00000015A48FFF70CFC594B5A4C1A7803212C
:103400005948FFF705FC2068FCF7F8FF0646A0685E
:103410000F46FCF7F3FFCDE902016068FCF7EEFF11
:103420003246CDE900013B465048FFF7F1FB04214D
:103430004F4B4D481A7809B0BDE8F040FFF7E8BBA4
:10344000424B4C4A4C481A60C3E4404B0021186878
:1034500003F00EF84948BCE43C4B0121186803F026
:1034600007F84748B5E4394C0021206803F008F814
:10347000206803F063F821684248203141E7334C6B
:103480000121206802F0FCFF206803F057F8216852
:103490003D48203135E72D4C206803F037F921688D
:1034A0003A4820312DE72A4803F048F8314803F024
:1034B00045F8042300223370354B36481A6088E4FF
:1034C000274A3548137883F0010111703349344A93
:1034D000012B08BF114614E7254A3248137883F0C0
:1034E000010111702D492E4A012B08BF114608E732
:1034F0002D4B1A788AB100241C702C4B16481C7076
:10350000FEF744FF1748FEF741FF134B284883F8A6
:103510005540144B83F855405BE4264859E4FEF7C8
:10352000C7FDF3E56DCA000873CA0008400000201B
:1035300004070020ABCA0008AD800C00AD804E002F
:10354000DC06002000100140D1CA0008380000202D
:1035500088070020DACA00083006002000CB0008E7
:1035600008000020CC05002025CB00083ECB000839
:103570003A0500203007002063CB00088ACB000802
:10358000AACB0008C7CB0008E3CB000800CC00089A
:103590002C07002011CC000830CC00084EC60008D3
:1035A0005DC600084BCC0008D8060020D9060020D4
:1035B00067CC00088FCC0008002300268DF8173058
:1035C000069307AB0093694906AB0DF11702601C27
:1035D000079604F0B3F903285FD19DF81750644CA7
:1035E000644B45F02005644906A8742D08BF1C46AD
:1035F000FCF78EFDF8B9079F604E38463146FDF75F
:1036000049FD08B1079606E05D4E38463146FDF7A4
:103610005FFD0028F6D1079820605A4B5A4C742D54
:1036200008BF1C46FCF7EAFE06AACDE900012146C8
:103630005648FFF7A0BB564906A8FCF769FD90B9AC
:10364000079F544E38463146FDF724FD08B10796D2
:1036500006E0514E38463146FDF73AFD0028F6D1D6
:1036600007986060D9E74D4906A8FCF751FD88B975
:10367000079F31463846FDF70DFD08B1079606E075
:10368000474E38463146FDF723FD0028F6D107980E
:10369000A060C2E7434806A9FBE44348FFF7C6BB66
:1036A000601C03F0CEF8562D06464CD010D82D2DB8
:1036B0002FD0522D12D02B2D1DD021783B48FFF753
:1036C000A7FA3B493B4809B0BDE8F04004F02BBBEA
:1036D000762D38D0772D2AD0722DEED13046FDF7D9
:1036E000E7FA354C0146206802F0A6FF2168324611
:1036F000324820319FE6304D0021286802F0C0FE9C
:103700003146286802F08AFF296832462C48203169
:1037100091E6294D0121286802F0B2FE3146286861
:1037200002F07CFF296832462648203183E6224D8C
:103730000146286802F0BEFF296806EBD6762248CB
:103740007210203177E644F620639E4228BF1E4661
:10375000B6F5487F38BF4FF44876174B31461868A6
:1037600002F0A0FE31461948CBE500BF40C7000873
:1037700030060020CC0500204AC700086F12833AAB
:10378000CDCC4C3D45C600084AC60008A9CC00086F
:103790004DC70008000020410000164350C7000834
:1037A0000AD7233C53C70008DDCC000891CD0008A0
:1037B000C5CD0008120500203800002038CD0008D3
:1037C00006CD00081FCD00084FCD000868CD0008C9
:1037D00010B4044606480368DB689B0405D58AB22A
:1037E0000A23214610BCFEF703BC10BC704700BF83
:1037F00070080020F0B5394BAFB01B78002B6AD0B1
:10380000FDF740FD364C2368C01A632863D9FDF7E5
:1038100039FD344B20609C6C334B9E6C334B1D68E0
:10382000334B1F68334B1868FCF7E8FDCDE90E01F8
:10383000B81BFDF73DFAFCF7E1FDCDE90C01384678
:10384000FDF736FA2C49FDF787FA2C49FDF738FBCE
:10385000FCF7D4FDCDE90A013046FDF729FA2649E7
:10386000FDF77AFA2549FDF72BFBFCF7C7FDCDE9FB
:103870000801234B1868FCF7C1FDCDE90601281BA0
:10388000FDF716FAFCF7BAFDCDE904012846FDF76D
:103890000FFA1949FDF760FA1849FDF711FBFCF71B
:1038A000ADFDCDE902012046FDF702FA1249FDF710
:1038B00053FA1249FDF704FBFCF7A0FD114ACDE9CC
:1038C0000001782110A803F0E1FF0A2382B210A9B9
:1038D0000D48FEF78DFB2FB0F0BD00BF04030020A4
:1038E0000003002088070020300700207405002016
:1038F00070050020680500200000B4430000614509
:103900006C050020C9CD00087008002030B50446C1
:10391000002002460A4D082115F8013B584043B2E9
:10392000002BBABF5B0083F007034300D8B24B1EE5
:1039300013F0FF01F3D10132D2B2A242EBD130BD7C
:10394000CB0600202DE9F74F40F6B83B1E46836CAE
:103950001446A2EB030A8AEAEA72A2EBEA725A451B
:10396000884605460C9F0D99DFF8509240F3FD8084
:10397000D9F80020002A40F0E180FDF783FCC9F867
:103980000000284602F059FF002840F00681214639
:10399000284602F0F3FDFDF775FC0446D8F81C003C
:1039A000201AFDF781F98649FDF7D6F98449814649
:1039B000FDF770FB002840F0F2804FF07E51484642
:1039C000FDF786FB08B14FF07E595046FDF770F9C0
:1039D0004946C8F81C408246FDF7BEF9D8F81010D9
:1039E000FDF7B2F877490446FDF772FB00B1754C5C
:1039F00020467549FDF74EFB00B1734CD8F80C100A
:103A00005046C8F81040FDF79DF84946FDF758FAB2
:103A1000D8F800108146C8F80CA05046FDF79CF974
:103A2000D8F8041082462046FDF796F90146504624
:103A3000FDF78AF8D8F8081004464846FDF78CF9D7
:103A400001462046FDF780F8D8F81890044649460C
:103A5000FDF73EFB00B14C46D8F8148020464146A5
:103A6000FDF718FB00B144464FF07E512046FDF7AC
:103A70002FFB002840F09A8020465449FDF70AFBAE
:103A8000002840F08F8000212046FDF721FB002810
:103A900000F0898039462046FDF75EF90021044692
:103AA000FDF7F8FA002840F086804FF07E5120465E
:103AB000FDF70EFB00287CD04FF07E504449FDF707
:103AC0004BF9FDF735FB44F62063181A984228BFDE
:103AD0001846B0F5487F38BF4FF44870FDF7E4F85A
:103AE0003768044600213846FDF7CAFA68B93846F7
:103AF0003849FDF731F9384907462046FDF72CF9DA
:103B000001463846FDF720F804464FF07C51204628
:103B10003460FDF719F8FDF70BFB44F6206398427B
:103B2000014628BF1946B1F5487F38BF4FF44871A8
:103B3000284603B0BDE8F04F02F0D6BC0191FDF776
:103B4000A1FBD9F80020801A58457FF61AAF234B05
:103B500001991A78002A7FF414AF012220481A70C4
:103B60000323524603F022FE0BE700231B4AC9F849
:103B7000003013700AF10203042B3FF602AF02F08B
:103B80005CFE10B1284602F0C1FD4046FEF70CFC79
:103B90000023336003B0BDE8F08FEC64FBE6DFF890
:103BA000209012E7094C04F1004473E74FF07E5473
:103BB00070E7204682E7002080E700BF3C05002038
:103BC0006F12833A00409C4500409CC5000080BFB6
:103BD000000096463333333F9A99993E3B050020C7
:103BE000F7CD0008234B73B51A682348234B1C6894
:103BF000836CD31A042B35DC04330ADA0123204901
:103C00000D789D4204D01F4D2D68002B2CD12A44E5
:103C10000B701D498B6CE31A042B27DC043309DA83
:103C200001231A4D2E789E4203D0194E3668FBB9F7
:103C300034442B70174BC264CC6401934FF07E5315
:103C4000154900930C48154BFFF77CFE144B224698
:103C50000193144B144900930B48144BFFF772FE69
:103C600002B070BD0023CAE7521BD1E70023D8E79A
:103C7000A41BDEE7740500208807002070050020E3
:103C8000C1050020C805002030070020C005002025
:103C9000C40500204AC600089C0500206C050020D1
:103CA00045C600083333333F7805002068050020FF
:103CB00030B5002589B0284B07959A69012442F058
:103CC00004029A619A6904A902F004020092009A1F
:103CD0009A69224842F008029A619A6902F0080241
:103CE0000192019A9A6942F010029A619A6902F06F
:103CF00010020292029A9A6942F001029A619B694B
:103D0000174A03F001030393039B536823F0E06316
:103D100043F00073536003230694CDE90435FDF7A7
:103D20002DFB4FF4704304A90E48CDE904350694E9
:103D30004FF40055FDF722FB022304A90A4807931C
:103D4000CDE90454FDF71AFB224629460648FDF743
:103D5000EFFB09B030BD00BF001002400008014079
:103D600000000140000C01400010014030B500256A
:103D700087B01B4B04959A6902A942F480429A616C
:103D80009B694FF4007203F480430193019B02236B
:103D9000CDE90223032313480593FDF7EFFA4FF40F
:103DA000806302A90F48CDE902350495FDF7E6FAD4
:103DB0004FF4E1330C4C0D492046C4E900130C23A9
:103DC000C4E90255C4E905352561E561FEF7E1F86E
:103DD0002268D36843F02003D36007B030BD00BF32
:103DE0000010024000080140700800200038014027
:103DF00030B5002587B01A4B0495DA6902A942F460
:103E00000032DA61DB69042203F400330193019B81
:103E10000223CDE90223032312480593FDF7AEFAEE
:103E2000082310480DEB0301CDE902350495FDF799
:103E3000A5FA4FF416530C4C0C492046C4E9001364
:103E40000C23C4E90255C4E905352561E561FEF797
:103E5000A0F82268D36843F02003D36007B030BDD8
:103E600000100240000801402808002000440040E3
:103E700030B5002587B01F4B0495DA6902A942F4DA
:103E80008022DA61DA691C4802F480220092009AEA
:103E90009A691A4C42F008029A619B694FF4806259
:103EA00003F008030193019B0223CDE902230323BE
:103EB0000593FDF763FA4FF4006302A90E48CDE9BC
:103EC00002350495FDF75AFA4FF4E1330C492046C8
:103ED000C4E900130C23C4E90255C4E90535256182
:103EE000E561FEF756F82268D36843F02003D360FB
:103EF00007B030BD00100240000C0140E007002078
:103F000000480040174B37B5DA69174C42F0010200
:103F1000DA61DB694FF0804203F001030193019BFA
:103F200047230025C4E9002341F63F73C4E9025347
:103F300080232046A3612561FDF756FE22682046B6
:103F4000D36843F00103D360FDF7F4FD2A46012155
:103F50001C20FDF7C1F91C2003B0BDE83040FDF77F
:103F6000EBB900BF001002409009002010B51E4BB5
:103F70008CB09A69002442F400629A619B694FF404
:103F8000006203F400630093009B0223CDE9012348
:103F9000032301A9154804930394FDF7EFF9144A8C
:103FA000144B104613604723C2E9013444F61F63E3
:103FB000C2E9033480239361FDF742FE21461422B7
:103FC00007A803F00BFE40F2DC5360210C22CDE980
:103FD0000513074805A9FDF78BFE0C210448FDF7E2
:103FE0003BFF0CB010BD00BF0010024000080140B4
:103FF00048090020002C014010B51D4B8CB0DA6937
:10400000002442F00202DA61DB6901A903F0020335
:104010000093009B0223CDE9013303231548049349
:104020000394FDF7ABF9144A144B10461360472371
:10403000C2E9013444F61F63C2E90334802393616B
:10404000FDF7FEFD2146142207A803F0C7FD40F24C
:10405000DC53602205A9CDE9052307480C22FDF7B2
:1040600047FE0C210448FDF7F7FE0CB010BD00BF61
:1040700000100240000C0140000900200004004034
:10408000164B37B5DA69164C42F00402DA61DB6987
:10409000144A03F004030193019B47230025C4E95C
:1040A000002341F63F73C4E9025380232046A361F5
:1040B0002561FDF799FD22682046D36843F001038E
:1040C000D360FDF737FD2A4601211E20FDF704F9D4
:1040D0001E2003B0BDE83040FDF72EB900100240AD
:1040E000B80800200008004010B514460A2392B218
:1040F0000248FDF77DFF204610BD00BF700800207C
:1041000000207047002070474FF0FF3070474FF09D
:10411000FF30704701207047074B1B681A69D107B1
:1041200008D5DA68D20705D56FF0010203481A6195
:1041300002F0F8BA704700BF9009002088070020FD
:10414000074B1B681A69D10708D5DA68D20705D56D
:104150006FF0010203481A6102F0E4BA704700BF31
:10416000B808002030070020144B82B01B681A6882
:10417000110706D5002201921A6801925A6801922D
:10418000019A1A68920616D50D4A5B681178DBB25F
:104190001E2905D81078411CC9B2117009490B5469
:1041A0000A2B01D00D2B03D10122074B1A7002E01C
:1041B00013781E2BF8D802B0704700BF700800209B
:1041C000030700200407002002070020324B13B52C
:1041D0001B681A68100706D5002201921A6801921E
:1041E0005A680192019A1A68510742BF5A68D2B2BE
:1041F0008DF801201A68920742BF5A68D2B28DF832
:1042000002201A68D40742BF5A68D2B28DF8032040
:104210001A68100615D5DA68110612D51F4A20490A
:1042200010880A8880B292B2904228D00A881D482D
:1042300092B2805C0A88C0B20132C2F308020A80DE
:1042400058601A68920625D501225C68164BE4B2C4
:104250001A70FDF717F8154B1860154B1A781E2ABF
:1042600005D819784A1CD2B21A70124A54540A2C32
:1042700001D00D2C0BD101220F4B1A700AE0002146
:104280000E4A1170DA6822F08002DA60D9E71B78F2
:104290001E2BF0D802B010BD28080020100300200B
:1042A0000E030020120300200C030020080300204E
:1042B000E1060020E2060020E00600200D030020B9
:1042C000754B73B51E6833689A061AD5734C7568BA
:1042D0002378EDB2062B00F29880DFE803F00409A2
:1042E0003060636752003C2D0BD10123237008E03E
:1042F0003B2D12D100236A4A137002222270694AB0
:10430000137033681B0706D50023019333680193AC
:1043100073680193019B02B070BD3A2D08D1012250
:104320005F4B1A700223002223705E4B1A70E8E77D
:104330003C2D6AD102225A4B1A700623F3E7584BE0
:104340001A78584B72B91A78052A06D81A78D1B259
:104350000132D2B21A70544A55541B78052BD0D969
:104360000423C3E71A780A2A06D81A78D1B2013290
:10437000D2B21A704C4A55541B780A2BC1D9032368
:10438000B4E7484A1378042B06D81378D9B201331E
:10439000DBB21370444B5D541378042BDFE7434BBF
:1043A0001D70DDE7012D30D105239FE7012D2CD1B4
:1043B0003B4B1A78002A2CD10520FFF7A7FA3A4B7D
:1043C0005A79824223D119785A7842EA012238492F
:1043D00012B20A809978DA7842EA0122354912B29B
:1043E0000A801A79344BD2B21A701A783349C2F360
:1043F00040120A701B78324AC3F380131370314B9A
:10440000314A1D7013680133136000236EE72F4A91
:10441000F8E71A78012A35D10B20FFF777FA234BFA
:104420001B788342F3D1204B19785A7842EA012253
:10443000274912B20A809978DA7842EA012225499E
:1044400012B20A8019795A7942EA012222490A8075
:104450009979DA7942EA012220490A80197A5A7A4E
:1044600042EA01221E4912B20A809A7A1D4902F0DC
:1044700001020A709B7A1C4AC3F3400313701B4B62
:104480001D70C2E71B78022BBFD1074B184A1B785F
:10449000DBB21370B9E700BFE0070020D7060020A9
:1044A000C9060020CA060020CB060020C80600204E
:1044B000C6060020C4060020C3060020C206002055
:1044C000C1060020C0060020A4060020A806002087
:1044D000A00600209E0600209C0600209A060020D0
:1044E00098060020960600209506002094060020DD
:1044F000B8060020FCF7BABE07B5074C4FF40051D0
:104500000648FDF71AF800230193019BA342F5D852
:10451000019B0133F8E700BF1FA107000010014015
:1045200007B572B6064C4FF400510648FDF705F882
:1045300000230193019BA342F5D8019B0133F8E7C7
:104540003F420F000010014010B590B0142200212E
:1045500008A803F043FB1422002101A803F03EFB4E
:1045600002244FF480330122CDE90D43CDE9062327
:104570004FF4E01306A80F93FCF7E8FF08B1FFF72C
:10458000CFFF0F23CDE901344FF480630390CDE9D1
:104590000430214601A8FDF79BF90028EFD110B0A7
:1045A00010BD00002DE9F04FC5B0FCF74DFEFFF740
:1045B000CBFF4AF6AA22B44BB44D1A6000231193E4
:1045C000AB694FF4005043F01003AB61AB690FA926
:1045D00003F010030E930E9B0123CDE90F0302237A
:1045E000AB4812930324FCF7C9FE00224FF400519C
:1045F000A748FCF79DFF6420FCF74AFE01224FF418
:104600000051A348FCF794FF6420FCF741FE013CF5
:10461000EBD1FFF74DFBFFF7A9FBFFF7E9FBFFF736
:1046200027FC224621462520FCF756FE2520FCF7D4
:1046300083FE224621462620FCF74EFE2620FCF76C
:104640007BFE224621462720FCF746FE2720FCF76A
:1046500073FE22460F214FF0FF30FCF73DFE6C6ADF
:104660008C48214603F0A2F8002C02DA8A4803F0B5
:104670009DF8610002D5894803F098F8A20002D5A0
:10468000874803F093F8E30002D5864803F08EF8DC
:10469000270102D5844803F089F8660102D58348D2
:1046A00003F084F8A00102D5814803F07FF8814827
:1046B00003F0E4F86B6A43F080736B6201F022FB55
:1046C000002800F075817C484AF6AA256E4C03F05C
:1046D000D5F82560FFF74AFC2560FFF78DFC2560C3
:1046E000FFF710FC2560FFF7CBFC744B25600693A9
:1046F00040F2465340F2DC5640F6C41B4FF4FA7ABF
:104700004FF448780593A3F68C23DFF8B491049313
:104710006C4B4A46CDE901B66B496C480393CDF822
:1047200000A00C2301F058FE694B2560694F0693E9
:10473000694B6A49CDE901B6694A6A480393CDF8E5
:1047400000A00C23CDE9047801F046FE25604FF06F
:104750007E55D9F80030624A1E641368DFF888B1CC
:104760001E64624B624ECBF80030624B624CCBF859
:104770000430624B5846CBF80840CBF85830CBF8A1
:104780006050CBF85C60FDF701FE5D4A5D4B9460C4
:1047900013605D4B002453604FF08143A9461046DF
:1047A00093651566D665594DFDF7F0FDDFF860A1FC
:1047B000584BC5F818902B604FF001090D936C60B1
:1047C000C5F808A0EC602C616E61FCF75BFD0D9BE9
:1047D000E86185F82090504D2B604FF07E536C605F
:1047E000AB61C5F808A0EC602C616E61FCF74AFD76
:1047F00040F246524949E861344885F8209001F07A
:10480000EDFE39464246374801F0E8FE0023444AAF
:1048100028481360434A136003F030F8424803F01D
:104820002DF8424803F02AF8414803F027F84148A0
:1048300003F024F8404803F021F8404803F01EF844
:104840003F4803F01BF83F4803F018F83E4B1A7836
:104850002AB100251D70FEF71BFA3C4B1D703C4B26
:104860001A78002A7CD000263A4D1E702A783A49E0
:104870003A4803F06EFA2B78344FDBB23B70FEF708
:1048800007FA3E702E706BE00030004000100240CE
:10489000001001406DCE00088ECE00089BCE0008AF
:1048A000A8CE0008BACE0008CBCE0008D1CE0008B2
:1048B000DCCE0008F3D10008EDCE00084AC600089F
:1048C000000900207B09ED409009002088070020A6
:1048D00045C60008E0FCFFFF1CC73141B8080020B6
:1048E0004809002030070020300600200AD7A33BEB
:1048F000000080BF00000C43A69BC43A000040406B
:10490000CC050020A69B443B0000DC429C05002017
:1049100017B7513852491D3A78050020BAFAFFFFFF
:10492000740500207005002046D00008A1D00008C2
:10493000CFD0000806D100082AD100084ED10008C7
:10494000A9D10008CBD100080207002003070020EE
:10495000E0060020E1060020E20600200407002017
:10496000FCF790FC8D4ADFF838821368C31A312BAC
:104970004CD910604FF400418A48FCF7D3FD002861
:1049800040F0A780884801F0C1FE884801F0BEFED3
:1049900098F80030013303F0070388F80030013B3A
:1049A000062B16D8DFE803F0222755626F748500C6
:1049B0007F4802F063FF7F4802F060FF7E4802F00C
:1049C0005DFF7E4802F05AFF7D4802F057FF7D48A8
:1049D0007AE6754D7C4B7D481D6002F04FFF7C48A8
:1049E00002F04CFF284601F0A9FD0FE06F4D764B19
:1049F00078481D60F1E7784802F040FFB4216A482A
:104A000001F058FEB421694801F054FEFCF73AFC6D
:104A1000724A05461368C31A132B40F25081106086
:104A200001216F48FCF77EFD022107466C48FCF728
:104A300079FD6C4906460B78002F40F059816A4A8F
:104A4000002B40F0FD800120087068490D60137054
:104A500029E1674802F012FF664802F00FFF66483E
:104A600002F00CFF654802F009FFCFE7644802F04E
:104A700005FF4D4801F062FD4C4801F05FFD00224A
:104A8000604B1A60C2E7604802F0F8FE5F48EAE750
:104A90005F4802F0F3FE5F4802F0F0FE5E4802F06D
:104AA000EDFE5E4802F0EAFE5D4802F0E7FE5D487A
:104AB000D9E75D4802F0E2FE5C4B5D4A19785D4B38
:104AC0005D48002918BF1A46114602F06FFE5B4888
:104AD000C9E798F80030022B23D14FF480513148B8
:104AE000FCF720FD30B930488568B5F5487F8DD991
:104AF000C83D0EE04FF400512A48FCF713FD002892
:104B000084D144F61F63284885689D423FF67EAFF6
:104B1000C835294601F0C6FC2946244801F0C2FCEC
:104B200074E7042BD9D0032B3FF470AF4FF48051BE
:104B30001C48FCF7F7FC80B9234D28688168B1F563
:104B4000487F02D9C83901F0ADFC286801F075FE34
:104B500000287FF45BAF286845E74FF40051114807
:104B6000FCF7E0FC40B944F61F63174D28688168E4
:104B70009942EAD8C831E6E74FF480410948FCF78A
:104B8000D1FC00287FF442AF0F4D28684178B1FA7C
:104B900081F1490901F074FCD7E700BF5002002001
:104BA00040000020000C0140880700203007002052
:104BB00015CF000864CF000876CF0008B5CF0008F5
:104BC000CACF0008EACF00083C000020F5D1000859
:104BD0002BD2000851D2000888D200084C020020D5
:104BE0000008014048020020410200204402002049
:104BF000ABD20008CED20008FAD2000822D30008B7
:104C000057D300082C07002091D30008B9D300081F
:104C1000D8D30008FBD300081FD4000844D40008F0
:104C20006ED40008ABD40008E0D40008650500206D
:104C300047CE00083DCE000803D500082AD500085D
:104C40001778002F2FD140F2DB519F4B1B68EB1AD6
:104C50008B4228D9012313709C4B9D481F609D4BAC
:104C60001F609D4B1F709D4B1F70FDF78FFB9C4875
:104C7000FDF78CFB9A4B052083F85570994B8BF808
:104C800055701C60984B1C60984B1F70062388F869
:104C90000030FDF7D3FFFCF7F5FA954B963018601E
:104CA000944802F0EBFD944F3A78002E7DD1934B5F
:104CB000002A57D101223A70914A1E70156098F867
:104CC0000030042B40F06C81FCF7DCFADFF8349202
:104CD0000546D9F800608C4F002E40F09C808B4B2D
:104CE000C9F800008A483E701E6002F0C7FD57E117
:104CF000002BD8D0874B1F78A7B998F800A0DFF811
:104D0000EC91BAF1050F12D18348FDF757FB06234A
:104D1000504689F8007088F80030FDF78FFF7F4813
:104D200002F0ACFD00237E4A13707A4A8FE601231D
:104D300089F80030052388F800307A4B1F707A4BD1
:104D40001F707A4B1F60FCF79DFA794B1860624B1D
:104D500002201F70634B1C60634B1C60FDF76EFFED
:104D60007448DDE71A78002AA9D1654A1268AD1A9D
:104D700040F2DB529542A2D901221A70564B1A78A2
:104D80008AB11E70564D554B51481E70FDF7FEFA04
:104D90002846FDF7FBFA68488BF8556085F85560A2
:104DA00002F06CFD8BE76548FAE7002A87D0534D87
:104DB0002A78CAB95B4B4B4E197802295A4902D05E
:104DC0001878032814D100221A70484B0A701A7000
:104DD0000623052088F80030FDF730FF424B584885
:104DE00034601C6002F04AFD00233B702B7066E7C4
:104DF000022018700A7001213C4B03201970052312
:104E000088F80030344B34601A70374B1C60FDF763
:104E100015FF4C48E6E73B78861B052B00F2B18472
:104E2000DFE813F00600210096000F043704870422
:104E30004FF47A61444801F035FB4FF47A614348FE
:104E400001F030FB0021404801F01AFB00213F48EF
:104E500001F016FBB6F5FA6F40F2A28001233B7019
:104E6000C9F800502CE0DFF8E0A0DFF8E0904FF444
:104E70009661504601F016FB40F2DC51484601F0C5
:104E800011FB224A1368EB1AB3F5AF7F10D99AF8D9
:104E900001105046B1FA81F14909156001F0F0FAAC
:104EA00099F801104846B1FA81F1490901F0E8FA90
:104EB00040F6B8339E4273D902233B70114B1D60FC
:104EC0000022124B1A606BE044020020740500209F
:104ED0003006002070050020D8060020D9060020EA
:104EE000CC050020F4020020F00200203400002055
:104EF000DC0600204DD500084002002038020020CA
:104F00003C0200202C070020280700202407002056
:104F1000C0D600084102002092D50008A9D500089B
:104F200048020020BA060020B9060020AC06002086
:104F3000BC060020D6D5000803D6000833D60008EA
:104F400058D6000885D600088807002030070020C2
:104F50004FF47A71AE48DFF8BCA201F0A3FA002149
:104F6000AB4801F08DFA504601F067FC012803D1EF
:104F70009AF80530012B0BD0A64801F0C7FBA02101
:104F8000A44801F097FB40F6C411A24801F08AFA48
:104F900040F6B8339E4203D90323C9F800503B7052
:104FA00098F80030062B03D1FEF71CFEFEF722FC1A
:104FB00098F80030072B3CD1974B1B78002B36D04C
:104FC000DFF85892964D99F80030914A55F83370B1
:104FD000926C05EBC3035E68BF1A8E4B0537D3F89E
:104FE00048A0FCF74FF90A2F8E4F00F2CF83A6EBB3
:104FF0000A0605360A2E00F2C9833B68C31AC72B7E
:1050000013D999F80010884B013101F0030155F8CC
:10501000312005EBC1051A606B68844D3860844807
:1050200089F800102B6002F0C1FBFEF7DBFDFEF7F4
:10503000E1FBFCF727F97F4D2B68C01AC72840F227
:10504000C080FCF71FF9286000F05EFE002800F029
:10505000B8808022002124A802F0C0FD98F800301A
:105060003FA8072B98BF744AA3F1050194BF52F8DB
:105070002320724A4B424B418DF80C31704B7149E1
:1050800023921A78704B002A08BF0B4610216F4AF2
:1050900002F0FCFB9DF80C31002B00F091836C4B6F
:1050A0001E886C4B36B286EAE670A0EBE67080B2E2
:1050B0001D88FBF7FDFD2DB2814685EAE570A0EB6A
:1050C000E57080B2FBF7F4FD634907464846FBF7FD
:1050D000FFFF002840F05C8348465F49FBF7F0FE85
:1050E0003D905D493846FBF7F3FF002840F05383BD
:1050F00038465949FBF7E4FE33461021574A3E90A3
:1051000024A802F0C3FB564A2B46102128A802F01F
:10511000BDFB4F4B188800B2FBF7CAFDDBF800104F
:10512000FBF71AFE4B4B0546188800B2FBF7C0FD93
:105130004C4B1968FBF710FE354B364A1B79127938
:10514000134340F02B8348492CA802F0ECFD474B59
:105150001B7803F0FF02002B00F02F83444912F06C
:10516000040F444B18BF0B4612F0020F0CBF2D2248
:105170004822182100920DF1C6003F4A02F086FB3A
:10518000FCF780F8FBF718F900223C4BFBF7B8FA64
:105190003B4B3C4A1B781278002B0CBF70235023EA
:1051A000002A0CBF74225422CDE90001CDE902325D
:1051B0001621354A0DF1DE0002F068FB23A800F04D
:1051C000A5FD324D2B7823B12878FDF76FF9002328
:1051D0002B702F4B1A78A2B100221A701C4B1F881B
:1051E0001C4B3FB21E88214B36B21D78FCF74AF8A3
:1051F000EDB2284BEA07186000F166832648FDF7F8
:10520000DDF8264F3B78052B68D1224E336847E006
:105210008807002030070020650500206405002075
:105220004405002040050020740500207005002082
:105230004ED70008E8020020E8DE000856C2000849
:105240000C03002055CE000851CE00086ED7000890
:10525000C6060020C40600200000204374D70008C2
:105260007CD70008CC05002084D70008C3060020A6
:105270005ACE00085FCE0008A0D7000800408F403B
:10528000080000203A050020AAD70008B806002030
:10529000C0060020BC060020DFD700084000002028
:1052A000E3B1FBF7EFFF3368AE4DC31AB3F5FA6F06
:1052B00040F2AC84AC4802F0E1FAAC4801F026FAC6
:1052C000AB4801F023FAAB48FDF760F8AA48FDF7B8
:1052D0005DF803233B70002333602B60FBF7D2FFA4
:1052E000A64D2B68C01AB0F5FA7F65D3FBF7CAFF4D
:1052F0002860A34D2B68DB689F045DD543F63C53C3
:105300009A48ADF88C30826B836C9342B8BF1346D9
:105310001946C36B9942D4BFC2EB0103C2EB03032E
:10532000C16BC3EB03238A1A93FBF2F3904A8DF807
:105330008E30916B936C8B42B8BF0B461E46D36B7D
:105340009E42D4BFC1EB0603C1EB0303D66BC3EB94
:105350000323711A93FBF1F312798DF88F300379DF
:1053600013445B108DF8903001F062FA854B9DF884
:105370008D101B785E1F73427341021E18BF0122FD
:1053800042EA430200238DF892309DF88C308DF86C
:1053900091200B449DF88E1028460B449DF88F10E9
:1053A0000B449DF890100B441A448DF893200A2367
:1053B000082223A9FCF71CFEFBF764FF724D2B6843
:1053C000C01A952840F20D81FBF75CFF6F4B2860F7
:1053D0001B68DB68990440F10481FCF757FEB0F5C7
:1053E0009A7F80F0FE80DFF8A8816A4FB8F800004D
:1053F00000B2FBF75DFCDBF80010FBF7ADFC0546E7
:10540000388800B2FBF754FC5B4B1968FBF7A4FC2F
:105410004FF07E5106462846FBF75AFE002840F022
:10542000028428465C49FBF735FE00B15A4D4FF027
:105430007E513046FBF74CFE002840F0F7833046A3
:105440005549FBF727FE00B1534E544B1B78002BF8
:1054500040F0EF834B4B1B78052B14BF4D224122AC
:105460004F4BB8F800803F881B780B92C3F3400382
:105470000A93414B0FFA88F85868FAF7BFFFCDE955
:105480000801DBF80400FAF7B9FFCDE90601304660
:10549000FAF7B4FFCDE904012846FAF7AFFF3FB2AF
:1054A000CDE90201434660213E4A009723A802F05D
:1054B000EDF9051E07DD294623A8FDF761FB294606
:1054C00023A8FEF785F9314B1B68DB689A0431D5B8
:1054D000FCF7DCFDB0F59A7F2CD2334A334B344FC6
:1054E0001B881188334A09B21088334A80B2158864
:1054F000324AADB21688324A36B212783F781BB2C1
:10550000003F18BF0127003A18BF012242EA4702B4
:10551000CDE90362CDE901052A4A009113A8402193
:1055200002F0B4F9292113A8FDF72AFB292113A8B9
:10553000FEF74EF9154B1B68DB689B0451D5FCF751
:10554000A5FDB0F59A7F4CD21F4B204A1B781278EC
:105550002021009213A81E4A02F098F90546014640
:1055600038E000BFAC06002049D9000888070020B9
:105570003007002030060020CC050020E402002087
:10558000E007002040000020E00200202808002062
:10559000C6060020C4060020000080BFC10600200F
:1055A000C30600209DD900089E060020A00600200A
:1055B000950600209C0600209A06002098060020F0
:1055C00096060020DAD90008BA060020B9060020A5
:1055D000FBD9000813A8FDF7D3FA294613A8FEF754
:1055E000F7F84AF6AA229B4B9B4D1A60FBF74AFE3E
:1055F0002B68C01AB0F5FA7F14D3FBF743FE28607E
:10560000964D2B7873B1FBF73DFE954B1B68C01A86
:10561000B0F5FA5F06D900234FF4FA5191482B7088
:1056200002F0C4F8FBF72EFE8F4B1B68984280F007
:10563000028300224FF400518C48FBF779FFFFF7FB
:1056400005B94FF47A718A48DFF828A200F02AFFE2
:105650000121874800F014FF504601F0EEF80128C0
:1056600003D19AF80530012B0BD0824801F04EF897
:10567000A021804801F01EF840F6C4117D4800F0DA
:1056800011FF40F6B8339E427FF68AAC0423FFF741
:10569000E6BB3046FBF708FB7749FBF711FC77497F
:1056A000FBF75AFBFBF744FDC0F51C6A0AF1040A3C
:1056B000BAF57A7F38BF4FF47A7ADFF8B89151465D
:1056C0006B4800F0EFFE99F80530012B05D14846F4
:1056D00001F01CF8484600F031FF5146DFF8A0A168
:1056E000644800F0DFFEDAF80030EB1AB3F5FA7F19
:1056F00016D95F48CAF800504178B1FA81F14909DA
:1057000000F0BEFEDAF80030EB1AB3F57A7F07D965
:1057100099F801105748B1FA81F1490900F0B0FE3B
:10572000B6F57A6F7FF63CAC05233B70554B1D6098
:1057300036E44F4D41F28831284600F0B3FE41F285
:1057400088314C4800F0AEFE0021284600F098FE5B
:105750000121484800F094FEB6F5FA6F7FF620ACC0
:10576000494802F08BF80023484A494888F800303D
:105770001560C9F800303B7002F080F84548FFF72B
:10578000B4BA00233B70C9F8003009E438604CE437
:105790004FF07E50A4E44FF07E50ADE4FAF72EFEB9
:1057A000CDE902012846FAF729FE3B4ACDE900017E
:1057B00016212CA802F06AF8C9E42D22374BD8E450
:1057C0002C49374B0979374E294D002908BF1E4611
:1057D0002A79344924A8002A18BF0B461021324ADE
:1057E00002F054F833461021304A28A802F04EF84F
:1057F0002B7943BB00233D931E4B1B7933BB002306
:105800003E932B4B16211B682A4A20332CA802F00A
:105810003DF8294A1821294B0DF1C60002F036F84F
:10582000FBF730FD239B0293FAF7C6FD0022244BC1
:10583000FAF766FF234ACDE9000116210DF1DE00DB
:1058400002F024F8BAE44FF07C53D4E74FF07C53D5
:10585000D6E700BF00300040DC0200200C0300202F
:105860000803002008DA0008DC06002000100140D0
:10587000880700203007002000007A450080BB44E4
:10588000240700202C070020DED600083C00002062
:10589000FCD600081BD7000892D7000855CE000898
:1058A00064CE000869CE0008B8D70008BFD700084A
:1058B00038000020C6D70008CDD7000826050020F4
:1058C00000408F40D3D70008A94A13780133DBB2D8
:1058D000012B13707FF695AC98F80030072B3FF43E
:1058E000FDACFBF7CFFCA34B05F0100ADFF8888274
:1058F0001860BAF1000F7ED0FBF7C4FCD8F8003076
:10590000002B70D1C8F800006B0747BF4FF00309A8
:105910004FF004084FF009094FF00A08FBF7B2FCFA
:1059200040F6B83398427FF66CAC944B1A78002A54
:1059300064D0934A1178052960D0052391481370EB
:10594000FCF724FD9048FCF721FD00238F4A904886
:105950001374904A1374904B1C60904B1C6001F0C0
:105960008DFF8F4B1A78002A65D0BAF1000F62D1F3
:1059700087EAE772A2EBE77292B24A45DFF824A207
:1059800055DC86EAE672A2EBE67292B242454EDC44
:10599000DAF80020002A36D1FBF774FCCAF80000C0
:1059A000814A1378002B66D087EAE773A3EBE7738D
:1059B0009BB2282B43D886EAE673A3EBE6739BB22F
:1059C000282B3CD8794800F038FF10B1774800F018
:1059D0009DFE774800F031FF00283FF412AC744878
:1059E00000F094FE0DE4D8F80030C01AB0F5FA7F4C
:1059F0008AD9704803E4C8F800A085E71B78002B1B
:105A0000AFD1FFF7FEBBFBF73DFCDAF80020801AB0
:105A1000B0F5487FC4D3684A614B11780029BFD1E3
:105A2000012111701978654801F0C0FEB8E7002324
:105A3000CAF80030B4E700225A4B1A60B0E74FF0C2
:105A4000000A5D4B4F4883F800A0564B82F800A037
:105A5000C3F800A05A4B83F800A0FCF797FC4A4813
:105A6000FCF794FC484B282156488BF855A083F846
:105A700055A001F09BFE4FF07E5305934FF4E17368
:105A8000CDE90393504B3A460293504B3D49019365
:105A90004F4B46481B7805F0060500933B4BFCF73F
:105AA0007BFD4C4B324605934FF49673CDE903834F
:105AB000494B35490293494B3D480193484B1B786C
:105AC0000093344BFCF768FD062D3D4D4CD1FBF7A0
:105AD000D9FB444BC830186000224FF400514248B3
