:020000040800F2
:100000000050002005B800084DB800088D410008D8
:100010004DB800084DB800084DB8000800000000B9
:100020000000000000000000000000004DB80008C3
:100030004DB80008000000004DB8000889410008D4
:100040004DB800084DB800084DB800084DB800087C
:100050004DB800084DB800084DB800084DB800086C
:100060004DB800084DB800084DB800084DB800085C
:100070004DB800084DB800084DB800084DB800084C
:100080004DB800084DB800084DB800084DB800083C
:100090004DB800084DB800084DB800084DB800082C
:1000A0004DB800084DB800084DB800084DB800081C
:1000B000CD3D00084DB80008F53D00084DB80008DA
:1000C0004DB800084DB800084DB800084DB80008FC
:1000D0004DB800081D3E0008813E0008753F00082D
:1000E0004DB800084DB800084DB8000800000000E9
:1000F0000000000000000000000000000000000000
:0C01000000000000000000005FF808F1A3
:1001100010F8012B11F8013B012A28BF9A42F7D0B1
:10012000D01A7047034613F8012B002AFBD1181A86
:100130000138704781F0004102E000BF83F00043C6
:1001400030B54FEA41044FEA430594EA050F08BF72
:1001500090EA020F1FBF54EA000C55EA020C7FEA36
:10016000645C7FEA655C00F0E2804FEA5454D4EBB3
:100170005555B8BF6D420CDD2C4480EA020281EA7D
:10018000030382EA000083EA010180EA020281EAB5
:100190000303362D88BF30BD11F0004F4FEA013107
:1001A0004FF4801C4CEA113102D0404261EB410116
:1001B00013F0004F4FEA03334CEA133302D052429C
:1001C00063EB430394EA050F00F0A780A4F1010458
:1001D000D5F1200E0DDB02FA0EFC22FA05F2801892
:1001E00041F1000103FA0EF2801843FA05F3594178
:1001F0000EE0A5F120050EF1200E012A03FA0EFCF7
:1002000028BF4CF0020C43FA05F3C01851EBE37120
:1002100001F0004507D54FF0000EDCF1000C7EEB3D
:1002200000006EEB0101B1F5801F1BD3B1F5001F7B
:100230000CD349085FEA30004FEA3C0C04F101049A
:100240004FEA445212F5800F80F09A80BCF1004FC3
:1002500008BF5FEA500C50F1000041EB045141EA45
:10026000050130BD5FEA4C0C404141EB0101013C0E
:1002700028BFB1F5801FE9D291F0000F04BF0146FD
:100280000020B1FA81F308BF2033A3F10B03B3F1CF
:1002900020020CDA0C3208DD02F1140CC2F10C025F
:1002A00001FA0CF021FA02F10CE002F11402D8BFBD
:1002B000C2F1200C01FA02F120FA0CFCDCBF41EA89
:1002C0000C019040E41AA2BF01EB0451294330BD58
:1002D0006FEA04041F3C1CDA0C340EDC04F1140435
:1002E000C4F1200220FA04F001FA02F340EA03000C
:1002F00021FA04F345EA030130BDC4F10C04C4F152
:10030000200220FA02F001FA04F340EA0300294631
:1003100030BD21FA04F0294630BD94F0000F83F47B
:10032000801306BF81F480110134013D4EE77FEA5E
:10033000645C18BF7FEA655C29D094EA050F08BFAA
:1003400090EA020F05D054EA000C04BF194610468B
:1003500030BD91EA030F1EBF0021002030BD5FEACF
:10036000545C05D14000494128BF41F0004130BDF7
:1003700014F580043CBF01F5801130BD01F000454B
:1003800045F0FE4141F470014FF0000030BD7FEABE
:10039000645C1ABF194610467FEA655C1CBF0B46B9
:1003A000024650EA013406BF52EA033591EA030FD0
:1003B00041F4002130BD00BF90F0000F04BF0021C8
:1003C000704730B54FF4806404F132044FF00005FB
:1003D0004FF0000150E700BF90F0000F04BF002174
:1003E000704730B54FF4806404F1320410F00045DA
:1003F00048BF40424FF000013EE700BF42004FEAD5
:10040000E2014FEA31014FEA02701FBF12F07F4351
:1004100093F07F4F81F06051704732F07F4208BF08
:10042000704793F07F4F04BF41F40021704730B50F
:100430004FF4607401F0004521F000411CE700BF5B
:1004400050EA010208BF704730B54FF000050AE0DE
:1004500050EA010208BF704730B511F0004502D5DF
:10046000404261EB41014FF4806404F132045FEAE1
:10047000915C3FF4D8AE4FF003025FEADC0C18BF8A
:1004800003325FEADC0C18BF033202EBDC02C2F17C
:10049000200300FA03FC20FA02F001FA03FE40EA0E
:1004A0000E0021FA02F11444BDE600BF70B54FF012
:1004B000FF0C4CF4E06C1CEA11541DBF1CEA1355F0
:1004C00094EA0C0F95EA0C0F00F0DEF82C4481EA58
:1004D000030621EA4C5123EA4C5350EA013518BF78
:1004E00052EA033541F4801143F4801338D0A0FB65
:1004F00002CE4FF00005E1FB02E506F00042E0FB12
:1005000003E54FF00006E1FB03569CF0000F18BF17
:100510004EF0010EA4F1FF04B6F5007F64F54074BF
:1005200004D25FEA4E0E6D4146EB060642EAC62152
:1005300041EA55514FEAC52040EA5E504FEACE2EBF
:10054000B4F1FD0C88BFBCF5E06F1ED8BEF1004FC2
:1005500008BF5FEA500E50F1000041EB045170BD3E
:1005600006F0004646EA010140EA020081EA030182
:10057000B4EB5C04C2BFD4EB0C0541EA045170BD7E
:1005800041F480114FF0000E013C00F3AB8014F1F8
:10059000360FDEBF002001F0004170BDC4F1000441
:1005A000203C35DA0C341BDC04F11404C4F12005C2
:1005B00000FA05F320FA04F001FA05F240EA02001D
:1005C00001F0004221F0004110EBD37021FA04F653
:1005D00042EB06015EEA430E08BF20EAD37070BD0D
:1005E000C4F10C04C4F1200500FA04F320FA05F06C
:1005F00001FA04F240EA020001F0004110EBD3706E
:1006000041F100015EEA430E08BF20EAD37070BDDD
:10061000C4F1200500FA05F24EEA020E20FA04F3B6
:1006200001FA05F243EA020321FA04F001F0004165
:1006300021FA04F220EA020000EBD3705EEA430ED6
:1006400008BF20EAD37070BD94F0000F0FD101F005
:100650000046400041EB010111F4801F08BF013C3E
:10066000F7D041EA060195F0000F18BF704703F07C
:100670000046520043EB030313F4801F08BF013D03
:10068000F7D043EA0603704794EA0C0F0CEA1355BF
:1006900018BF95EA0C0F0CD050EA410618BF52EA79
:1006A0004306D1D181EA030101F000414FF000007F
:1006B00070BD50EA410606BF1046194652EA43068D
:1006C00019D094EA0C0F02D150EA013613D195EA01
:1006D0000C0F05D152EA03361CBF104619460AD149
:1006E00081EA030101F0004141F0FE4141F4700153
:1006F0004FF0000070BD41F0FE4141F4780170BD43
:1007000070B54FF0FF0C4CF4E06C1CEA11541DBFA7
:100710001CEA135594EA0C0F95EA0C0F00F0A7F8A9
:10072000A4EB050481EA030E52EA03354FEA0131D6
:1007300000F088804FEA03334FF0805545EA1313E9
:1007400043EA12634FEA022245EA111545EA1065B1
:100750004FEA00260EF000419D4208BF964244F148
:10076000FD0404F5407402D25B084FEA3202B61A67
:1007700065EB03055B084FEA32024FF480104FF43B
:10078000002CB6EB020E75EB030E22BFB61A7546AF
:1007900040EA0C005B084FEA3202B6EB020E75EB42
:1007A000030E22BFB61A754640EA5C005B084FEAAA
:1007B0003202B6EB020E75EB030E22BFB61A754677
:1007C00040EA9C005B084FEA3202B6EB020E75EB82
:1007D000030E22BFB61A754640EADC0055EA060E43
:1007E00018D04FEA051545EA16754FEA06164FEA86
:1007F000C30343EA52734FEAC2025FEA1C1CC0D132
:1008000011F4801F0BD141EA00014FF000004FF0BE
:10081000004CB6E711F4801F04BF01430020B4F17F
:10082000FD0C88BFBCF5E06F3FF6AFAEB5EB030C37
:1008300004BFB6EB020C5FEA500C50F1000041EB34
:10084000045170BD0EF0004E4EEA113114EB5C0401
:10085000C2BFD4EB0C0541EA045170BD41F48011D4
:100860004FF0000E013C90E645EA060E8DE60CEADC
:10087000135594EA0C0F08BF95EA0C0F3FF43BAFF9
:1008800094EA0C0F0AD150EA01347FF434AF95EAB0
:100890000C0F7FF425AF104619462CE795EA0C0F94
:1008A00006D152EA03353FF4FDAE1046194622E761
:1008B00050EA410618BF52EA43067FF4C5AE50EA3B
:1008C00041047FF40DAF52EA43057FF4EBAE12E72B
:1008D0004FF0FF3C06E000BF4FF0010C02E000BF0C
:1008E0004FF0010C4DF804CD4FEA410C7FEA6C5CEF
:1008F0004FEA430C18BF7FEA6C5C1BD001B050EA92
:10090000410C0CBF52EA430C91EA030F02BF90EA7C
:10091000020F0020704710F1000F91EA030F58BF3B
:10092000994208BF90422CBFD8176FEAE37040F09D
:10093000010070474FEA410C7FEA6C5C02D150EA3B
:10094000013C07D14FEA430C7FEA6C5CD6D152EAF6
:10095000033CD3D05DF8040B704700BF84461046BB
:1009600062468C461946634600E000BF01B5FFF7BA
:10097000B7FF002848BF10F1000F01BD4DF808ED8A
:10098000FFF7F4FF0CBF012000205DF808FB00BF5B
:100990004DF808EDFFF7EAFF34BF012000205DF8B5
:1009A00008FB00BF4DF808EDFFF7E0FF94BF012002
:1009B00000205DF808FB00BF4DF808EDFFF7CEFF03
:1009C00094BF012000205DF808FB00BF4DF808ED42
:1009D000FFF7C4FF34BF012000205DF808FB00BF13
:1009E0004FEA410C7FEA6C5C02D150EA013C0AD12B
:1009F0004FEA430C7FEA6C5C02D152EA033C02D11D
:100A00004FF0000070474FF0010070474FEA41027D
:100A100012F5001215D211D56FF47873B3EB625250
:100A200012D94FEAC12343F0004343EA505311F077
:100A3000004F23FA02F018BF404270474FF0000009
:100A4000704750EA013005D111F0004008BF6FF047
:100A5000004070474FF00000704700BF4A0011D2BD
:100A600012F5001211D20DD56FF47873B3EB625208
:100A70000ED44FEAC12343F0004343EA505323FA14
:100A800002F070474FF00000704750EA013002D189
:100A90004FF0FF3070474FF0000070474FEA4102BF
:100AA000B2F1E04324BFB3F5001CDCF1FE5C0DD9CC
:100AB00001F0004C4FEAC0024CEA5070B2F1004F16
:100AC00040EB830008BF20F00100704711F0804F19
:100AD00021D113F13872BCBF01F00040704741F4DE
:100AE00080114FEA5252C2F11802C2F1200C10FAE2
:100AF0000CF320FA02F018BF40F001004FEAC123C6
:100B00004FEAD32303FA0CFC40EA0C0023FA02F369
:100B10004FEA4303CCE77FEA625307D150EA01333F
:100B20001EBF4FF0FE4040F44000704701F000400F
:100B300040F0FE4040F40000704700BF80F00040ED
:100B400002E000BF81F0004142001FBF5FEA4103A5
:100B500092EA030F7FEA226C7FEA236C6AD04FEAA5
:100B60001262D2EB1363C1BFD218414048404140EA
:100B7000B8BF5B42192B88BF704710F0004F40F49C
:100B8000000020F07F4018BF404211F0004F41F4B8
:100B9000000121F07F4118BF494292EA030F3FD084
:100BA000A2F1010241FA03FC10EB0C00C3F1200397
:100BB00001FA03F100F0004302D5494260EB400026
:100BC000B0F5000F13D3B0F1807F06D340084FEA91
:100BD000310102F10102FE2A51D2B1F1004F40EB86
:100BE000C25008BF20F0010040EA030070474900EE
:100BF00040EB0000013A28BFB0F5000FEDD2B0FA8B
:100C000080FCACF1080CB2EB0C0200FA0CF0AABFAD
:100C100000EBC25052421843BCBFD040184370474B
:100C200092F0000F81F4000106BF80F40000013251
:100C3000013BB5E74FEA41037FEA226C18BF7FEA28
:100C4000236C21D092EA030F04D092F0000F08BF6A
:100C50000846704790EA010F1CBF0020704712F051
:100C60007F4F04D1400028BF40F00040704712F190
:100C700000723CBF00F50000704700F0004343F0F5
:100C8000FE4040F4000070477FEA226216BF08462B
:100C90007FEA23630146420206BF5FEA412390EAEE
:100CA000010F40F4800070474FF0000304E000BFE4
:100CB00010F0004348BF40425FEA000C08BF704795
:100CC00043F0964301464FF000001CE050EA010259
:100CD00008BF70474FF000030AE000BF50EA01026E
:100CE00008BF704711F0004302D5404261EB41015B
:100CF0005FEA010C02BF84460146002043F0B64380
:100D000008BFA3F18053A3F50003BCFA8CF2083AA4
:100D1000A3EBC25310DB01FA02FC634400FA02FCAD
:100D2000C2F12002BCF1004F20FA02F243EB0200B4
:100D300008BF20F00100704702F1200201FA02FC16
:100D4000C2F1200250EA4C0021FA02F243EB020009
:100D500008BF20EADC7070474FF0FF0C1CEAD0524D
:100D60001EBF1CEAD15392EA0C0F93EA0C0F6FD00E
:100D70001A4480EA010C400218BF5FEA41211ED0EC
:100D80004FF0006343EA501043EA5111A0FB0131D8
:100D90000CF00040B1F5000F3EBF490041EAD371AD
:100DA0005B0040EA010062F17F02FD2A1DD8B3F129
:100DB000004F40EBC25008BF20F00100704790F098
:100DC000000F0CF0004C08BF49024CEA502040EAEA
:100DD00051207F3AC2BFD2F1FF0340EAC2507047B0
:100DE00040F400004FF00003013A5DDC12F1190FEE
:100DF000DCBF00F000407047C2F10002410021FA60
:100E000002F1C2F1200200FA02FC5FEA310040F177
:100E1000000053EA4C0308BF20EADC70704792F0F0
:100E2000000F00F0004C02BF400010F4000F013A28
:100E3000F9D040EA0C0093F0000F01F0004C02BF23
:100E4000490011F4000F013BF9D041EA0C018FE792
:100E50000CEAD15392EA0C0F18BF93EA0C0F0AD098
:100E600030F0004C18BF31F0004CD8D180EA0100BE
:100E700000F00040704790F0000F17BF90F0004F57
:100E8000084691F0000F91F0004F14D092EA0C0F39
:100E900001D142020FD193EA0C0F03D14B0218BFCC
:100EA000084608D180EA010000F0004040F0FE4012
:100EB00040F40000704740F0FE4040F440007047AE
:100EC0004FF0FF0C1CEAD0521EBF1CEAD15392EA2D
:100ED0000C0F93EA0C0F69D0A2EB030280EA010C1D
:100EE00049024FEA402037D04FF0805343EA1111B6
:100EF00043EA10130CF000408B4238BF5B0042F114
:100F00007D024FF4000C8B4224BF5B1A40EA0C00B8
:100F1000B3EB510F24BFA3EB510340EA5C00B3EBEA
:100F2000910F24BFA3EB910340EA9C00B3EBD10FD8
:100F300024BFA3EBD10340EADC001B0118BF5FEA2A
:100F40001C1CE0D1FD2A3FF650AF8B4240EBC25053
:100F500008BF20F0010070470CF0004C4CEA502014
:100F60007F32C2BFD2F1FF0340EAC250704740F463
:100F700000004FF00003013A37E792F0000F00F055
:100F8000004C02BF400010F4000F013AF9D040EAD3
:100F90000C0093F0000F01F0004C02BF490011F467
:100FA000000F013BF9D041EA0C0195E70CEAD1535F
:100FB00092EA0C0F08D142027FF47DAF93EA0C0F46
:100FC0007FF470AF084676E793EA0C0F04D14B022A
:100FD0003FF44CAF08466EE730F0004C18BF31F0DC
:100FE000004CCAD130F000427FF45CAF31F00043D6
:100FF0007FF43CAF5FE700BF4FF0FF3C06E000BF6F
:101000004FF0010C02E000BF4FF0010C4DF804CD91
:101010004FEA40024FEA41037FEA226C18BF7FEAA1
:10102000236C11D001B052EA530C18BF90EA010FA3
:1010300058BFB2EB030088BFC81738BF6FEAE17032
:1010400018BF40F0010070477FEA226C02D15FEACE
:10105000402C05D17FEA236CE4D15FEA412CE1D03A
:101060005DF8040B704700BF844608466146FFE701
:101070000FB5FFF7C9FF002848BF10F1000F0FBDE3
:101080004DF808EDFFF7F4FF0CBF012000205DF8DC
:1010900008FB00BF4DF808EDFFF7EAFF34BF012061
:1010A00000205DF808FB00BF4DF808EDFFF7E0FFFA
:1010B00094BF012000205DF808FB00BF4DF808ED4B
:1010C000FFF7D2FF94BF012000205DF808FB00BFAE
:1010D0004DF808EDFFF7C8FF34BF012000205DF890
:1010E00008FB00BF4FEA4002B2F1FE4F0FD34FF0B2
:1010F0009E03B3EB12620DD94FEA002343F0004385
:1011000010F0004F23FA02F018BF404270474FF032
:101110000000704712F1610F01D1420205D110F0B9
:10112000004008BF6FF0004070474FF0000070476C
:1011300042000ED2B2F1FE4F0BD34FF09E03B3EB41
:10114000126209D44FEA002343F0004323FA02F06D
:1011500070474FF00000704712F1610F01D1420259
:1011600002D14FF0FF3070474FF00000704700BFD2
:101170000348044B834202D0034B03B11847704726
:101180001002002010020020000000000548064B5D
:101190001B1AD90F01EBA301491002D0034B03B175
:1011A00018477047100200201002002000000000C5
:1011B00010B5064C237843B9FFF7DAFF044B13B19F
:1011C0000448AFF300800123237010BD10020020FB
:1011D0000000000050B8000808B5054B1BB10549D8
:1011E0000548AFF30080BDE80840FFF7CFBF00BF60
:1011F000000000001402002050B8000870470000F2
:1012000038B50E4B05461A784FF47A73B3FBF2F3F8
:101210000B4A1068B0FBF3F000F09CF8044658B994
:101220000F2D09D8024629464FF0FF3000F054F840
:101230002046044B1D6038BD0120FCE70000002063
:101240000C02002004000020074A08B513680320A0
:1012500043F01003136000F02DF80F20FFF7D0FFCC
:10126000FFF7CCFF002008BD00200240034A044BDA
:1012700011681B780B441360704700BF2C020020DC
:1012800000000020014B1868704700BF2C020020AE
:1012900038B50446FFF7F6FF0546631C1EBF044B36
:1012A0001B78E418FFF7EEFF431BA342FAD338BDC7
:1012B0000000002007490302CA6803F4E06322F437
:1012C000E0621204120C134343F0BF6343F4003393
:1012D000CB60704700ED00E0154B30B5DC68C4F31F
:1012E0000224C4F10703251D042B28BF0423062D67
:1012F0004FF0FF3594BF0024033C05FA03F321EAC5
:101300000303A54022EA0502A340002843EA0203A2
:10131000ACBF00F16040074A4FEA0313DBB2ABBF3A
:1013200000F5614000F00F0080F80033135430BD29
:1013300000ED00E014ED00E0002807DB0123410987
:10134000034A00F01F00834042F82130704700BF7D
:1013500000E100E00138B0F1807F0BD24FF0E023D4
:10136000F021054A586182F8231000200722986175
:101370001A6170470120704700ED00E02DE9F74F3A
:1013800000244FF00F0E2646DFF884C1614B00F1B8
:1013900004080A6832FA06F502D103B0BDE8F08FFE
:1013A000012505FA06F702EA070537EA020276D1B7
:1013B0004A68032A07D8013A022A00F28380DFE84C
:1013C00002F091969C00122A00F0948069D8112AAC
:1013D00000F08A80FF2D94BF8146C1464FEA860205
:1013E000D9F8007088BF203A0EFA02FA27EA0A07F5
:1013F00004FA02F21743C9F80070D1F8049019F00A
:10140000805F4CD0DCF8182026F0030742F0010280
:10141000CCF81820DCF8182007F1804702F0010210
:10142000019207F5803706F0030A019A4FEA8A0A0B
:10143000BA680EFA0AFB22EA0B0B374A904260D0D8
:1014400002F5806290425ED002F5806290425CD0EC
:1014500002F58062904214BF0422032202FA0AF2CB
:1014600042EA0B02BA609A6819F4801F14BF2A433B
:10147000AA439A60DA6819F4001F14BF2A43AA43EA
:10148000DA605A6819F4003F14BF2A43AA435A602D
:101490001A6819F4803F14BF2A43AA431A60013620
:1014A00077E7DFF878904A450CD014D8A9F5801971
:1014B0004A4507D009F570294A4503D0A9F5801996
:1014C0004A4587D18A68D2B1012A4FF008040CBF7F
:1014D000076147617EE7DFF848904A45F2D009F599
:1014E0008039EDE7CC6875E7CC68043472E7CC68E6
:1014F00008346FE7CC680C346CE700246AE70424F6
:1015000068E70022AAE70122A8E70222A6E700BFB7
:1015100000100240000401400008014000002210B9
:101520000000311080680840003818BF0120704763
:101530000AB1016170470904FBE7C36801EA0302CD
:1015400021EA030141EA0241016170472DE9F341BB
:10155000054638B30368DB0710D42B689F075ED4B9
:101560002B68190700F195802B685A0700F1C1809C
:10157000EB69002B40F02C81002029E0904C63683F
:1015800003F00C03042B07D0636803F00C03082B53
:101590000AD16368DE0307D523689C03DDD56B6839
:1015A000002BDAD1012013E06B68B3F5803F12D134
:1015B000236843F480332360FFF764FE0646236804
:1015C0009803CAD4FFF75EFE801B6428F7D9032076
:1015D00002B0BDE8F0819BB9236823F48033236017
:1015E000236823F480232360FFF74CFE064623681C
:1015F0009903B2D5FFF746FE801B6428F7D9E6E7CA
:10160000B3F5A02F236803D143F480232360CFE7F1
:1016100023F480332360236823F48023CBE7684CD2
:10162000636813F00C0F07D0636803F00C03082BFA
:1016300010D16368DA030DD423689B0702D52B69A8
:10164000012BAFD123686A6923F0F80343EAC20390
:10165000236085E72A695B4B6AB101221A60FFF7B4
:1016600011FE064623689F07ECD4FFF70BFE801B94
:101670000228F7D9ABE71A60FFF704FE0646236895
:1016800098077FF56DAFFFF7FDFD801B0228F6D9A7
:101690009DE7AA694A4E4B4BE2B10122C3F8802470
:1016A000FFF7F0FD0446736A9B070DD54FF4FA521D
:1016B000454B1B68B3FBF2F3019300BF019B5A1E1D
:1016C0000192002BF9D14FE7FFF7DCFD001B022848
:1016D000E9D97CE7C3F88024FFF7D4FD0446736A98
:1016E0009F077FF541AFFFF7CDFD001B0228F6D91C
:1016F0006DE7334CE369D80024D40127E36943F054
:101700008053E361E36903F080530093009B2F4E05
:101710003368D90518D5EB68012B26D1236A43F02D
:1017200001032362FFF7AEFD41F288380646236AC3
:101730009B073FD5002F3FF41BAFE36923F0805395
:10174000E36115E70027E2E7336843F48073336011
:10175000FFF798FD80463368DA05DCD4FFF792FD89
:10176000A0EB08006428F6D931E7ABB9236A41F24F
:10177000883823F001032362236A23F004032362E1
:10178000FFF780FD0646236A9807D3D5FFF77AFD59
:10179000801B4045F7D91AE7052B236A03D143F094
:1017A00004032362BAE723F001032362236A23F0D0
:1017B0000403B6E7FFF766FD801B4045B7D906E78F
:1017C00000100240000042420C0200200070004065
:1017D0002A4C626802F00C02082A3ED00022022B3A
:1017E000274B1A662CD1FFF74DFD06462368990159
:1017F00020D42B6AB3F5803F05D16268A96822F432
:1018000000320A436260696A62680B4322F4741210
:101810001343012263601A4B1A66FFF733FD054636
:1018200023689A013FF5A8AEFFF72CFD401B022864
:10183000F6D9CCE6FFF726FD801B0228D6D9C6E6EE
:10184000FFF720FD054623689B017FF595AEFFF766
:1018500019FD401B0228F6D9B9E6012B3FF4A2AED0
:1018600060682B6A00F480329A427FF49BAE6B6A08
:1018700000F47010C01A18BF0120A9E60010024041
:10188000000042420D4A536803F00C01082912D1AE
:101890000B48C3F38341DB03405C09D55368094A15
:1018A000C3F340435043084AD35CB0FBF3F07047A6
:1018B000064B584370470348704700BF0010024072
:1018C00076B8000800127A0074B8000800093D00DC
:1018D0002DE9F0410D46044610B90120BDE8F08124
:1018E000444A136803F007038B4228D321688E070C
:1018F00030D4CA0743D43F4A136803F00703AB420E
:1019000065D822683C4D12F0040F6CD1130706D540
:101910006B68226923F4605343EAC2036B60FFF7EC
:10192000B1FF6B68354AC3F30313D35CD840344B23
:101930001860344B1868FFF763FC0020CEE713688B
:1019400023F007030B431360136803F007038B4274
:10195000C3D1CBE7284B11F0040F1EBF5A6842F4E5
:10196000E0625A60080742BF5A6842F460525A6007
:101970005A68A06822F0F00202435A60B9E7626830
:101980001D4E012A33681AD113F4003FA5D07368A5
:1019900041F2883823F0030313437360FFF772FCAE
:1019A00007467368626803F00C03B3EB820FA2D0A2
:1019B000FFF768FCC01B4045F3D903208EE7022ADD
:1019C00002D113F0007FE1E713F0020FDEE71368A6
:1019D00023F007032B431360136803F00703AB42A4
:1019E0007FF47BAF8DE76B68E16823F4E0630B4322
:1019F0006B608BE7002002400010024070DE0008A0
:101A00000C02002004000020044B054A5B68C3F36D
:101A10000223D35C034A1068D8407047001002408C
:101A200068DE00080C020020044B054A5B68C3F323
:101A3000C223D35C034A1068D840704700100240AC
:101A400068DE00080C020020036A026A70B522F00A
:101A500001020262446882690D6822F073022A431F
:101A60008D6823F002032B430A4DA8420BD1CD68A9
:101A700023F008032B4324F44074D1E90556354381
:101A800023F004032C43446082614A68426303628A
:101A900070BD00BF002C0140036A026A70B522F4D9
:101AA000807202624468C2690D6822F073022A43A0
:101AB0008D6823F4007343EA05230B4DA8420DD132
:101AC000CD6823F4006343EA052324F44054D1E9AC
:101AD0000556354323F4806344EA05144460C2612B
:101AE0004A68C263036270BD002C0140036A026A47
:101AF00030B522F4805202624468C2690D6822F453
:101B0000E64242EA05228D6823F4005343EA053396
:101B1000064DA84202BF4D6924F4804444EA85146E
:101B20004460C2614A680264036230BD002C014017
:101B30007047000090F83D30012B1CD102230F4A62
:101B400080F83D30036893420AD0B3F1804F07D04C
:101B5000A2F59432934203D002F58062934204D1FD
:101B60009A6802F00702062A03D01A6842F00102BE
:101B70001A60002070470120704700BF002C014010
:101B800070470000174A036890420AD0B0F1804FB6
:101B900007D0A2F59432904203D002F580629042C1
:101BA00007D14A6823F070031343CA6823F44073D3
:101BB00013434A6923F08003134303608B68C362B5
:101BC0000B688362074B984204BF0B6903630123D0
:101BD00043610369DB0742BF036923F0010303612B
:101BE000704700BF002C014010B5044630B390F898
:101BF0003D3003F0FF021BB980F83C20FFF798FF4F
:101C00000223206884F83D30211DFFF7BBFF01232C
:101C1000002084F8463084F83E3084F83F3084F861
:101C2000403084F8413084F8423084F8433084F8FE
:101C3000443084F8453084F83D3010BD0120FCE785
:101C400010B5044630B390F83D3003F0FF021BB9E5
:101C500080F83C20FFF794FF0223206884F83D3091
:101C6000211DFFF78FFF0123002084F8463084F800
:101C70003E3084F83F3084F8403084F8413084F8B6
:101C8000423084F8433084F8443084F8453084F896
:101C90003D3010BD0120FCE7036A026A70B522F0F6
:101CA00010020262446882690D6822F4E64242EA48
:101CB00005228D6823F0200343EA05130B4DA8424B
:101CC0000DD1CD6823F0800343EA051324F440646A
:101CD000D1E90556354323F0400344EA85044460C6
:101CE00082614A688263036270BD00BF002C0140BC
:101CF00038B590F83C300446012B4FD00120082A1B
:101D000084F83C003AD006D8BAB1042A26D0002381
:101D100084F83C3038BD0C2AF9D12068FFF7E6FE84
:101D2000C3690A6943F40063C361C36923F4806330
:101D3000C361C36943EA02232EE02068FFF784FEF3
:101D400083690A6943F008038361836923F004030C
:101D500083618369134383610020D8E72068FFF71C
:101D60009BFF83690A6943F400638361836923F4F9
:101D700080638361836943EA0223ECE72068FFF70D
:101D80008BFEC3690A6943F00803C361C36923F08A
:101D90000403C361C3691343C361DDE70220B9E7EC
:101DA00010B50124036A01F01F018C4023EA0403EB
:101DB0000362036A8A401A43026210BD08B529B95A
:101DC00090F83E30012B1DD001202EE0042907D1D0
:101DD00090F83F30012BF7D1022380F83F3014E018
:101DE000082907D190F84030012BEDD1022380F86B
:101DF00040300AE090F84130012BE5D1022380F811
:101E0000413002E0022380F83E3000680122FFF7F3
:101E1000C7FF0F4B984209D0B0F1804F0BD18368B8
:101E200003F00703062B0DD1002008BD436C43F4DB
:101E300000434364F3E7074B9842F0D003F5806317
:101E40009842ECD0036843F001030360ECE700BF65
:101E5000002C014000040040FFF7B0BF026802F10F
:101E60000C0353E8003F23F490730C3242E8003136
:101E700002680029F2D102F1140353E8003F23F075
:101E8000010302F1140C4CE800310029F3D1036B7B
:101E9000012B0BD102F10C0353E8003F23F0100398
:101EA00002F10C0C4CE800310029F3D1202380F81A
:101EB000423000230363704710B504460368C168CD
:101EC0001A6922F440520A431A6182680069D9688B
:101ED0000243606921F4B05121F00C0102430A432E
:101EE000DA605A69A16922F440720A435A610E4AC3
:101EF000934215D1FFF798FD192343436268206888
:101F00009200B3FBF2F36422B3FBF2F102FB113354
:101F10001B013233B3FBF2F303EB0113836010BDFB
:101F2000FFF772FDE8E700BF00380140F7B505464E
:101F30000C4617461E462A68136834EA030301D18B
:101F4000002021E0701CF7D0FFF79CF9C01B8642EF
:101F50001CD3DEB12B68DA685107ECD5802CEAD0AF
:101F6000402CE8D01A681207E5D5002401941A68BD
:101F7000284601925B680193019BFFF76FFF0823DE
:101F800001206B6485F8404003B0F0BD0320FBE7FF
:101F9000704710B5044648B390F8413003F0FF0293
:101FA0001BB980F84020FFF7F3FF2423226884F850
:101FB0004130D368204623F40053D360FFF77CFF01
:101FC000236800201A6922F490421A615A6922F0AB
:101FD0002A025A61DA6842F40052DA60202360640F
:101FE00084F8413084F84230606310BD0120FCE782
:101FF0002DE9F843984690F841300446202B0E46D0
:1020000017463FD100293FD0002A3DD0212300258B
:10201000456480F84130FFF735F9A3688146B3F590
:10202000805FA784E78403D123690BB935461E4638
:10203000E38C9BB253B943464A4640212046FFF702
:1020400075FF202350B984F841300AE043464A46E0
:1020500080212046FFF76AFF28B12023032084F85F
:102060004130BDE8F88322684EB935F8023BC3F32E
:1020700008035360E18C013989B2E184D8E716F88E
:10208000013BF6E70220ECE70120EAE7064B18885F
:10209000064B80B21B889BB2984238BF00F5007097
:1020A000C01A80B2704700BF100300200E0300204A
:1020B00008B52B4805F0A8FA2A4805F0A5FA2A48E1
:1020C00005F0A2FA294805F09FFA294805F09CFA84
:1020D000284805F099FA284805F096FA274805F0AF
:1020E00093FA274805F090FA204805F08DFA254824
:1020F00005F08AFA244805F087FA244805F084FAA6
:10210000234805F081FA194805F07EFA214805F0C8
:102110007BFA214805F078FA204805F075FA204846
:1021200005F072FA114805F06FFA1E4805F06CFAD6
:102130001D4805F069FA1D4805F066FA1C4805F0CF
:1021400063FA1C4805F060FA1B4805F05DFA1B486D
:1021500005F05AFABDE80840014805F055BA00BF3D
:1021600094CC000886B800080EB900084AB90008E7
:10217000D2B9000808BA000843BA00087FBA0008BC
:10218000BABA0008F6BA00082CBB000868BB000801
:10219000A7BB0008E1BB000818BC000853BC00083E
:1021A0008DBC0008C0BC0008F6BC000831BD0008AA
:1021B0006DBD0008AABD0008E6BD000822BE0008EB
:1021C0002DE9F0434D4B85B0986CFEF771FD4C49FD
:1021D000FEF7C2FD4B49FEF773FE4B4B8046986CF1
:1021E000FEF766FD4649FEF7B7FD4649FEF768FE75
:1021F000464B04461868FEF75BFD4149FEF7ACFD0F
:102200004049FEF75DFE424B05461868FEF750FD5B
:102210003B49FEF7A1FD3B49FEF752FE3D4B06460A
:102220001B783D48033BDBB2042B96BF3B4A3C4F37
:1022300052F8237005F0E8F93A4805F0E5F93A4814
:1022400005F0E2F9394805F0DFF94046FEF7D6F827
:10225000804628468946FEF7D1F842464B46CDE9EE
:102260000001334805F068F92046FEF7C7F8044638
:1022700030460D46FEF7C2F822462B46CDE9000156
:102280002C4805F059F92C4E2C4805F0BDF939467B
:102290002B4805F051F93068FEF7B0F80446B068F5
:1022A0000D46FEF7ABF8CDE902017068FEF7A6F81F
:1022B000244E22462B46CDE90001234805F03CF987
:1022C0003068FEF79BF80446B0680D46FEF796F8B6
:1022D000CDE902017068FEF791F82246CDE90001D0
:1022E0002B461A4805F028F9194805F08DF90A48D7
:1022F00005B0BDE8F04305F087B900BF84070020B2
:102300000000B443000061452C0700207405002044
:10231000700500204000002094CC00080CDA000872
:10232000AABE0008AEBE00080CBF000840BF0008EF
:102330009EBF0008CDBF00089C050020FCBF000820
:102340005AC000087805002078C00008A6C0000820
:10235000D4C00008002310B503638364C36403641E
:102360000446FEF78FFF0123A4F85430206510BD0A
:10237000002310B5C36003610446FEF783FFE061EC
:1023800010BD0000B0F5006FA8BF4FF40060322808
:1023900070B50546B8BF3225184B194C9A6C194BCD
:1023A000511B9B6C2A44581B2B44C4E90531E36143
:1023B0000023C4E9022022610122134E2160337000
:1023C000124B60601A70FEF75DFF0722104B186019
:1023D000104B11481A702268104B1A606268104B3B
:1023E0001A60FFF7C5FF0F48FFF7C2FF2946327892
:1023F0000D48BDE8704005F09FB800BF840700207D
:10240000440500202C0700206405002065050020FD
:1024100040050020400000209C050020740500209D
:10242000700500207805002035C1000830B504464D
:1024300085B0264804F0C7F810B1244804F02CF801
:10244000234804F0C0F810B1214804F025F82148D1
:10245000FFF780FF2048FFF77DFF00231D4A1F493B
:1024600082F855301C4A82F8553000220A601C4917
:102470000A601C4A13741C4A13741C4A13701C4AC9
:1024800013701C4A13601C4A13601C4A1370FEF739
:10249000F9FE1B4A1368C31AB3F57A7F13D9194B97
:1024A000106019491A681948194B1A4D1B68098898
:1024B00000882D7809B200B2CDE9010500911648D7
:1024C000214605F039F805B030BD00BF8407002073
:1024D0002C07002030060020CC050020FC02002044
:1024E000F8020020200000200C000020EC02002058
:1024F000D6060020B4060020B0060020B906002051
:1025000038020020A4060020C4060020C2060020D5
:10251000A8060020C106002069C100082DE9F04F7F
:1025200082EAE274A4EBE274A4B2B4F5C87F88BF77
:10253000002491B09B461B9B09920C931C9B8246E6
:102540000A931E9B0D460B931F9B9DF868700D937D
:1025500091F85530BDF9748088BF0994ABB108F18A
:1025600004031BB2A3420ADB04F02DF8002800F09C
:10257000D681504611B0BDE8F04F03F08DBF002367
:10258000084681F85530FFF7E5FEA849A84AA94B4F
:102590008A4508BF1A46A045089280F2E58109984D
:1025A000FEF786FB9BF8103006464FF07E52002B5C
:1025B00040F0FD800123CBF80000CBF804208BF81D
:1025C0001030FEF75FFE8146286DA9EB0000FEF794
:1025D0006BFB9949FEF774FC98490446FEF75AFDD7
:1025E000002840F011814FF07E512046FEF770FD2B
:1025F00008B14FF07E542968C5F850903046FEF778
:10260000ABFB8146A96C3046FEF79CFA2146FEF7EB
:1026100057FCA968AE64FEF79FFB4946FEF794FAA3
:10262000D5F8609004464946FEF752FD00B14C468D
:10263000D5F85C9020464946FEF72CFD00B14C468B
:102640004FF07E512046FEF743FD002840F0A28166
:1026500020467B49FEF71EFD00B1794C0FB104F115
:10266000004400212046FEF729FD002840F0D080DC
:1026700004F10043A1461C464046FEF719FB6F6873
:1026800080463946FEF71AFD28B14FF07E5140468C
:10269000FEF75AFA074600213046FEF719FD0028DA
:1026A00040F0B88006F100404146FEF74BFA414643
:1026B0000E903846FEF746FA01460E98FEF700FCEB
:1026C00000218046FEF7E6FC002840F0A5804FF090
:1026D0007E514046FEF7FCFC08B14FF07E58214683
:1026E0004046FEF7D7FC002800F0998040460D993F
:1026F000FEF732FB00210446FEF7CCFC002800F078
:10270000908000204F4B07461A78022A02D01B788F
:10271000032B03D14C49FEF71FFB0746089B002102
:102720001C682046FEF7ACFC68B920464749FEF716
:1027300013FB474904463846FEF70EFB0146204688
:10274000FEF702FA0746089B50461F6003F03DFF64
:10275000002104464846FEF7B1FC002863D0601C07
:102760000B9B984202DC5B42834277DD504603F0CC
:102770002AFF10B1504603F08FFE2846FFF7EAFD0E
:1027800000238BF8103000230A9A1360089A136014
:10279000304B1A78002A40F0C28001222E481A706D
:1027A000DDE90B2111B0BDE8F04F04F0C5BEDBF848
:1027B0000810DBF804000F92FEF7C6F9DBF80C10E6
:1027C0000446FEF7C1F901462046FEF779FB814633
:1027D000DBF80030304619460E93FEF7B3F9494650
:1027E000FEF7BAFA0E9B1946FEF7AEF90F9A494664
:1027F000CBF8000006461046FEF7A4F92146FEF786
:10280000ABFACBF80400DCE60C4CF4E60C4C2FE7FA
:10281000A14631E7304647E74FF000085FE7204622
:1028200065E720466EE7601E9AE700BF8407002038
:10283000F0020020F402002000007A446F12833A74
:10284000000080BFBA0600203333333FCDCC0C3FAD
:102850006666E63E32020020BCC100080A9B514970
:1028600038461C68FEF778FAFEF762FC44F62063EF
:10287000181A984228BF1846B0F5487F38BF4FF461
:102880004870FEF711FA002105462046FEF7F8FBD6
:1028900078B94FF07C512046FEF75EFA4FF07C513C
:1028A00004462846FEF758FA01462046FEF74CF942
:1028B00005460A9B4FF07C511D602846FEF744F9FF
:1028C000FEF736FC44F62063984228BF18460021E4
:1028D000B0F5487F8346484638BF4FF4487BFEF743
:1028E000EDFBB0FA80F15046490903F08FFC5046E9
:1028F00003F069FE012802D0504603F0E5FC59467A
:10290000504603F0B7FC284A2849BAEB020218BF28
:1029100001228B5C0133DBB2042B03D88B5411B042
:10292000BDE8F08F002330468B54FDF767FD044669
:1029300038460D46FDF762FD064640460F46FDF758
:102940005DFD80465046894603F03FFECDE904898F
:10295000CDE906B0CDE90267CDE90045099A0C99A9
:10296000134804F0E9FDDAE7504603F02CFE10B1FD
:10297000504603F091FD2846FFF7ECFC00238BF84E
:10298000103000230A9A1360089A1360012385F817
:102990005530C4E7002F7FF439AF4FF07E594C46D5
:1029A0006AE600BF0000964684070020300200203F
:1029B000EAC10008F0B51E4E3368DB689B0436D5CB
:1029C00072B61C4D1C4B1D4F01442A881C880132D5
:1029D000A4B2C2F30802A24208BF1C8810F801CBBF
:1029E00002BF0134C4F308041C802C888842A4B2BE
:1029F00007F804C02A80E8D162B611480278B2B95B
:102A000029881A8889B292B2914210D001220270AC
:102A10001A8892B2B95C1A88C9B20132C2F30802AC
:102A20001A8033685960DA6842F08002DA60F0BDDB
:102A300024080020100300200E03002012030020B1
:102A40000D0300200FB407B504AB53F8042B80210D
:102A50000648019304F0D8FE011E02DD0348FFF78B
:102A6000A9FF03B05DF804EB04B0704758020020E2
:102A70000021F0B5934B944D1A78944BD2B289B0A3
:102A8000995418781C46A0F10A02D2B2162A1946A7
:102A900003F1010362D825FA02F2D207F1D48C4A7D
:102AA000601E133110F8013F0BB188425AD1002348
:102AB00088498948137004F0FCFF2578782D7DD073
:102AC00059D8592D00F0A5805A2D58D0582D75D0C1
:102AD00003222046814904F04FFF38B103222046EB
:102AE0007F4904F049FF002840F0D18000238DF891
:102AF000173006930023079307AB0093794906AB81
:102B00000DF11702E01C04F0DFFD032840F0BA804D
:102B10009DF81730744943F02003742B06A807BFB3
:102B2000724C734D734C744DFDF7F2FA002840F06F
:102B30009780079B23600622704B1A70FEF7A2FB5A
:102B40006F4B963018600798FDF758FCCDE90001EF
:102B500029466C4806AAFFF775FF01E000289ED1C0
:102B600009B0F0BDA3F16105192D9CBF203BDBB27C
:102B700002F8013B96E7792D4BD07A2DA8D1624817
:102B800003F000FC614803F0FDFB0023604A594854
:102B90001360604A1360FFF7EBFB5448FFF7E8FB54
:102BA0000622564B1A70FEF76DFB554B9630186097
:102BB000594809B0BDE8F040FFF744BF002357492A
:102BC00007AA601C079304F07FFD01281DD154491A
:102BD0000798FEF7C1F85349FEF772F9FEF782FA3B
:102BE0000622464B4A4C1A702060FEF74BFB444BC2
:102BF000963018600798FDF701FC0B4621680246E5
:102C000049480091FFF71EFFAAE74848FFF71AFF5F
:102C1000A6E70023414907AA601C079304F054FD6E
:102C200001281BD13E490798FEF796F83D49FEF76B
:102C300047F9FEF757FA0622304B364C1A702060DF
:102C4000FEF720FB2E4B963018600798FDF7D6FB59
:102C50000B462168024600913548D3E73548D5E751
:102C6000354906A8FDF754FA10B9079B636062E77F
:102C7000324906A8FDF74CFA002840F08283079BF2
:102C8000A36058E72E48FFF7DDFE2E48BEE705F0AB
:102C9000DF034B2B09D10522184B1A70FEF7F2FA0D
:102CA000174B96301860284883E74D2B50D10622E9
:102CB000124B1A70FEF7E6FA114B96301860234853
:102CC00077E700BFFF060020090040000007002052
:102CD0002605002050C20008120500201DC3000870
:102CE00021C3000825C3000830C300087805002070
:102CF0002BC200089C05002030C2000840000020C4
:102D0000D806002062C30008840700202C0700209A
:102D10007405002070050020F2C200082DC30008D1
:102D2000000061450000B44353C2000876C20008A9
:102D3000A2C20008C6C2000833C3000836C3000898
:102D400085C30008B0C30008C8C30008F1C3000869
:102D5000082220467F4904F00FFE30B108222046A9
:102D60007D4904F009FE002834D100237B498DF809
:102D70001830079306AA07AB04F1080004F0A4FC7E
:102D8000022821D19DF8183043F02003702B15D173
:102D9000734B079A1A60FEF775FA724B96301860FB
:102DA0009DF818307048714943F02003702B18BF0C
:102DB0000146079A6E48FFF745FED1E6742B01D114
:102DC0006C4BE6E76C4821E76A4B6C481A68644B29
:102DD0001968F0E705222046694904F0CDFD28B1C5
:102DE00005222046674904F0C7FD78B94FF4967371
:102DF000654907AA601D079304F066FC0798FFF772
:102E0000C1FA07996148FFF71DFEA9E60422204692
:102E10005F4904F0B1FD28B1042220465D4904F069
:102E2000ABFD68B900225C4B5C481A7003F034FBC0
:102E30005B4803F031FB06225A4B5B481A70B8E638
:102E400004222046594904F097FD28B10422204667
:102E5000574904F091FD20B909B0BDE8F040FFF7F3
:102E600027B906222046534904F086FD28B10622E0
:102E70002046514904F080FD20B909B0BDE8F0407A
:102E8000FFF79EB9042220464C4904F075FD28B195
:102E9000042220464A4904F06FFD70B90023494AD4
:102EA0001360494A136006223E4B1A70FEF7EAF996
:102EB0002C4B9630186045487BE604222046444956
:102EC00004F05AFD28B104222046424904F054FD82
:102ED00048BB043425462B780134202BFAD002223B
:102EE00028463D4904F048FD28B1022228463B49C6
:102EF00004F042FD20B90122394B3A481A7058E6D5
:102F000003222846384904F037FD28B10322284619
:102F1000364904F031FD20B90022314B34481A7093
:102F200047E6344845E61F4E3378052B72D1542DC1
:102F300068D8402D0AD82B2D01D02D2D6AD12E49CD
:102F40002E4809B0BDE8F040FFF77CBD413D2C4B59
:102F5000EDB25CE014C400081DC4000826C40008DB
:102F6000C8050020D80600202BC2000830C2000887
:102F700048C40008C40500202DC4000865C400082A
:102F800083C4000889C400082AC400088FC400084C
:102F9000B2C40008B7C400086505002084070020FB
:102FA0002C07002040000020BCC40008CAC4000850
:102FB000CFC40008D4C40008DBC40008E2C4000881
:102FC000E7C400087405002070050020ECC4000868
:102FD0000BC5000810C5000815C5000818C5000875
:102FE000040300201BC500083EC5000842C50008B8
:102FF00046C500085DC50008000700207FC5000821
:10300000AD800C00613DEDB2162D03D8974BEB401F
:10301000DB0794D403233370FEF734F9944B9630D6
:10302000186000224FF400519248FEF781FA92494D
:103030009248FFF707FD2578A5F13F03362B00F2F4
:10304000A581DFE813F0E400A3019400A301880048
:10305000A800A3017A00E7008100C100A301A30139
:10306000A301A301A301A3013C00A301A301A000AC
:103070007500CD00A301A301A301A301A301A30136
:10308000A301A301A301A301A3019400A30188004C
:10309000A800A3017A00E7008100B500A301A30105
:1030A000A301A301A301A3013700A301A301A00071
:1030B0007500CD00724B734A73481A6079E5734C02
:1030C0002068FDF79BF90646A0680F46FDF796F9C4
:1030D000CDE902016068FDF791F932463B46CDE942
:1030E00000016B48FFF7AEFC6A4B6B4C1A7803216A
:1030F0006A48FFF7A7FC2068FDF780F90646A0683C
:103100000F46FDF77BF9CDE902016068FDF776F91E
:103110003246CDE900013B466148FFF793FC0421AC
:10312000604B5E481A7809B0BDE8F040FFF78ABCF2
:10313000534B5D4A5D481A603BE5514B00211868CE
:1031400003F05CF85A4834E54D4B0121186803F050
:1031500055F858482DE54A4C0021206803F056F8F0
:10316000206803F0B1F8216853482031E9E6444C67
:103170000121206803F04AF8206803F0A5F82168CF
:103180004E482031DDE63E4C206803F085F9216889
:103190004B482031D5E63B4803F096F8424803F00F
:1031A00093F8042300223370464B47481A6000E529
:1031B000384A4648137883F0010111704449454A62
:1031C000012B08BF1146BCE6364A4348137883F00A
:1031D000010111703E493F4A012B08BF1146B0E67C
:1031E0003E4B1A788AB100241C703D4B27481C7056
:1031F000FFF7B0F82848FFF7ADF8244B394883F8BB
:103200005540254B83F85540D3E43748D1E4FEF7C9
:103210004FFF32E6002300268DF81730069307ABE8
:103220000093324906AB0DF11702601C079604F0BB
:103230004BFA032840F0A8809DF81750134C164B0A
:1032400045F020052A4906A8742D08BF1C46FCF746
:103250005FFF002866D1079F264E38463146FDF7AE
:1032600019FF002848D007964DE000BFAD804E0002
:10327000D80600200010014000070020A5C5000866
:103280003800002084070020AEC50008300600206A
:10329000D4C5000808000020CC050020F9C50008AE
:1032A00012C600083A0500202C07002037C6000887
:1032B0005EC600087EC600089BC60008B7C60008A8
:1032C000D4C6000828070020E5C6000804C7000887
:1032D00034C2000843C200081FC70008D6060020F9
:1032E000D70600203BC7000863C7000826C30008B4
:1032F00030C300086F12833A574E38463146FDF707
:10330000E7FE0028AFD107982060544B544C742D31
:1033100008BF1C46FDF772F806AACDE90001214658
:10332000504818E4504906A8FCF7F2FE90B9079FF0
:103330004E4E38463146FDF7ADFE08B1079606E021
:103340004B4E38463146FDF7C3FE0028F6D10798AC
:103350006060DAE7474906A8FCF7DAFE88B9079FFC
:1033600031463846FDF796FE08B1079606E0424E14
:1033700038463146FDF7ACFE0028F6D10798A0602C
:10338000C3E73E4806A93EE53D483FE4601C03F024
:103390001EF9562D06464CD010D82D2D2FD0522D6B
:1033A00012D02B2D1DD021783648FFF74BFB364924
:1033B000364809B0BDE8F04004F07BBB762D38D02C
:1033C000772D2AD0722DEED13046FDF771FC304CAE
:1033D0000146206802F0F6FF216832462D48203170
:1033E000A1E62B4D0021286802F010FF3146286825
:1033F00002F0DAFF296832462748203193E6244D4F
:103400000121286802F002FF3146286802F0CCFF53
:10341000296832462148203185E61D4D014628683D
:1034200003F00EF8296806EBD6761D48721020319D
:1034300079E644F620639E4228BF1E46B6F5487FD3
:1034400038BF4FF44876124B3146186802F0F0FE50
:103450003146144875E500BFCDCC4C3D2BC2000869
:1034600030C200087DC7000833C3000800002041B7
:103470000000164336C300080AD7233C39C30008AE
:10348000B1C7000865C8000899C8000812050020E7
:10349000380000200CC80008DAC70008F3C700088D
:1034A00023C800083CC80008F0B5394BAFB01B7802
:1034B000002B6AD0FDF7E6FE364C2368C01A63285D
:1034C00063D9FDF7DFFE344B20609C6C334B9E6C60
:1034D000334B1D68334B1F68334B1868FCF78EFF66
:1034E000CDE90E01B81BFDF7E3FBFCF787FFCDE943
:1034F0000C013846FDF7DCFB2C49FDF72DFC2C496F
:10350000FDF7DEFCFCF77AFFCDE90A013046FDF756
:10351000CFFB2649FDF720FC2549FDF7D1FCFCF740
:103520006DFFCDE90801234B1868FCF767FFCDE973
:103530000601281BFDF7BCFBFCF760FFCDE9040189
:103540002846FDF7B5FB1949FDF706FC1849FDF7BC
:10355000B7FCFCF753FFCDE902012046FDF7A8FBBD
:103560001249FDF7F9FB1249FDF7AAFCFCF746FFEB
:10357000114ACDE90001782110A804F04DF80A2382
:1035800082B210A90D48FEF733FD2FB0F0BD00BF89
:103590000403002000030020840700202C070020E3
:1035A0007405002070050020680500200000B44369
:1035B000000061456C0500209DC800086C080020D3
:1035C00030B50446002002460A4D082115F8013B9B
:1035D000584043B2002BBABF5B0083F0070343009F
:1035E000D8B24B1E13F0FF01F3D10132D2B2A24286
:1035F000EBD130BDC90600202DE9F74F40F6B83BAE
:103600001E46836C1446A2EB030A8AEAEA72A2EB16
:10361000EA725A45884605460C9F0D99DFF850928C
:1036200040F3FD80D9F80020002A40F0E180FDF74A
:1036300029FEC9F80000284602F0C5FF002840F026
:1036400006812146284602F05FFEFDF71BFE044678
:10365000D8F81C00201AFDF727FB8649FDF77CFBF4
:1036600084498146FDF716FD002840F0F2804FF0B6
:103670007E514846FDF72CFD08B14FF07E5950466B
:10368000FDF716FB4946C8F81C408246FDF764FB6F
:10369000D8F81010FDF758FA77490446FDF718FDE1
:1036A00000B1754C20467549FDF7F4FC00B1734C30
:1036B000D8F80C105046C8F81040FDF743FA4946B8
:1036C000FDF7FEFBD8F800108146C8F80CA0504664
:1036D000FDF742FBD8F8041082462046FDF73CFB7C
:1036E00001465046FDF730FAD8F80810044648461F
:1036F000FDF732FB01462046FDF726FAD8F8189070
:1037000004464946FDF7E4FC00B14C46D8F8148065
:1037100020464146FDF7BEFC00B144464FF07E51C5
:103720002046FDF7D5FC002840F09A8020465449F9
:10373000FDF7B0FC002840F08F8000212046FDF707
:10374000C7FC002800F0898039462046FDF704FBBD
:1037500000210446FDF79EFC002840F086804FF0D3
:103760007E512046FDF7B4FC00287CD04FF07E50FF
:103770004449FDF7F1FAFDF7DBFC44F62063181A23
:10378000984228BF1846B0F5487F38BF4FF44870BC
:10379000FDF78AFA3768044600213846FDF770FCC9
:1037A00068B938463849FDF7D7FA38490746204600
:1037B000FDF7D2FA01463846FDF7C6F904464FF048
:1037C0007C5120463460FDF7BFF9FDF7B1FC44F6AB
:1037D00020639842014628BF1946B1F5487F38BF9B
:1037E0004FF44871284603B0BDE8F04F02F042BDE7
:1037F0000191FDF747FDD9F80020801A58457FF662
:103800001AAF234B01991A78002A7FF414AF0122D2
:1038100020481A700323524603F08EFE0BE7002364
:103820001B4AC9F8003013700AF10203042B3FF65B
:1038300002AF02F0C8FE10B1284602F02DFE40464D
:10384000FEF796FD0023336003B0BDE8F08FEC6413
:10385000FBE6DFF8209012E7094C04F1004473E71F
:103860004FF07E5470E7204682E7002080E700BFDB
:103870003C0500206F12833A00409C4500409CC5E7
:10388000000080BF000096463333333F9A99993E3B
:103890003B050020CBC80008234B73B51A682348AA
:1038A000234B1C68836CD31A042B35DC04330ADAEF
:1038B000012320490D789D4204D01F4D2D68002B17
:1038C0002CD12A440B701D498B6CE31A042B27DC86
:1038D000043309DA01231A4D2E789E4203D0194E83
:1038E0003668FBB934442B70174BC264CC64019327
:1038F0004FF07E53154900930C48154BFFF77CFEA3
:10390000144B22460193144B144900930B48144B5B
:10391000FFF772FE02B070BD0023CAE7521BD1E769
:103920000023D8E7A41BDEE77405002084070020ED
:1039300070050020C1050020C80500202C070020CC
:10394000C0050020C405002030C200089C050020EE
:103950006C0500202BC200083333333F780500206C
:103960006805002030B5002589B0284B07959A6975
:10397000012442F004029A619A6904A902F0040247
:103980000092009A9A69224842F008029A619A6964
:1039900002F008020192019A9A6942F010029A61BB
:1039A0009A6902F010020292029A9A6942F00102A8
:1039B0009A619B69174A03F001030393039B5368C1
:1039C00023F0E06343F00073536003230694CDE9D2
:1039D0000435FDF7D3FC4FF4704304A90E48CDE93C
:1039E000043506944FF40055FDF7C8FC022304A9E2
:1039F0000A480793CDE90454FDF7C0FC2246294646
:103A00000648FDF795FD09B030BD00BF001002402B
:103A10000008014000000140000C0140001001407E
:103A200030B5002587B01B4B04959A6902A942F472
:103A300080429A619B694FF4007203F480430193C2
:103A4000019B0223CDE90223032313480593FDF7CD
:103A500095FC4FF4806302A90F48CDE90235049527
:103A6000FDF78CFC4FF4E1330C4C0D492046C4E9C2
:103A700000130C23C4E90255C4E905352561E5614D
:103A8000FEF787FA2268D36843F02003D36007B0BB
:103A900030BD00BF00100240000801406C0800204B
:103AA0000038014030B5002587B01A4B0495DA691B
:103AB00002A942F40032DA61DB69042203F4003324
:103AC0000193019B0223CDE90223032312480593AE
:103AD000FDF754FC082310480DEB0301CDE9023536
:103AE0000495FDF74BFC4FF416530C4C0C49204643
:103AF000C4E900130C23C4E90255C4E90535256166
:103B0000E561FEF746FA2268D36843F02003D360EC
:103B100007B030BD0010024000080140240800201A
:103B20000044004030B5002587B01F4B0495DA698A
:103B300002A942F48022DA61DA691C4802F4802288
:103B40000092009A9A691A4C42F008029A619B69A5
:103B50004FF4806203F008030193019B0223CDE937
:103B6000022303230593FDF709FC4FF4006302A928
:103B70000E48CDE902350495FDF700FC4FF4E13322
:103B80000C492046C4E900130C23C4E90255C4E9DA
:103B900005352561E561FEF7FCF92268D36843F03D
:103BA0002003D36007B030BD00100240000C01407C
:103BB000DC07002000480040174B37B5DA69174C86
:103BC00042F00102DA61DB694FF0804203F0010349
:103BD0000193019B47230025C4E9002341F63F736D
:103BE000C4E9025380232046A3612561FDF7FCFF51
:103BF00022682046D36843F00103D360FDF79AFFA3
:103C00002A4601211C20FDF767FB1C2003B0BDE8FC
:103C10003040FDF791BB00BF001002408C0900202E
:103C200010B51E4B8CB09A69002442F400629A6170
:103C30009B694FF4006203F400630093009B02232E
:103C4000CDE90123032301A9154804930394FDF74B
:103C500095FB144A144B104613604723C2E9013404
:103C600044F61F63C2E9033480239361FDF7E8FF44
:103C70002146142207A803F077FE40F2DC536021AE
:103C80000C22CDE90513074805A9FEF731F80C21F0
:103C90000448FEF7E1F80CB010BD00BF0010024070
:103CA0000008014044090020002C014010B51D4BC4
:103CB0008CB0DA69002442F00202DA61DB6901A902
:103CC00003F002030093009B0223CDE90133032399
:103CD000154804930394FDF751FB144A144B104606
:103CE00013604723C2E9013444F61F63C2E9033479
:103CF00080239361FDF7A4FF2146142207A803F057
:103D000033FE40F2DC53602205A9CDE905230748C4
:103D10000C22FDF7EDFF0C210448FEF79DF80CB0D6
:103D200010BD00BF00100240000C0140FC08002044
:103D300000040040164B37B5DA69164C42F0040215
:103D4000DA61DB69144A03F004030193019B472302
:103D50000025C4E9002341F63F73C4E902538023E0
:103D60002046A3612561FDF73FFF22682046D36806
:103D700043F00103D360FDF7DDFE2A4601211E203A
:103D8000FDF7AAFA1E2003B0BDE83040FDF7D4BA13
:103D900000100240B40800200008004010B514468E
:103DA0000A2392B20248FEF723F9204610BD00BF55
:103DB0006C08002000207047002070474FF0FF3053
:103DC00070474FF0FF30704701207047074B1B686A
:103DD0001A69D10708D5DA68D20705D56FF0010254
:103DE00003481A6102F064BB704700BF8C090020D1
:103DF00084070020074B1B681A69D10708D5DA68C9
:103E0000D20705D56FF0010203481A6102F050BBDA
:103E1000704700BFB40800202C070020144B82B06C
:103E20001B681A68110706D5002201921A680192D0
:103E30005A680192019A1A68920616D50D4A5B6873
:103E40001178DBB21E2905D81078411CC9B2117057
:103E500009490B540A2B01D00D2B03D10122074B2A
:103E60001A7002E013781E2BF8D802B0704700BF1A
:103E70006C080020FF06002000070020FE0600203E
:103E8000324B13B51B681A68100706D50022019241
:103E90001A6801925A680192019A1A68510742BF42
:103EA0005A68D2B28DF801201A68920742BF5A6848
:103EB000D2B28DF802201A68D40742BF5A68D2B233
:103EC0008DF803201A68100615D5DA68110612D588
:103ED0001F4A204910880A8880B292B2904228D0A6
:103EE0000A881D4892B2805C0A88C0B20132C2F3CF
:103EF00008020A8058601A68920625D501225C687B
:103F0000164BE4B21A70FDF7BDF9154B1860154B4E
:103F10001A781E2A05D819784A1CD2B21A70124A89
:103F200054540A2C01D00D2C0BD101220F4B1A70C6
:103F30000AE000210E4A1170DA6822F08002DA608D
:103F4000D9E71B781E2BF0D802B010BD2408002042
:103F5000100300200E030020120300200C03002099
:103F600008030020DD060020DE060020DC0600201D
:103F70000D0300206F4B73B51E6833689A061AD57F
:103F80006D4C75682378EDB2062B00F28D80DFE86A
:103F900003F004093060636752003C2D0BD101230C
:103FA000237008E03B2D12D10023644A13700222D3
:103FB0002270634A137033681B0706D500230193F0
:103FC0003368019373680193019B02B070BD3A2D71
:103FD00008D10122594B1A70022300222370584B3A
:103FE0001A70E8E73C2D5FD10222544B1A70062369
:103FF000F3E7524B1A78524B72B91A78052A06D851
:104000001A78D1B20132D2B21A704E4A55541B7886
:10401000052BD0D90423C3E71A780A2A06D81A78C0
:10402000D1B20132D2B21A70464A55541B780A2BCB
:10403000C1D90323B4E7424A1378042B06D8137876
:10404000D9B20133DBB213703E4B5D541378042BAD
:10405000DFE73D4B1D70DDE7012D25D105239FE7EF
:10406000012D21D1354B1A7812BB0520FFF7A8FA94
:10407000344B5A79824219D119785A7842EA01228E
:10408000324912B20A809978DA7842EA012230493C
:1040900012B20A801B792F4ADBB213702E4B2F4AC3
:1040A0001D70136801331360002379E72C4AF8E789
:1040B0001A78012A35D10B20FFF782FA224B1B78A0
:1040C0008342F3D11F4B19785A7842EA01222549DD
:1040D00012B20A809978DA7842EA0122224912B2B1
:1040E0000A8019795A7942EA012220490A8099798D
:1040F000DA7942EA01221E490A80197A5A7A42EA9A
:1041000001221C4912B20A809A7A1B4902F001026C
:104110000A709B7A194AC3F340031370184B1D7041
:10412000C2E71B78022BBFD1064B164A1B78DBB2C5
:104130001370B9E7DC070020D5060020C706002071
:10414000C8060020C9060020C6060020C4060020BC
:10415000C2060020C1060020C0060020A4060020E0
:10416000A8060020A00600209E0600209C06002035
:104170009A0600209806002096060020950600204A
:1041800094060020B8060020FDF770B807B5074C6C
:104190004FF400510648FDF7D0F900230193019B2D
:1041A000A342F5D8019B0133F8E700BF1FA1070028
:1041B0000010014007B572B6064C4FF40051064896
:1041C000FDF7BBF900230193019BA342F5D8019BA6
:1041D0000133F8E73F420F000010014010B590B0E6
:1041E0001422002108A803F0BFFB1422002101A81B
:1041F00003F0BAFB02244FF480330122CDE90D43D2
:10420000CDE906234FF4E01306A80F93FDF79EF9BE
:1042100008B1FFF7CFFF0F23CDE901344FF48063DE
:104220000390CDE90430214601A8FDF751FB002899
:10423000EFD110B010BD00002DE9F04FC5B0FDF773
:1042400003F8FFF7CBFF4AF6AA22B34BB34D1A602F
:1042500000231193AB694FF4005043F01003AB619E
:10426000AB690FA903F010030E930E9B0123CDE958
:104270000F030223AA4812930324FDF77FF80022BC
:104280004FF40051A648FDF753F96420FDF700F8FC
:1042900001224FF40051A248FDF74AF96420FCF7CF
:1042A000F7FF013CEBD1FFF75DFBFFF7B9FBFFF731
:1042B000F9FBFFF737FC224621462520FDF70CF8D5
:1042C0002520FDF739F8224621462620FDF704F87F
:1042D0002620FDF731F8224621462720FCF7FCFF77
:1042E0002720FDF729F822460F214FF0FF30FCF779
:1042F000F3FF6C6A8B48214603F01EF9002C02DAAA
:10430000894803F019F9610002D5884803F014F9CF
:10431000A20002D5864803F00FF9E30002D58548D4
:1043200003F00AF9270102D5834803F005F9660175
:1043300002D5824803F000F9A00102D5804803F0BD
:10434000FBF8804803F060F96B6A43F080736B629E
:1043500001F09EFB002800F06B817B484AF6AA25FD
:104360006D4C03F051F92560FFF75AFC2560FFF70B
:104370009DFC2560FFF720FC2560FFF7DBFC734BFD
:104380002560069340F2465340F2DC5640F6C41BCB
:104390004FF4FA7A4FF448780593A3F68C23DFF8AC
:1043A000B09104936B4B4A46CDE901B66A496B481C
:1043B0000393CDF800A00C2301F0D4FE684B2560D8
:1043C000684F0693684B6949CDE901B6684A694868
:1043D0000393CDF800A00C23CDE9047801F0C2FED0
:1043E00025604FF07E55D9F80030614A1E6413688D
:1043F000614A1E64614B624E1360624B624C5360B3
:10440000624B1046946093651566D665FDF7A2FF72
:104410005F4A604B156613605F4BA94653600025E9
:104420004FF081439460DFF874B15D4CDFF874A104
:1044300010469365D665FDF78DFFC4F81890C4F853
:1044400000B04FF001096560C4F808A0E56025617F
:104450006661FCF717FF4FF07E53E06184F820900F
:10446000514CA361C4F800B06560C4F808A0E560D1
:1044700025616661FCF706FF40F246524B49E06158
:10448000364884F8209001F06FFF3946424639489B
:1044900001F06AFF0023464A2A481360454A136028
:1044A00003F0B2F8444803F0AFF8444803F0ACF826
:1044B000434803F0A9F8434803F0A6F8424803F044
:1044C000A3F8424803F0A0F8414803F09DF8414B9F
:1044D0001A782AB100241C70FEF7CAFA3E4B1C70F1
:1044E0003E4B1A787AB100263D4C1E7022783D4929
:1044F0003D4803F0F4FA2378374FDBB23B70FEF708
:10450000B7FA3E702670FCF7BDFE384A384C136887
:10451000C31A312B6EE000BF003000400010024093
:104520000010014045C9000866C9000873C90008A9
:1045300080C9000892C90008A3C90008A9C90008D9
:10454000B4C9000894CC0008C5C9000830C20008EE
:10455000FC0800207B09ED408C0900208407002026
:104560002BC20008E0FCFFFF1CC73141B40800204B
:10457000440900202C07002030060020A69BC43BE5
:10458000000080BF0000F042A69BC43A00004040FB
:10459000CC0500206F12833B0000B44252491D3A03
:1045A0009C05002017B7513878050020BAFAFFFFA4
:1045B00074050020700500201ECB000879CB000890
:1045C000A7CB0008CBCB0008EFCB00084ACC0008F3
:1045D0006CCC0008FE060020FF060020DC06002050
:1045E000DD060020DE060020000700205402002027
:1045F000400000204AD910604FF400419E48FCF76B
:1046000091FF002840F0D2809C4801F045FF9C4873
:1046100001F042FF2378013303F007032370013BCD
:10462000062B16D8DFE803F02227828F9CA1B20068
:10463000944802F0E9FF944802F0E6FF934802F044
:10464000E3FF934802F0E0FF924802F0DDFF92485A
:1046500084E68A4E914B92481E6002F0D5FF914845
:1046600002F0D2FF304601F02FFE0FE0844E8B4B5C
:104670008D481E60F1E78D4802F0C6FFB4217F48E7
:1046800001F0DEFEB4217E4801F0DAFEFCF7FAFD0F
:10469000874A06461368C31A132B2DD910600121CF
:1046A0008448FCF73FFF022180468248FCF73AFF2E
:1046B000DFF804A207469AF80030B8F1000F40F086
:1046C00071817E4A002B40F0318101218AF800106F
:1046D0007B4913700E60DFF8EC8198F80020002F02
:1046E00040F0C181784B002A40F09681012288F881
:1046F0000020764A1F7016602378042B40F07382E6
:10470000FCF7C0FDDFF8C8810646D8F80070DFF876
:10471000C491002F40F0CC816F4BC8F800006F4867
:1047200089F800701F6002F06FFF5CE26C4802F0D5
:104730006BFF6C4802F068FF6B4802F065FF6B4846
:1047400002F062FFA2E76A4802F05EFF4B4801F008
:10475000BBFD4B4801F0B8FD00225D4B1A6095E7A8
:10476000644802F051FF6448EAE7644802F04CFFF5
:10477000634802F049FF634802F046FF624802F0D6
:1047800043FF624802F040FF6148D9E7614802F008
:104790003BFF614B614A1978614B6248002918BFA1
:1047A0001A46114602F0C8FE5F48C9E72378022B7B
:1047B00025D14FF480513048FCF7B4FE38B92F486A
:1047C0008668B6F5487F7FF661AFC83E0FE04FF4CC
:1047D00000512948FCF7A6FE00287FF457AF44F6A5
:1047E0001F63264886689E423FF650AFC836314662
:1047F00001F01EFD3146224801F01AFD46E7042B68
:10480000D7D0032B3FF442AF4FF480511A48FCF746
:1048100089FE80B9214E30688168B1F5487F02D9A0
:10482000C83901F005FD306801F0CDFE00287FF4A5
:104830002DAF306817E74FF400510F48FCF772FEB8
:1048400040B944F61F63154E306881689942EAD832
:10485000C831E6E74FF480410748FCF763FE0028C3
:104860007FF414AF0D4E30684178B1FA81F14909F7
:1048700001F0CCFCD7E700BF000C0140840700200A
:104880002C070020EDC900083CCA00084ECA0008E9
:104890008DCA0008A2CA0008C2CA00083C00002055
:1048A00096CC0008CCCC0008F2CC000829CD00083A
:1048B00050020020000801404C0200204502002068
:1048C00048020020440200203C0200204002002058
:1048D0002807002024070020200700205AD10008C4
:1048E0004CCD00086FCD00089BCD0008C3CD00085B
:1048F000F8CD000832CE00085ACE000879CE000864
:104900009CCE0008C0CE0008E5CE00080FCF0008FE
:104910004CCF000881CF0008650500201BC90008A6
:1049200011C90008A4CF0008CBCF000892F800807E
:10493000B8F1000F7FF4CFAE40F2DB51724B1B6831
:10494000F31A8B427FF6C7AE012313706F4BDFF86B
:10495000C0A1C3F800806F4BDFF8BC91C3F80080A2
:104960006E4B504683F800806D4B83F80080FDF756
:10497000F1FC4846FDF7EEFC6A4B8AF855801D6055
:10498000694B89F855801D60684B83F800800623C9
:104990002370FCF777FC664B96301860654802F090
:1049A00033FE98E6002B3FF496AEDFF88C8198F842
:1049B0000090B9F1000F0ED12378DFF870B1052B0C
:1049C0000FD15E48FDF732FD06235D488BF800905D
:1049D000237002F019FE00238AF8003088F80030B6
:1049E00079E601238BF8003005232370554B83F8BB
:1049F0000090554B83F80090544BC3F80090FCF79F
:104A000041FC534B1860454B524883F80090454B8E
:104A10001D60454B1D60DCE71A78002A7FF46CAE00
:104A20004D4A1268B61A40F2DB5296427FF664AEE7
:104A300001221A70394B1A789AB1DFF8D4801F70AE
:104A4000354E374B40461F70FDF784FC3046FDF76E
:104A500081FC424888F8557086F8557002F0D4FD04
:104A60004AE63F48FAE7002A3FF446AE3D4E337827
:104A70007BB92278072A11D13B4A3C48137001F0D8
:104A80000BFD3B4801F008FD06233A48237002F075
:104A9000BBFD002388F8003033702DE64FF496708C
:104AA000FDF770FC4FF49671334802F045FDF0E7D6
:104AB00099F80030C71B052B00F2F484DFE813F0EF
:104AC000060060002A0455047D04CA044FF47A618C
:104AD000264801F0ADFB4FF47A61254801F0A8FBB0
:104AE0000021224801F092FB0021214801F08EFBB9
:104AF000B7F5FA6F77D90123002289F800301F4BF0
:104B0000C8F800601A606EE04802002074050020BA
:104B10003006002070050020CC050020D6060020BD
:104B2000D7060020F4020020F0020020340000200C
:104B3000D8060020EECF00084502002033D0000840
:104B40004AD00008BA060020B9060020AC060020B2
:104B5000BC06002077D0000840020020AED000083C
:104B6000DED000083C0200206505002084070020FC
:104B70002C07002003D1000830D1000820070020B6
:104B8000B74BDFF8E0A218464FF49661DFF8D8B2D1
:104B900001F04EFB40F2DC51504601F049FBDBF8DE
:104BA0000020AF4BB21AB2F5AF7F10D95978184632
:104BB000B1FA81F14909CBF8006001F027FB9AF8BE
:104BC00001105046B1FA81F1490901F01FFB40F68E
:104BD000B8339F4207D9022389F800300023C8F870
:104BE0000060CBF800302378062B03D1FEF754FE8B
:104BF000FEF75AFC2378072B42D19C4B1B78002BE5
:104C00003CD0DFF86C929B4E99F80030944956F8EE
:104C10003320896C06EBC3035F68A2EB0108914B5C
:104C200008F10508D3F848A0FCF72CFBB8F10A0FEF
:104C3000DFF844C200F23D84A7EB0A0705370A2FCC
:104C400000F23784DCF80030C31AC72B14D999F866
:104C500000108A4B013101F0030156F8312006EBB8
:104C6000C1061A607368864ECCF80000854889F842
:104C70000010336002F060FCFEF70EFEFEF714FC3D
:104C8000FCF700FB804E3368C01AC72840F2C18091
:104C9000FCF7F8FA306000F0FDFE002800F0B98063
:104CA0008022002124A802F05FFE23783FA8072B72
:104CB00098BF764AA3F1050194BF52F82320744AA5
:104CC0004B424B418DF80C31724B734923921A7849
:104CD000724BDFF88CA1002A08BF0B461021704AE6
:104CE00002F09AFC9DF80C31002B00F031846D4BE2
:104CF0001F886D4B3FB287EAE770A0EBE77080B288
:104D00001E88FBF7D5FF36B2814686EAE670A0EB37
:104D1000E67080B2FBF7CCFF644980464846FCF75A
:104D2000D7F9002840F0C98348466049FCF7C8F825
:104D30003D905E494046FCF7CBF9002840F0C08327
:104D400040465A49FCF7BCF83B461021584A3E9071
:104D500024A802F061FC574A3346102128A802F02B
:104D60005BFC504B188800B2FBF7A2FF524B19684E
:104D7000FBF7F2FF4C4B0646188800B2FBF798FF92
:104D80004E4B1968FBF7E8FF364A9AF8043012795F
:104D9000134340F098834A492CA802F08AFE494BFD
:104DA0001B7803F0FF02002B00F09C83464912F0B1
:104DB000040F464B18BF0B4612F0020F0CBF2D22FA
:104DC0004822182100920DF1C600414A02F024FC4D
:104DD000FCF758FAFBF7F0FA00223E4BFBF790FC89
:104DE0003D4B3E4A1B781278002B0CBF702350239A
:104DF000002A0CBF74225422CDE90001CDE9023211
:104E00001621374A0DF1DE0002F006FC23A800F05F
:104E100043FE344F3B78002B00F091803B78013B00
:104E2000DBB2042B00F2DE832F4A52F823802F4A94
:104E300012F803902E4A12F803A000262D4B1E48AC
:104E400083F800902C4B1E702C4B1E602C4B1E7058
:104E50002C4B1E70FDF77EFA1848FDF77BFA53E0E5
:104E6000840700202C070020200700206505002073
:104E70006405002044050020400500207405002042
:104E800070050020E8D10008E802002020DA0008C0
:104E9000AABE00080C03002029C9000825C9000883
:104EA00008D20008C4060020C206002000002043EB
:104EB0000ED2000816D2000830060020CC050020D3
:104EC0001ED20008C10600202EC9000833C9000800
:104ED0003AD2000800408F40080000203A05002028
:104EE00044D20008B8060020F8D90008F2D900081A
:104EF000EDD90008BA060020B9060020B00600204F
:104F0000D6060020D7060020B04B83F85560B04B82
:104F100083F85560AF4B1D60AF4B1D60AF4BBAF1CE
:104F2000000F00F06583AE48FDF780FAAB4BAD484B
:104F30001E700623237002F067FB00233B70AA4B10
:104F40001A78B2B100221A70A84BB3F80080A84BAF
:104F50000FFA88F81F88A74B3FB21E78FCF792F92A
:104F6000F6B2A54BF207186000F15383A348FDF792
:104F70005DFADFF88C8298F80030052B20D19E4F27
:104F80003B68EBB1FCF77EF93B689E4EC31AB3F564
:104F9000FA6F40F2CB849C4802F036FB9B4801F04C
:104FA0007BFA9B4801F078FA8848FDF7D3F98848E6
:104FB000FDF7D0F9032388F8003000233B6033600D
:104FC000FCF760F9934E3368C01AB0F5FA7F64D3EA
:104FD000FCF758F93060904E3368DB689F045CD56D
:104FE00043F63C538948ADF88C30826B836C934216
:104FF000B8BF13461946C36B9942D4BFC2EB010335
:10500000C2EB0303C16BC3EB03238A1A93FBF2F3D6
:105010007F4A8DF88E30916B936C8B42B8BF0B46F4
:105020001F46D36B9F42D4BFC1EB0703C1EB030301
:10503000D76BC3EB0323791A93FBF1F312798DF845
:105040008F30037913445B108DF8903001F0B6FA7D
:1050500023789DF88D105C1F63426341021E18BFC8
:10506000012242EA430200238DF892309DF88C30F1
:105070008DF891200B449DF88E1030460B449DF81E
:105080008F100B449DF890100B441A448DF8932018
:105090000A23082223A9FCF7ABFFFCF7F3F85F4CC7
:1050A0002368C01A952840F20581FCF7EBF85C4BA9
:1050B00020601B68DB68990440F1FC80FCF7E6FF88
:1050C000B0F59A7F80F0F680484CDFF82481208884
:1050D00000B2FBF7EDFD3D4B1968FBF73DFE0746BF
:1050E000B8F8000000B2FBF7E3FD394B1968FBF795
:1050F00033FE4FF07E5106463846FBF7E9FF0028A5
:1051000040F0218438464749FBF7C4FF00B1454FC2
:105110004FF07E513046FBF7DBFF002840F017844C
:1051200030464049FBF7B6FF00B13E4E2488384672
:1051300023B20D93B8F800301CB2FBF75FF982463A
:1051400030468B46FBF75AF9204A064650680F4610
:10515000FBF754F91E4A804650688946FBF74EF922
:10516000274B244A93F800C01278BCF1050F14BFF6
:105170004D234123C2F34002CDE90A23CDE90801C2
:10518000CDE906896021CDE90467CDE902AB0D9B2D
:10519000254A009423A802F03FFA011E02DD23A84D
:1051A000FDF708FC1E4C2368DB689A046BD5FCF7FE
:1051B0006DFFB0F59A7F66D21C4A1D4BDFF874C0B4
:1051C0001B8811881C4A09B238E000BF3006002055
:1051D000CC050020F4020020F00200203400002062
:1051E00079D200088CD20008C0060020C406002036
:1051F000C2060020C1060020BC06002016D300080D
:1052000040000020AC06002080D400088407002065
:105210002C070020E4020020DC070020E002002030
:1052200024080020000080BFD4D400089E0600207F
:10523000A0060020950600209C0600201088AB4A9E
:1052400080B21688AA4AB6B21788AA4A3FB2127824
:105250009CF800C01BB2BCF1000C18BF4FF0010C51
:10526000003A18BF012242EA4C02CDE90372CDE9AF
:1052700001060091A04A402113A802F0CDF929218E
:1052800013A8FDF797FB2368DB689B0412D5FCF796
:10529000FDFEB0F59A7F0DD2984B994A1B78127893
:1052A0002021009213A8974A02F0B6F9014613A8EC
:1052B000FDF780FB4AF6AA22934B944C1A60FBF749
:1052C000E1FF2368C01AB0F5FA7F14D3FBF7DAFFC9
:1052D00020608F4C237873B1FBF7D4FF8D4B1B6894
:1052E000C01AB0F5FA5F06D900234FF4FA518A4884
:1052F000237002F021F9FBF7C5FF884B1B68984229
:1053000080F0298300224FF400518548FCF710F902
:10531000FFF7DDB84FF47A718248DFF80CA200F095
:1053200087FF00217F4800F071FF504601F04BF9E4
:10533000012803D19AF80530012B0BD07A4801F0EF
:10534000ABF8A021784801F07BF840F6C41176480C
:1053500000F06EFF40F6B8339F427FF644AC032363
:1053600089F80030C8F800603DE44FF47A716D4868
:10537000DFF8B4A100F05CFF01216A4800F046FFAD
:10538000504601F020F9012803D19AF80530012B8D
:105390000BD0654801F080F8A021634801F050F877
:1053A00040F6C411604800F043FF40F6B8339F4216
:1053B0007FF619AC0423FFF79FBB3846FBF774FC5C
:1053C0005A49FBF77DFD5A49FBF7C6FCFBF7B0FED7
:1053D000C0F51C6B0BF1040BBBF57A7F38BF4FF4A3
:1053E0007A7BDFF844A159464E4800F021FF9AF835
:1053F0000530012B05D1504601F04EF8504600F023
:1054000063FF5946DFF82CB1474800F011FFDBF885
:105410000030F31AB3F5FA7F16D94248CBF8006092
:105420004178B1FA81F1490900F0F0FEDBF8003073
:10543000F31AB3F57A7F07D99AF801103A48B1FA0E
:1054400081F1490900F0E2FEB7F57A6F7FF6CBAB48
:10545000052385E7334E41F28831304600F0E8FEFF
:1054600041F28831304800F0E3FE0021304600F080
:10547000CDFE01212C4800F0C9FEB7F5FA6F7FF68A
:10548000B2AB2D4802F0C0F800232C4A2C48237000
:105490001660C8F8003089F8003002F0B5F82948E5
:1054A000FFF741B9002389F80030C8F80030FFF752
:1054B0009ABBCCF80000FFF7DFBB4FF07E5037E41B
:1054C0004FF07E5040E4FAF799FFCDE902013046F3
:1054D000FAF794FF1C4ACDE9000116212CA802F02E
:1054E0009BF85CE42D22194B6BE400BF9A06002068
:1054F000980600209606002011D50008BA06002064
:10550000B906002032D5000800300040DC0200203F
:105510000C030020080300203FD50008D806002017
:1055200000100140840700202C07002000007A456D
:105530000080BB442007002078D100083C000020F8
:1055400096D10008B5D100082CD2000829C900085E
:105550008A498B4B09798B4E9AF80420002908BFA1
:105560001E46884924A8002A18BF0B461021864AE7
:1055700002F052F833461021844A28A802F04CF871
:105580009AF8043043BB00233D937C4B1B7933BB1B
:1055900000233E937E4B16211B687E4A20332CA8A5
:1055A00002F03AF87C4A18217C4B0DF1C60002F05B
:1055B00033F8FBF767FE239B0293FAF7FDFE002208
:1055C000774BFBF79DF8774ACDE9000116210DF1E5
:1055D000DE0002F021F819E44FF07C53D4E74FF0DD
:1055E0007C53D6E74FF0000ADFF8BC81D14624E4B3
:1055F00001221A70052323706C4BC3F800A0FBF73F
:1056000041FE6B4B4A46186041466A4801F094FFE0
:1056100093E4694A13780133DBB2012B13707FF6F0
:10562000A8AC2378072B3FF4CBACFBF72BFE5F4BEA
:1056300006F0100BDFF884911860BBF1000F7AD0F0
:10564000FBF720FED9F80030002B6CD1C9F8000020
:10565000730747BF4FF0030A4FF004094FF0090AE0
:105660004FF00A09FBF70EFE40F6B83398427FF67A
:1056700080AC534B1A78002A60D02278052A5DD07E
:10568000052350482370FCF765FE4F48FCF762FE87
:1056900000234E4A4E4813744E4A137401F0B4FF6F
:1056A0004D4B1A78002A65D0BBF1000F62D188EA11
:1056B000E872A2EBE87292B25245DFF820B155DCF5
:1056C00087EAE772A2EBE77292B24A454EDCDBF85A
:1056D0000020002A36D1FBF7D5FDCBF80000404A68
:1056E0001378002B00F0A38088EAE873A3EBE8733B
:1056F0009BB2282B7ED887EAE773A3EBE7739BB2B4
:10570000282B77D8374800F05EFF10B1354800F0FD
:10571000C3FE1A4800F057FF00283FF42AAC174890
:1057200000F0BAFE25E4D9F80030C01AB0F5FA7FCF
:105730008ED92D481BE4C9F800B089E71B78002BEF
:10574000AED116E4FBF79EFDDBF80020801AB0F521
:10575000487FC4D3254A204B11780029BFD10121AD
:1057600011701978224801F0E7FEB8E70023CBF862
:105770000030B4E70022194B1A60B0E72C07002074
:1057800038C900083DC9000852D2000859D20008A3
:105790003800002060D2000867D2000826050020EB
:1057A00000408F406DD2000841C90008AC060020BF
:1057B000BC060020D9D20008EC020020B40600206C
:1057C0003400002030060020CC05002020000020FE
:1057D00059D300080C000020BA060020B0060020B3
:1057E000D60600208407002033D30008B906002025
:1057F00080D300084FF0000B684B694883F800B075
:10580000684B82F800B0C3F800B0674B83F800B073
:10581000FCF7A0FD6548FCF79DFD614B282183F84E
:1058200055B0624B624883F855B001F085FE4FF0E9
:105830007E5305934FF4C873CDE903A35D4B4246F5
:1058400002935D4B564901935C4B5D481B7806F013
:10585000060600935B4BFCF761FE5B4B3A460593F3
:105860004FF49673CDE90393584B50490293584B2C
:1058700058480193584B1B780093584BFCF74EFE49
:10588000062E494E4FD1FBF7FDFC554BC830186032
:1058900000224FF400515348FBF74AFE01233F4AD0
:1058A000137032781AB95048337001F0ADFE444895
:1058B00000F0F2FD474800F0EFFD3948FCF74AFDE3
:1058C0003A48FCF747FD0123354A82F85530374AFC
:1058D00082F85530454A1370FBF7D4FC444A1368EC
:1058E000C31AB3F57A7F7FF644AB424B1060196858
:1058F000414B42481A68424B424E434FDFF89CC02E
:105900001B88008836783F789CF800C01BB200B234
:10591000CDE901060093CDE9037C01233B4801F06A
:105920000BFEFFF726BB00233370D5E73368002B4F
:105930003FF446AB3368C01AB0F5FA6F7FF640AB60
:105940003348FFF729BB4FF07E57FFF7E1BB4FF01D
:105950007E56FFF7EBBBFBF795FC2E4C2368C01A75
:10596000B0F5FA7F7EF6B3ADFBF78CFC20601448EF
:1059700000F029FE00287EF4AAAD164800F023FEB0
:1059800000287EF4A4AD00F180404FF4005100F5F2
:105990008830FBF7D2FDFEF79ABD00BFB9060020A4
:1059A00030060020B0060020D7060020CC050020DD
:1059B000ACD30008FC02002030C200080800002020
:1059C00084070020200000209A99193FF802002047
:1059D0002BC200082C0700203A0500200C000020F4
:1059E000D806002000100140E9D30008D6060020A8
:1059F00034020020A4060020A8060020C2060020D1
:105A0000C4060020C1060020BA0600202AD40008DF
:105A1000A2D40008D802002073B50C460546002128
:105A20002046FBF737FB70BB4FF07E512046FBF75B
:105A30004FFB08B14FF07E5420461449FBF78CF918
:105A40004FF07C51FBF780F8FBF772FB01262946EB
:105A500007233E22C4B20096402000F0EEFA002355
:105A60003544EDB200933C2205232946412000F045
:105A7000E4FA34B10523224629464120009600F07D
:105A8000DCFA02B070BD0020D7E700BF0000704212
:105A900000F010BA00F000BA10B5044600F0FCF9AE
:105AA000002844D0002C42D000F0FCF90021012352
:105AB00008461F4A00F098FA012307227F210020A0
:105AC00000F0A4FA221D01230821002000F08CFA26
:105AD000A16E0820FFF7A0FF04F11402012310219A
