:020000040800F2
:1000000000500020F5AF00083DB00008793E000820
:100010003DB000083DB000083DB000080000000001
:100020000000000000000000000000003DB00008DB
:100030003DB00008000000003DB00008753E00081B
:100040003DB000083DB000083DB000083DB00008DC
:100050003DB000083DB000083DB000083DB00008CC
:100060003DB000083DB000083DB000083DB00008BC
:100070003DB000083DB000083DB000083DB00008AC
:100080003DB000083DB000083DB000083DB000089C
:100090003DB000083DB000083DB000083DB000088C
:1000A0003DB000083DB000083DB000083DB000087C
:1000B000B53B00083DB00008DD3B00083DB000083E
:1000C0003DB000083DB000083DB000083DB000085C
:1000D0003DB00008053C0008693C00085D3D000893
:1000E0003DB000083DB000083DB000080000000031
:1000F0000000000000000000000000000000000000
:0C01000000000000000000005FF808F1A3
:1001100010F8012B11F8013B012A28BF9A42F7D0B1
:10012000D01A7047034613F8012B002AFBD1181A86
:100130000138704781F0004102E000BF83F00043C6
:1001400030B54FEA41044FEA430594EA050F08BF72
:1001500090EA020F1FBF54EA000C55EA020C7FEA36
:10016000645C7FEA655C00F0E2804FEA5454D4EBB3
:100170005555B8BF6D420CDD2C4480EA020281EA7D
:10018000030382EA000083EA010180EA020281EAB5
:100190000303362D88BF30BD11F0004F4FEA013107
:1001A0004FF4801C4CEA113102D0404261EB410116
:1001B00013F0004F4FEA03334CEA133302D052429C
:1001C00063EB430394EA050F00F0A780A4F1010458
:1001D000D5F1200E0DDB02FA0EFC22FA05F2801892
:1001E00041F1000103FA0EF2801843FA05F3594178
:1001F0000EE0A5F120050EF1200E012A03FA0EFCF7
:1002000028BF4CF0020C43FA05F3C01851EBE37120
:1002100001F0004507D54FF0000EDCF1000C7EEB3D
:1002200000006EEB0101B1F5801F1BD3B1F5001F7B
:100230000CD349085FEA30004FEA3C0C04F101049A
:100240004FEA445212F5800F80F09A80BCF1004FC3
:1002500008BF5FEA500C50F1000041EB045141EA45
:10026000050130BD5FEA4C0C404141EB0101013C0E
:1002700028BFB1F5801FE9D291F0000F04BF0146FD
:100280000020B1FA81F308BF2033A3F10B03B3F1CF
:1002900020020CDA0C3208DD02F1140CC2F10C025F
:1002A00001FA0CF021FA02F10CE002F11402D8BFBD
:1002B000C2F1200C01FA02F120FA0CFCDCBF41EA89
:1002C0000C019040E41AA2BF01EB0451294330BD58
:1002D0006FEA04041F3C1CDA0C340EDC04F1140435
:1002E000C4F1200220FA04F001FA02F340EA03000C
:1002F00021FA04F345EA030130BDC4F10C04C4F152
:10030000200220FA02F001FA04F340EA0300294631
:1003100030BD21FA04F0294630BD94F0000F83F47B
:10032000801306BF81F480110134013D4EE77FEA5E
:10033000645C18BF7FEA655C29D094EA050F08BFAA
:1003400090EA020F05D054EA000C04BF194610468B
:1003500030BD91EA030F1EBF0021002030BD5FEACF
:10036000545C05D14000494128BF41F0004130BDF7
:1003700014F580043CBF01F5801130BD01F000454B
:1003800045F0FE4141F470014FF0000030BD7FEABE
:10039000645C1ABF194610467FEA655C1CBF0B46B9
:1003A000024650EA013406BF52EA033591EA030FD0
:1003B00041F4002130BD00BF90F0000F04BF0021C8
:1003C000704730B54FF4806404F132044FF00005FB
:1003D0004FF0000150E700BF90F0000F04BF002174
:1003E000704730B54FF4806404F1320410F00045DA
:1003F00048BF40424FF000013EE700BF42004FEAD5
:10040000E2014FEA31014FEA02701FBF12F07F4351
:1004100093F07F4F81F06051704732F07F4208BF08
:10042000704793F07F4F04BF41F40021704730B50F
:100430004FF4607401F0004521F000411CE700BF5B
:1004400050EA010208BF704730B54FF000050AE0DE
:1004500050EA010208BF704730B511F0004502D5DF
:10046000404261EB41014FF4806404F132045FEAE1
:10047000915C3FF4D8AE4FF003025FEADC0C18BF8A
:1004800003325FEADC0C18BF033202EBDC02C2F17C
:10049000200300FA03FC20FA02F001FA03FE40EA0E
:1004A0000E0021FA02F11444BDE600BF70B54FF012
:1004B000FF0C4CF4E06C1CEA11541DBF1CEA1355F0
:1004C00094EA0C0F95EA0C0F00F0DEF82C4481EA58
:1004D000030621EA4C5123EA4C5350EA013518BF78
:1004E00052EA033541F4801143F4801338D0A0FB65
:1004F00002CE4FF00005E1FB02E506F00042E0FB12
:1005000003E54FF00006E1FB03569CF0000F18BF17
:100510004EF0010EA4F1FF04B6F5007F64F54074BF
:1005200004D25FEA4E0E6D4146EB060642EAC62152
:1005300041EA55514FEAC52040EA5E504FEACE2EBF
:10054000B4F1FD0C88BFBCF5E06F1ED8BEF1004FC2
:1005500008BF5FEA500E50F1000041EB045170BD3E
:1005600006F0004646EA010140EA020081EA030182
:10057000B4EB5C04C2BFD4EB0C0541EA045170BD7E
:1005800041F480114FF0000E013C00F3AB8014F1F8
:10059000360FDEBF002001F0004170BDC4F1000441
:1005A000203C35DA0C341BDC04F11404C4F12005C2
:1005B00000FA05F320FA04F001FA05F240EA02001D
:1005C00001F0004221F0004110EBD37021FA04F653
:1005D00042EB06015EEA430E08BF20EAD37070BD0D
:1005E000C4F10C04C4F1200500FA04F320FA05F06C
:1005F00001FA04F240EA020001F0004110EBD3706E
:1006000041F100015EEA430E08BF20EAD37070BDDD
:10061000C4F1200500FA05F24EEA020E20FA04F3B6
:1006200001FA05F243EA020321FA04F001F0004165
:1006300021FA04F220EA020000EBD3705EEA430ED6
:1006400008BF20EAD37070BD94F0000F0FD101F005
:100650000046400041EB010111F4801F08BF013C3E
:10066000F7D041EA060195F0000F18BF704703F07C
:100670000046520043EB030313F4801F08BF013D03
:10068000F7D043EA0603704794EA0C0F0CEA1355BF
:1006900018BF95EA0C0F0CD050EA410618BF52EA79
:1006A0004306D1D181EA030101F000414FF000007F
:1006B00070BD50EA410606BF1046194652EA43068D
:1006C00019D094EA0C0F02D150EA013613D195EA01
:1006D0000C0F05D152EA03361CBF104619460AD149
:1006E00081EA030101F0004141F0FE4141F4700153
:1006F0004FF0000070BD41F0FE4141F4780170BD43
:1007000070B54FF0FF0C4CF4E06C1CEA11541DBFA7
:100710001CEA135594EA0C0F95EA0C0F00F0A7F8A9
:10072000A4EB050481EA030E52EA03354FEA0131D6
:1007300000F088804FEA03334FF0805545EA1313E9
:1007400043EA12634FEA022245EA111545EA1065B1
:100750004FEA00260EF000419D4208BF964244F148
:10076000FD0404F5407402D25B084FEA3202B61A67
:1007700065EB03055B084FEA32024FF480104FF43B
:10078000002CB6EB020E75EB030E22BFB61A7546AF
:1007900040EA0C005B084FEA3202B6EB020E75EB42
:1007A000030E22BFB61A754640EA5C005B084FEAAA
:1007B0003202B6EB020E75EB030E22BFB61A754677
:1007C00040EA9C005B084FEA3202B6EB020E75EB82
:1007D000030E22BFB61A754640EADC0055EA060E43
:1007E00018D04FEA051545EA16754FEA06164FEA86
:1007F000C30343EA52734FEAC2025FEA1C1CC0D132
:1008000011F4801F0BD141EA00014FF000004FF0BE
:10081000004CB6E711F4801F04BF01430020B4F17F
:10082000FD0C88BFBCF5E06F3FF6AFAEB5EB030C37
:1008300004BFB6EB020C5FEA500C50F1000041EB34
:10084000045170BD0EF0004E4EEA113114EB5C0401
:10085000C2BFD4EB0C0541EA045170BD41F48011D4
:100860004FF0000E013C90E645EA060E8DE60CEADC
:10087000135594EA0C0F08BF95EA0C0F3FF43BAFF9
:1008800094EA0C0F0AD150EA01347FF434AF95EAB0
:100890000C0F7FF425AF104619462CE795EA0C0F94
:1008A00006D152EA03353FF4FDAE1046194622E761
:1008B00050EA410618BF52EA43067FF4C5AE50EA3B
:1008C00041047FF40DAF52EA43057FF4EBAE12E72B
:1008D0004FF0FF3C06E000BF4FF0010C02E000BF0C
:1008E0004FF0010C4DF804CD4FEA410C7FEA6C5CEF
:1008F0004FEA430C18BF7FEA6C5C1BD001B050EA92
:10090000410C0CBF52EA430C91EA030F02BF90EA7C
:10091000020F0020704710F1000F91EA030F58BF3B
:10092000994208BF90422CBFD8176FEAE37040F09D
:10093000010070474FEA410C7FEA6C5C02D150EA3B
:10094000013C07D14FEA430C7FEA6C5CD6D152EAF6
:10095000033CD3D05DF8040B704700BF84461046BB
:1009600062468C461946634600E000BF01B5FFF7BA
:10097000B7FF002848BF10F1000F01BD4DF808ED8A
:10098000FFF7F4FF0CBF012000205DF808FB00BF5B
:100990004DF808EDFFF7EAFF34BF012000205DF8B5
:1009A00008FB00BF4DF808EDFFF7E0FF94BF012002
:1009B00000205DF808FB00BF4DF808EDFFF7CEFF03
:1009C00094BF012000205DF808FB00BF4DF808ED42
:1009D000FFF7C4FF34BF012000205DF808FB00BF13
:1009E0004FEA410C7FEA6C5C02D150EA013C0AD12B
:1009F0004FEA430C7FEA6C5C02D152EA033C02D11D
:100A00004FF0000070474FF0010070474FEA41027D
:100A100012F5001215D211D56FF47873B3EB625250
:100A200012D94FEAC12343F0004343EA505311F077
:100A3000004F23FA02F018BF404270474FF0000009
:100A4000704750EA013005D111F0004008BF6FF047
:100A5000004070474FF00000704700BF4A0011D2BD
:100A600012F5001211D20DD56FF47873B3EB625208
:100A70000ED44FEAC12343F0004343EA505323FA14
:100A800002F070474FF00000704750EA013002D189
:100A90004FF0FF3070474FF0000070474FEA4102BF
:100AA000B2F1E04324BFB3F5001CDCF1FE5C0DD9CC
:100AB00001F0004C4FEAC0024CEA5070B2F1004F16
:100AC00040EB830008BF20F00100704711F0804F19
:100AD00021D113F13872BCBF01F00040704741F4DE
:100AE00080114FEA5252C2F11802C2F1200C10FAE2
:100AF0000CF320FA02F018BF40F001004FEAC123C6
:100B00004FEAD32303FA0CFC40EA0C0023FA02F369
:100B10004FEA4303CCE77FEA625307D150EA01333F
:100B20001EBF4FF0FE4040F44000704701F000400F
:100B300040F0FE4040F40000704700BF80F00040ED
:100B400002E000BF81F0004142001FBF5FEA4103A5
:100B500092EA030F7FEA226C7FEA236C6AD04FEAA5
:100B60001262D2EB1363C1BFD218414048404140EA
:100B7000B8BF5B42192B88BF704710F0004F40F49C
:100B8000000020F07F4018BF404211F0004F41F4B8
:100B9000000121F07F4118BF494292EA030F3FD084
:100BA000A2F1010241FA03FC10EB0C00C3F1200397
:100BB00001FA03F100F0004302D5494260EB400026
:100BC000B0F5000F13D3B0F1807F06D340084FEA91
:100BD000310102F10102FE2A51D2B1F1004F40EB86
:100BE000C25008BF20F0010040EA030070474900EE
:100BF00040EB0000013A28BFB0F5000FEDD2B0FA8B
:100C000080FCACF1080CB2EB0C0200FA0CF0AABFAD
:100C100000EBC25052421843BCBFD040184370474B
:100C200092F0000F81F4000106BF80F40000013251
:100C3000013BB5E74FEA41037FEA226C18BF7FEA28
:100C4000236C21D092EA030F04D092F0000F08BF6A
:100C50000846704790EA010F1CBF0020704712F051
:100C60007F4F04D1400028BF40F00040704712F190
:100C700000723CBF00F50000704700F0004343F0F5
:100C8000FE4040F4000070477FEA226216BF08462B
:100C90007FEA23630146420206BF5FEA412390EAEE
:100CA000010F40F4800070474FF0000304E000BFE4
:100CB00010F0004348BF40425FEA000C08BF704795
:100CC00043F0964301464FF000001CE050EA010259
:100CD00008BF70474FF000030AE000BF50EA01026E
:100CE00008BF704711F0004302D5404261EB41015B
:100CF0005FEA010C02BF84460146002043F0B64380
:100D000008BFA3F18053A3F50003BCFA8CF2083AA4
:100D1000A3EBC25310DB01FA02FC634400FA02FCAD
:100D2000C2F12002BCF1004F20FA02F243EB0200B4
:100D300008BF20F00100704702F1200201FA02FC16
:100D4000C2F1200250EA4C0021FA02F243EB020009
:100D500008BF20EADC7070474FF0FF0C1CEAD0524D
:100D60001EBF1CEAD15392EA0C0F93EA0C0F6FD00E
:100D70001A4480EA010C400218BF5FEA41211ED0EC
:100D80004FF0006343EA501043EA5111A0FB0131D8
:100D90000CF00040B1F5000F3EBF490041EAD371AD
:100DA0005B0040EA010062F17F02FD2A1DD8B3F129
:100DB000004F40EBC25008BF20F00100704790F098
:100DC000000F0CF0004C08BF49024CEA502040EAEA
:100DD00051207F3AC2BFD2F1FF0340EAC2507047B0
:100DE00040F400004FF00003013A5DDC12F1190FEE
:100DF000DCBF00F000407047C2F10002410021FA60
:100E000002F1C2F1200200FA02FC5FEA310040F177
:100E1000000053EA4C0308BF20EADC70704792F0F0
:100E2000000F00F0004C02BF400010F4000F013A28
:100E3000F9D040EA0C0093F0000F01F0004C02BF23
:100E4000490011F4000F013BF9D041EA0C018FE792
:100E50000CEAD15392EA0C0F18BF93EA0C0F0AD098
:100E600030F0004C18BF31F0004CD8D180EA0100BE
:100E700000F00040704790F0000F17BF90F0004F57
:100E8000084691F0000F91F0004F14D092EA0C0F39
:100E900001D142020FD193EA0C0F03D14B0218BFCC
:100EA000084608D180EA010000F0004040F0FE4012
:100EB00040F40000704740F0FE4040F440007047AE
:100EC0004FF0FF0C1CEAD0521EBF1CEAD15392EA2D
:100ED0000C0F93EA0C0F69D0A2EB030280EA010C1D
:100EE00049024FEA402037D04FF0805343EA1111B6
:100EF00043EA10130CF000408B4238BF5B0042F114
:100F00007D024FF4000C8B4224BF5B1A40EA0C00B8
:100F1000B3EB510F24BFA3EB510340EA5C00B3EBEA
:100F2000910F24BFA3EB910340EA9C00B3EBD10FD8
:100F300024BFA3EBD10340EADC001B0118BF5FEA2A
:100F40001C1CE0D1FD2A3FF650AF8B4240EBC25053
:100F500008BF20F0010070470CF0004C4CEA502014
:100F60007F32C2BFD2F1FF0340EAC250704740F463
:100F700000004FF00003013A37E792F0000F00F055
:100F8000004C02BF400010F4000F013AF9D040EAD3
:100F90000C0093F0000F01F0004C02BF490011F467
:100FA000000F013BF9D041EA0C0195E70CEAD1535F
:100FB00092EA0C0F08D142027FF47DAF93EA0C0F46
:100FC0007FF470AF084676E793EA0C0F04D14B022A
:100FD0003FF44CAF08466EE730F0004C18BF31F0DC
:100FE000004CCAD130F000427FF45CAF31F00043D6
:100FF0007FF43CAF5FE700BF4FF0FF3C06E000BF6F
:101000004FF0010C02E000BF4FF0010C4DF804CD91
:101010004FEA40024FEA41037FEA226C18BF7FEAA1
:10102000236C11D001B052EA530C18BF90EA010FA3
:1010300058BFB2EB030088BFC81738BF6FEAE17032
:1010400018BF40F0010070477FEA226C02D15FEACE
:10105000402C05D17FEA236CE4D15FEA412CE1D03A
:101060005DF8040B704700BF844608466146FFE701
:101070000FB5FFF7C9FF002848BF10F1000F0FBDE3
:101080004DF808EDFFF7F4FF0CBF012000205DF8DC
:1010900008FB00BF4DF808EDFFF7EAFF34BF012061
:1010A00000205DF808FB00BF4DF808EDFFF7E0FFFA
:1010B00094BF012000205DF808FB00BF4DF808ED4B
:1010C000FFF7D2FF94BF012000205DF808FB00BFAE
:1010D0004DF808EDFFF7C8FF34BF012000205DF890
:1010E00008FB00BF4FEA4002B2F1FE4F0FD34FF0B2
:1010F0009E03B3EB12620DD94FEA002343F0004385
:1011000010F0004F23FA02F018BF404270474FF032
:101110000000704712F1610F01D1420205D110F0B9
:10112000004008BF6FF0004070474FF0000070476C
:1011300042000ED2B2F1FE4F0BD34FF09E03B3EB41
:10114000126209D44FEA002343F0004323FA02F06D
:1011500070474FF00000704712F1610F01D1420259
:1011600002D14FF0FF3070474FF00000704700BFD2
:101170000348044B834202D0034B03B11847704726
:101180000C0200200C020020000000000548064B65
:101190001B1AD90F01EBA301491002D0034B03B175
:1011A000184770470C0200200C02002000000000CD
:1011B00010B5064C237843B9FFF7DAFF044B13B19F
:1011C0000448AFF300800123237010BD0C020020FF
:1011D0000000000040B0000808B5054B1BB10549F0
:1011E0000548AFF30080BDE80840FFF7CFBF00BF60
:1011F000000000001002002040B00008704700000E
:1012000038B50E4B05461A784FF47A73B3FBF2F3F8
:101210000B4A1068B0FBF3F000F09CF8044658B994
:101220000F2D09D8024629464FF0FF3000F054F840
:101230002046044B1D6038BD0120FCE70000002063
:101240000802002004000020074A08B513680320A4
:1012500043F01003136000F02DF80F20FFF7D0FFCC
:10126000FFF7CCFF002008BD00200240034A044BDA
:1012700011681B780B441360704700BF28020020E0
:1012800000000020014B1868704700BF28020020B2
:1012900038B50446FFF7F6FF0546631C1EBF044B36
:1012A0001B78E418FFF7EEFF431BA342FAD338BDC7
:1012B0000000002007490302CA6803F4E06322F437
:1012C000E0621204120C134343F0BF6343F4003393
:1012D000CB60704700ED00E0154B30B5DC68C4F31F
:1012E0000224C4F10703251D042B28BF0423062D67
:1012F0004FF0FF3594BF0024033C05FA03F321EAC5
:101300000303A54022EA0502A340002843EA0203A2
:10131000ACBF00F16040074A4FEA0313DBB2ABBF3A
:1013200000F5614000F00F0080F80033135430BD29
:1013300000ED00E014ED00E0002807DB0123410987
:10134000034A00F01F00834042F82130704700BF7D
:1013500000E100E00138B0F1807F0BD24FF0E023D4
:10136000F021054A586182F8231000200722986175
:101370001A6170470120704700ED00E02DE9F74F3A
:1013800000244FF00F0E2646DFF884C1614B00F1B8
:1013900004080A6832FA06F502D103B0BDE8F08FFE
:1013A000012505FA06F702EA070537EA020276D1B7
:1013B0004A68032A07D8013A022A00F28380DFE84C
:1013C00002F091969C00122A00F0948069D8112AAC
:1013D00000F08A80FF2D94BF8146C1464FEA860205
:1013E000D9F8007088BF203A0EFA02FA27EA0A07F5
:1013F00004FA02F21743C9F80070D1F8049019F00A
:10140000805F4CD0DCF8182026F0030742F0010280
:10141000CCF81820DCF8182007F1804702F0010210
:10142000019207F5803706F0030A019A4FEA8A0A0B
:10143000BA680EFA0AFB22EA0B0B374A904260D0D8
:1014400002F5806290425ED002F5806290425CD0EC
:1014500002F58062904214BF0422032202FA0AF2CB
:1014600042EA0B02BA609A6819F4801F14BF2A433B
:10147000AA439A60DA6819F4001F14BF2A43AA43EA
:10148000DA605A6819F4003F14BF2A43AA435A602D
:101490001A6819F4803F14BF2A43AA431A60013620
:1014A00077E7DFF878904A450CD014D8A9F5801971
:1014B0004A4507D009F570294A4503D0A9F5801996
:1014C0004A4587D18A68D2B1012A4FF008040CBF7F
:1014D000076147617EE7DFF848904A45F2D009F599
:1014E0008039EDE7CC6875E7CC68043472E7CC68E6
:1014F00008346FE7CC680C346CE700246AE70424F6
:1015000068E70022AAE70122A8E70222A6E700BFB7
:1015100000100240000401400008014000002210B9
:101520000000311080680840003818BF0120704763
:101530000AB1016170470904FBE7C36801EA0302CD
:1015400021EA030141EA0241016170472DE9F341BB
:10155000054638B30368DB0710D42B689F075ED4B9
:101560002B68190700F195802B685A0700F1C1809C
:10157000EB69002B40F02C81002029E0904C63683F
:1015800003F00C03042B07D0636803F00C03082B53
:101590000AD16368DE0307D523689C03DDD56B6839
:1015A000002BDAD1012013E06B68B3F5803F12D134
:1015B000236843F480332360FFF764FE0646236804
:1015C0009803CAD4FFF75EFE801B6428F7D9032076
:1015D00002B0BDE8F0819BB9236823F48033236017
:1015E000236823F480232360FFF74CFE064623681C
:1015F0009903B2D5FFF746FE801B6428F7D9E6E7CA
:10160000B3F5A02F236803D143F480232360CFE7F1
:1016100023F480332360236823F48023CBE7684CD2
:10162000636813F00C0F07D0636803F00C03082BFA
:1016300010D16368DA030DD423689B0702D52B69A8
:10164000012BAFD123686A6923F0F80343EAC20390
:10165000236085E72A695B4B6AB101221A60FFF7B4
:1016600011FE064623689F07ECD4FFF70BFE801B94
:101670000228F7D9ABE71A60FFF704FE0646236895
:1016800098077FF56DAFFFF7FDFD801B0228F6D9A7
:101690009DE7AA694A4E4B4BE2B10122C3F8802470
:1016A000FFF7F0FD0446736A9B070DD54FF4FA521D
:1016B000454B1B68B3FBF2F3019300BF019B5A1E1D
:1016C0000192002BF9D14FE7FFF7DCFD001B022848
:1016D000E9D97CE7C3F88024FFF7D4FD0446736A98
:1016E0009F077FF541AFFFF7CDFD001B0228F6D91C
:1016F0006DE7334CE369D80024D40127E36943F054
:101700008053E361E36903F080530093009B2F4E05
:101710003368D90518D5EB68012B26D1236A43F02D
:1017200001032362FFF7AEFD41F288380646236AC3
:101730009B073FD5002F3FF41BAFE36923F0805395
:10174000E36115E70027E2E7336843F48073336011
:10175000FFF798FD80463368DA05DCD4FFF792FD89
:10176000A0EB08006428F6D931E7ABB9236A41F24F
:10177000883823F001032362236A23F004032362E1
:10178000FFF780FD0646236A9807D3D5FFF77AFD59
:10179000801B4045F7D91AE7052B236A03D143F094
:1017A00004032362BAE723F001032362236A23F0D0
:1017B0000403B6E7FFF766FD801B4045B7D906E78F
:1017C0000010024000004242080200200070004069
:1017D0002A4C626802F00C02082A3ED00022022B3A
:1017E000274B1A662CD1FFF74DFD06462368990159
:1017F00020D42B6AB3F5803F05D16268A96822F432
:1018000000320A436260696A62680B4322F4741210
:101810001343012263601A4B1A66FFF733FD054636
:1018200023689A013FF5A8AEFFF72CFD401B022864
:10183000F6D9CCE6FFF726FD801B0228D6D9C6E6EE
:10184000FFF720FD054623689B017FF595AEFFF766
:1018500019FD401B0228F6D9B9E6012B3FF4A2AED0
:1018600060682B6A00F480329A427FF49BAE6B6A08
:1018700000F47010C01A18BF0120A9E60010024041
:10188000000042420D4A536803F00C01082912D1AE
:101890000B48C3F38341DB03405C09D55368094A15
:1018A000C3F340435043084AD35CB0FBF3F07047A6
:1018B000064B584370470348704700BF0010024072
:1018C00066B0000800127A0064B0000800093D000C
:1018D0002DE9F0410D46044610B90120BDE8F08124
:1018E000444A136803F007038B4228D321688E070C
:1018F00030D4CA0743D43F4A136803F00703AB420E
:1019000065D822683C4D12F0040F6CD1130706D540
:101910006B68226923F4605343EAC2036B60FFF7EC
:10192000B1FF6B68354AC3F30313D35CD840344B23
:101930001860344B1868FFF763FC0020CEE713688B
:1019400023F007030B431360136803F007038B4274
:10195000C3D1CBE7284B11F0040F1EBF5A6842F4E5
:10196000E0625A60080742BF5A6842F460525A6007
:101970005A68A06822F0F00202435A60B9E7626830
:101980001D4E012A33681AD113F4003FA5D07368A5
:1019900041F2883823F0030313437360FFF772FCAE
:1019A00007467368626803F00C03B3EB820FA2D0A2
:1019B000FFF768FCC01B4045F3D903208EE7022ADD
:1019C00002D113F0007FE1E713F0020FDEE71368A6
:1019D00023F007032B431360136803F00703AB42A4
:1019E0007FF47BAF8DE76B68E16823F4E0630B4322
:1019F0006B608BE7002002400010024058D30008C3
:101A00000802002004000020044B054A5B68C3F371
:101A10000223D35C034A1068D8407047001002408C
:101A200050D3000808020020044B054A5B68C3F34A
:101A3000C223D35C034A1068D840704700100240AC
:101A400050D3000808020020036A026A70B522F031
:101A500001020262446882690D6822F073022A431F
:101A60008D6823F002032B430A4DA8420BD1CD68A9
:101A700023F008032B4324F44074D1E90556354381
:101A800023F004032C43446082614A68426303628A
:101A900070BD00BF002C0140036A026A70B522F4D9
:101AA000807202624468C2690D6822F073022A43A0
:101AB0008D6823F4007343EA05230B4DA8420DD132
:101AC000CD6823F4006343EA052324F44054D1E9AC
:101AD0000556354323F4806344EA05144460C2612B
:101AE0004A68C263036270BD002C0140036A026A47
:101AF00030B522F4805202624468C2690D6822F453
:101B0000E64242EA05228D6823F4005343EA053396
:101B1000064DA84202BF4D6924F4804444EA85146E
:101B20004460C2614A680264036230BD002C014017
:101B30007047000090F83D30012B1CD102230F4A62
:101B400080F83D30036893420AD0B3F1804F07D04C
:101B5000A2F59432934203D002F58062934204D1FD
:101B60009A6802F00702062A03D01A6842F00102BE
:101B70001A60002070470120704700BF002C014010
:101B800070470000174A036890420AD0B0F1804FB6
:101B900007D0A2F59432904203D002F580629042C1
:101BA00007D14A6823F070031343CA6823F44073D3
:101BB00013434A6923F08003134303608B68C362B5
:101BC0000B688362074B984204BF0B6903630123D0
:101BD00043610369DB0742BF036923F0010303612B
:101BE000704700BF002C014010B5044630B390F898
:101BF0003D3003F0FF021BB980F83C20FFF798FF4F
:101C00000223206884F83D30211DFFF7BBFF01232C
:101C1000002084F8463084F83E3084F83F3084F861
:101C2000403084F8413084F8423084F8433084F8FE
:101C3000443084F8453084F83D3010BD0120FCE785
:101C400010B5044630B390F83D3003F0FF021BB9E5
:101C500080F83C20FFF794FF0223206884F83D3091
:101C6000211DFFF78FFF0123002084F8463084F800
:101C70003E3084F83F3084F8403084F8413084F8B6
:101C8000423084F8433084F8443084F8453084F896
:101C90003D3010BD0120FCE7036A026A70B522F0F6
:101CA00010020262446882690D6822F4E64242EA48
:101CB00005228D6823F0200343EA05130B4DA8424B
:101CC0000DD1CD6823F0800343EA051324F440646A
:101CD000D1E90556354323F0400344EA85044460C6
:101CE00082614A688263036270BD00BF002C0140BC
:101CF00038B590F83C300446012B4FD00120082A1B
:101D000084F83C003AD006D8BAB1042A26D0002381
:101D100084F83C3038BD0C2AF9D12068FFF7E6FE84
:101D2000C3690A6943F40063C361C36923F4806330
:101D3000C361C36943EA02232EE02068FFF784FEF3
:101D400083690A6943F008038361836923F004030C
:101D500083618369134383610020D8E72068FFF71C
:101D60009BFF83690A6943F400638361836923F4F9
:101D700080638361836943EA0223ECE72068FFF70D
:101D80008BFEC3690A6943F00803C361C36923F08A
:101D90000403C361C3691343C361DDE70220B9E7EC
:101DA00010B50124036A01F01F018C4023EA0403EB
:101DB0000362036A8A401A43026210BD08B529B95A
:101DC00090F83E30012B1DD001202EE0042907D1D0
:101DD00090F83F30012BF7D1022380F83F3014E018
:101DE000082907D190F84030012BEDD1022380F86B
:101DF00040300AE090F84130012BE5D1022380F811
:101E0000413002E0022380F83E3000680122FFF7F3
:101E1000C7FF0F4B984209D0B0F1804F0BD18368B8
:101E200003F00703062B0DD1002008BD436C43F4DB
:101E300000434364F3E7074B9842F0D003F5806317
:101E40009842ECD0036843F001030360ECE700BF65
:101E5000002C014000040040FFF7B0BF026802F10F
:101E60000C0353E8003F23F490730C3242E8003136
:101E700002680029F2D102F1140353E8003F23F075
:101E8000010302F1140C4CE800310029F3D1036B7B
:101E9000012B0BD102F10C0353E8003F23F0100398
:101EA00002F10C0C4CE800310029F3D1202380F81A
:101EB000423000230363704710B504460368C168CD
:101EC0001A6922F440520A431A6182680069D9688B
:101ED0000243606921F4B05121F00C0102430A432E
:101EE000DA605A69A16922F440720A435A610E4AC3
:101EF000934215D1FFF798FD192343436268206888
:101F00009200B3FBF2F36422B3FBF2F102FB113354
:101F10001B013233B3FBF2F303EB0113836010BDFB
:101F2000FFF772FDE8E700BF00380140F7B505464E
:101F30000C4617461E462A68136834EA030301D18B
:101F4000002021E0701CF7D0FFF79CF9C01B8642EF
:101F50001CD3DEB12B68DA685107ECD5802CEAD0AF
:101F6000402CE8D01A681207E5D5002401941A68BD
:101F7000284601925B680193019BFFF76FFF0823DE
:101F800001206B6485F8404003B0F0BD0320FBE7FF
:101F9000704710B5044648B390F8413003F0FF0293
:101FA0001BB980F84020FFF7F3FF2423226884F850
:101FB0004130D368204623F40053D360FFF77CFF01
:101FC000236800201A6922F490421A615A6922F0AB
:101FD0002A025A61DA6842F40052DA60202360640F
:101FE00084F8413084F84230606310BD0120FCE782
:101FF0002DE9F843984690F841300446202B0E46D0
:1020000017463FD100293FD0002A3DD0212300258B
:10201000456480F84130FFF735F9A3688146B3F590
:10202000805FA784E78403D123690BB935461E4638
:10203000E38C9BB253B943464A4640212046FFF702
:1020400075FF202350B984F841300AE043464A46E0
:1020500080212046FFF76AFF28B12023032084F85F
:102060004130BDE8F88322684EB935F8023BC3F32E
:1020700008035360E18C013989B2E184D8E716F88E
:10208000013BF6E70220ECE70120EAE708B52B4820
:1020900004F0B2FE2A4804F0AFFE2A4804F0ACFE79
:1020A000294804F0A9FE294804F0A6FE284804F0B7
:1020B000A3FE284804F0A0FE274804F09DFE274810
:1020C00004F09AFE204804F097FE254804F094FEA0
:1020D000244804F091FE244804F08EFE234804F0C6
:1020E0008BFE194804F088FE214804F085FE214843
:1020F00004F082FE204804F07FFE204804F07CFEBD
:10210000114804F079FE1E4804F076FE1D4804F0E4
:1021100073FE1D4804F070FE1C4804F06DFE1C4860
:1021200004F06AFE1B4804F067FE1B4804F064FEDE
:10213000BDE80840014804F05FBE00BF75C4000858
:1021400076B00008FEB000083AB10008C2B100083D
:10215000F8B1000833B200086FB20008AAB2000854
:10216000E6B200081CB3000858B3000897B3000893
:10217000D1B3000808B4000843B400087DB40008D7
:10218000B0B40008E6B4000821B500085DB5000849
:102190009AB50008D6B5000812B600082DE9F0433C
:1021A0004D4B85B0986CFEF783FD4C49FEF7D4FD8E
:1021B0004B49FEF785FE4B4B8046986CFEF778FD49
:1021C0004649FEF7C9FD4649FEF77AFE464B0446EE
:1021D0001868FEF76DFD4149FEF7BEFD4049FEF768
:1021E0006FFE424B05461868FEF762FD3B49FEF75D
:1021F000B3FD3B49FEF764FE3D4B06461B783D4868
:10220000033BDBB2042B96BF3B4A3C4F52F8237092
:1022100004F0F2FD3A4804F0EFFD3A4804F0ECFD1A
:10222000394804F0E9FD4046FEF7E8F880462846C4
:102230008946FEF7E3F842464B46CDE900013348B4
:1022400004F072FD2046FEF7D9F8044630460D46EC
:10225000FEF7D4F822462B46CDE900012C4804F0C5
:1022600063FD2C4E2C4804F0C7FD39462B4804F082
:102270005BFD3068FEF7C2F80446B0680D46FEF715
:10228000BDF8CDE902017068FEF7B8F8244E224689
:102290002B46CDE90001234804F046FD3068FEF7E7
:1022A000ADF80446B0680D46FEF7A8F8CDE9020186
:1022B0007068FEF7A3F82246CDE900012B461A48C4
:1022C00004F032FD194804F097FD0A4805B0BDE856
:1022D000F04304F091BD00BF340700200000B44378
:1022E00000006145DC0600204C0500204805002068
:1022F0003C00002075C40008F4CE00089AB600081F
:102300009EB60008FCB6000830B700088EB700087B
:10231000BDB7000874050020ECB700084AB80008F3
:102320005005002068B8000896B80008C4B8000836
:10233000002310B503638364C36403640446FEF79B
:10234000A1FF0123A4F85430206510BD002310B56F
:10235000C36003610446FEF795FFE06110BD000015
:102360002DE9F04F82EAE274A4EBE274A4B2B4F572
:10237000C87F88BF002491B09B461B9B09920C9399
:102380001C9B82460A931E9B0D460B931F9B9DF838
:1023900068800D9391F85530BDF9749088BF099409
:1023A000ABB109F104031BB2A3420ADB03F003FD46
:1023B000002800F09581504611B0BDE8F04F03F0C1
:1023C00063BC0023084681F85530FFF7B1FFA145F3
:1023D00080F2AD810998FEF76BFC9BF81030064641
:1023E0004FF07E52002B40F0C3800123CBF8000059
:1023F000CBF804208BF81030FEF744FF0746286D19
:10240000381AFEF751FC7849FEF75AFD7749044621
:10241000FEF740FE002840F0D8804FF07E51204665
:10242000FEF756FE08B14FF07E5429682F653046FE
:10243000FEF792FC0746A96C3046FEF783FB214667
:10244000FEF73EFDA968AE64FEF786FC3946FEF74E
:102450007BFB2F6E04463946FEF73AFE00B13C4640
:10246000EF6D20463946FEF715FE00B13C464FF0B1
:102470007E512046FEF72CFE002840F06C8120465D
:102480005B49FEF707FE00B1594CB8F1000F01D0CF
:1024900004F1004400212046FEF710FE002840F021
:1024A000988004F1004327461C464846FEF700FC8E
:1024B000D5F8048081464146FEF700FE28B14FF072
:1024C0007E514846FEF740FB804600213046FEF72D
:1024D000FFFD00287FD106F100404946FEF732FBA0
:1024E00049460E904046FEF72DFB01460E98FEF73A
:1024F000E7FC00218046FEF7CDFD00286DD14FF0AE
:102500007E514046FEF7E4FD08B14FF07E5850463C
:1025100003F053FC002181463846FEF7CFFD00282A
:102520005ED009F101000B9B984202DC5B428342C2
:1025300064DD504603F03FFC10B1504603F0A4FBAD
:102540002846FFF7F5FE002300228BF810300A9B87
:102550001A60284B1A78002A40F0C28001222648CF
:102560001A70DDE90B2111B0BDE8F04F04F0DCBBBF
:10257000DBF80810DBF804000F92FEF7E5FADBF851
:102580000C100446FEF7E0FA01462046FEF798FCE0
:102590000746DBF80030304619460E93FEF7D2FAB4
:1025A0003946FEF7D9FB0E9B1946FEF7CDFA0F9A76
:1025B0003946CBF8000006461046FEF7C3FA21461E
:1025C000FEF7CAFBCBF8040016E7084C2DE7084CD1
:1025D00067E7274669E730467FE74FF0000896E750
:1025E00009F1FF309FE700BF00007A446F12833A81
:1025F000000080BF2E02002025B900082146404679
:10260000FEF748FD00286ED040460D99FEF7A4FB6A
:1026100000218146FEF73EFD08B14FF000090A9BFC
:10262000514948461C68FEF797FBFEF781FD44F6CA
:102630002063181A984228BF1846B0F5487F38BF63
:102640004FF44870FEF730FB002105462046FEF7A8
:1026500017FD78B94FF07C512046FEF77DFB4FF017
:102660007C5104462846FEF777FB01462046FEF7DC
:102670006BFA05460A9B4FF07C511D602846FEF719
:1026800063FAFEF755FD44F62063984228BF1846CA
:102690000021B0F5487F8346384638BF4FF4487B69
:1026A000FEF70CFDB0FA80F15046490903F0A6F997
:1026B000504603F080FB012802D0504603F0FCF99D
:1026C0005946504603F0CEF9284A2949BAEB02028E
:1026D00018BF01228B5C0133DBB2042B05D88B546D
:1026E00011B0BDE8F08F20468FE7002330468B54B1
:1026F000FDF784FE044648460D46FDF77FFE06467C
:1027000040460F46FDF77AFE80465046894603F064
:1027100054FBCDE90489CDE906B0CDE90267CDE9E6
:102720000045099A0C99134804F0FEFAD8E7504680
:1027300003F041FB10B1504603F0A6FA2846FFF71C
:10274000F7FD002300228BF810300A9B1A6001234A
:1027500085F85530C4E7B8F1000F7FF438AF4FF07B
:102760007E573C46A1E600BF000096463407002095
:102770002C02002053B90008F0B51E4E3368DB6808
:102780009B0436D572B61C4D1C4B1D4F01442A8844
:102790001C880132A4B2C2F30802A24208BF1C88FE
:1027A00010F801CB02BF0134C4F308041C802C884C
:1027B0008842A4B207F804C02A80E8D162B6114862
:1027C0000278B2B929881A8889B292B2914210D09F
:1027D000012202701A8892B2B95C1A88C9B2013219
:1027E000C2F308021A8033685960DA6842F0800246
:1027F000DA60F0BDD4070020E8020020E6020020E5
:10280000EA020020E50200200FB407B504AB53F83C
:10281000042B80210648019304F0EEFB011E02DD2B
:102820000348FFF7A9FF03B05DF804EB04B070475D
:10283000380200200021F0B5934B944D1A78944B48
:10284000D2B289B0995418781C46A0F10A02D2B2CB
:10285000162A194603F1010362D825FA02F2D207BB
:10286000F1D48C4A601E133110F8013F0BB188423D
:102870005AD1002388498948137004F012FD257845
:10288000782D7DD059D8592D00F0A5805A2D58D0DB
:10289000582D75D003222046814904F065FC38B1DB
:1028A000032220467F4904F05FFC002840F0D180DD
:1028B00000238DF8173006930023079307AB00938E
:1028C000794906AB0DF11702E01C04F0F5FA032874
:1028D00040F0BA809DF81730744943F02003742B00
:1028E00006A807BF724C734D734C744DFDF710FC76
:1028F000002840F09780079B23600622704B1A70D7
:10290000FEF7C0FC6F4B963018600798FDF776FD18
:10291000CDE9000129466C4806AAFFF775FF01E0E2
:1029200000289ED109B0F0BDA3F16105192D9CBF0F
:10293000203BDBB202F8013B96E7792D4BD07A2D94
:10294000A8D1624803F016F9614803F013F9002397
:10295000604A59481360604A1360FFF7F7FC544817
:10296000FFF7F4FC0622564B1A70FEF78BFC554B12
:1029700096301860594809B0BDE8F040FFF744BFF1
:102980000023574907AA601C079304F095FA012811
:102990001DD154490798FEF7DFF95349FEF790FA25
:1029A000FEF7A0FB0622464B4A4C1A702060FEF749
:1029B00069FC444B963018600798FDF71FFD0B46E5
:1029C0002168024649480091FFF71EFFAAE74848E0
:1029D000FFF71AFFA6E70023414907AA601C0793E7
:1029E00004F06AFA01281BD13E490798FEF7B4F9B2
:1029F0003D49FEF765FAFEF775FB0622304B364C73
:102A00001A702060FEF73EFC2E4B96301860079837
:102A1000FDF7F4FC0B462168024600913548D3E7E8
:102A20003548D5E7354906A8FDF772FB10B9079B75
:102A3000636062E7324906A8FDF76AFB002840F0B0
:102A4000AD83079BA36058E72E48FFF7DDFE2E48B5
:102A5000BEE705F0DF054B2D09D10522184B1A7092
:102A6000FEF710FC174B96301860284883E74D2D71
:102A700050D10622124B1A70FEF704FC114B96300F
:102A80001860234877E700BFAF0600200900400028
:102A9000B0060020FE040020B9B90008EA040020B6
:102AA00086BA00088ABA00088EBA000899BA0008E7
:102AB0005005002094B900087405002099B9000859
:102AC0003C00002088060020CBBA00083407002014
:102AD000DC0600204C050020480500205BBA0008F9
:102AE00096BA0008000061450000B443BCB9000874
:102AF000DFB900080BBA00082FBA00089CBA00081A
:102B00009FBA0008EEBA000819BB000831BB0008E4
:102B10005ABB000808222046944904F025FB30B136
:102B200008222046924904F01FFB002834D10023DC
:102B300090498DF81830079306AA07AB04F10800F6
:102B400004F0BAF9022821D19DF8183043F020038F
:102B5000702B15D1884B079A1A60FEF793FB874BB1
:102B6000963018609DF818308548864943F0200358
:102B7000702B18BF0146079A8348FFF745FED1E640
:102B8000742B01D1814BE6E7814821E77F4B8148D7
:102B90001A68794B1968F0E7052220467E4904F04F
:102BA000E3FA30B1052220467C4904F0DDFA002822
:102BB00044D14FF496737A4907AA601D079304F035
:102BC0007BF9079D774BB5F5006FA8BF4FF4006503
:102BD000322DB8BF32259A6C734B744C9B6C511BD1
:102BE000581B2B44C4E90531E36100232A44C4E99E
:102BF0000220226101226E4E216033706D4B6060B5
:102C00001A70FEF73FFB07226B4B18606B4B6C484A
:102C10001A7022686B4B1A6062686B4B1A60FFF780
:102C200095FB6A48FFF792FB29463278684804F022
:102C30007BF807996748FFF7E7FD73E60422204613
:102C4000654904F091FA28B104222046634904F052
:102C50008BFA68B90022574B52481A7003F014F8E7
:102C6000514803F011F80622544B5D481A7082E671
:102C7000042220465B4904F077FA28B1042220465A
:102C8000594904F071FA20B909B0BDE8F040FFF7E6
:102C9000FDB906222046554904F066FA28B10622FD
:102CA0002046534904F060FA20B909B0BDE8F0406D
:102CB000FFF774BA042220464E4904F055FA28B1B1
:102CC000042220464C4904F04FFA70B900233D4AD3
:102CD00013603D4A13600622384B1A70FEF7D2FA91
:102CE000264B96301860454845E604222046444964
:102CF00004F03AFA28B104222046424904F034FA9A
:102D000048BB043425462B780134202BFAD002220C
:102D100028463D4904F028FA28B1022228463B49BA
:102D200004F022FA20B90122394B3A481A7022E6FF
:102D300003222846384904F017FA28B1032228460E
:102D4000364904F011FA20B90022314B34481A7088
:102D500011E634480FE6194D2B78052B68D132491E
:102D6000324809B0BDE8F040FFF74EBD7DBB00081A
:102D700086BB00088FBB0008A00500208806002045
:102D800094B9000899B90008B1BB00089C0500205F
:102D900096BB0008CEBB0008ECBB0008F2BB0008E5
:102DA00093BB000834070020DC0600201C0500202F
:102DB0003C0500203D050020180500203C000020B7
:102DC000740500204C050020480500205005002017
:102DD000F8BB00082CBC00084FBC000854BC00081D
:102DE00059BC000867BC00086CBC000871BC000836
:102DF00078BC00087FBC000884BC000889BC0008BF
:102E0000A8BC0008ADBC0008B2BC0008B5BC0008F6
:102E1000DC020020B8BC0008DBBC0008DFBC0008F6
:102E2000E3BC0008FABC0008B00600201CBD000886
:102E300003232B70FEF726FA934B9630186000227E
:102E40004FF400519148FEF773FB91499148FFF709
:102E5000DBFC2678A6F13F03362B00F2A481DFE8E5
:102E600013F0E400A2019400A2018800A800A201CE
:102E70007A00E7008100C100A201A201A201A20123
:102E8000A201A2013C00A201A201A0007500CD0098
:102E9000A201A201A201A201A201A201A201A2011A
:102EA000A201A201A2019400A2018800A800A2012F
:102EB0007A00E7008100B500A201A201A201A201EF
:102EC000A201A2013700A201A201A0007500CD005D
:102ED000714B724A72481A604DE5724E3068FDF7C8
:102EE0008DFA0446B0680D46FDF788FACDE9020177
:102EF0007068FDF783FA22462B46CDE900016A4847
:102F0000FFF782FC694B6A4E1A7803216948FFF784
:102F10007BFC3068FDF772FA0446B0680D46FDF799
:102F20006DFACDE902017068FDF768FA2246CDE935
:102F300000012B466048FFF767FC04215F4B5D48AA
:102F40001A7809B0BDE8F040FFF75EBC524B5C4A0E
:102F50005C481A600FE5504B0021186802F046FDEE
:102F6000594808E54C4B0121186802F03FFD5748CD
:102F700001E5494C0021206802F040FD206802F084
:102F80009BFD216852482031EBE6434C012120682B
:102F900002F034FD206802F08FFD21684D48203199
:102FA000DFE63D4C206802F06FFE21684A48203180
:102FB000D7E63A4802F080FD414802F07DFD042347
:102FC00000222B70454B46481A60D4E4374A4548E6
:102FD000137883F0010111704349444A012B08BF63
:102FE0001146BEE6354A4248137883F0010111705C
:102FF0003D493E4A012B08BF1146B2E63D4B1A78C7
:103000008AB100241C703C4B26481C70FFF790F9D5
:103010002748FFF78DF9234B384883F85540244B58
:1030200083F85540A7E43648A5E4FFF72FF83CE6BF
:10303000002300268DF81730069307AB0093314923
:1030400006AB0DF11702601C079603F035FF03284D
:1030500040F0A7809DF81750124C154B45F0200505
:10306000294906A8742D08BF1C46FDF751F8002811
:1030700065D1079F254E38463146FEF70BF80028EC
:1030800046D007964BE000BF8806002000100140A4
:10309000B006002030BD00083400002034070020B6
:1030A00039BD0008080600205FBD000808000020A8
:1030B000A405002084BD00089DBD00081205002065
:1030C000DC060020C2BD0008E9BD000809BE0008FA
:1030D00026BE000842BE00085FBE0008D8060020D9
:1030E00070BE00088FBE00089DB90008ACB900088A
:1030F000AABE00088606002087060020C6BE00087B
:10310000EEBE00088FBA000899BA00086F12833A21
:10311000574E38463146FDF7DBFF0028B1D10798FE
:103120002060544B544C742D08BF1C46FDF766F9C3
:1031300006AACDE9000121465048FFF7EEBB5049F1
:1031400006A8FCF7E5FF90B9079F4E4E384631467A
:10315000FDF7A0FF08B1079606E04B4E3846314612
:10316000FDF7B6FF0028F6D107986060D9E7474918
:1031700006A8FCF7CDFF88B9079F31463846FDF712
:1031800089FF08B1079606E0414E38463146FDF703
:103190009FFF0028F6D10798A060C2E73D4806A926
:1031A00049E53D4814E4601C02F009FE562E054630
:1031B0004CD010D82D2E2FD0522E12D02B2E1DD009
:1031C00021783648FFF720FB3549364809B0BDE87D
:1031D000F04004F066B8762E38D0772E2AD0722EC2
:1031E000EED12846FDF764FD2F4C0146206802F021
:1031F000E1FC21682A462D482031A2E62A4C002114
:10320000206802F0FBFB2946206802F0C5FC21681B
:103210002A462748203194E6234C0121206802F0F9
:10322000EDFB2946206802F0B7FC21682A462148B8
:10323000203186E61C4C0146206802F0F9FC21682A
:1032400005EBD5751C486A1020317AE644F62063F8
:103250009D4228BF1D46B5F5487F38BF4FF44875DD
:10326000114B2946186802F0DBFB2946134878E524
:10327000CDCC4C3D94B9000899B9000808BF0008AE
:103280009CBA000800002041000016439FBA0008C5
:103290000AD7233CA2BA00083CBF0008F0BF0008D0
:1032A00024C00008EA0400203400002097BF000872
:1032B00065BF00087EBF0008AEBF0008C7BF00089A
:1032C000F0B5394BAFB01B78002B6AD0FDF7DAFFB1
:1032D000364C2368C01A632863D9FDF7D3FF344BFB
:1032E00020609C6C334B9E6C334B1D68334B1F68C6
:1032F000334B1868FDF782F8CDE90E01B81BFDF7D6
:10330000D7FCFDF77BF8CDE90C013846FDF7D0FC82
:103310002C49FDF721FD2C49FDF7D2FDFDF76EF894
:10332000CDE90A013046FDF7C3FC2649FDF714FD3F
:103330002549FDF7C5FDFDF761F8CDE90801234BEF
:103340001868FDF75BF8CDE90601281BFDF7B0FC16
:10335000FDF754F8CDE904012846FDF7A9FC194909
:10336000FDF7FAFC1849FDF7ABFDFDF747F8CDE98D
:1033700002012046FDF79CFC1249FDF7EDFC1249C5
:10338000FDF79EFDFDF73AF8114ACDE900017821DD
:1033900010A803F039FD0A2382B210A90D48FEF7E8
:1033A00027FE2FB0F0BD00BFDC020020D8020020B5
:1033B00034070020DC0600204C05002048050020D2
:1033C000400500200000B443000061454405002092
:1033D00028C000081C0800202DE9F74F40F6B83B34
:1033E0001E46836C1446A2EB030A8AEAEA72A2EB39
:1033F000EA725A45884605460C9F0D99DFF85092AF
:1034000040F3FD80D9F80020002A40F0E180FDF76C
:1034100039FFC9F80000284602F0CDFC002840F032
:1034200006812146284602F067FBFDF72BFF044684
:10343000D8F81C00201AFDF737FC8649FDF78CFCF4
:1034400084498146FDF726FE002840F0F2804FF0C7
:103450007E514846FDF73CFE08B14FF07E5950467C
:10346000FDF726FC4946C8F81C408246FDF774FC6F
:10347000D8F81010FDF768FB77490446FDF728FEE1
:1034800000B1754C20467549FDF704FE00B1734C40
:10349000D8F80C105046C8F81040FDF753FB4946C9
:1034A000FDF70EFDD8F800108146C8F80CA0504674
:1034B000FDF752FCD8F8041082462046FDF74CFC7C
:1034C00001465046FDF740FBD8F808100446484630
:1034D000FDF742FC01462046FDF736FBD8F8189070
:1034E00004464946FDF7F4FD00B14C46D8F8148077
:1034F00020464146FDF7CEFD00B144464FF07E51D7
:103500002046FDF7E5FD002840F09A80204654490A
:10351000FDF7C0FD002840F08F8000212046FDF718
:10352000D7FD002800F0898039462046FDF714FCBD
:1035300000210446FDF7AEFD002840F086804FF0E4
:103540007E512046FDF7C4FD00287CD04FF07E5010
:103550004449FDF701FCFDF7EBFD44F62063181A22
:10356000984228BF1846B0F5487F38BF4FF44870DE
:10357000FDF79AFB3768044600213846FDF780FDC9
:1035800068B938463849FDF7E7FB38490746204611
:10359000FDF7E2FB01463846FDF7D6FA04464FF048
:1035A0007C5120463460FDF7CFFAFDF7C1FD44F6AB
:1035B00020639842014628BF1946B1F5487F38BFBD
:1035C0004FF44871284603B0BDE8F04F02F04ABA04
:1035D0000191FDF757FED9F80020801A58457FF673
:1035E0001AAF234B01991A78002A7FF414AF0122F5
:1035F00020481A700323524603F096FB0BE7002382
:103600001B4AC9F8003013700AF10203042B3FF67D
:1036100002AF02F0D0FB10B1284602F035FB404665
:10362000FEF794FE0023336003B0BDE8F08FEC6436
:10363000FBE6DFF8209012E7094C04F1004473E741
:103640004FF07E5470E7204682E7002080E700BFFD
:10365000140500206F12833A00409C4500409CC531
:10366000000080BF000096463333333F9A99993E5D
:103670001305002056C00008234B73B51A68234871
:10368000234B1C68836CD31A042B35DC04330ADA11
:10369000012320490D789D4204D01F4D2D68002B39
:1036A0002CD12A440B701D498B6CE31A042B27DCA8
:1036B000043309DA01231A4D2E789E4203D0194EA5
:1036C0003668FBB934442B70174BC264CC64019349
:1036D0004FF07E53154900930C48154BFFF77CFEC5
:1036E000144B22460193144B144900930B48144B7E
:1036F000FFF772FE02B070BD0023CAE7521BD1E78C
:103700000023D8E7A41BDEE74C0500203407002087
:103710004805002099050020A0050020DC060020B7
:10372000980500209C05002099B900087405002028
:103730004405002094B900083333333F500500207E
:1037400040050020F0B5002589B02A4B06959A69FE
:10375000012442F004029A619A690327022602F0CA
:1037600004020092009A9A6904A942F008029A6140
:103770009A69214802F008020192019A9A6942F07E
:1037800010029A619A6902F010020292029A9A69F2
:1037900042F001029A619B69184A03F00103039306
:1037A000039B536823F0E06343F000735360CDE95B
:1037B00004740796FDF7E2FD2A4639460E48FDF7E8
:1037C000B7FE4FF47043CDE904354FF4005504A91A
:1037D0000B480694FDF7D2FD04A90A48CDE904542C
:1037E0000796FDF7CBFD224629460648FDF7A0FEC9
:1037F00009B0F0BD00100240000801400000014087
:10380000000C01400010014030B5002587B01B4B73
:1038100004959A6902A942F480429A619B694FF427
:10382000007203F480430193019B0223CDE902233C
:10383000032313480593FDF7A1FD4FF4806302A90C
:103840000F48CDE902350495FDF798FD4FF4E133BB
:103850000C4C0D492046C4E900130C23C4E9025561
:10386000C4E905352561E561FEF793FB2268D3685D
:1038700043F02003D36007B030BD00BF001002400A
:10388000000801401C0800200038014030B5002528
:1038900087B01A4B0495DA6902A942F40032DA6162
:1038A000DB69042203F400330193019B0223CDE979
:1038B0000223032312480593FDF760FD08231048F7
:1038C0000DEB0301CDE902350495FDF757FD4FF4EB
:1038D00016530C4C0C492046C4E900130C23C4E9D0
:1038E0000255C4E905352561E561FEF752FB226802
:1038F000D36843F02003D36007B030BD001002400E
:1039000000080140D40700200044004030B50025E5
:1039100087B01F4B0495DA6902A942F48022DA616C
:10392000DA691C4802F480220092009A9A691A4CC3
:1039300042F008029A619B694FF4806203F0080329
:103940000193019B0223CDE9022303230593FDF795
:1039500015FD4FF4006302A90E48CDE90235049528
:10396000FDF70CFD4FF4E1330C492046C4E9001388
:103970000C23C4E90255C4E905352561E561FEF76C
:1039800008FB2268D36843F02003D36007B030BD42
:1039900000100240000C01408C070020004800404D
:1039A000174B37B5DA69174C42F00102DA61DB696F
:1039B0004FF0804203F001030193019B4723002550
:1039C000C4E9002341F63F73C4E902538023204633
:1039D000A3612561FEF708F922682046D36843F009
:1039E0000103D360FEF7A6F82A4601211C20FDF74B
:1039F00073FC1C2003B0BDE83040FDF79DBC00BF48
:103A0000001002403C09002010B51E4B8CB09A6992
:103A1000002442F400629A619B694FF4006203F44F
:103A200000630093009B0223CDE90123032301A936
:103A3000154804930394FDF7A1FC144A144B104657
:103A400013604723C2E9013444F61F63C2E903341B
:103A500080239361FEF7F4F82146142207A803F0AF
:103A60007BFB40F2DC5360210C22CDE905130748B3
:103A700005A9FEF73DF90C210448FEF7EDF90CB05D
:103A800010BD00BF0010024000080140F4080020F3
:103A9000002C014010B51D4B8CB0DA69002442F0B7
:103AA0000202DA61DB6901A903F002030093009BC3
:103AB0000223CDE901330323154804930394FDF752
:103AC0005DFC144A144B104613604723C2E90134CD
:103AD00044F61F63C2E9033480239361FEF7B0F814
:103AE0002146142207A803F037FB40F2DC53602282
:103AF00005A9CDE9052307480C22FEF7F9F80C21AA
:103B00000448FEF7A9F90CB010BD00BF0010024038
:103B1000000C0140AC08002000040040164B37B5F3
:103B2000DA69164C42F00402DA61DB69144A03F0E8
:103B300004030193019B47230025C4E9002341F6B8
:103B40003F73C4E9025380232046A3612561FEF739
:103B50004BF822682046D36843F00103D360FDF799
:103B6000E9FF2A4601211E20FDF7B6FB1E2003B007
:103B7000BDE83040FDF7E0BB0010024064080020C3
:103B80000008004010B514460A2392B20248FEF71E
:103B90002FFA204610BD00BF1C08002000207047EF
:103BA000002070474FF0FF3070474FF0FF307047F4
:103BB00001207047074B1B681A69D10708D5DA68DE
:103BC000D20705D56FF0010203481A6102F068B808
:103BD000704700BF3C09002034070020074B1B68DA
:103BE0001A69D10708D5DA68D20705D56FF0010246
:103BF00003481A6102F054B8704700BF64080020FF
:103C0000DC060020144B82B01B681A68110706D529
:103C1000002201921A6801925A680192019A1A6868
:103C2000920616D50D4A5B681178DBB21E2905D8BD
:103C30001078411CC9B2117009490B540A2B01D0EC
:103C40000D2B03D10122074B1A7002E013781E2BB3
:103C5000F8D802B0704700BF1C080020AF06002053
:103C6000B0060020AE060020324B13B51B681A6860
:103C7000100706D5002201921A6801925A68019233
:103C8000019A1A68510742BF5A68D2B28DF80120D2
:103C90001A68920742BF5A68D2B28DF802201A6899
:103CA000D40742BF5A68D2B28DF803201A681006B2
:103CB00015D5DA68110612D51F4A204910880A88DE
:103CC00080B292B2904228D00A881D4892B2805C9D
:103CD0000A88C0B20132C2F308020A8058601A682A
:103CE000920625D501225C68164BE4B21A70FDF7E6
:103CF000C9FA154B1860154B1A781E2A05D8197881
:103D00004A1CD2B21A70124A54540A2C01D00D2CFB
:103D10000BD101220F4B1A700AE000210E4A1170DC
:103D2000DA6822F08002DA60D9E71B781E2BF0D81F
:103D300002B010BDD4070020E8020020E6020020F7
:103D4000EA020020E4020020E00200208D060020AC
:103D50008E0600208C060020E50200203C4BF7B5C3
:103D60001C6823689A0618D53A4B62681978D2B253
:103D700004290ED8DFE801F003081D2D31003C2A8C
:103D80000BD101221A7008E03B2A04D102221A70DA
:103D9000314B0022F6E73C2AFBD123681B0706D5EE
:103DA000002301932368019363680193019B03B08F
:103DB000F0BD29480178052906D80178CDB2013136
:103DC000C9B2017025494A550278052AE5D903226E
:103DD000D8E7012ADDD10422D4E7012AD9D11F4F27
:103DE000052500223946082617F8010B424050B23B
:103DF0000028BDBF400080F00700C2B2520006F1AB
:103E0000FF30A8BFD2B210F0FF06F0D1681E10F04C
:103E1000FF05E8D14879904215D108784A7842EAFE
:103E200000220F4812B202808878CA7842EA002243
:103E30000C4812B202800A790B49D2B20A700121F1
:103E40000A4A1170A5E70A490A6801320A60A0E728
:103E50008C070020850600207E0600207F060020BB
:103E60007C0600207A0600207906002078060020D3
:103E70006C060020FDF7FAB907B5074C4FF4005166
:103E80000648FDF75AFB00230193019BA342F5D896
:103E9000019B0133F8E700BF1FA10700001001409C
:103EA00007B572B6064C4FF400510648FDF745FBC6
:103EB00000230193019BA342F5D8019B0133F8E74E
:103EC0003F420F000010014010B590B014220021B5
:103ED00008A803F041F91422002101A803F03CF9DD
:103EE00002244FF480330122CDE90D43CDE90623AE
:103EF0004FF4E01306A80F93FDF728FB08B1FFF776
:103F0000CFFF0F23CDE901344FF480630390CDE957
:103F10000430214601A8FDF7DBFC0028EFD110B0EA
:103F200010BD00002DE9F04FB5B0FDF78DF9FFF79A
:103F3000CBFF4AF6AA22B74BB74D1A600023119364
:103F4000AB694FF4005443F01003AB61AB69B34865
:103F500003F010030E930E9B0123CDE90F430223C0
:103F60000FA912930324FDF709FA00224FF4005120
:103F7000AA48FDF7DDFA6420FDF78AF901224FF423
:103F80000051A648FDF7D4FA6420FDF781F9013C01
:103F9000EBD1FFF7D7FBFFF737FCFFF777FCFFF715
:103FA000B5FC224621462520FDF796F92520FDF790
:103FB000C3F9224621462620FDF78EF92620FDF77B
:103FC000BBF9224621462720FDF786F92720FDF779
:103FD000B3F922460F214FF0FF30FDF77DF96C6AEF
:103FE0008F48214602F0A0FE002C02DA8D4802F034
:103FF0009BFE600002D58C4802F096FEA10002D51F
:104000008A4802F091FEE20002D5894802F08CFE57
:10401000230102D5874802F087FE670102D5864852
:1040200002F082FEA60102D5844802F07DFE84489B
:1040300002F0E2FE6B6A43F080736B6201F020F9DC
:10404000002800F08A817F484AF6AA24714D02F0C8
:10405000D3FE2C60FFF7D8FC2C60FFF71BFD2C6013
:10406000FFF79EFC2C60FFF759FD774B2C60069301
:1040700040F246534FF4FA7640F6C41740F2DC584B
:104080000593A3F68C230493704B714A71497248CF
:10409000039300960C23CDE9017801F05BFC6F4B94
:1040A0002C6006934FF448730593A3F5C8630493FB
:1040B0006B4B6C4A6C496D48039300960C23CDE919
:1040C000017801F047FC2C60694802F095FE032559
:1040D0005F4E644C40F6C41332684FF4C8701364EA
:1040E00022681364FDF7D4F84FF4FA7332684FF482
:1040F000C870136422681364FDF7CAF8013DE9D162
:1041000040F2DC5332685B48136422684FF07E5BF8
:10411000136402F071FEC820FDF7BAF84AF6AA222D
:104120003C4B554E1A60554A554B564C1360564BF6
:1041300010465360554B94609365D665C2F860B0E5
:10414000FEF7F6F8524A534B4FF0000A1360524BF9
:10415000946053604FF08143504CDFF84491DFF896
:10416000448110469365D665C2F860B00127FEF71A
:10417000DFF8C4F80090C4F804A0C4F80880C4F8BC
:104180000CA0C4F810A06661C4F818B0FDF77AF866
:1041900084F82070E061444CC4F80090C4F804A096
:1041A000C4F80880C4F80CA0C4F810A06661C4F874
:1041B00018B0FDF767F840F246523C49E0612648E6
:1041C00084F8207001F0C8FC4FF448723849274841
:1041D00001F0C2FC374B1A481D60374B1D6002F0DE
:1041E0000BFE364802F008FE354802F005FE354861
:1041F00002F002FE344802F0FFFD344802F0FCFDFC
:10420000334802F0F9FD334802F0F6FD324B1A78DC
:1042100064E000BF00300040001002400010014088
:10422000CCC00008EDC00008FAC0000807C10008B3
:1042300019C100082AC1000830C100083BC10008AC
:1042400075C400084CC1000899B900087B09ED400D
:10425000AC0800203C0900203407002094B9000875
:104260001CC73141F408002064080020DC0600204F
:10427000A5C20008D4C20008000080BF08060020C4
:10428000A69BC43BA69BC43A0000F04200004040FD
:10429000A40500206F12833B0000B4427405002087
:1042A00052491D3A17B7513850050020BAFAFFFF9E
:1042B000E0FCFFFF4C05002048050020FFC200087D
:1042C0005AC3000888C30008ACC30008D0C3000864
:1042D0002BC400084DC40008AE0600202AB10024FB
:1042E0001C70FEF7A7FAA54B1C70A54B1A787AB183
:1042F0000025A44C1D702278A349A44802F0E7FFD2
:1043000023789E4EDBB23370FEF794FA3570257039
:10431000FCF7B8FF9E4A9F4D1368C31A312B4AD948
:1043200010604FF400419C48FDF7FCF8002840F075
:1043300099809A4801F0A8FC994801F0A5FC2B78D7
:10434000013303F007032B70013B062B16D8DFE87F
:1043500003F02227495663687900924802F04CFD29
:10436000914802F049FD914802F046FD904802F064
:1043700043FD904802F040FD8F4865E6874C8F4B27
:104380008F481C6002F038FD8E4802F035FD204653
:1043900001F092FB0FE0824C884B8B481C60F1E7E8
:1043A0008A4802F029FDB4217C4801F041FCB42187
:1043B0007B4801F03DFC2B78042B40F06681FCF734
:1043C00061FF834F04463E68DFF80882002E40F00C
:1043D000AB80814B3860814888F800601E6002F035
:1043E0000BFD52E17E4802F007FD7E4802F004FD1D
:1043F0007D4802F001FD7D4802F0FEFCDBE77C48D1
:1044000002F0FAFC654801F057FB654801F054FBE7
:1044100000226F4B1A60CEE7764802F0EDFC76483A
:10442000EAE7764802F0E8FC754802F0E5FC7548DA
:1044300002F0E2FC744802F0DFFC744802F0DCFC9D
:104440007348D9E7734802F0D7FC734B734A197865
:10445000734B7448002918BF1A46114602F064FCD9
:104460007148C9E72B78022B22D14FF480514A487A
:10447000FDF758F830B949488468B4F5487F9AD9AF
:10448000C83C0DE04FF400514348FDF74BF80028BD
:1044900091D144F61F63414884689C428BD8C8344C
:1044A000214601F0BDFA21463D4801F0B9FA82E704
:1044B000042BDAD0032B00F0EF804FF48051364804
:1044C000FDF730F880B93D4C20688168B1F5487F30
:1044D00002D9C83901F0A4FA206801F06CFC002868
:1044E0007FF469AF206853E74FF400512A48FDF785
:1044F00019F840B944F61F63304C2068816899422E
:10450000EAD8C831E6E74FF480412348FDF70AF8BE
:1045100000287FF450AF294C20684178B1FA81F12E
:10452000490901F06BFAD7E798F80030861B052B94
:1045300000F2A784DFE813F006007A00E2030C041F
:1045400034047E044FF47A61144801F069FA4FF4A0
:104550007A61134801F064FA0021104801F04EFA24
:1045600000210F4801F04AFAB6F5FA6F40F28D804B
:10457000012388F800303C60174B84E0AF06002030
:104580008C0600208D0600208E060020B00600203C
:10459000340200203C000020000C014034070020C1
:1045A000DC06002074C10008C3C10008D5C10008A2
:1045B00014C2000829C2000849C2000838000020BF
:1045C00077C40008ADC40008D3C400080AC50008B9
:1045D000D8060020D4060020D0060020CFC700084F
:1045E0002DC5000850C500087CC50008A4C50008FA
:1045F000D9C5000813C600083BC600085AC6000803
:104600007DC60008A1C60008C6C60008F0C600089E
:104610002DC7000862C700083D050020A6C000089D
:104620009CC0000885C70008ACC70008B14ADFF885
:10463000C89210464FF4966101F0F2F940F2DC5155
:10464000484601F0EDF9AD4BAA4A1968611AB1F577
:10465000AF7F10D951781046B1FA81F149091C6039
:1046600001F0CCF999F801104846B1FA81F14909F5
:1046700001F0C4F9A14B40F6B832964205D90222A6
:104680003C6088F8002000221A602B78062B03D1AA
:10469000FEF7F2FFFEF714FE2B78072B3CD1984B68
:1046A0001B78002B36D0DFF85C82974C98F80030EE
:1046B000904A54F83370926C04EBC3035E68BF1ADF
:1046C0008D4B0537D3F84890FCF7DCFD0A2F8F4F50
:1046D00000F2DD83A6EB090605360A2E00F2D78329
:1046E0003B68C31AC72B13D998F80010884B0131C7
:1046F00001F0030154F8312004EBC1041A6063682F
:10470000844C3860844888F80010236002F00CFB69
:10471000FEF7B2FFFEF7D4FDFCF7B4FD7F4C236833
:10472000C01AC72840F2C180FCF7ACFD206000F041
:10473000A9FD002800F0B9808022002114A802F011
:104740000BFD2B787649072B98BF764AA3F1050419
:1047500094BF52F82320744A634263418DF8CC30F1
:10476000724B13921A78724B2FA8002A08BF0B467F
:104770001021704A02F048FB9DF8CC30DFF87491AC
:10478000002B00F09E836C4B1E886C4B36B286EA81
:10479000E670A0EBE67080B21C88FCF789FA24B2C0
:1047A000804684EAE470A0EBE47080B2FCF780FA03
:1047B000634907464046FCF78BFC002840F06983BC
:1047C00040465F49FCF77CFB2D905D493846FCF77D
:1047D0007FFC002840F0608338465949FCF770FBA5
:1047E00033461021574A2E9014A802F00DFB564A6A
:1047F0002346102118A802F007FB4F4B188800B27F
:10480000FCF756FA514B1968FCF7A6FA4B4B0446D5
:10481000188800B2FCF74CFA4D4B1968FCF79CFA6B
:10482000354A99F804301279134340F038834949E6
:104830001CA802F036FD484B1B7803F0FF02002B4A
:1048400000F03C83454912F0040F454B18BF0B465E
:1048500012F0020F0CBF2D224822182100920DF1F8
:104860008600404A02F0D0FAFCF70CFDFBF7A4FDED
:1048700000223D4BFBF744FF3C4B3D4A1B7812782E
:10488000002B0CBF70235023002A0CBF742254222B
:10489000CDE90001CDE902321621364A0DF19E0024
:1048A00002F0B2FA13A800F0EFFC334B1A78002A9A
:1048B00000F0948000221A701F4BDFF8C0801F8820
:1048C0001E4B3FB21E88244B36B21C78FCF7DAFC34
:1048D000E4B22B4B14F0010F186040F06F830548D1
:1048E00001F069FA10B1034801F0CEF9024801F075
:1048F00062FA47E034070020DC060020D0060020E2
:104900003D0500203C0500201C0500201805002066
:104910004C050020480500205DC80008C8020020A2
:10492000B4C0000808CF00089AB60008E4020020CE
:10493000B0C000087DC800087C0600207A06002070
:104940000000204383C800088BC800080806002028
:10495000A405002093C8000879060020B9C000080B
:10496000BEC00008AFC8000800408F40080000200B
:1049700012050020B9C8000878060020CC020020EB
:104980007406002010B1B04801F07EF9AF48FDF781
:10499000CFFCAF48FDF7CCFC0023AC4A88F80030D0
:1049A00082F85530AA4A82F85530AA4AC2F800A0C7
:1049B000A94AC2F800A0A94A1374A94A1374A94AC3
:1049C0001370FCF75FFCA84A1368C31AB3F57A7F2B
:1049D00004D91060A549A64802F0A6F9A54F3B7876
:1049E000052B1FD1A44E3368E3B1FCF74BFC3368B1
:1049F000A24CC31AB3F5FA6F40F2A383A04802F0A9
:104A0000FBF9A04801F040F98F4801F03DF98F48CB
:104A1000FDF78EFC8E48FDF78BFC03233B700023D3
:104A200033602360FCF72EFC974C2368C01AB0F566
:104A3000FA7F64D3FCF726FC2060944C2368DB6883
:104A400099045CD543F63C538E48ADF84C30826BEC
:104A5000836C9342B8BF13461946C36B9942D4BFC7
:104A6000C2EB0103C2EB0303C16BC3EB03238A1A3E
:104A700093FBF2F3744A8DF84E30916B936C8B423A
:104A8000B8BF0B461E46D36B9E42D4BFC1EB060394
:104A9000C1EB0303D66BC3EB0323711A93FBF1F352
:104AA00012798DF84F30037913445B108DF8503034
:104AB00001F07CF92B789DF84D105A1F5342534159
:104AC000021E18BF012242EA430200238DF8523031
:104AD0009DF84C308DF851200B449DF84E10204627
:104AE0000B449DF84F100B449DF850100B441A4492
:104AF0008DF853200A23082213A9FDF779FAFCF751
:104B0000C1FB634C2368C01A952840F28880FCF7EB
:104B1000B9FB604B20601B68DB689B047FD55E4B54
:104B20005E4A1B8812889BB292B2934238BF03F54B
:104B300000739B1A9BB2B3F59A7F70D2584F594DB0
:104B4000388800B2FCF7B4F8404B1968FCF704F958
:104B50000446288800B2FCF7ABF83D4B1968FCF717
:104B6000FBF84FF07E5106462046FCF7B1FA0028CC
:104B700040F0F38220464C49FCF78CFA00B14A4CD5
:104B80004FF07E513046FCF7A3FA002840F0E8824F
:104B900030464549FCF77EFA00B1434E3B882A88EF
:104BA0001BB220460D9313B20C93FBF727FC04466F
:104BB00030460D46FBF722FC0F462449064648685E
:104BC000FBF71CFC8946224980464868FBF716FC27
:104BD000DFF8A0E0354A9EF800E092F800C0BEF190
:104BE000050F14BF4FF04D0E4FF0410E0C9BCCF350
:104BF0004002CDE90801CDE90A2E60210093CDE9FC
:104C00000689CDE90467CDE902450D9B284A13A822
:104C100002F0FAF8011E02DD13A8FDF7ADFD4AF619
:104C2000AA22244B244C1A60FCF72CFB2368C01AE0
:104C3000B0F5FA7F53D3FCF725FB20601F4C237897
:104C4000002B4CD03CE000BFDC0600200806002012
:104C5000A4050020D4020020D00200202000002063
:104C60000C0000208606002030020020EEC800085C
:104C70000BC900083C0000207406002070060020CC
:104C8000CCC9000834070020C40200208C07002093
:104C9000C0020020D4070020E8020020E602002025
:104CA0007C0600207A060020000080BF79060020E4
:104CB00020CA000800300040BC020020E4020020AE
:104CC000FCF7E0FAA44B1B68C01AB0F5FA5F06D9EE
:104CD00000234FF4FA51A148237002F025F8FCF7A5
:104CE000D1FA9F4B1B68984280F03D8200224FF41E
:104CF00000519C48FCF71CFCFFF788BA4FF47A710E
:104D00009948DFF8689200F08BFE0021964800F089
:104D100075FE484601F04FF8012803D199F8053097
:104D2000012B0BD0914800F0AFFFA0218F4800F07D
:104D30007FFF40F6C4118D4800F072FE40F6B83394
:104D40009E427FF6A2AC032388F800303C609CE4CE
:104D50004FF47A718448DFF8149200F061FE01216B
:104D6000814800F04BFE484601F025F8012803D1A8
:104D700099F80530012B0BD07C4800F085FFA0216D
:104D80007A4800F055FF40F6C411784800F048FE1C
:104D900040F6B8339E427FF678AC0423FFF7E9BBB8
:104DA0003046FBF781FF7249FCF78AF87149FBF73F
:104DB000D3FFFCF7BDF9C0F51C610431B1F57A7F72
:104DC00038BF4FF47A71DFF8A49167480C9100F076
:104DD00027FE99F805300C99012B06D1484600F0C2
:104DE00053FF484600F068FE0C99604800F018FE3A
:104DF000614B1A68A21AB2F5FA7F15D95A481C609D
:104E00004178B1FA81F1490900F0F8FD5A4B1B686D
:104E1000E31AB3F57A7F07D999F801105348B1FA2C
:104E200081F1490900F0EAFDB6F57A6F7FF62DAC05
:104E3000052389E74C4C41F28831204600F0F0FD13
:104E400041F28831494800F0EBFD0021204600F096
:104E5000D5FD0121454800F0D1FDB6F5FA6F7FF68A
:104E600014AC464801F0C8FF0023454A45482B7062
:104E700014603B6088F8003001F0BEFF4248FFF745
:104E8000AEBA002388F800303B60FFF7FEBB386005
:104E90003EE44FF07E5097E44FF07E50A0E4FBF7E5
:104EA000ADFACDE902012046FBF7A8FA374ACDE971
:104EB000000116211CA801F0A7FFBCE42D22344BF1
:104EC000CBE42A49334B0979334C99F80420002963
:104ED00008BF1C46304914A8002A18BF0B461021F1
:104EE0002E4A01F091FF234610212D4A18A801F007
:104EF0008BFF99F8043043BB00232D931B4B1B7988
:104F000033BB00232E93274B16211B68264A2033E0
:104F10001CA801F079FF254A1821254B0DF18600C8
:104F200001F072FFFCF7AEF9139B0293FBF744FA12
:104F30000022204BFBF7E4FB1F4ACDE900011621BC
:104F40000DF19E0001F060FFACE44FF07C53D4E71C
:104F50004FF07C53D6E700BFE00200205DCA000896
:104F6000880600200010014034070020DC060020E5
:104F700000007A450080BB44D0060020EDC7000841
:104F8000380000200BC800082AC80008A1C8000883
:104F9000B4C00008C3C00008C8C00008C7C80008E3
:104FA000CEC8000834000020D5C80008DCC80008BE
:104FB000FE04002000408F40E2C8000898F800304E
:104FC0000133DBB2012B88F800307FF607AD2B7878
:104FD000072B3FF427ADFCF755F9744B18606007B9
:104FE00047BF4FF003094FF004084FF009094FF095
:104FF0000A08FCF747F940F6B83398427FF6EEAC62
:105000002B78052B0FD0052369482B70FDF790F9FD
:105010006848FDF78DF90023674A68481374684AA9
:10502000137401F0E9FE674A1378002B33D087EA46
:10503000E773A3EBE7739BB2282B17D886EAE673D6
:10504000A3EBE6739BB2282B10D85F4800F0B3FEA9
:1050500010B15D4800F018FE5C4800F0ACFE00287E
:105060003FF4BCAC594800F00FFEB7E400231370C6
:10507000574A4F481370FDF75BF94E48FDF758F952
:1050800000234B4A282182F855304A4A514882F879
:10509000553001F049FE4FF4C873CDE903934E4BF0
:1050A000CDF814B002934D4B3A4601934C4B404916
:1050B0001B7845480093404BFDF752F9494B04F0EB
:1050C000060405934FF49673CDE90383464B3246AD
:1050D0000293464B37490193454B3C481B7800935C
:1050E000374BFDF73DF9062C394C27D1FCF7CAF8B0
:1050F000404BC830186000224FF400513E48FCF786
:1051000017FA237823B901233C48237001F074FE79
:105110002D4800F0B9FD2D4800F0B6FD2448FDF7FC
:1051200007F92448FDF704F90123214A82F8553094
:10513000204A82F85530234A13704FE4002323702D
:105140004CE42368002B3FF46DAC2368C01AB0F523
:10515000FA6F7FF667AC2A4851E44FF07E540FE5B2
:105160004FF07E561AE5FCF78DF8264C2368C01ADE
:10517000B0F5FA7F7FF64AA8FCF784F82060124861
:1051800000F019FE00287FF441A8104800F013FE3B
:1051900000287FF43BA800F180404FF4005100F557
:1051A0008830FCF7CAF9FFF731B800BF700600205D
:1051B00008060020A40500202000002027C90008C0
:1051C0000C0000208606002034070020DC060020AA
:1051D000870600204EC90008D402002099B90008B3
:1051E000080000209A99193FD002002094B90008C5
:1051F0001205002088060020001001408BC900081D
:10520000EEC90008B802002073B50C46054600211F
:105210002046FBF73FFF70BB4FF07E512046FBF767
:1052200057FF08B14FF07E5420461449FBF794FD18
:105230004FF07C51FBF788FCFBF77AFF01262946EB
:1052400007233E22C4B20096402000F0EEFA00236D
:105250003544EDB200933C2205232946412000F05D
:10526000E4FA34B10523224629464120009600F095
:10527000DCFA02B070BD0020D7E700BF000070422A
:1052800000F010BA00F000BA10B5044600F0FCF9C6
:10529000002844D0002C42D000F0FCF9002101236A
:1052A00008461F4A00F098FA012307227F210020B8
:1052B00000F0A4FA221D01230821002000F08CFA3E
:1052C000A16E0820FFF7A0FF04F1140201231021B2
:1052D000002000F081FAE16E1020FFF795FF04F145
:1052E000240201231821002000F076FA04F13A028A
:1052F00001232021002000F06FFA04F15202012363
:105300002821002000F068FA04F170020123302106
:10531000002000F061FABDE8104000F0A7BA10BD0F
:10532000F9CA0008002382B00193019B132B01D915
:1053300002B07047019B0133F6E7000001224FF4F1
:1053400080710148FCF7F4B8000C014001224FF4D1
:1053500000710148FCF7ECB8000C014000224FF44A
:1053600000710148FCF7E4B8000C014008B5FFF7F4
:10537000F5FFFFF7D7FFFFF7E1FFFFF7D3FFFFF7D9
:10538000E5FFBDE80840FFF7CDBF000000224FF465
:1053900080710148FCF7CCB8000C014008B5FFF75C
:1053A000D5FFFFF7BFFFFFF7C9FFFFF7BBFFFFF711
:1053B000D5FFFFF7B7FFFFF7E9FFBDE80840FFF7AC
:1053C000B1BF000038B504460825230625D5FFF7F0
:1053D000BDFFFFF7A7FF6400FFF7B0FFFFF7A2FFD5
:1053E000FFF7D4FFFFF79EFF013DE4B2EDD1FFF7D9
:1053F000ADFFFFF797FFFFF7A1FF4FF400710848DB
:10540000FFF790FFFCF78EF80446FFF7BFFFFFF7AA
:1054100089FF201E18BF012038BDFFF79FFFD8E786
:10542000000C014038B50C4B05461B789BB10B4B6B
:105430001C8884B16400FFF7B1FF04F0FE00FFF7A1
:10544000C1FF0020FFF7BEFF2846FFF7BBFFBDE806
:105450003840FFF78BBF38BD860900208409002043
:1054600008B5AE20FFF7DEFF0220FBF711FF20207A
:10547000FFF7D8FF0220FBF70BFF0020FFF7D2FF5A
:105480000220FBF705FF2120FFF7CCFF0220FBF7EE
:10549000FFFE0020FFF7C6FF0220FBF7F9FE7F208A
:1054A000FFF7C0FF0220FBF7F3FE2220FFF7BAFF51
:1054B0000220FBF7EDFE0020FFF7B4FF0220FBF710
:1054C000E7FE0720FFF7AEFF0220FBF7E1FEB0206A
:1054D000FFF7A8FF0220FBF7DBFEC820FFF7A2FFC3
:1054E0000220FBF7D5FE0020FFF79CFF0220FBF710
:1054F000CFFE1020FFF796FF0220FBF7C9FE4020E9
:10550000FFF790FF0220FBF7C3FE8120FFF78AFF21
:105510000220FBF7BDFECF20FFF784FF0220FBF740
:10552000B7FEA120FFF77EFF0220FBF7B1FEA62009
:10553000FFF778FF0220FBF7ABFEA820FFF772FF12
:105540000220FBF7A5FE3F20FFF76CFF0220FBF7D0
:105550009FFED320FFF766FF0220FBF799FE002095
:10556000FFF760FF0220FBF793FED520FFF75AFFFD
:105570000220FBF78DFE8020FFF754FF0220FBF78F
:1055800087FED920FFF74EFF0220FBF781FEF120B6
:10559000FFF748FF0220FBF77BFEDA20FFF742FF10
:1055A0000220FBF775FE1220FFF73CFF0220FBF7FD
:1055B0006FFEDB20FFF736FF0220FBF769FE40207D
:1055C000FFF730FF0220FBF763FE8D20FFF72AFF75
:1055D0000220FBF75DFE1420FFF724FF0A20FBF7F3
:1055E00057FEAF20FFF71EFFBDE808400A20FBF77B
:1055F0004FBE00002DE9F047B0241F4D1F4EDFF8CD
:105600008080DFF8809080223146284601F094FDAA
:1056100040B32046FFF706FF0020FFF703FF1020EE
:10562000FFF700FF98F80030BBB1B9F80070A7B1E0
:10563000FFF7B4FE780000F0FE00FFF7C3FE402045
:10564000FFF7C0FE6F1E05F17F0A17F8010FFFF785
:10565000B9FE5745F9D1FFF789FE80222946304629
:1056600001F035FE0134E4B2B82C05F1800506F1F5
:105670008006C8D1BDE8F087870D0020870900208B
:105680008609002084090020014B1878704700BF6C
:10569000860900204FF480620021014801F05CBDC2
:1056A000870D00207FB50023234D244C4FF440721A
:1056B0002B70238011230121CDE9002303232048EF
:1056C000CDE902136946FBF759FEFFF737FEFFF7F6
:1056D0003DFE3220FBF7DCFDFFF760FE7820FFF790
:1056E00071FE0646FFF742FE012E1ED1FFF756FE61
:1056F0007A20FFF767FE0646FFF738FE012E16D028
:105700003D23238001240A202C70FBF7C1FDFFF705
:10571000A7FE4FF48062FF210A4801F01DFDFFF74C
:10572000B9FFFFF767FF204604E03C23E9E7208844
:105730000028E7D104B070BD86090020840900204C
:10574000000C014087090020030630B50ED43F2924
:105750000CD80124CB08074D00EBC31001F0070162
:105760002B5C04FA01F112B10B432B5430BD23EA38
:105770000103FAE7870D00202DE9F04714461A4689
:10578000A4F120035E2B88BF3F2406460F46002568
:10579000104B203C04EB84041C444FF0000806EB43
:1057A000050914F805A05FFA89F94AFA08F3DB073E
:1057B00005D507EB08014846C9B2FFF7C5FF08F158
:1057C0000108B8F1070FF0D10135052DE5D1BDE88D
:1057D000F08700BF28CF0008F8B505460E461F46E3
:1057E0001AB1541E14F8012F02B9F8BD28463B46E1
:1057F00031460635FFF7C0FFEDB2F3E7814270B5E1
:10580000164605460C461A4601D304460D46A542E7
:1058100000D270BD230605D43F2E03D83146204662
:10582000FFF792FF0134E4B2F1E72DE9F843804637
:105830000C465E1817189DF82090F6B2FFB2B442DD
:1058400011D045460AE02B0606D43F2C04D84A4620
:1058500021462846FFF778FF0135EDB2BD42F2D16F
:105860000134E4B2EBE7BDE8F883000038B51A4B29
:105870001B7883B34FF08053184DC5F88030BFF3C9
:105880004F8FBFF36F8F4FF00053C5F88030BFF3D9
:105890004F8FBFF36F8F124B1C88FFF77FFD6400A3
:1058A000E4B22046FFF78EFD0446FFF75FFD012CB2
:1058B00009D1FFF7D5FD4FF48062FF21094801F0BF
:1058C0004BFCFFF7E7FEFFF795FE4FF080532B6090
:1058D0004FF000532B6038BD8609002000E100E046
:1058E0008409002087090020F8B5D0E9063604466F
:1058F0001D68806BA36C9842B8BF1846E36B984252
:10590000A8BF1846FBF7D4F91149FBF7D9FA616B28
:10591000FBF722FA0746206BFBF7CAF90146384627
:10592000FBF712F9FBF7DEFBA36A9842B8BF1846F3
:10593000E36A9842A8BF18460EB96863F8BD042E02
:1059400001D1A863FAE7082E0CBFE8632864F5E7E5
:10595000000020412DE9F04F85B01D46DDE90E899C
:10596000119B04460193129B0F46164600215722B5
:105970000130DDF840A00293DDE913B3039301F099
:10598000EBFB012222704FF4FA52A2604FF46172D5
:10599000019BC4E906656363029BC4E90427C4E96B
:1059A0000E3B039BC4E90A89C4F830A004F120052A
:1059B00023B107221946284601F0E8FB2046FFF7ED
:1059C00093FF0A209BFBF0F0FAF706FD4B46CDE96A
:1059D0001001424629460448CDF838A005B0BDE87C
:1059E000F04F01F0A1B900BF0ACB000800F8201B5E
:1059F0000146014801F098B953CB0008054A064B0F
:105A00004170002918BF1A4600F12001034801F037
:105A10008BB900BF8ECB00089DCB0008ADCB000832
:105A200044F6206399420A4628BF1A46B2F5487FD9
:105A300038BF4FF4487210B4446982602368D96853
:105A400021F00101D960511ED962E160D96810BC12
:105A500041F00101D96000F12001014801F064B971
:105A6000B7CB000810B544F62064A14228BF2146F8
:105A70008368B1F5487F2CBFC3EB0102C3F54872C0
:105A80000C498A42B8BF0A4640F6B8318A42D4BFB0
:105A90009B185B18A34228BF2346B3F5487F38BF45
:105AA0004FF44873426983601168013BCB62D36055
:105AB00010BD00BF48F4FFFF72B6037983B9082315
:105AC00044F6206280F84030836803EB430393423E
:105AD00028BF1346426943641168013BCB62D3601F
