:020000040800F2
:10000000005000202DB9000875B900087942000899
:1000100075B9000875B9000875B90008000000003E
:1000200000000000000000000000000075B900089A
:1000300075B900080000000075B900087542000895
:1000400075B9000875B9000875B9000875B90008D8
:1000500075B9000875B9000875B9000875B90008C8
:1000600075B9000875B9000875B9000875B90008B8
:1000700075B9000875B9000875B9000875B90008A8
:1000800075B9000875B9000875B9000875B9000898
:1000900075B9000875B9000875B9000875B9000888
:1000A00075B9000875B9000875B9000875B9000878
:1000B000A93E000875B90008D13E000875B90008CE
:1000C00075B9000875B9000875B9000875B9000858
:1000D00075B90008F93E00085D3F0008514000086E
:1000E00075B9000875B9000875B90008000000006E
:1000F0000000000000000000000000000000000000
:0C01000000000000000000005FF808F1A3
:1001100010F8012B11F8013B012A28BF9A42F7D0B1
:10012000D01A7047034613F8012B002AFBD1181A86
:100130000138704781F0004102E000BF83F00043C6
:1001400030B54FEA41044FEA430594EA050F08BF72
:1001500090EA020F1FBF54EA000C55EA020C7FEA36
:10016000645C7FEA655C00F0E2804FEA5454D4EBB3
:100170005555B8BF6D420CDD2C4480EA020281EA7D
:10018000030382EA000083EA010180EA020281EAB5
:100190000303362D88BF30BD11F0004F4FEA013107
:1001A0004FF4801C4CEA113102D0404261EB410116
:1001B00013F0004F4FEA03334CEA133302D052429C
:1001C00063EB430394EA050F00F0A780A4F1010458
:1001D000D5F1200E0DDB02FA0EFC22FA05F2801892
:1001E00041F1000103FA0EF2801843FA05F3594178
:1001F0000EE0A5F120050EF1200E012A03FA0EFCF7
:1002000028BF4CF0020C43FA05F3C01851EBE37120
:1002100001F0004507D54FF0000EDCF1000C7EEB3D
:1002200000006EEB0101B1F5801F1BD3B1F5001F7B
:100230000CD349085FEA30004FEA3C0C04F101049A
:100240004FEA445212F5800F80F09A80BCF1004FC3
:1002500008BF5FEA500C50F1000041EB045141EA45
:10026000050130BD5FEA4C0C404141EB0101013C0E
:1002700028BFB1F5801FE9D291F0000F04BF0146FD
:100280000020B1FA81F308BF2033A3F10B03B3F1CF
:1002900020020CDA0C3208DD02F1140CC2F10C025F
:1002A00001FA0CF021FA02F10CE002F11402D8BFBD
:1002B000C2F1200C01FA02F120FA0CFCDCBF41EA89
:1002C0000C019040E41AA2BF01EB0451294330BD58
:1002D0006FEA04041F3C1CDA0C340EDC04F1140435
:1002E000C4F1200220FA04F001FA02F340EA03000C
:1002F00021FA04F345EA030130BDC4F10C04C4F152
:10030000200220FA02F001FA04F340EA0300294631
:1003100030BD21FA04F0294630BD94F0000F83F47B
:10032000801306BF81F480110134013D4EE77FEA5E
:10033000645C18BF7FEA655C29D094EA050F08BFAA
:1003400090EA020F05D054EA000C04BF194610468B
:1003500030BD91EA030F1EBF0021002030BD5FEACF
:10036000545C05D14000494128BF41F0004130BDF7
:1003700014F580043CBF01F5801130BD01F000454B
:1003800045F0FE4141F470014FF0000030BD7FEABE
:10039000645C1ABF194610467FEA655C1CBF0B46B9
:1003A000024650EA013406BF52EA033591EA030FD0
:1003B00041F4002130BD00BF90F0000F04BF0021C8
:1003C000704730B54FF4806404F132044FF00005FB
:1003D0004FF0000150E700BF90F0000F04BF002174
:1003E000704730B54FF4806404F1320410F00045DA
:1003F00048BF40424FF000013EE700BF42004FEAD5
:10040000E2014FEA31014FEA02701FBF12F07F4351
:1004100093F07F4F81F06051704732F07F4208BF08
:10042000704793F07F4F04BF41F40021704730B50F
:100430004FF4607401F0004521F000411CE700BF5B
:1004400050EA010208BF704730B54FF000050AE0DE
:1004500050EA010208BF704730B511F0004502D5DF
:10046000404261EB41014FF4806404F132045FEAE1
:10047000915C3FF4D8AE4FF003025FEADC0C18BF8A
:1004800003325FEADC0C18BF033202EBDC02C2F17C
:10049000200300FA03FC20FA02F001FA03FE40EA0E
:1004A0000E0021FA02F11444BDE600BF70B54FF012
:1004B000FF0C4CF4E06C1CEA11541DBF1CEA1355F0
:1004C00094EA0C0F95EA0C0F00F0DEF82C4481EA58
:1004D000030621EA4C5123EA4C5350EA013518BF78
:1004E00052EA033541F4801143F4801338D0A0FB65
:1004F00002CE4FF00005E1FB02E506F00042E0FB12
:1005000003E54FF00006E1FB03569CF0000F18BF17
:100510004EF0010EA4F1FF04B6F5007F64F54074BF
:1005200004D25FEA4E0E6D4146EB060642EAC62152
:1005300041EA55514FEAC52040EA5E504FEACE2EBF
:10054000B4F1FD0C88BFBCF5E06F1ED8BEF1004FC2
:1005500008BF5FEA500E50F1000041EB045170BD3E
:1005600006F0004646EA010140EA020081EA030182
:10057000B4EB5C04C2BFD4EB0C0541EA045170BD7E
:1005800041F480114FF0000E013C00F3AB8014F1F8
:10059000360FDEBF002001F0004170BDC4F1000441
:1005A000203C35DA0C341BDC04F11404C4F12005C2
:1005B00000FA05F320FA04F001FA05F240EA02001D
:1005C00001F0004221F0004110EBD37021FA04F653
:1005D00042EB06015EEA430E08BF20EAD37070BD0D
:1005E000C4F10C04C4F1200500FA04F320FA05F06C
:1005F00001FA04F240EA020001F0004110EBD3706E
:1006000041F100015EEA430E08BF20EAD37070BDDD
:10061000C4F1200500FA05F24EEA020E20FA04F3B6
:1006200001FA05F243EA020321FA04F001F0004165
:1006300021FA04F220EA020000EBD3705EEA430ED6
:1006400008BF20EAD37070BD94F0000F0FD101F005
:100650000046400041EB010111F4801F08BF013C3E
:10066000F7D041EA060195F0000F18BF704703F07C
:100670000046520043EB030313F4801F08BF013D03
:10068000F7D043EA0603704794EA0C0F0CEA1355BF
:1006900018BF95EA0C0F0CD050EA410618BF52EA79
:1006A0004306D1D181EA030101F000414FF000007F
:1006B00070BD50EA410606BF1046194652EA43068D
:1006C00019D094EA0C0F02D150EA013613D195EA01
:1006D0000C0F05D152EA03361CBF104619460AD149
:1006E00081EA030101F0004141F0FE4141F4700153
:1006F0004FF0000070BD41F0FE4141F4780170BD43
:1007000070B54FF0FF0C4CF4E06C1CEA11541DBFA7
:100710001CEA135594EA0C0F95EA0C0F00F0A7F8A9
:10072000A4EB050481EA030E52EA03354FEA0131D6
:1007300000F088804FEA03334FF0805545EA1313E9
:1007400043EA12634FEA022245EA111545EA1065B1
:100750004FEA00260EF000419D4208BF964244F148
:10076000FD0404F5407402D25B084FEA3202B61A67
:1007700065EB03055B084FEA32024FF480104FF43B
:10078000002CB6EB020E75EB030E22BFB61A7546AF
:1007900040EA0C005B084FEA3202B6EB020E75EB42
:1007A000030E22BFB61A754640EA5C005B084FEAAA
:1007B0003202B6EB020E75EB030E22BFB61A754677
:1007C00040EA9C005B084FEA3202B6EB020E75EB82
:1007D000030E22BFB61A754640EADC0055EA060E43
:1007E00018D04FEA051545EA16754FEA06164FEA86
:1007F000C30343EA52734FEAC2025FEA1C1CC0D132
:1008000011F4801F0BD141EA00014FF000004FF0BE
:10081000004CB6E711F4801F04BF01430020B4F17F
:10082000FD0C88BFBCF5E06F3FF6AFAEB5EB030C37
:1008300004BFB6EB020C5FEA500C50F1000041EB34
:10084000045170BD0EF0004E4EEA113114EB5C0401
:10085000C2BFD4EB0C0541EA045170BD41F48011D4
:100860004FF0000E013C90E645EA060E8DE60CEADC
:10087000135594EA0C0F08BF95EA0C0F3FF43BAFF9
:1008800094EA0C0F0AD150EA01347FF434AF95EAB0
:100890000C0F7FF425AF104619462CE795EA0C0F94
:1008A00006D152EA03353FF4FDAE1046194622E761
:1008B00050EA410618BF52EA43067FF4C5AE50EA3B
:1008C00041047FF40DAF52EA43057FF4EBAE12E72B
:1008D0004FF0FF3C06E000BF4FF0010C02E000BF0C
:1008E0004FF0010C4DF804CD4FEA410C7FEA6C5CEF
:1008F0004FEA430C18BF7FEA6C5C1BD001B050EA92
:10090000410C0CBF52EA430C91EA030F02BF90EA7C
:10091000020F0020704710F1000F91EA030F58BF3B
:10092000994208BF90422CBFD8176FEAE37040F09D
:10093000010070474FEA410C7FEA6C5C02D150EA3B
:10094000013C07D14FEA430C7FEA6C5CD6D152EAF6
:10095000033CD3D05DF8040B704700BF84461046BB
:1009600062468C461946634600E000BF01B5FFF7BA
:10097000B7FF002848BF10F1000F01BD4DF808ED8A
:10098000FFF7F4FF0CBF012000205DF808FB00BF5B
:100990004DF808EDFFF7EAFF34BF012000205DF8B5
:1009A00008FB00BF4DF808EDFFF7E0FF94BF012002
:1009B00000205DF808FB00BF4DF808EDFFF7CEFF03
:1009C00094BF012000205DF808FB00BF4DF808ED42
:1009D000FFF7C4FF34BF012000205DF808FB00BF13
:1009E0004FEA410C7FEA6C5C02D150EA013C0AD12B
:1009F0004FEA430C7FEA6C5C02D152EA033C02D11D
:100A00004FF0000070474FF0010070474FEA41027D
:100A100012F5001215D211D56FF47873B3EB625250
:100A200012D94FEAC12343F0004343EA505311F077
:100A3000004F23FA02F018BF404270474FF0000009
:100A4000704750EA013005D111F0004008BF6FF047
:100A5000004070474FF00000704700BF4A0011D2BD
:100A600012F5001211D20DD56FF47873B3EB625208
:100A70000ED44FEAC12343F0004343EA505323FA14
:100A800002F070474FF00000704750EA013002D189
:100A90004FF0FF3070474FF0000070474FEA4102BF
:100AA000B2F1E04324BFB3F5001CDCF1FE5C0DD9CC
:100AB00001F0004C4FEAC0024CEA5070B2F1004F16
:100AC00040EB830008BF20F00100704711F0804F19
:100AD00021D113F13872BCBF01F00040704741F4DE
:100AE00080114FEA5252C2F11802C2F1200C10FAE2
:100AF0000CF320FA02F018BF40F001004FEAC123C6
:100B00004FEAD32303FA0CFC40EA0C0023FA02F369
:100B10004FEA4303CCE77FEA625307D150EA01333F
:100B20001EBF4FF0FE4040F44000704701F000400F
:100B300040F0FE4040F40000704700BF80F00040ED
:100B400002E000BF81F0004142001FBF5FEA4103A5
:100B500092EA030F7FEA226C7FEA236C6AD04FEAA5
:100B60001262D2EB1363C1BFD218414048404140EA
:100B7000B8BF5B42192B88BF704710F0004F40F49C
:100B8000000020F07F4018BF404211F0004F41F4B8
:100B9000000121F07F4118BF494292EA030F3FD084
:100BA000A2F1010241FA03FC10EB0C00C3F1200397
:100BB00001FA03F100F0004302D5494260EB400026
:100BC000B0F5000F13D3B0F1807F06D340084FEA91
:100BD000310102F10102FE2A51D2B1F1004F40EB86
:100BE000C25008BF20F0010040EA030070474900EE
:100BF00040EB0000013A28BFB0F5000FEDD2B0FA8B
:100C000080FCACF1080CB2EB0C0200FA0CF0AABFAD
:100C100000EBC25052421843BCBFD040184370474B
:100C200092F0000F81F4000106BF80F40000013251
:100C3000013BB5E74FEA41037FEA226C18BF7FEA28
:100C4000236C21D092EA030F04D092F0000F08BF6A
:100C50000846704790EA010F1CBF0020704712F051
:100C60007F4F04D1400028BF40F00040704712F190
:100C700000723CBF00F50000704700F0004343F0F5
:100C8000FE4040F4000070477FEA226216BF08462B
:100C90007FEA23630146420206BF5FEA412390EAEE
:100CA000010F40F4800070474FF0000304E000BFE4
:100CB00010F0004348BF40425FEA000C08BF704795
:100CC00043F0964301464FF000001CE050EA010259
:100CD00008BF70474FF000030AE000BF50EA01026E
:100CE00008BF704711F0004302D5404261EB41015B
:100CF0005FEA010C02BF84460146002043F0B64380
:100D000008BFA3F18053A3F50003BCFA8CF2083AA4
:100D1000A3EBC25310DB01FA02FC634400FA02FCAD
:100D2000C2F12002BCF1004F20FA02F243EB0200B4
:100D300008BF20F00100704702F1200201FA02FC16
:100D4000C2F1200250EA4C0021FA02F243EB020009
:100D500008BF20EADC7070474FF0FF0C1CEAD0524D
:100D60001EBF1CEAD15392EA0C0F93EA0C0F6FD00E
:100D70001A4480EA010C400218BF5FEA41211ED0EC
:100D80004FF0006343EA501043EA5111A0FB0131D8
:100D90000CF00040B1F5000F3EBF490041EAD371AD
:100DA0005B0040EA010062F17F02FD2A1DD8B3F129
:100DB000004F40EBC25008BF20F00100704790F098
:100DC000000F0CF0004C08BF49024CEA502040EAEA
:100DD00051207F3AC2BFD2F1FF0340EAC2507047B0
:100DE00040F400004FF00003013A5DDC12F1190FEE
:100DF000DCBF00F000407047C2F10002410021FA60
:100E000002F1C2F1200200FA02FC5FEA310040F177
:100E1000000053EA4C0308BF20EADC70704792F0F0
:100E2000000F00F0004C02BF400010F4000F013A28
:100E3000F9D040EA0C0093F0000F01F0004C02BF23
:100E4000490011F4000F013BF9D041EA0C018FE792
:100E50000CEAD15392EA0C0F18BF93EA0C0F0AD098
:100E600030F0004C18BF31F0004CD8D180EA0100BE
:100E700000F00040704790F0000F17BF90F0004F57
:100E8000084691F0000F91F0004F14D092EA0C0F39
:100E900001D142020FD193EA0C0F03D14B0218BFCC
:100EA000084608D180EA010000F0004040F0FE4012
:100EB00040F40000704740F0FE4040F440007047AE
:100EC0004FF0FF0C1CEAD0521EBF1CEAD15392EA2D
:100ED0000C0F93EA0C0F69D0A2EB030280EA010C1D
:100EE00049024FEA402037D04FF0805343EA1111B6
:100EF00043EA10130CF000408B4238BF5B0042F114
:100F00007D024FF4000C8B4224BF5B1A40EA0C00B8
:100F1000B3EB510F24BFA3EB510340EA5C00B3EBEA
:100F2000910F24BFA3EB910340EA9C00B3EBD10FD8
:100F300024BFA3EBD10340EADC001B0118BF5FEA2A
:100F40001C1CE0D1FD2A3FF650AF8B4240EBC25053
:100F500008BF20F0010070470CF0004C4CEA502014
:100F60007F32C2BFD2F1FF0340EAC250704740F463
:100F700000004FF00003013A37E792F0000F00F055
:100F8000004C02BF400010F4000F013AF9D040EAD3
:100F90000C0093F0000F01F0004C02BF490011F467
:100FA000000F013BF9D041EA0C0195E70CEAD1535F
:100FB00092EA0C0F08D142027FF47DAF93EA0C0F46
:100FC0007FF470AF084676E793EA0C0F04D14B022A
:100FD0003FF44CAF08466EE730F0004C18BF31F0DC
:100FE000004CCAD130F000427FF45CAF31F00043D6
:100FF0007FF43CAF5FE700BF4FF0FF3C06E000BF6F
:101000004FF0010C02E000BF4FF0010C4DF804CD91
:101010004FEA40024FEA41037FEA226C18BF7FEAA1
:10102000236C11D001B052EA530C18BF90EA010FA3
:1010300058BFB2EB030088BFC81738BF6FEAE17032
:1010400018BF40F0010070477FEA226C02D15FEACE
:10105000402C05D17FEA236CE4D15FEA412CE1D03A
:101060005DF8040B704700BF844608466146FFE701
:101070000FB5FFF7C9FF002848BF10F1000F0FBDE3
:101080004DF808EDFFF7F4FF0CBF012000205DF8DC
:1010900008FB00BF4DF808EDFFF7EAFF34BF012061
:1010A00000205DF808FB00BF4DF808EDFFF7E0FFFA
:1010B00094BF012000205DF808FB00BF4DF808ED4B
:1010C000FFF7D2FF94BF012000205DF808FB00BFAE
:1010D0004DF808EDFFF7C8FF34BF012000205DF890
:1010E00008FB00BF4FEA4002B2F1FE4F0FD34FF0B2
:1010F0009E03B3EB12620DD94FEA002343F0004385
:1011000010F0004F23FA02F018BF404270474FF032
:101110000000704712F1610F01D1420205D110F0B9
:10112000004008BF6FF0004070474FF0000070476C
:1011300042000ED2B2F1FE4F0BD34FF09E03B3EB41
:10114000126209D44FEA002343F0004323FA02F06D
:1011500070474FF00000704712F1610F01D1420259
:1011600002D14FF0FF3070474FF00000704700BFD2
:101170000348044B834202D0034B03B11847704726
:101180001002002010020020000000000548064B5D
:101190001B1AD90F01EBA301491002D0034B03B175
:1011A00018477047100200201002002000000000C5
:1011B00010B5064C237843B9FFF7DAFF044B13B19F
:1011C0000448AFF300800123237010BD10020020FB
:1011D0000000000078B9000808B5054B1BB10549AF
:1011E0000548AFF30080BDE80840FFF7CFBF00BF60
:1011F000000000001402002078B9000870470000C9
:1012000038B50E4B05461A784FF47A73B3FBF2F3F8
:101210000B4A1068B0FBF3F000F09CF8044658B994
:101220000F2D09D8024629464FF0FF3000F054F840
:101230002046044B1D6038BD0120FCE70000002063
:101240000C02002004000020074A08B513680320A0
:1012500043F01003136000F02DF80F20FFF7D0FFCC
:10126000FFF7CCFF002008BD00200240034A044BDA
:1012700011681B780B441360704700BF2C020020DC
:1012800000000020014B1868704700BF2C020020AE
:1012900038B50446FFF7F6FF0546631C1EBF044B36
:1012A0001B78E418FFF7EEFF431BA342FAD338BDC7
:1012B0000000002007490302CA6803F4E06322F437
:1012C000E0621204120C134343F0BF6343F4003393
:1012D000CB60704700ED00E0154B30B5DC68C4F31F
:1012E0000224C4F10703251D042B28BF0423062D67
:1012F0004FF0FF3594BF0024033C05FA03F321EAC5
:101300000303A54022EA0502A340002843EA0203A2
:10131000ACBF00F16040074A4FEA0313DBB2ABBF3A
:1013200000F5614000F00F0080F80033135430BD29
:1013300000ED00E014ED00E0002807DB0123410987
:10134000034A00F01F00834042F82130704700BF7D
:1013500000E100E00138B0F1807F0BD24FF0E023D4
:10136000F021054A586182F8231000200722986175
:101370001A6170470120704700ED00E02DE9F74F3A
:1013800000244FF00F0E2646DFF884C1614B00F1B8
:1013900004080A6832FA06F502D103B0BDE8F08FFE
:1013A000012505FA06F702EA070537EA020276D1B7
:1013B0004A68032A07D8013A022A00F28380DFE84C
:1013C00002F091969C00122A00F0948069D8112AAC
:1013D00000F08A80FF2D94BF8146C1464FEA860205
:1013E000D9F8007088BF203A0EFA02FA27EA0A07F5
:1013F00004FA02F21743C9F80070D1F8049019F00A
:10140000805F4CD0DCF8182026F0030742F0010280
:10141000CCF81820DCF8182007F1804702F0010210
:10142000019207F5803706F0030A019A4FEA8A0A0B
:10143000BA680EFA0AFB22EA0B0B374A904260D0D8
:1014400002F5806290425ED002F5806290425CD0EC
:1014500002F58062904214BF0422032202FA0AF2CB
:1014600042EA0B02BA609A6819F4801F14BF2A433B
:10147000AA439A60DA6819F4001F14BF2A43AA43EA
:10148000DA605A6819F4003F14BF2A43AA435A602D
:101490001A6819F4803F14BF2A43AA431A60013620
:1014A00077E7DFF878904A450CD014D8A9F5801971
:1014B0004A4507D009F570294A4503D0A9F5801996
:1014C0004A4587D18A68D2B1012A4FF008040CBF7F
:1014D000076147617EE7DFF848904A45F2D009F599
:1014E0008039EDE7CC6875E7CC68043472E7CC68E6
:1014F00008346FE7CC680C346CE700246AE70424F6
:1015000068E70022AAE70122A8E70222A6E700BFB7
:1015100000100240000401400008014000002210B9
:101520000000311080680840003818BF0120704763
:101530000AB1016170470904FBE7C36801EA0302CD
:1015400021EA030141EA0241016170472DE9F341BB
:10155000054638B30368DB0710D42B689F075ED4B9
:101560002B68190700F195802B685A0700F1C1809C
:10157000EB69002B40F02C81002029E0904C63683F
:1015800003F00C03042B07D0636803F00C03082B53
:101590000AD16368DE0307D523689C03DDD56B6839
:1015A000002BDAD1012013E06B68B3F5803F12D134
:1015B000236843F480332360FFF764FE0646236804
:1015C0009803CAD4FFF75EFE801B6428F7D9032076
:1015D00002B0BDE8F0819BB9236823F48033236017
:1015E000236823F480232360FFF74CFE064623681C
:1015F0009903B2D5FFF746FE801B6428F7D9E6E7CA
:10160000B3F5A02F236803D143F480232360CFE7F1
:1016100023F480332360236823F48023CBE7684CD2
:10162000636813F00C0F07D0636803F00C03082BFA
:1016300010D16368DA030DD423689B0702D52B69A8
:10164000012BAFD123686A6923F0F80343EAC20390
:10165000236085E72A695B4B6AB101221A60FFF7B4
:1016600011FE064623689F07ECD4FFF70BFE801B94
:101670000228F7D9ABE71A60FFF704FE0646236895
:1016800098077FF56DAFFFF7FDFD801B0228F6D9A7
:101690009DE7AA694A4E4B4BE2B10122C3F8802470
:1016A000FFF7F0FD0446736A9B070DD54FF4FA521D
:1016B000454B1B68B3FBF2F3019300BF019B5A1E1D
:1016C0000192002BF9D14FE7FFF7DCFD001B022848
:1016D000E9D97CE7C3F88024FFF7D4FD0446736A98
:1016E0009F077FF541AFFFF7CDFD001B0228F6D91C
:1016F0006DE7334CE369D80024D40127E36943F054
:101700008053E361E36903F080530093009B2F4E05
:101710003368D90518D5EB68012B26D1236A43F02D
:1017200001032362FFF7AEFD41F288380646236AC3
:101730009B073FD5002F3FF41BAFE36923F0805395
:10174000E36115E70027E2E7336843F48073336011
:10175000FFF798FD80463368DA05DCD4FFF792FD89
:10176000A0EB08006428F6D931E7ABB9236A41F24F
:10177000883823F001032362236A23F004032362E1
:10178000FFF780FD0646236A9807D3D5FFF77AFD59
:10179000801B4045F7D91AE7052B236A03D143F094
:1017A00004032362BAE723F001032362236A23F0D0
:1017B0000403B6E7FFF766FD801B4045B7D906E78F
:1017C00000100240000042420C0200200070004065
:1017D0002A4C626802F00C02082A3ED00022022B3A
:1017E000274B1A662CD1FFF74DFD06462368990159
:1017F00020D42B6AB3F5803F05D16268A96822F432
:1018000000320A436260696A62680B4322F4741210
:101810001343012263601A4B1A66FFF733FD054636
:1018200023689A013FF5A8AEFFF72CFD401B022864
:10183000F6D9CCE6FFF726FD801B0228D6D9C6E6EE
:10184000FFF720FD054623689B017FF595AEFFF766
:1018500019FD401B0228F6D9B9E6012B3FF4A2AED0
:1018600060682B6A00F480329A427FF49BAE6B6A08
:1018700000F47010C01A18BF0120A9E60010024041
:10188000000042420D4A536803F00C01082912D1AE
:101890000B48C3F38341DB03405C09D55368094A15
:1018A000C3F340435043084AD35CB0FBF3F07047A6
:1018B000064B584370470348704700BF0010024072
:1018C0009EB9000800127A009CB9000800093D008A
:1018D0002DE9F0410D46044610B90120BDE8F08124
:1018E000444A136803F007038B4228D321688E070C
:1018F00030D4CA0743D43F4A136803F00703AB420E
:1019000065D822683C4D12F0040F6CD1130706D540
:101910006B68226923F4605343EAC2036B60FFF7EC
:10192000B1FF6B68354AC3F30313D35CD840344B23
:101930001860344B1868FFF763FC0020CEE713688B
:1019400023F007030B431360136803F007038B4274
:10195000C3D1CBE7284B11F0040F1EBF5A6842F4E5
:10196000E0625A60080742BF5A6842F460525A6007
:101970005A68A06822F0F00202435A60B9E7626830
:101980001D4E012A33681AD113F4003FA5D07368A5
:1019900041F2883823F0030313437360FFF772FCAE
:1019A00007467368626803F00C03B3EB820FA2D0A2
:1019B000FFF768FCC01B4045F3D903208EE7022ADD
:1019C00002D113F0007FE1E713F0020FDEE71368A6
:1019D00023F007032B431360136803F00703AB42A4
:1019E0007FF47BAF8DE76B68E16823F4E0630B4322
:1019F0006B608BE70020024000100240A0DF00086F
:101A00000C02002004000020044B054A5B68C3F36D
:101A10000223D35C034A1068D8407047001002408C
:101A200098DF00080C020020044B054A5B68C3F3F2
:101A3000C223D35C034A1068D840704700100240AC
:101A400098DF00080C020020036A026A70B522F0D9
:101A500001020262446882690D6822F073022A431F
:101A60008D6823F002032B430A4DA8420BD1CD68A9
:101A700023F008032B4324F44074D1E90556354381
:101A800023F004032C43446082614A68426303628A
:101A900070BD00BF002C0140036A026A70B522F4D9
:101AA000807202624468C2690D6822F073022A43A0
:101AB0008D6823F4007343EA05230B4DA8420DD132
:101AC000CD6823F4006343EA052324F44054D1E9AC
:101AD0000556354323F4806344EA05144460C2612B
:101AE0004A68C263036270BD002C0140036A026A47
:101AF00030B522F4805202624468C2690D6822F453
:101B0000E64242EA05228D6823F4005343EA053396
:101B1000064DA84202BF4D6924F4804444EA85146E
:101B20004460C2614A680264036230BD002C014017
:101B30007047000090F83D30012B1CD102230F4A62
:101B400080F83D30036893420AD0B3F1804F07D04C
:101B5000A2F59432934203D002F58062934204D1FD
:101B60009A6802F00702062A03D01A6842F00102BE
:101B70001A60002070470120704700BF002C014010
:101B800070470000174A036890420AD0B0F1804FB6
:101B900007D0A2F59432904203D002F580629042C1
:101BA00007D14A6823F070031343CA6823F44073D3
:101BB00013434A6923F08003134303608B68C362B5
:101BC0000B688362074B984204BF0B6903630123D0
:101BD00043610369DB0742BF036923F0010303612B
:101BE000704700BF002C014010B5044630B390F898
:101BF0003D3003F0FF021BB980F83C20FFF798FF4F
:101C00000223206884F83D30211DFFF7BBFF01232C
:101C1000002084F8463084F83E3084F83F3084F861
:101C2000403084F8413084F8423084F8433084F8FE
:101C3000443084F8453084F83D3010BD0120FCE785
:101C400010B5044630B390F83D3003F0FF021BB9E5
:101C500080F83C20FFF794FF0223206884F83D3091
:101C6000211DFFF78FFF0123002084F8463084F800
:101C70003E3084F83F3084F8403084F8413084F8B6
:101C8000423084F8433084F8443084F8453084F896
:101C90003D3010BD0120FCE7036A026A70B522F0F6
:101CA00010020262446882690D6822F4E64242EA48
:101CB00005228D6823F0200343EA05130B4DA8424B
:101CC0000DD1CD6823F0800343EA051324F440646A
:101CD000D1E90556354323F0400344EA85044460C6
:101CE00082614A688263036270BD00BF002C0140BC
:101CF00038B590F83C300446012B4FD00120082A1B
:101D000084F83C003AD006D8BAB1042A26D0002381
:101D100084F83C3038BD0C2AF9D12068FFF7E6FE84
:101D2000C3690A6943F40063C361C36923F4806330
:101D3000C361C36943EA02232EE02068FFF784FEF3
:101D400083690A6943F008038361836923F004030C
:101D500083618369134383610020D8E72068FFF71C
:101D60009BFF83690A6943F400638361836923F4F9
:101D700080638361836943EA0223ECE72068FFF70D
:101D80008BFEC3690A6943F00803C361C36923F08A
:101D90000403C361C3691343C361DDE70220B9E7EC
:101DA00010B50124036A01F01F018C4023EA0403EB
:101DB0000362036A8A401A43026210BD08B529B95A
:101DC00090F83E30012B1DD001202EE0042907D1D0
:101DD00090F83F30012BF7D1022380F83F3014E018
:101DE000082907D190F84030012BEDD1022380F86B
:101DF00040300AE090F84130012BE5D1022380F811
:101E0000413002E0022380F83E3000680122FFF7F3
:101E1000C7FF0F4B984209D0B0F1804F0BD18368B8
:101E200003F00703062B0DD1002008BD436C43F4DB
:101E300000434364F3E7074B9842F0D003F5806317
:101E40009842ECD0036843F001030360ECE700BF65
:101E5000002C014000040040FFF7B0BF026802F10F
:101E60000C0353E8003F23F490730C3242E8003136
:101E700002680029F2D102F1140353E8003F23F075
:101E8000010302F1140C4CE800310029F3D1036B7B
:101E9000012B0BD102F10C0353E8003F23F0100398
:101EA00002F10C0C4CE800310029F3D1202380F81A
:101EB000423000230363704710B504460368C168CD
:101EC0001A6922F440520A431A6182680069D9688B
:101ED0000243606921F4B05121F00C0102430A432E
:101EE000DA605A69A16922F440720A435A610E4AC3
:101EF000934215D1FFF798FD192343436268206888
:101F00009200B3FBF2F36422B3FBF2F102FB113354
:101F10001B013233B3FBF2F303EB0113836010BDFB
:101F2000FFF772FDE8E700BF00380140F7B505464E
:101F30000C4617461E462A68136834EA030301D18B
:101F4000002021E0701CF7D0FFF79CF9C01B8642EF
:101F50001CD3DEB12B68DA685107ECD5802CEAD0AF
:101F6000402CE8D01A681207E5D5002401941A68BD
:101F7000284601925B680193019BFFF76FFF0823DE
:101F800001206B6485F8404003B0F0BD0320FBE7FF
:101F9000704710B5044648B390F8413003F0FF0293
:101FA0001BB980F84020FFF7F3FF2423226884F850
:101FB0004130D368204623F40053D360FFF77CFF01
:101FC000236800201A6922F490421A615A6922F0AB
:101FD0002A025A61DA6842F40052DA60202360640F
:101FE00084F8413084F84230606310BD0120FCE782
:101FF0002DE9F843984690F841300446202B0E46D0
:1020000017463FD100293FD0002A3DD0212300258B
:10201000456480F84130FFF735F9A3688146B3F590
:10202000805FA784E78403D123690BB935461E4638
:10203000E38C9BB253B943464A4640212046FFF702
:1020400075FF202350B984F841300AE043464A46E0
:1020500080212046FFF76AFF28B12023032084F85F
:102060004130BDE8F88322684EB935F8023BC3F32E
:1020700008035360E18C013989B2E184D8E716F88E
:10208000013BF6E70220ECE70120EAE7064B18885F
:10209000064B80B21B889BB2984238BF00F5007097
:1020A000C01A80B2704700BF100300200E0300204A
:1020B00008B52B4805F03EFB2A4805F03BFB2A48B3
:1020C00005F038FB294805F035FB294805F032FBBF
:1020D000284805F02FFB284805F02CFB274805F081
:1020E00029FB274805F026FB204805F023FB25485F
:1020F00005F020FB244805F01DFB244805F01AFBE1
:10210000234805F017FB194805F014FB214805F09A
:1021100011FB214805F00EFB204805F00BFB204881
:1021200005F008FB114805F005FB1E4805F002FB11
:102130001D4805F0FFFA1D4805F0FCFA1C4805F0A3
:10214000F9FA1C4805F0F6FA1B4805F0F3FA1B48AB
:1021500005F0F0FABDE80840014805F0EBBA00BF11
:10216000BCCD0008AEB9000836BA000872BA000843
:10217000FABA000830BB00086BBB0008A7BB000818
:10218000E2BB00081EBC000854BC000890BC00085C
:10219000CFBC000809BD000840BD00087BBD000899
:1021A000B5BD0008E8BD00081EBE000859BE000805
:1021B00095BE0008D2BE00080EBF00084ABF000846
:1021C0002DE9F0434D4B85B0986CFEF771FD4C49FD
:1021D000FEF7C2FD4B49FEF773FE4B4B8046986CF1
:1021E000FEF766FD4649FEF7B7FD4649FEF768FE75
:1021F000464B04461868FEF75BFD4149FEF7ACFD0F
:102200004049FEF75DFE424B05461868FEF750FD5B
:102210003B49FEF7A1FD3B49FEF752FE3D4B06460A
:102220001B783D48033BDBB2042B96BF3B4A3C4F37
:1022300052F8237005F07EFA3A4805F07BFA3A48E6
:1022400005F078FA394805F075FA4046FEF7D6F8F9
:10225000804628468946FEF7D1F842464B46CDE9EE
:102260000001334805F0FEF92046FEF7C7F80446A2
:1022700030460D46FEF7C2F822462B46CDE9000156
:102280002C4805F0EFF92C4E2C4805F053FA39464E
:102290002B4805F0E7F93068FEF7B0F80446B0685F
:1022A0000D46FEF7ABF8CDE902017068FEF7A6F81F
:1022B000244E22462B46CDE90001234805F0D2F9F1
:1022C0003068FEF79BF80446B0680D46FEF796F8B6
:1022D000CDE902017068FEF791F82246CDE90001D0
:1022E0002B461A4805F0BEF9194805F023FA0A48AA
:1022F00005B0BDE8F04305F01DBA00BF8807002017
:102300000000B44300006145300700207405002040
:102310007005002040000020BCCD00083CDB000818
:10232000D2BF0008D6BF000834C0000868C000084B
:10233000C6C00008F5C000089C05002024C10008A4
:1023400082C1000878050020A0C10008CEC10008A5
:10235000FCC10008002310B503638364C3640364F5
:102360000446FEF78FFF0123A4F85430206510BD0A
:10237000002310B5C36003610446FEF783FFE061EC
:1023800010BD000030B5044685B0264804F0B1F910
:1023900010B1244804F016F9234804F0AAF910B14A
:1023A000214804F00FF92148FFF7D4FF2048FFF738
:1023B000D1FF00231D4A1F4982F855301C4A82F87C
:1023C000553000220A601C490A601C4A13741C4ADA
:1023D00013741C4A13701C4A13701C4A13601C4A65
:1023E00013601C4A1370FEF74DFF1B4A1368C31A93
:1023F000B3F57A7F13D9194B106019491A68194837
:10240000194B1A4D1B68098800882D7809B200B253
:10241000CDE9010500911648214605F023F905B0E4
:1024200030BD00BF880700203007002030060020A4
:10243000CC050020FC020020F80200202000002033
:102440000C000020EC020020D8060020B40600207A
:10245000B0060020B906002038020020A4060020A3
:10246000C6060020C4060020A8060020C2060020E0
:102470005DC200082DE9F04F82EAE274A4EBE27439
:10248000A4B2B4F5C87F88BF002493B09B469DF8E2
:1024900070300C920F931D9B88BF0C940E931E9B63
:1024A00082460A93209B0E460D93219BBDF97C70BA
:1024B0001093AC4B1A78022A03D01B78032B40F000
:1024C0003681002386F855300123A749A74A0B938C
:1024D000A74B8A4508BF1A46A742099203DB0B9B0C
:1024E000002B00F0BE810C98FEF7E2FB9BF8102059
:1024F00081464FF07E58002A40F050810123CBF8EE
:102500000000CBF804808BF81030FEF7BBFE0546C8
:10251000306D281AFEF7C8FB9649FEF7D1FC9649A4
:102520000446FEF7B7FD002840F063814FF07E516E
:102530002046FEF7CDFD08B14FF07E543168356579
:102540004846FEF709FC0546B16C4846FEF7FAFA24
:102550002146FEF7B5FCB168C6F84890FEF7FCFBD3
:102560002946FEF7F1FA346E05462146FEF7B0FD26
:1025700000B12546F46D28462146FEF78BFD00B1DB
:1025800025464FF07E512846FEF7A2FD002840F078
:10259000328128467949FEF77DFD00B1774D0F9BCA
:1025A0000BB105F100453846FEF782FB746807461B
:1025B0002146FEF783FD28B14FF07E513846FEF7E5
:1025C000C3FA04460B9B03B16D4C00214846FEF74D
:1025D0007FFD002840F0128109F100403946FEF7E6
:1025E000B1FA394680462046FEF7ACFA014640462D
:1025F000FEF766FC00218046FEF74CFD002840F007
:10260000FF804FF07E514046FEF762FD08B14FF06B
:102610007E5800212846FEF751FD002840F0F38047
:1026200005F1004421464046FEF734FD002800F045
:10263000EC8040461099FEF78FFB00210446FEF720
:1026400029FD00B1002400212846FEF737FD08B916
:1026500004F100440B9B002B00F0F680494B1B78E3
:10266000002B00F0D480484D00212046FEF726FDC7
:10267000002840F0CE80284604F10041FEF728FDF6
:10268000002840F0D880099B00211D682846FEF7ED
:10269000F7FC68B928463D49FEF75EFB3C49054614
:1026A0002046FEF759FB01462846FEF74DFA044640
:1026B000099B002120461C60FEF700FD002840F029
:1026C000E88004F10047504604F015F80021054663
:1026D0002046FEF7F3FC002800F0DD80681C0D9B0F
:1026E000984203DC5B42834240F3D780504604F0BB
:1026F00000F810B1504603F065FF3046FFF72AFEA0
:1027000000238BF8103000230A9A1360099A136093
:10271000204B1A78002A40F0218101221E481A70AD
:10272000DDE90D2113B0BDE8F04F04F09BBF91F837
:1027300055300BB90023C8E63B1D1BB2A3420ADB90
:1027400003F0D7FF002800F00981504613B0BDE820
:10275000F04F03F037BF0023084681F85530FFF7EC
:10276000F9FDE7E7BA06002088070020F002002004
:10277000F402002000007A446F12833A000080BF08
:1027800000247449C10600203E0A573E9A99193F19
:10279000CDCCCC3E32020020B0C20008DBF80810DD
:1027A000DBF80400FEF7D0F9DBF80C100446FEF766
:1027B000CBF901462046FEF783FB0546DBF80020F7
:1027C000484611461192FEF7BDF92946FEF7C4FAB4
:1027D000119A1146FEF7B8F92946CBF80000814658
:1027E0004046FEF7AFF92146FEF7B6FACBF80400F3
:1027F0008BE66D4CA2E64FF07E55D0E64846EDE6FE
:102800004FF0000805E72C460CE7204612E7674D1D
:102810002AE729462046FEF73DFC00283FF433AF67
:1028200000212046FEF754FC58B9099B0021186886
:10283000FEF744FC28B95E492846FEF78DFA0446A7
:1028400021E74FF07E51F7E700212046FEF736FCE6
:10285000E8B904F100405749FEF71CFC00283FF49A
:1028600012AF504603F045FF10B1504603F0AAFEE8
:102870003046FFF76FFD00238BF8103000230A9AD3
:102880001360099A1360012386F8553066E02046EC
:10289000E1E7274617E7681E21E70A9B46493846C5
:1028A0001D68FEF759FAFEF743FC44F62063181A38
:1028B000984228BF1846B0F5487F38BF4FF448709B
:1028C000FEF7F2F9002106462846FEF7D9FB78B953
:1028D0004FF07C512846FEF73FFA4FF07C510546F9
:1028E0003046FEF739FA01462846FEF72DF906462E
:1028F0000A9B4FF07C511E603046FEF725F9FEF72B
:1029000017FC44F62063984228BF18460021B0F512
:10291000487F8346204638BF4FF4487BFEF7CEFB06
:10292000B0FA80F15046490903F006FD504603F025
:10293000E0FE012802D0504603F05CFD59465046A7
:1029400003F02EFD1D4A1E49BAEB020218BF0122F8
:102950008B5C0133DBB2042B03D88B5413B0BDE87E
:10296000F08F002348468B54FDF748FD0446384657
:102970000D46FDF743FD064640460F46FDF73EFD7A
:1029800080465046894603F0B6FECDE90489CDE97C
:1029900006B0CDE90267CDE900450C9A0E990948C9
:1029A00004F060FEDAE700BF6F12833A9A99193F8C
:1029B000000080BF8FC2753C00009646880700204B
:1029C00030020020DEC20008F0B51E4E3368DB681E
:1029D0009B0436D572B61C4D1C4B1D4F01442A88F2
:1029E0001C880132A4B2C2F30802A24208BF1C88AC
:1029F00010F801CB02BF0134C4F308041C802C88FA
:102A00008842A4B207F804C02A80E8D162B611480F
:102A10000278B2B929881A8889B292B2914210D04C
:102A2000012202701A8892B2B95C1A88C9B20132C6
:102A3000C2F308021A8033685960DA6842F08002F3
:102A4000DA60F0BD28080020100300200E030020EB
:102A5000120300200D0300200FB407B504AB53F898
:102A6000042B80210648019304F064FF011E02DD5F
:102A70000348FFF7A9FF03B05DF804EB04B070470B
:102A8000580200200021F0B5934B944D1A78944BD6
:102A9000D2B289B0995418781C46A0F10A02D2B279
:102AA000162A194603F1010362D825FA02F2D20769
:102AB000F1D48C4A601E133110F8013F0BB18842EB
:102AC0005AD1002388498948137005F088F8257881
:102AD000782D7DD059D8592D00F0A5805A2D58D089
:102AE000582D75D003222046814904F0DBFF38B110
:102AF000032220467F4904F0D5FF002840F0D18012
:102B000000238DF8173006930023079307AB00933B
:102B1000794906AB0DF11702E01C04F06BFE0328A7
:102B200040F0BA809DF81730744943F02003742BAD
:102B300006A807BF724C734D734C744DFDF7E8FA4D
:102B4000002840F09780079B23600622704B1A7084
:102B5000FEF798FB6F4B963018600798FDF74EFC18
:102B6000CDE9000129466C4806AAFFF775FF01E090
:102B700000289ED109B0F0BDA3F16105192D9CBFBD
:102B8000203BDBB202F8013B96E7792D4BD07A2D42
:102B9000A8D1624803F08CFC614803F089FC002353
:102BA000604A59481360604A1360FFF7E1FB5448DC
:102BB000FFF7DEFB0622564B1A70FEF763FB554B00
:102BC00096301860594809B0BDE8F040FFF744BF9F
:102BD0000023574907AA601C079304F00BFE012845
:102BE0001DD154490798FEF7B7F85349FEF768F925
:102BF000FEF778FA0622464B4A4C1A702060FEF720
:102C000041FB444B963018600798FDF7F7FB0B46E5
:102C10002168024649480091FFF71EFFAAE748488D
:102C2000FFF71AFFA6E70023414907AA601C079394
:102C300004F0E0FD01281BD13E490798FEF78CF80F
:102C40003D49FEF73DF9FEF74DFA0622304B364C72
:102C50001A702060FEF716FB2E4B9630186007980E
:102C6000FDF7CCFB0B462168024600913548D3E7BF
:102C70003548D5E7354906A8FDF74AFA10B9079B4C
:102C8000636062E7324906A8FDF742FA002840F087
:102C9000C583079BA36058E72E48FFF7DDFE2E484B
:102CA000BEE705F0DF034B2B09D10522184B1A7044
:102CB000FEF7E8FA174B96301860284883E74D2B4B
:102CC00050D10622124B1A70FEF7DCFA114B9630E7
:102CD0001860234877E700BF030700200900400081
:102CE000040700202605002044C300081205002028
:102CF00011C4000815C4000819C4000824C4000841
:102D0000780500201FC300089C05002024C300088C
:102D100040000020DC06002056C400088807002080
:102D2000300700207405002070050020E6C300086D
:102D300021C40008000061450000B44347C30008F7
:102D40006AC3000896C30008BAC3000827C4000875
:102D50002AC4000879C40008A4C40008BCC4000840
:102D6000E5C40008082220469A4904F09BFE30B1D1
:102D700008222046984904F095FE002834D100230B
:102D800096498DF81830079306AA07AB04F108009E
:102D900004F030FD022821D19DF8183043F02003C3
:102DA000702B15D18E4B079A1A60FEF76BFA8D4B7C
:102DB000963018609DF818308B488C4943F02003FA
:102DC000702B18BF0146079A8948FFF745FED1E6E8
:102DD000742B01D1874BE6E7874821E7854B87486D
:102DE0001A687F4B1968F0E705222046844904F0F1
:102DF00059FE30B105222046824904F053FE0028D6
:102E000044D14FF49673804907AA601D079304F0DC
:102E1000F1FC079D7D4BB5F5006FA8BF4FF4006531
:102E2000322DB8BF32259A6C794B7A4C9B6C511B72
:102E3000581B2B44C4E90531E36100232A44C4E94B
:102E4000022022610122744E21603370734B606056
:102E50001A70FEF717FA0722714B1860714B72480F
:102E60001A702268714B1A606268714B1A60FFF722
:102E70007FFA7048FFF77CFA294632786E4804F0F2
:102E8000F1FB07996D48FFF7E7FD73E60422204642
:102E90006B4904F007FE28B104222046694904F07A
:102EA00001FE68B900225D4B58481A7003F08AFB96
:102EB000574803F087FB06225A4B63481A7082E694
:102EC00004222046614904F0EDFD28B10422204689
:102ED0005F4904F0E7FD20B909B0BDE8F040FFF715
:102EE000E7B8062220465B4904F0DCFD28B1062243
:102EF0002046594904F0D6FD20B909B0BDE8F0409C
:102F0000FFF75EB904222046544904F0CBFD28B1F6
:102F100004222046524904F0C5FD70B90023434AFB
:102F20001360434A136006223E4B1A70FEF7AAF95B
:102F30002C4B963018604B4845E6042220464A49FF
:102F400004F0B0FD28B104222046484904F0AAFD4F
:102F500048BB043425462B780134202BFAD00222BA
:102F60002846434904F09EFD28B1022228464149E3
:102F700004F098FD20B901223F4B40481A7022E628
:102F8000032228463E4904F08DFD28B1032228463D
:102F90003C4904F087FD20B90022374B3A481A70AB
:102FA00011E63A480FE61F4E3378052B7ED1542D9B
:102FB00074D8402D0AD82B2D01D02D2D76D134492F
:102FC000344809B0BDE8F040FFF746BD413D324B03
:102FD000EDB268E008C5000811C500081AC5000870
:102FE000C8050020DC0600201FC3000824C3000819
:102FF0003CC50008C405002021C5000859C50008CB
:1030000077C500087DC500081EC500088807002098
:1030100030070020440500206405002065050020DD
:1030200040050020400000209C0500207405002081
:10303000700500207805002083C50008B7C500088A
:10304000DAC50008DFC50008E4C50008F2C50008BD
:10305000F7C50008FCC5000803C600080AC600083A
:103060000FC6000814C6000833C6000838C600089A
:103070003DC6000840C600080403002043C60008FF
:1030800066C600086AC600086EC6000885C6000845
:1030900004070020A7C60008AD800C00613DEDB21A
:1030A000162D03D8974BEB40DB0788D403233370EE
:1030B000FEF7E8F8944B9630186000224FF4005168
:1030C0009248FEF735FA92499248FFF7C5FC2578F9
:1030D000A5F13F03362B00F2A781DFE813F0E400EF
:1030E000A5019400A5018800A800A5017A00E700C9
:1030F0008100C100A501A501A501A501A501A501AA
:103100003C00A501A501A0007500CD00A501A50109
:10311000A501A501A501A501A501A501A501A5017F
:10312000A5019400A5018800A800A5017A00E70088
:103130008100B500A501A501A501A501A501A50175
:103140003700A501A501A0007500CD00724B734AA0
:1031500073481A6037E5734C2068FDF74FF906464F
:10316000A0680F46FDF74AF9CDE902016068FDF756
:1031700045F932463B46CDE900016B48FFF76CFC50
:103180006A4B6B4C1A7803216A48FFF765FC20688C
:10319000FDF734F90646A0680F46FDF72FF9CDE993
:1031A00002016068FDF72AF93246CDE900013B468D
:1031B0006148FFF751FC0421604B5E481A7809B062
:1031C000BDE8F040FFF748BC534B5D4A5D481A60CC
:1031D000F9E4514B0021186803F0A6F85A48F2E4CC
:1031E0004D4B0121186803F09FF85848EBE44A4C16
:1031F0000021206803F0A0F8206803F0FBF82168A4
:1032000053482031DDE6444C0121206803F094F856
:10321000206803F0EFF821684E482031D1E63E4C9B
:10322000206803F0CFF921684B482031C9E63B48BC
:1032300003F0E0F8424803F0DDF804230022337085
:10324000464B47481A60BEE4384A4648137883F034
:10325000010111704449454A012B08BF1146B0E6EF
:10326000364A4348137883F0010111703E493F4AC2
:10327000012B08BF1146A4E63E4B1A788AB1002400
:103280001C703D4B27481C70FFF764F82848FFF777
:1032900061F8244B394883F85540254B83F8554055
:1032A00091E437488FE4FEF703FF26E6002300266B
:1032B0008DF81730069307AB0093324906AB0DF13A
:1032C0001702601C079604F095FA032840F0A980C5
:1032D0009DF81750134C164B45F020052A4906A8B7
:1032E000742D08BF1C46FCF713FF002867D1079F09
:1032F000264E38463146FDF7CDFE002848D00796C9
:103300004DE000BFAD804E00DC0600200010014003
:1033100004070020CDC600083800002088070020E0
:10332000D6C6000830060020FCC6000808000020B1
:10333000CC05002021C700083AC700083A05002044
:10334000300700205FC7000886C70008A6C700082E
:10335000C3C70008DFC70008FCC700082C0700200F
:103360000DC800082CC8000828C3000837C300088F
:1033700047C80008D8060020D906002063C8000806
:103380008BC800081AC4000824C400086F12833ACE
:10339000584E38463146FDF79BFE0028AFD10798BE
:1033A0002060554B554C742D08BF1C46FDF726F880
:1033B00006AACDE9000121465148FFF7D6BB514985
:1033C00006A8FCF7A5FE90B9079F4F4E3846314638
:1033D000FDF760FE08B1079606E04C4E38463146D0
:1033E000FDF776FE0028F6D107986060D9E74849D6
:1033F00006A8FCF78DFE88B9079F31463846FDF7D1
:1034000049FE08B1079606E0424E38463146FDF7C0
:103410005FFE0028F6D10798A060C2E73E4806A9E3
:1034200031E53E48FFF7FCBB601C03F066F9562D02
:1034300006464CD010D82D2D2FD0522D12D02B2D2A
:103440001DD021783648FFF707FB3649364809B0CA
:10345000BDE8F04004F0C3BB762D38D0772D2AD0DC
:10346000722DEED13046FDF723FC304C014620682A
:1034700003F03EF8216832462D4820319FE62B4D5F
:103480000021286802F058FF3146286803F022F82E
:10349000296832462748203191E6244D01212868C9
:1034A00002F04AFF3146286803F014F829683246D2
:1034B0002148203183E61D4D0146286803F056F867
:1034C000296806EBD6761D487210203177E644F65F
:1034D00020639E4228BF1E46B6F5487F38BF4FF492
:1034E0004876124B3146186802F038FF31461448CE
:1034F00067E500BFCDCC4C3D1FC3000824C30008C6
:10350000A5C8000827C40008000020410000164399
:103510002AC400080AD7233C2DC40008D9C80008D3
:103520008DC90008C1C9000812050020380000201C
:1035300034C9000802C900081BC900084BC90008AB
:1035400064C900081FB503460D480268D26892049A
:1035500013D58DF8063000238DF807304FF08073B7
:1035600043F63C4202930123ADF804208DF80C3061
:103570000922142301A9FEF73BFD05B05DF804FB09
:10358000E0070020F0B5394BAFB01B78002B6AD0B4
:10359000FDF778FE364C2368C01A632863D9FDF71F
:1035A00071FE344B20609C6C334B9E6C334B1D681A
:1035B000334B1F68334B1868FCF720FFCDE90E0131
:1035C000B81BFDF775FBFCF719FFCDE90C01384678
:1035D000FDF76EFB2C49FDF7BFFB2C49FDF770FC96
:1035E000FCF70CFFCDE90A013046FDF761FB2649E7
:1035F000FDF7B2FB2549FDF763FCFCF7FFFECDE9C3
:103600000801234B1868FCF7F9FECDE90601281BD9
:10361000FDF74EFBFCF7F2FECDE904012846FDF76D
:1036200047FB1949FDF798FB1849FDF749FCFCF7E2
:10363000E5FECDE902012046FDF73AFB1249FDF710
:103640008BFB1249FDF73CFCFCF7D8FE114ACDE993
:103650000001782110A804F075F80A2382B210A99D
:103660000D48FEF7C5FC2FB0F0BD00BF04030020DD
:103670000003002088070020300700207405002088
:1036800070050020680500200000B443000061457B
:103690006C050020C5C900087008002030B504463C
:1036A000002002460A4D082115F8013B584043B25C
:1036B000002BBABF5B0083F007034300D8B24B1E58
:1036C00013F0FF01F3D10132D2B2A242EBD130BDEF
:1036D000CB0600202DE9F74F40F6B83B1E46836C21
:1036E0001446A2EB030A8AEAEA72A2EBEA725A458E
:1036F000884605460C9F0D99DFF8509240F3FD80F7
:10370000D9F80020002A40F0E180FDF7BBFDC9F8A0
:103710000000284602F0EDFF002840F00681214617
:10372000284602F087FEFDF7ADFD0446D8F81C00E0
:10373000201AFDF7B9FA8649FDF70EFB8449814648
:10374000FDF7A8FC002840F0F2804FF07E5148467B
:10375000FDF7BEFC08B14FF07E595046FDF7A8FAC0
:103760004946C8F81C408246FDF7F6FAD8F8101012
:10377000FDF7EAF977490446FDF7AAFC00B1754C5C
:1037800020467549FDF786FC00B1734CD8F80C1043
:103790005046C8F81040FDF7D5F94946FDF790FBB3
:1037A000D8F800108146C8F80CA05046FDF7D4FAAE
:1037B000D8F8041082462046FDF7CEFA014650465E
:1037C000FDF7C2F9D8F8081004464846FDF7C4FAD8
:1037D00001462046FDF7B8F9D8F818900446494646
:1037E000FDF776FC00B14C46D8F8148020464146DF
:1037F000FDF750FC00B144464FF07E512046FDF7E6
:1038000067FC002840F09A8020465449FDF742FCAE
:10381000002840F08F8000212046FDF759FC002849
:1038200000F0898039462046FDF796FA00210446CB
:10383000FDF730FC002840F086804FF07E51204696
:10384000FDF746FC00287CD04FF07E504449FDF740
:1038500083FAFDF76DFC44F62063181A984228BFDE
:103860001846B0F5487F38BF4FF44870FDF71CFA92
:103870003768044600213846FDF702FC68B938462F
:103880003849FDF769FA384907462046FDF764FADA
:1038900001463846FDF758F904464FF07C51204662
:1038A0003460FDF751F9FDF743FC44F6206398427C
:1038B000014628BF1946B1F5487F38BF4FF448711B
:1038C000284603B0BDE8F04F02F06ABD0191FDF754
:1038D000D9FCD9F80020801A58457FF61AAF234B3F
:1038E00001991A78002A7FF414AF012220481A7037
:1038F0000323524603F0B6FE0BE700231B4AC9F828
:10390000003013700AF10203042B3FF602AF02F0FD
:10391000F0FE10B1284602F055FE4046FEF728FDA5
:103920000023336003B0BDE8F08FEC64FBE6DFF802
:10393000209012E7094C04F1004473E74FF07E54E5
:1039400070E7204682E7002080E700BF3C050020AA
:103950006F12833A00409C4500409CC5000080BF28
:10396000000096463333333F9A99993E3B05002039
:10397000F3C90008234B73B51A682348234B1C680E
:10398000836CD31A042B35DC04330ADA0123204973
:103990000D789D4204D01F4D2D68002B2CD12A4458
:1039A0000B701D498B6CE31A042B27DC043309DAF6
:1039B00001231A4D2E789E4203D0194E3668FBB96A
:1039C00034442B70174BC264CC6401934FF07E5388
:1039D000154900930C48154BFFF77CFE144B22460B
:1039E0000193144B144900930B48144BFFF772FEDC
:1039F00002B070BD0023CAE7521BD1E70023D8E70D
:103A0000A41BDEE774050020880700207005002055
:103A1000C1050020C805002030070020C005002097
:103A2000C405002024C300089C0500206C0500206C
:103A30001FC300083333333F78050020680500209A
:103A400030B5002589B0284B07959A69012442F0CA
:103A500004029A619A6904A902F004020092009A91
:103A60009A69224842F008029A619A6902F00802B3
:103A70000192019A9A6942F010029A619A6902F0E1
:103A800010020292029A9A6942F001029A619B69BD
:103A9000174A03F001030393039B536823F0E06389
:103AA00043F00073536003230694CDE90435FDF71A
:103AB00065FC4FF4704304A90E48CDE90435069423
:103AC0004FF40055FDF75AFC022304A90A48079356
:103AD000CDE90454FDF752FC224629460648FDF77D
:103AE00027FD09B030BD00BF0010024000080140B2
:103AF00000000140000C01400010014030B50025DD
:103B000087B01B4B04959A6902A942F480429A61DE
:103B10009B694FF4007203F480430193019B0223DD
:103B2000CDE90223032313480593FDF727FC4FF447
:103B3000806302A90F48CDE902350495FDF71EFC0C
:103B40004FF4E1330C4C0D492046C4E900130C231B
:103B5000C4E90255C4E905352561E561FEF719FAA6
:103B60002268D36843F02003D36007B030BD00BFA4
:103B70000010024000080140700800200038014099
:103B800030B5002587B01A4B0495DA6902A942F4D2
:103B90000032DA61DB69042203F400330193019BF4
:103BA0000223CDE90223032312480593FDF7E6FB28
:103BB000082310480DEB0301CDE902350495FDF70C
:103BC000DDFB4FF416530C4C0C492046C4E900139E
:103BD0000C23C4E90255C4E905352561E561FEF70A
:103BE000D8F92268D36843F02003D36007B030BD12
:103BF0000010024000080140280800200044004056
:103C000030B5002587B01F4B0495DA6902A942F44C
:103C10008022DA61DA691C4802F480220092009A5C
:103C20009A691A4C42F008029A619B694FF48062CB
:103C300003F008030193019B0223CDE90223032330
:103C40000593FDF79BFB4FF4006302A90E48CDE9F5
:103C500002350495FDF792FB4FF4E1330C49204601
:103C6000C4E900130C23C4E90255C4E905352561F4
:103C7000E561FEF78EF92268D36843F02003D36034
:103C800007B030BD00100240000C0140E0070020EA
:103C900000480040174B37B5DA69174C42F0010273
:103CA000DA61DB694FF0804203F001030193019B6D
:103CB00047230025C4E9002341F63F73C4E90253BA
:103CC00080232046A3612561FDF78EFF22682046F0
:103CD000D36843F00103D360FDF72CFF2A4601218E
:103CE0001C20FDF7F9FA1C2003B0BDE83040FDF7B9
:103CF00023BB00BF001002409009002010B51E4BEE
:103D00008CB09A69002442F400629A619B694FF476
:103D1000006203F400630093009B0223CDE90123BA
:103D2000032301A9154804930394FDF727FB144AC4
:103D3000144B104613604723C2E9013444F61F6355
:103D4000C2E9033480239361FDF77AFF21461422F0
:103D500007A803F09FFE40F2DC5360210C22CDE95E
:103D60000513074805A9FDF7C3FF0C210448FEF71A
:103D700073F80CB010BD00BF0010024000080140F5
:103D800048090020002C014010B51D4B8CB0DA69A9
:103D9000002442F00202DA61DB6901A903F00203A8
:103DA0000093009B0223CDE90133032315480493BC
:103DB0000394FDF7E3FA144A144B104613604723AB
:103DC000C2E9013444F61F63C2E9033480239361DE
:103DD000FDF736FF2146142207A803F05BFE40F2F0
:103DE000DC53602205A9CDE9052307480C22FDF725
:103DF0007FFF0C210448FEF72FF80CB010BD00BF68
:103E000000100240000C01400009002000040040A6
:103E1000164B37B5DA69164C42F00402DA61DB69F9
:103E2000144A03F004030193019B47230025C4E9CE
:103E3000002341F63F73C4E9025380232046A36167
:103E40002561FDF7D1FE22682046D36843F00103C7
:103E5000D360FDF76FFE2A4601211E20FDF73CFAD4
:103E60001E2003B0BDE83040FDF766BA00100240E6
:103E7000B80800200008004010B514460A2392B28A
:103E80000248FEF7B5F8204610BD00BF70080020BC
:103E900000207047002070474FF0FF3070474FF010
:103EA000FF30704701207047074B1B681A69D10724
:103EB00008D5DA68D20705D56FF0010203481A6108
:103EC00002F08CBB704700BF9009002088070020DB
:103ED000074B1B681A69D10708D5DA68D20705D5E0
:103EE0006FF0010203481A6102F078BB704700BF0F
:103EF000B808002030070020144B82B01B681A68F5
:103F0000110706D5002201921A6801925A6801929F
:103F1000019A1A68920616D50D4A5B681178DBB2D1
:103F20001E2905D81078411CC9B2117009490B54DB
:103F30000A2B01D00D2B03D10122074B1A7002E08E
:103F400013781E2BF8D802B0704700BF700800200D
:103F5000030700200407002002070020324B13B59E
:103F60001B681A68100706D5002201921A68019290
:103F70005A680192019A1A68510742BF5A68D2B230
:103F80008DF801201A68920742BF5A68D2B28DF8A4
:103F900002201A68D40742BF5A68D2B28DF80320B3
:103FA0001A68100615D5DA68110612D51F4A20497D
:103FB00010880A8880B292B2904228D00A881D48A0
:103FC00092B2805C0A88C0B20132C2F308020A8051
:103FD00058601A68920625D501225C68164BE4B237
:103FE0001A70FDF74FF9154B1860154B1A781E2AF9
:103FF00005D819784A1CD2B21A70124A54540A2CA5
:1040000001D00D2C0BD101220F4B1A700AE00021B8
:104010000E4A1170DA6822F08002DA60D9E71B7864
:104020001E2BF0D802B010BD28080020100300207D
:104030000E030020120300200C03002008030020C0
:10404000E1060020E2060020E00600200D0300202B
:10405000724B73B51E6833689A061AD5704C756832
:104060002378EDB2062B00F29280DFE803F004091A
:104070003060636752003C2D0BD10123237008E0B0
:104080003B2D12D10023674A137002222270664A28
:10409000137033681B0706D500230193336801931F
:1040A00073680193019B02B070BD3A2D08D10122C3
:1040B0005C4B1A700223002223705B4B1A70E8E7F6
:1040C0003C2D64D10222574B1A700623F3E7554B5F
:1040D0001A78554B72B91A78052A06D81A78D1B2CF
:1040E0000132D2B21A70514A55541B78052BD0D9DF
:1040F0000423C3E71A780A2A06D81A78D1B2013203
:10410000D2B21A70494A55541B780A2BC1D90323DD
:10411000B4E7454A1378042B06D81378D9B2013393
:10412000DBB21370414B5D541378042BDFE7404B37
:104130001D70DDE7012D2AD105239FE7012D26D132
:10414000384B1A783ABB0520FFF7A8FA374B5A7953
:1041500082421ED119785A7842EA0122354912B2B8
:104160000A809978DA7842EA0122334912B20A8049
:104170001B79324ADBB213701378314AC3F3401310
:104180001370304B304A1D701368013313600023E5
:1041900074E72E4AF8E71A78012A35D10B20FFF789
:1041A0007DFA234B1B788342F3D1204B19785A7840
:1041B00042EA0122264912B20A809978DA7842EA64
:1041C0000122244912B20A8019795A7942EA01225D
:1041D00021490A809979DA7942EA01221F490A8045
:1041E000197A5A7A42EA01221D4912B20A809A7A51
:1041F0001C4902F001020A709B7A1B4AC3F3400378
:1042000013701A4B1D70C2E71B78022BBFD1074BEE
:10421000174A1B78DBB21370B9E700BFE007002034
:10422000D7060020C9060020CA060020CB060020C1
:10423000C8060020C6060020C4060020C2060020D2
:10424000C1060020C0060020A4060020A806002009
:10425000A00600209E0600209C0600209A06002052
:10426000980600209606002095060020940600205F
:10427000B8060020FCF7FABF07B5074C4FF4005111
:104280000648FDF75AF900230193019BA342F5D894
:10429000019B0133F8E700BF1FA107000010014098
:1042A00007B572B6064C4FF400510648FDF745F9C4
:1042B00000230193019BA342F5D8019B0133F8E74A
:1042C0003F420F000010014010B590B014220021B1
:1042D00008A803F0DFFB1422002101A803F0DAFB99
:1042E00002244FF480330122CDE90D43CDE90623AA
:1042F0004FF4E01306A80F93FDF728F908B1FFF774
:10430000CFFF0F23CDE901344FF480630390CDE953
:104310000430214601A8FDF7DBFA0028EFD110B0E8
:1043200010BD00002DE9F04FC5B0FCF78DFFFFF781
:10433000CBFF4AF6AA22B34BB34D1A600023119368
:10434000AB694FF4005043F01003AB61AB690FA9A8
:1043500003F010030E930E9B0123CDE90F030223FC
:10436000AA4812930324FDF709F800224FF40051E4
:10437000A648FDF7DDF86420FCF78AFF01224FF420
:104380000051A248FDF7D4F86420FCF781FF013CFE
:10439000EBD1FFF755FBFFF7B1FBFFF7F1FBFFF7A1
:1043A0002FFC224621462520FCF796FF2520FCF70E
:1043B000C3FF224621462620FCF78EFF2620FCF76D
:1043C000BBFF224621462720FCF786FF2720FCF76B
:1043D000B3FF22460F214FF0FF30FCF77DFF6C6AE0
:1043E0008B48214603F03EF9002C02DA894803F09D
:1043F00039F9610002D5884803F034F9A20002D5EA
:10440000864803F02FF9E30002D5854803F02AF926
:10441000270102D5834803F025F9660102D58248B9
:1044200003F020F9A00102D5804803F01BF9804871
:1044300003F080F96B6A43F080736B6201F0BEFB9E
:10444000002800F06B817B484AF6AA256D4C03F0EA
:1044500071F92560FFF752FC2560FFF795FC256098
:10446000FFF718FC2560FFF7D3FC734B256006931C
:1044700040F2465340F2DC5640F6C41B4FF4FA7A41
:104480004FF448780593A3F68C23DFF8B09104939A
:104490006B4B4A46CDE901B66A496B480393CDF8A8
:1044A00000A00C2301F0F4FE684B2560684F0693D2
:1044B000684B6949CDE901B6684A69480393CDF86C
:1044C00000A00C23CDE9047801F0E2FE25604FF056
:1044D0007E55D9F80030614A1E641368614A1E6433
:1044E000614B624E1360624B624C5360624B1046EC
:1044F000946093651566D665FDF72CFF5F4A604BA7
:10450000946013605F4B00245360A9464FF08143D1
:104510001566DFF874B15D4DDFF874A11046936540
:10452000D665FDF717FFC5F81890C5F800B04FF035
:1045300001096C60C5F808A0EC602C616E61FCF7A5
:10454000A1FE4FF07E53E86185F82090514DAB619C
:10455000C5F800B06C60C5F808A0EC602C616E6115
:10456000FCF790FE40F246524B49E861364885F828
:10457000209001F08FFF39464246394801F08AFF0A
:104580000023464A2A481360454A136003F0D2F8D4
:10459000444803F0CFF8444803F0CCF8434803F014
:1045A000C9F8434803F0C6F8424803F0C3F842484C
:1045B00003F0C0F8414803F0BDF8414B1A782AB126
:1045C00000251D70FEF75EFA3E4B1D703E4B1A78BB
:1045D0007AB100263D4D1E702A783D493D4803F0D2
:1045E00014FB2B78374FDBB23B70FEF74BFA3E7073
:1045F0002E70FCF747FE384A384D1368C31A312B2A
:104600006EE000BF0030004000100240001001408A
:104610006DCA00088ECA00089BCA0008A8CA000814
:10462000BACA0008CBCA0008D1CA0008DCCA000810
:10463000BCCD0008EDCA000824C300080009002012
:104640007B09ED4090090020880700201FC3000867
:10465000E0FCFFFF1CC73141B808002048090020DA
:104660003007002030060020A69BC43B000080BF1E
:104670000000F042A69BC43A00004040CC05002058
:104680006F12833B0000B44252491D3A9C05002042
:1046900017B7513878050020BAFAFFFF74050020DB
:1046A0007005002046CC0008A1CC0008CFCC000843
:1046B000F3CC000817CD000872CD000894CD000897
:1046C0000207002003070020E0060020E10600208A
:1046D000E2060020040700205402002040000020D1
:1046E0004AD910604FF400419E48FCF71BFF002898
:1046F00040F0D2809C4801F065FF9C4801F062FFC9
:104700002B78013303F007032B70013B062B16D8DF
:10471000DFE803F02227828F9CA1B200944803F0C7
:1047200009F8944803F006F8934803F003F8934817
:1047300003F000F8924802F0FDFF924884E68A4EAA
:10474000914B92481E6002F0F5FF914802F0F2FF93
:10475000304601F04FFE0FE0844E8B4B8D481E60BB
:10476000F1E78D4802F0E6FFB4217F4801F0FEFE3C
:10477000B4217E4801F0FAFEFCF784FD874A064624
:104780001368C31A132B2DD9106001218448FCF73C
:10479000C9FE022180468248FCF7C4FEDFF804A26D
:1047A00007469AF80030B8F1000F40F074817E4A55
:1047B000002B40F0318101218AF800107B491370F1
:1047C0000E60DFF8EC8198F80020002F40F0CC81DB
:1047D000784B002A40F0A181012288F80020764A17
:1047E0001F7016602B78042B40F09382FCF74AFD73
:1047F000DFF8C8810646D8F80070DFF8C491002FB2
:1048000040F0EE816F4BC8F800006F4889F80070E7
:104810001F6002F08FFF7CE26C4802F08BFF6C4857
:1048200002F088FF6B4802F085FF6B4802F082FFC0
:10483000A2E76A4802F07EFF4B4801F0DBFD4B48DF
:1048400001F0D8FD00225D4B1A6095E7644802F044
:1048500071FF6448EAE7644802F06CFF634802F0C5
:1048600069FF634802F066FF624802F063FF624836
:1048700002F060FF6148D9E7614802F05BFF614BDD
:10488000614A1978614B6248002918BF1A461146DF
:1048900002F0E8FE5F48C9E72B78022B25D14FF4E0
:1048A00080513048FCF73EFE38B92F488668B6F58F
:1048B000487F7FF661AFC83E0FE04FF400512948B2
:1048C000FCF730FE00287FF457AF44F61F632648FC
:1048D00086689E423FF650AFC836314601F03EFD35
:1048E0003146224801F03AFD46E7042BD7D0032B8E
:1048F0003FF442AF4FF480511A48FCF713FE80B9E1
:10490000214E30688168B1F5487F02D9C83901F07D
:1049100025FD306801F0EDFE00287FF42DAF3068F2
:1049200017E74FF400510F48FCF7FCFD40B944F67F
:104930001F63154E306881689942EAD8C831E6E7AE
:104940004FF480410748FCF7EDFD00287FF414AFD9
:104950000D4E30684178B1FA81F1490901F0ECFC63
:10496000D7E700BF000C0140880700203007002077
:1049700015CB000864CB000876CB0008B5CB000847
:10498000CACB0008EACB00083C000020BECD0008DE
:10499000F4CD00081ACE000851CE000850020020C5
:1049A000000801404C02002045020020480200207F
:1049B000440200203C020020400200202C0700207E
:1049C000280700202407002089D2000874CE0008A0
:1049D00097CE0008C3CE0008EBCE000820CF000819
:1049E0005ACF000882CF0008A1CF0008C4CF00082A
:1049F000E8CF00080DD0000837D0000874D00008B8
:104A0000A9D000086505002043CA000839CA00087B
:104A1000CCD00008F3D0000892F80080B8F1000F65
:104A20007FF4CFAE40F2DB51834B1B68F31A8B420D
:104A30007FF6C7AE01231370804BDFF804A2C3F8E2
:104A40000080804BDFF80092C3F800807F4B504617
:104A500083F800807E4B83F80080FDF77BFC48469E
:104A6000FDF778FC7B4B05201C607B4B8AF855805A
:104A70001C607A4B89F8558083F8008006232B70E0
:104A8000FEF760FDFCF7FEFB754B9630186075482D
:104A900002F050FE95E6002B3FF493AEDFF8C8918C
:104AA00099F80080B8F1000F13D12B78DFF8ACB182
:104AB000052B14D16D480D93FDF764FC06220D9B68
:104AC0008BF8008018462A70FEF73CFD684802F01B
:104AD00031FE00238AF8003089F8003071E60123A6
:104AE0008BF8003005232B70624B83F80080624BFB
:104AF00083F80080614BC3F80080FCF7C3FB604B78
:104B00001860524B022083F80080524B1C60524BBD
:104B10001C60FEF717FD5B48D9E71A78002A7FF47E
:104B200061AE594A1268B61A40F2DB5296427FF6DD
:104B300059AE01221A70454B1A789AB1DFF80081FC
:104B40001F70414E424B40461F70FDF703FC30463C
:104B5000FDF700FC4D4888F8557086F8557002F056
:104B6000E9FD3FE64A48FAE7002A3FF43BAE494EEA
:104B70003078E8B93F49384F0B78384A022BDFF8D4
:104B8000F8C0344B04D091F800E0BEF1030F14D10B
:104B9000002008708CF800001070062205202A7092
:104BA000FEF7D0FC2B4B3C481C603C6002F0C2FD81
:104BB000002388F80030337014E64FF0020E81F8BD
:104BC00000E001218CF80000117005222A701F4AB4
:104BD0001C60107003203C60FEF7B4FC2F48E5E732
:104BE00099F80030C71B052B00F2F284DFE813F0C0
:104BF00006005E00280453047B04C8044FF47A6165
:104C0000274801F0ABFB4FF47A61264801F0A6FB80
:104C10000021234801F090FB0021224801F08CFB89
:104C2000B7F5FA6F75D90123002289F800301E4BC1
:104C3000C8F800601A606CE048020020740500208B
:104C40003006002070050020CC050020D80600208A
:104C5000D9060020F4020020F002002034000020D9
:104C6000DC06002016D10008450200205BD10008B8
:104C700072D10008BA060020B9060020AC06002058
:104C8000BC0600209FD1000840020020CCD10008C3
:104C9000FCD100083C02002021D200084ED20008BE
:104CA000880700203007002024070020B74BDFF8DA
:104CB000E0A218464FF49661DFF8D8B201F04EFB3F
:104CC00040F2DC51504601F049FBDBF80020AF4BCD
:104CD000B21AB2F5AF7F10D959781846B1FA81F1FE
:104CE0004909CBF8006001F027FB9AF80110504603
:104CF000B1FA81F1490901F01FFB40F6B8339F4238
:104D000007D9022389F800300023C8F80060CBF8E7
:104D100000302B78062B03D1FEF72CFEFEF732FC79
:104D20002B78072B42D19C4B1B78002B3CD0DFF813
:104D30006C929B4E99F80030944956F83320896C58
:104D400006EBC3035F68A2EB0108914B08F105086D
:104D5000D3F848A0FCF796FAB8F10A0FDFF844C27E
:104D600000F23D84A7EB0A0705370A2F00F23784CB
:104D7000DCF80030C31AC72B14D999F800108A4BFD
:104D8000013101F0030156F8312006EBC1061A602B
:104D90007368864ECCF80000854889F800103360AF
:104DA00002F060FCFEF7E6FDFEF7ECFBFCF76AFAAA
:104DB000804E3368C01AC72840F2C180FCF762FAFF
:104DC000306000F0FDFE002800F0B9808022002154
:104DD00024A802F05FFE2B783FA8072B98BF764AE5
:104DE000A3F1050194BF52F82320744A4B424B4172
:104DF0008DF80C31724B734923921A78724BDFF89D
:104E00008CA1002A08BF0B461021704A02F09AFCC0
:104E10009DF80C31002B00F031846D4B1F886D4BD9
:104E20003FB287EAE770A0EBE77080B21E88FBF71D
:104E30003FFF36B2814686EAE670A0EBE67080B2AC
:104E4000FBF736FF644980464846FCF741F90028E5
:104E500040F0C98348466049FCF732F83D905E490E
:104E60004046FCF735F9002840F0C08340465A49D7
:104E7000FCF726F83B461021584A3E9024A802F041
:104E800061FC574A3346102128A802F05BFC504BC6
:104E9000188800B2FBF70CFF524B1968FBF75CFF58
:104EA0004C4B0646188800B2FBF702FF4E4B1968C0
:104EB000FBF752FF364A9AF804301279134340F058
:104EC00098834A492CA802F08AFE494B1B7803F0CC
:104ED000FF02002B00F09C83464912F0040F464B62
:104EE00018BF0B4612F0020F0CBF2D2248221821CA
:104EF00000920DF1C600414A02F024FCFCF7C2F911
:104F0000FBF75AFA00223E4BFBF7FAFB3D4B3E4AB9
:104F10001B781278002B0CBF70235023002A0CBF83
:104F200074225422CDE90001CDE902321621374A1C
:104F30000DF1DE0002F006FC23A800F043FE344F22
:104F40003B78002B00F091803B78013BDBB2042BD7
:104F500000F2DE832F4A52F823802F4A12F8039082
:104F60002E4A12F803A000262D4B1E4883F800900D
:104F70002C4B1E702C4B1E602C4B1E702C4B1E702D
:104F8000FDF7E8F91848FDF7E5F953E08807002038
:104F9000300700202407002065050020640500205C
:104FA0004405002040050020740500207005002005
:104FB00017D30008E802002050DB0008D2BF000829
:104FC0000C03002051CA00084DCA000837D300085E
:104FD000C6060020C4060020000020433DD3000880
:104FE00045D3000830060020CC0500204DD3000832
:104FF000C206002056CA00085BCA000869D3000830
:1050000000408F40080000203A05002073D30008BC
:10501000B806002028DB000821DB00081CDB0008A4
:10502000BA060020B9060020B0060020D8060020ED
:10503000D9060020B04B83F85560B04B83F855601B
:10504000AF4B1C60AF4B1C60AF4BBAF1000F00F0D0
:105050006583AE48FDF796F9AB4BAD481E7006234D
:105060002B7002F067FB00233B70AA4B1A78B2B199
:1050700000221A70A84BB3F80080A84B0FFA88F8EA
:105080001F88A74B3FB21E78FCF7FCF8F6B2A54B81
:10509000F207186000F15383A348FDF773F9DFF8B6
:1050A0008C8298F80030052B20D19E4F3B68EBB1E5
:1050B000FCF7E8F83B689E4EC31AB3F5FA6F40F26E
:1050C000CB849C4802F036FB9B4801F07BFA9B485E
:1050D00001F078FA8848FDF73DF98848FDF73AF97C
:1050E000032388F8003000233B603360FCF7CAF8E4
:1050F000934E3368C01AB0F5FA7F64D3FCF7C2F858
:105100003060904E3368DB689F045CD543F63C53B7
:105110008948ADF88C30826B836C9342B8BF1346DC
:105120001946C36B9942D4BFC2EB0103C2EB030320
:10513000C16BC3EB03238A1A93FBF2F37F4A8DF80A
:105140008E30916B936C8B42B8BF0B461F46D36B6E
:105150009F42D4BFC1EB0703C1EB0303D76BC3EB83
:105160000323791A93FBF1F312798DF88F300379C9
:1051700013445B108DF8903001F0B6FA2B789DF84F
:105180008D105D1F6B426B41021E18BF012242EA67
:10519000430200238DF892309DF88C308DF89120D9
:1051A0000B449DF88E1030460B449DF88F100B4435
:1051B0009DF890100B441A448DF893200A2308227E
:1051C00023A9FCF715FFFCF75DF85F4D2B68C01AAB
:1051D000952840F20581FCF755F85C4B28601B6868
:1051E000DB68990440F1FC80FCF750FFB0F59A7F32
:1051F00080F0F680484DDFF82481288800B2FBF764
:1052000057FD3D4B1968FBF7A7FD0746B8F80000AE
:1052100000B2FBF74DFD394B1968FBF79DFD4FF0D0
:105220007E5106463846FBF753FF002840F02184A4
:1052300038464749FBF72EFF00B1454F4FF07E51EE
:105240003046FBF745FF002840F0178430464049C0
:10525000FBF720FF00B13E4E2D8838462BB20D9350
:10526000B8F800301DB2FBF7C9F8824630468B46CD
:10527000FBF7C4F8204A064650680F46FBF7BEF815
:105280001E4A804650688946FBF7B8F8274B244AE7
:1052900093F800C01278BCF1050F14BF4D234123D1
:1052A000C2F34002CDE90A23CDE90801CDE9068920
:1052B0006021CDE90467CDE902AB0D9B254A00953D
:1052C00023A802F03FFA011E02DD23A8FDF77CFBB4
:1052D0001E4D2B68DB689A046BD5FCF7D7FEB0F542
:1052E0009A7F66D21C4A1D4BDFF874C01B88118858
:1052F0001C4A09B238E000BF30060020CC0500206F
:10530000F4020020F002002034000020A8D300089E
:10531000BBD30008C0060020C6060020C40600203B
:10532000C2060020BC06002045D400084000002032
:10533000AC060020AFD50008880700203007002009
:10534000E4020020E0070020E002002028080020FE
:10535000000080BF03D600089E060020A0060020A3
:10536000950600209C0600201088AB4A80B2168863
:10537000AA4AB6B21788AA4A3FB212789CF800C06F
:105380001BB2BCF1000C18BF4FF0010C003A18BF63
:10539000012242EA4C02CDE90372CDE901060091F7
:1053A000A04A402113A802F0CDF9292113A8FDF746
:1053B0000BFB2B68DB689B0412D5FCF767FEB0F58E
:1053C0009A7F0DD2984B994A1B781278202100922F
:1053D00013A8974A02F0B6F9014613A8FDF7F4FAAC
:1053E0004AF6AA22934B944D1A60FBF74BFF2B68A9
:1053F000C01AB0F5FA7F14D3FBF744FF28608F4D35
:105400002B7873B1FBF73EFF8D4B1B68C01AB0F5CC
:10541000FA5F06D900234FF4FA518A482B7002F044
:1054200021F9FBF72FFF884B1B68984280F02983F6
:1054300000224FF400518548FCF77AF8FFF7BDB819
:105440004FF47A718248DFF80CA200F087FF002148
:105450007F4800F071FF504601F04BF9012803D15D
:105460009AF80530012B0BD07A4801F0ABF8A02157
:10547000784801F07BF840F6C411764800F06EFFE2
:1054800040F6B8339F427FF644AC032389F80030DE
:10549000C8F800603DE44FF47A716D48DFF8B4A1BC
:1054A00000F05CFF01216A4800F046FF504601F021
:1054B00020F9012803D19AF80530012B0BD065485B
:1054C00001F080F8A021634801F050F840F6C411C3
:1054D000604800F043FF40F6B8339F427FF619ACB6
:1054E0000423FFF7A1BB3846FBF7DEFB5A49FBF765
:1054F000E7FC5A49FBF730FCFBF71AFEC0F51C6BC2
:105500000BF1040BBBF57A7F38BF4FF47A7BDFF8E1
:1055100044A159464E4800F021FF9AF80530012B6E
:1055200005D1504601F04EF8504600F063FF594651
:10553000DFF82CB1474800F011FFDBF80030F31A18
:10554000B3F5FA7F16D94248CBF800604178B1FA3A
:1055500081F1490900F0F0FEDBF80030F31AB3F5F1
:105560007A7F07D99AF801103A48B1FA81F14909CE
:1055700000F0E2FEB7F57A6F7FF6CBAB052385E747
:10558000334E41F28831304600F0E8FE41F2883176
:10559000304800F0E3FE0021304600F0CDFE01214E
:1055A0002C4800F0C9FEB7F5FA6F7FF6B2AB2D4874
:1055B00002F0C0F800232C4A2C482B701660C8F863
:1055C000003089F8003002F0B5F82948FFF721B91A
:1055D000002389F80030C8F80030FFF79ABBCCF8F8
:1055E0000000FFF7DFBB4FF07E5037E44FF07E50F6
:1055F00040E4FAF703FFCDE902013046FAF7FEFE78
:105600001C4ACDE9000116212CA802F09BF85CE4AD
:105610002D22194B6BE400BF9A060020980600204B
:105620009606002040D60008BA060020B9060020E1
:1056300061D6000800300040DC0200200C0300208E
:10564000080300206ED60008DC0600200010014090
:10565000880700203007002000007A450080BB4406
:1056600024070020A7D200083C000020C5D2000873
:10567000E4D200085BD3000851CA00088A498B4B6A
:1056800009798B4E9AF80420002908BF1E468849E4
:1056900024A8002A18BF0B461021864A02F052F8AF
:1056A00033461021844A28A802F04CF89AF80430B6
:1056B00043BB00233D937C4B1B7933BB00233E93BC
:1056C0007E4B16211B687E4A20332CA802F03AF844
:1056D0007C4A18217C4B0DF1C60002F033F8FBF731
:1056E000D1FD239B0293FAF767FE0022774BFBF76D
:1056F00007F8774ACDE9000116210DF1DE0002F02E
:1057000021F819E44FF07C53D4E74FF07C53D6E7EF
:105710004FF0000ADFF8BC81D14624E401221A7060
:1057200005232B706C4BC3F800A0FBF7ABFD6B4B54
:105730004A46186041466A4801F094FF93E4694A7A
:1057400013780133DBB2012B13707FF6A8AC2B78F2
:10575000072B3FF4CBACFBF795FD5F4B06F0100B2E
:10576000DFF884911860BBF1000F7AD0FBF78AFD57
:10577000D9F80030002B6CD1C9F80000730747BF7F
:105780004FF0030A4FF004094FF0090A4FF00A09DD
:10579000FBF778FD40F6B83398427FF680AC534B68
:1057A0001A78002A60D02A78052A5DD0052350484F
:1057B0002B70FCF7CFFD4F48FCF7CCFD00234E4A81
:1057C0004E4813744E4A137401F0B4FF4D4B1A78CF
:1057D000002A65D0BBF1000F62D188EAE872A2EB23
:1057E000E87292B25245DFF820B155DC87EAE772E1
:1057F000A2EBE77292B24A454EDCDBF80020002AA9
:1058000036D1FBF73FFDCBF80000404A1378002B60
:1058100000F0A38088EAE873A3EBE8739BB2282B1F
:105820007ED887EAE773A3EBE7739BB2282B77D880
:10583000374800F05EFF10B1354800F0C3FE1A484B
:1058400000F057FF00283FF42AAC174800F0BAFEDA
:1058500025E4D9F80030C01AB0F5FA7F8ED92D486A
:105860001BE4C9F800B089E71B78002BAED116E421
:10587000FBF708FDDBF80020801AB0F5487FC4D3A1
:10588000254A204B11780029BFD1012111701978C8
:10589000224801F0E7FEB8E70023CBF80030B4E778
:1058A0000022194B1A60B0E73007002060CA0008D8
:1058B00065CA000881D3000888D30008380000209A
:1058C0008FD3000896D300082605002000408F40A3
:1058D0009CD3000869CA0008AC060020BC06002062
:1058E00008D40008EC020020B40600203400002098
:1058F00030060020CC0500202000002088D40008BD
:105900000C000020BA060020B0060020D8060020B7
:105910008807002062D40008B9060020AFD4000830
:105920004FF0000B684B694883F800B0684B82F871
:1059300000B0C3F800B0674B83F800B0FCF70AFD75
:105940006548FCF707FD614B282183F855B0624B91
:10595000624883F855B001F085FE4FF07E53059301
:105960004FF4C873CDE903A35D4B424602935D4BF0
:10597000564901935C4B5D481B7806F00606009380
:105980005B4BFCF777FD5B4B3A4605934FF4967300
:10599000CDE90393584B50490293584B5848019313
:1059A000584B1B780093584BFCF764FD062E494E6C
:1059B0004FD1FBF767FC554BC830186000224FF4FD
:1059C00000515348FBF7B4FD01233F4A137032786E
:1059D0001AB95048337001F0ADFE444800F0F2FDB2
:1059E000474800F0EFFD3948FCF7B4FC3A48FCF7B3
:1059F000B1FC0123354A82F85530374A82F85530D8
:105A0000454A1370FBF73EFC444A1368C31AB3F5CA
:105A10007A7F7FF644AB424B10601968414B424895
:105A20001A68424B424E434FDFF89CC01B880088E7
:105A300036783F789CF800C01BB200B2CDE9010671
:105A40000093CDE9037C01233B4801F00BFEFFF7F7
:105A500026BB00233370D5E73368002B3FF446ABF9
:105A60003368C01AB0F5FA6F7FF640AB3348FFF7E2
:105A700029BB4FF07E57FFF7E1BB4FF07E56FFF793
:105A8000EBBBFBF7FFFB2E4D2B68C01AB0F5FA7F7E
:105A90007EF693ADFBF7F6FB2860144800F029FE74
:105AA00000287EF48AAD164800F023FE00287EF41C
:105AB00084AD00F180404FF4005100F58830FBF7D1
:105AC0003CFDFEF77ABD00BFB9060020300600207D
:105AD000B0060020D9060020CC050020DBD4000849
