:020000040800F2
:1000000000500020BD6A0008056B0008092900089F
:10001000056B0008056B0008056B00080000000078
:10002000000000000000000000000000056B000858
:10003000056B000800000000056B0008052900089A
:10004000056B0008056B0008056B0008056B0008D0
:10005000056B0008056B0008056B0008056B0008C0
:10006000056B0008056B0008056B0008056B0008B0
:10007000056B0008056B0008056B0008056B0008A0
:10008000056B0008056B0008056B0008056B000890
:10009000056B0008056B0008056B0008056B000880
:1000A000056B0008056B0008056B0008056B000870
:1000B0003126000859260008056B0008056B00086A
:1000C000056B0008056B0008056B0008056B000850
:1000D000056B000881260008E5260008ED270008CA
:1000E000056B0008056B0008056B000800000000A8
:1000F0000000000000000000000000000000000000
:0C01000000000000000000005FF808F1A3
:10010C0010F8012B11F8013B012A28BF9A42F7D0B5
:10011C00D01A7047034613F8012B002AFBD1181A8A
:10012C000138704781F0004102E000BF83F00043CA
:10013C0030B54FEA41044FEA430594EA050F08BF76
:10014C0090EA020F1FBF54EA000C55EA020C7FEA3A
:10015C00645C7FEA655C00F0E2804FEA5454D4EBB7
:10016C005555B8BF6D420CDD2C4480EA020281EA81
:10017C00030382EA000083EA010180EA020281EAB9
:10018C000303362D88BF30BD11F0004F4FEA01310B
:10019C004FF4801C4CEA113102D0404261EB41011A
:1001AC0013F0004F4FEA03334CEA133302D05242A0
:1001BC0063EB430394EA050F00F0A780A4F101045C
:1001CC00D5F1200E0DDB02FA0EFC22FA05F2801896
:1001DC0041F1000103FA0EF2801843FA05F359417C
:1001EC000EE0A5F120050EF1200E012A03FA0EFCFB
:1001FC0028BF4CF0020C43FA05F3C01851EBE37125
:10020C0001F0004507D54FF0000EDCF1000C7EEB41
:10021C0000006EEB0101B1F5801F1BD3B1F5001F7F
:10022C000CD349085FEA30004FEA3C0C04F101049E
:10023C004FEA445212F5800F80F09A80BCF1004FC7
:10024C0008BF5FEA500C50F1000041EB045141EA49
:10025C00050130BD5FEA4C0C404141EB0101013C12
:10026C0028BFB1F5801FE9D291F0000F04BF014601
:10027C000020B1FA81F308BF2033A3F10B03B3F1D3
:10028C0020020CDA0C3208DD02F1140CC2F10C0263
:10029C0001FA0CF021FA02F10CE002F11402D8BFC1
:1002AC00C2F1200C01FA02F120FA0CFCDCBF41EA8D
:1002BC000C019040E41AA2BF01EB0451294330BD5C
:1002CC006FEA04041F3C1CDA0C340EDC04F1140439
:1002DC00C4F1200220FA04F001FA02F340EA030010
:1002EC0021FA04F345EA030130BDC4F10C04C4F156
:1002FC00200220FA02F001FA04F340EA0300294636
:10030C0030BD21FA04F0294630BD94F0000F83F47F
:10031C00801306BF81F480110134013D4EE77FEA62
:10032C00645C18BF7FEA655C29D094EA050F08BFAE
:10033C0090EA020F05D054EA000C04BF194610468F
:10034C0030BD91EA030F1EBF0021002030BD5FEAD3
:10035C00545C05D14000494128BF41F0004130BDFB
:10036C0014F580043CBF01F5801130BD01F000454F
:10037C0045F0FE4141F470014FF0000030BD7FEAC2
:10038C00645C1ABF194610467FEA655C1CBF0B46BD
:10039C00024650EA013406BF52EA033591EA030FD4
:1003AC0041F4002130BD00BF90F0000F04BF0021CC
:1003BC00704730B54FF4806404F132044FF00005FF
:1003CC004FF0000150E700BF90F0000F04BF002178
:1003DC00704730B54FF4806404F1320410F00045DE
:1003EC0048BF40424FF000013EE700BF42004FEAD9
:1003FC00E2014FEA31014FEA02701FBF12F07F4356
:10040C0093F07F4F81F06051704732F07F4208BF0C
:10041C00704793F07F4F04BF41F40021704730B513
:10042C004FF4607401F0004521F000411CE700BF5F
:10043C0050EA010208BF704730B54FF000050AE0E2
:10044C0050EA010208BF704730B511F0004502D5E3
:10045C00404261EB41014FF4806404F132045FEAE5
:10046C00915C3FF4D8AE4FF003025FEADC0C18BF8E
:10047C0003325FEADC0C18BF033202EBDC02C2F180
:10048C00200300FA03FC20FA02F001FA03FE40EA12
:10049C000E0021FA02F11444BDE600BF70B54FF016
:1004AC00FF0C4CF4E06C1CEA11541DBF1CEA1355F4
:1004BC0094EA0C0F95EA0C0F00F0DEF82C4481EA5C
:1004CC00030621EA4C5123EA4C5350EA013518BF7C
:1004DC0052EA033541F4801143F4801338D0A0FB69
:1004EC0002CE4FF00005E1FB02E506F00042E0FB16
:1004FC0003E54FF00006E1FB03569CF0000F18BF1C
:10050C004EF0010EA4F1FF04B6F5007F64F54074C3
:10051C0004D25FEA4E0E6D4146EB060642EAC62156
:10052C0041EA55514FEAC52040EA5E504FEACE2EC3
:10053C00B4F1FD0C88BFBCF5E06F1ED8BEF1004FC6
:10054C0008BF5FEA500E50F1000041EB045170BD42
:10055C0006F0004646EA010140EA020081EA030186
:10056C00B4EB5C04C2BFD4EB0C0541EA045170BD82
:10057C0041F480114FF0000E013C00F3AB8014F1FC
:10058C00360FDEBF002001F0004170BDC4F1000445
:10059C00203C35DA0C341BDC04F11404C4F12005C6
:1005AC0000FA05F320FA04F001FA05F240EA020021
:1005BC0001F0004221F0004110EBD37021FA04F657
:1005CC0042EB06015EEA430E08BF20EAD37070BD11
:1005DC00C4F10C04C4F1200500FA04F320FA05F070
:1005EC0001FA04F240EA020001F0004110EBD37072
:1005FC0041F100015EEA430E08BF20EAD37070BDE2
:10060C00C4F1200500FA05F24EEA020E20FA04F3BA
:10061C0001FA05F243EA020321FA04F001F0004169
:10062C0021FA04F220EA020000EBD3705EEA430EDA
:10063C0008BF20EAD37070BD94F0000F0FD101F009
:10064C000046400041EB010111F4801F08BF013C42
:10065C00F7D041EA060195F0000F18BF704703F080
:10066C000046520043EB030313F4801F08BF013D07
:10067C00F7D043EA0603704794EA0C0F0CEA1355C3
:10068C0018BF95EA0C0F0CD050EA410618BF52EA7D
:10069C004306D1D181EA030101F000414FF0000083
:1006AC0070BD50EA410606BF1046194652EA430691
:1006BC0019D094EA0C0F02D150EA013613D195EA05
:1006CC000C0F05D152EA03361CBF104619460AD14D
:1006DC0081EA030101F0004141F0FE4141F4700157
:1006EC004FF0000070BD41F0FE4141F4780170BD47
:1006FC0070B54FF0FF0C4CF4E06C1CEA11541DBFAC
:10070C001CEA135594EA0C0F95EA0C0F00F0A7F8AD
:10071C00A4EB050481EA030E52EA03354FEA0131DA
:10072C0000F088804FEA03334FF0805545EA1313ED
:10073C0043EA12634FEA022245EA111545EA1065B5
:10074C004FEA00260EF000419D4208BF964244F14C
:10075C00FD0404F5407402D25B084FEA3202B61A6B
:10076C0065EB03055B084FEA32024FF480104FF43F
:10077C00002CB6EB020E75EB030E22BFB61A7546B3
:10078C0040EA0C005B084FEA3202B6EB020E75EB46
:10079C00030E22BFB61A754640EA5C005B084FEAAE
:1007AC003202B6EB020E75EB030E22BFB61A75467B
:1007BC0040EA9C005B084FEA3202B6EB020E75EB86
:1007CC00030E22BFB61A754640EADC0055EA060E47
:1007DC0018D04FEA051545EA16754FEA06164FEA8A
:1007EC00C30343EA52734FEAC2025FEA1C1CC0D136
:1007FC0011F4801F0BD141EA00014FF000004FF0C3
:10080C00004CB6E711F4801F04BF01430020B4F183
:10081C00FD0C88BFBCF5E06F3FF6AFAEB5EB030C3B
:10082C0004BFB6EB020C5FEA500C50F1000041EB38
:10083C00045170BD0EF0004E4EEA113114EB5C0405
:10084C00C2BFD4EB0C0541EA045170BD41F48011D8
:10085C004FF0000E013C90E645EA060E8DE60CEAE0
:10086C00135594EA0C0F08BF95EA0C0F3FF43BAFFD
:10087C0094EA0C0F0AD150EA01347FF434AF95EAB4
:10088C000C0F7FF425AF104619462CE795EA0C0F98
:10089C0006D152EA03353FF4FDAE1046194622E765
:1008AC0050EA410618BF52EA43067FF4C5AE50EA3F
:1008BC0041047FF40DAF52EA43057FF4EBAE12E72F
:1008CC0080F0004002E000BF81F0004142001FBFF9
:1008DC005FEA410392EA030F7FEA226C7FEA236C02
:1008EC006AD04FEA1262D2EB1363C1BFD2184140F7
:1008FC0048404140B8BF5B42192B88BF704710F08D
:10090C00004F40F4000020F07F4018BF404211F02F
:10091C00004F41F4000121F07F4118BF494292EA97
:10092C00030F3FD0A2F1010241FA03FC10EB0C00C3
:10093C00C3F1200301FA03F100F0004302D5494250
:10094C0060EB4000B0F5000F13D3B0F1807F06D3FD
:10095C0040084FEA310102F10102FE2A51D2B1F1F5
:10096C00004F40EBC25008BF20F0010040EA0300EA
:10097C007047490040EB0000013A28BFB0F5000F6A
:10098C00EDD2B0FA80FCACF1080CB2EB0C0200FA20
:10099C000CF0AABF00EBC25052421843BCBFD0406F
:1009AC001843704792F0000F81F4000106BF80F4E9
:1009BC0000000132013BB5E74FEA41037FEA226CAC
:1009CC0018BF7FEA236C21D092EA030F04D092F077
:1009DC00000F08BF0846704790EA010F1CBF0020AB
:1009EC00704712F07F4F04D1400028BF40F0004008
:1009FC00704712F100723CBF00F50000704700F028
:100A0C00004343F0FE4040F4000070477FEA22624E
:100A1C0016BF08467FEA23630146420206BF5FEA1F
:100A2C00412390EA010F40F4800070474FF000031F
:100A3C0004E000BF10F0004348BF40425FEA000CE6
:100A4C0008BF704743F0964301464FF000001CE08E
:100A5C0050EA010208BF70474FF000030AE000BFE4
:100A6C0050EA010208BF704711F0004302D5404222
:100A7C0061EB41015FEA010C02BF84460146002094
:100A8C0043F0B64308BFA3F18053A3F50003BCFAAF
:100A9C008CF2083AA3EBC25310DB01FA02FC63445C
:100AAC0000FA02FCC2F12002BCF1004F20FA02F263
:100ABC0043EB020008BF20F00100704702F1200256
:100ACC0001FA02FCC2F1200250EA4C0021FA02F2B7
:100ADC0043EB020008BF20EADC7070474FF0FF0CBC
:100AEC001CEAD0521EBF1CEAD15392EA0C0F93EAB7
:100AFC000C0F6FD01A4480EA010C400218BF5FEA59
:100B0C0041211ED04FF0006343EA501043EA5111CB
:100B1C00A0FB01310CF00040B1F5000F3EBF4900C5
:100B2C0041EAD3715B0040EA010062F17F02FD2AC9
:100B3C001DD8B3F1004F40EBC25008BF20F00100AC
:100B4C00704790F0000F0CF0004C08BF49024CEAC3
:100B5C00502040EA51207F3AC2BFD2F1FF0340EA55
:100B6C00C250704740F400004FF00003013A5DDCC6
:100B7C0012F1190FDCBF00F000407047C2F1000207
:100B8C00410021FA02F1C2F1200200FA02FC5FEAF4
:100B9C00310040F1000053EA4C0308BF20EADC703E
:100BAC00704792F0000F00F0004C02BF400010F4B0
:100BBC00000F013AF9D040EA0C0093F0000F01F05D
:100BCC00004C02BF490011F4000F013BF9D041EA7F
:100BDC000C018FE70CEAD15392EA0C0F18BF93EA81
:100BEC000C0F0AD030F0004C18BF31F0004CD8D1AB
:100BFC0080EA010000F00040704790F0000F17BF32
:100C0C0090F0004F084691F0000F91F0004F14D077
:100C1C0092EA0C0F01D142020FD193EA0C0F03D1CF
:100C2C004B0218BF084608D180EA010000F00040D2
:100C3C0040F0FE4040F40000704740F0FE4040F4AD
:100C4C00400070474FF0FF0C1CEAD0521EBF1CEA4C
:100C5C00D15392EA0C0F93EA0C0F69D0A2EB03026A
:100C6C0080EA010C49024FEA402037D04FF0805304
:100C7C0043EA111143EA10130CF000408B4238BFC9
:100C8C005B0042F17D024FF4000C8B4224BF5B1AD7
:100C9C0040EA0C00B3EB510F24BFA3EB510340EA25
:100CAC005C00B3EB910F24BFA3EB910340EA9C00D3
:100CBC00B3EBD10F24BFA3EBD10340EADC001B0143
:100CCC0018BF5FEA1C1CE0D1FD2A3FF650AF8B42E7
:100CDC0040EBC25008BF20F0010070470CF0004CF4
:100CEC004CEA50207F32C2BFD2F1FF0340EAC2501F
:100CFC00704740F400004FF00003013A37E792F0E0
:100D0C00000F00F0004C02BF400010F4000F013A3D
:100D1C00F9D040EA0C0093F0000F01F0004C02BF38
:100D2C00490011F4000F013BF9D041EA0C0195E7A1
:100D3C000CEAD15392EA0C0F08D142027FF47DAF3A
:100D4C0093EA0C0F7FF470AF084676E793EA0C0F2A
:100D5C0004D14B023FF44CAF08466EE730F0004C28
:100D6C0018BF31F0004CCAD130F000427FF45CAFB8
:100D7C0031F000437FF43CAF5FE700BF4FF0FF3C26
:100D8C0006E000BF4FF0010C02E000BF4FF0010C79
:100D9C004DF804CD4FEA40024FEA41037FEA226C42
:100DAC0018BF7FEA236C11D001B052EA530C18BF64
:100DBC0090EA010F58BFB2EB030088BFC81738BFC9
:100DCC006FEAE17018BF40F0010070477FEA226CB7
:100DDC0002D15FEA402C05D17FEA236CE4D15FEAB3
:100DEC00412CE1D05DF8040B704700BF84460846E7
:100DFC006146FFE70FB5FFF7C9FF002848BF10F1A8
:100E0C00000F0FBD4DF808EDFFF7F4FF0CBF0120EC
:100E1C0000205DF808FB00BF4DF808EDFFF7EAFF76
:100E2C0034BF012000205DF808FB00BF4DF808ED31
:100E3C00FFF7E0FF94BF012000205DF808FB00BF26
:100E4C004DF808EDFFF7D2FF94BF012000205DF8AC
:100E5C0008FB00BF4DF808EDFFF7C8FF34BF0120B9
:100E6C0000205DF808FB00BF4FEA4002B2F1FE4FD4
:100E7C000FD34FF09E03B3EB12620DD94FEA002350
:100E8C0043F0004310F0004F23FA02F018BF404229
:100E9C0070474FF00000704712F1610F01D1420210
:100EAC0005D110F0004008BF6FF0004070474FF0C4
:100EBC000000704742000ED2B2F1FE4F0BD34FF040
:100ECC009E03B3EB126209D44FEA002343F00043B4
:100EDC0023FA02F070474FF00000704712F1610FD7
:100EEC0001D1420202D14FF0FF3070474FF00000A9
:100EFC00704700BF0348044B834202D0034B03B13D
:100F0C0018477047A0000020A0000020000000003F
:100F1C000548064B1B1AD90F01EBA301491002D04F
:100F2C00034B03B118477047A0000020A00000201D
:100F3C000000000010B5064C237843B9FFF7DAFF28
:100F4C00044B13B10448AFF300800123237010BD90
:100F5C00A000002000000000086B000808B5054B3D
:100F6C001BB105490548AFF30080BDE80840FFF709
:100F7C00CFBF00BF00000000A4000020086B0008D9
:100F8C007047000038B50E4B05461A784FF47A734B
:100F9C00B3FBF2F30B4A1068B0FBF3F000F09CF8D3
:100FAC00044658B90F2D09D8024629464FF0FF3098
:100FBC0000F054F82046044B1D6038BD0120FCE7BE
:100FCC00000000209C00002004000020074A08B507
:100FDC001368032043F01003136000F02DF80F206A
:100FEC00FFF7D0FFFFF7CCFF002008BD0020024028
:100FFC00034A044B11681B780B441360704700BF05
:10100C00BC00002000000020014B1868704700BF96
:10101C00BC00002038B50446FFF7F6FF0546631CFC
:10102C001EBF044B1B78E418FFF7EEFF431BA342D3
:10103C00FAD338BD0000002007490302CA6803F444
:10104C00E06322F4E0621204120C134343F0BF631A
:10105C0043F40033CB60704700ED00E0154B30B526
:10106C00DC68C4F30224C4F10703251D042B28BF3C
:10107C000423062D4FF0FF3594BF0024033C05FAE2
:10108C0003F321EA0303A54022EA0502A34000284A
:10109C0043EA0203ACBF00F16040074A4FEA031376
:1010AC00DBB2ABBF00F5614000F00F0080F80033FD
:1010BC00135430BD00ED00E014ED00E0002807DB18
:1010CC0001234109034A00F01F00834042F82130FC
:1010DC00704700BF00E100E00138B0F1807F0BD217
:1010EC004FF0E023F021054A586182F823100020CC
:1010FC00072298611A6170470120704700ED00E0EB
:10110C002DE9F74F00244FF00F0E2646DFF884C16F
:10111C00614B00F104080A6832FA06F502D103B0FB
:10112C00BDE8F08F012505FA06F702EA070537EA54
:10113C00020276D14A68032A07D8013A022A00F241
:10114C008380DFE802F091969C00122A00F09480D4
:10115C0069D8112A00F08A80FF2D94BF8146C146C0
:10116C004FEA8602D9F8007088BF203A0EFA02FACC
:10117C0027EA0A0704FA02F21743C9F80070D1F8FB
:10118C00049019F0805F4CD0DCF8182026F003078F
:10119C0042F00102CCF81820DCF8182007F1804747
:1011AC0002F00102019207F5803706F0030A019A5A
:1011BC004FEA8A0ABA680EFA0AFB22EA0B0B374A84
:1011CC00904260D002F5806290425ED002F580625F
:1011DC0090425CD002F58062904214BF042203223C
:1011EC0002FA0AF242EA0B02BA609A6819F4801FFA
:1011FC0014BF2A43AA439A60DA6819F4001F14BF7B
:10120C002A43AA43DA605A6819F4003F14BF2A43F0
:10121C00AA435A601A6819F4803F14BF2A43AA43A0
:10122C001A60013677E7DFF878904A450CD014D86D
:10123C00A9F580194A4507D009F570294A4503D00C
:10124C00A9F580194A4587D18A68D2B1012A4FF095
:10125C0008040CBF076147617EE7DFF848904A45F8
:10126C00F2D009F58039EDE7CC6875E7CC68043429
:10127C0072E7CC6808346FE7CC680C346CE7002458
:10128C006AE7042468E70022AAE70122A8E7022201
:10129C00A6E700BF00100240000401400008014016
:1012AC00000022100000311080680840003818BF80
:1012BC00012070470AB1016170470904FBE7C3685C
:1012CC0001EA030221EA030141EA0241016170478C
:1012DC002DE9F341054638B30368DB0710D42B68BE
:1012EC009F075ED42B68190700F195802B685A076D
:1012FC0000F1C180EB69002B40F02C81002029E02B
:10130C00904C636803F00C03042B07D0636803F064
:10131C000C03082B0AD16368DE0307D523689C03F2
:10132C00DDD56B68002BDAD1012013E06B68B3F5C7
:10133C00803F12D1236843F480332360FFF764FEAF
:10134C00064623689803CAD4FFF75EFE801B642808
:10135C00F7D9032002B0BDE8F0819BB9236823F4D0
:10136C0080332360236823F480232360FFF74CFE33
:10137C00064623689903B2D5FFF746FE801B642806
:10138C00F7D9E6E7B3F5A02F236803D143F4802304
:10139C002360CFE723F480332360236823F4802376
:1013AC00CBE7684C636813F00C0F07D0636803F04D
:1013BC000C03082B10D16368DA030DD423689B0748
:1013CC0002D52B69012BAFD123686A6923F0F8038E
:1013DC0043EAC203236085E72A695B4B6AB10122A9
:1013EC001A60FFF711FE064623689F07ECD4FFF73F
:1013FC000BFE801B0228F7D9ABE71A60FFF704FE3F
:10140C000646236898077FF56DAFFFF7FDFD801B3F
:10141C000228F6D99DE7AA694A4E4B4BE2B101224C
:10142C00C3F88024FFF7F0FD0446736A9B070DD5C3
:10143C004FF4FA52454B1B68B3FBF2F3019300BF18
:10144C00019B5A1E0192002BF9D14FE7FFF7DCFDEF
:10145C00001B0228E9D97CE7C3F88024FFF7D4FDF0
:10146C000446736A9F077FF541AFFFF7CDFD001B64
:10147C000228F6D96DE7334CE369D80024D4012750
:10148C00E36943F08053E361E36903F08053009315
:10149C00009B2F4E3368D90518D5EB68012B26D14C
:1014AC00236A43F001032362FFF7AEFD41F2883853
:1014BC000646236A9B073FD5002F3FF41BAFE36919
:1014CC0023F08053E36115E70027E2E7336843F428
:1014DC0080733360FFF798FD80463368DA05DCD4FF
:1014EC00FFF792FDA0EB08006428F6D931E7ABB901
:1014FC00236A41F2883823F001032362236A23F024
:10150C0004032362FFF780FD0646236A9807D3D5B0
:10151C00FFF77AFD801B4045F7D91AE7052B236AA4
:10152C0003D143F004032362BAE723F001032362DF
:10153C00236A23F00403B6E7FFF766FD801B4045E2
:10154C00B7D906E700100240000042429C00002080
:10155C00007000402A4C626802F00C02082A3ED04F
:10156C000022022B274B1A662CD1FFF74DFD0646A5
:10157C002368990120D42B6AB3F5803F05D16268AA
:10158C00A96822F400320A436260696A62680B43FC
:10159C0022F474121343012263601A4B1A66FFF78C
:1015AC0033FD054623689A013FF5A8AEFFF72CFDE5
:1015BC00401B0228F6D9CCE6FFF726FD801B02283B
:1015CC00D6D9C6E6FFF720FD054623689B017FF5BB
:1015DC0095AEFFF719FD401B0228F6D9B9E6012B91
:1015EC003FF4A2AE60682B6A00F480329A427FF41A
:1015FC009BAE6B6A00F47010C01A18BF0120A9E6EC
:10160C0000100240000042420D4A536803F00C01E6
:10161C00082912D10B48C3F38341DB03405C09D585
:10162C005368094AC3F340435043084AD35CB0FBA8
:10163C00F3F07047064B584370470348704700BFA0
:10164C00001002405A6B000800127A00586B000818
:10165C0000093D002DE9F0410D46044610B901206A
:10166C00BDE8F081444A136803F007038B4228D38A
:10167C0021688E0730D4CA0743D43F4A136803F05D
:10168C000703AB4265D822683C4D12F0040F6CD1B5
:10169C00130706D56B68226923F4605343EAC2032F
:1016AC006B60FFF7B1FF6B68354AC3F30313D35C70
:1016BC00D840344B1860344B1868FFF763FC00209B
:1016CC00CEE7136823F007030B431360136803F092
:1016DC0007038B42C3D1CBE7284B11F0040F1EBF7D
:1016EC005A6842F4E0625A60080742BF5A6842F4F2
:1016FC0060525A605A68A06822F0F00202435A60A5
:10170C00B9E762681D4E012A33681AD113F4003F01
:10171C00A5D0736841F2883823F003031343736038
:10172C00FFF772FC07467368626803F00C03B3EBB7
:10173C00820FA2D0FFF768FCC01B4045F3D90320F1
:10174C008EE7022A02D113F0007FE1E713F0020FBB
:10175C00DEE7136823F007032B431360136803F0D1
:10176C000703AB427FF47BAF8DE76B68E16823F432
:10177C00E0630B436B608BE70020024000100240DB
:10178C00248000089C00002004000020044B054A23
:10179C005B68C3F30223D35C034A1068D8407047DC
:1017AC00001002401C8000089C000020044B054ADD
:1017BC005B68C3F3C223D35C034A1068D8407047FC
:1017CC00001002401C8000089C00002070470000A4
:1017DC0090F83D30012B1CD102230F4A80F83D308C
:1017EC00036893420AD0B3F1804F07D0A2F594322C
:1017FC00934203D002F58062934204D19A6802F0BE
:10180C000702062A03D01A6842F001021A6000206F
:10181C0070470120704700BF002C0140174A036835
:10182C0090420AD0B0F1804F07D0A2F5943290428A
:10183C0003D002F58062904207D14A6823F070030E
:10184C001343CA6823F4407313434A6923F080039B
:10185C00134303608B68C3620B688362074B984227
:10186C0004BF0B690363012343610369DB0742BFB8
:10187C00036923F001030361704700BF002C014092
:10188C0010B5044630B390F83D3003F0FF021BB99D
:10189C0080F83C20FFF79AFF0223206884F83D3043
:1018AC00211DFFF7BBFF0123002084F8463084F88C
:1018BC003E3084F83F3084F8403084F8413084F86E
:1018CC00423084F8433084F8443084F8453084F84E
:1018DC003D3010BD0120FCE7026802F10C0353E817
:1018EC00003F23F490730C3242E800310268002967
:1018FC00F2D102F1140353E8003F23F0010302F18B
:10190C00140C4CE800310029F3D1036B012B0BD1E3
:10191C0002F10C0353E8003F23F0100302F10C0C0E
:10192C004CE800310029F3D1202380F84230002309
:10193C000363704710B504460368C1681A6922F442
:10194C0040520A431A6182680069D968024360698F
:10195C0021F4B05121F00C0102430A43DA605A69B8
:10196C00A16922F440720A435A610E4A934215D17E
:10197C00FFF71CFF19234343626820689200B3FBF6
:10198C00F2F36422B3FBF2F102FB11331B0132338D
:10199C00B3FBF2F303EB0113836010BDFFF7F6FE0C
:1019AC00E8E700BF00380140F7B505460C4617467E
:1019BC001E462A68136834EA030301D1002021E093
:1019CC00701CF7D0FFF720FBC01B86421CD3DEB186
:1019DC002B68DA685107ECD5802CEAD0402CE8D083
:1019EC001A681207E5D5002401941A68284601925A
:1019FC005B680193019BFFF76FFF082301206B6469
:101A0C0085F8404003B0F0BD0320FBE7704710B5EC
:101A1C00044648B390F8413003F0FF021BB980F83C
:101A2C004020FFF7F3FF2423226884F84130D36869
:101A3C00204623F40053D360FFF77CFF236800207B
:101A4C001A6922F490421A615A6922F02A025A61E8
:101A5C00DA6842F40052DA602023606484F8413082
:101A6C0084F84230606310BD0120FCE72DE9F84397
:101A7C00984690F841300446202B0E4617463FD12D
:101A8C0000293FD0002A3DD021230025456480F851
:101A9C004130FFF7B9FAA3688146B3F5805FA7849C
:101AAC00E78403D123690BB935461E46E38C9BB200
:101ABC0053B943464A4640212046FFF775FF202381
:101ACC0050B984F841300AE043464A46802120460A
:101ADC00FFF76AFF28B12023032084F84130BDE8CA
:101AEC00F88322684EB935F8023BC3F30803536000
:101AFC00E18C013989B2E184D8E716F8013BF6E7AD
:101B0C000220ECE70120EAE7002310B503638364AD
:101B1C00C36403640446FFF777FA012384F8543056
:101B2C00206510BD2DE9F04F91B01F469DF868302F
:101B3C0082460A931B9B89460C931C9BBDF97480AF
:101B4C0009931E9B0B920D931F9B0E9382EAE273DB
:101B5C00A3EBE2739BB2B3F5C87F00F2B3814345AC
:101B6C0040F3B0811046FEF765FF3A7C05464FF016
:101B7C007E5B002A40F0F48001233860C7F804B083
:101B8C003B74FFF741FA0646D9F85000301AFEF7BD
:101B9C004DFF8E49FFF756F88D490446FFF73CF987
:101BAC00002840F002814FF07E512046FFF752F999
:101BBC0008B14FF07E54D9F80010C9F8506028468F
:101BCC00FEF78CFF0646D9F848102846FEF77CFE37
:101BDC002146FFF737F8D9F80810C9F84850FEF736
:101BEC007DFF3146FEF772FED9F86060044631463F
:101BFC00FFF730F900B13446D9F85C602046314625
:101C0C00FFF70AF900B134464FF07E512046FFF73A
:101C1C0021F9002840F0CB8020466E49FFF7FCF8F4
:101C2C0000B16C4C0A9B0BB104F10044002120461E
:101C3C00FFF706F9B0FA80F300215B0920460A93FE
:101C4C00FFF7FEF8002840F0B58004F1004B404649
:101C5C00FEF7F0FED9F8046080463146FFF7F0F845
:101C6C0028B14FF07E514046FEF730FE064600216B
:101C7C002846FFF7EFF8002840F09E8005F1004061
:101C8C004146FEF721FE41460F903046FEF71CFE02
:101C9C0001460F98FEF7D6FF00218046FFF7BCF8EF
:101CAC00002840F08B804FF07E514046FFF7D2F871
:101CBC0008B14FF07E5859464046FFF7ADF8002862
:101CCC007FD040460E99FEF709FF00210646FFF72C
:101CDC00A3F800B1002640493046FEF7FFFEFFF79F
:101CEC00E9F844F62063A3EB000B9B4528BF9B4609
:101CFC0041F288339B4538BF9B460D9B002B71D01E
:101D0C00504602F0A6FF00210D902046FFF798F8F0
:101D1C000D9B002857D0581C00F5C870B0F5487FB3
:101D2C0060D9504602F093FF10B1504602F0E8FE25
:101D3C004846FFF7E9FE002300223B74099B1A601A
:101D4C00264B1A78002A40F0988001221A704FF422
:101D5C00C8720C99224811B0BDE8F04F03F032B9AB
:101D6C00B9687868FEF7B2FDF9680446FEF7AEFD77
:101D7C0001462046FEF766FF06463A68284611469D
:101D8C000F92FEF7A1FD3146FEF7A8FE0F9A114601
:101D9C00FEF79CFD3146386005465846FEF794FD2B
:101DAC002146FEF79BFE7860EBE6094C03E74FF00B
:101DBC007E5437E7A3464AE7284661E74FF0000810
:101DCC0079E758467EE7581EA6E700BF00007A4424
:101DDC006F12833A000080BF00606A46C200002088
:101DEC006A6B0008099B58461C68FEF71FFE002111
:101DFC0007462046FFF706F878B94FF07C5120468D
:101E0C00FEF76CFE4FF07C5104463846FEF766FE3A
:101E1C0001462046FEF75AFD0746099B4FF07C51C0
:101E2C001F603846FEF752FDFFF744F844F6206376
:101E3C00984228BF184641F28833834698420A9943
:101E4C00504638BF9B4602F0FFFC504602F0FFFEA6
:101E5C00012802D0504602F053FD5946504602F07C
:101E6C0027FD204A2049BAEB020218BF01228B5CE5
:101E7C000133DBB2042B03D88B5411B0BDE8F08FC7
:101E8C00002328468B54FEF7B1FA044630460D4623
:101E9C00FEF7ACFA064640460F46FEF7A7FA804618
:101EAC005046894602F0D5FEDDE90B21CDE906B09E
:101EBC00CDE90489CDE90267CDE900450B4803F073
:101ECC0081F8DAE7504602F0C2FE10B1504602F03B
:101EDC0017FE4846FFF718FE002300223B74099BAF
:101EEC001A60CAE764040020C0000020986B000848
:101EFC00F0B51D4E3368DB689B0433D572B61B4DB1
:101F0C001B4B1C4F01442A881C880132A4B2D2B24C
:101F1C00A24208BF1C8810F801CB02BF0134E4B206
:101F2C001C802C888842A4B207F804C02A80EAD10D
:101F3C0062B611480278AAB929881A8889B292B275
:101F4C0091420FD0012202701A8892B2B95C1A88A1
:101F5C00C9B20132D2B21A8033685960DA6842F0E1
:101F6C008002DA60F0BD00BF040500207001002083
:101F7C006E010020720100206D0100200FB407B526
:101F8C0004AB53F8042B80210648019303F060F94D
:101F9C00011E02DD0348FFF7ABFF03B05DF804EB55
:101FAC0004B07047C80000202DE9F74F1E46836C23
:101FBC008846A2EB030A8AEAEA73A3EBEA73B3F549
:101FCC00FA6F054614464FF0000B0C9F0D99DFF885
:101FDC00609240F3FF80D9F80030002B40F0E18094
:101FEC00FFF712F8C9F80000284602F030FE00286E
:101FFC0040F00D812146284602F0A2FCFFF704F8C0
:10200C000446D8F81C00201AFEF710FD8949FEF78B
:10201C0065FD88498146FEF7FFFE002840F0F980F7
:10202C004FF07E514846FEF715FF08B14FF07E5930
:10203C005046FEF7FFFC4946C8F81C408246FEF7A6
:10204C004DFDD8F81010FEF741FC7B490446FEF715
:10205C0001FF00B1784C20467849FEF7DDFE00B157
:10206C00764CD8F80C105046C8F81040FEF72CFCF3
:10207C004946FEF7E7FDD8F800108146C8F80CA0D9
:10208C005046FEF72BFDD8F8041082462046FEF78A
:10209C0025FD01465046FEF719FCD8F808100446F9
:1020AC004846FEF71BFD01462046FEF70FFCD8F80C
:1020BC00189004464946FEF7CDFE00B14C46D8F8C0
:1020CC00148020464146FEF7A7FE00B144464FF06F
:1020DC007E512046FEF7BEFE002840F0A18020462F
:1020EC005749FEF799FE002840F0968000212046C3
:1020FC00FEF7B0FE002800F0908039462046FEF72F
:10210C00EDFC00210446FEF787FE002840F08D8090
:10211C004FF07E512046FEF79DFE002800F0838094
:10212C004FF07E504749FEF7D9FCFEF7C3FE44F64C
:10213C002063181A984228BF184641F288339842F7
:10214C0038BF1846FEF772FC376804460021384643
:10215C00FEF758FE68B938463B49FEF7BFFC3B49D1
:10216C0007462046FEF7BAFC01463846FEF7AEFBA2
:10217C0004464FF07C5120463460FEF7A7FBFEF777
:10218C0099FE44F62063984228BF184641F28831E4
:10219C00814238BF0146284603B0BDE8F04F02F03B
:1021AC0087BB0191FEF730FFD9F80030C01A40F61A
:1021BC00B83398427FF618AF254B01991A78002A4C
:1021CC007FF412AF012223481A700323524602F007
:1021DC00F9FE09E700231E4AC9F8003013700AF112
:1021EC000203042B3FF600AF02F031FD10B128467C
:1021FC0002F086FCC8F80CB0C8F810B0FEF704FF6B
:10220C00C8F81C00C6F800B003B0BDE8F08FEC6451
:10221C00F4E6DFF820900BE7094C04F100446CE77E
:10222C004FF07E5469E720467CE700207AE700BF38
:10223C009C0200206F12833A00409C4500409CC5D4
:10224C00000080BF00606A463333333F9A99993E51
:10225C009B020020D96B00082DE9F041002588B0C5
:10226C00454B06959A69012442F004029A619A69D9
:10227C000326022702F0040200924FF0F008009AA5
:10228C009A6904A942F008029A619A693B4802F0E3
:10229C0008020192019A9A6942F010029A619A69B5
:1022AC0002F010020292029A9A6942F001029A61BB
:1022BC009B69334A03F001030393039B536823F098
:1022CC00E06343F000735360CDE904640797FEF7B5
:1022DC0017FF2A4631462948FEF7ECFF04A9274888
:1022EC00CDE904840796FEF70BFF2A4641462348A6
:1022FC00FEF7E0FF4FF0780804A92248CDE904640A
:10230C000797FEF7FDFE2A4631461E48FEF7D2FF20
:10231C000796802604A91B48CDE90484FEF7F0FE3D
:10232C002A4641461748FEF7C5FF04A91548CDE9D2
:10233C0004640797FEF7E4FE2A4631461148FEF77F
:10234C00B9FF4FF47043CDE904354FF4005504A99F
:10235C000C480694FEF7D4FE04A90B48CDE90454AE
:10236C000797FEF7CDFE224629460748FEF7A2FF47
:10237C0008B0BDE8F08100BF001002400008014029
:10238C0000000140000C01400010014030B5002558
:10239C0087B01B4B04959A6902A942F480429A615A
:1023AC009B694FF4007203F480430193019B022359
:1023BC00CDE90223032313480593FEF7A1FE4FF446
:1023CC00806302A90F48CDE902350495FEF798FE0B
:1023DC004FF4E1330C4C0D492046C4E900130C2397
:1023EC00C4E90255C4E905352561E561FFF70FFB2A
:1023FC002268D36843F02003D36007B030BD00BF20
:10240C0000100240000801404C050020003801403B
:10241C0030B5002587B01A4B0495DA6902A942F44D
:10242C000032DA61DB69042203F400330193019B6F
:10243C000223CDE90223032312480593FEF760FE25
:10244C00082310480DEB0301CDE902350495FEF786
:10245C0057FE4FF416530C4C0C492046C4E900139C
:10246C000C23C4E90255C4E905352561E561FFF784
:10247C00CEFA2268D36843F02003D36007B030BD96
:10248C0000100240000801400405002000440040F8
:10249C0030B5002587B01F4B0495DA6902A942F4C8
:1024AC008022DA61DA691C4802F480220092009AD8
:1024BC009A691A4C42F008029A619B694FF4806247
:1024CC0003F008030193019B0223CDE902230323AC
:1024DC000593FEF715FE4FF4006302A90E48CDE9F3
:1024EC0002350495FEF70CFE4FF4E1330C492046FF
:1024FC00C4E900130C23C4E90255C4E90535256170
:10250C00E561FFF784FA2268D36843F02003D360B7
:10251C0007B030BD00100240000C0140BC0400208C
:10252C0000480040174B37B5DA69174C42F00102EE
:10253C00DA61DB694FF0804203F001030193019BE8
:10254C0047230025C4E9002341F63F73C4E9025335
:10255C0080232046A3612561FFF792F9226820466B
:10256C00D36843F00103D360FFF732F92A46012107
:10257C001C20FEF773FD1C2003B0BDE83040FEF7B5
:10258C009DBD00BF00100240DC050020164B37B586
:10259C00DA69164C42F00202DA61DB69144A03F084
:1025AC0002030193019B47230025C4E9002341F654
:1025BC003F73C4E9025380232046A3612561FFF7D2
:1025CC005FF922682046D36843F00103D360FFF71C
:1025DC00FFF82A4601211D20FEF740FD1D2003B007
:1025EC00BDE83040FEF76ABD0010024094050020A3
:1025FC000004004010B514464FF0FF3392B202486D
:10260C00FFF734FA204610BD4C050020002070471F
:10261C00002070474FF0FF3070474FF0FF3070478D
:10262C0001207047074B1B681A69D10708D5DA6877
:10263C00D20705D56FF0010203481A6102F06CBA9B
:10264C00704700BFDC05002064040020074B1B68AA
:10265C001A69D10708D5DA68D20705D56FF00102DF
:10266C0003481A6102F058BA704700BF9405002065
:10267C000C040020144B13B51B681A68910616D570
:10268C0012495A680878D2B21E2805D80C78601CFA
:10269C00C0B208700E4802550A2A01D00D2A03D187
:1026AC0001210C4A117002E00A781E2AF8D81A6827
:1026BC00120706D5002201921A6801925B680193F9
:1026CC00019B02B010BD00BF4C050020DD030020B3
:1026DC00DE030020DC03002030B5374D85B02B68BD
:1026EC001A68100614D5DA68110611D5334A344924
:1026FC0010880A8880B292B2904227D00A8831485A
:10270C0092B2805C0A88C0B20132D2B20A805860A0
:10271C001A68920625D501225C682B4BE4B21A701C
:10272C00FEF772FC294B1860294B1A781E2A05D823
:10273C0019784A1CD2B21A70264A54540A2C01D069
:10274C000D2C0BD10122244B1A700AE00021234AD4
:10275C001170DA6822F08002DA60D9E71B781E2B40
:10276C00F0D82B681A68140706D5002200921A6854
:10277C0000925A680092009A1A68500706D50022F7
:10278C0001921A6801925A680192019A1A6891078B
:10279C0006D5002202921A6802925A680292029A94
:1027AC001A68D20706D5002203921A6803925B6856
:1027BC000393039B05B030BD04050020700100207D
:1027CC006E010020720100206C01002068010020C5
:1027DC00DD030020DE030020DC0300206D0100205F
:1027EC003C4BF7B51C6823689A0618D53A4B6268BF
:1027FC001978D2B204290ED8DFE801F003081D2D98
:10280C0031003C2A0BD101221A7008E03B2A04D17A
:10281C0002221A70314B0022F6E73C2AFBD12368C6
:10282C001B0706D50023019323680193636801936A
:10283C00019B03B0F0BD29480178052906D8017821
:10284C00CDB20131C9B2017025494A550278052A29
:10285C00E5D90322D8E7012ADDD10422D4E7012AE5
:10286C00D9D11F4F052500223946082617F8010B30
:10287C00424050B20028BDBF400080F00700C2B2F9
:10288C00520006F1FF30A8BFD2B210F0FF06F0D113
:10289C00681E10F0FF05E8D14879904215D10878F0
:1028AC004A7842EA00220F4812B202808878CA782D
:1028BC0042EA00220C4812B202800A790B49D2B2C9
:1028CC000A7001210A4A1170A5E70A490A68013207
:1028DC000A60A0E7BC040020D5030020CE03002032
:1028EC00CF030020CC030020CA030020C903002022
:1028FC00C8030020C0030020FEF77ABB07B5074CC5
:10290C004FF400510648FEF7DAFC00230193019BBB
:10291C00A342F5D8019B0133F8E700BF1FA10700C4
:10292C000010014007B572B6064C4FF40051064832
:10293C00FEF7C5FC00230193019BA342F5D8019B34
:10294C000133F8E73F420F000010014010B590B082
:10295C001422002108A802F02BFD1422002101A84A
:10296C0002F026FD02244FF480330122CDE90D4301
:10297C00CDE906234FF4E01306A80F93FEF7A8FC4D
:10298C0008B1FFF7CFFF0F23CDE901344FF480637B
:10299C000390CDE90430214601A8FEF75BFE002828
:1029AC00EFD110B010BD00002DE9F04FB7B0FEF71D
:1029BC000DFBFFF7CBFFFFF74FFCFFF7E7FCFFF733
:1029CC0027FDFFF765FD002225201146FEF746FB8B
:1029DC002520FEF773FB002226201146FEF73EFB56
:1029EC002620FEF76BFB002227201146FEF736FB54
:1029FC00A94D2720FEF762FB00220F214FF0FF307C
:102A0C00FEF72CFB6C6AA548214602F0DBFA002C81
:102A1C0002DAA34802F0D6FA660002D5A14802F009
:102A2C00D1FAA00002D5A04802F0CCFAE10002D500
:102A3C009E4802F0C7FA220102D59D4802F0C2FA64
:102A4C00630102D59B4802F0BDFAA70102D59A4852
:102A5C0002F0B8FA994802F01DFB6B6A43F08073E0
:102A6C006B6201F049FB002800F09281944802F05F
:102A7C0011FB944B944A9549954801F08FFE954B68
:102A8C00954A9649964801F089FEFFF74BFDFFF7F2
:102A9C007DFD4FF07E510C46924A934B00255360BE
:102AAC004FF08043A246914E10461160116693651B
:102ABC009560D665FFF728F88D4A8E4B14605360ED
:102ACC0014668D4B8D4CDFF83892DFF83882104647
:102ADC0093659560D6650127FFF716F8C4F800904A
:102AEC006560C4F80880E56025616661C4F818A0CB
:102AFC00FEF78AFA84F82070E061834CC4F80090E9
:102B0C006560C4F80880E56025616661C4F818A0AA
:102B1C00FEF77AFA4FF40062E0617C496C4884F865
:102B2C00207001F03DFF7A494FF4C8726C4801F0F7
:102B3C0037FF0023774A78481360784A784C136043
:102B4C0002F0A8FA774802F0A5FA774802F0A2FA48
:102B5C00764802F09FFA764802F09CFA754802F02B
:102B6C0099FA754802F096FA744802F093FA744890
:102B7C0002F090FA734802F08DFA734802F08AFA68
:102B8C00724802F087FA724802F084FA714802F037
:102B9C0081FA714802F07EFA704B1A78002A00F024
:102BAC000E810021DFF8B881197098F800306D4A59
:102BBC00DBB2D1546C4916781746A6F10A03DBB286
:102BCC00162B104602F1010200F2F38021FA03F3F6
:102BDC00DE07F0D4654A791E133011F8013F13B1AA
:102BEC00884240F01981002361496248137002F059
:102BFC0080FC3E78782E00F03D8100F21681592E33
:102C0C0000F062815A2E00F01581582E00F03281AE
:102C1C0003223846584902F0D3FB38B10322384618
:102C2C00564902F0CDFB002840F08B8100238DF833
:102C3C004F30149315AB0093514914AB0DF14F0267
:102C4C00F81C159502F064FA032840F075819DF884
:102C5C004F304C4943F02003742B14A807BF2A4E65
:102C6C001C4F264E174FFDF74BFA002840F05281AF
:102C7C00159B336006232370FEF7C6F9424B963042
:102C8C0018601598FDF7B2FBCDE9000139463F48B5
:102C9C0014AAFFF773F98FE000100240606C000873
:102CAC00816C00088E6C00089B6C0008AD6C0008F1
:102CBC00BE6C0008C46C0008CF6C00085C6F000888
:102CCC00E06C0008246C0008DC050020107D000876
:102CDC00640400201F6C000894050020F07C0008A0
:102CEC000C0400205C03002000000C42000080BF9C
:102CFC00F80200200000C84100004040D40200202F
:102D0C0052491D3A17B75138B002002000F8FFFFA6
:102D1C0070FEFFFFAC020020396E0008A8020020F4
:102D2C003C000020656E00088D6E0008A66E000841
:102D3C00CC6E0008056F0008326F00085E6F00084B
:102D4C00986F0008C86F0008F66F00082170000823
:102D5C004C7000087570000892700008DC030020AD
:102D6C00DD030020DE030020090040008602002065
:102D7C00C970000872020020967100089A71000850
:102D8C009E710008A9710008D8030020DB710008AF
:102D9C00B14802F07FF9B14802F07CF9B04802F07A
:102DAC0079F9B04802F076F9AF4802F073F9AF4800
:102DBC005DE6002E7FF40EAF002388F80030FEF79E
:102DCC0023F9AB4A1368C31A312B40F226831060E7
:102DDC004FF40041A748FEF767FA002840F06183E2
:102DEC00A54801F08DFEA54801F08AFE0722237844
:102DFC000133B3FBF2F2C2EBC2029B1ADBB22370BB
:102E0C00013B052B00F29982DFE813F0A402FC02CF
:102E1C0021032E033B034003A3F16106192E9CBF33
:102E2C00203BDBB202F8013BD7E6792E4CD07A2E50
:102E3C007FF4EEAE904801F0C1FD904801F0BEFD6C
:102E4C0000238F4A8F4E13608F4AF56013603561F3
:102E5C00FEF7DAF8F0618D4EF5603561FEF7D4F8C7
:102E6C000623F0612370FEF7CFF8894B963018607B
:102E7C00884826E0884915AA781C159502F048F96F
:102E8C0001281DD14FF08B411598FDF727FE834982
:102E9C00FDF7D8FEFDF7E8FF0623794E237030606E
:102EAC00FEF7B2F87A4B963018601598FDF79EFA3B
:102EBC000B46316802467A480091FFF75FF87BE7D2
:102ECC007848FFF75BF877E7734915AA781C1595D6
:102EDC0002F01EF901281BD14FF08B411598FDF71C
:102EEC00FDFD6E49FDF7AEFEFDF7BEFF0623664EF7
:102EFC0023703060FEF788F8654B96301860159893
:102F0C00FDF774FA0B463168024600916648D4E727
:102F1C006648D6E7664914A8FDF7F2F810B9159B78
:102F2C007360A7E6634914A8FDF7EAF8002840F09F
:102F3C00AC81159BB3609DE65F48FFF71FF85F48B7
:102F4C00BFE706F0DF064B2E08D105232370FEF7F2
:102F5C005BF84F4B963018605948B2E74D2E08D1AC
:102F6C0006232370FEF750F8494B963018605548ED
:102F7C00A7E703232370FEF747F8454B96301860FC
:102F8C0000224FF400515048FEF794F94F49504835
:102F9C00FEF7F4FF97F8009049F02003742B04D847
:102FAC00602B21D83F2B00F0EA80781C01F0BCFE8E
:102FBC00B9F1560F064600F0AE8100F26B81B9F103
:102FCC002D0F00F08E81B9F1520F00F06D81B9F127
:102FDC002B0F00F0768139783E48FEF7CFFF3E4943
:102FEC003E4802F086FAE7E6613B132BDDD801A2DE
:102FFC0052F823F031310008B72F000815310008C2
:10300C0059310008B72F0008F9300008A731000823
:10301C000731000873310008B72F0008B72F0008DC
:10302C00B72F0008B72F0008B72F0008B72F0008DC
:10303C0051300008B72F0008B72F0008493100089D
:10304C005B300008264B0C4A26481A6039E7244BA3
:10305C000A4A25481A6034E7086D0008576D0008C5
:10306C00696D0008A86D0008BD6D0008DD6D0008D5
:10307C00C4000020000C0140640400200C0400205B
:10308C00AC020020D4020020A8020020B0020020D4
:10309C00D80300206B710008A67100080000B4432F
:1030AC00CC700008EF7000081B7100083F7100081D
:1030BC00AC710008AF710008FE710008297200089D
:1030CC00417200086A72000800100140DE03002003
:1030DC008D720008DB7400080F7500087202002066
:1030EC003400002096720008BC7200089C4B002132
:1030FC00186801F083FB9B48E3E6994B01211868A3
:10310C0001F07CFB9848DCE6954E0021306801F01C
:10311C009BFB306801F0F4FB316894483831FEF7C2
:10312C002DFF49E68E4E0121306801F08DFB306891
:10313C0001F0E6FB31688E483831F0E7884E306894
:10314C0001F0DEFC31688B483831E8E78A4801F041
:10315C00D7FB8A4801F0D4FB042300222370884B50
:10316C0088481A60ADE6884A8848137883F00101D4
:10317C0011708749874A012B08BF1146CFE77E485B
:10318C0001F06AFD7D4801F067FD754B82481968B6
:10319C003831FEF7F3FE814893E600238DF84F306B
:1031AC00149315AB00937E4914AB0DF14F02781CB0
:1031BC00159501F0ADFF03286AD19DF84F70794E3B
:1031CC00794B47F02007794914A8742F08BF1E4685
:1031DC00FCF796FF10BBDDF85490DFF8D4A14846FD
:1031EC005146FDF719FE80B1CDF854A0159830600A
:1031FC00704B714E742F08BF1E46FDF7F7F814AADA
:10320C00CDE9000131466D4843E548466C49FDF770
:10321C0021FE0028EAD06A4B1593E7E7694914A808
:10322C00FCF76EFFB0B9DDF854A0DFF89C91504666
:10323C004946FDF7F1FD10B1CDF8549007E0DFF8E9
:10324C008C9150464946FDF705FE0028F4D115989F
:10325C007060CDE75E4914A8FCF752FFA8B9DDF801
:10326C0054A000215046FDF7D7FD18B115951598BF
:10327C00B060BDE7DFF85C9150464946FDF7EAFDCA
:10328C000028F4D0CDF85490F1E7534814A946E740
:10329C00524816E6B9F1760F3DD0B9F1770F2ED022
:1032AC00B9F1720F7FF497AE3046FDF7C3FB2C4F8C
:1032BC000146386801F09CFB396832464848383181
:1032CC000CE0274F0021386801F0BEFA314638680F
:1032DC0001F080FB3246396842483831FEF74EFE29
:1032EC006AE51F4F0121386801F0AEFA31463868A3
:1032FC0001F070FB396832463B483831EEE7184F25
:10330C000146386801F0C6FB396806EBD6763748BB
:10331C0072103831E2E744F620639E4228BF1E4605
:10332C0041F288339E4238BF1E460D4B3146186819
:10333C0001F09CFA31462E48F1E60F4E2D4B2E48EB
:10334C001E6001F0A7FE2D4801F0A4FE304601F0EE
:10335C00D7FA62E0094E274B29481E60F1E700BFFF
:10336C0034000020E3720008037300082073000887
:10337C003C73000859730008640400200C040020FE
:10338C00080400206A7300080800002089730008F4
:10339C00286C0008376C0008A4730008BD73000883
:1033AC009F7100085C030020F8020020A97100083E
:1033BC00CDCCCC3D1F6C0008246C0008F3730008C6
:1033CC0000004040AC710008000020410000F042B9
:1033DC00AF7100080AD7A33CB2710008277400082B
:1033EC00827400085074000869740008997400080D
:1033FC00B2740008380000201375000849750008E5
:10340C006F7500086F4801F045FEB4216E4801F05D
:10341C0041FBB4216D4801F03DFB2378042B40F0B7
:10342C002C81FDF7F1FDDFF8A8810646D8F8007075
:10343C00DFF8A091002F40F09880674BC8F800008F
:10344C00664889F800701F6001F024FE15E164489D
:10345C0001F020FE634801F01DFE634801F01AFEE6
:10346C00624801F017FED8E7614801F013FE564898
:10347C0001F046FA554801F043FA0022544B1A6009
:10348C00CBE75C4801F006FE5B48EAE75B4801F0DD
:10349C0001FE5B4801F0FEFD5A4801F0FBFD5A4865
:1034AC00DFE72378022B23D14FF480515748FDF7E7
:1034BC00FBFE38B941F28833434886689E42ACD94A
:1034CC00C83E0DE04FF400515048FDF7EDFE0028CA
:1034DC00A3D144F61F633C4886689E429DD8C836EB
:1034EC00314601F0C3F93146384801F0BFF994E791
:1034FC00042BD9D0032B00F057814FF48051434853
:10350C00FDF7D2FE88B941F28833414E30688168AC
:10351C00994202D9C83901F0A9F9306801F097FB3A
:10352C0000287FF47AAF306811E74FF40051374828
:10353C00FDF7BAFE40B944F61F63354E306881681A
:10354C009942EAD8C831E6E74FF480412F48FDF79D
:10355C00ABFE00287FF461AF2D4E30684178B1FA94
:10356C0081F1490901F070F9D7E799F80030C71BD0
:10357C00052B00F25684DFE813F006004D008D0396
:10358C00B803DF032C044FF47A610F4801F06EF995
:10359C004FF47A610D4801F069F900210A4801F0F5
:1035AC0053F90021094801F04FF9B7F5FA6F64D9C6
:1035BC000123002289F80030074BC8F800601A601C
:1035CC005BE000BFA6750008640400200C0400201A
:1035DC000804002004040020000400208C7700085C
:1035EC00C9750008EC7500081876000840760008CC
:1035FC0075760008AF760008D7760008F6760008D6
:10360C00197700083D77000862770008000C01402C
:10361C0038000020BB4BDFF8F0A218464FF496613F
:10362C00DFF8E8B201F022F940F2DC51504601F02B
:10363C001DF9DBF80020B34BB21AB2F5AF7F10D9ED
:10364C0059781846B1FA81F14909CBF8006001F0BC
:10365C00FBF89AF801105046B1FA81F1490901F0D2
:10366C00F3F840F6B8339F4207D9022389F80030AB
:10367C000023C8F80060CBF800302378062B40F00C
:10368C009380A34EA04F3368DFF888B2FB64DBF85D
:10369C000020DFF87082A04BC8F84C2001934FF04B
:1036AC007E53DFF8789240469D4900934B46FEF7D7
:1036BC007BFC9C4BDFF870A201939C4B384600932B
:1036CC00326853469A49FEF76FFCFDF79DFC994B07
:1036DC001A68801A632867D9FDF796FC954BBF6C66
:1036EC001860DAF80000FCF781FE3668D8F84880DC
:1036FC00DBF800B0CDE90E01F01BFDF79BF9FCF7F0
:10370C0075FECDE90C013046FDF794F98A49FDF7B9
:10371C00E5F94FF06651FDF7E1F9FCF767FECDE9ED
:10372C000A013846FDF786F98349FDF7D7F94FF0C2
:10373C006651FDF7D3F9FCF759FECDE90801D9F82C
:10374C000000FCF753FECDE90601ABEB0800FDF7DA
:10375C0071F9FCF74BFECDE904015846FDF76AF907
:10376C007549FDF7BBF94FF06651FDF7B7F9FCF75A
:10377C003DFECDE902014046FDF75CF96E49FDF7CF
:10378C00ADF94FF06651FDF7A9F9FCF72FFE6B4A26
:10379C00CDE90001782115A801F084FC0A2382B23E
:1037AC0015A96748FEF762F9FDF72EFC654E3368E4
:1037BC00C01AC72840F20681FDF726FC306000F0E5
:1037CC009DFC002800F0FE808022002116A801F04C
:1037DC00EFFD23785C4A5D4952F8232031A81592FD
:1037EC005A1F534253418DF8D430594B1A78594BC8
:1037FC00002A08BF0B461021574A01F053FC9DF8D4
:10380C00D430002B00F02B83544B1F88544B3FB209
:10381C0087EAE770A0EBE77080B21E88FDF70AF923
:10382C0036B2814686EAE670A0EBE67080B2FDF710
:10383C0001F94C4980464846FDF70CFB002840F046
:10384C00F68248464749FDF7FDF92F904549404619
:10385C00FDF700FB002840F0ED8240464149FDF7A2
:10386C00F1F93B461021404A309016A801F01AFCA1
:10387C003E4A334610211AA801F014FC374B188825
:10388C0000B2FDF7D7F83A4B1968FDF727F9344B1E
:10389C000646188800B2FDF7CDF8364B1968FDF7CF
:1038AC001DF9184B184A1B791279134340F0C58245
:1038BC0031491EA801F01DFE304B1B7803F0FF02AE
:1038CC00002B00F0C9822E4912F0040F2D4B18BFAB
:1038DC000B4612F0020F0CBF2D2248221821009229
:1038EC000DF18E00284A01F0DDFBFDF78DFBFCF796
:1038FC005BFD0022254BFCF7FBFE254B254A1B7874
:10390C004AE000BF640400200C04002000040020E6
:10391C00A8020020AC020020246C0008A4020020A5
:10392C00D40200201F6C0008A00200203333333F68
:10393C00B0020020640100200000B4431A78000893
:10394C004C05002058010020D87C0008486C000869
:10395C006C010020446C000848780008CC0300205F
:10396C00CA030020000020434E7800085678000857
:10397C005C030020F80200205E780008C9030020D8
:10398C004D6C0008526C00087A78000800408F409B
:10399C00080000209A0200201278002B0CBF702324
:1039AC005023002A0CBF74225422CDE90001CDE92A
:1039BC0002321621A04A0DF1A60001F073FB15A8E6
:1039CC0000F09EFB9D4B1A78DAB14FF0000983F89A
:1039DC0000909B4BB3F800809A4B0FFA88F81F8825
:1039EC00994B3FB21E78FDF70FFB984BF6B218605F
:1039FC00F30700F1A782964801F082F8954801F090
:103A0C007FF82378052B1CD1904E3368CBB1FDF792
:103A1C00FBFA3368C01AB0F5FA6F12D98E4801F070
:103A2C0039FB8B4801F06CF88A4801F069F88B4837
:103A3C00FEF76AF88A48FEF767F803232370002321
:103A4C003360FDF7E1FA874E3368C01AB0F5FA7FA0
:103A5C0042D3FDF7D9FA3060834E3368DB689904A2
:103A6C003AD543F63C537A48ADF854308379794AC9
:103A7C005B018DF85630937912795B018DF85730D4
:103A8C00037913445B108DF8583001F0DBF8237880
:103A9C009DF855105A1F53425341021E18BF012264
:103AAC0042EA430200238DF85A309DF854308DF8C9
:103ABC0059200B449DF8561030460B449DF8571076
:103ACC000B449DF858100B441A448DF85B200A23C4
:103ADC00082215A9FDF7CAFFFDF796FA634E336865
:103AEC00C01A95287CD9FDF78FFA614B30601B68A2
:103AFC00DB689B0474D5DFF84891DFF84881B9F88E
:103B0C00000000B2FCF796FF544B1968FCF7E6FF77
:103B1C000746B8F8000000B2FCF78CFF504B196850
:103B2C00FCF7DCFF4FF07E5106463846FDF792F964
:103B3C00002840F05A8238464E49FDF76DF900B125
:103B4C004C4F4FF07E513046FDF784F9002840F081
:103B5C004F8230464749FDF75FF900B1454E384674
:103B6C00FCF744FCCDE910013046FCF73FFC3B4B25
:103B7C00824658688B46FCF739FC0F463849064696
:103B8C004868FCF733FC94F800E02F4BBEF1050FAE
:103B9C0014BF4D224122B9F80090B8F8008093F878
:103BAC0000C00FFA89F9CCF340030FFA88F8CDE97D
:103BBC000801CDE90A32DDE910236021CDE90223A9
:103BCC00CDE906674B46CDE904AB2B4ACDF8008016
:103BDC0015A801F067FA011E02DD15A8FEF788F999
:103BEC00FDF712FA254E3368C01AB0F5FA7F14D3DC
:103BFC00FDF70AFA3060224E337873B1FDF704FA00
:103C0C00204B1B68C01AB0F5FA5F06D900234FF49D
:103C1C00FA511D48337001F0D5F9FDF7F5F91B4B3E
:103C2C001B68984280F0E78100224FF4005118483D
:103C3C00FDF740FBFEF7B0BF84780008C8030020F6
:103C4C00CC030020CA030020C9030020C4030020B9
:103C5C00640400200C040020E07800085C030020C1
:103C6C00F802002054010020BC0400205001002068
:103C7C0004050020000080BF027900084C010020E0
:103C8C006C010020680100203F790008D803002057
:103C9C00001001404FF47A719548DFF858A200F0FB
:103CAC00E5FD0021924800F0CFFD504600F0CFFF1B
:103CBC00012803D19AF80530012B0BD08D4800F068
:103CCC001FFFA0218B4800F0E5FE40F6C411894887
:103CDC0000F0CCFD40F6B8339F427FF6CEAC032308
:103CEC0089F80030C8F80060C7E44FF47A71804856
:103CFC00DFF800A200F0BAFD01217D4800F0A4FD20
:103D0C00504600F0A4FF012803D19AF80530012B8E
:103D1C000BD0784800F0F4FEA021764800F0BAFEF3
:103D2C0040F6C411734800F0A1FD40F6B8339F4231
:103D3C007FF6A3AC04233CE43846FCF777FE6E49CF
:103D4C00FCF780FF6D49FCF7C9FEFDF7B3F8C0F531
:103D5C001C6B0BF1040BBBF57A7F38BF4FF47A7BED
:103D6C00DFF890A15946624800F080FD9AF80530C2
:103D7C00012B05D1504600F0C3FE504600F0C0FDAB
:103D8C005946DFF87CB15B4800F070FDDBF8003081
:103D9C00F31AB3F5FA7F16D95548CBF80060417881
:103DAC00B1FA81F1490900F04FFDDBF80030F31A4C
:103DBC00B3F57A7F07D99AF801104E48B1FA81F120
:103DCC00490900F041FDB7F57A6F7FF656AC052333
:103DDC0086E7474E41F28831304600F047FD41F20C
:103DEC008831444800F042FD0021304600F02CFDA3
:103DFC000121404800F028FDB7F5FA6F7FF63DAC85
:103E0C00404801F047F900233F4A404823701660B0
:103E1C00C8F8003089F8003001F03CF93C48FFF755
:103E2C0013BB002389F80030C8F8003025E44FF0AC
:103E3C007E500AE54FF07E5013E5FCF7D7FACDE93A
:103E4C0002013046FCF7D2FA324ACDE900011621C4
:103E5C001EA801F027F92FE52D222F4B3EE5254911
:103E6C002E4B09792E4F224E002908BF1F4632795E
:103E7C002B4916A8002A18BF0B461021294A01F01D
:103E8C0011F93B461021284A1AA801F00BF9337995
:103E9C0043BB00232F93174B1B7933BB0023309369
:103EAC00224B16211B68224A38331EA801F0FAF85F
:103EBC00204A1821204B0DF18E0001F0F3F8FDF78C
:103ECC00A3F8159B0293FCF76FFA00221B4BFCF72F
:103EDC000FFC1B4ACDE9000116210DF1A60001F0E3
:103EEC00E1F86CE54FF07C53D4E74FF07C53D6E708
:103EFC00640400200C04002000007A450080BB44C0
:103F0C0000040020AA77000838000020C8770008B9
:103F1C00E77700086C780008486C0008576C0008BC
:103F2C005C6C000892780008997800083400002036
:103F3C00A0780008A77800088602002000408F4077
:103F4C00AD780008FDF760F840F6B83398427FF67C
:103F5C0058AD2378052B10D0052338482370FDF776
:103F6C00D3FD3748FDF7D0FD364B374883F810901A
:103F7C00364B83F8109001F08DF84FF07E534FF0D4
:103F8C00000905930223CDE90339314B42460293D4
:103F9C00304B2A490193304B30481B780093294B06
:103FAC00FDF7C0FD2E4B4FF4C87005930423CDE9EB
:103FBC0003302C4B3A4602932B4B214901932B4B4C
:103FCC002B481B780093214BFDF7ACFDB6077FF512
:103FDC0018ADFDF719F8274BC83018604A464FF456
:103FEC0000512548FDF766F90BE54FF07E57A8E523
:103FFC004FF07E56B3E5FDF707F8204E3368C01A34
:10400C00B0F5FA7F7EF6C8ADFCF7FEFF30601348C2
:10401C0000F01DFE00287EF4BFAD154800F017FE21
:10402C0000287EF4B9AD00F180404FF4005100F54A
:10403C008830FDF744F9FEF7AFBD00BF5C030020EC
:10404C00F802002020000020B97800080C000020A5
:10405C0060010020246C000808000020640400208B
:10406C009A99193F5C0100201F6C00089A020020ED
:10407C000C040020D803002000100140480100204F
:10408C0073B50C46054600212046FCF7C5FE70BBF7
:10409C004FF07E512046FCF7DDFE08B14FF07E5408
:1040AC0020461449FCF71AFD4FF07C51FCF70EFC2E
:1040BC00FCF700FF0126294607233E22C4B20096D6
:1040CC00402000F0EEFA00233544EDB200933C2280
:1040DC0005232946412000F0E4FA34B10523224699
:1040EC0029464120009600F0DCFA02B070BD002099
:1040FC00D7E700BF0000704200F010BA00F000BA21
:10410C0010B5044600F0FCF9002844D0002C42D035
:10411C0000F0FCF90021012308461F4A00F098FA30
:10412C00012307227F21002000F0A4FA221D012385
:10413C000821002000F08CFAA16E0820FFF7A0FFE8
:10414C0004F1140201231021002000F081FAE16E29
:10415C001020FFF795FF04F1240201231821002001
:10416C0000F076FA04F13A0201232021002000F03D
:10417C006FFA04F1520201232821002000F068FAA2
:10418C0004F1700201233021002000F061FABDE837
:10419C00104000F0A7BA10BDA9790008002382B026
:1041AC000193019B132B01D902B07047019B013382
:1041BC00F6E7000001224FF480710148FDF77AB850
:1041CC00000C014001224FF400710148FDF772B858
:1041DC00000C014000224FF400710148FDF76AB851
:1041EC00000C014008B5FFF7F5FFFFF7D7FFFFF70D
:1041FC00E1FFFFF7D3FFFFF7E5FFBDE80840FFF74E
:10420C00CDBF000000224FF480710148FDF752B879
:10421C00000C014008B5FFF7D5FFFFF7BFFFFFF714
:10422C00C9FFFFF7BBFFFFF7D5FFFFF7B7FFFFF79E
:10423C00E9FFBDE80840FFF7B1BF000038B5044600
:10424C000825230625D5FFF7BDFFFFF7A7FF640060
:10425C00FFF7B0FFFFF7A2FFFFF7D4FFFFF79EFFBA
:10426C00013DE4B2EDD1FFF7ADFFFFF797FFFFF78C
:10427C00A1FF4FF400710848FFF790FFFDF714F809
:10428C000446FFF7BFFFFFF789FF201E18BF012070
:10429C0038BDFFF79FFFD8E7000C014038B50C4B39
:1042AC0005461B789BB10B4B1C8884B16400FFF74F
:1042BC00B1FF04F0FE00FFF7C1FF0020FFF7BEFFC7
:1042CC002846FFF7BBFFBDE83840FFF78BBF38BD72
:1042DC00260600202406002008B5AE20FFF7DEFFDE
:1042EC000220FCF797FE2020FFF7D8FF0220FCF7F6
:1042FC0091FE0020FFF7D2FF0220FCF78BFE21205D
:10430C00FFF7CCFF0220FCF785FE0020FFF7C6FF6D
:10431C000220FCF77FFE7F20FFF7C0FF0220FCF796
:10432C0079FE2220FFF7BAFF0220FCF773FE002073
:10433C00FFF7B4FF0220FCF76DFE0720FFF7AEFF7E
:10434C000220FCF767FEB020FFF7A8FF0220FCF765
:10435C0061FEC820FFF7A2FF0220FCF75BFE0020E5
:10436C00FFF79CFF0220FCF755FE1020FFF796FF8D
:10437C000220FCF74FFE4020FFF790FF0220FCF7D5
:10438C0049FE8120FFF78AFF0220FCF743FECF2075
:10439C00FFF784FF0220FCF73DFEA120FFF77EFF14
:1043AC000220FCF737FEA620FFF778FF0220FCF76F
:1043BC0031FEA820FFF772FF0220FCF72BFE3F20F6
:1043CC00FFF76CFF0220FCF725FED320FFF766FFFA
:1043DC000220FCF71FFE0020FFF760FF0220FCF715
:1043EC0019FED520FFF75AFF0220FCF713FE8020A0
:1043FC00FFF754FF0220FCF70DFED920FFF74EFF0C
:10440C000220FCF707FEF120FFF748FF0220FCF723
:10441C0001FEDA20FFF742FF0220FCF7FBFD122021
:10442C00FFF73CFF0220FCF7F5FDDB20FFF736FF22
:10443C000220FCF7EFFD4020FFF730FF0220FCF7D5
:10444C00E9FD8D20FFF72AFF0220FCF7E3FD142085
:10445C00FFF724FF0A20FCF7DDFDAF20FFF71EFF5E
:10446C00BDE808400A20FCF7D5BD00002DE9F04757
:10447C00B0241F4D1F4EDFF88080DFF88090802223
:10448C003146284600F084FF40B32046FFF706FF74
:10449C000020FFF703FF1020FFF700FF98F8003013
:1044AC00BBB1B9F80070A7B1FFF7B4FE780000F00B
:1044BC00FE00FFF7C3FE4020FFF7C0FE6F1E05F1A4
:1044CC007F0A17F8010FFFF7B9FE5745F9D1FFF72F
:1044DC0089FE80222946304601F013F80134E4B2FB
:1044EC00B82C05F1800506F18006C8D1BDE8F0872F
:1044FC00270A00202706002026060020240600207C
:10450C00014B1878704700BF260600204FF48062DC
:10451C000021014800F04CBF270A00207FB5002382
:10452C00234D244C4FF440722B7023801123012116
:10453C00CDE9002303232048CDE902136946FCF79B
:10454C00DFFDFFF737FEFFF73DFE3220FCF762FD83
:10455C00FFF760FE7820FFF771FE0646FFF742FE7C
:10456C00012E1ED1FFF756FE7A20FFF767FE064696
:10457C00FFF738FE012E16D03D23238001240A209C
:10458C002C70FCF747FDFFF7A7FE4FF48062FF216C
:10459C000A4800F00DFFFFF7B9FFFFF767FF204651
:1045AC0004E03C23E9E720880028E7D104B070BD83
:1045BC002606002024060020000C014027060020BF
:1045CC00030630B50ED43F290CD80124CB08074D77
:1045DC0000EBC31001F007012B5C04FA01F112B1DE
:1045EC000B432B5430BD23EA0103FAE7270A0020C2
:1045FC002DE9F04714461A46A4F120035E2B88BF20
:10460C003F2406460F460025104B203C04EB840447
:10461C001C444FF0000806EB050914F805A05FFADE
:10462C0089F94AFA08F3DB0705D507EB0801484678
:10463C00C9B2FFF7C5FF08F10108B8F1070FF0D1B7
:10464C000135052DE5D1BDE8F08700BF307D0008B0
:10465C00F8B505460E461F461AB1541E14F8012F24
:10466C0002B9F8BD28463B4631460635FFF7C0FF78
:10467C00EDB2F3E7814270B5164605460C461A4674
:10468C0001D304460D46A54200D270BD230605D4C5
:10469C003F2E03D831462046FFF792FF0134E4B297
:1046AC00F1E72DE9F84380460C465E1817189DF883
:1046BC002090F6B2FFB2B44211D045460AE02B0668
:1046CC0006D43F2C04D84A4621462846FFF778FFEB
:1046DC000135EDB2BD42F2D10134E4B2EBE7BDE8F5
:1046EC00F883000038B51A4B1B7883B34FF0805316
:1046FC00184DC5F88030BFF34F8FBFF36F8F4FF05D
:10470C000053C5F88030BFF34F8FBFF36F8F124B40
:10471C001C88FFF77FFD6400E4B22046FFF78EFD96
:10472C000446FFF75FFD012C09D1FFF7D5FD4FF4CF
:10473C008062FF21094800F03BFEFFF7E7FEFFF720
:10474C0095FE4FF080532B604FF000532B6038BD1B
:10475C002606002000E100E02406002027060020A9
:10476C0038B504460D4601F00102018B4069FCF797
:10477C00A1FD218CE069C5F34002FCF79BFD218D66
:10478C00606AC5F38002FCF795FD218EE06AC5F3E3
:10479C00C002BDE83840FCF78DBD0000F8B50546F9
:1047AC0016460C465722002101301F4600F000FE31
:1047BC0001232B704FF4FA53AB604FF480636E639C
:1047CC002B613CB10FCC05F114060FC694E80F0019
:1047DC0086E80F0005F1380427B107223946204638
:1047EC0000F000FE28460021FFF7BAFF2146BDE885
:1047FC00F840014800F0E6BBBA79000838B5002350
:10480C000D46044683714B1E012B01708CBF032196
:10481C000121FFF7A5FF012D04F1380109D0064A4B
:10482C00064B022D08BF1A46BDE83840044800F07C
:10483C00C9BB044AF8E700BFD7790008F179000832
:10484C00037A0008E4790008054A064B41700029F8
:10485C0018BF1A4600F13801034800F0B3BB00BF83
:10486C000D7A00081C7A0008037A000844F62063CD
:10487C0099420A4628BF1A4641F288339A4238BFF9
:10488C001A4610B4446B82602368D96821F0010188
:10489C00D960511ED962E160D96810BC41F00101A8
:1048AC00D96000F13801014800F08CBB2C7A00086B
:1048BC0030B544F62065A94228BF294641F2883418
:1048CC008368A1422CBFC3EB0102C3EB04020B496A
:1048DC008A42B8BF0A4640F6B8318A42D4BF9B1808
:1048EC005B18AB4228BF2B46A34238BF2346426B12
:1048FC0083601168013BCB62D36030BD48F4FFFF8D
:10490C0072B6037983B9082344F6206280F84030EC
:10491C00836803EB4303934228BF1346426B436403
:10492C001168013BCB62D3600023C36001238380F9
:10493C0062B600F13801014800F044BB3E7A000831
:10494C000A4610B472B640F20133C1640021838070
:10495C00836CC160D31A8B421CDD417090F84030DF
:10496C0083B9082344F6206180F84030836803EB58
:10497C0043038B4228BF0B46416B43640C68013BDD
:10498C00E362CB6062B6836C00F1380110BC034863
:10499C0000F018BB1CBF01234370DFE7527A0008FC
:1049AC00134672B6C0E9141262B60A4600F1380119
:1049BC00014800F007BB00BF7B7A000872B60023E9
:1049CC00C0E9123362B600F13801014800F0FABABE
:1049DC009E7A00080A4672B60223C160838062B6D2
:1049EC0000F13801014800F0EDBA00BFB27A0008BE
:1049FC00F7B50D4603780446012B4FF0000128460D
:104A0C0014BF4FF400674FF48057FCF705FA0028E9
:104A1C0035D005F100401B49FCF714F90646384621
:104A2C00FCF704F801463046FCF758F8FCF742FA5C
:104A3C00064672B663780021A3702846FCF7ECF9A1
:104A4C000123003818BF0120E37003236070E66077
:104A5C00A38062B62846FBF7C9FC04F138070A4A62
:104A6C0064780A4B002C08BF13460246CDE900635C
:104A7C0007480B46394600F0A5FA03B0F0BD2846AE
:104A8C00C9E700BF0000B443C27A0008C17A00082D
:104A9C00C57A0008B1F5B47F2DE9F04105460C4606
:104AAC0027D8002908BF5A242B782046012B14BF85
:104ABC004FF400674FF48057FBF7B8FF0E49FCF733
:104ACC00C1F806463846FBF7B1FF01463046FCF705
:104ADC0005F8FCF7EFF940F20112AA80C5E90300D2
:104AEC000346620805F138010448BDE8F04100F0C6
:104AFC0069BA4FF4B474D7E70000B443EB7A0008FA
:104B0C0072B60023C360838062B600F1380101489D
:104B1C0000F058BA147B000810B5037904462BB387
:104B2C004379012B1BD1C368002B06DC4378B3FA05
:104B3C0083F35B0943700369C3602378012B34D082
:104B4C00022B4FF0040233D13A496078A37988BB29
:104B5C000133B3FBF2F002FB1033DBB22EE0032B7C
:104B6C00EBD1D0E912239B1A01D1037110BD016D59
:104B7C0009B9406D98B1002BD4BF4FF0FF30012024
:104B8C000244914202DC616D914208DA00232371E8
:104B9C0004F138012848BDE8104000F013BA002B8E
:104BAC00CCBF002301236370C7E708222349CCE75D
:104BBC002349CAE7002B38D1013AD3B2A371C95C9F
:104BCC002046FFF7CDFD6278A36C002A2FD101336C
:104BDC00A364E368002B0BDD013BE36043B962790E
:104BEC00012A05D0E278237112B1A278E3706270C9
:104BFC0094F84030002BB9D0013BDBB2D3F1080262
:104C0C0084F84030B2D0636CA16899422FBF0B4638
:104C1C00581A4243A3EBD2038B4238BF0B46626B4C
:104C2C00013B1068C362D360A0E7013B95E7013BF1
:104C3C00CEE700BF0B7F0008317B0008137F000814
:104C4C000F7F00080079003818BF012070470079E9
:104C5C007047806C7047000070B504468EB0264DCE
:104C6C0003AB95E8070083E80700244B06AE0193DD
:104C7C00234B029305F10C031C350FCB86E80F0078
:104C8C0095E80F000EAD05E90F0004F138011D4841
:104C9C0000F098F923781C4805EB830353F82C1C7F
:104CAC0000F090F96378194805EB830353F8341C32
:104CBC0000F088F92379164805EB830353F8201C80
:104CCC0000F080F96379134805EB830353F8101C4B
:104CDC0000F078F9A168104800F074F9A1790F4838
:104CEC0000F070F9E1680E4800F06CF90D480EB058
:104CFC00BDE8704000F0CEB9206B0008597B00086D
:104D0C00677B0008767B0008A07B0008B57B000859
:104D1C00CA7B0008DF7B0008F47B0008117C0008CC
:104D2C00267C00083B6F00080A22002100F07CB8AA
:104D3C00242B2DE9F0478646904601D8012B06D14D
:104D4C0000F0AAFB162303600020BDE8F0870D4697
:104D5C0033482A4615F8014B065D16F00806F8D1C3
:104D6C002D2C10D101262C78951C33F0100215D166
:104D7C00302C0DD12A7802F0DF02582A08D16C7839
:104D8C00023510230AE02B2C04BF2C78951CECE781
:104D9C00002BF6D1302C14BF0A230823002206F175
:104DAC00004C0CF1FF3CBCFBF3F9104603FB19CA99
:104DBC00A4F13007092F0FD83C46A3421BDD571C2A
:104DCC0007D0814514D301D1A24511DB012200FB90
:104DDC00034015F8014BEBE7A4F14107192F01D85B
:104DEC00373CEAE7A4F16107192F04D8573CE4E7F4
:104DFC004FF0FF32EDE7531C08D122236046CEF86A
:104E0C000030B8F1000FA0D0691E06E006B1404298
:104E1C00B8F1000F99D0002AF6D1C8F8001094E729
:104E2C001C7F0008FFF784BF13460A460146024860
:104E3C000068FFF77DBF00BF4C000020002310B5B9
:104E4C000446C0E90033C0E90433836081814366C2
:104E5C00C2818361194608225C3000F0A9FA0D4B1F
:104E6C00246263620C4BA3620C4BE3620C4B236316
:104E7C000C4B9C4206D003F16802944202D0D03312
:104E8C009C4205D104F15800BDE8104000F02EBB47
:104E9C0010BD00BF755100089B510008D35100088C
:104EAC00F9510008280E0020024A0349034800F07B
:104EBC006BB800BF40000020B56600085000002011
:104ECC0041680C4B10B59942044601D001F0ECFB43
:104EDC00A168094B994202D0204601F0E5FBE1683C
:104EEC00064B994204D02046BDE8104001F0DCBBD3
:104EFC0010BD00BF280E0020900E0020F80E0020E0
:104F0C000C4B0D4A10B504211A600C480022FFF717
:104F1C0095FF0A4B01221C46092103F16800FFF79B
:104F2C008DFF04F1D0000222BDE810401221FFF7E2
:104F3C0085BF00BF600F0020B54E0008280E002072
:104F4C00014800F0D4BA00BF690F0020014800F0FE
:104F5C00CFBA00BF690F002010B50446FFF7F0FF71
:104F6C00236A1BB1BDE81040FFF7F0BF044B23626E
:104F7C00044B1B68002BF5D1FFF7C2FFF2E700BF13
:104F8C00CD4E0008600F00202DE9F84307468846F7
:104F9C0014460026D4E90195B9F1010905D5246818
:104FAC00002CF7D13046BDE8F883AB89012B07D92B
:104FBC00B5F90E30013303D029463846C0470643B5
:104FCC006835E9E70FB407B5064904AB086853F830
:104FDC00042B8168019300F0F5FE03B05DF804EB3F
:104FEC0004B070474C000020036A70B505460E46AD
:104FFC0084680BB9FFF7B0FF636EDB0705D4A38998
:10500C00980502D4A06D00F072FAA389190702D595
:10501C002369002B35D12146284600F065F980B371
:10502C004FF0FF35636EDA0705D4A3899B0502D4D4
:10503C00A06D00F05DFA284670BD002B04DAA26961
:10504C00934217DB0A2915D023685A1C2260197069
:10505C00A36816F8011F013BA3600029EDD1002BBA
:10506C0011DA22460A21284600F000F90130D7D087
:10507C000A25D7E72246284600F0F8F80130E7D198
:10508C00CEE7013EE4E723685A1C22600A221A701C
:10509C00EEE70000024B01461868FFF7A5BF00BF02
:1050AC004C0000200CB430B5184B0C1E1D689DB084
:1050BC0008DA8B234FF0FF302B601DB0BDE8304079
:1050CC0002B070474FF40273ADF814304FF0000388
:1050DC001B930CBF234604F1FF33049307934FF645
:1050EC00FF7302900690ADF81630284621AB209A3B
:1050FC0002A9019300F06AFB431CBCBF8B232B60FD
:10510C00002CDAD00022029B1A70D6E74C0000204B
:10511C000EB44FF4017270B500259DB021AC54F85B
:10512C00046BADF814201B9502900690FAF7F2FF71
:10513C000B4B03900B934FF6FF7307900948ADF898
:10514C0016303246234602A900680F951495019437
:10515C0000F092FC1DB0BDE8704003B0704700BF7A
:10516C00975100084C00002010B50C46B1F90E10F8
:10517C0000F06EF90028ABBF636DA3891B1823F4F4
:10518C008053ACBF6365A38110BD002070472DE92F
:10519C00F0411F468B890546DB050C46164605D5A6
:1051AC0002230022B1F90E1000F040F9A389324617
:1051BC0023F48053A38128463B46B4F90E10BDE876
:1051CC00F04100F057B910B50C46B1F90E1000F0D3
:1051DC002DF9B4F90C30421C0BBF23F4805343F46B
:1051EC008053A381A38118BF606510BDB1F90E1067
:1051FC0000F00CB930B51446002C05461A469BB08D
:10520C0005DA8B2303604FF0FF301BB030BD4FF439
:10521C000273ADF80C304FF0000319930CBF23460A
:10522C0004F1FF33029305934FF6FF730091049141
:10523C00ADF80E3069461E9B00F0C8FA431CBCBF8B
:10524C008B232B60002CE0D00022009B1A70DCE733
:10525C0007B5009313460A46014603480068FFF75A
:10526C00C9FF03B05DF804FB4C000020F8B50E46F6
:10527C001446054618B1036A0BB9FFF76DFEA36916
:10528C00A360A3891A0701D5236943B9214628468F
:10529C0000F02AF818B14FF0FF373846F8BD2368F4
:1052AC002269F6B2981A63693746834205DC2146B7
:1052BC00284601F0F9F90028EDD1A368013BA36061
:1052CC0023685A1C22601E706269431C9A4204D0E7
:1052DC00A389DB07E1D50A2EDFD12146284601F050
:1052EC00E3F90028D9D0D6E738B5284B054618681D
:1052FC000C4618B1036A0BB9FFF72EFEB4F90C304B
:10530C001A0721D4D80607D409222A6043F0400397
:10531C004FF0FF30A38130E0590712D5616B41B1DA
:10532C0004F14403994202D0284600F0F9F8002316
:10533C0063630022B4F90C306260226923F0240309
:10534C00226043F00803A38122693AB99A0501D57A
:10535C00180603D52146284601F0F2F9B4F90C30B1
:10536C0013F001020AD00022A26062695242A261CB
:10537C00226942B913F08000C8D138BD990758BFD3
:10538C006269A260F4E70020F7E700BF4C00002040
:10539C0010B501390244904201D1002005E0037898
:1053AC0011F8014FA34201D0181B10BD0130F2E7D8
:1053BC0003460244934200D1704703F8011BF9E7FE
:1053CC0010B56AB10139841810F8012B11F8013F9E
:1053DC009A4203D1A04201D0002AF5D1D01A10BDB7
:1053EC001046FCE7034610B5013932B111F8014FF4
:1053FC00013A03F8014B002CF7D100211A449342D7
:10540C0000D110BD03F8011BF9E7000038B50023EB
:10541C00054D044608462B60FDF7FCF8431C02D1F1
:10542C002B6803B1236038BD640F002038B50446E7
:10543C00084611460022054D2A601A46FDF7E8F889
:10544C00431C02D12B6803B1236038BD640F0020CC
:10545C0038B50446084611460022054D2A601A4606
:10546C00FDF7D4F8431C02D12B6803B1236038BD7F
:10547C00640F002038B50446084611460022054D3D
:10548C002A601A46FDF7B6F8431C02D12B6803B10B
:10549C00236038BD640F0020014B1868704700BFB3
:1054AC004C00002070B500260C4D0D4B5B1B9C1066
:1054BC00A64209D1002601F021FB0A4D0A4B5B1BC9
:1054CC009C10A64205D170BD55F8043B9847013697
:1054DC00EEE755F8043B98470136F2E73C800008AC
:1054EC003C8000083C8000084080000870477047F2
:1054FC007047034611F8012B03F8012B002AF9D150
:10550C0070470A44914200F1FF3300D1704710B547
:10551C0011F8014B914203F8014FF9D110BD000075
:10552C0038B50546002940D051F8043C0C1F002B1F
:10553C00B8BFE41800F0DEF81C4A136833B9636096
:10554C0014602846BDE8384000F0DAB8A34208D908
:10555C00206821188B4201BF19685B68091821600B
:10556C00EDE71A465B680BB1A342FAD911685018E3
:10557C00A0420BD120680144501883421160E0D145
:10558C0018685B68084410605360DAE702D90C2392
:10559C002B60D6E7206821188B4201BF19685B6825
:1055AC000918216063605460CBE738BD700F002090
:1055BC0070B50F4E0C463168054611B901F0A6F9CD
:1055CC0030602146284601F0A1F9431C03D14FF06D
:1055DC00FF34204670BDC41C24F00304A042F8D054
:1055EC00211A284601F092F90130F2D1EFE700BF01
:1055FC006C0F00202DE9F843CD1C25F00305083570
:10560C000C2D38BF0C25002D064601DBA94204D910
:10561C000C2333600020BDE8F883DFF8D48000F061
:10562C0069F8D8F800301C4644BB29463046FFF7D1
:10563C00BFFF431C044658D1D8F800402746002F22
:10564C0043D1002C4BD023683946304604EB030978
:10565C0001F05CF9814542D1216830466D1A29462A
:10566C00FFF7A6FF01303AD023682B442360D8F80B
:10567C0000305A6862BBC8F800700FE02268521BF9
:10568C0020D40B2A17D96119A342256018BF596081
:10569C00636808BFC8F8001062514B60304600F0D8
:1056AC002FF804F10B00231D20F00700C21A1CBFB9
:1056BC001B1AA350AFE76268A3420CBFC8F80020C6
:1056CC005A60EBE723466468AEE73C467F68B6E772
:1056DC001A465B68A342FBD100235360DEE70C2320
:1056EC003046336000F00CF894E70560D6E700BF55
:1056FC00700F00200148FFF7FABE00BF680F0020B2
:10570C000148FFF7F5BE00BF680F00202DE9F047F8
:10571C001F468E688246BE420C469046334653D88E
:10572C00B1F90C0010F4906F2BD0656923680969EE
:10573C0005EB4505A3EB010905EBD5757B1C6D103D
:10574C004B44AB422A4684BF1D462A46430527D507
:10575C0011465046FFF74EFF064658B34A4621699C
:10576C00FFF7CFFEA38923F4906343F08003A3815A
:10577C0026614E4426603B463E466561A5EB090515
:10578C00A5601F463A464146206801F083F8002088
:10579C00A3689B1BA36023683B442360BDE8F08790
:1057AC00504601F0D1F806460028E1D15046216957
:1057BC00FFF7B6FE0C23CAF80030A3894FF0FF3078
:1057CC0043F04003A381E9E73E46DBE72DE9F04FC8
:1057DC0098468B8907461B060D4614469DB010D57E
:1057EC000B6973B94021FFF705FF2860286130B9B8
:1057FC000C233B604FF0FF301DB0BDE8F08F402311
:10580C006B610023099320238DF8293030234FF04E
:10581C000109CDF80C80DFF898818DF82A302346E9
:10582C009A4613F8012B0AB1252AF9D1BAEB040BCD
:10583C000BD05B46224629463846FFF767FF0130FE
:10584C0000F0A780099A5A4409929AF80030002B6C
:10585C0000F09F8000234FF0FF32CDE905230AF1C1
:10586C00010A049307938DF853301A93544605227A
:10587C0014F8011B4E4801F059F8049AD8B9D00617
:10588C0044BF20238DF85330110744BF2B238DF8D0
:10589C0053309AF800302A2B15D0544600204FF084
:1058AC000A0C079A214611F8013B303B092B4BD9C6
:1058BC00B0B1079214E0A0EB080309FA03F3134309
:1058CC00A2460493D2E7039B191D1B680391002B7E
:1058DC00BBBF5B4242F0020207930793B8BF04922E
:1058EC0023782E2B0AD163782A2B32D1039B0234D6
:1058FC001A1D1B68039243EAE3730593DFF8B4A007
:10590C0003225046217801F011F838B14022049B53
:10591C00A0EB0A00824013430134049314F8011BDA
:10592C00062225488DF8281001F000F8002836D002
:10593C00224B1BBB039B073323F007030833039352
:10594C00099B334409936AE70C4601200CFB023295
:10595C00A8E700234FF00A0C1946013405932046A2
:10596C0010F8012B303A092A03D9002BC6D0059127
:10597C00C4E7044601230CFB0121F0E703AB0093C1
:10598C002A4638460E4B04A9AFF30080421C06464B
:10599C00D6D1AB895B063FF52DAF09982CE703AB4D
:1059AC0000932A463846064B04A900F095FBEDE718
:1059BC008C7C0008927C0008967C0008000000009B
:1059CC001957000838B54B1C144603D14FF0FF355E
:1059DC00284638BD9389CDB223F020039381636BA5
:1059EC0052688BB1A36B934208DD23685A1E226068
:1059FC0003F8015C636801336360E9E7214600F05A
:105A0C0011FF0028F1D0E1E72169236851B19942D7
:105A1C0008D213F8011CA94204D1013B01322360C6
:105A2C006260D5E7C4E90F3204F1440363630323D6
:105A3C00A363234603F8465F23600123DCE710B51C
:105A4C000C46496B69B104F14403994201D0FFF74C
:105A5C0067FD0020236C6063636013B1E36B23600C
:105A6C0010BD23694FF0FF30236000236360A389CE
:105A7C0043F02003A381F3E72DE9F04F0D460021FD
:105A8C00ADF5237D0746E84641ACC4E9031101A9F5
:105A9C006161AE49DFF8B8B2C4F87C11AD4900932E
:105AAC00C4F8801192F80090B9F1000F00F06081F9
:105ABC001BF80930561C13F008031BD06B68002B25
:105ACC0010DD2B681A781BF80220120701D432461D
